:020000041000EA
:10100000480500201910001000000000A310001077
:1010100000040100000100001249134A134B00F0C4
:101020001AF8134880471349134A144B00F013F879
:101030001349144A144B00F00EF81449144A0020C6
:10104000521A02DD043A8850FCDC124880471248EC
:101050008047124880479B1A03DD043BC858D05094
:10106000FBDC7047289900100C0000204401002090
:10107000F9690010609A001048050020540600200D
:101080006C9B001058060020A80E0020A80E00201F
:10109000B4160020A110001011920010FD4F001096
:1010A0007047FEE70269C3689A4204D88068C01A94
:1010B000801801387047D01A0138FBE7F8B5CE46E2
:1010C000474680B504000E001700C568836899463E
:1010D0005B1B9846934209D94068401908F0BCF858
:1010E000ED19E560C0BCB946B046F8BD406840198E
:1010F0001A0008F0B1F84B46ED1AED19606831009E
:1011000041442A0008F0A8F8E560EBE7F8B5CE46C0
:10111000474680B5060088461700C46800239946F4
:1011200014E0B2681B1BD218013A14E07068001971
:101130002A00414608F090F8A944A8447F1B64198E
:10114000B368A34211D0F460002F10D033699C42E1
:10115000E7D21A1B013AB3681B1B934200D9130054
:101160003D009F42E2D91D00E0E70024EBE748463E
:10117000C0BCB946B046F8BD10B5134CA82200213A
:10118000200008F03DF80323236163610F4AA26148
:101190000F4BE3618023DB0023620023A3626362C1
:1011A000E36222660B4A62661022A2662367E36648
:1011B000636706E00F22D21A0749895C024AD154BC
:1011C00001330F2BF6D910BDA80E00207892001025
:1011D000600F0020500F002084920010F8B503002B
:1011E0000F001600421C5400A418E400174AA4186B
:1011F0004000C018C0001218D56A012D12D0022D6F
:101200001DD0002D02D000252800F8BD2000FFF7DA
:1012100049FF8642F8D8320039002000FFF74EFF20
:101220003500F1E72000FFF73DFF3500864200D989
:1012300005002A0039002000FFF740FFE4E73200F4
:101240002000FFF763FF0500DEE7C046A80E002080
:10125000F8B504000D001600094B1B78532B0CD178
:10126000EFF31087012181F310883200290020005C
:10127000FFF7B4FF87F31088F8BDFFF77DFFEFE7B6
:10128000A80E002070B505000C00080007F0EDFF67
:10129000020021002800FFF7DBFF70BDF0B583B02E
:1012A00004000F0016000193184B1B78532B26D116
:1012B000022C27D8EFF31083012181F31088190045
:1012C000002C10D0114A601C43001D18ED00AF50D7
:1012D00053195E6063001B19DB00D318019A1A6270
:1012E00000229A625A62094B62001219D2009B18BE
:1012F000089ADA6281F31088002003B0F0BDFFF78E
:101300003BFFD5E701204042F7E7C046A80E00208A
:1013100010B5FFF731FF10BD10B500F007F800F071
:10132000A1FB10BD10B5FFF7F7FF10BDF0B5DE460D
:1013300057464E464546E0B585B0FE4C002120009C
:1013400005F080FC80235B009946E360FA49FB4F7F
:10135000380005F091FC02239B46FB6304267E6364
:101360008021C904200005F07FFC07232361F44A93
:101370000121380005F0C1FCF24A0221380005F0D5
:10138000BCFCF14A0321380005F0B7FC0122012121
:10139000380005F097FC01220221380005F0E0FC3E
:1013A000A4257B5933437B5101218A46E160002605
:1013B0003E67F960E549E64F380005F074FCE54BFF
:1013C0007B6380210905200005F04EFC702121611E
:1013D000E14A6F39380005F090FCE04A02213800FC
:1013E00005F08BFCDE4A0321380005F086FC012263
:1013F0000121380005F066FC0121380005F076FC7B
:1014000000220821380005F0ABFC7B594A46134303
:101410007B515A46E2603E675246FA60D149D24F4C
:10142000B846380005F028FCFE63D04B7B63802172
:101430004905200005F018FCE027FF002761CC4A91
:101440000121404605F059FCCA4A0221404605F0F8
:1014500054FCC94A0321404605F04FFC0423E360D5
:10146000424616675146D160C449C54A90461000AD
:1014700005F002FCA0234246D363C24B5363802194
:101480008905200005F0F0FBE022D2012261BE4A6E
:101490000121404605F031FCBC4A0221404605F0DE
:1014A0002CFCBB4A0321404605F027FC0821E160E3
:1014B000444626675746E760A024E4050021200043
:1014C00005F07AFC4F46E760B249B34F380005F0AB
:1014D00085FCD22292009046FA637E64D222D2002A
:1014E00091461100380005F0E4FC8021C904200079
:1014F00005F08FFC07222261A84A0121380005F07F
:10150000A5FCA74A0221380005F0A0FCA54A03214A
:10151000380005F09BFC01220121380005F082FC17
:101520005346E360A049380005F0EAFC3E679F4956
:101530009F4F380005F052FC4346FB637E644946EA
:10154000380005F0B6FC80210905200005F061FC9B
:1015500070202061974A0121380005F077FC964AF7
:101560000221380005F072FC944A0321380005F08E
:101570006DFC01220121380005F054FC5846E06062
:101580008F49380005F0BCFC3E678E498E4F38000D
:1015900005F024FC4046F8637E644946380005F0B7
:1015A00088FC80214905200005F033FCE020C000C4
:1015B0002061864A0121380005F048FC844A022156
:1015C000380005F043FC834A0321380005F03EFC57
:1015D00001220121380005F025FC0423E3607E4947
:1015E000380005F08DFC3E677C497D4F380005F0E2
:1015F000F5FB4346FB637B644946380005F059FC24
:1016000080218905200005F004FCE020C001206154
:10161000744A0121380005F019FC734A0221380090
:1016200005F014FC714A0321380005F00FFC01227B
:101630000121380005F0F6FB03220021380005F0F7
:101640003BFC02220121380005F036FC0022042177
:10165000380005F031FC01220321380005F02CFC94
:101660007B59504603437B517B59584603437B517A
:101670007B59102213437B517B5908210B437B512B
:10168000E1603E675A4C200005F06EFC23680321A0
:1016900089468B4323605749200005F071FC564969
:1016A000200005F077FC5549554C0022200005F03C
:1016B0007DFCE36950229343E361E369493A934334
:1016C0004A461343E361E26B4E4B1A4080231B01F1
:1016D0001343E3634C4B2361953D029501960096BD
:1016E0003A2300220021200005F060FD1F2305227F
:1016F0000021200005F08AFD1F2305222021200063
:1017000005F06EFD236CAB435A46134323643F4CF4
:10171000666022791F231A4322713D4A9046566023
:1017200012791A4341460A71A660227A1A4322723C
:101730008E606FE000000448F4920010000104483D
:10174000FC920010009300100493001010930010FE
:1017500000020448FEFF0000189300101C930010C4
:1017600020930010CC93001000030448FFFF0000FA
:10177000D4930010D8930010DC930010B89300109D
:1017800000040448FF040000C0930010C49300103C
:10179000C8930010249300100001005040930010E3
:1017A0004493001048930010349300104C930010A1
:1017B00000020050689300106C93001070930010AA
:1017C0005C9300107493001000030050909300107D
:1017D0009493001098930010849300109C93001031
:1017E00000040050AC930010B0930010B4930010AC
:1017F000000001500C930010089300109892001004
:1018000000020048FFE0FFFF21810000601300207C
:10181000741300200A7A13430B727D497D4F380000
:1018200005F042FD7C4D2100280005F0A9FD7B4C10
:101830004146200005F0A4FD0321280005F0E0FD4D
:101840000321200005F0DCFD8023FA5874490A408A
:10185000FA50FA5873490A40FA50380005F040FD32
:1018600081239B00FA5849468A43FA50FA58514658
:101870000A43FA506C49380005F0CAFD82235B0028
:101880009846EB584A4693434246AB50AB585246B3
:1018900013434246AB500021280005F04DFE0121C4
:1018A000280005F049FE0221280005F045FE03212D
:1018B000280005F041FE5D49280005F005FE5C4B5F
:1018C0001F68002300223900280005F02DFD0023A9
:1018D00001223900280005F027FD564B1F6801231F
:1018E00000223900280005F01FFD012301223900E4
:1018F000280005F019FDAF239B009B46F0235B03F6
:101900005A46AB50A2239B00EE5088277F0021232C
:10191000EB51EB51EB51EB51EB51EB512722EA51DB
:10192000EB51454A0121280005F010FE434A0721EA
:10193000280005F00BFE4346E35849468B434146D9
:101940006350635851460B434146635000212000C9
:1019500005F0F2FD0121200005F0EEFD022120003E
:1019600005F0EAFD0321200005F0E6FD34492000E2
:1019700005F0AAFD334B1D6800230022290020003A
:1019800005F0D2FC002301222900200005F0CCFC48
:101990002D4B1D68012300222900200005F0C4FC06
:1019A000012301222900200005F0BEFC274B5946E7
:1019B0006350A4239B00E6500433E6502023E351F8
:1019C000E3512722E251E351E351013AE251E3515D
:1019D000E3511F4A0021200005F0B8FD1D4A0621F1
:1019E000200005F0B3FD1C4A0721200005F0AEFDE4
:1019F0001A4805F0EBFD1A4A536851460B435360F1
:101A000005B0F0BCBB46B246A946A046F0BDC046F4
:101A1000FC9300100000034800040348000803483A
:101A2000FFFFFEFFFFFFFDFFF09300101494001076
:101A3000E0930010E4930010A4920010B492001000
:101A400020940010E8930010EC93001000001E801A
:101A5000C4920010D4920010E49200102C94001054
:101A60000000024010B57F4A7F4C0021200004F0A6
:101A7000CBFF00220021200005F049FA7B4A0A2111
:101A8000200004F0C1FF00220A21200005F03FFAE7
:101A9000774A0D21200004F0B7FF00220D2120001D
:101AA00005F035FA734A0121200004F0ADFF002251
:101AB0000121200005F02BFA6F4A0221200004F0DA
:101AC000A3FF00220221200005F021FA6B4A032126
:101AD000200004F099FF00220321200005F017FAEE
:101AE000674A0421200004F08FFF00220421200017
:101AF00005F00DFA634A0521200004F085FF00225D
:101B00000521200005F003FA5F4A0621200004F0B9
:101B10007BFF00220621200005F0F9F95B4A07212E
:101B2000200004F071FF00220721200005F0EFF9EA
:101B3000574A0821200004F067FF002208212000F6
:101B400005F0E5F9534A0921200004F05DFF002269
:101B50000921200005F0DBF94F4A504C00212000FC
:101B600004F052FF00220021200005F0D0F94C4A79
:101B70000121200004F048FF00220121200005F08F
:101B8000C6F9484A0221200004F03EFF002202214B
:101B9000200005F0BCF9444A0321200004F034FF82
:101BA00000220321200005F0B2F9404A052120005F
:101BB00004F02AFF00220521200005F0A8F93C4A84
:101BC0003C4C0A21200004F01FFF00220A212000C3
:101BD00005F09DF9384A0B21200004F015FF002282
:101BE0000B21200005F093F9344A0221200004F073
:101BF0000BFF00220221200005F089F9304A042160
:101C0000200004F001FF00220421200005F07FF9EC
:101C10002C4A0521200004F0F7FE002205212000B7
:101C200005F075F9284A0621200004F0EDFE002297
:101C30000621200005F06BF9244A0821200004F059
:101C4000E3FE00220821200005F061F9204A092165
:101C5000200004F0D9FE00220921200005F057F9E8
:101C600010BDC046B09400100000044070940010F5
:101C700098940010B8940010C0940010C8940010FC
:101C8000A0940010909400106894001060940010CC
:101C9000D0940010D89400108894001000010440E3
:101CA0008094001078940010E0940010A894001024
:101CB000509400100002044058940010F09400105A
:101CC00038940010E8940010F8940010409400102C
:101CD0004894001030B585B001A8044B020032CB07
:101CE00032C204F085FF05B030BDC046009500103B
:101CF00010B5FFF717FB002010BD70B505000E00F2
:101D00001C0004AB18888D421FD395421ED2521A74
:101D100091B2A0420CD2AE1BB6B2201A80B2704370
:101D20004B08C01805F000F980B2201A80B20DE00F
:101D3000AD1BADB2001B80B268434B08C01805F064
:101D4000F3F880B2001980B200E0200070BD70B5D9
:101D50001D0004AB1B7888421DD990421DD2AB42B6
:101D60000CD2441AE4B2E81AC0B26043511AC9B2A4
:101D700005F0EAF8C0B2281AC0B20DE0441AE4B285
:101D8000581BC0B26043511AC9B205F0DDF8C0B2A9
:101D90004019C0B200E0280070BD1800FCE7030045
:101DA00008008B4200D21800704770B505000C0087
:101DB0000A2A15D80A20801A68434A438018053039
:101DC0000A2105F0B1F880B284420AD1854202D9D5
:101DD000013080B205E0854203D2013880B200E0D4
:101DE000002070BD002803D0044B20225A607047A9
:101DF000024B802292035A60F9E7C046000104407A
:101E000010B5CD4B1B88CD4A1288934200D027E3F2
:101E1000CA4C2380CA4B1B886380CA4B1B88A38093
:101E2000C94B1B88E380C94B1B882381C84B1B8887
:101E30006381C84B1B88A381C74B1B88E381C74BB9
:101E40001B882382C64B1B886382C64B1B88A382D8
:101E5000C54B1B88A375C54B1B88E375C44B1B88FA
:101E60002376C44B1B886376C34B1B88A376C34B76
:101E70001B88A383C24B1B88E383C24B1A88202391
:101E8000E254C14B1A882123E254C04B1A88222302
:101E9000E254BF4B1A882323E254BE4B1A882423F2
:101EA000E254BD4B1B88E384BC4B1B882385BC4B91
:101EB0001A882A23E254BB4B1A882B23E254BA4BCC
:101EC0001A882C23E254B94B1A882D23E254B84BBC
:101ED0001A882E23E254B74B188806F01FF9B6492A
:101EE00005F0F2FB2063B54B188806F017F9B249EC
:101EF00005F0EAFB6063B24B188806F00FF9AE49B3
:101F000005F0E2FBA063AF4B188806F007F9AA4979
:101F100005F0DAFBE063AC4B188806F0FFF8A64941
:101F200005F0D2FB2064A94B188806F0F7F8A24907
:101F300005F0CAFB6064A64B188806F0EFF89E49CE
:101F400005F0C2FBA064A34B188806F0E7F89A4995
:101F500005F0BAFBE064A04B188806F0DFF896495C
:101F600005F0B2FB20659D4B188806F0D7F8924922
:101F700005F0AAFB60659A4B188806F0CFF88E49E9
:101F800005F0A2FBA065974B188806F0C7F88A49B0
:101F900005F09AFBE065944B1A886023E252934B5C
:101FA0001A886223E254924B1A886323E254914BBD
:101FB0001A886423E254904B1A886523E2548F4BAD
:101FC0001A886623E2548E4B1A886723E2548D4B9D
:101FD0001A886823E2548C4B1A886923E2548B4B8D
:101FE0001A886A23E2548A4B1A886B23E254894B7D
:101FF0001A886C23E254884B1A886D23E254874B6D
:102000001A886E23E254864B1A886F23E254854B5C
:102010001A887023E254844B1A887123E254834B4C
:102020001A887223E254824B1A887423E252814B3D
:102030001A887623E254804B1A887723E2547F4B28
:102040001A887823E2547E4B1A887923E2547D4B18
:102050001A887A23E2547C4B1A887B23E2547B4B08
:102060001A887C23E2547A4B1A887D23E254794BF8
:102070001A887E23E254784B1A887F23E254774BE8
:102080001A888023E254764B1A888123E254754BD8
:102090001A888223E254744B1A888323E254734BC8
:1020A0001A888423E254724B1A888523E254714BB8
:1020B0001A888623E254704B1A888723E2546F4BA8
:1020C0001A888823E2546E4B1A888923E2546D4B98
:1020D0001A888A23E2546C4B1A888B23E2546B4B88
:1020E0001A888C23E2546A4B1A888D23E254694B78
:1020F0001A888E23E254684B1A888F23E254674B68
:102100001A889023E254664B1A889123E254654B57
:102110001A889223E254644B1A889323E254634B47
:102120001A889423E254624B1A889523E254614B37
:102130001A889623E252BFE000F000104805002004
:1021400002F0001004F0001006F0001008F000107B
:102150000AF000100CF000100EF0001010F000104B
:1021600012F0001014F0001016F0001018F000101B
:102170001AF000101CF000101EF0001020F00010EB
:1021800022F0001024F0001026F0001028F00010BB
:102190002AF000102CF000102EF0001030F000108B
:1021A00032F0001034F0001036F0001038F000105B
:1021B0003AF000103CF000100000C8423EF0001061
:1021C00040F0001042F0001044F0001046F0001003
:1021D00048F000104AF000104CF000104EF00010D3
:1021E00050F0001052F0001054F0001056F00010A3
:1021F00058F000105AF000105CF000105EF0001073
:1022000060F0001062F0001064F0001066F0001042
:1022100068F000106AF000106CF000106EF0001012
:1022200070F0001072F0001074F0001076F00010E2
:1022300078F000107AF000107CF000107EF00010B2
:1022400080F0001082F0001084F0001086F0001082
:1022500088F000108AF000108CF000108EF0001052
:1022600090F0001092F0001094F0001096F0001022
:1022700098F000109AF000109CF000109EF00010F2
:10228000A0F00010A2F00010A4F00010A6F00010C2
:10229000A8F00010AAF00010ACF00010AEF0001092
:1022A000B0F00010B2F00010B4F00010B6F0001062
:1022B000B8F00010BAF000106A4B1A889823E25266
:1022C000694B1A889A23E252684B1A889C23E2527F
:1022D000674B1A889E23E254664B1A889F23E25468
:1022E000654B1A88A023E254644B1A88A123E25458
:1022F000634B1A88A223E254624B1A88A323E25448
:10230000614B1A88A423E254604B1A88A523E25437
:102310005F4B1A88A623E2545E4B1A88A723E25427
:102320005D4B1A88A823E2545C4B1A88A923E25417
:102330005B4B1A88AA23E2545A4B1A88AB23E25407
:10234000594B1A88AC23E254584B1A88AD23E254F7
:10235000574B1A88AE23E254564B1A88AF23E254E7
:10236000554B1A88B023E254544B1A88B123E254D7
:10237000534B1A88B223E254524B1A88B323E254C7
:10238000514B1A88B423E254504B1A88B523E254B7
:102390004F4B1A88B623E2544E4B1A88B723E254A7
:1023A0004D4B1A88B823E2544C4B1A88B923E25497
:1023B0004B4B1A88BA23E2544A4B1A88BB23E25487
:1023C000494B1A88BC23E254484B1A88BD23E25477
:1023D000474B1A88BE23E254464B1A88BF23E25467
:1023E000454B1A88C023E254444B1A88C123E25457
:1023F000434B1A88C223E254424B1A88C323E25447
:10240000414B1A88C423E254404B1A88C523E25436
:102410003F4B1A88C623E2543E4B1A88C723E25426
:102420003D4B1A88C823E2543C4B1A88C923E25416
:102430003B4B1A88CA23E2543A4B1A88CB23E25406
:10244000394B1A88CC23E254384B1A88CD23E254F6
:10245000374B1A88CE23E254364B1A88CF23E254E6
:1024600010BDC046BCF00010BEF00010C0F000105F
:10247000C2F00010C4F00010C6F00010C8F0001048
:10248000CAF00010CCF00010CEF00010D0F0001018
:10249000D2F00010D4F00010D6F00010D8F00010E8
:1024A000DAF00010DCF00010DEF00010E0F00010B8
:1024B000E2F00010E4F00010E6F00010E8F0001088
:1024C000EAF00010ECF00010EEF00010F0F0001058
:1024D000F2F00010F4F00010F6F00010F8F0001028
:1024E000FAF00010FCF00010FEF0001000F10010F7
:1024F00002F1001004F1001006F1001008F10010C4
:102500000AF100100CF100100EF1001010F1001093
:1025100012F1001014F1001016F1001018F1001063
:102520001AF100101CF100101EF1001020F1001033
:1025300022F1001024F10010F0B5DE4657464E4659
:102540004546E0B589B0FFF75BFCF94C228D01925E
:102550002E23E05C5043642104F0E6FCF54B188028
:10256000A27EF54B1A70A58BB723E35C9A46ED1A51
:10257000ADB2F24B1D80F24BA0221A80A37D0293D4
:10258000002B00D1C7E2680040194000A02104F0F0
:10259000DBFC0130EB4B1880A80040198000A02123
:1025A00004F0D2FC0130E84B1880BE22A05C6843E6
:1025B000A02104F0C9FC0130E44B1880E14B1B88DA
:1025C0009946E14B1C8864004B46E41AA4B2E41A15
:1025D000A4B2DF4B1C802900FA20400104F0B4FCB7
:1025E000DC4B1880DC4B50221A80D14EBF23F75CA5
:1025F0006437B800C0190001642104F0A5FC85B25D
:10260000D64B1D80D64B782290461A803801C01BCD
:102610008000642104F098FC070043464A469B1A58
:10262000CA4A1088804698442001001BC000A0219F
:1026300004F08AFC4346181A7843782104F084FC9D
:1026400080B2C84B18802C004443281A8300181805
:102650004000C023F15C04F077FC291A200004F04C
:1026600073FC0100C04804F06FFCC123F35C5843C5
:10267000222104F069FCC3B203931800BB4B1880FD
:102680008423F75C7A08BA4B1A707E23F35C002B24
:1026900004D18022B35C002B00D14DE2A44C236B0B
:1026A0009B46B449181C05F0D9F904F0D7FFB24B8A
:1026B0001880636BAF490493181C05F0CFF904F040
:1026C000CDFFAE4B1880A26B9146AA49101C05F0B5
:1026D000C5F904F0C3FFAA4B1880E26B9046A549E8
:1026E000101C05F0BBF904F0B9FFA64B1880226C52
:1026F000A0490592101C05F0B1F904F0AFFFA24B00
:102700001880666C9B49301C05F0A8F904F0A6FF00
:102710009E4B1880E56D9749281C05F09FF904F041
:102720009DFF9B4B18802A23E05C05F0A5FC041C50
:102730009849584605F092F9011C201C05F08EF9C5
:1027400004F08CFF944B18809249049805F086F9A8
:10275000011C201C05F082F904F080FF8F4B1880CB
:102760008C49484605F07AF9011C201C05F076F9E1
:1027700004F074FF8A4B18808649404605F06EF9D4
:10278000011C201C05F06AF904F068FF854B1880D5
:102790008049059805F062F9011C201C05F05EF9DE
:1027A00004F05CFF804B18807A49301C05F056F924
:1027B000011C201C05F052F904F050FF7B4B1880DF
:1027C0007449281C05F04AF9011C201C05F046F943
:1027D00004F044FF764B1880554BB6229D5CAB004D
:1027E000ED186D00734B1D80734B1D804F2D00D96C
:1027F00075E2724B663A1A804D4C8923E25C704B4D
:102800001A70704B1F70BC23E25C6F4B1A70692307
:10281000E25C6E4B1A708723E25C6D4B1A70682382
:10282000E25C6C4B1A706C23E25C6B4B1A70227E7C
:102830006A4B1A706423E25C694B1A70BB22A25C7B
:102840005A707023E25C674B1A707123E25C664B2E
:102850001A706D23E25C654B1A70627E644B1A70CD
:102860002D23E05C019B5843642104F05DFB314B58
:1028700018802B23E25C5F4B1A705F4B039A1A702F
:102880005E4B52461A805E4B1A805E4B1A801E3A8F
:102890005D4B1A8053461E335C4A13805C4B029A90
:1028A0001A706223E25C5B4B1A707622A25C5A704B
:1028B000C723E25C584B1A70CC23E25C574B1A706A
:1028C000CD22A25C5A70564B1D703C4A12885A7039
:1028D000C323E25C534B1A706B23E25C524B1A70B9
:1028E0009023E25C514B1A709122A25C5A709222A2
:1028F000A25C9A709322A25CDA709422A25C1A7194
:102900009522A25C5A718A23E25C494B1A708B2291
:10291000A25C5A708C22A25C9A708D22A25CDA7042
:102920008E22A25C1A718F22A25C5A7182E0C0468C
:1029300048050020EE130020B1150020921300205E
:1029400096130020881300208E130020901300207F
:102950008A130020941300209A130020981300205B
:102960009C1300208C130020A80F0000CA13002025
:10297000B61300200000C842C4130020C213002078
:10298000C0130020BE130020BC130020BA13002087
:10299000B813002000002041AA130020A813002033
:1029A000A6130020A4130020A2130020A0130020CF
:1029B0009E130020B4130020B0130020B213002097
:1029C000581500207A1500207E150020E6150020FD
:1029D00059150020F1150020FA1500205615002089
:1029E00000160020A0150020A1150020A21500202F
:1029F00057150020AD150020B0150020FC13002055
:102A000000140020FE1300200414002002140020F3
:102A1000FB150020081600209B150020F81500204B
:102A200068150020EC150020ED1500206C15002025
:102A300074150020AB4B00221A709621665A760856
:102A4000F6B25E700231655A6D08EDB29D700231CA
:102A5000605A4008C0B2D8700231615A4908C9B200
:102A600019715A719E27E75D9F719F27E75DDF719E
:102A7000A027E75D1F72A127E75D5F729A72A22708
:102A8000E75DDF72A327E75D1F73A427E75D5F7330
:102A9000A527E75D9F73DA73A627E75D1F74A72755
:102AA000E75D5F74A827E75D9F74A927E75DDF7482
:102AB0001A755E759D75D87519765A76B121615C67
:102AC0009976B221615CD976B321615C1977B42122
:102AD000615C59779A77AA21615CD977AB21605CF8
:102AE0008B3958548C31605C8B3958548C31605C14
:102AF0008B39585401315A5401315A5401315A54C6
:102B000001315A5401315A5409B0F0BCBB46B246A7
:102B1000A946A046F0BD744B06221A80734B0E32B4
:102B20001A80734BAA32985C6843A02104F00CFA17
:102B30000130704B188041E56D4C266B301C06F05F
:102B4000AFF900226C4B05F031FB04F09FFD6B4B9D
:102B50001880636B0493181C06F0A2F90022664BE0
:102B600005F024FB04F092FD654B1880A26B9146A2
:102B70006449101C04F072FF04F070FD624B188071
:102B8000A26C93465F49101C04F068FF04F066FDD8
:102B90005E4B1880E26C5B490592101C04F05EFFEE
:102BA00004F05CFD5A4B1880216D0D1C55490695AB
:102BB000281C04F053FF04F051FD564B1880616D42
:102BC0000D1C50490795281C04F048FF04F046FDF1
:102BD000514B1880A16D88464A49404604F03EFF9B
:102BE00004F03CFD4D4B1880E56D4649281C04F06F
:102BF00035FF04F033FD4A4B18802A23E05C05F0D2
:102C00003BFA041C4749301C04F028FF011C201C1F
:102C100004F024FF04F022FD434B1880414904983E
:102C200004F01CFF011C201C04F018FF04F016FD2A
:102C30003E4B18803B49484604F010FF011C201C05
:102C400004F00CFF04F00AFD394B18803549584652
:102C500004F004FF011C201C04F000FF04F0FEFC43
:102C6000344B18802F49059804F0F8FE011C201CF5
:102C700004F0F4FE04F0F2FC2F4B1880294906986A
:102C800004F0ECFE011C201C04F0E8FE04F0E6FC5D
:102C90002A4B18802349079804F0E0FE011C201CF1
:102CA00004F0DCFE04F0DAFC254B18801D49404698
:102CB00004F0D4FE011C201C04F0D0FE04F0CEFC75
:102CC000204B18801749281C04F0C8FE011C201C4A
:102CD00004F0C4FE04F0C2FC1B4B18807CE51B4BC7
:102CE0001D8089E5BC150020881300208E1300206C
:102CF000480500209013002000005940C813002010
:102D0000C61300200000C842C4130020C2130020D4
:102D1000C0130020BE130020BC130020BA130020F3
:102D2000B813002000002041AE130020AC13002097
:102D3000AA130020A8130020A6130020A41300202B
:102D4000A2130020A01300209E130020B213002025
:102D500070B5164B1B78002B14D0012B16D0144BDA
:102D60001B78002B0DD0134D2C88134B134A12786F
:102D70005200D05A6043642104F0D6F880B224187F
:102D80002C8070BD0A4B01221A70E8E70C4B1B889F
:102D9000002B03D1064B01221A70E0E7074B1B788A
:102DA0002D2BDCD9024B00221A70D8E7EC1500203D
:102DB000EE150020F613002034140020AF1500207B
:102DC0002E15002010B5194B1B78002B0BD1184B7A
:102DD0001B88002B07D1174B01221A70164B174A7C
:102DE00012781A701DE0134B1B78002B19D0124B70
:102DF0001B78002B16D0104A013B13700E4B1B782A
:102E0000642058430D4B197804F09EF883B2642077
:102E1000C01A80B20A4C23885843642104F094F805
:102E2000208010BD034B00221A70E7E7AF15002089
:102E300026140020E9150020E7150020E8150020E1
:102E4000F613002010B5184B1B78002B27D0174A1B
:102E50001378591C1170DB0703D5154A1388013309
:102E60001380134B1A88C8239B009A4202D9104B37
:102E7000A0221A800E4B1B88DB08DBB20D4A1370B0
:102E80000D4A927CD2B20D498B540D4B1B886420A5
:102E90005843A72104F048F80A4B188010BD044B92
:102EA000A0221A80FAE7C046FD150020F015002088
:102EB0002C140020B1150020D8130020B4150020D8
:102EC0002E1400203014002010B50B4B1B889BB231
:102ED000002B0CD0084B198889B2084B9888AB237B
:102EE0009B00584304F020F8054B188010BD044B9C
:102EF00000221A80FAE7C04666160020D813002088
:102F00002E15002008490A889308D21A92B20A8026
:102F1000064B1B889B189BB20B80054A9B085721C8
:102F20004B4313807047C046F01300205A16002010
:102F30001214002000B5AB4B9B7B012B5FD0A94B3B
:102F40009B7B022B5BD0A74B9B7B052B57D0A54BC4
:102F50009B7B042B53D0A44B00221A70A34B1A88DE
:102F60000A2A07D9A04B1B78002B50D19D4B9B7B85
:102F7000032B4CD09E4B002119709D4B1B783C2B92
:102F800002D99C4B092119709B4B19889B4B1B88BC
:102F9000994202D0974B09211970934B1978002957
:102FA00014D0974B1B880A3B9BB291204000834270
:102FB00009D8944B1888FA235B00984203D8924BA7
:102FC0001B78002B30D08B4B022018708F4B1B8846
:102FD0005B0814338E48008883422DD28D4B1B78BA
:102FE000002B29D1002927D08B4B1B78013BDBB26A
:102FF000812B21D989490B7801330B701FE0884B55
:103000001B78002BA7D1784B01221A70A6E7854BBD
:103010001B78002B03D0844B1B78002BAAD174495A
:103020000B7801330B70A8E7724B1B78022BCDD1C4
:10303000704B00201870C9E7784B00211970774B4E
:103040001B78FA2B19D96B4B03211970774B1B781E
:10305000002B38D15A2A25D9624B9B7B072B21D0D4
:10306000604B9B7B062B1DD05E4B9B7A002B19D1AE
:103070006F490B8801330B8017E05E4B1B78032BE5
:10308000E4D16C490B780133DBB20B70502BDDD9E6
:10309000584B1B78032BD9D1564B00211970654B27
:1030A0001970D3E7624B00211980634B1B88002BFA
:1030B00002D05F4B002119805D4B1B887D2B23D9EB
:1030C0004C4B082119704B4B1B78042B31D04B4BC8
:1030D0002121595C594B1B7899423DD2474B222103
:1030E0005B5C9A4238D2564A13780133DBB21370D4
:1030F000424A0239525C934231D93E4B04221A7043
:103100004F4B00221A702AE03A4B1B78082BDAD179
:103110004C490B8801339BB20B807D2BD3D9354BA7
:103120001B78082BCFD1334B00211970454B1980E8
:10313000C9E7454A13780133DBB21370502B0ED91F
:103140002C4B1B78042B03D03F4B00221A7006E057
:10315000284B00221A70F7E7394B00221A703B4ABD
:10316000C5239B00D3589B109B059B0D384A1380A9
:103170001C4B5B7BDBB2374AD35C002B26D0364B33
:103180001B78132B10D8344A01331370304B1A8834
:1031900092081A4B79215B5C0533DBB29A421CD949
:1031A000144B05221A7018E0124B1B78052B14D112
:1031B000274B1A889208114B79215B5C0533DBB2EF
:1031C0009A420AD20B4B00221A7006E0224B0022D0
:1031D0001A70084B1B78052B00D000BD054B1A70E8
:1031E000FBE7C046D8130020E51500202614002078
:1031F000AC150020F215002000F00010480500205A
:10320000FC130020F4130020531500209613002017
:10321000F8130020EB150020AF15002061150020E9
:1032200054150020521500209A150020F315002097
:10323000161400209D1500202E1500205D1500207D
:10324000AA15002020140020AB1500200008034818
:1032500056160020F8150020F515002010B5324B49
:103260001B78002B1DD0314B1B889BB2002B41D00B
:103270002E4B18888300C0184000C021490003F07D
:1032800053FE04002A4B1B782A485843642103F05C
:103290004BFE6043284B998889B203F045FE274BCB
:1032A0001880274B6A229B5C002B22D0234B1C8862
:1032B000002C07D0234B1888210003F035FE84B280
:1032C0006400A4B2204B1988002906D01D4B188831
:1032D00003F02AFE81B2490089B21C4B1B78002BF7
:1032E00013D08C420AD2091B89B2194A13685B18A1
:1032F000136010BD114B00221A80D2E7611A89B207
:10330000134A13685B1A1360F3E7002CF1D0104BDB
:103310001B68104A9342ECD90D4A1B1B1360074BE4
:1033200000221A80E5E7C0469415002066160020AA
:10333000AE150020271F0000D81300202A140020FB
:10334000480500201C1400201A1400207D150020C0
:103350002006002000E1F50570B582B0204B1888EA
:10336000C72807D91F4B18221A701F4B0F3A1A7023
:1033700002B070BD1D4E33788008C0B2182500958C
:1033800032220A21FEF7E3FC164C20703378184AEB
:103390001078009546221421FEF7D9FC2378834249
:1033A00001D9104B1870134E33780D4A10888008DD
:1033B000C0B20925009532220A21FEF7C8FC0A4C4A
:1033C000207033780A4A1078009546221421FEF7BF
:1033D000BEFC23788342CBD9034B1870C8E7C046A4
:1033E0002E1500202C0600202A0600202D06002085
:1033F000AF1500202B06002010B5344B1C78344B41
:103400001B7C002B53D1324B5B7A002B0ED0314BFF
:103410001B78002B0AD1304B1A88304B197878234F
:103420005B1A9A4202DD2B4B01221A70294B1A7843
:10343000002A03D12A4B1B78002B37D0264B198842
:10344000284B1B784B43544363435B0A5801C01A13
:103450008000C018C000244B198803F065FD84B2B9
:103460002409FFF779FF214B1A78A24222D2204B80
:103470001A70204B88229B5C002B0FD01E4B1B78B0
:10348000002B1AD01A4B1B78154A1278934201D997
:10349000134A1370164B124A12781A70144B1B7889
:1034A000002B0ED0154B164A12781A7010BDFFF77C
:1034B0004FFCA8E70E4B1C70DBE7094B00221A708B
:1034C000ECE70E4B00221A70F0E7C046B81500205A
:1034D000D8130020AF150020F61300205715002048
:1034E000EA150020B1150020121400202406002047
:1034F0005215002048050020EB1500209A150020E9
:103500003106002070B5334BC8229B5C002B53D191
:10351000314B5B7A002B0ED0304B1B78002B0AD13D
:103520002F4B1A882F4B197878235B1A9A4202DDA9
:103530002A4B01221A70284B9B7A002B02D0274B72
:1035400001221A70264B1888002803D0234B1B78C1
:10355000002B03D1244B1B78002B2CD0234B1B7842
:103560005843782103F0F0FC040085B2FFF7F4FE25
:103570001F4B1A78AA4222D21E4B1A70154B882272
:103580009B5C002B0FD01C4B1B78002B1AD0194BC7
:103590001B78154A1278934201D9134A1370154BC0
:1035A000114A12781A70134B1B78002B0ED0134B54
:1035B000134A12781A7070BDFFF704FCA8E70D4B90
:1035C0001C70DBE7084B00221A70ECE70B4B002263
:1035D0001A70F0E748050020D8130020AF1500202E
:1035E000F613002057150020EA150020B81500201A
:1035F0002406002052150020EB1500209A1500200B
:103600003106002070B5144B1B78002B00D170BD23
:10361000124A1278D3189B10114C2380FFF7D2FB6B
:103620002588104B1B882380FFF796FE0E4B1A78D7
:10363000AA420AD20D4B1A700C4B1B78002B07D0F4
:103640000B4B0C4A12781A70E1E7084B1D70F3E738
:10365000074B00221A70DAE7AF150020B8150020DA
:10366000F6130020FA130020240600205215002033
:103670009A1500203106002070B5394B5B7A002B7B
:103680000ED0384B1B78002B0AD1374B1A88374B9A
:10369000197878235B1A9A4202DD324B01221A70A4
:1036A0002F4B9B7A002B02D02E4B01221A702E4BEF
:1036B0001888002803D02B4B1B78002B03D12C4BF0
:1036C0001B78002B3DD02B4B1B785B00FE21490063
:1036D000C91A89B2284B1B78002B05D0214B1B78C7
:1036E0008B422FD8C91A89B20A3189B240430818CF
:1036F00003F01AFC040085B2FFF72EFE1F4B1A7868
:10370000AA4221D21E4B1A701E4B88229B5C002BB2
:103710000FD01D4B1B78002B19D0194B1B78144A66
:103720001278934201D9124A1370154B104A12783D
:103730001A70134B1B78002B0DD0144B144A1278BF
:103740001A7070BD0021CFE70D4B1C70DCE7084BF1
:1037500000221A70EDE70D4B00221A70F1E7C04607
:10376000D8130020AF150020F613002057150020B5
:10377000EA150020B81500209B1500202406002023
:103780005215002048050020EB1500209A15002056
:103790003106002070B53B4BC8229B5C002B63D1E7
:1037A000394B5B7A002B0ED0384B1B78002B0AD19B
:1037B000374B1A88374B197878235B1A9A4202DD07
:1037C000324B01221A70314B1D78002D03D1324B40
:1037D0001B78002B47D02E4B1C88002C09D02F4B78
:1037E0001A782F4B9B1858796043782103F0ACFB73
:1037F00084B22C4B1B786B432B4A128853435B0AD1
:103800005801C01A8000C018C000284B198803F066
:103810008BFB80B20009844200D20400FFF79CFDBC
:10382000234B1A78A24222D2224B1A70154B8822BF
:103830009B5C002B0FD0204B1B78002B1AD01D4B0C
:103840001B78154A1278934201D9134A1370194B09
:10385000114A12781A70174B1B78002B0ED0174B99
:10386000174A12781A7070BDFFF7ACFA98E7114B3F
:103870001C70DBE7084B00221A70ECE70F4B0022AC
:103880001A70F0E748050020D8130020AF1500207B
:10389000F613002057150020EA1500202706002007
:1038A000BC150020B81500202E1400201214002092
:1038B0002406002052150020EB1500209A15002048
:1038C0003106002030B583B0914BCB229B5C002B9E
:1038D00000D1C8E08F4B5B7BDBB28F4AD35C8F4A51
:1038E00013708F4A11788F4A1278914200D196E076
:1038F0008B490A70864A7821525C002A00D1B4E0D4
:10390000834A1339525C002A00D18CE09BB2864A6C
:103910001288934200D994E0844B1B78002B00D18D
:103920008FE0834B1B78002B04D1824B1B78002B3C
:1039300000D186E07B4B06221A707F4B1B78002B50
:1039400018D07D4A002313707C4A13807C4A138070
:103950007C4AFA21490011807B4A13807B4A1380FC
:103960007B4B7C4A12789B185B7E7B4A99005B18E4
:103970005B001380784A6C4B12881B88D21A93B272
:1039800010B26E4A10806F490A889A1812B20A80E3
:10399000FA2189008A4200DCAEE06A4A1180684C54
:1039A0002188591A8AB2684D298020809B009BB2D9
:1039B00051005218520092B262490020085E810004
:1039C0000918C9109B185B181BB2604A1380002BA2
:1039D00000DA98E05D4B00229A5EFA239B009A423F
:1039E00003DD5A4BFA2292001A805C4BF4221A70C3
:1039F0005B4BAB3A1A705B4B5B4A12781A70534BB5
:103A00000020185E8010C0B2584B1B780093002332
:103A1000FA220021FEF79BF9554B187023E0434A28
:103A20000121117066E79BB23F4A1288934208D881
:103A30003E4B1B78002B04D03D4B1B78002B00D055
:103A400078E73A4B00221A703B4B01321A70354B23
:103A500002321A703E4B3F4A12789B189A7A454BB5
:103A60001A70FFF7CFFD03B030BD294AB521525C73
:103A7000002A2FD0264A5039525C002A17D09BB218
:103A8000294A12889342DCD8224B5B7B002BD8D189
:103A9000264B1B78002BD4D0254B1B78002B00D055
:103AA00048E7244B1B78002B00D043E7C9E79BB2C3
:103AB0001D4A12889342C4D8164B5B7B002BC0D1A1
:103AC0001A4B1B78002BBCD0194B1B78002B00D055
:103AD00030E7B6E79BB2144A12889342B1D80D4B37
:103AE0005B7B002BADD1114B1B78002BA9D0104B69
:103AF0001B78002BA5D01DE7002A00DB4FE7114AF9
:103B0000002111804BE7130000221A8062E7C046B3
:103B100048050020D81300206815002066150020F5
:103B2000B7150020B61500202E15002064150020C2
:103B3000AF1500206515002063150020D01300206C
:103B4000D4130020D2130020CE130020CC13002069
:103B5000BC150020270600202C1500202C06002074
:103B60002A060020521500202406002031060020DD
:103B70009A150020B815002030B583B03F4AC52300
:103B80009B00D3589B109B059B0D3D4A13801088CA
:103B90003C4B7922995C01329A5C8008C0B2FF23C9
:103BA00000930023FEF7D3F8374B1870002830D06D
:103BB000364B1870364B5B7BDBB2364AD35C012B3D
:103BC0002BD0032B31D0314B1878334B1B7800931B
:103BD0000023FF220021FEF7BAF8040005002F4B56
:103BE0001B78834213D22E4B1888FE282CD92D4BDC
:103BF00030221A702C4B273A1A70274B1B78AB4295
:103C000038D2264A1370294B294A12781A7003B009
:103C100030BD1E4B00221A70CCE7264B1B78002BC0
:103C2000D1D11A4B00221A70CDE7164BAE229A5C06
:103C30001B4B1B889A42C6D21E4B1B78002BC2D14D
:103C4000124B00221A70BEE7C0B230230093C43377
:103C5000FF222821FEF77BF8124B1870104B1878C2
:103C6000092300934033FF222821FEF770F80E4B02
:103C70001870C2E7094B1C70C5E7C046000803482E
:103C80005616002048050020F41500205415002089
:103C9000D8130020F815002024060020521500201B
:103CA0002E1500202C0600202A0600209A15002040
:103CB00031060020AF15002010B582B0114B1C88D2
:103CC000A4B2C822104B18885623FF3300930F4B21
:103CD00052002821FEF711F80D4B1880002C0BD054
:103CE00021000C4803F020F9C0B20B4B1870782863
:103CF00005D978221A7002E0074B00221A7002B030
:103D000010BDC0465E1600202E150020AE1000002B
:103D10001806002035DF0000AF15002070B582B016
:103D2000114B9B79002B01D102B070BD0E4A9379E3
:103D3000023BDBB299005918490094790234E4B28D
:103D4000A300E4186400094E3378094D2888002246
:103D500000922200FDF7D1FF30702B88A342E3D9F7
:103D6000044B00221A70DFE7D81300205215002000
:103D70002E1500209A15002070B5794AC2239B00A9
:103D8000D3589B109B059B0D764A1380764B1B786E
:103D9000772B00D87DE0754B1A88754B1A80754BD0
:103DA0001B78002B09D0744B1B88D31A9BB2704927
:103DB0000B80724800881B180B80714B85215B5C5F
:103DC000002B0BD06E4B01315B5C694909888B423B
:103DD00000D389E0D31A9BB26A4A1380614B1A88D8
:103DE000694B1A80684B1B88614A1288934200D83D
:103DF000A8E066490978002900D179E06449897C06
:103E0000002975D063490888181A80B29B1A9CB2A1
:103E1000614B1B885843614B198803F095F8201AB1
:103E200080B25F4D28805F4B1B8858430A2103F006
:103E30008BF8040080B20B2103F076F880B26E306C
:103E40000B2103F081F82404240C6043322103F099
:103E50007BF84B4BBF229B5C64335843C82103F073
:103E600073F880B22880504B1C88A04243D22500B2
:103E70004543201A830018184000414BC022995C2A
:103E800003F062F8211A280003F05EF8444B188012
:103E900031E0108880B23F4C21880222FDF785FF77
:103EA0002080314A13780133DBB21370782B07D0AE
:103EB000354B18803D4B1B88C0182C4B188091E760
:103EC000324B1B78002BF3D0394B1B88984207D913
:103ED000384B1B88984203D2374B00221A70E7E711
:103EE000354B01221A70E3E7264B00221A8075E752
:103EF0009B1A2B4A13802A4A1388304909885B1879
:103F00005B101380264B1B882C4A13802C4A13808D
:103F10002C4A1078584380B22B4A10801B4A1278E2
:103F2000002A13D01A4A927C002A0FD0274A107810
:103F30005843104B1B785843602102F0F5FF244B87
:103F400018800BE0164B00221A80DBE7094B1B7828
:103F50005843602102F0E8FF1D4B188070BDC04639
:103F60000004034858160020EC130020FE13002024
:103F7000FC130020AF1500208E13002090130020AA
:103F800048050020F2130020F4130020FB15002048
:103F9000D8130020001400208A130020961300205C
:103FA000F61300209413002098130020881300209B
:103FB000041400200214002053150020FA130020DE
:103FC000F8130020B11500202E140020B015002099
:103FD0002414002010B56E4A13780133DBB213703D
:103FE0006C490A780132D2B20A706B49097800290B
:103FF0001BD0032B19D9664B00211970664B197021
:10400000664B1B78002B1AD0012A18D9614B00226D
:104010001A70624B1A70624BDB7BDBB2082B00D943
:10402000B0E09B005F4AD3589F460029E8D1022B9D
:10403000E6D9574B1970584B01311970E0E7002B46
:10404000E9D1012AE7D9534B00221A70534B0132B0
:104050001A70E0E7544B1878FDF7C4FE10BD524BC0
:104060001878002804D04C4B1878FDF7BBFEF5E714
:10407000FDF7B8FEF2E74C4B1878002803D04B4B05
:104080001B78002B02D1FDF7ADFEE7E7434B187814
:10409000FDF7A8FEE2E7444B1878002803D0434B15
:1040A0001B78002B06D100280AD03B4B1878FDF76F
:1040B00099FED3E73D4B1878C0B2FDF793FECDE7EC
:1040C000FDF790FECAE7384B1878002803D0374B2D
:1040D0001B78002B06D1002809D02F4B1878FDF74C
:1040E00081FEBBE72D4B1878FDF77CFEB6E7FDF7A8
:1040F00079FEB3E72D4B1B78002B05D02B4B18789E
:10410000C0B2FDF76FFEA9E7274B1878FDF76AFEEE
:10411000A4E7264B1B78002B04D0204B1878FDF722
:1041200061FE9BE7204B1878FDF75CFE96E71F4B7E
:104130001B78002B08D11C4B187800280AD0164B8E
:104140001878FDF74FFE89E7184B1878C0B2FDF7D5
:1041500049FE83E7FDF746FE80E7144B1B78002BF2
:1041600008D1114B1878002809D00B4B1878FDF7AF
:1041700039FE73E7094B1878FDF734FE6EE7FDF75B
:1041800031FE6BE7084B1878FDF72CFE66E7C0465A
:104190007315002060150020721500205F150020A7
:1041A000D81300200C950010A515002078160020CB
:1041B00010B5754B9B7A002B1DD0744B1B781433B4
:1041C000734A1370724B1B78822B02D9704B822278
:1041D0001A70704BF4221A706F4BAB3A1A706F4B17
:1041E00019782820FDF7DBFD6D4B18706D4B684A80
:1041F00012781A7010BD654B18786B4B18706B4BAA
:104200001B78002B0ED16A4A1288002A0AD1604B13
:1042100032321A70674B1A70674B00221A80674B54
:104220001A80CFE7002B6FD0614B1B88644A12883D
:10423000934219D2634B04221A70634A1378591CB3
:104240001170042BBED9524B1A785A4B1B789A42E4
:1042500006D24F4B01321A705B4B00221A70B1E745
:10426000544A01331370F7E7544909888B4217D237
:104270009B1A9B00DBB2534A137053490A78501CB7
:10428000087093429ED2424B1B784A4A127893425E
:1042900002D23F4A013313704B4B00221A7091E750
:1042A0004A4A1288934216D2D31A9B00DBB2454A7F
:1042B000137045490A78501C0870934200D381E777
:1042C000334B1B78282B02D9314A013B13703E4BEC
:1042D00000221A7076E73B4B04221A703A4A137890
:1042E000591C1170042B00D86CE7294B1B78282B24
:1042F00006D9274A013B13702E4A1378013B1370ED
:10430000314B00221A705DE72E4B0A221A702E4A9A
:104310001378591C11700A2B00D853E72C4B1988BD
:10432000002925D02A2903D9194A1378013B137093
:10433000214A13885C1C1480092B15D91D4A137857
:104340000A3313701A4B1B88584302F0FDFD80B2EC
:104350001A4B18800200143A194B1A8014301B4B68
:104360001880124B01221A70174B00221A7029E78D
:10437000104B1B78772BF7D805490A7801320A7061
:104380000C4A01331370EFE7D8130020B815002052
:10439000340600202C0600202A06002024060020D7
:1043A000521500209A150020051600200416002042
:1043B00026140020330600202A150020281500208E
:1043C0002615002032060020FE15002024150020AE
:1043D0002E15002010B5B74BC2221A70B64B793A91
:1043E0001A70B64B00221A70B54B1A70B54BBD321D
:1043F0009B5C002B24D0B44B1B88F52B1DD9B34AF2
:104400001178C9B2B24A1278D2B2914215D2B14AE9
:104410001278002A11D10B33DBB2AF4A13705B095B
:10442000AE4A13701378DBB2052B02D913000522B4
:104430001A70AB4B01221A7002E0A94B00221A70CD
:10444000A84B1B78002B20D1A74B9B7BDBB2082B02
:1044500035D89B00A54AD3589F46FEF7CDFF2EE0E6
:10446000FFF750F82BE0FFF7CDF828E0FFF704F94D
:1044700025E0FFF78FF922E0FFF724FA1FE0FFF7AE
:1044800097FE1CE0FEF7DEFC19E0994B1A786423D6
:1044900053431B11DBB2894A1370702B02D91300EE
:1044A00070221A70934B1B78854A1370924A1278C7
:1044B000934201D3824B1A70904B32221A70814B77
:1044C000CC229B5C002B07D0874B5B7BDBB28C4AFA
:1044D000D35C002B00D09CE0FFF720FCCF229200A1
:1044E000884B9B581B041B0C87498A581204120CDA
:1044F0009B185B11DBB2854A12789A4202D2844B38
:1045000007221A70834B1B68834A11685B1813607B
:1045100082490A68013A0A60002A11D15801C01A7A
:104520008000C018C000A021890002F0FDFC4009F5
:104530007B4B1860794B28221A60774B00221A6057
:10454000734B1B78002B01D0764A1370764B1B7887
:10455000002B23D1734B1B78042B1FD0714B1B787E
:10456000092B1BD06F4B1B78072B17D06F4B1B7879
:10457000002B13D16E4B1B78002B0FD06D4B1B788B
:10458000002B0BD05D4B1B78002B07D0654B1B78A5
:10459000002B41D0544B9B7A002B3DD1664BC2225D
:1045A0001A70664BB93A1A70494B00221A70644B64
:1045B0001A705F4B1B78002B60D05A4B1B78072B6F
:1045C0000FD05A4B1B78002B0BD13F4B1B88002B75
:1045D00054D13A4B1B78002B50D15A4B1B78002BEF
:1045E0004CD1534B00221A7000F04CFE3E4B5A7BCC
:1045F000554B9200D058554B198802F095FCC1B22A
:10460000534B1970534B1878FDF7C9FB524B187078
:1046100010BDFFF7B1FA5FE74F4B1B78702B02D943
:104620004D4B70221A704C4B1B7819003231374AAF
:104630001170224A1278934201D2204A13701D4B06
:104640001B78172B02D81B4B18221A701A4B1B7899
:10465000082B02D8184B09221A70164B1A78364BC1
:104660001A70154B1A78354B1A70144B1A78184B70
:104670001A70134B1A78324B1A709AE72C4B1B782E
:10468000002BB3D1104B1B88312BAFD80B4B1B78B1
:10469000002BABD0244B1B78002BA7D1244B01223D
:1046A0001A70284B1D321A702C4B00221A7000F021
:1046B00015FE9BE72C0600202A060020521500203C
:1046C0009A150020480500202614002074160020AA
:1046D00079160020541500209E1500208116002018
:1046E0007D160020F3150020D8130020309500100F
:1046F000290600202E06002031060020B8150020D3
:10470000F81500200004034800080348250600208F
:104710009C1500206C160020301500201C0600207F
:104720003C150020F2150020781600207716002096
:104730002F06002027060020460600204506002000
:104740007A16002082160020341500201214002052
:10475000511500205015002024060020801600204E
:1047600010B582B0634B7E229B5C002B04D1614B61
:1047700046329B5C002B06D05F4B1B78452B02D842
:104780005D4B46221A705D4B58886423584357216D
:1047900002F0CAFB80B25A4B18805A4B1B78642B2C
:1047A00002D9584B64221A70524CE07D18230093B2
:1047B000AA3364220021FDF7CAFA534B18702B2349
:1047C000E05C223B0093403364220021FDF7BFFAF6
:1047D0004E4B1870C923E05CAB3B0093E13364227D
:1047E0000021FDF7B4FA4A4B1870A37E494A1370B2
:1047F000494A1278002A37D03E4BC1229A5C454B79
:104800005A703E4B197B454A1170597C5171597B46
:104810005170197C9171997CD172597A5172997A3F
:104820009173997B3E4A1170D97B3E4A1170DB7AB5
:104830009B003D4A138013889BB2002B0ED0138837
:10484000FA208000C01A394B1B885843642102F0BB
:104850006BFB374B1860374B01221A70254BDA8BF4
:10486000354B1A80012310E02A4A5370C9E75A1EBB
:1048700031495200505A1F4A2324125D4243120A02
:10488000801A5A0088520133DBB2772BEFD9194BCB
:10489000BC229B5C002B02D0284BBB3A1A70174BF2
:1048A00018786423584380B20009C0B2244B1870B2
:1048B000104CE28C234B5A43120923490A6074229C
:1048C000A25A53431B094B60BB23584380B270214B
:1048D00002F02AFBC0B21D4B18701B78DBB2BB2B59
:1048E00002D91A4BBB221A70024B9A88184B1A70C5
:1048F00002B010BD480500207A150020D813002012
:104900003A060020571500202D0600202B06002017
:10491000E8150020B4150020FB15002084150020A8
:10492000951500209315002006140020EE1300209A
:104930004C1500205C150020341400207D1500204B
:1049400050150020A0860100341500202606002006
:1049500036060020F8B504000F0015001E000B4BB2
:1049600018888300C0184000094B2A22995C02F085
:10497000EBFA0004000C801B7843A91B083102F0FD
:10498000E3FA80B2001980B2F8BDC04614140020CA
:104990004805002010B5484B7E229B5C002B04D1BB
:1049A000454B02329B5C002B37D0444B1A78072AC8
:1049B00003D89300424AD3589F46002079E0414BE8
:1049C0001B88414A1288FA210120FFF7C3FF70E0DB
:1049D0003D4B1B883D4A1288FA21FA20FFF7BAFFA7
:1049E00067E03A4B1B883A4A1288FA20FA214000C5
:1049F000FFF7B0FF5DE0364B1B88364A1288FA217C
:104A00003548FFF7A7FF54E0FA20800051E0FA2074
:104A100080004EE0FA2080004BE0284B1A78092AEB
:104A200003D893002D4AD3589F46002041E0254BE0
:104A30001B88254A1288A7210120FFF78BFF38E049
:104A4000214B1B88214A1288A721A720FFF782FF4C
:104A50002FE01E4B1B881E4A1288A720A72140006A
:104A6000FFF778FF25E01A4B1B881A4A1288FA20B4
:104A7000A7214000FFF76EFF1BE0164B1B88184A6A
:104A80001288A7211748FFF765FF12E0144B1B8817
:104A9000154A1288A7211548FFF75CFF09E0FA20A4
:104AA000800006E0FA20800003E0FA20800000E0A9
:104AB0000A2010BD0A20FCE7480500205E150020F2
:104AC00054950010B8130020BA130020BC13002026
:104AD000BE130020C0130020EE02000074950010E9
:104AE000C21300209B020000C413002042030000F8
:104AF00070B5B34B1888642102F016FA84B2B14D38
:104B0000298802222000FDF750F92880AE4B1B783F
:104B1000DBB2012B00D894E0AC4B00221A70AC4CF5
:104B2000218889B2AB4B18880222FDF73EF920801C
:104B3000A94B7E229B5C002B05D1A74B02329B5CCC
:104B4000002B00D1CFE0A24B1B889BB2A34A128856
:104B5000934200D881E0A24B07221A70994B188823
:104B6000A04B1B7858430A2102F0DEF980B29E4B1D
:104B700018809E4B1A68801818609D4902F0D4F97D
:104B80009C4B18609C4B1B68C0189C4B18609C4B3E
:104B9000DB7C022B00D10DE164235843994B19882B
:104BA00002F0C2F980B2FA239B00984200D91800A3
:104BB000FA239B001B1A9BB2934A1380924B1B88CB
:104BC0009B08DBB28E4AD372904B1B78002B37D0F8
:104BD0008F4B1B78002B17D08E4B1B78002B1DD1D1
:104BE0007D4B5C6B2A229B5C9800C018400003F050
:104BF00043FA011C201C02F031FF02F02FFD80B2AD
:104C0000704B1B88984209D27F4BFA2292001A807F
:104C1000794B00221A607E4B01321A707C4B1B7854
:104C2000002B0DD07B4B1B78002B09D17A4B1A78C7
:104C3000511C1970684B84215B5C9A4200D9FDE0DD
:104C400070BD624A11784B1CDBB21370142B00D874
:104C500065E7604B1C80117061E75D4B1B889BB260
:104C60006E4A1288934203D95D4B06221A7075E78B
:104C7000574B1B889BB26A4A1288934203D9584B00
:104C800005221A706AE7524B1B889BB2654A12884C
:104C9000934203D9524B04221A705FE74C4B1B8896
:104CA0009BB2614A1288934203D94D4B03221A707A
:104CB00054E7474B1B889BB25C4A1288934203D946
:104CC000474B02221A7049E7414B1B889BB2584A56
:104CD0001288934203D9424B01221A703EE7404B9F
:104CE00000221A703AE73A4B1B889BB2514A12884D
:104CF000934203D93A4B09221A702FE7344B1B8891
:104D00009BB24D4A1288934203D9354B08221A7040
:104D100024E72F4B1B889BB2304A1288934203D959
:104D20002F4B07221A7019E7294B1B889BB23B4A6D
:104D30001288934203D92A4B06221A700EE7244B9D
:104D40001B889BB2364A1288934203D9244B052212
:104D50001A7003E71E4B1B889BB2324A128893429B
:104D600003D91F4B04221A70F8E6194B1B889BB21B
:104D70002D4A1288934203D9194B03221A70EDE68B
:104D8000134B1B889BB2294A1288934203D9144BB8
:104D900002221A70E2E60E4B1B889BB2244A12884C
:104DA000934203D90E4B01221A70D7E60C4B002216
:104DB0001A70D3E6FFF7EEFD134B1880FEE6C046EF
:104DC0001214002010140020741600203006002059
:104DD000141400200814002048050020AA13002005
:104DE0005E1500205D1500200C14002044150020E5
:104DF000907E0000401500204C1500204815002032
:104E0000D8130020EE130020061400209415002073
:104E10005C15002076160020EF150020A813002056
:104E2000A6130020A4130020A2130020A01300202A
:104E30009E130020AE130020AC130020FFF7AAFD44
:104E4000194BDB7C002B2AD1184B1B889BB2962B6D
:104E500025D9164B1B88963B984204DB134B1B88C5
:104E6000963398421BDD114B18801B88FA20800076
:104E7000C01A0F4B1B885843642102F055F80D4BA4
:104E800018600D4B01221A700C4B1A700C4B8332B8
:104E90009B5C5B080B4A13700B4A1370D0E60B4BFC
:104EA00001221A70CCE6C046D81300200614002058
:104EB000EE1300204C1500207C1500207D150020ED
:104EC00048050020EF150020A615002076160020CA
:104ED00010B5244B1B889BB2234A934204D8214B24
:104EE0001B889BB2092B24D8204B00221A80FDF787
:104EF000EBFFFEF7E1FEFEF705F81D4B1878000109
:104F00000A2102F021F81B4B1870FEF735FF1A4BEF
:104F10001A78511C197003231340022B1ED011D88C
:104F2000002B16D0012B16D1FFF754F8FEF796F997
:104F300011E00C4B198889B2104801F0F5FF0B4BBA
:104F40001880D4E7032B06D1FDF7F4FFFFF7D0FD5F
:104F500001E000F02FFAFFF73DFA10BD01F058F81C
:104F6000F9E7C04642060020FFEF000026140020AB
:104F7000741600205D1500206215002090D00300FB
:104F8000184A2423D15C184B19702C21515C8800DD
:104F90000918480058806021515A99806221515C5B
:104FA0009971918AD97100211972107E5872997283
:104FB000D9726931515C19736821515C59736E2142
:104FC000515C99736D21515CD9736B21515C1974DB
:104FD0008721515C5974C221515CD9746C21525C97
:104FE0009A74704748050020D8130020024A1368BD
:104FF000013313607047C04614160020F0B5DE463A
:1050000057464E464546E0B589B0844B00E0013B2B
:10501000002BFCD1FCF76CFE002800D001BE002361
:1050200009E07F4AD25C7F49CA5412027E49980047
:1050300042500133DBB2072BF3D9FCF769F90123A6
:1050400000930023002200210020FCF727F9774974
:105050000020FCF717F9A021C9050B68744803402C
:105060008022920013430B6072490B6803401A437D
:105070000A60714B1868FA21890001F055FF013868
:1050800080235B0498420DD26C4A50606C48036ADE
:105090001B021B0AC02109060B4303620023936015
:1050A0000733136005AC0C220021200004F0A8F89F
:1050B00023780C221343237063790F229346914681
:1050C0004A4613436371DBB2602290464246134363
:1050D0006371A3795A46934304263343A371237A19
:1050E00033432372574882256D0043590C3A924648
:1050F00093434351435901273B434351210002F05D
:10510000E3F902AC0C220021200004F079F82378A6
:105110000C22934308221343237063794A461343B6
:105120006371DBB2424613436371A3795A469343DA
:105130003343A371237A334323724348435952467E
:105140009343435143593B434351210002F0BCF97F
:1051500001F0EAFC3D4C3E4DA560FDF7EDF9FFF78F
:105160000FFFFFF7FDFAA56000F09AF8394B002217
:105170001A70394B9F60394BC52189005A58384DF8
:105180002A405A508021C9031960C62292009C58B7
:10519000344804408020C00120439850802080047F
:1051A000186098582840014399508022D2041A6010
:1051B0002D4B196B802252000A431A631A6B2B493C
:1051C0000A401A6309E0284B196B802252000A43F7
:1051D0001A631A6B25490A401A63254B9B68DB0743
:1051E000F1D5244B1A68244B1A60184B184A9A6060
:1051F000224B1B78002B0DD01E4B1B68204A1268D7
:105200009B1A192BF1D91B4B1A681D4B1A60FFF71B
:105210005FFEEAE700F086F8EEE7C046C027090027
:105220004806002018160020201600209C9500102B
:10523000FFFCFFFF00000448FC3F002010E000E0FE
:1052400000ED00E0000403480008034800000240AD
:10525000FECAADAB370600200000015000E100E0BF
:10526000FFFF00FFFF00FFFF00000140FFFEFFFF08
:105270000001005014160020101600208C1600208B
:105280000C1600200323034A1361034A1361034AE7
:1052900013617047000100500002005000030050ED
:1052A00010B501F06AFB0B4A536A9B0801211940B3
:1052B000094B1960516A02240C4019682143196096
:1052C000526A9200042111401A680A431A6001F0E0
:1052D00058FB10BD000104404416002010B5FFF734
:1052E000DFFF0D4B196B802252000A431A631A6BC1
:1052F0000A490A401A6309E0074B196B80225200E1
:105300000A431A631A6B05490A401A63044B9B68E7
:10531000DB07F1D510BDC04600000140FFFEFFFFD6
:10532000000100501E4A8A235B00D3581B070AD491
:105330008E235B00D358DBB21A4A1278D1B2002A0E
:1053400002D0012915D07047592B05D0164B0022E9
:105350001A70144B1A70F6E7134A1178C9B2134841
:10536000435413780133DBB213700E4B01221A70D1
:10537000E9E70D4A1178C9B20C4843541378013358
:10538000DBB213701378DBB2062BDCD913000022DA
:105390001A70044B1A70064B01321A70D3E7C046DC
:1053A0000002004898160020971600209016002052
:1053B0008C16002010B5BF4A137801331370BE4A13
:1053C000137801331370BD4A137801331370BC4A4C
:1053D000137801331370BB4B1B78002B17D110BD12
:1053E000B949C95C8A18D2B20133DBB2052BF7D9AF
:1053F000B54B9B79DBB293420CD0B24B00221A70B2
:10540000AC4B1B78032BEAD9B04B1A70E7E70022AC
:105410000023EBE7A74B00201870AB4B5A78012113
:105420000A40AB490A70597820242140A94C2170C8
:105430005B7821218B43A8490870102B19D00ED816
:10544000042B00D191E0082B03D1A04B042119704B
:1054500012E0022B10D19D4B022119700CE0402B61
:105460007FD0802B08D1994B012119709A4B19706C
:1054700002E0964B00211970984B1B78002B03D14A
:10548000974B924909781970944B01211970002AA1
:1054900000D192E1934B1B78002B10D1924B1B7BD8
:1054A000002B66D1894B1B78002B62D08F4A833149
:1054B000515C8F4A1278914201D9042B59D0894B03
:1054C00001221A707E4B1B788A4A127893420DD2C1
:1054D0007E4B1978824B1B7899421ED0864B1B78E5
:1054E000002B1AD1854B1B78002B16D18449002341
:1054F0000B7084490B7072490A70834A1370834A97
:105500001370834A1370834A1370834A1370834A5B
:105510001370834A1370834A13707B4B1B78002BE4
:1055200000D1DFE1804B00221A706F4B1B7B002BF8
:105530000ED1664B1B78002B0AD06C4A8421515C3B
:105540006B4A1278914200D8CCE1042B00D0C9E11B
:105550005E4B1A78042A00D9B8E19300734AD358F5
:105560009F465A4B0121197086E7584B0321197049
:1055700082E76F4B01221A70614B1B78002B27D1F9
:105580005F4B1A705F4A13780133DBB21370032B41
:1055900002D9130003221A70634B00221A704B4B7E
:1055A0001B78012B54D0042B00D1D3E0002B39D031
:1055B000544B1B780133DBB2554A13705D4A1370AC
:1055C000524B01221A703D4B00221A703C4B1A704C
:1055D0003A4B1B78584A1278934210D23B4B1978B9
:1055E0003F4B1B78994200D16CE7434B1B78002B53
:1055F00000D067E7414B1B78002B00D062E7394BA6
:10560000012119704A4900230B703D490B703D4937
:105610000B702B4937480078087028490A703C4ABB
:1056200013704FE7374B1B78022B09D0032BBFD1E8
:10563000424B1A782C4B5A745A7C414B5A71B7E73B
:10564000404B1A78284B1A731A7B3D4B1A70AFE700
:105650002C4B1B78022B13D0032BA9D13A4B1A7871
:10566000214B1A741A7C364B9A712B4B1B78002BEA
:105670000ED02B4B01221A701E4BF9321A7097E78D
:10568000324B1A78184B5A735A7B2D4B5A708FE74E
:10569000204B1B78002B8BD02D4B1A78124B9A7411
:1056A0009A7C274BDA721D4B01221A70114BF9328A
:1056B0001A707DE789160020A61600208B160020A0
:1056C000A61500208C16002090160020270600202A
:1056D0009F150020A51600205515002094150020C8
:1056E00028060020A3150020D8130020480500201C
:1056F000EF1500207A150020FC1500205A15002017
:10570000A7150020A9150020A81500207D15002050
:105710007F15002096150020971500209915002070
:10572000981500207C1500207B150020B0970010F4
:10573000A415002080150020B71300205915002063
:1057400084150020E6150020ED150020F11500203D
:10575000FA150020C34B1B78022B16D0032B00D068
:1057600026E7C14B1B78092B1FD0C04B1A78C04BC2
:10577000DA73DA7BBF4B1A70BF4B1B780A2B00D051
:1057800016E7BE4B01221A7012E7B74B1B78092BA4
:1057900000D00DE7B54B1A78B54BDA73DA7BB54B11
:1057A0001A70B64B01221A7002E7B54B1A78B04B4B
:1057B0005A725A7AB34B5A72DEE7B34B1B78002BFE
:1057C0000FD1B24B1B78002B00D17BE6AF4A0023F0
:1057D0001370AF4A1370AF4A1370AF4B01221A70A7
:1057E00070E6A94B00221A706CE69E4B1B78012BC9
:1057F0000ED0022B6AD19E4A517CA84B1970537C63
:1058000059424B41DBB25374527C9E4B5A715DE05E
:10581000974A117BA24B1970137B59424B41DBB263
:105820001373127B974B1A7050E08E4B1B78022B30
:1058300010D0032B1BD0012B48D18D4A517B994BA3
:105840001970537B59424B41DBB25373527B8D4BE2
:105850005A703BE0864A117C934B1970137C594275
:105860004B41DBB21374127C864B9A712EE08F4B46
:105870001B78002B0FD17E4A917C8D4B1970937C45
:1058800059424B41DBB29374927C7E4BDA72894B66
:1058900001221A701AE0764B9B7B082B03D0744BC5
:1058A0009A7B854B1A70724B08229A73834B073A86
:1058B0001A700BE06B4B1B78022B2DD0032B2FD0D3
:1058C000012B25D06A4B9A7B7D4B1A70774B1B7846
:1058D000002B04D17B4B84229A5C7B4B1A707B4B50
:1058E00001221A70774B7E229A5A002A00D102E1D7
:1058F000664B1B78002B00D19FE0664B1978744BE8
:105900001B78994200D2F6E0724B00211970F2E048
:10591000574B01229A73D5E7554B02229A73D1E770
:10592000534B03229A73CDE74E4B1B78022B0CD0BE
:10593000032B0ED0012B04D04D4B9A7B604B1A7079
:10594000C4E74B4B04229A73F6E7494B05229A733E
:10595000F2E7474B06229A73EEE7424B1B78022B85
:1059600037D0032B52D0012B04D0414BDA7B414B73
:105970001A70ABE7534B84229A5C574B1B789A42C0
:105980000DD83B4BD97B394A1170DB7BDBB24D4ADA
:105990006D21525C934216D0354BDA73E5E7FEF782
:1059A000F9FF4E4B18801B88FA208000C01A4C4B20
:1059B0001B885843642101F0B7FA4A4B18604A4BE0
:1059C00001221A70D1E73F4B6F229A5C284BDA73A1
:1059D000CBE7254B1B78092B08D03A4B70229A5CF9
:1059E000234BDA73DA7B214B1A70BEE7204A517AD7
:1059F000234B1970537A59424B41DBB25372527A9E
:105A0000204B5A721D4B01221A70AEE71A4B1B78BD
:105A10000A2B05D02B4B71229A5C154BDA73A4E745
:105A2000134A937A59424B41DBB29372927A154BE7
:105A30009A73124B01221A7097E7164B1878214B74
:105A40008421595C224B1B78CB1A984250DD884246
:105A50004ED2044B1B78002B4AD01E4B23490978A9
:105A6000197048E0A9150020A0150020A2150020FB
:105A7000D813002093150020A11500207B150020CD
:105A80005615002084150020A3150020A71500201E
:105A9000A4150020A6150020A815002059150020E7
:105AA000E6150020F1150020ED15002099150020C5
:105AB000FA15002096150020E41500209715002007
:105AC00095150020480500207A1500207D1500203E
:105AD000B61300207F150020EF15002006140020CB
:105AE000EE1300204C1500207C15002080150020AE
:105AF000CC4B00211970CC4B00211970CB4B9B7BF8
:105B0000D9B2062B00D1D1E0082900D0DEE0C84B85
:105B100078315B5C002B0AD1C54B01395B5C002BF3
:105B200005D1C34B45315B5C002B00D1A8E0C14BD4
:105B30001B78012B00D886E0BF4B1A78BB4B9A73B9
:105B4000BE4B00221A70BE4B1A70BE4BBE4A127872
:105B50001A70B64B9A7B013AB64B1C78BB4B91003E
:105B60008A189B181B5DBA4A1370BA4A1278002A29
:105B700008D0AF4ACE21505C58436A3901F0E4F9AD
:105B8000B34B1870A94B5B7C002B00D1A7E1B24B43
:105B90001B78002B00D197E1B04B1B78002B00D075
:105BA00092E1AF4B1B78002B00D08DE1AD4B1B7801
:105BB000002B00D088E1AC4B1B78002B00D083E198
:105BC000AA4B1B78002B14D1A84A01331370A84AA2
:105BD00013709B4A13709B4B00221A70A54B1A70CE
:105BE000A54B1C70A54B1B78002B00D10EE1964AEB
:105BF0001370A04B1B78A14AD25C002A02D1914AB3
:105C0000002111705A1C9E4909788A4200DB51E13B
:105C10008C4A11788C4A1278043A914204DA964AF6
:105C20001278944200D15AE1864A00211170013362
:105C3000DBB2904A1370914AD35C002B00D1EBE0A9
:105C4000814A13704BE17F4B19787F4B1B78994247
:105C500000D371E7794B1B78002B05D1774B0121DD
:105C60001970784B00211970864B1B78002B13D0CC
:105C7000854B1B78002B0FD0844B012119700EE04F
:105C80006C4B1B78012B00D056E76E4B19786E4B8E
:105C90001B789942DED34FE77C4B00211970002A14
:105CA00000D156E75F4B00221A7052E7754B1B7804
:105CB000002B07D0744B1B78002B03D0744B0122B0
:105CC0001A7046E7724B00221A7042E7584B88223E
:105CD0009B5C002B16D06B4B1B78002B0FD06A4BB4
:105CE0001B78002B0BD06B4B1B78002B07D15A4B2A
:105CF0001B78002B03D0684B873A1A7002E0664B82
:105D000000221A704A4B64229B5C002B00D120E7D2
:105D10005C4B1B78002B1DD05B4B1B78002B19D0E4
:105D20005D4B1B78002B15D1404B5B7BDBB25B4A94
:105D3000D35C002B0ED0574B1B78002B00D008E70C
:105D4000544B01221A70394B997B3B4A1170072240
:105D50009A73FEE6364BAF229B5C002B46D0344B49
:105D60004A3A9B5C002B41D04A4B1B78002B00D158
:105D7000EFE64B4B1B78002B09D1494B643A1A7064
:105D8000484B00221A70484B2A4A12781A70284B46
:105D9000B0229A5C434B1B789A421BD9254B1A7848
:105DA000414B1B789A420BD0234B1A781F4B9A73A6
:105DB000384A002313703A4A13703C4A1370C8E6FD
:105DC0003B4B1B78002BEFD1184B5B7B002B00D19A
:105DD000BFE6E9E7184B1A78144B9A732D4A002353
:105DE00013702F4A1370314A1370B2E6294B1B7897
:105DF000002B03D0104B1A780C4B9A73254A0023C2
:105E00001370274A1370294A1370A2E6084B8422A4
:105E10009A5C0D4B1A70ECE6054B84229A5C0A4B97
:105E20001A705CE07F150020A8150020D813002010
:105E30004805002027060020E4150020FC1500205E
:105E40007D150020A61500207A150020BC15002025
:105E5000B815002055150020A3150020A915002015
:105E60007C15002099150020981500205A15002057
:105E70005B1500206A1500202806002074150020FC
:105E800058150020A516002094150020FD150020AF
:105E90006515002002160020EB15002000160020DA
:105EA000A7160020A61600200316002004160020C6
:105EB00078160020414B1A78414B1B789A420ED33A
:105EC000404B00221A700AE03F4B1B78002B06D093
:105ED0003D4A002313703B4A13703C4A13703C4BFD
:105EE0001C703C4B63229B5C002B0AD03A4B1B7806
:105EF000002B03D1394B1B78002B3AD0384B0122B1
:105F00001A70384BDB78DBB2374A1370314AB8214C
:105F1000525C002A31D0354AE12189004B4313807D
:105F20002C4B83229B5C002B09D02E4B5B79DBB280
:105F30002F4A13705278934201D22D4A53702D4B41
:105F40009B7B072B03D02C4B1B78002B1AD0214BAB
:105F5000AE22985C0A2100F0E7FFC0B2254B987191
:105F6000244B9B7CDBB2254AD25C254B1A70FFF791
:105F700044FA1B4B00221A70C3E71C4A21494B43C9
:105F80001380CDE71B4B5B7BDBB21F4AD35C022B3C
:105F900006D0184A537BDBB21549CB5C9371DFE71F
:105FA0001A4B1B78002BF4D00A4BAE22985C0A21C6
:105FB00000F0BAFFC0B20F4B9871D1E7A6150020D0
:105FC0007A1500205B1500205A1500207D15002051
:105FD0002806002048050020A3150020A415002055
:105FE000A515002090160020AE1500201C140020DE
:105FF00008160020D8130020EB150020B41500204F
:10600000B11500209B050000F8150020F4150020B4
:1060100070B5B14B1B78002B01D100F067FCAF4B82
:1060200043221A70AE4B00221A70AE4A1378012137
:106030008B431370AC4B7E229B5C002B04D1AA4B8C
:1060400002329B5C002B42D0A84B1A78072A0CD84E
:106050009300A74AD3589F46A24A137801210B43C5
:10606000DBB213709D4B00225A709F4B7F229B5CCA
:10607000002B69D09F4B19881A78984BDA709E4B89
:106080001B8899425CD29B1ADBB2944A137164E07C
:10609000924B00225A70E8E7904B02225A70E4E7D4
:1060A0008E4B06225A70E0E78C4B09225A70DCE7CF
:1060B0008A4B0C225A70D8E7884B0C225A70D4E7CE
:1060C000864B0C225A70864B0B3A1A70CDE7874BE1
:1060D0001A78092AC9D89300884AD3589F46814A1A
:1060E000137801210B43DBB213707C4B00225A70F2
:1060F000BBE77A4B00225A70B7E7784B02225A70FE
:10610000B3E7764B04225A70AFE7744B06225A70FD
:10611000ABE7724B08225A70A7E7704B0A225A70FD
:10612000A3E76E4B0C225A709FE76C4B0C225A70FF
:106130009BE76A4B0C225A70694B0B3A1A7094E732
:10614000664B00221A7108E0674BC4229B5C002B4F
:106150001ED1624B4622DA701A7100F0EFFC123841
:10616000FF38502802D95E4B06221A70644B1B7808
:10617000042B1FD0624B1B78002B1ED0584B1B7872
:10618000002B1AD15E4B1B78DBB2554A137014E01A
:106190005C4B1B78514CE3705B4D29885B4B188836
:1061A000BC3AFBF702FE2880642100F0BDFEC0B2BD
:1061B0002071D2E74A4B04221A70494B1B78002BFE
:1061C0005ED0534B1B78002B5AD1474B80229B5CEF
:1061D000002B38D0424B1B78092B11D0404B1B7839
:1061E000012B16D03E4B1B78052B1BD03C4B1B784C
:1061F000072B20D03A4B1B78DBB2384A53719AE018
:10620000444B1B78002B00D195E0344B783A5A71FF
:1062100091E0404B1B78002B00D18CE02F4B0622E5
:106220005A7188E03B4B1B78002B00D183E02B4B4D
:1062300003225A717FE0374B1B78002B7BD0274B12
:1062400004225A7177E0284B7E229B5A002B11D0F2
:10625000314B1B78002B03D1304B9B7A002B03D0A2
:106260001E4B00225A7166E01D4B1B78DBB21B4AA5
:10627000537160E01A4B1B78DBB2184A53715AE035
:10628000234B1B78002B53D0254A1278002A14D1B7
:10629000244A1278002A10D0204A127B002A0FD1FB
:1062A000214A1278002A0BD00F498420085C1F492C
:1062B0000978884201D9042A02D0084A53713AE089
:1062C000144A1278002A02D0044A537133E0034B77
:1062D00000225A712FE0C046941500209C16002021
:1062E0008A160020A8160020480500205E15002010
:1062F000C497001000140020F4130020E49700104D
:10630000F21500205D1500200A1400200C14002056
:106310007F150020721500205B150020D813002087
:10632000A7150020A915002027060020EF15002042
:10633000C34B00225A71C34B1B78002B00D18DE256
:10634000C14B1B78002B25D1C04B84229A5CC04BDB
:106350001B789A4203D9BF49097804291AD0BE494B
:106360000978002900D1A9E09A4200D8A6E0B94BEB
:106370001B78042B00D1A1E0B84B1B78002B00D078
:106380009CE001296CD0022900D184E0B44B0022AA
:106390001A800DE0AD4BB8229B5C012B53D0B14B62
:1063A000198889B2AE4CB04B188800F0BDFD208032
:1063B000AB4B1B88002B00D14BE2D9B2A04A9171A4
:1063C0001B0AD371A14B82229B5C002B05D0A74AEC
:1063D000137804210B43DBB213709C4B81229B5C2E
:1063E000002B23D0A24B1B88002B00D157E29F4AE1
:1063F0001378802149420B43DBB213709D4B1B780D
:10640000DBB20A2B00D850E2984A137840210B43A4
:10641000DBB21370954B1B783F22934300D14AE2C5
:10642000924A137804210B43DBB213708F4B1A7816
:106430001F210A4082498A701A783B210A401A704B
:106440000022002343E2874B198889B2844C864B93
:10645000188800F069FD8300C01840002080A7E77D
:106460007A4BB8229B5C012B09D07E4B198889B2EC
:106470007B4C7D4B188800F057FD208098E7794BC6
:10648000198889B2764C784B188800F04DFD0A23A4
:10649000434323808CE76D4B2D22985C764B1B8801
:1064A0005843642100F050FD81B2744B19806C4C4C
:1064B0006D4B188800F038FD208079E7704B1B7811
:1064C000002B0DD0664C684D6E4B18880A2100F0E9
:1064D0002BFD0100288889B200F026FD208067E7A7
:1064E000694B1B78002B0BD05F4B1888674B1B78D0
:1064F0009900C918490000F027FD594B188057E74B
:10650000634B1B78002B09D0624B198889B2544C1D
:10651000554B188800F008FD208049E75E4B1A783B
:106520005E4B1B789A4223D84C49097800291FD02A
:1065300048480078012803D9594C2478002C17D0FA
:106540004A1E584B91008A189B181B5C002B0AD0DE
:10655000012B00D02CE7424C434B1888692100F0F6
:10656000E3FC208024E73E4B3F4A12881A801FE755
:106570009A4207D839490978002903D03549097862
:10658000042911D09A421BD8344B1B78002B17D00A
:10659000354B1888444B1B7864215943053100F072
:1065A000D3FC2F4B188003E72F4B18883F4B1B78E9
:1065B00060315943053100F0C7FC294B1880F7E6DC
:1065C0003B4B3C4A12789B5C0C2B00D9F0E69B00BD
:1065D000394AD3589F461D4BB8229B5C012B08D0EB
:1065E0001F4C214A354B1088198800F09DFC2080F3
:1065F000DEE61B4C1C4A314B1088198800F094FCD5
:106600000A2343432380D3E6104BB8229B5C012B23
:1066100009D0144B198889B2114C134B188800F01B
:1066200083FC2080C4E60F4B198889B20C4C0E4BBA
:10663000188800F079FC0A2343432380B8E6C0465B
:106640009C1600207D1500207C15002048050020A8
:10665000EF150020270600207E150020A915002038
:106660001A140020061400201C140020A816002074
:106670002A14002082160020101400200E1400207E
:10668000FD1500203014002098150020B1150020C1
:106690009915002058160020A61500207A15002014
:1066A0007B150020841500209515002093150020EF
:1066B0006C1500206A1500200C980010281400208A
:1066C000914B2D22985C914B1B885843642100F01C
:1066D0003BFC81B28E4B19808E4C8F4B188800F09A
:1066E00023FC208064E68B4B3E221A8060E68B4CB4
:1066F00021888B4B18880822FBF757FB2080824BA0
:10670000B8229B5C012B0BD0824C834D0A2100F0F8
:106710000BFC0100288889B200F006FC208047E6C7
:106720007C4C7D4B1B880100180000F0FDFB208095
:106730003EE67C4B1988774C774B1888890800F027
:10674000F3FB208034E6784B198889B2714C724B88
:10675000188800F0E9FB20802AE66B4BB8229B5C8E
:10676000012B0AD0714B1978632911D96A4B18880B
:1067700000F0EAFB674B18801AE6674B18886B4BF2
:106780001B780A21594300F0DFFB624B18800FE6AB
:10679000614B18880A23594300F0D6FB5D4B1880E3
:1067A00006E6634C2188634B18880822FBF7FDFA44
:1067B0002080584C584D0A2100F0B6FB0100288873
:1067C00089B200F0B1FB2080F2E5524C524A5A4B9C
:1067D0001088198800F0A8FB2080E9E54A4BB82210
:1067E0009B5C012B0DD04C4B1C88544B18680A2124
:1067F00000F09AFB0100200000F096FB454B18804A
:10680000D6E5454B18884D4B196800F08DFB414B80
:106810001880CDE53F4C404A494B1088198800F05C
:1068200083FB2080C4E5474B187864235843464BCC
:10683000197800F089FB83B2013B9BB2434A138075
:10684000354A10880A21594300F07EFB314B1880ED
:10685000AEE53F4B07229A71DA71B3E53D4B1888DC
:10686000002817D0284BCF229B5C002B0CD00001B6
:106870000A2100F069FB80B2374B1880C2B2344B5A
:106880009A71000AD8719DE5C2B2314B9A71000A23
:10689000D87197E52E4B07229A71DA7192E52F4A4B
:1068A00013787F210B401370A8E52C4A1378402100
:1068B0008B431370AEE5294A137804218B43137080
:1068C000B4E52349C95C8A18D2B20133DBB2072B85
:1068D000F7D91F4B1A72224A8A235B00D3581B0E2A
:1068E0007F221A401E239B1A092B00D870BD00235B
:1068F000082BFBD8164AD25CD2B21948C0214900F5
:1069000042500133DBB2F3E74805002010140020A9
:106910000E1400201A1400201C1400200A14002059
:106920000C1400205616002058160020AF15002029
:106930002214002024140020F61300204815002003
:106940002614002082160020310600201E1400208C
:106950009C1600202A14002018140020A8160020DD
:1069600000020048000000000230800803D0013817
:10697000FDD1C046C046C0467047EFF3108072B6E6
:10698000704780F310887047064B1A8980214901AF
:106990000A431A8148215A5A8020000102435A5260
:1069A0007047C0460000054010B50D4A13681B0A29
:1069B000FF210B400B480360126811400A4A116026
:1069C000002B08D01B02C918084800F0ADFA40009F
:1069D000074B186010BD064B064A1A60FAE7C0461E
:1069E00000030140B0160020AC160020000024F483
:1069F000FC3F00200048E80110B5FFF7C5FFFBF79A
:106A000069F910BD70470000F0B5C64600B58B08A7
:106A1000984604339B001E5803250D40ED00F827CF
:106A2000AF40BE431E50436F4F000326BE40B343EA
:106A30004367CB0810339B001F5807260E40B60053
:106A40000424B440A7431F501F585478B440260074
:106A50003E431E500D4B98420ED00023D356002BC0
:106A600010DB434604339B0019581278AA400A43AE
:106A70001A5080BCB846F0BD036E01268E40B34369
:106A80000366EAE753688B404360EAE7000204408C
:106A900010B50C000DE0800808490B68084A134047
:106AA00002021343074A13430B60044B1B685B004D
:106AB000FBD4A3008342EED310BDC04600030140C7
:106AC000FF000FC00000F03F30B50C000EE00122C7
:106AD00090000A490B680A4D2B4092021343094A61
