:020000041000EA
:10100000480500201910001000000000A310001077
:1010100000040100000100001249134A134B00F0C4
:101020001AF8134880471349134A144B00F013F879
:101030001349144A144B00F00EF81449144A0020C6
:10104000521A02DD043A8850FCDC124880471248EC
:101050008047124880479B1A03DD043BC858D05094
:10106000FBDC7047449800100C0000204401002075
:10107000096900107C99001048050020280700200D
:101080005C9B001028070020B0190020B019002038
:10109000183E0020A1100010D191001039660010F8
:1010A0007047FEE710B582B06B46354ADA80354BA3
:1010B000354A1A60354B0121C022520099508020D8
:1010C0001A58334C22401A508022120231480260D2
:1010D00031480260812292009950304A8423802155
:1010E000C904D1501DE029498122920088588023EB
:1010F0009B0003438B50294AFC235B00D358002BF1
:10110000F9D0C0239B00D358009380231B02214AAF
:101110001360214A13606B469A1DDB88013B9BB22A
:1011200013806B4606331B889BB2002BDBD1009BE0
:101130000023009305E080231B02164A1360164A21
:101140001360174B1B6C1B0FF5D1104B80215858A7
:10115000C022920202435A5000228531FF315A5078
:1011600084395A500D4B9532FF328039FF399950EE
:1011700083315A580B4802405A5002B010BDC04645
:1011800050460000BC4003480004103F00000348E4
:10119000FFFFFC7FE0400348E440034800040348AD
:1011A00000400348FFFFFFFB00B583B00023124A55
:1011B0001360124A13600321114806F0DDF811494B
:1011C00080228858104B03438B501423019308E06E
:1011D000019B013B019380231B02074A1360074ACE
:1011E0001360019B002BF3D1FFF75CFF0021044843
:1011F00006F0C2F803B000BDE0400348E4400348F5
:10120000000403480000034800000180F8B552497B
:10121000524D280006F028F85149524E300006F091
:101220006BF85149514C200006F066F8032130005C
:1012300006F0A2F80321200006F09EF8FFF7B4FFA5
:101240004B49280006F0CEF84A49200006F026F95E
:1012500082225200A1588023DB000B43A350434A53
:1012600084235B00D3589B06F9D5140082235B00CE
:10127000D25803208243E250E25801210A43E2504F
:10128000384DEA588243EA50EA580A43EA503A4B4A
:101290001A6888235B00E250384A1268E250384AE4
:1012A0000021200006F032F9364A0121200006F024
:1012B0002DF9354A0021280006F028F9334A01218A
:1012C000280006F023F90021280006F055F8002137
:1012D000200006F051F800220121280006F054F801
:1012E0000021280006F062F8200006F058F80321DB
:1012F000200006F041F80321280006F03DF8B02355
:10130000234AE2500422FF32EA50224A06212000FA
:1013100006F0FCF8114EC2277F00F3594022134318
:10132000F3511D4A0721200006F0F0F8F3598024FC
:101330002343F351194A0721280006F0E7F8C02299
:101340005200B3582343B3508432B15880239B00DA
:101350000B43B350F8BDC046780500200000034899
:10136000B005002000040348E405002000080348FD
:101370000C06002000060020F8050020FC050020D7
:10138000C4050020D405002090050020A005002001
:1013900003040000680500204805002058050020CF
:1013A00010B500F007F800F02BFA10BD10B5FFF7EC
:1013B000F7FF10BDF0B5DE4657464E464546E0B550
:1013C00085B0DE4E0021300005F00CFC80235B0070
:1013D0009846F360DA49DB4F380005F01DFC022324
:1013E0009A46FB6304247C638021C904300005F025
:1013F0000BFC07233361D44A0121380005F04DFC72
:10140000D24A0221380005F048FCD14A03213800B5
:1014100005F043FC01220121380005F023FC0122E4
:101420000221380005F072FCA4257B5923437B512F
:1014300001218B46F16000243C67F960C549C64F25
:10144000380005F000FCC54B7B63802109053000A6
:1014500005F0DAFB70213161C14A6F39380005F0BF
:101460001CFCC04A0221380005F017FCBE4A0321CB
:10147000380005F012FC0121380005F007FC504649
:10148000F0603C675846F860B849B94F380005F03D
:10149000C3FBA023FB63B74B7B638021890530002E
:1014A00005F0B2FBE020C0013061B34A01213800F1
:1014B00005F0F3FBB14A0221380005F0EEFBB04A1B
:1014C0000321380005F0E9FB0822F2603C675E4624
:1014D000FE60A026F6050021300005F043FC4746DB
:1014E000F760A849A84F380005F04EFCD2239B00B6
:1014F0009846FB637C64D223DB00994619003800D0
:1015000005F0ADFC8021C904300005F058FC07232C
:1015100033619E4A0121380005F06EFC9C4A02218D
:10152000380005F069FC9B4A0321380005F064FC93
:1015300001220121380005F04BFC9749380005F0E5
:10154000B5FC3C679549964F380005F01DFC4346B5
:10155000FB637C644946380005F081FC8021090565
:10156000300005F02CFC702131618E4A6F39380053
:1015700005F042FC8C4A0221380005F03DFC8B4A04
:101580000321380005F038FC01220121380005F064
:101590001FFC8749380005F089FC3C678549864F68
:1015A000380005F0F1FB4146F9637C644946380098
:1015B00005F055FC80214905300005F000FCE023D2
:1015C000DB0033617D4A0121380005F015FC7C4ABF
:1015D0000221380005F010FC7A4A0321380005F09A
:1015E0000BFC01220121380005F0F2FB764938009E
:1015F00005F05CFC3C677549754F380005F0C4FB8D
:101600004146F96379644946380005F028FC802199
:101610008905300005F0D3FBE020C00130616D4A40
:101620000121380005F0E8FB6B4A0221380005F083
:10163000E3FB6A4A0321380005F0DEFB01220121A9
:10164000380005F0C5FB03220021380005F00AFC34
:1016500002220121380005F005FC00220421380097
:1016600005F000FC01220321380005F0FBFB7B594B
:10167000584603437B517B59504603437B517B596A
:10168000102213437B517B5908210B437B513C674C
:10169000534D280005F03EFC2B680326B3432B6016
:1016A0005049280005F042FC4F49280005F048FC4D
:1016B00000220221280005F04EFC6B6F0422134328
:1016C0006B674A494A4D0022280005F04FFCEB6940
:1016D00050229343EB61EB69493A93433343EB6107
:1016E000EA6B444B1A4080231B011343EB63424BCC
:1016F0002B610C360296019400943A2300220021BB
:10170000280005F033FD1F2305220021280005F0E5
:101710005DFD1F2305222021280005F041FD2B6CD3
:10172000B343524613432B64344805F02FFF05B0F2
:10173000F0BCBB46B246A946A046F0BD0000044836
:1017400078920010000104488092001084920010EA
:10175000889200109492001000020448FFFF0000DD
:101760009C920010A0920010A49200103C930010D4
:1017700000040448FF040000449300104893001044
:101780004C930010A892001000010050C492001069
:10179000C8920010CC920010B8920010D0920010A5
:1017A00000020050EC920010F0920010F492001031
:1017B000E0920010F8920010000300501493001003
:1017C000189300101C930010089300102093001031
:1017D0000004005030930010349300103893001030
:1017E00000000150909200108C9200106C9200103A
:1017F00000020048FFE0FFFF21810000509300102D
:1018000010B57F4A7F4C0021200005F0CDF8002262
:101810000021200005F051FB7B4A0A21200005F041
:10182000C3F800220A21200005F047FB774A0D216A
:10183000200005F0B9F800220D21200005F03DFB45
:10184000734A0121200005F0AFF800220121200099
:1018500005F033FB6F4A0221200005F0A5F80022B5
:101860000221200005F029FB6B4A0321200005F02E
:101870009BF800220321200005F01FFB674A04218A
:10188000200005F091F800220421200005F015FB4E
:10189000634A0521200005F087F800220521200079
:1018A00005F00BFB5F4A0621200005F07DF80022C1
:1018B0000621200005F001FB5B4A0721200005F00E
:1018C00073F800220721200005F0F7FA574A082193
:1018D000200005F069F800220821200005F0EDFA4B
:1018E000534A0921200005F05FF800220921200059
:1018F00005F0E3FA4F4A504C0021200005F054F85F
:1019000000220021200005F0D8FA4C4A01212000D5
:1019100005F04AF800220121200005F0CEFA484ADD
:101920000221200005F040F800220221200005F0ED
:10193000C4FA444A0321200005F036F800220321AE
:10194000200005F0BAFA404A0521200005F02CF8E5
:1019500000220521200005F0B0FA3C4A3C4C0A2147
:10196000200005F021F800220A21200005F0A5FA48
:10197000384A0B21200005F017F800220B21200027
:1019800005F09BFA344A0221200005F00DF80022F0
:101990000221200005F091FA304A0421200005F0D0
:1019A00003F800220421200005F087FA2C4A0521C3
:1019B000200004F0F9FF00220521200005F07DFA47
:1019C000284A0621200004F0EFFF00220621200013
:1019D00005F073FA244A0821200004F0E5FF0022F4
:1019E0000821200005F069FA204A0921200004F0AE
:1019F000DBFF00220921200005F05FFA10BDC04680
:101A0000D49300100000044094930010BC93001085
:101A1000DC930010E4930010EC930010C4930010CA
:101A2000B49300108C93001084930010F493001072
:101A3000FC930010AC93001000010440A49300102C
:101A40009C93001004940010CC9300107493001029
:101A5000000204407C930010149400105C9300106A
:101A60000C9400101C940010649300106C930010F0
:101A700030B585B001A8044B020032CB32C205F06C
:101A800087F805B030BDC0462494001010B5FFF7AC
:101A90008DFC002010BD70B505000E001C0004ABCD
:101AA00018888D421FD395421ED2521A91B2A0427D
:101AB0000CD2AE1BB6B2201A80B270434B08C018CD
:101AC00005F008FA80B2201A80B20DE0AD1BADB26D
:101AD000001B80B268434B08C01805F0FBF980B2C8
:101AE000001980B200E0200070BD70B51D0004AB8D
:101AF0001B7888421DD990421DD2AB420CD2441AA9
:101B0000E4B2E81AC0B26043511AC9B205F0F2F962
:101B1000C0B2281AC0B20DE0441AE4B2581BC0B2D9
:101B20006043511AC9B205F0E5F9C0B24019C0B21C
:101B300000E0280070BD1800FCE7030008008B429D
:101B400000D21800704710B504000F2A13D81023D4
:101B50009B1A43434A439B1808331B0998B281429E
:101B60000AD1844202D9013080B205E0844203D216
:101B7000013880B200E0002010BD0000002803D032
:101B8000044B20225A607047024B802292035A6015
:101B9000F9E7C04600010440F0B5DE4657464E4620
:101BA0004546E0B587B0F84CE28C01922C23E05C0E
:101BB0005043642105F08EF9F44B1880227EF44BDB
:101BC0001A70638BB722A65C9B1BF24A1380C0235A
:101BD000E25CF14B1A708423E75CF04B1F707A08CB
:101BE000EF4B1A707E23E35C002B04D18022A35CB0
:101BF000002B00D168E2E44C236B9B46E949181C9A
:101C000005F00CFF05F00AFDE74B1880636B9A4660
:101C1000E449181C05F002FF05F000FDE34B1880B5
:101C2000A36B9946DF49181C05F0F8FE05F0F6FC99
:101C3000DF4B1880E36B9846DA49181C05F0EEFE7E
:101C400005F0ECFCDB4B1880236CD6490293181C82
:101C500005F0E4FE05F0E2FCD74B1880626CD14938
:101C60000392101C05F0DAFE05F0D8FCD34B188067
:101C7000E56DCC49281C05F0D1FE05F0CFFCD04B1A
:101C800018802823E05C06F0D7F9041CCD4958469B
:101C900005F0C4FE011C201C05F0C0FE05F0BEFCD2
:101CA000C94B1880C749504605F0B8FE011C201CDE
:101CB00005F0B4FE05F0B2FCC44B1880C14948469B
:101CC00005F0ACFE011C201C05F0A8FE05F0A6FCEA
:101CD000BF4B1880BB49404605F0A0FE011C201CEC
:101CE00005F09CFE05F09AFCBA4B1880B5490298A5
:101CF00005F094FE011C201C05F090FE05F08EFC02
:101D0000B54B1880AF49039805F088FE011C201CD4
:101D100005F084FE05F082FCB04B1880A949281C10
:101D200005F07CFE011C201C05F078FE05F076FC19
:101D3000AB4B1880944C2823E35C9800C0184000FB
:101D400006F07AF9A74905F069FE05F067FCA64B95
:101D50001880B623E55CAB00ED186D00A34B1D8029
:101D6000A34B1D804F2D00D982E2A24B50221A8036
:101D7000854BD5229B5C002B00D17CE29E4BD43A54
:101D80001A709E4B01321A709D4B0B321A709D4B8C
:101D9000093A1A709C4B06321A709C4B043A1A701E
:101DA0009B4B01321A709B4B043A1A709A4B0632C5
:101DB0001A709A4B1A70744CB823E25C984B1A70E4
:101DC000984B1F70BD23E25C974B1A706923E25C4D
:101DD000964B1A708723E25C954B1A706823E25C7D
:101DE000944B1A706C23E25C934B1A70A27D934B58
:101DF0001A706423E25C924B1A70BC22A25C5A7087
:101E00007023E25C8F4B1A707123E25C8E4B1A7068
:101E10006D23E25C8D4B1A70E27D8D4B1A702B2383
:101E2000E05C019B5843642105F054F8574B18803F
:101E30002923E25C874B1A70874B1E80874B1E80DC
:101E400032003C3A864B1A80864B1E80227D864BA0
:101E50001A706223E25C854B1A707622A25C5A707B
:101E6000C923E25C824B1A70CE23E25C814B1A706C
:101E7000CF22A25C5A70804B1D705E4A12885A7045
:101E8000C523E25C7D4B1A706B23E25C7C4B1A70BD
:101E90008F23E25C7B4B1A709022A25C5A709122D5
:101EA000A25C9A709222A25CDA709322A25C1A71F0
:101EB0009422A25C5A718923E25C734B1A708A22C5
:101EC000A25C5A708B22A25C9A708C22A25CDA709F
:101ED0008D22A25C1A718E22A25C5A716B4B002279
:101EE0001A709621665A7608F6B25E700231655A0B
:101EF0006D08EDB29D700231605A4008C0B2D870D2
:101F00000231615A4908C9B219715A719E27E75DB9
:101F10009F719F27E75DDF71A027E75D1F72A127F3
:101F2000E75D5F729A72A227E75DDF72A327E75D24
:101F30001F73A427E75D5F73A527E75D9F73DA73BF
:101F4000A627E75D1F74A727E75D5F74A827E75DF5
:101F50009F74A927E75DDF741A755E759D75D87546
:101F600019765A76B121615C9976B221615CD97695
:101F7000B321615C1977B421615C59779A77AA2102
:101F8000615CD977AB2183E0180600204A3A002033
:101F9000153C0020643A0020B43B0020A339002007
:101FA000A23900200000C842BA390020B839002008
:101FB000B6390020B4390020B2390020B0390020F1
:101FC000AE390020000020419439002092390020D1
:101FD000903900208E3900208C3900208A39002069
:101FE00088390020333383409A390020A0390020FB
:101FF0009C3900209E390020A9390020AC390020EE
:10200000A5390020A6390020AB390020A8390020CE
:10201000A4390020AA390020AD390020A7390020BA
:10202000B93B0020DE3B0020E13B0020543C002077
:10203000BA3B0020603C00206A3C0020B73B0020F7
:10204000883C0020023C0020033C0020043C00208F
:10205000B83B00200F3C00205A3A00205C3A002098
:10206000603A00205E3A00206B3C0020903C00204B
:10207000FD3B0020683C0020CC3B0020593C002068
:102080005A3C0020D03B0020D83B0020203C0020C0
:10209000605C8B3958548C31605C8B3958548C316E
:1020A000605C8B39585401315A5401315A54013112
:1020B0005A5401315A5401315A5407B0F0BCBB464E
:1020C000B246A946A046F0BD7A4C236B9846181C30
:1020D00006F0C6FE0022784B06F048F805F0B6FA86
:1020E000764B1880636B0293181C06F0B9FE002231
:1020F000714B06F03BF805F0A9FA714B1880A26B02
:1021000091467049101C05F089FC05F087FA6E4B6A
:102110001880A26C92466B49101C05F07FFC05F0FC
:102120007DFA6A4B1880E26C93466649101C05F0F4
:1021300075FC05F073FA664B1880226D61490392B5
:10214000101C05F06BFC05F069FA624B1880616D9C
:102150000D1C5C490495281C05F060FC05F05EFA36
:102160005D4B1880A16D0D1C56490595281C05F086
:1021700055FC05F053FA594B1880E56D5149281C60
:1021800005F04CFC05F04AFA554B18802823E05C1A
:1021900005F052FF041C5349404605F03FFC011C6A
:1021A000201C05F03BFC05F039FA4F4B18804D49D7
:1021B000029805F033FC011C201C05F02FFC05F0F3
:1021C0002DFA4A4B18804749484605F027FC011C68
:1021D000201C05F023FC05F021FA454B18804149ED
:1021E000504605F01BFC011C201C05F017FC05F0F7
:1021F00015FA404B18803B49584605F00FFC011C6E
:10220000201C05F00BFC05F009FA3B4B1880354902
:10221000039805F003FC011C201C05F0FFFB05F0F2
:10222000FDF9364B18802F49049805F0F7FB011C87
:10223000201C05F0F3FB05F0F1F9314B188029491A
:10224000059805F0EBFB011C201C05F0E7FB05F0F1
:10225000E5F92C4B18802349281C05F0DFFB011CF5
:10226000201C05F0DBFB05F0D9F9274B188061E550
:10227000264B1D807CE5264B01221A70254B01322E
:102280001A70254B01321A70244B01321A70244BFC
:1022900001321A70234B01321A70234B01321A702B
:1022A000224B01321A70224B01321A70214B1A70E4
:1022B00081E5C0461806002000005940BE390020C4
:1022C000BC3900200000C842BA390020B8390020CB
:1022D000B6390020B4390020B2390020B0390020CE
:1022E000AE390020000020419839002096390020A6
:1022F0009439002092390020903900208E39002036
:102300008C3900208A390020883900209E3900202D
:10231000A9390020AC390020A5390020A6390020B9
:10232000AB390020A8390020A4390020AA390020A8
:10233000AD390020A739002010B5CE4B1B88CE4AFE
:102340001288934200D041E3CB4C2380CB4B1B88B7
:102350006380CB4B1B78643B2371CA4B1B88637132
:102360001E236371C84B1B88E380C84B1B882381E5
:10237000C74B1B886381C74B1B88A381C64B1B8837
:10238000E381C64B1B882382C54B1B886382C54BE8
:102390001B882375C44B1B886375C44B1B88A375AE
:1023A000C34B1B88E375C34B1B882376C24B1B882A
:1023B0006383C24B1B88A383C14B1B88A377C14B8C
:1023C0001B88E377C04B1A882023E254BF4B1A883E
:1023D0002123E254BE4B1A882223E254BD4B1B88B2
:1023E000A384BD4B1B88E384BC4B1A882823E2548A
:1023F000BB4B1A882923E254BA4B1A882A23E25489
:10240000B94B1A882B23E254B84B1A882C23E25478
:10241000B74B188805F062FEB64905F035F9206320
:10242000B54B188805F05AFEB24905F02DF96063E6
:10243000B24B188805F052FEAE4905F025F9A063AD
:10244000AF4B188805F04AFEAA4905F01DF9E06374
:10245000AC4B188805F042FEA64905F015F920643A
:10246000A94B188805F03AFEA24905F00DF9606401
:10247000A64B188805F032FE9E4905F005F9A064C8
:10248000A34B188805F02AFE9A4905F0FDF8E06490
:10249000A04B188805F022FE964905F0F5F8206556
:1024A0009D4B188805F01AFE924905F0EDF860651D
:1024B0009A4B188805F012FE8E4905F0E5F8A065E4
:1024C000974B188805F00AFE8A4905F0DDF8E065AB
:1024D000944B1A886023E252934B1A886223E25489
:1024E000924B1A886323E254914B1A886423E25476
:1024F000904B1A886523E2548F4B1A886623E25466
:102500008E4B1A886723E2548D4B1A886823E25455
:102510008C4B1A886923E2548B4B1A886A23E25445
:102520008A4B1A886B23E254894B1A886C23E25435
:10253000884B1A886D23E254874B1A886E23E25425
:10254000864B1A886F23E254854B1A887023E25415
:10255000844B1A887123E254834B1A887223E25405
:10256000824B1A887423E252814B1A887623E254F4
:10257000804B1A887723E2547F4B1A887823E254E1
:102580007E4B1A887923E2547D4B1A887A23E254D1
:102590007C4B1A887B23E2547B4B1A887C23E254C1
:1025A0007A4B1A887D23E254794B1A887E23E254B1
:1025B000784B1A887F23E254774B1A888023E254A1
:1025C000764B1A888123E254754B1A888223E25491
:1025D000744B1A888323E254734B1A888423E25481
:1025E000724B1A888523E254714B1A888623E25471
:1025F000704B1A888723E2546F4B1A888823E25461
:102600006E4B1A888923E2546D4B1A888A23E25450
:102610006C4B1A888B23E2546B4B1A888C23E25440
:102620006A4B1A888D23E254694B1A888E23E25430
:10263000684B1A888F23E254674B1A889023E25420
:10264000664B1A889123E254654B1A889223E25410
:10265000644B1A889323E254634B1A889423E25400
:10266000624B1A889623E252614B1A889823E252F1
:10267000C0E0C04600F000101806002002F0001074
:1026800004F0001006F0001008F000100AF000102E
:102690000CF000100EF0001010F0001012F00010FE
:1026A00014F0001016F0001018F000101AF00010CE
:1026B0001CF000101EF0001020F0001022F000109E
:1026C00024F0001026F0001028F000102AF000106E
:1026D0002CF000102EF0001030F0001032F000103E
:1026E00034F0001036F0001038F000103AF000100E
:1026F0003CF000100000C8423EF0001040F0001016
:1027000042F0001044F0001046F0001048F00010B5
:102710004AF000104CF000104EF0001050F0001085
:1027200052F0001054F0001056F0001058F0001055
:102730005AF000105CF000105EF0001060F0001025
:1027400062F0001064F0001066F0001068F00010F5
:102750006AF000106CF000106EF0001070F00010C5
:1027600072F0001074F0001076F0001078F0001095
:102770007AF000107CF000107EF0001080F0001065
:1027800082F0001084F0001086F0001088F0001035
:102790008AF000108CF000108EF0001090F0001005
:1027A00092F0001094F0001096F0001098F00010D5
:1027B0009AF000109CF000109EF00010A0F00010A5
:1027C000A2F00010A4F00010A6F00010A8F0001075
:1027D000AAF00010ACF00010AEF00010B0F0001045
:1027E000B2F00010B4F00010B6F00010B8F0001015
:1027F000BAF00010764B1A889A23E252754B1A8869
:102800009C23E252744B1A889E23E254734B1A881D
:102810009F23E254724B1A88A023E254714B1A880A
:10282000A123E254704B1A88A223E2546F4B1A88FA
:10283000A323E2546E4B1A88A423E2546D4B1A88EA
:10284000A523E2546C4B1A88A623E2546B4B1A88DA
:10285000A723E2546A4B1A88A823E254694B1A88CA
:10286000A923E254684B1A88AA23E254674B1A88BA
:10287000AB23E254664B1A88AC23E254654B1A88AA
:10288000AD23E254644B1A88AE23E254634B1A889A
:10289000AF23E254624B1A88B023E254614B1A888A
:1028A000B123E254604B1A88B223E2545F4B1A887A
:1028B000B323E2545E4B1A88B423E2545D4B1A886A
:1028C000B523E2545C4B1A88B623E2545B4B1A885A
:1028D000B723E2545A4B1A88B823E254594B1A884A
:1028E000B923E254584B1A88BA23E254574B1A883A
:1028F000BB23E254564B1A88BC23E254554B1A882A
:10290000BD23E254544B1A88BE23E254534B1A8819
:10291000BF23E254524B1A88C023E254514B1A8809
:10292000C123E254504B1A88C223E2544F4B1A88F9
:10293000C323E2544E4B1A88C423E2544D4B1A88E9
:10294000C523E2544C4B1A88C623E2544B4B1A88D9
:10295000C723E2544A4B1A88C823E254494B1A88C9
:10296000C923E254484B1A88CA23E254474B1A88B9
:10297000CB23E254464B1A88CC23E254454B1A88A9
:10298000CD23E254444B1A88CE23E254434B1A8899
:10299000CF23E254424B1A88D023E254414B1A8889
:1029A000D123E254404B1A88D223E2543F4B1A8879
:1029B000D323E2543E4B1A88D423E2543D4B1A8869
:1029C000D523E2543C4B1A88D623E25410BDC046AE
:1029D000BCF00010BEF00010C0F00010C2F00010FB
:1029E000C4F00010C6F00010C8F00010CAF00010CB
:1029F000CCF00010CEF00010D0F00010D2F000109B
:102A0000D4F00010D6F00010D8F00010DAF000106A
:102A1000DCF00010DEF00010E0F00010E2F000103A
:102A2000E4F00010E6F00010E8F00010EAF000100A
:102A3000ECF00010EEF00010F0F00010F2F00010DA
:102A4000F4F00010F6F00010F8F00010FAF00010AA
:102A5000FCF00010FEF0001000F1001002F1001078
:102A600004F1001006F1001008F100100AF1001046
:102A70000CF100100EF1001010F1001012F1001016
:102A800014F1001016F1001018F100101AF10010E6
:102A90001CF100101EF1001020F1001022F10010B6
:102AA00024F1001026F1001028F100102AF1001086
:102AB0002CF100102EF1001030F1001070B5164B03
:102AC0001B78002B14D0012B16D0144B1B78002B35
:102AD0000DD0134D2C88134B134A12785200D05A44
:102AE0006043642104F0F6F980B224182C8070BD94
:102AF0000A4B01221A70E8E70C4B1B88002B03D10C
:102B0000064B01221A70E0E7074B1B782D2BDCD90E
:102B1000024B00221A70D8E7593C00205B3C002091
:102B2000503A00208C3A0020113C0020883B0020C5
:102B300010B5194B1B78002B0BD1184B1B88002BA1
:102B400007D1174B01221A70164B174A12781A70C8
:102B50001DE0134B1B78002B19D0124B1B78002B58
:102B600016D0104A013B13700E4B1B78642058435B
:102B70000D4B197804F0BEF983B26420C01A80B2FC
:102B80000A4C23885843642104F0B4F9208010BD16
:102B9000034B00221A70E7E7113C0020843A002022
:102BA000563C0020553C002008070020503A0020E9
:102BB00010B5164B1B78002B23D0154A1378591CDF
:102BC0001170DB0703D5134A138801331380114BAF
:102BD0001A88C8239B009A4202D90E4BA0221A8061
:102BE0000C4B1B88DB08DBB20B4A13700B4A1288B4
:102BF000534364205843A72104F06CF9084B188014
:102C000010BD044BA0221A80FAE7C046703C002099
:102C10005F3C0020883A0020143C0020503A0020FD
:102C20008A3A002010B50F4B1B889BB2002B15D0A1
:102C30000C4B198889B20C4B1889AB239B00584365
:102C400004F048F9094B1880094B1B78002B04D07D
:102C5000064A99005B185B00138010BD034B0022ED
:102C60001A80F1E7CE3D0020303A0020883B00205A
:102C7000923C002008490A889308D21A92B20A802E
:102C8000064B1B889B189BB20B80054A9B0857215B
:102C90004B4313807047C0464C3A0020C03D002093
:102CA000723A0020724B9B7C012B5ED0704B9B7C58
:102CB000022B5AD06E4B9B7C052B56D06C4B9B7CC9
:102CC000042B52D06B4B00221A706B4B1A880A2AC5
:102CD00007D9684B1B78002B4FD1654B9B7C032B8E
:102CE0004BD0664B00211970644B1B783C2B03D9E9
:102CF000634B1978634B1970634B1988634B1B88BE
:102D0000994203D05E4B19785E4B1970594B197874
:102D1000002915D05E4B1B880A3B9BB291204000D6
:102D2000834209D85B4B1888AF239B00984203D895
:102D3000594B1B78002B03D0584B1878514B187007
:102D4000574B1B88642B25D9564B1B78002B21D160
:102D500000291FD0544B1B78013BDBB2812B19D9C2
:102D600052490B7801330B7017E0514B1B78002B45
:102D7000A8D1404B01221A70A7E74E4B1B78002BBD
:102D800003D04D4B1B78002BABD13C490B78013362
:102D90000B70A9E7454B00211970444B1B78FA2BA7
:102DA00003D9464B1978374B1970454B1B78002BCC
:102DB00020D15A2A0CD92E4B9B7C072B08D02C4BA8
:102DC0009B7C062B04D03F490B8801330B8002E02B
:102DD0003C4B002119803C4B1B88002B02D0394B07
:102DE00000211980374B1B887D2B03D9374B19786D
:102DF000244B1970364B1B781E2B10D9092A0ED87C
:102E0000344A13780133DBB213700A2B0AD9324BE0
:102E10001A781C4B1A702F4B00221A7002E02D4BAF
:102E200000221A702D4AC5239B00D3589B109B0586
:102E30009B0D2B4A13800E4B5B7CDBB2294AD35C83
:102E4000002B14D0284B1B78132B10D8264A0133A3
:102E50001370234B1A8892080C4B79215B5C053365
:102E6000DBB29A4203D9214B1A78064B1A7070478D
:102E7000303A0020493C0020843A00200E3C0020DB
:102E8000A7390020613C002000F000101806002047
:102E90005A3A00204E3A0020B33B0020AC390020C3
:102EA000523A0020583C0020113C0020C33B002037
:102EB000B53B0020B23B0020FC3B0020A5390020A0
:102EC000633C0020763A0020883B0020AA3900208D
:102ED000BD3B00200D3C0020A6390020000803481F
:102EE000B63D0020683C0020653C0020AB39002046
:102EF00010B52A4B1B78002B11D0294B1A78C82308
:102F00009B0053439BB2274A10885843264B19898C
:102F10004B00C918C90103F0DDFF244B1880244B76
:102F20006A229B5C002B22D0204B1C88002C07D0EF
:102F3000204B1888210003F0CDFF84B26400A4B2B6
:102F40001D4B1988002906D01A4B188803F0C2FFC0
:102F500081B2490089B2194B1B78002B0FD08C42EB
:102F600006D2091B89B2164A13685B18136010BD9C
:102F7000611A89B2124A13685B1A1360F7E7002CD2
:102F8000F5D00F4B1B680F4A9342F0D90C4A1B1B1C
:102F90001360064B00221A80E9E7C046F83B002088
:102FA000103C0020CE3D0020303A0020863A002020
:102FB000180600207C3A00207A3A0020E03B0020EE
:102FC000F806002000E1F50510B50D4B18880D4BF3
:102FD0001B7858430A2103F07DFF80B20A4B18800A
:102FE0000A4B1A6880181860094903F073FF094BEF
:102FF0001860094B1B68C018084B186010BDC0460C
:10300000703A0020BD3B00206C3A0020A83B002015
:10301000907E0000A43B0020A03B0020AC3B0020A1
:1030200070B582B0204B1888C72807D91F4B1822CB
:103030001A701F4B0F3A1A7002B070BD1D4E3378D4
:103040008008C0B21825009532220A21FEF74DFDF6
:10305000164C20703378184A1078009546221421B7
:10306000FEF743FD2378834201D9104B1870134EAD
:1030700033780D4A10888008C0B2092500953222A5
:103080000A21FEF732FD0A4C207033780A4A107884
:10309000009546221421FEF728FD23788342CBD9E0
:1030A000034B1870C8E7C046883B00200307002088
:1030B0000107002004070020113C00200207002027
:1030C00010B5334B1C78334B5B7B002B0ED0324B4F
:1030D0001B78002B0AD1314B1A88314B1978782391
:1030E0005B1A9A4202DD2C4B01221A70294B1B7D80
:1030F000002B3FD1284B1A78002A03D1294B1B788B
:10310000002B36D0254B1988274B1B784B43544353
:1031100063435B0A5801C01A8000C018C000234BEB
:10312000198803F0D7FE84B22409FFF779FF204BFA
:103130001A78A24221D21F4B1A701F4B88229B5C27
:10314000002B0FD01D4B1B78002B19D0194B1B786F
:10315000144A1278934201D9124A1370154B114A3E
:1031600012781A70134B1B78002B0DD0144BFE22D3
:103170001A7010BDFFF7A2FCBCE70E4B1C70DCE719
:10318000084B00221A70EDE70D4B00221A70F0E791
:103190001D3C0020303A0020113C0020503A002015
:1031A000B83B0020573C0020153C0020723A00201C
:1031B000FC060020B23B002018060020583C0020EE
:1031C000FC3B002070B5334BCA229B5C002B52D1D4
:1031D000314B5B7B002B0ED0304B1B78002B0AD180
:1031E0002F4B1A882F4B197878235B1A9A4202DDED
:1031F0002A4B01221A70284B9B7B002B02D0274BB5
:1032000001221A70264B1B88002B03D0234A127808
:10321000002A03D1244A1278002A2BD0234A10789E
:103220005843782103F066FE040085B2FFF7F8FEEC
:103230001F4B1A78AA4221D21E4B1A70154B8822B6
:103240009B5C002B0FD01C4B1B78002B19D0194B0B
:103250001B78154A1278934201D9134A1370154B03
:10326000114A12781A70134B1B78002B0DD0134B98
:10327000FE221A7070BDFFF75BFCA9E70D4B1C70B6
:10328000DCE7094B00221A70EDE70C4B00221A70A4
:10329000F0E7C04618060020303A0020113C00201C
:1032A000503A0020B83B0020573C00201D3C002035
:1032B000FC060020B23B0020583C0020FC3B0020D4
:1032C00010B5194B1A78002A25D0184B1B789B187B
:1032D0009B10174A1380174B1B78A42B02D8154B51
:1032E000A5221A70FFF724FC124BA5221A70104B6E
:1032F0001C88114A12881A80FFF792FE0F4B1A7829
:10330000A24209D20E4B1A700D4B1B78002B06D02F
:103310000C4BFE221A7010BD094B1C70F4E7094BD0
:1033200000221A70F7E7C046113C00201D3C002027
:10333000503A002008070020543A0020FC060020E4
:10334000B23B0020FC3B002070B5384B5B7B002B70
:103350000ED0374B1B78002B0AD1364B1A88364BD0
:10336000197878235B1A9A4202DD314B01221A70D8
:103370002E4B9B7B002B02D02D4B01221A702D4B24
:103380001888002803D02A4B1B78002B03D12B4B25
:103390001B78002B3CD02A4B1B785B00FE21490098
:1033A000C91A89B2274B1B78002B05D0204B1B78FC
:1033B0008B422ED8C91A89B20A3189B24043081803
:1033C00003F088FD040085B2FFF72AFE1E4B1A7831
:1033D000AA4220D21D4B1A701D4B88229B5C002BE9
:1033E0000FD01C4B1B78002B18D0184B1B78134A9E
:1033F0001278934201D9114A1370144B0F4A127874
:103400001A70124B1B78002B0CD0134BFE221A7033
:1034100070BD0021D0E70D4B1C70DDE7074B00228B
:103420001A70EEE70C4B00221A70F1E7303A0020D8
:10343000113C0020503A0020B83B0020573C0020AF
:103440001D3C0020FD3B0020FC060020B23B00207C
:1034500018060020583C0020FC3B002070B5404B73
:10346000CA229B5C002B30D13E4B5B7B002B0ED0E5
:103470003D4B1B78002B0AD13C4B1A883C4B1978EA
:1034800078235B1A9A4202DD374B01221A70354BC2
:103490009B7B002B02D0344B01221A70324B1E78DA
:1034A000002E03D1334B1B78002B4DD02F4B1D88A2
:1034B000002D0DD0304B1A78304B9B18587968434B
:1034C000782103F017FD84B203E0FFF731FBCBE76F
:1034D0002C002B4B1B782B4A12786A4392B2734311
:1034E00053435B0A5801C01A8000C018C000264B25
:1034F000198803F0EFFC80B20009844200D2040076
:10350000FFF78EFD214B1A78A2421ED2204B1A7073
:10351000134B88229B5C002B0FD01E4B1B78002B7B
:1035200016D01B4B1B78134A1278934201D9114ACB
:103530001370174B0F4A12781A70154B1B78002B1B
:103540000AD0154BFE221A7070BD114B1C70DFE7BC
:10355000084B00221A70F0E70F4B00221A70F3E7B5
:1035600018060020303A0020113C0020503A00207C
:10357000B83B0020573C0020FE060020203C0020E5
:103580001D3C0020153C0020723A0020FC06002063
:10359000B23B0020583C0020FC3B002030B583B0FB
:1035A000904BCD229B5C002B00D1C7E08E4B5B7C07
:1035B000DBB28E4AD35C8E4A13708E4A11788E4AE3
:1035C0001278914200D195E08A490A70854A7821A3
:1035D000525C002A00D1B3E0824A1339525C002ABF
:1035E00000D18BE09BB2854A1288934200D993E0C8
:1035F000834B1B78002B00D18EE0824B1B78002B75
:1036000004D1814B1B78002B00D185E07A4B062238
:103610001A707E4B1B78002B18D07C4A0023137045
:103620007B4A13807B4A13807B4AFA214900118030
:103630007A4A13807A4A13807A4B7B4A12789B1815
:103640005B7E9A009B185B00784A1380774A6B4B2D
:1036500012881B88D21A93B210B26D4A10806E493C
:103660000A889A1812B20A80FA2189008A4200DC7C
:10367000ADE0694A1180674C2188591A8AB2674DBA
:10368000298020809B009BB251005218520092B2B8
:1036900061490020085E81000918C9109B185B1859
:1036A0001BB25F4A1380002B00DA97E05C4B0022CC
:1036B0009A5EFA239B009A4203DD594BFA2292004C
:1036C0001A805B4BF4221A705A4BAB3A1A705A4B61
:1036D0005A4A12781A70524B0020185E8010C0B2FD
:1036E000FE2300930023FA220021FEF7FEF9544B3B
:1036F000187023E0424A0121117067E79BB23F4AEC
:103700001288934208D83E4B1B78002B04D03D4BC7
:103710001B78002B00D079E7394B00221A703B4B05
:1037200001321A70344B02321A703E4B3E4A127804
:103730009B189A7A434B1A70FFF7C2FD03B030BD55
:10374000284AB521525C002A2FD0264A5039525CB3
:10375000002A17D09BB2294A12889342DCD8224B08
:103760005B7C002BD8D1264B1B78002BD4D0254B6B
:103770001B78002B00D049E7234B1B78002B00D08F
:1037800044E7C9E79BB21D4A12889342C4D8164B3E
:103790005B7C002BC0D11A4B1B78002BBCD0194B83
:1037A0001B78002B00D031E7B6E79BB2134A128892
:1037B0009342B1D80C4B5B7C002BADD1104B1B78E6
:1037C000002BA9D00F4B1B78002BA5D01EE7002A99
:1037D00000DB50E7104A002111804CE71300002263
:1037E0001A8063E718060020303A0020CC3B002006
:1037F000C83B00201C3C00201B3C0020883B0020D4
:10380000C63B0020113C0020C73B0020C53B0020E8
:10381000CE390020D2390020D0390020CC39002008
:10382000CA390020203C0020FE060020863B0020F4
:103830000307002001070020B23B0020FC06002007
:10384000FC3B00201D3C002030B583B03F4AC7231D
:103850009B00D3589B109B059B0D3D4A13801088FD
:103860003C4C7923E15C0133E25C4033E35CBB25F3
:10387000645D8008C0B20094FEF737F9364B1870CB
:1038800000282FD0354B1870354B5B7CDBB2354AA6
:10389000D35C012B2AD0032B30D0304B1878324B1D
:1038A0001B7800930023FF220021FEF71EF904007D
:1038B00005002E4B1B78834212D22D4B1888FE2810
:1038C0002BD92C4B30221A702B4B273A1A70264BCF
:1038D0001B78AB4237D2254A1370284BFE221A7050
:1038E00003B030BD1D4B00221A70CDE7244B1B786E
:1038F000002BD2D1194B00221A70CEE7154BAE2205
:103900009A5C1B4B1B889A42C7D21D4B1B78002B1D
:10391000C3D1124B00221A70BFE7C0B2302300930C
:10392000C433FF222821FEF7E0F8124B1870104B29
:103930001878092300934033FF222821FEF7D5F899
:103940000D4B1870C3E7094B1C70C6E7000803480D
:10395000B63D002018060020643C0020B53B002046
:10396000303A0020683C0020FC060020B23B0020DA
:10397000883B00200307002001070020FC3B0020BB
:10398000113C002010B582B01B4B1C88A4B2C82289
:103990001A4B18885623FF330093194B52002821E5
:1039A000FEF779F8174B1880002C0BD02100164831
:1039B00003F090FAC0B2154B1870782805D9782218
:1039C0001A7002E0114B00221A70114B00221A806B
:1039D0000E4B1C78002C0AD00E4B1878001B0028C8
:1039E00005DD0002210003F085FA094B1880094B20
:1039F0001C7002B010BDC046C43D0020883B0020B2
:103A0000AE100000F206002035DF0000113C00205F
:103A1000D4390020123C002070B582B0114B9B7A43
:103A2000002B01D102B070BD0E4A937A023BDBB28B
:103A3000990059184900947A0234E4B2A300E418BA
:103A40006400094E3378094D288800220092220034
:103A5000FEF721F830702B88A342E3D9044B0022F3
:103A60001A70DFE7303A0020B23B0020883B00208C
:103A7000FC3B002010B56E4A13780133DBB21370A3
:103A80006C490A780132D2B20A706B490978002970
:103A90001BD0032B19D9664B00211970664B197086
:103AA000664B1B78002B1AD0012A18D9614B0022D3
:103AB0001A70624B1A70624BDB7CDBB2082B00D9A8
:103AC000B0E09B005F4AD3589F460029E8D1022B03
:103AD000E6D9574B1970584B01311970E0E7002BAC
:103AE000E9D1012AE7D9534B00221A70534B013216
:103AF0001A70E0E7544B1878FEF740F810BD524BAF
:103B00001878002804D04C4B1878FEF737F8F5E702
:103B1000FEF734F8F2E74C4B1878002803D04B4BF3
:103B20001B78002B02D1FEF729F8E7E7434B187802
:103B3000FEF724F8E2E7444B1878002803D0434B03
:103B40001B78002B06D100280AD03B4B1878FEF7D3
:103B500015F8D3E73D4B1878C0B2FEF70FF8CDE764
:103B6000FEF70CF8CAE7384B1878002803D0374B1B
:103B70001B78002B06D1002809D02F4B1878FDF7B1
:103B8000FDFFBBE72D4B1878FDF7F8FFB6E7FDF713
:103B9000F5FFB3E72D4B1B78002B05D02B4B187886
:103BA000C0B2FDF7EBFFA9E7274B1878FDF7E6FF5A
:103BB000A4E7264B1B78002B04D0204B1878FDF788
:103BC000DDFF9BE7204B1878FDF7D8FF96E71F4BEA
:103BD0001B78002B08D11C4B187800280AD0164BF4
:103BE0001878FDF7CBFF89E7184B1878C0B2FDF7BE
:103BF000C5FF83E7FDF7C2FF80E7144B1B78002B5E
:103C000008D1114B1878002809D00B4B1878FDF714
:103C1000B5FF73E7094B1878FDF7B0FF6EE7FDF7C6
:103C2000ADFF6BE7084B1878FDF7A8FF66E7C046C5
:103C3000D73B0020C23B0020D63B0020C13B0020E8
:103C4000303A002030940010083C0020FC3D002059
:103C500010B5754B9B7B002B1DD0744B1B78143318
:103C6000734A1370724B1B78822B02D9704B8222DD
:103C70001A70704BF4221A706F4BAB3A1A706F4B7C
:103C800019782820FDF759FF6D4B18706D4B684A65
:103C900012781A7010BD654B18786B4B18706B4B0F
:103CA0001B78002B0ED16A4A1288002A0AD1604B79
:103CB00032321A70674B1A70674B00221A80674BBA
:103CC0001A80CFE7002B6FD0614B1B88644A1288A3
:103CD000934219D2634B04221A70634A1378591C19
:103CE0001170042BBED9524B1A785A4B1B789A424A
:103CF00006D24F4B01321A705B4B00221A70B1E7AB
:103D0000544A01331370F7E7544909888B4217D29C
:103D10009B1A9B00DBB2534A137053490A78501C1C
:103D2000087093429ED2424B1B784A4A12789342C3
:103D300002D23F4A013313704B4B00221A7091E7B5
:103D40004A4A1288934216D2D31A9B00DBB2454AE4
:103D5000137045490A78501C0870934200D381E7DC
:103D6000334B1B78282B02D9314A013B13703E4B51
:103D700000221A7076E73B4B04221A703A4A1378F5
:103D8000591C1170042B00D86CE7294B1B78282B89
:103D900006D9274A013B13702E4A1378013B137052
:103DA000314B00221A705DE72E4B0A221A702E4A00
:103DB0001378591C11700A2B00D853E72C4B198823
:103DC000002925D02A2903D9194A1378013B1370F9
:103DD000214A13885C1C1480092B15D91D4A1378BD
:103DE0000A3313701A4B1B88584303F083F880B2D0
:103DF0001A4B18800200143A194B1A8014301B4BCE
:103E00001880124B01221A70174B00221A7029E7F2
:103E1000104B1B78772BF7D805490A7801320A70C6
:103E20000C4A01331370EFE7303A00201D3C0020AC
:103E30000A0700200307002001070020FC060020DD
:103E4000B23B0020FC3B00208D3C00208C3C00203D
:103E5000843A002009070020843B0020823B002098
:103E6000803B0020813C0020863C00207E3B0020DF
:103E7000883B002010B5BD4BC2221A70BC4B793A6A
:103E80001A70BC4B00221A70BB4B1A70BB4BBE326F
:103E90009B5C002B24D0BA4B1B88F52B1DD9B94A4B
:103EA0001178C9B2B84A1278D2B2914215D2B74A43
:103EB0001278002A11D10B33DBB2B54A13705B09BB
:103EC000B44A13701378DBB2052B02D91300052214
:103ED0001A70B14B01221A7002E0AF4B00221A7027
:103EE000AE4B1B78002B20D1AD4B9B7CDBB2082B5B
:103EF0003BD89B00AB4AD3589F46FFF7E1F834E02C
:103F0000FFF760F931E0FFF7DBF92EE0FFF71CFA6D
:103F10002BE0FFF7A3FA28E0FFF740FB25E0FFF7CF
:103F200097FE22E0FEF744FE1FE09F4B1A786423C1
:103F300053431B11DBB28F4A13708F2B02D913002E
:103F40008F221A70994B1B78002B02D0894B0022CC
:103F50001A70974B1B78884A1370FD2B02D91300F7
:103F6000FE221A70934B32221A70844BCE229B5C35
:103F7000002B07D08A4B5B7CDBB28F4AD35C002BD3
:103F800000D0BAE0FFF748FD8C4AC1239B00D3580C
:103F90009BB29B08DBB28A4A12789A4203D2894BC1
:103FA000894A12781A70754BD3229B5C002B0ED075
:103FB000844A1278002A00D1A2E0844801780131B5
:103FC0000170824909788B4201D8784B1A706D4B89
:103FD0001A789300D21853017D4A13607D4A116804
:103FE0005B1813607C490A68013A0A60002A07D10D
:103FF0009B097A4A136040220A60764B00221A60BD
:10400000774B1B78002B33D1764B1B78002B2FD0AE
:10401000664B1B78DBB2744A1278934228D0634B0C
:104020001B78DBB2714A1278934221D05F4B1B7828
:10403000DBB2654A127893421AD05C4B1B78DBB234
:104040006B4A1278934213D06A4B1B78002B0FD027
:10405000584B1B78002B0BD0674B1B78002B07D1DC
:10406000524B1B78002B4FD04D4B9B7B002B4BD1E1
:10407000624BC2221A70624BB93A1A70424B00224C
:104080001A70604B1A70574B1B78002B00D1BFE0A1
:10409000464A1278D2B2544909788A4227D0434A14
:1040A0001278D2B2514909788A4220D03F4A127818
:1040B000D2B2454909788A4219D03C4A1278D2B224
:1040C0004B4909788A4212D04B4A1278002A0ED105
:1040D0002B4A1288002A00D09AE0264A1278002A39
:1040E00000D095E0484A1278002A00D090E03D4B7D
:1040F00000221A7002F060FB10BDFFF7A5FB41E73C
:104100003249002008705CE7404B1B788F2B02D9A6
:104110003E4B8F221A703D4B1B7819003231284AD2
:104120001170144A1278934201D2124A13700F4B45
:104130001B78172B02D80D4B18221A700C4B1B78CA
:10414000082B02D80A4B09221A70084B1A782B4BFD
:104150001A70074B1A782A4B1A70064B1A780A4BBA
:104160001A70054B1A78274B1A708CE7030700204A
:1041700001070020B23B0020FC3B00201806002075
:10418000843A0020F03D0020FD3D0020B53B00209A
:10419000003C0020053E0020013E0020633C002042
:1041A000303A00205494001000070020613C0020A9
:1041B000050700201D3C0020683C00200004034847
:1041C000FD060020FE3B0020A4390020FF3B00201C
:1041D0009C3B0020943B0020F4060020983B0020EC
:1041E000FC3D002006070020A6390020A73900204A
:1041F000AB390020FE060020F33D00201A07002006
:1042000019070020FE3D0020063E0020FC0600208D
:10421000002B00D070E70D4B1B889F2B00D96BE75C
:104220000B4B1B78002B00D166E70A4B1B78002B49
:1042300000D061E7084B01221A70084B1D321A703A
:10424000074B00221A7002F0F3FA55E7843A002077
:10425000B23B0020FC3D002006070020063E002067
:10426000043E002010B582B06B4B7E229B5C002B7D
:1042700009D1694B48329B5C002B04D1664B0F324D
:104280009B5C002B06D0654B1B78452B02D8634BFB
:1042900046221A70624BD88864235843572102F093
:1042A00019FE80B25F4B18805F4B1B78642B02D9DC
:1042B0005D4B64221A70584C607D18230093AA331A
:1042C00064220021FDF711FC584B18702923E05C93
:1042D000203B0093403364220021FDF706FC544B41
:1042E0001870CB23E05CAD3B0093E13364220021E6
:1042F000FDF7FBFB4F4B1870237E4F4A13704F4A5C
:104300001278002A39D0444BC2229A5C4A4B5A7028
:10431000414BC2229A5C4A4B1A70414B197C494A64
:104320001170597D5171597C5170197D9171997D30
:10433000D172597B5172997B9173997C424A117069
:10434000D97C424A1170DB7B9B00414A1380138861
:104350009BB2002B0BD01388FA208000C01A3D4B73
:104360001B885843642102F0B5FD3B4B18602A4B73
:104370009A8B3A4B1A80012310E02F4A5370C7E7FB
:104380005A1E36495200505A234A2124125D424394
:10439000120A801A5A0088520133DBB2772BEFD908
:1043A0001D4BBD229B5C002B02D02D4BBC3A1A70DA
:1043B0001B4B18796423584380B20009C0B2294BC3
:1043C0001870154CA28C284B5A43120927490A60D1
:1043D0007422A25A53431B094B60BB23584380B23B
:1043E0008F2102F077FD80B2214B18801B889BB291
:1043F000BB2B02D91E4BBB221A80074BB7229A5CFB
:104400001C490A80C021585C1B4908705B8B9B1AB1
:104410001A4A138002B010BD18060020DE3B0020AF
:10442000303A00200E070020B83B0020040700208F
:104430000207002008070020183C00206B3C0020E9
:10444000133C0020E83B0020F93B0020F73B002014
:10445000663A00204A3A0020A03B00208C3A002017
:10446000E03B0020B03B0020A08601008C3B0020F8
:10447000F0060020623A0020B43B0020643A00209D
:10448000030043434B431B0A43431B0B8022520050
:10449000521A5043C0188030000A704770B50400AB
:1044A00000290CD000280BDB8023DB00984200DDC4
:1044B0001800002906DBFFF7E3FF002C0ADB70BDC4
:1044C0004042F1E749428025ED00281AFFF7D8FF66
:1044D000281AF2E74042F2E770B5654B1B78772B5C
:1044E0004FD9644B644A12881A80644B00229B5E49
:1044F000192B07DD624B00221A80624B1A80624B37
:1045000001321A70614B1A88614B1A80604B1B880C
:10451000584A108883425FD9181A80B25D4B1880C0
:1045200080025D4B1B78143B5C00E418A4005B4BDD
:10453000198802F0DFFC2100FFF7B0FF0300584AA2
:1045400010608000C0184001801280B2554B1C786A
:10455000002C06D1544B00221A80544B1A70544B35
:104560001A70544B1B88834238D2C31A9BB23B2B20
:1045700037D94F2B37D9632B37D9812B37D9102116
:1045800042E0424B188880B24B4C21880422FDF750
:10459000DAFA2080364A13780133DBB21370782BB5
:1045A00006D03B4B1880334B334A12881A80ADE754
:1045B000424B1B78002BF4D0414B1B88984207D903
:1045C000404B1B88984203D23F4B00221A70E8E709
:1045D0003D4B01221A70E4E70020B7E71B1A9BB29B
:1045E000C5E7012110E002210EE004210CE00821C2
:1045F0000AE0364A2E4D2D786D00AD5A2A4A5B1BD3
:1046000013800FE00139C9B2002918D0264A138857
:10461000C3189BB21380254A1278272AE9D8234B66
:1046200001321A70224D2B78284A5E00B0520133B5
:10463000DBB22B70272BE5D900222A70E2E71A4B58
:1046400018881A4B197802F055FC80B2194B188063
:104650001F4B18801F4B18801F4B1B78584380B28C
:104660006043602102F036FC1C4B188070BDC046D0
:10467000493A00205A3A0020623A0020D4390020FA
:10468000BA3D0020BE3D0020F13D0020BC3D002091
:104690004E3A0020563A0020B43B0020643A0020F5
:1046A000D8390020113C00202E3A00202C3A00205E
:1046B0002D3A0020503A00205C3A00206B3C00204C
:1046C000603A00205E3A0020B33B0020DC39002035
:1046D000543A0020523A0020153C0020823A002033
:1046E0001E4A8A235B00D3581B070AD48E235B0023
:1046F000D358DBB21A4A1278D1B2002A02D001296B
:1047000015D07047592B05D0164B00221A70144B48
:104710001A70F6E7134A1178C9B213484354137854
:104720000133DBB213700E4B01221A70E9E70D4A18
:104730001178C9B20C48435413780133DBB21370BB
:104740001378DBB2062BDCD9130000221A70044B5D
:104750001A70064B01321A70D3E7C04600020048B7
:104760005E3C0020533C00204C3C00201A3C0020C2
:1047700070B5BC4B1B78002B01D100F096FCBA4BF6
:1047800043221A70B94B00221A70B94A13780121DA
:104790008B431370B74B7E229B5C002B04D1B54B2F
:1047A00002329B5C002B6ED0B34B1A78072A0CD8D0
:1047B0009300B24AD3589F46AD4A137801210B4368
:1047C000DBB21370A84B00225A70AA4B7F229B5C6D
:1047D000002B00D195E0AA4B19881A78A24BDA7009
:1047E000A84B1B88994200D387E09B1ADBB29E4AF4
:1047F000137102F073F989235B00984200D3B2E091
:10480000A14B00221A70A04B1B78502B03D99F4B51
:104810001A78964B1A709E4B1B78DBB29D4A127821
:10482000934200D1A5E09A4B1B78002B00D1A2E067
:104830008E4B1B78002B00D09DE0954B1B78DBB294
:104840008A4A137097E0884B00225A70BDE7864B66
:1048500002225A70B9E7844B06225A70B5E7824BA0
:1048600009225A70B1E7804B0C225A70ADE77E4B9B
:104870000C225A70A9E77C4B0C225A70864B1A788E
:104880007A4B1A70A1E77C4B1A78092A9DD89300BD
:10489000824AD3589F46764A137801210B43DBB2F4
:1048A0001370714B00225A708FE76F4B00225A70C1
:1048B0008BE76D4B02225A7087E76B4B04225A70CC
:1048C00083E7694B06225A707FE7674B08225A70CC
:1048D0007BE7654B0A225A7077E7634B0C225A70CC
:1048E00073E7614B0C225A706FE75F4B0C225A70D2
:1048F000694B1A785D4B1A7067E75B4B00221A719F
:1049000077E75C4BC6229B5C002B09D1594BD52223
:104910009B5C002B16D1544B4622DA701A7168E763
:104920005F4B1B78504CE3705E4D29885E4B1888B6
:10493000B93AFDF708F92880642102F0CBFAC0B239
:10494000207156E7484C0023E370564D2988564B9A
:104950001888CD3AFDF7F7F82880642102F0BAFAFA
:10496000C0B2207145E702F0B9F81138464B187013
:1049700049E73E4B1A703D4B1B78002B00D1A3E05A
:104980004A4B1B78002B00D09EE03A4B80229B5C68
:10499000002B45D0354B1B78DBB2454A1278934249
:1049A0001AD0324B1B78DBB23B4A127893421CD0B0
:1049B0002E4B1B78DBB23F4A127893421ED02B4B12
:1049C0001B78DBB23C4A1278934220D0274B1B78ED
:1049D000DBB2254A5371B9E0384B1B78002B00D16C
:1049E000B4E0214B08225A71B0E0344B1B78002B05
:1049F00000D1ABE01C4B06225A71A7E02F4B1B786D
:104A0000002B00D1A2E0184B03225A719EE02B4BE1
:104A10001B78002B00D199E0134B04225A7195E0CA
:104A2000144B7E229B5A002B04D1124B57329B5CB5
:104A3000002B11D0224B1B78002B03D1214B9B7BE9
:104A4000002B03D0084B00225A717FE0074B1B78E4
:104A5000DBB2054A537179E0044B1B78DBB2024AA2
:104A6000537173E0F83B0020783C0020E23B0020CB
:104A7000933C002018060020BE3B002078940010D4
:104A80005C3A00204E3A0020623C0020A839002009
:104A9000613C0020A6390020A9390020989400101C
:104AA000BD3B00206A3A00206C3A0020E33B002026
:104AB000AD390020AB390020A4390020D63B0020BE
:104AC000BC3B0020303A0020C14B1B78002B3AD071
:104AD000C04BD5229B5C002B07D0BF4B1B78022B11
:104AE00020D0032B22D0012B18D0BC4B1B78002BDD
:104AF00024D1B94B1B78002B20D0B94B1B7C002B49
:104B000003D1B84B1B78002B18D1B74B1B78002B67
:104B100010D0AF4B1A78B54B5A7117E0AC4BD43A62
:104B20001A70E2E7AA4B02221A70DEE7A84B0422B1
:104B30001A70DAE7AD4B00225A7107E0A44B1A78DD
:104B4000AA4B5A7102E0A94B00225A71A84B1B785C
:104B5000002B00D161E2A74B1B78002B00D178E03D
:104B6000A54B1B78002B57D0A44CA54DA54B1888FE
:104B70000A2102F0AFF90100288889B202F0AAF9EF
:104B800020809E4B1B88002B00D141E2D9B2974A6E
:104B900091711B0AD3718F4B82229B5C002B05D035
:104BA000994A137804210B43DBB21370894B81229D
:104BB0009B5C002B23D0954B1B88002B00D14DE232
:104BC000914A1378802149420B43DBB21370904B1A
:104BD0001B78DBB20A2B00D846E28B4A13784021BF
:104BE0000B43DBB21370884B1B783F22934300D1F9
:104BF00040E2854A137804210B43DBB21370824BE9
:104C00001A781F210A4079498A701A783B210A4094
:104C10001A700022002339E27E4B1B78002B0BD048
:104C20007D4B19788B00C9184900744C744B188857
:104C300002F050F92080A4E7784B1B78002BA0D01D
:104C40006E4C6F4A764B1088198802F043F9208029
:104C500097E7744B1B78002B39D0734A1278002ADF
:104C600035D1012B05D0022B1ED0644B00221A80B7
:104C700087E7584BB9229B5C012B09D06B4B1988F5
:104C800089B25E4C5E4B188802F024F9208078E7E8
:104C9000664B1B889A009B185900594B188802F0E4
:104CA00019F9564B18806CE74A4B2B22985C604BE5
:104CB0001B885843642102F00DF981B25D4B1980C5
:104CC0004E4C4F4B188802F005F9208059E75A4B9B
:104CD0001A785A4B1B789A4223D83F490978002901
:104CE0001FD040480078012803D9554C2478002C67
:104CF00017D00139534B8A0052189B181B5C002BAC
:104D00000AD0012B00D03CE73C4C3D4B1888692170
:104D100002F0E0F8208034E7384B394A12881A80D4
:104D20002FE79A4207D82C490978002903D02D494A
:104D30000978042911D09A421BD8274B1B78002BE5
:104D400017D0414B1B786421594305312C4B1888EF
:104D500002F0D0F8294B188013E73C4B1B786031E8
:104D600059430531264B188802F0C4F8234B1880AC
:104D700007E7374B374A12789B5C0C2B00D900E7CA
:104D80009B00354AD3589F46124BB9229B5C012B9E
:104D900007D01A4C1A4B1888002102F09BF820808B
:104DA000EFE6174B1888002102F094F8134B188097
:104DB000E7E6084BB9229B5C012B4FD01B4B1988AF
:104DC00089B20E4C0E4B188802F084F82080D8E689
:104DD000E33B0020180600200C3C00200A3C002089
:104DE000303A0020FE060020D63B0020783C002010
:104DF000E03B00206C3C0020703C00207A3A002010
:104E00007C3A00208A3A0020933C0020863A002019
:104E1000063E0020FA3B0020733C0020FB3B0020B4
:104E20007C3B0020E13B00205D3C0020663A0020F6
:104E3000703A00206E3A0020093C0020DE3B002042
:104E4000DF3B0020E83B0020F93B0020F73B00203F
:104E5000D03B0020CE3B0020C09400109A4B1B8812
:104E60009A009B185900994B188802F033F8984B18
:104E7000188086E6974B2B22985C974B1B885843EB
:104E8000642102F037F881B2944B1980904C8F4B1B
:104E9000188802F01FF8208073E68C4B1888904B1E
:104EA000197802F027F88A4B18806AE68D4C218821
:104EB0008D4B18880D22FCF746FE2080854BB922C9
:104EC0009B5C012B0BD0824C804D0A2102F002F832
:104ED0000100288889B201F0FDFF208051E67C4C5A
:104EE0007A4B1B880100180001F0F4FF208048E68F
:104EF0007E4B1988764C754B1888890801F0EAFFBB
:104F000020803EE6724C714A794B1088198801F076
:104F1000E1FF208035E66F4BB9229B5C012B0AD064
:104F2000744B1978632912D9684B188801F0E2FF95
:104F3000674B188025E66F4B1B789900C91849000C
:104F4000624B188801F0C6FF614B188019E68B0090
:104F5000591849005D4B188801F0BCFF5C4B188064
:104F60000FE6654C2188654B18880D22FCF7EBFD98
:104F70002080574C554D0A2101F0ACFF01002888D4
:104F800089B201F0A7FF2080FBE5514C4F4A5C4BF2
:104F90001088198801F09EFF2080F2E54D4BB92260
:104FA0009B5C012B0CD0574B18680A2101F092FF33
:104FB00081B2474C454B188801F08CFF2080E0E51A
:104FC000504B1988424C414B188801F083FF2080D8
:104FD000D7E53F4C3D4A4C4B1088198801F07AFFC9
:104FE0002080CEE5494B187864235843FE2101F018
:104FF00081FF83B2013B9BB2454A13809900C918D7
:105000004900324B188801F065FF314B1880B8E534
:10501000404B07229A71DA71BDE53F4B1888002892
:1050200017D02C4BD1229B5C002B0CD000010A2105
:1050300001F060FF80B2394B1880C2B2354B9A71D3
:10504000000AD871A7E5C2B2324B9A71000AD87132
:10505000A1E5304B07229A71DA719CE5304A13784A
:105060007F210B401370B2E52D4A137840218B430A
:105070001370B8E52A4A137804218B431370BEE5F8
:105080002449C95C8A18D2B20133DBB2072BF7D9A5
:10509000204B1A72234A8A235B00D3581B0E7F22AF
:1050A0001A401E239B1A092B00D870BD0023082B21
:1050B000FBD8184AD25CD2B21A48C02149004250EB
:1050C0000133DBB2F3E7C046663A00207C3A0020A9
:1050D0007A3A002018060020703A00206E3A00202C
:1050E000BD3B00206A3A00206C3A0020B63D00200B
:1050F0004E3A0020113C0020803A0020823A0020E5
:10510000503A0020AC3B0020843A0020063E0020AC
:105110007E3A0020783C0020863A0020783A002031
:10512000933C002000020048F8B504000F00150071
:105130001E000B4B18888300C0184000094B282222
:10514000995C01F0D7FE0004000C801B7843A91B7A
:10515000083101F0CFFE80B2001980B2F8BDC04620
:10516000743A00201806002010B5484B7E229B5C44
:10517000002B04D1454B02329B5C002B37D0444BB3
:105180001A78072A03D89300424AD3589F46002032
:1051900079E0414B1B88414A1288FA210120FFF730
:1051A000C3FF70E03D4B1B883D4A1288FA21FA206C
:1051B000FFF7BAFF67E03A4B1B883A4A1288FA2099
:1051C000FA214000FFF7B0FF5DE0364B1B88364AFE
:1051D0001288FA213548FFF7A7FF54E0FA20800033
:1051E00051E0FA2080004EE0FA2080004BE0284B8E
:1051F0001A78092A03D893002D4AD3589F460020D5
:1052000041E0254B1B88254A1288A7210120FFF782
:105210008BFF38E0214B1B88214A1288A721A72049
:10522000FFF782FF2FE01E4B1B881E4A1288A72023
:10523000A7214000FFF778FF25E01A4B1B881A4A88
:105240001288FA20A7214000FFF76EFF1BE0164BE3
:105250001B88184A1288A7211748FFF765FF12E03C
:10526000144B1B88154A1288A7211548FFF75CFFCD
:1052700009E0FA20800006E0FA20800003E0FA202E
:10528000800000E00A2010BD0A20FCE7180600207C
:10529000BE3B0020F4940010AE390020B03900204D
:1052A000B2390020B4390020B6390020EE020000E7
:1052B00014950010B83900209B020000BA39002074
:1052C0004203000070B5B24B1888642101F002FE61
:1052D00084B2B04D298804222000FCF734FC2880D9
:1052E000AD4B1B78DBB2012B38D9AC4B00221A70C6
:1052F000AB4C218889B2AB4B18880322FCF723FC06
:105300002080A94B7E229B5C002B05D1A64B02324C
:105310009B5C002B00D172E0A14B1B889BB2A34A7F
:105320001288934225D9A24B07221A70A14B1B78F1
:10533000002B00D1D1E0A04B1A789D4B19788A42FE
:1053400000D1C3E09D480378013303709B4B1B7869
:10535000632B00D8BEE0984B1970C2E08F4A1178D9
:105360004B1CDBB21370142BC2D98E4B1C801170F6
:10537000BEE78B4B1B889BB2914A1288934203D99C
:105380008B4B06221A70D1E7854B1B889BB28D4A46
:105390001288934203D9864B05221A70C6E7804BC8
:1053A0001B889BB2884A1288934203D9804B0422FF
:1053B0001A70BBE77A4B1B889BB2844A12889342CF
:1053C00003D97B4B03221A70B0E7754B1B889BB245
:1053D0007F4A1288934203D9754B02221A70A5E7BF
:1053E0006F4B1B889BB27B4A1288934203D9704B48
:1053F00001221A709AE76E4B00221A7096E7684BEA
:105400001B889BB2744A1288934203D9684B0922C5
:105410001A708BE7624B1B889BB2704A12889342CA
:1054200003D9634B08221A7080E75D4B1B889BB23F
:105430005E4A1288934203D95D4B07221A7075E7C2
:10544000574B1B889BB25E4A1288934203D9584B34
:1054500006221A706AE7524B1B889BB2594A12887F
:10546000934203D9524B05221A705FE74C4B1B88BD
:105470009BB2554A1288934203D94D4B04221A70AD
:1054800054E7474B1B889BB2504A1288934203D97A
:10549000474B03221A7049E7414B1B889BB24C4A89
:1054A0001288934203D9424B02221A703EE73C4BCA
:1054B0001B889BB2474A1288934203D93C4B012276
:1054C0001A7033E73A4B00221A702FE73B4B00204B
:1054D00018703BE7364B1A7003E0374B344A1278AA
:1054E0001A703F4BDB7D022B4CD03E4B1B68642077
:1054F00058433D4B198801F0EDFC80B2FA239B0024
:10550000984200D91800FA239B001B1A9BB2374A15
:105510001380284B1B78002B00D195E0344B1B786F
:10552000002B00D090E0204B84229A5C314B1B78FA
:105530009A4200D883E00133DBB22E490B702E492A
:10554000097800290FD1134908882C490988884215
:1055500009D92649FA2080000880294900200860DE
:105560002549013008702449097800296CD1520876
:10557000934269D31A4BDB7D002B43D01E4B012293
:105580001A7061E0FFF7F0FD184B1880C1E7C046C4
:10559000723A0020703A0020F03D002007070020FA
:1055A000743A0020683A0020180600209439002040
:1055B000BE3B0020F83B0020C03B0020BF3B00204A
:1055C00092390020903900208E3900208C3900203B
:1055D0008A39002088390020983900209639002027
:1055E000303A0020AC3B00204A3A0020663A0020C6
:1055F0005D3C00205C3C0020F23D00209A390020F8
:10560000A03B0020FFF7B0FD02009632124B1B8832
:105610009BB29A4204DB104B1B889633984213DDF1
:105620000D4B18801B88FA208000C01A0B4B1B887A
:105630005843642101F04EFC094B186004E0094B0B
:1056400001221A70084B1A70034B1B889B08DBB2AF
:10565000064AD37370BDC046663A00204A3A00201D
:10566000A03B00205D3C0020F23D0020303A0020AD
:1056700070B5AC4A137801331370AB4A1378013319
:105680001370AA4A137801331370A94A13780133AF
:105690001370A84B1B78002B17D170BDA649C95CAD
:1056A0008A18D2B20133DBB2052BF7D9A24B9B7912
:1056B000DBB293420CD09F4B00221A709A4B1B789E
:1056C000032BEAD99D4B1A70E7E700220023EBE792
:1056D000954B00201870984B5A7801210A40984940
:1056E0000A70597820242140964C21705B78212142
:1056F0008B4395490870102B23D00ED8042B00D172
:10570000A2E0082B03D18D4B042119701CE0022B61
:105710001AD18A4B0221197016E0402B00D18FE07C
:10572000802B11D1894BD6215B5C012B00D18FE0FE
:10573000022B09D1814B04211970834B0339197055
:1057400002E07E4B00211970814B1B78002B03D1A6
:10575000804B7A49097819707D4B01211970002A14
:1057600000D16AE17C4B1B78002B00D024E17B4BFD
:105770001B7C002B04D1714B1B78002B00D01BE14C
:10578000774B1B78002B00D016E1764B1B78002B53
:1057900002D1744B01221A70734B01221A70734BA1
:1057A0001B78002B26D1714B1A70714A1378013384
:1057B000DBB21370032B02D9130001221A706D4B58
:1057C00000221A705D4B1B78012B5DD0042B76D024
:1057D000002B43D0664B1B780133DBB2664A137053
:1057E000664A1370664B01221A70504B00221A70E1
:1057F0004F4B1A704D4B1B78624A11788B420BD27B
:105800004E4B1A78534B1B789A4200D1D7E05E4B2F
:105810001B78002B00D0D2E04F4B01221A70524A65
:1058200000231370514A1370514A1370404A11708B
:10583000464A8421515C3D4A11704F4A1370BEE0C4
:105840003E4B012119707FE73C4B032119707BE728
:105850003A4BD53919703C4B197075E7444B1B789E
:10586000022B09D0032BB5D1484B1A783B4B5A7504
:105870005A7D474B5A71ADE7464B1A78374B1A742D
:105880001A7C434B1A70A5E7394B1B78022B0ED0BC
:10589000032B9FD1404B1A78304B1A75197D3C4A27
:1058A00091713E49097899759B7DD37292E73C4B83
:1058B0001A782A4B5A745A7C354B5A708AE72C4B0B
:1058C0001B78022B15D0032B84D1364B1B78092B68
:1058D0001FD0354B1A78214BDA74DA7C334B1A70AF
:1058E000334B1B780A2B00D074E7224B01221A702D
:1058F00070E72C4B1B78092B00D06BE72A4B1A78EA
:10590000164BDA74DA7C294B1A701A4B01221A7082
:1059100060E7284B1A78114B5A735A7B1C4B5A720A
:10592000DEE7C046843C0020483A0020053C0020C9
:10593000093C00201A3C00204C3C0020FE060020C0
:10594000013C0020823C0020B63B002018060020CD
:10595000F83B0020FF060020063C0020303A0020E3
:105960006C3C00205D3C0020073C00200A3C0020ED
:105970000C3C0020DF3B0020E33B0020E43B002008
:10598000E03B0020DE3B0020BB3B0020BA3B002078
:10599000E83B0020543C00205A3C00206A3C002098
:1059A000603C0020023C0020043C0020F73B00202B
:1059B000033C0020B73B0020B24B01221A70B24BCF
:1059C0001B78B24A127893420DD2B14B1978B14B81
:1059D0001B78994214D0B04B1B78002B10D1AF4BE1
:1059E0001B78002B0CD1AE4900230B70AD490B7016
:1059F000A5490A70AC4A1370AC4A1370AC4A1370D4
:105A0000A94B1B78002B00D191E0AA4B00221A7001
:105A1000A94B1B7C002B03D0A84B1B78002B04D078
:105A20009B4B1B78002B00D081E0994B1A78042AFD
:105A30007AD89300A24AD3589F46924B1B78002BEA
:105A40000ED1974B1B78002BB9D0954A00231370C9
:105A50009C4A13708C4A1370934B01221A70AEE764
:105A6000884B00221A70AAE78E4B1B78022B10D0AD
:105A7000032B1BD0012B57D18F4A117C924B1970ED
:105A8000137C59424B41DBB21374127C8F4B1A705A
:105A90004AE0894A517D8E4B1970537D59424B41E2
:105AA000DBB25375527D894B5A713DE000F0A8FD81
:105AB0003AE07C4B1B78022B10D0032B1BD0012B20
:105AC00032D17D4A517C834B1970537C59424B41F2
:105AD000DBB25374527C7D4B5A7025E0764A117DBF
:105AE0007D4B1970137D59424B41DBB21375127D0A
:105AF000764B9A7118E0704A917D784B1970937DBE
:105B000059424B41DBB29375927D704BDA720BE0D8
:105B1000644B1B78022B29D0032B2BD0012B21D0D7
:105B2000654B9A7C6E4B1A70604B01221A706D4B5C
:105B30007E229B5A002B05D16A4B57329B5C002B6F
:105B400000D1E2E0564B1B78002B00D184E04E4B95
:105B50001A78654B1B789A4200D2D6E0544B00224B
:105B60001A70D2E0544B01229A74D9E7524B0222A8
:105B70009A74D5E7504B03229A74D1E7494B1B78AE
:105B8000022B0CD0032B0ED0012B04D04A4B9A7C55
:105B9000534B1A70C8E7484B04229A74F6E7464BF9
:105BA00005229A74F2E7444B06229A74EEE73D4BC5
:105BB0001B78022B1CD0032B37D0012B04D03E4B7B
:105BC000DA7C4A4B1A70AFE73B4BD97C484A1170DC
:105BD000DB7CDBB2434A6D21525C934202D0364BF0
:105BE000DA74ECE73F4B6F229A5C334BDA74E6E7EA
:105BF000404B1B78092B08D03A4B70229A5C2E4BF5
:105C0000DA74DA7C3A4B1A70D9E72B4A517B3A4B5B
:105C10001970537B59424B41DBB25373527B2B4B70
:105C20005A72244B01221A70C9E7344B1B780A2B95
:105C300005D02C4B71229A5C1F4BDA74BFE71E4AC9
:105C4000937B59424B41DBB29373927B1F4B9A7308
:105C5000184B01221A70B2E70B4B1978214B8422A2
:105C60009A5C214B1B78D31A99424BDB914249D263
:105C70000C4B1B78002B45D00D4B214A12781A7023
:105C800043E0C046063C0020093C0020DE3B0020EB
:105C9000FE060020FF0600206C3C0020BB3B0020DD
:105CA0000A3C00200C3C00200B3C0020E03B002084
:105CB000E33B0020DF3B0020303A0020B63B0020D1
:105CC0003C950010073C0020543C0020E83B00209D
:105CD000BA3B0020603C00205A3C00206A3C002077
:105CE000F93B002018060020A2390020F73B0020D5
:105CF000043C0020023C0020B73B0020033C002075
:105D0000E43B0020C74B00221A70C74B00221A70D8
:105D1000C64B9B7C082B2BD0C54B1B78002B04D08B
:105D2000C44A1278002A00D10EE1002B00D121E1F3
:105D3000C04A1278002A00D11CE1BC4A127C002A19
:105D400000D117E1BC4A1278002A00D012E1BB4B07
:105D500001321A70BA4B1A70B44B9B7C082B03D0DB
:105D6000B24B9A7CB74B1A70B04B08229A7404E27B
:105D7000B14B1B78002B17D0B24B1A78AB4B9A74EF
:105D8000AE4A00231370AE4A1370AF4A1370AF4A85
:105D90001370AF4A1370AF4A1370AF4A1370AF4B12
:105DA000AF4A12781A70E8E1AC4B00221A70AA4B85
:105DB00001321A70A54B1B78002B4AD0A54B1A70E4
:105DC0009B4B1B78002B02D1A64A01211170002B9E
:105DD00007D0A44B1B78002B03D0A34B01221A70D1
:105DE00016E0A14B1B78002B0FD0A04B1C78200194
:105DF000201840008D4D297BC9B201F07BF89C4BE7
:105E000018702C73974B00221A70974B00221A704F
:105E1000984A13780133DBB21370974A8421525C9D
:105E20005208934207D3934B00221A70934A137877
:105E300059424B411370914B1B78002B04D0904B6F
:105E40008B4A12781A7098E1784B1A7B8C4B1A7037
:105E500093E17D4B1B78002B4ED08A4B1D888A4BDB
:105E60001C882A1B93009B181801C01A642101F09A
:105E700041F881B2611889B2091B844801F03AF8EF
:105E8000C0B26A4B1873824A222111700122DA7261
:105E900000229A757F4A13780133DBB21370764A79
:105EA0006231525C5208934207D37A4B00221A7037
:105EB000794A137859424B411370774B1B78002B6A
:105EC00017D0764B1C805A4B1B78002B02D1654AA9
:105ED00001211170002B00D14FE1624B1B78002B88
:105EE00000D14AE15F4B00221A70584B01321A7000
:105EF00043E16A4B1D80E6E7514B1B78002B00D134
:105F00003BE1534B01221A70654B1B88634A138097
:105F10005C4A1288934201D95A4A1380444B1A783A
:105F2000002A02D14F4B01211970002A00D124E12F
:105F30004C4B1B78002B00D11FE14A4B00221A70FA
:105F4000414B01321A7018E1FFF70EF9554B1880DA
:105F50001B88FA208000C01A534B1B8858436421C9
:105F600000F0B8FF514B1860514B01221A703A4BA8
:105F70001A7002E12D4A927C062A1BD02E4A127812
:105F8000002A00D1F4E03C498820095C002922D095
:105F9000002B1DD027490978002919D045490978D7
:105FA000002915D144490978002911D0434987387F
:105FB000087010E0002B07D01E4B1B78002B03D07D
:105FC0003F4B053A1A70D8E03D4B00221A70D4E0DE
:105FD0003A490020087028496420095C002900D152
:105FE000CBE0002B70D0134B1B78002B6CD0334BC5
:105FF0001B78002B68D10D4B5B7CDBB23149CB5C4D
:10600000002B61D02B4B1B78002B00D0B5E0294B27
:1060100001221A70054B997C0A4A117007229A7462
:10602000ABE0C046E33B00200B3C0020303A0020B0
:10603000823C00205D3C0020FE0600206C3C0020DD
:106040006D3C0020483C00206E3C00206F3C00204E
:10605000FB3B0020FA3B0020E03B0020093C0020F5
:10606000DE3B0020833C0020703C0020143C0020DC
:10607000133C0020713C002018060020723C0020D8
:10608000733C0020583A00205C3A0020A80F000022
:10609000183C0020743C0020753C00207C3B002014
:1060A0004E3A0020663A00204A3A0020A03B0020E9
:1060B000E13B00208A3C0020063C0020583C0020A8
:1060C000C73B0020883C0020B54BAF215B5C002B18
:1060D00040D0B34B4A395B5C002B3BD0B14B1B78B3
:1060E000002B4AD0B04B1B78002B07D1AE4B643944
:1060F0001970AE4B00211970AD4B1A70A84BB0212E
:10610000595CAA4B1B78994218D9A94B1B789A4223
:106110000BD0A84B1A78A84B9A74A24A002313708C
:10612000A14A1370A54A137027E0A54B1B78002BDA
:10613000EFD1A14B5B7C002B1FD0EAE79D4B1A7877
:106140009D4B9A74974A00231370974A13709B4A89
:10615000137012E0934B1B78002B03D0954B1A78E9
:10616000954B9A748F4B00221A70944B1A7004E06E
:10617000944B00221A708B4B1A708F4B9A7C013A09
:10618000914B1C78914B91008A189B18185D904B8D
:106190001870834BD6229B5C002B0CD08D4B1B7848
:1061A000002B08D07E4B063A9B5C5843642100F0DC
:1061B00091FE874B1870804B5B7D002B6FD0864B18
:1061C0001B78002B60D0854B1B78002B5CD1844B57
:1061D0001B78002B58D0834B1B78002B54D1824B5B
:1061E0001B78002B13D1804A013313707F4A137040
:1061F0007F4A13707F4B00221A707F4B1A707F4BBF
:106200001C707F4B1B78002B28D07E4A13707A4B72
:106210001B787B4AD25C002A02D1764A0021117099
:106220005A1C794909788A4224DA724A1178754AE7
:106230001278043A914203DA704A127894422ED0CE
:106240006C4A002111700133DBB26B4A13706C4A47
:10625000D35C002B08D06B4A137020E0504B842293
:106260009A5C684B1A70D2E74D4B84229A5C654B5E
:106270001A7014E05F4B1A78624B1B789A420ED367
:106280005A4B00221A700AE0574B1B78002B06D09D
:10629000554A00231370554A1370554A1370574BD3
:1062A0001C703F4B63229B5C002B0AD04A4B1B782F
:1062B000002B03D1554B1B78002B4BD0544B0122A4
:1062C0001A70544BDB78DBB2534A1370344AB9214D
:1062D000525C002A42D0514AE12189004B4313808D
:1062E0002F4B83229B5C002B09D04A4B5B79DBB29E
:1062F0004B4A13705278934201D2494A53702E4B45
:106300009B7C072B03D02F4B1B78002B2BD0244BCF
:10631000AE22985C0A2100F0DDFDC0B2264B9872D7
:10632000254C627C3F4B9200D0583F4B198800F0BF
:10633000D1FDC1B23D4B19703D4B1878FBF7FDFB09
:106340003C4B1870A37DDBB23B4AD25C3B4B1A70CE
:10635000FFF7B1F92E4B00221A70B2E72F4A3849E5
:106360004B431380BCE7144B5B7CDBB2354AD35CF8
:10637000022B06D0104A537CDBB22949CB5C9372C6
:10638000CEE7314B1B78002BF4D0054BAE22985C46
:106390000A2100F09FFDC0B2074B9872C0E7C046CB
:1063A000180600208A3C0020853C0020843C002008
:1063B0008B3C0020483C0020303A00208C3C0020E0
:1063C000FC3D0020583C0020FE060020203C002020
:1063D0001D3C0020B63B0020063C00200C3C002069
:1063E0005D3C00206C3C0020BB3B0020BC3B0020FF
:1063F000E03B0020093C0020CE3B0020FF060020AF
:10640000D83B0020DE3B0020B93B0020073C0020A9
:10641000083C00204C3C0020103C00207C3A00202E
:10642000903C00208C3B0020723A0020B13B0020C1
:10643000B03B0020FC060020183C0020153C00204A
:106440009B050000683C0020643C002010B52D4BEB
:106450001B889BB22C4A934204D82A4B1B889BB2C0
:10646000092B26D8294B00221A80FCF7DBFBFDF70D
:1064700089FAFCF7FFFB264B187800010A2100F08F
:1064800029FD244B1870FEF727F8234B1A78511C6E
:10649000197003231340022B30D013D8002B18D0CF
:1064A000012B18D1FDF7E6FAFCF722FDFCF78CFD75
:1064B00011E0144B198889B2184800F00BFD134BFA
:1064C0001880D2E7032B06D1FCF7ECFBFEF7FAFEAF
:1064D00001E0FFF7CDF8FDF7CDFC114B9978114A9B
:1064E0001180D978104A11801979104A1180597990
:1064F0000F4A11809A790F4B1A8010BDFEF738F9B8
:10650000E9E7C04616070020FFEF0000843A0020AC
:10651000F03D0020BD3B0020C43B002090D0030094
:10652000F43D0020C0390020C2390020C4390020C9
:10653000C6390020C839002030B589B0202200219A
:10654000684602F03DFE2A4B1A682A4B9A4240D018
:10655000294B284A1A60294A2221515C19712A21A3
:10656000515C880009184800D8806021515A19816F
:106570006221515C99720021D972107E1873907D4E
:1065800058739973D9736931515C19746821515CDE
:1065900059746E21515C99746D21515CD9746B21D1
:1065A000515C19758721515C5975C321515CD975AE
:1065B0006C21525C9A7569460A00180038C838C2C6
:1065C00038C838C200230222094800F0ABF909B0EC
:1065D00030BD6C4602222100054800F0D7F906497B
:1065E0000B00220031CA31C313CA13C3EFE7C04600
:1065F00000FF0010DDAA0000303A0020180600203D
:1066000030B589B06C4620220021200002F0D8FD70
:10661000074B2200190029C929C229C929C2002310
:1066200002222100034800F07DF909B030BDC046C8
:10663000303A002000FF001010B54A4B00E0013B4B
:10664000002BFCD1FBF722FA002800D001BEA021CC
:10665000C9050B68444803408022920013430B6035
:1066600042490B6803401A430A60FAF7CFFD00F075
:106670002BFAFBF761FEFBF78FFAFFF75DFFFDF7E3
:10668000F1FD3B4B1B7942333A4A13703A4B0024DD
:106690001C7000F0B1F8394B1C70394B01229A6024
:1066A000384B00E0013B002BFCD1374BC622920057
:1066B0009858364908408021C901014399508021EA
:1066C000890419609858324908408021C903014360
:1066D00099508022D2041A60A023DB050F22DA60D1
:1066E0002C4A116B80235B000B431363254B00E0A6
:1066F000013B002BFCD1284B5A6801210A435A6008
:10670000264A9A60264B1B6F9BB2264A1380264A64
:1067100013800FE0FDF7E4FF13E024490B68013319
:106720000B60214B1A801F4B1B88D31A9BB2204948
:106730008B4211D8184B194A9A601E4B1B78002BBC
:10674000E8D0154B154A9A60154B1A6F92B2164B4A
:106750001B889342E7D9E0E7124B1A80FFF776FED9
:10676000E8E7C046804F1200FFFCFFFF000004482E
:1067700018060020B03D0020923C00200B070020AE
:1067800000000150C0D4010000E100E0FF00FFFF65
:10679000FFFF00FF0000014000000240FECAADAB59
:1067A00000020448943C0020963C0020983C0020C5
:1067B0006A1800001A3C00200323034A1361034AAD
:1067C0001361034A1361704700010050000200503A
:1067D0000003005010B5054B1A78054B1A70054B95
:1067E00000221A70FFF7E8FF10BDC046A439002050
:1067F000613C00200607002070B500F046F80A4909
:106800004A6A920801231340084A13704D6A022411
:106810002C40234313704C6AA400042121400B43F5
:10682000137000F036F870BD00010440AC3D00204C
:1068300010B5FFF7E1FF0D4B196B802252000A43A0
:106840001A631A6B0A490A401A6309E0074B196B6D
:10685000802252000A431A631A6B05490A401A63E0
:10686000044B9B68DB07F1D510BDC046000001401A
:10687000FFFEFFFF000100500230800803D0013806
:10688000FDD1C046C046C0467047EFF3108072B6D7
:10689000704780F310887047064B1A8980214901A0
:1068A0000A431A8148215A5A8020000102435A5251
:1068B0007047C0460000054010B50D4A13681B0A1A
:1068C000FF210B400B480360126811400A4A116017
:1068D000002B08D01B02C918084800F0FBFA400042
:1068E000074B186010BD064B064A1A60FAE7C0460F
:1068F00000030140143E0020103E0020000024F45C
:10690000FC3F00200048E80110B5FFF7C5FFFBF78A
:10691000AFF810BD70470000014B188880B2704777
:1069200000000540F8B504000D001700164A9188D4
:10693000FF20814391809188C02080010143918094
:10694000002B06D0938861210B439BB293800026D5
:106950000BE00D4A9388A1210B439BB29380F6E78D
:10696000FFF7DAFFC007FBD40136BE4206D2002390
:10697000032BF5D802CD02C40133F9E7024A93880C
:10698000FF218B439380F8BD0000054030B5002502
:1069900005E010C810C10133032BFAD90135954227
:1069A00001D20023F8E730BDF0B5C64600B58B082C
:1069B000984604339B001E5803250D40ED00F82730
:1069C000AF40BE431E50436F4F000326BE40B3434B
:1069D0004367CB0810339B001F5807260E40B600B4
:1069E0000424B440A7431F501F585478B4402600D5
:1069F0003E431E500D4B98420ED00023D356002B21
:106A000010DB434604339B0019581278AA400A430E
:106A10001A5080BCB846F0BD036E01268E40B343C9
:106A20000366EAE753688B404360EAE700020440EC
:106A300010B50C000DE0800808490B68084A1340A7
:106A400002021343074A13430B60044B1B685B00AD
:106A5000FBD4A3008342EED310BDC0460003014027
:106A6000FF000FC00000F03F30B50C000EE0012227
:106A700090000A490B680A4D2B4092021343094AC1
:106A800013430B60054B1B685B00FBD48300A342E0
:106A900003D20028EBD00200EAE730BD000301403A
:106AA000FF000FC00000F03F014BC3225A62704745
:106AB00000000140034BC0225A62024B5B6A5B0735
:106AC000FBD4704700000140034A938C01210B4323
:106AD0009BB293847047C0460010014010B58623D6
