:020000041000EA
:10100000480500201910001000000000A310001077
:1010100000040100000100001249134A134B00F0C4
:101020001AF8134880471349134A144B00F013F879
:101030001349144A144B00F00EF81449144A0020C6
:10104000521A02DD043A8850FCDC124880471248EC
:101050008047124880479B1A03DD043BC858D05094
:10106000FBDC7047109A00100C00002044010020A7
:10107000516A0010489B0010480500205C060020C3
:101080005C9C001060060020B00E0020B00E002016
:10109000BC160020A1100010F992001099660010F3
:1010A0007047FEE70269C3689A4204D88068C01A94
:1010B000801801387047D01A0138FBE7F8B5CE46E2
:1010C000474680B504000E001700C568836899463E
:1010D0005B1B9846934209D94068401908F030F9E3
:1010E000ED19E560C0BCB946B046F8BD406840198E
:1010F0001A0008F025F94B46ED1AED196068310029
:1011000041442A0008F01CF9E560EBE7F8B5CE464B
:10111000474680B5060088461700C46800239946F4
:1011200014E0B2681B1BD218013A14E07068001971
:101130002A00414608F004F9A944A8447F1B641919
:10114000B368A34211D0F460002F10D033699C42E1
:10115000E7D21A1B013AB3681B1B934200D9130054
:101160003D009F42E2D91D00E0E70024EBE748463E
:10117000C0BCB946B046F8BD10B5134CA82200213A
:10118000200008F0B1F80323236163610F4AA261D4
:101190000F4BE3618023DB0023620023A3626362C1
:1011A000E36222660B4A62661022A2662367E36648
:1011B000636706E00F22D21A0749895C024AD154BC
:1011C00001330F2BF6D910BDB00E00206093001034
:1011D000680F0020580F00206C930010F8B5030032
:1011E0000F001600421C5400A418E400174AA4186B
:1011F0004000C018C0001218D56A012D12D0022D6F
:101200001DD0002D02D000252800F8BD2000FFF7DA
:1012100049FF8642F8D8320039002000FFF74EFF20
:101220003500F1E72000FFF73DFF3500864200D989
:1012300005002A0039002000FFF740FFE4E73200F4
:101240002000FFF763FF0500DEE7C046B00E002078
:10125000F8B504000D001600094B1B78532B0CD178
:10126000EFF31087012181F310883200290020005C
:10127000FFF7B4FF87F31088F8BDFFF77DFFEFE7B6
:10128000B00E002070B505000C00080008F061F8F1
:10129000020021002800FFF7DBFF70BDF0B583B02E
:1012A00004000F0016000193184B1B78532B26D116
:1012B000022C27D8EFF31083012181F31088190045
:1012C000002C10D0114A601C43001D18ED00AF50D7
:1012D00053195E6063001B19DB00D318019A1A6270
:1012E00000229A625A62094B62001219D2009B18BE
:1012F000089ADA6281F31088002003B0F0BDFFF78E
:101300003BFFD5E701204042F7E7C046B00E002082
:1013100010B5FFF731FF10BD10B500F007F800F071
:10132000A1FB10BD10B5FFF7F7FF10BDF0B5DE460D
:1013300057464E464546E0B585B0FE4C002120009C
:1013400005F0F4FC80235B009946E360FA49FB4F0B
:10135000380005F005FD02239B46FB6304267E63EF
:101360008021C904200005F0F3FC07232361F44A1F
:101370000121380005F035FDF24A0221380005F060
:1013800030FDF14A0321380005F02BFD0122012137
:10139000380005F00BFD01220221380005F054FD54
:1013A000A4257B5933437B5101218A46E160002605
:1013B0003E67F960E549E64F380005F0E8FCE54B8B
:1013C0007B6380210905200005F0C2FC70212161AA
:1013D000E14A6F39380005F004FDE04A0221380087
:1013E00005F0FFFCDE4A0321380005F0FAFC01227B
:1013F0000121380005F0DAFC0121380005F0EAFC93
:1014000000220821380005F01FFD7B594A4613438E
:101410007B515A46E2603E675246FA60D149D24F4C
:10142000B846380005F09CFCFE63D04B7B638021FE
:101430004905200005F08CFCE027FF002761CC4A1D
:101440000121404605F0CDFCCA4A0221404605F084
:10145000C8FCC94A0321404605F0C3FC0423E360ED
:10146000424616675146D160C449C54A90461000AD
:1014700005F076FCA0234246D363C24B5363802120
:101480008905200005F064FCE022D2012261BE4AF9
:101490000121404605F0A5FCBC4A0221404605F06A
:1014A000A0FCBB4A0321404605F09BFC0821E160FB
:1014B000444626675746E760A024E4050021200043
:1014C00005F0EEFC4F46E760B249B34F380005F037
:1014D000F9FCD22292009046FA637E64D222D200B6
:1014E00091461100380005F058FD8021C904200004
:1014F00005F003FD07222261A84A0121380005F00A
:1015000019FDA74A0221380005F014FDA54A032160
:10151000380005F00FFD01220121380005F0F6FC2E
:101520005346E360A049380005F05EFD3E679F49E1
:101530009F4F380005F0C6FC4346FB637E64494676
:10154000380005F02AFD80210905200005F0D5FCB2
:1015500070202061974A0121380005F0EBFC964A83
:101560000221380005F0E6FC944A0321380005F01A
:10157000E1FC01220121380005F0C8FC5846E0607A
:101580008F49380005F030FD3E678E498E4F380098
:1015900005F098FC4046F8637E644946380005F043
:1015A000FCFC80214905200005F0A7FCE020C000DC
:1015B0002061864A0121380005F0BCFC844A0221E2
:1015C000380005F0B7FC834A0321380005F0B2FC6F
:1015D00001220121380005F099FC0423E3607E49D3
:1015E000380005F001FD3E677C497D4F380005F06D
:1015F00069FC4346FB637B644946380005F0CDFC3B
:1016000080218905200005F078FCE020C0012061E0
:10161000744A0121380005F08DFC734A022138001C
:1016200005F088FC714A0321380005F083FC012293
:101630000121380005F06AFC03220021380005F082
:10164000AFFC02220121380005F0AAFC002204218F
:10165000380005F0A5FC01220321380005F0A0FCAC
:101660007B59504603437B517B59584603437B517A
:101670007B59102213437B517B5908210B437B512B
:10168000E1603E675A4C200005F0E2FC236803212C
:1016900089468B4323605749200005F0E5FC5649F5
:1016A000200005F0EBFC5549554C0022200005F0C8
:1016B000F1FCE36950229343E361E369493A9343C0
:1016C0004A461343E361E26B4E4B1A4080231B01F1
:1016D0001343E3634C4B2361953D029501960096BD
:1016E0003A2300220021200005F0D4FD1F2305220B
:1016F0000021200005F0FEFD1F23052220212000EF
:1017000005F0E2FD236CAB435A46134323643F4C80
:10171000666022791F231A4322713D4A9046566023
:1017200012791A4341460A71A660227A1A4322723C
:101730008E606FE000000448DC9300100001044854
:10174000E4930010E8930010EC930010F89300105D
:1017500000020448FEFF00000094001004940010F2
:1017600008940010B494001000030448FFFF000028
:10177000BC940010C0940010C4940010A0940010F9
:1017800000040448FF040000A8940010AC9400106A
:10179000B09400100C940010000100502894001028
:1017A0002C940010309400101C94001034940010FD
:1017B00000020050509400105494001058940010EF
:1017C000449400105C9400100003005078940010C2
:1017D0007C940010809400106C940010849400108D
:1017E0000004005094940010989400109C940010F1
:1017F00000000150F4930010F0930010809300104B
:1018000000020048FFE0FFFF218100006813002074
:101810007C1300200A7A13430B727D497D4F3800F8
:1018200005F0B6FD7C4D2100280005F01DFE7B4C27
:101830004146200005F018FE0321280005F054FE63
:101840000321200005F050FE8023FA5874490A4015
:10185000FA50FA5873490A40FA50380005F0B4FDBE
:1018600081239B00FA5849468A43FA50FA58514658
:101870000A43FA506C49380005F03EFE82235B00B3
:101880009846EB584A4693434246AB50AB585246B3
:1018900013434246AB500021280005F0C1FE012150
:1018A000280005F0BDFE0221280005F0B9FE032145
:1018B000280005F0B5FE5D49280005F079FE5C4B77
:1018C0001F68002300223900280005F0A1FD002335
:1018D00001223900280005F09BFD564B1F680123AB
:1018E00000223900280005F093FD01230122390070
:1018F000280005F08DFDAF239B009B46F0235B0382
:101900005A46AB50A2239B00EE5088277F0021232C
:10191000EB51EB51EB51EB51EB51EB512722EA51DB
:10192000EB51454A0121280005F084FE434A072176
:10193000280005F07FFE4346E35849468B43414665
:101940006350635851460B434146635000212000C9
:1019500005F066FE0121200005F062FE0221200054
:1019600005F05EFE0321200005F05AFE34492000F8
:1019700005F01EFE334B1D680023002229002000C5
:1019800005F046FD002301222900200005F040FD5E
:101990002D4B1D68012300222900200005F038FD91
:1019A000012301222900200005F032FD274B594672
:1019B0006350A4239B00E6500433E6502023E351F8
:1019C000E3512722E251E351E351013AE251E3515D
:1019D000E3511F4A0021200005F02CFE1D4A06217C
:1019E000200005F027FE1C4A0721200005F022FEFA
:1019F0001A4805F05FFE1A4A536851460B4353607C
:101A000005B0F0BCBB46B246A946A046F0BDC046F4
:101A1000E494001000000348000403480008034851
:101A2000FFFFFEFFFFFFFDFFD8940010FC940010A5
:101A3000C8940010CC9400108C9300109C9300105C
:101A400008950010D0940010D494001000001E805F
:101A5000AC930010BC930010CC93001014950010B0
:101A60000000024010B57F4A7F4C0021200005F0A5
:101A70003FF800220021200005F0BDFA7B4A0A2130
:101A8000200005F035F800220A21200005F0B3FA05
:101A9000774A0D21200005F02BF800220D212000AF
:101AA00005F0A9FA734A0121200005F021F800226F
:101AB0000121200005F09FFA6F4A0221200005F065
:101AC00017F800220221200005F095FA6B4A032145
:101AD000200005F00DF800220321200005F08BFA0C
:101AE000674A0421200005F003F8002204212000A9
:101AF00005F081FA634A0521200004F0F9FF002275
:101B00000521200005F077FA5F4A0621200004F045
:101B1000EFFF00220621200005F06DFA5B4A072145
:101B2000200004F0E5FF00220721200005F063FA01
:101B3000574A0821200004F0DBFF00220821200082
:101B400005F059FA534A0921200004F0D1FF002280
:101B50000921200005F04FFA4F4A504C0021200087
:101B600004F0C6FF00220021200005F044FA4C4A90
:101B70000121200004F0BCFF00220121200005F01B
:101B80003AFA484A0221200004F0B2FF0022022162
:101B9000200005F030FA444A0321200004F0A8FF99
:101BA00000220321200005F026FA404A05212000EA
:101BB00004F09EFF00220521200005F01CFA3C4A9B
:101BC0003C4C0A21200004F093FF00220A2120004F
:101BD00005F011FA384A0B21200004F089FF002299
:101BE0000B21200005F007FA344A0221200004F0FE
:101BF0007FFF00220221200005F0FDF9304A042178
:101C0000200004F075FF00220421200005F0F3F904
:101C10002C4A0521200004F06BFF00220521200042
:101C200005F0E9F9284A0621200004F061FF0022AE
:101C30000621200005F0DFF9244A0821200004F0E5
:101C400057FF00220821200005F0D5F9204A09217C
:101C5000200004F04DFF00220921200005F0CBF9FF
:101C600010BDC04698950010000004405895001023
:101C700080950010A0950010A8950010B095001058
:101C80008895001078950010509500104895001028
:101C9000B8950010C0950010709500100001044028
:101CA0006895001060950010C89500109095001080
:101CB000389500100002044040950010D89500109F
:101CC00020950010D0950010E09500102895001088
:101CD0003095001030B585B001A8044B020032CB1E
:101CE00032C204F0F9FF05B030BDC046E8950010DF
:101CF00010B5FFF717FB002010BD70B505000E00F2
:101D00001C0004AB18888D421FD395421ED2521A74
:101D100091B2A0420CD2AE1BB6B2201A80B2704370
:101D20004B08C01805F074F980B2201A80B20DE09B
:101D3000AD1BADB2001B80B268434B08C01805F064
:101D400067F980B2001980B200E0200070BD70B564
:101D50001D0004AB1B7888421DD990421DD2AB42B6
:101D60000CD2441AE4B2E81AC0B26043511AC9B2A4
:101D700005F05EF9C0B2281AC0B20DE0441AE4B210
:101D8000581BC0B26043511AC9B205F051F9C0B234
:101D90004019C0B200E0280070BD1800FCE7030045
:101DA00008008B4200D21800704770B505000C0087
:101DB0000A2A15D80A20801A68434A438018053039
:101DC0000A2105F025F980B284420AD1854202D960
:101DD000013080B205E0854203D2013880B200E0D4
:101DE000002070BD002803D0044B20225A607047A9
:101DF000024B802292035A60F9E7C046000104407A
:101E000010B5CD4B1B88CD4A1288934200D02FE3EA
:101E1000CA4C2380CA4B1B886380CA4B1B88A38093
:101E2000C94B1B88E380C94B1B882381C84B1B8887
:101E30006381C84B1B88A381C74B1B88E381C74BB9
:101E40001B882382C64B1B886382C64B1B88A382D8
:101E5000C54B1B88A375C54B1B88E375C44B1B88FA
:101E60002376C44B1B886376C34B1B88A376C34B76
:101E70001B88A383C24B1B88E383C24B1A88202391
:101E8000E254C14B1A882123E254C04B1A88222302
:101E9000E254BF4B1A882323E254BE4B1A882423F2
:101EA000E254BD4B1B88E384BC4B1B882385BC4B91
:101EB0001A882A23E254BB4B1A882B23E254BA4BCC
:101EC0001A882C23E254B94B1A882D23E254B84BBC
:101ED0001A882E23E254B74B188806F093F9B649B6
:101EE00005F066FC2063B54B188806F08BF9B24903
:101EF00005F05EFC6063B24B188806F083F9AE49CA
:101F000005F056FCA063AF4B188806F07BF9AA4990
:101F100005F04EFCE063AC4B188806F073F9A64957
:101F200005F046FC2064A94B188806F06BF9A2491D
:101F300005F03EFC6064A64B188806F063F99E49E4
:101F400005F036FCA064A34B188806F05BF99A49AB
:101F500005F02EFCE064A04B188806F053F9964972
:101F600005F026FC20659D4B188806F04BF9924938
:101F700005F01EFC60659A4B188806F043F98E49FF
:101F800005F016FCA065974B188806F03BF98A49C6
:101F900005F00EFCE065944B1A886023E252934BE7
:101FA0001A886223E254924B1A886323E254914BBD
:101FB0001A886423E254904B1A886523E2548F4BAD
:101FC0001A886623E2548E4B1A886723E2548D4B9D
:101FD0001A886823E2548C4B1A886923E2548B4B8D
:101FE0001A886A23E2548A4B1A886B23E254894B7D
:101FF0001A886C23E254884B1A886D23E254874B6D
:102000001A886E23E254864B1A886F23E254854B5C
:102010001A887023E254844B1A887123E254834B4C
:102020001A887223E254824B1A887423E252814B3D
:102030001A887623E254804B1A887723E2547F4B28
:102040001A887823E2547E4B1A887923E2547D4B18
:102050001A887A23E2547C4B1A887B23E2547B4B08
:102060001A887C23E2547A4B1A887D23E254794BF8
:102070001A887E23E254784B1A887F23E254774BE8
:102080001A888023E254764B1A888123E254754BD8
:102090001A888223E254744B1A888323E254734BC8
:1020A0001A888423E254724B1A888523E254714BB8
:1020B0001A888623E254704B1A888723E2546F4BA8
:1020C0001A888823E2546E4B1A888923E2546D4B98
:1020D0001A888A23E2546C4B1A888B23E2546B4B88
:1020E0001A888C23E2546A4B1A888D23E254694B78
:1020F0001A888E23E254684B1A888F23E254674B68
:102100001A889023E254664B1A889123E254654B57
:102110001A889223E254644B1A889323E254634B47
:102120001A889423E254624B1A889623E252614B38
:102130001A889823E252BFE000F000104805002002
:1021400002F0001004F0001006F0001008F000107B
:102150000AF000100CF000100EF0001010F000104B
:1021600012F0001014F0001016F0001018F000101B
:102170001AF000101CF000101EF0001020F00010EB
:1021800022F0001024F0001026F0001028F00010BB
:102190002AF000102CF000102EF0001030F000108B
:1021A00032F0001034F0001036F0001038F000105B
:1021B0003AF000103CF000100000C8423EF0001061
:1021C00040F0001042F0001044F0001046F0001003
:1021D00048F000104AF000104CF000104EF00010D3
:1021E00050F0001052F0001054F0001056F00010A3
:1021F00058F000105AF000105CF000105EF0001073
:1022000060F0001062F0001064F0001066F0001042
:1022100068F000106AF000106CF000106EF0001012
:1022200070F0001072F0001074F0001076F00010E2
:1022300078F000107AF000107CF000107EF00010B2
:1022400080F0001082F0001084F0001086F0001082
:1022500088F000108AF000108CF000108EF0001052
:1022600090F0001092F0001094F0001096F0001022
:1022700098F000109AF000109CF000109EF00010F2
:10228000A0F00010A2F00010A4F00010A6F00010C2
:10229000A8F00010AAF00010ACF00010AEF0001092
:1022A000B0F00010B2F00010B4F00010B6F0001062
:1022B000B8F00010BAF000106E4B1A889A23E25260
:1022C0006D4B1A889C23E2526C4B1A889E23E25471
:1022D0006B4B1A889F23E2546A4B1A88A023E2545E
:1022E000694B1A88A123E254684B1A88A223E2544E
:1022F000674B1A88A323E254664B1A88A423E2543E
:10230000654B1A88A523E254644B1A88A623E2542D
:10231000634B1A88A723E254624B1A88A823E2541D
:10232000614B1A88A923E254604B1A88AA23E2540D
:102330005F4B1A88AB23E2545E4B1A88AC23E254FD
:102340005D4B1A88AD23E2545C4B1A88AE23E254ED
:102350005B4B1A88AF23E2545A4B1A88B023E254DD
:10236000594B1A88B123E254584B1A88B223E254CD
:10237000574B1A88B323E254564B1A88B423E254BD
:10238000554B1A88B523E254544B1A88B623E254AD
:10239000534B1A88B723E254524B1A88B823E2549D
:1023A000514B1A88B923E254504B1A88BA23E2548D
:1023B0004F4B1A88BB23E2544E4B1A88BC23E2547D
:1023C0004D4B1A88BD23E2544C4B1A88BE23E2546D
:1023D0004B4B1A88BF23E2544A4B1A88C023E2545D
:1023E000494B1A88C123E254484B1A88C223E2544D
:1023F000474B1A88C323E254464B1A88C423E2543D
:10240000454B1A88C523E254444B1A88C623E2542C
:10241000434B1A88C723E254424B1A88C823E2541C
:10242000414B1A88C923E254404B1A88CA23E2540C
:102430003F4B1A88CB23E2543E4B1A88CC23E254FC
:102440003D4B1A88CD23E2543C4B1A88CE23E254EC
:102450003B4B1A88CF23E2543A4B1A88D023E254DC
:10246000394B1A88D123E254384B1A88D223E254CC
:1024700010BDC046BCF00010BEF00010C0F000104F
:10248000C2F00010C4F00010C6F00010C8F0001038
:10249000CAF00010CCF00010CEF00010D0F0001008
:1024A000D2F00010D4F00010D6F00010D8F00010D8
:1024B000DAF00010DCF00010DEF00010E0F00010A8
:1024C000E2F00010E4F00010E6F00010E8F0001078
:1024D000EAF00010ECF00010EEF00010F0F0001048
:1024E000F2F00010F4F00010F6F00010F8F0001018
:1024F000FAF00010FCF00010FEF0001000F10010E7
:1025000002F1001004F1001006F1001008F10010B3
:102510000AF100100CF100100EF1001010F1001083
:1025200012F1001014F1001016F1001018F1001053
:102530001AF100101CF100101EF1001020F1001023
:1025400022F1001024F1001026F1001028F10010F3
:10255000F0B5DE4657464E464546E0B589B0FFF732
:102560004FFCF94C228D01922E23E05C50436421F4
:1025700004F04EFDF54B1880A27EF54B1A70A58B2A
:10258000B723E35C9A46ED1AADB2F24B1D80F24BD5
:10259000A0221A80A37D0293002B00D1C7E268001D
:1025A00040194000A02104F043FD0130EB4B18809E
:1025B000A80040198000A02104F03AFD0130E84B4A
:1025C0001880BF22A05C6843A02104F031FD0130D7
:1025D000E44B1880E14B1B889946E14B1C88640052
:1025E0004B46E41AA4B2E41AA4B2DF4B1C802900C3
:1025F000FA20400104F01CFDDC4B1880DC4B50221B
:102600001A80D14EC023F75C6437B800C0190001AE
:10261000642104F00DFD85B2D64B1D80D64B782287
:1026200090461A803801C01B8000642104F000FD30
:10263000070043464A469B1ACA4A10888046984477
:102640002001001BC000A02104F0F2FC4346181A30
:102650007843782104F0ECFC80B2C84B18802C0041
:102660004443281A830018184000C123F15C04F089
:10267000DFFC291A200004F0DBFC0100C04804F054
:10268000D7FCC223F35C5843222104F0D1FCC3B22F
:1026900003931800BB4B18808423F75C7A08BA4B6D
:1026A0001A707E23F35C002B04D18022B35C002BD4
:1026B00000D14DE2A44C236B9B46B449181C05F095
:1026C00041FA05F03FF8B24B1880636BAF490493B1
:1026D000181C05F037FA05F035F8AE4B1880A26BE0
:1026E0009146AA49101C05F02DFA05F02BF8AA4BCB
:1026F0001880E26B9046A549101C05F023FA05F0FE
:1027000021F8A64B1880226CA0490592101C05F0F8
:1027100019FA05F017F8A24B1880666C9B49301C1B
:1027200005F010FA05F00EF89E4B1880E56D9749FC
:10273000281C05F007FA05F005F89B4B18802A23A2
:10274000E05C05F00DFD041C9849584605F0FAF9C7
:10275000011C201C05F0F6F904F0F4FF944B1880DE
:102760009249049805F0EEF9011C201C05F0EAF9E5
:1027700004F0E8FF8F4B18808C49484605F0E2F9D9
:10278000011C201C05F0DEF904F0DCFF8A4B1880E8
:102790008649404605F0D6F9011C201C05F0D2F907
:1027A00004F0D0FF854B18808049059805F0CAF9E0
:1027B000011C201C05F0C6F904F0C4FF804B1880F2
:1027C0007A49301C05F0BEF9011C201C05F0BAF94D
:1027D00004F0B8FF7B4B18807449281C05F0B2F94F
:1027E000011C201C05F0AEF904F0ACFF764B1880FC
:1027F000554BB6229D5CAB00ED186D00734B1D80F0
:10280000734B1D804F2D00D975E2724B663A1A80CA
:102810004D4CB823E25C704B1A70704B1F70BD2397
:10282000E25C6F4B1A706923E25C6E4B1A7087236F
:10283000E25C6D4B1A706823E25C6C4B1A706C237F
:10284000E25C6B4B1A70227E6A4B1A706423E25C66
:10285000694B1A70BC22A25C5A707023E25C674B11
:102860001A707123E25C664B1A706D23E25C654B53
:102870001A70627E644B1A702D23E05C019B5843F2
:10288000642104F0C5FB314B18802B23E25C5F4BC5
:102890001A705F4B039A1A705E4B52461A805E4B59
:1028A0001A805E4B1A801E3A5D4B1A8053461E33C7
:1028B0005C4A13805C4B029A1A706223E25C5B4BA9
:1028C0001A707622A25C5A70C823E25C584B1A70C8
:1028D000CD23E25C574B1A70CE22A25C5A70564B45
:1028E0001D703C4A12885A70C423E25C534B1A7024
:1028F0006B23E25C524B1A708F23E25C514B1A70CF
:102900009022A25C5A709122A25C9A709222A25CE0
:10291000DA709322A25C1A719422A25C5A71892304
:10292000E25C494B1A708A22A25C5A708B22A25C2C
:102930009A708C22A25CDA708D22A25C1A718E22AF
:10294000A25C5A7182E0C0464805002002140020B3
:10295000C11500209A1300209E1300209013002020
:102960009613002098130020921300209C1300203F
:10297000A2130020A0130020A41300209413002011
:10298000A80F0000D2130020BE1300200000C84290
:10299000CC130020CA130020C8130020C613002047
:1029A000C4130020C2130020C013002000002041E7
:1029B000B2130020B0130020AE130020AC1300208F
:1029C000AA130020A8130020A6130020BC13002087
:1029D000B8130020BA130020681500208A150020C3
:1029E0008E15002000160020691500200B1600200F
:1029F000121600206615002028160020B0150020B1
:102A0000B1150020B215002067150020BD1500206B
:102A1000C0150020101400201414002012140020EF
:102A20001814002016140020131600203016002061
:102A3000AB15002010160020781500200516002088
:102A4000061600207C15002084150020AB4B0022C8
:102A50001A709621665A7608F6B25E700231655A8F
:102A60006D08EDB29D700231605A4008C0B2D87056
:102A70000231615A4908C9B219715A719E27E75D3E
:102A80009F719F27E75DDF71A027E75D1F72A12778
:102A9000E75D5F729A72A227E75DDF72A327E75DA9
:102AA0001F73A427E75D5F73A527E75D9F73DA7344
:102AB000A627E75D1F74A727E75D5F74A827E75D7A
:102AC0009F74A927E75DDF741A755E759D75D875CB
:102AD00019765A76B121615C9976B221615CD9761A
:102AE000B321615C1977B421615C59779A77AA2187
:102AF000615CD977AB21605C8B3958548C31605C58
:102B00008B3958548C31605C8B39585401315A548C
:102B100001315A5401315A5401315A5401315A5435
:102B200009B0F0BCBB46B246A946A046F0BD744B06
:102B300006221A80734B0E321A80734BAB32985CAC
:102B40006843A02104F074FA0130704B188041E50D
:102B50006D4C266B301C06F017FA00226C4B05F00A
:102B600099FB04F007FE6B4B1880636B0493181CF1
:102B700006F00AFA0022664B05F08CFB04F0FAFD21
:102B8000654B1880A26B91466449101C04F0DAFF73
:102B900004F0D8FD624B1880A26C93465F49101C6C
:102BA00004F0D0FF04F0CEFD5E4B1880E26C5B4970
:102BB0000592101C04F0C6FF04F0C4FD5A4B1880A7
:102BC000216D0D1C55490695281C04F0BBFF04F02F
:102BD000B9FD564B1880616D0D1C50490795281C96
:102BE00004F0B0FF04F0AEFD514B1880A16D884693
:102BF0004A49404604F0A6FF04F0A4FD4D4B18805E
:102C0000E56D4649281C04F09DFF04F09BFD4A4BEE
:102C100018802A23E05C05F0A3FA041C4749301C05
:102C200004F090FF011C201C04F08CFF04F08AFDCE
:102C3000434B18804149049804F084FF011C201C78
:102C400004F080FF04F07EFD3E4B18803B4948466F
:102C500004F078FF011C201C04F074FF04F072FDE6
:102C6000394B18803549584604F06CFF011C201C74
:102C700004F068FF04F066FD344B18802F49059876
:102C800004F060FF011C201C04F05CFF04F05AFDFE
:102C90002F4B18802949069804F054FF011C201C72
:102CA00004F050FF04F04EFD2A4B1880234907988A
:102CB00004F048FF011C201C04F044FF04F042FD16
:102CC000254B18801D49404604F03CFF011C201C88
:102CD00004F038FF04F036FD204B18801749281CFB
:102CE00004F030FF011C201C04F02CFF04F02AFD2E
:102CF0001B4B18807CE51B4B1D8089E5CC15002003
:102D000090130020961300204805002098130020FF
:102D100000005940D0130020CE1300200000C8420C
:102D2000CC130020CA130020C8130020C6130020B3
:102D3000C4130020C2130020C01300200000204153
:102D4000B6130020B4130020B2130020B0130020EB
:102D5000AE130020AC130020AA130020A8130020FB
:102D6000A6130020BA13002070B5164B1B78002B59
:102D700014D0012B16D0144B1B78002B0DD0134D03
:102D80002C88134B134A12785200D05A60436421A6
:102D900004F03EF980B224182C8070BD0A4B012249
:102DA0001A70E8E70C4B1B88002B03D1064B01225D
:102DB0001A70E0E7074B1B782D2BDCD9024B002261
:102DC0001A70D8E705160020071600200A14002004
:102DD00044140020BF1500203E15002010B5194BEB
:102DE0001B78002B0BD1184B1B88002B07D1174BDE
:102DF00001221A70164B174A12781A701DE0134BF5
:102E00001B78002B19D0124B1B78002B16D0104AC0
:102E1000013B13700E4B1B78642058430D4B1978FF
:102E200004F006F983B26420C01A80B20A4C2388E9
:102E30005843642104F0FCF8208010BD034B0022AD
:102E40001A70E7E7BF150020381400200216002092
:102E500001160020360600200A14002010B5184B79
:102E60001B78002B27D0174A1378591C1170DB07E9
:102E700003D5154A138801331380134B1A88C823CE
:102E80009B009A4202D9104BA0221A800E4B1B883D
:102E9000DB08DBB20D4A13700D4A927DD2B20D49A8
:102EA0008B540D4B1B8864205843A72104F0B0F8C5
:102EB0000A4B188010BD044BA0221A80FAE7C046C6
:102EC000151600200A1600203E140020C11500200F
:102ED000E8130020C41500204014002042140020F4
:102EE00010B50B4B1B889BB2002B0CD0084B1988DC
:102EF00089B2084B1889AB239B00584304F088F82B
:102F0000054B188010BD044B00221A80FAE7C0461A
:102F10008E160020E81300203E15002008490A887C
:102F20009308D21A92B20A80064B1B889B189BB258
:102F30000B80054A9B0857214B4313807047C046BE
:102F4000041400208216002026140020714B9B7C64
:102F5000012B5FD06F4B9B7C022B5BD06D4B9B7C1E
:102F6000052B57D06B4B9B7C042B53D06A4B002214
:102F70001A706A4B1A880A2A07D9674B1B78002BEC
:102F800050D1644B9B7C032B4CD0654B00211970B6
:102F9000634B1B783C2B02D9624B09211970624BA1
:102FA0001988624B1B88994202D05E4B0921197027
:102FB000594B1978002914D05D4B1B880A3B9BB2F2
:102FC00091204000834209D85A4B1888FA235B00AD
:102FD000984203D8584B1B78002B02D0514B02204B
:102FE0001870564B1B885B08143355480088834281
:102FF00025D2544B1B78002B21D100291FD0524BD6
:103000001B78013BDBB2812B19D950490B78013376
:103010000B7017E04E4B1B78002BA7D13E4B0122C3
:103020001A70A6E74B4B1B78002B03D04A4B1B783A
:10303000002BAAD13A490B7801330B70A8E7434B18
:1030400000211970414B1B78FA2B02D9354B032113
:103050001970424B1B78002B1FD15A2A0CD92D4BCB
:103060009B7C072B08D02B4B9B7C062B04D03C4928
:103070000B8801330B8002E0394B00211980394B5A
:103080001B88002B02D0364B00211980344B1B8843
:103090007D2B02D9234B08211970334B1B781E2B33
:1030A0000FD9132A0DD8314A13780133DBB21370CC
:1030B0000A2B09D91B4B04221A702C4B00221A70C0
:1030C00002E02A4B00221A70294AC5239B00D358DC
:1030D0009B109B059B0D274A13800E4B5B7CDBB23C
:1030E000254AD35C002B13D0244B1B78132B0FD80D
:1030F000224A013313701F4B1A8892080B4B792117
:103100005B5C0533DBB29A4202D9064B05221A708A
:103110007047C046E8130020F51500203814002041
:10312000BC1500200C16002000F0001048050020FF
:103130001014002008140020631500209E130020A6
:103140000C14002004160020BF150020711500206B
:103150006415002062150020AA1500200D1600201D
:103160002A1400203E1500206D150020BB150020FC
:10317000000803487E160020101600200F160020BD
:1031800010B52A4B1B78002B11D0294B1A78C82375
:103190009B0053439BB2274A10885843264B1989FA
:1031A0004B00C918C90103F033FF244B1880244B8E
:1031B0006A229B5C002B22D0204B1C88002C07D05D
:1031C000204B1888210003F023FF84B26400A4B2CE
:1031D0001D4B1988002906D01A4B188803F018FFD8
:1031E00081B2490089B2194B1B78002B0FD08C4259
:1031F00006D2091B89B2164A13685B18136010BD0A
:10320000611A89B2124A13685B1A1360F7E7002C3F
:10321000F5D00F4B1B680F4A9342F0D90C4A1B1B89
:103220001360064B00221A80E9E7C046A41500206F
:10323000BE1500208E160020E81300203C1400204C
:1032400048050020301400202E1400208D15002089
:103250002406002000E1F50570B582B0204B1888E7
:10326000C72807D91F4B18221A701F4B0F3A1A7024
:1032700002B070BD1D4E33788008C0B2182500958D
:1032800032220A21FEF763FD164C20703378184A6B
:103290001078009546221421FEF759FD23788342C9
:1032A00001D9104B1870134E33780D4A10888008DE
:1032B000C0B20925009532220A21FEF748FD0A4CCA
:1032C000207033780A4A1078009546221421FEF7C0
:1032D0003EFD23788342CBD9034B1870C8E7C04624
:1032E0003E150020300600202E060020310600206A
:1032F000BF1500202F06002010B5344B1C78344B2E
:103300005B7B002B0ED0334B1B78002B0AD1324B4A
:103310001A88324B197878235B1A9A4202DD2D4BBA
:1033200001221A702A4B1B7D002B40D1294B1A78A1
:10333000002A03D12A4B1B78002B37D0264B198843
:10334000284B1B784B43544363435B0A5801C01A14
:103350008000C018C000244B198803F059FE84B2C5
:103360002409FFF779FF214B1A78A24222D2204B81
:103370001A70204B88229B5C002B0FD01E4B1B78B1
:10338000002B1AD01A4B1B78154A1278934201D998
:10339000134A1370164B124A12781A70144B1B788A
:1033A000002B0ED0154B164A12781A7010BDFFF77D
:1033B000DBFCBBE70E4B1C70DBE7094B00221A70ED
:1033C000ECE70E4B00221A70F0E7C046C91500204A
:1033D000E8130020BF1500200A1400206715002004
:1033E00003160020C1150020261400202806002006
:1033F000621500204805002004160020AA150020B0
:103400003506002070B5334BC9229B5C002B53D18D
:10341000314B5B7B002B0ED0304B1B78002B0AD13D
:103420002F4B1A882F4B197878235B1A9A4202DDAA
:103430002A4B01221A70284B9B7B002B02D0274B72
:1034400001221A70264B1B88002B03D0234A1278C6
:10345000002A03D1244A1278002A2CD0234A10785B
:103460005843782103F0E4FD040085B2FFF7F4FE31
:103470001F4B1A78AA4222D21E4B1A70154B882273
:103480009B5C002B0FD01C4B1B78002B1AD0194BC8
:103490001B78154A1278934201D9134A1370154BC1
:1034A000114A12781A70134B1B78002B0ED0134B55
:1034B000134A12781A7070BDFFF790FCA8E70D4B05
:1034C0001C70DBE7084B00221A70ECE70B4B002264
:1034D0001A70F0E748050020E8130020BF1500200F
:1034E0000A1400206715002003160020C9150020CB
:1034F000280600206215002004160020AA150020CE
:103500003506002010B51D4B1A78002A2DD01C4B13
:103510001B789B189B081B4A13801B4A1278A42A0D
:1035200002D8194AA5211170184A1380FFF756FCDA
:10353000154B174A12781A70124B1C88154A1480C2
:10354000154A12881A80FFF787FE144B1A78A24298
:103550000CD2134B1A70124B1B78124A1380002B9B
:1035600007D0114B114A12781A7010BD0C4B1C7009
:10357000F1E70D4B00221A70F7E7C046BF15002097
:10358000C91500200A14002036060020D41300209C
:1035900037060020D61300200E1400202806002035
:1035A00062150020D8130020AA150020350600203F
:1035B00070B5394B5B7B002B0ED0384B1B78002B42
:1035C0000AD1374B1A88374B197878235B1A9A42FD
:1035D00002DD324B01221A702F4B9B7B002B02D055
:1035E0002E4B01221A702E4B1888002803D02B4B2B
:1035F0001B78002B03D12C4B1B78002B3DD02B4B81
:103600001B785B00FE214900C91A89B2284B1B7840
:10361000002B05D0214B1B788B422FD8C91A89B2B9
:103620000A3189B24043081803F0F2FC040085B265
:10363000FFF712FE1F4B1A78AA4221D21E4B1A70B6
:103640001E4B88229B5C002B0FD01D4B1B78002B40
:1036500019D0194B1B78144A1278934201D9124A97
:103660001370154B104A12781A70134B1B78002BED
:103670000DD0144B144A12781A7070BD0021CFE798
:103680000D4B1C70DCE7084B00221A70EDE70D4B68
:1036900000221A70F1E7C046E8130020BF15002091
:1036A0000A1400206715002003160020C915002009
:1036B000AB150020280600206215002048050020D8
:1036C00004160020AA1500203506002070B53F4BD7
:1036D000C9229B5C002B00D06AE03D4B5B7B002B3A
:1036E0000ED03C4B1B78002B0AD13B4B1A883B4B2E
:1036F000197878235B1A9A4202DD364B01221A7040
:10370000334B9B7B002B02D0324B01221A70314B82
:103710001D78002D03D1324B1B78002B47D02E4B48
:103720001C88002C09D02F4B1A782F4B9B185879E6
:103730006043782103F07CFC84B22C4B1B786B43F4
:103740002B4A128853435B0A5801C01A8000C018E4
:10375000C000284B198803F05BFC80B2000984424A
:1037600000D20400FFF778FD234B1A78A24222D240
:10377000224B1A70154B88229B5C002B0FD0204BDC
:103780001B78002B1AD01D4B1B78154A12789342D8
:1037900001D9134A1370194B114A12781A70174B3A
:1037A0001B78002B0ED0174B174A12781A7070BD79
:1037B000FFF714FB91E7114B1C70DBE7084B00226D
:1037C0001A70ECE70F4B00221A70F0E74805002052
:1037D000E8130020BF1500200A1400206715002000
:1037E000031600202B060020CC150020C915002050
:1037F0004014002026140020280600206215002016
:1038000004160020AA1500203506002030B583B02C
:10381000914BCC229B5C002B00D1C8E08F4B5B7C92
:10382000DBB28F4AD35C8F4A13708F4A11788F4A6C
:103830001278914200D196E08B490A70864A78212D
:10384000525C002A00D1B4E0834A1339525C002A4A
:1038500000D18CE09BB2864A1288934200D994E052
:10386000844B1B78002B00D18FE0834B1B78002BFF
:1038700004D1824B1B78002B00D186E07B4B0622C3
:103880001A707F4B1B78002B18D07D4A00231370D1
:103890007C4A13807C4A13807C4AFA2149001180BB
:1038A0007B4A13807B4A13807B4B7C4A12789B189F
:1038B0005B7E9A009B185B00794A1380784A6C4BB8
:1038C00012881B88D21A93B210B26E4A10806F49C8
:1038D0000A889A1812B20A80FA2189008A4200DC0A
:1038E000AEE06A4A1180684C2188591A8AB2684D44
:1038F000298020809B009BB251005218520092B246
:1039000062490020085E81000918C9109B185B18E5
:103910001BB2604A1380002B00DA98E05D4B002256
:103920009A5EFA239B009A4203DD5A4BFA229200D8
:103930001A805C4BF4221A705B4BAB3A1A705B4BEB
:103940005B4A12781A70534B0020185E8010C0B288
:10395000584B1B7800930023FA220021FEF7F7F959
:10396000554B187023E0434A0121117066E79BB262
:103970003F4A1288934208D83E4B1B78002B04D054
:103980003D4B1B78002B00D078E73A4B00221A7091
:103990003B4B01321A70354B02321A703E4B3F4A94
:1039A00012789B189A7A454B1A70FFF7ABFD03B05B
:1039B00030BD294AB521525C002A2FD0264A503901
:1039C000525C002A17D09BB2294A12889342DCD855
:1039D000224B5B7C002BD8D1264B1B78002BD4D0FC
:1039E000254B1B78002B00D048E7244B1B78002B7D
:1039F00000D043E7C9E79BB21D4A12889342C4D85E
:103A0000164B5B7C002BC0D11A4B1B78002BBCD013
:103A1000194B1B78002B00D030E7B6E79BB2144A55
:103A200012889342B1D80D4B5B7C002BADD1114B6A
:103A30001B78002BA9D0104B1B78002BA5D01DE7BD
:103A4000002A00DB4FE7114A002111804BE71300E9
:103A500000221A8062E7C04648050020E8130020D3
:103A60007815002076150020C8150020C715002005
:103A70003E15002074150020BF150020751500208C
:103A800073150020E2130020E6130020E413002049
:103A9000E0130020DE130020CC1500202B060020B0
:103AA0003C150020300600202E0600206215002064
:103AB0002806002035060020AA150020C915002080
:103AC00030B583B0414AC5239B00D3589B109B055A
:103AD0009B0D3F4A138010883E4B7922995C01323E
:103AE0009A5C8008C0B2FF2300930023FEF72FF9F1
:103AF000394B1870002834D0384B1870384B5B7C29
:103B0000DBB2384AD35C012B2FD0032B35D0334B9B
:103B10001878354B1B7800930023FF220021FEF715
:103B200016F904000500314B1B78834217D2304B45
:103B30001888FE2830D92F4B30221A702E4B273A86
:103B40001A70294B1B78AB423CD2284A13702B4B7E
:103B5000264A12781A802A4B2A4A12781A7003B021
:103B600030BD1E4B00221A70C8E7274B1B78002B74
:103B7000CDD11A4B00221A70C9E7164BAE229A5CBF
:103B80001B4B1B889A42C2D21F4B1B78002BBED105
:103B9000124B00221A70BAE7C0B230230093C4332C
:103BA000FF222821FEF7D3F8124B1870104B18781B
:103BB000092300934033FF222821FEF7C8F80E4B5B
:103BC0001870BEE7094B1C70C1E7C04600080348E7
:103BD0007E160020480500200E16002064150020E7
:103BE000E81300201016002028060020621500208F
:103BF0003E150020300600202E060020DA1300209B
:103C0000AA15002035060020BF15002010B582B08F
:103C1000114B1C88A4B2C822104B18885623FF33BE
:103C200000930F4B52002821FEF767F80D4B1880C8
:103C3000002C0BD021000C4803F0EAF9C0B20B4B6A
:103C40001870782805D978221A7002E0074B0022F4
:103C50001A7002B010BDC046861600203E15002026
:103C6000AE1000001C06002035DF0000BF1500204C
:103C700070B582B0114B9B7A002B01D102B070BDA0
:103C80000E4A937A023BDBB2990059184900947AA4
:103C90000234E4B2A300E4186400094E3378094DFD
:103CA0002888002200922200FEF727F830702B8827
:103CB000A342E3D9044B00221A70DFE7E813002087
:103CC000621500203E150020AA15002070B5784A24
:103CD000C2239B00D3589B109B059B0D754A1380F4
:103CE000754B1B78772B00D87CE0744B1A88744B8B
:103CF0001A80744B1B78002B09D0734B1B88D31A86
:103D00009BB26F490B80714800881B180B80704B69
:103D100085215B5C002B0AD06D4B01315B5C6849EF
:103D200009888B4200D388E0D21A6A4B1A80614B13
:103D30001A88694B1A80684B1B88614A1288934223
:103D400000D8A8E065490978002900D179E06449E4
:103D5000897D002975D063490888181A80B29B1A9A
:103D60009CB2614B1B885843604B198803F060F983
:103D7000201A80B25E4D28805E4B1B8858430A2172
:103D800003F056F9040080B20B2103F041F980B230
:103D90006E300B2103F04CF92404240C60433221D3
:103DA00003F046F94A4BC0229B5C64335843C82158
:103DB00003F03EF980B228804F4B1C88A04243D2CA
:103DC00025004543201A830018184000404BC122AB
:103DD000995C03F02DF9211A280003F029F9444BCE
:103DE000188031E0108880B23E4C21880222FDF715
:103DF000DCFF2080304A13780133DBB21370782B5C
:103E000007D0354B18803D4B1B88C0182B4B1880B2
:103E100091E7324B1B78002BF3D0394B1B8898422B
:103E200007D9384B1B88984203D2374B00221A70AF
:103E3000E7E7354B01221A70E3E7264B00221A8090
:103E400075E79B1A2A4A1380294A13882F49098843
:103E50005B185B101380264B1B882C4A13802C4A5E
:103E600013802C4A1078584380B22B4A10801B4A8A
:103E70001278002A13D01A4A927D002A0FD0274ABE
:103E8000107858430F4B1B785843602103F0C0F85B
:103E9000234B18800BE0164B00221A80DBE7094BFE
:103EA0001B785843602103F0B3F81D4B188070BD98
:103EB0000004034880160020011400201214002082
:103EC00010140020BF150020961300209813002026
:103ED00048050020061400200814002013160020B6
:103EE000E813002014140020921300209E130020D9
:103EF0000A1400209C130020A0130020901300201F
:103F00001814002016140020631500200E14002041
:103F10000C140020C115002040140020C015002002
:103F20003614002010B56E4A13780133DBB21370DB
:103F30006C490A780132D2B20A706B4909780029BB
:103F40001BD0032B19D9664B00211970664B1970D1
:103F5000664B1B78002B1AD0012A18D9614B00221E
:103F60001A70624B1A70624BDB7CDBB2082B00D9F3
:103F7000B0E09B005F4AD3589F460029E8D1022B4E
:103F8000E6D9574B1970584B01311970E0E7002BF7
:103F9000E9D1012AE7D9534B00221A70534B013261
:103FA0001A70E0E7544B1878FDF71CFF10BD524B18
:103FB0001878002804D04C4B1878FDF713FFF5E76C
:103FC000FDF710FFF2E74C4B1878002803D04B4B5D
:103FD0001B78002B02D1FDF705FFE7E7434B18786C
:103FE000FDF700FFE2E7444B1878002803D0434B6D
:103FF0001B78002B06D100280AD03B4B1878FDF720
:10400000F1FED3E73D4B1878C0B2FDF7EBFECDE7EC
:10401000FDF7E8FECAE7384B1878002803D0374B85
:104020001B78002B06D1002809D02F4B1878FDF7FC
:10403000D9FEBBE72D4B1878FDF7D4FEB6E7FDF7A8
:10404000D1FEB3E72D4B1B78002B05D02B4B1878F6
:10405000C0B2FDF7C7FEA9E7274B1878FDF7C2FEEF
:10406000A4E7264B1B78002B04D0204B1878FDF7D3
:10407000B9FE9BE7204B1878FDF7B4FE96E71F4B7F
:104080001B78002B08D11C4B187800280AD0164B3F
:104090001878FDF7A7FE89E7184B1878C0B2FDF72E
:1040A000A1FE83E7FDF79EFE80E7144B1B78002BF3
:1040B00008D1114B1878002809D00B4B1878FDF760
:1040C00091FE73E7094B1878FDF78CFE6EE7FDF75C
:1040D00089FE6BE7084B1878FDF784FE66E7C0465B
:1040E0008315002070150020821500206F15002018
:1040F000E8130020F4950010B6150020A01600204B
:1041000010B5754B9B7B002B1DD0744B1B78143363
:10411000734A1370724B1B78822B02D9704B822228
:104120001A70704BF4221A706F4BAB3A1A706F4BC7
:1041300019782820FDF733FE6D4B18706D4B684AD7
:1041400012781A7010BD654B18786B4B18706B4B5A
:104150001B78002B0ED16A4A1288002A0AD1604BC4
:1041600032321A70674B1A70674B00221A80674B05
:104170001A80CFE7002B6FD0614B1B88644A1288EE
:10418000934219D2634B04221A70634A1378591C64
:104190001170042BBED9524B1A785A4B1B789A4295
:1041A00006D24F4B01321A705B4B00221A70B1E7F6
:1041B000544A01331370F7E7544909888B4217D2E8
:1041C0009B1A9B00DBB2534A137053490A78501C68
:1041D000087093429ED2424B1B784A4A127893420F
:1041E00002D23F4A013313704B4B00221A7091E701
:1041F0004A4A1288934216D2D31A9B00DBB2454A30
:10420000137045490A78501C0870934200D381E727
:10421000334B1B78282B02D9314A013B13703E4B9C
:1042200000221A7076E73B4B04221A703A4A137840
:10423000591C1170042B00D86CE7294B1B78282BD4
:1042400006D9274A013B13702E4A1378013B13709D
:10425000314B00221A705DE72E4B0A221A702E4A4B
:104260001378591C11700A2B00D853E72C4B19886E
:10427000002925D02A2903D9194A1378013B137044
:10428000214A13885C1C1480092B15D91D4A137808
:104290000A3313701A4B1B88584302F0C9FE80B2D0
:1042A0001A4B18800200143A194B1A8014301B4B19
:1042B0001880124B01221A70174B00221A7029E73E
:1042C000104B1B78772BF7D805490A7801320A7012
:1042D0000C4A01331370EFE7E8130020C9150020E2
:1042E0003A060020300600202E0600202806002076
:1042F00062150020AA1500202D1600202C16002083
:1043000038140020390600203A1500203815002006
:104310003615002038060020241600203415002011
:104320003E15002010B5C04BC2221A70BF4B793A1F
:104330001A70BF4B00221A70BE4B1A70BE4BBE32B1
:104340009B5C002B21D0BD4B1B88F52B1DD9BC4A93
:104350001178C9B2BB4A1278D2B2914215D2BA4A88
:104360001278002A11D10B33DBB2B84A13705B0903
:10437000B74A13701378DBB2052B02D9130005225C
:104380001A70B44B01221A7002E0B24B00221A706C
:10439000B14B1B78002B20D1B04B9B7CDBB2082BA0
:1043A00035D89B00AE4AD3589F46FEF7A5FF2EE0B6
:1043B000FFF728F82BE0FFF7A5F828E0FFF7F8F85B
:1043C00025E0FFF783F922E0FFF720FA1FE0FFF76F
:1043D00097FE1CE0FEF742FD19E0A24B1A78642319
:1043E00053431B11DBB2924A1370702B02D9130096
:1043F00070221A709C4B1B788E4A13709B4A12785D
:10440000934201D38B4B1A70994B32221A708A4B0C
:10441000CD229B5C002B07D0904B5B7CDBB2954A96
:10442000D35C002B00D0A8E0FFF722FCCF22920043
:10443000914B9B581B041B0C90498A581204120C78
:104440009B185B11DBB28E4A12789A4202D28D4BD6
:1044500007221A70784BD2229B5C002B0ED0894A1F
:104460001278002A00D18BE0874801780131017071
:10447000854909788B4201D8844B1A70844B1B689C
:10448000844A11685B18136083490A68013A0A601C
:10449000002A11D15801C01A8000C018C000A02104
:1044A000890002F0B5FD40097C4B18607A4B282248
:1044B0001A60784B00221A60794B1B78002B27D1A9
:1044C000784B1B78002B23D0704B1B78042B1FD00C
:1044D0006E4B1B78092B1BD06C4B1B78072B17D00E
:1044E0006A4B1B78052B13D06F4B1B78002B0FD01A
:1044F0005F4B1B78002B0BD06C4B1B78002B07D12C
:10450000624B1B78002B3FD0544B9B7B002B3BD145
:10451000674BC2221A70674BB93A1A70494B002296
:104520001A70654B1A705F4B1B78002B61D0574A8D
:104530001278042A1BD0554A1278092A17D0534AF8
:104540001278072A13D0514A1278052A0FD0574AF9
:104550001278002A0BD1394A1288002A49D1344AEC
:104560001278002A45D1554A1278002A41D14D4B84
:1045700000221A7002F0D4F910BDFFF7A1FA53E738
:1045800041490020087073E74D4B1B78702B02D90E
:104590004B4B70221A704A4B1B7819003231384A43
:1045A0001170234A1278934201D2214A13701E4B94
:1045B0001B78172B02D81C4B18221A701B4B1B7828
:1045C000082B02D8194B09221A70174B1A78384B4E
:1045D0001A70164B1A78374B1A70154B1A78194BFC
:1045E0001A701A78374B1A80124B1A78324B1A709D
:1045F00099E7002BC0D1114B1B889F2BBCD80C4BCB
:104600001B78002BB8D0264B1B78002BB4D1254B40
:1046100001221A70294B1D321A702B4B00221A707E
:1046200002F0AAF9A8E7C046300600202E060020B6
:1046300062150020AA15002048050020381400202B
:104640009C160020A116002064150020AE15002045
:10465000A9160020A51600200D160020E813002042
:10466000189600102D060020320600203506002086
:10467000C915002010160020000403480008034854
:1046800029060020AC150020AD1500200C160020D6
:104690009416002040150020200600204C15002014
:1046A000A0160020330600202B0600209F160020B5
:1046B0004C0600204B060020A2160020AA1600205F
:1046C00028060020DC130020A816002010B582B0B8
:1046D000634B7E229B5C002B04D1614B47329B5C79
:1046E000002B06D05F4B1B78452B02D85D4B462232
:1046F0001A705D4BD88864235843572102F088FC18
:1047000080B25A4B18805A4B1B78642B02D9584BF5
:1047100064221A70524CE07D18230093AA3364225D
:104720000021FDF714FB534B18702B23E05C223B58
:104730000093403364220021FDF709FB4E4B1870B3
:10474000CA23E05CAC3B0093E13364220021FDF717
:10475000FEFA4A4B1870A37E494A1370494A1278F0
:10476000002A37D03E4BC2229A5C454B5A703E4BD2
:10477000197C454A1170597D5171597C5170197DD0
:104780009171997DD172597B5172997B9173997C0A
:104790003E4A1170D97C3E4A1170DB7B9B003D4A3A
:1047A000138013889BB2002B0ED01388FA20800050
:1047B000C01A394B1B885843642102F029FC374B3F
:1047C0001860374B01221A70254BDA8B354B1A8053
:1047D000012310E02A4A5370C9E75A1E314952009A
:1047E000505A1F4A2324125D4243120A801A5A006B
:1047F00088520133DBB2772BEFD9194BBD229B5C7A
:10480000002B02D0284BBC3A1A70174B187964233E
:10481000584380B20009C0B2244B1870104CE28C8F
:10482000234B5A43120923490A607422A25A534364
:104830001B094B60BB23584380B2702102F0E8FB98
:10484000C0B21D4B18701B78DBB2BB2B02D91A4BC0
:10485000BB221A70024B9A88184B1A7002B010BD16
:10486000480500208A150020E8130020400600209B
:1048700067150020310600202F0600203606002094
:10488000C41500201316002094150020A515002043
:10489000A31500201A140020021400205C1500202B
:1048A0006C150020441400208D1500206015002098
:1048B000A0860100441500202A0600203C060020A6
:1048C000F8B504000F0015001E000B4B188883007C
:1048D000C0184000094B2A22995C02F0A9FB000491
:1048E000000C801B7843A91B083102F0A1FB80B2A9
:1048F000001980B2F8BDC0462814002048050020E9
:1049000010B5484B7E229B5C002B04D1454B0232F4
:104910009B5C002B37D0444B1A78072A03D89300AE
:10492000424AD3589F46002079E0414B1B88414AB8
:104930001288FA210120FFF7C3FF70E03D4B1B886E
:104940003D4A1288FA21FA20FFF7BAFF67E03A4B96
:104950001B883A4A1288FA20FA214000FFF7B0FF7C
:104960005DE0364B1B88364A1288FA213548FFF73E
:10497000A7FF54E0FA20800051E0FA2080004EE0CA
:10498000FA2080004BE0284B1A78092A03D89300BC
:104990002D4AD3589F46002041E0254B1B88254ACD
:1049A0001288A7210120FFF78BFF38E0214B1B88DD
:1049B000214A1288A721A720FFF782FF2FE01E4B74
:1049C0001B881E4A1288A720A7214000FFF778FF06
:1049D00025E01A4B1B881A4A1288FA20A7214000AA
:1049E000FFF76EFF1BE0164B1B88184A1288A721A1
:1049F0001748FFF765FF12E0144B1B88154A128811
:104A0000A7211548FFF75CFF09E0FA20800006E0C7
:104A1000FA20800003E0FA20800000E00A2010BDA8
:104A20000A20FCE7480500206E1500203C96001087
:104A3000C0130020C2130020C4130020C61300209E
:104A4000C8130020EE0200005C960010CA1300207C
:104A50009B020000CC1300204203000070B5B34B52
:104A60001888642102F0D4FA84B2B14D2988022258
:104A70002000FDF79AF92880AE4B1B78DBB2012BA2
:104A800000D894E0AC4B00221A70AC4C218889B25B
:104A9000AB4B18880222FDF788F92080A94B7E22B3
:104AA0009B5C002B05D1A74B02329B5C002B00D1F5
:104AB000CFE0A24B1B889BB2A34A1288934200D836
:104AC00081E0A24B07221A70994B1888A04B1B78E3
:104AD00058430A2102F09CFA80B29E4B18809E4BEC
:104AE0001A68801818609D4902F092FA9C4B186071
:104AF0009C4B1B68C0189C4B18609C4BDB7D022BA9
:104B000000D10DE164235843994B198802F080FAD3
:104B100080B2FA239B00984200D91800FA239B0028
:104B20001B1A9BB2934A1380924B1B889B08DBB2E3
:104B30008E4AD373904B1B78002B37D08F4B1B784A
:104B4000002B17D08E4B1B78002B1DD17D4B5C6B3F
:104B50002A229B5C9800C018400003F001FB011C56
:104B6000201C02F0EFFF02F0EDFD80B2704B1B88BD
:104B7000984209D27F4BFA2292001A80794B002288
:104B80001A607E4B01321A707C4B1B78002B0DD0C3
:104B90007B4B1B78002B09D17A4B1A78511C19706A
:104BA000684B84215B5C9A4200D9FDE070BD624A8B
:104BB00011784B1CDBB21370142B00D865E7604BE7
:104BC0001C80117061E75D4B1B889BB26E4A128896
:104BD000934203D95D4B06221A7075E7574B1B8829
:104BE0009BB26A4A1288934203D9584B05221A7025
:104BF0006AE7524B1B889BB2654A1288934203D9DD
:104C0000524B04221A705FE74C4B1B889BB2614ADF
:104C10001288934203D94D4B03221A7054E7474B35
:104C20001B889BB25C4A1288934203D9474B0222ED
:104C30001A7049E7414B1B889BB2584A128893422D
:104C400003D9424B01221A703EE7404B00221A70F2
:104C50003AE73A4B1B889BB2514A1288934203D9D8
:104C60003A4B09221A702FE7344B1B889BB24D4AEE
:104C70001288934203D9354B08221A7024E72F4B30
:104C80001B889BB2304A1288934203D92F4B0722CC
:104C90001A7019E7294B1B889BB23B4A1288934232
:104CA00003D92A4B06221A700EE7244B1B889BB2AD
:104CB000364A1288934203D9244B05221A7003E71F
:104CC0001E4B1B889BB2324A1288934203D91F4B5A
:104CD00004221A70F8E6194B1B889BB22D4A1288E1
:104CE000934203D9194B03221A70EDE6134B1B882C
:104CF0009BB2294A1288934203D9144B02221A709C
:104D0000E2E60E4B1B889BB2244A1288934203D9D9
:104D10000E4B01221A70D7E60C4B00221A70D3E614
:104D2000FFF7EEFD134B1880FEE6C0462614002068
:104D3000241400209C160020340600202814002093
:104D40001C14002048050020B21300206E1500201E
:104D50006D1500202014002054150020907E0000C6
:104D6000501500205C15002058150020E813002085
:104D7000021400201A140020A41500206C15002035
:104D80009E16002008160020B0130020AE1300204D
:104D9000AC130020AA130020A8130020A6130020A3
:104DA000B6130020B4130020FFF7AAFD02001C4B2D
:104DB000DB7D002B30D11B4B1B889BB2952B29D858
:104DC000184B1988C9B2174B1B885B1A9A4205DB2E
:104DD000144B1B889633984200DCE7E6114B188091
:104DE0001B88FA208000C01A0F4B1B88584364218F
:104DF00002F00EF90D4B18600D4B01221A700D4B8D
:104E00001A700D4B83329B5C5B080C4A13700C4A82
:104E10001370CBE69621D6E70A4B01221A70C5E63D
:104E2000E81300201A140020021400205C15002052
:104E30008C1500208D150020480500200816002044
:104E4000B71500209E1600201E4A8A235B00D35807
:104E50001B070AD48E235B00D358DBB21A4A1278A0
:104E6000D1B2002A02D0012915D07047592B05D0A4
:104E7000164B00221A70144B1A70F6E7134A117879
:104E8000C9B21348435413780133DBB213700E4B8D
:104E900001221A70E9E70D4A1178C9B20C4843544F
:104EA00013780133DBB213701378DBB2062BDCD935
:104EB000130000221A70044B1A70064B01321A704C
:104EC000D3E7C0460002004809160020FF15002065
:104ED000F8150020C615002010B5BF4A137801331D
:104EE0001370BE4A137801331370BD4A137801332F
:104EF0001370BC4A137801331370BB4B1B78002B23
:104F000017D110BDB949C95C8A18D2B20133DBB2DE
:104F1000052BF7D9B54B9B79DBB293420CD0B24B42
:104F200000221A70AC4B1B78032BEAD9B04B1A70D5
:104F3000E7E700220023EBE7A74B00201870AB4BFC
:104F40005A7801210A40AB490A705978202421403F
:104F5000A94C21705B7821218B43A8490870102B44
:104F600019D00ED8042B00D191E0082B03D1A04B0F
:104F70000421197012E0022B10D19D4B02211970EF
:104F80000CE0402B7FD0802B08D1994B0121197068
:104F90009A4B197002E0964B00211970984B1B78C0
:104FA000002B03D1974B924909781970944B01213A
:104FB0001970002A00D192E1934B1B78002B10D17D
:104FC000924B1B7C002B66D1894B1B78002B62D047
:104FD0008F4A8331515C8F4A1278914201D9042B58
:104FE00059D0894B01221A707E4B1B788A4A12785D
:104FF00093420DD27E4B1978824B1B7899421ED07A
:10500000864B1B78002B1AD1854B1B78002B16D1B1
:10501000844900230B7084490B7072490A70834ADB
:105020001370834A1370834A1370834A1370834A40
:105030001370834A1370834A1370834A13707B4B37
:105040001B78002B00D1E4E1804B00221A706F4BDB
:105050001B7C002B0ED1664B1B78002B0AD06C4AB0
:105060008421515C6B4A1278914200D8D1E1042B23
:1050700000D0CEE15E4B1A78042A00D9BDE193003E
:10508000734AD3589F465A4B0121197086E7584BF3
:105090000321197082E76F4B01221A70614B1B7854
:1050A000002B27D15F4B1A705F4A13780133DBB2B4
:1050B0001370032B02D9130003221A70634B0022D2
:1050C0001A704B4B1B78012B54D0042B00D1D3E02A
:1050D000002B39D0544B1B780133DBB2554A137087
:1050E0005D4A1370524B01221A703D4B00221A7018
:1050F0003C4B1A703A4B1B78584A1278934210D2A4
:105100003B4B19783F4B1B78994200D16CE7434BDE
:105110001B78002B00D067E7414B1B78002B00D099
:1051200062E7394B012119704A4900230B703D4950
:105130000B703D490B702B4937480078087028499F
:105140000A703C4A13704FE7374B1B78022B09D08B
:10515000032BBFD1424B1A782C4B5A755A7D414BC9
:105160005A71B7E7404B1A78284B1A741A7C3D4B9A
:105170001A70AFE72C4B1B78022B13D0032BA9D14D
:105180003A4B1A78214B1A751A7D364B9A712B4B74
:105190001B78002B0ED02B4B01221A701E4BF932BC
:1051A0001A7097E7324B1A78184B5A745A7C2D4B69
:1051B0005A708FE7204B1B78002B8BD02D4B1A7821
:1051C000124B9A759A7D274BDA721D4B01221A7089
:1051D000114BF9321A707DE70014002022160020CE
:1051E000B3150020B7150020C6150020F8150020C3
:1051F0002B060020AF150020211600206515002089
:10520000A41500202C060020B4150020E81300206F
:1052100048050020081600208A15002014160020DA
:105220006A150020B8150020BA150020B915002015
:105230008D15002090150020A6150020A715002030
:10524000A9150020A81500208C1500208B15002022
:1052500084960010B515002091150020BF13002082
:105260006915002094150020001600200616002065
:105270000B16002012160020C64B1B78022B16D0EE
:10528000032B00D026E7C44B1B78092B1FD0C34B40
:105290001A78C34BDA74DA7CC24B1A70C24B1B7893
:1052A0000A2B00D016E7C14B01221A7012E7BA4B45
:1052B0001B78092B00D00DE7B84B1A78B84BDA747D
:1052C000DA7CB84B1A70B94B01221A7002E7B84B5E
:1052D0001A78B34B5A735A7BB64B5A72DEE7B64B09
:1052E0001B78002B0FD1B54B1B78002B00D17BE630
:1052F000B24A00231370B24A1370B24A1370B24B11
:1053000001221A7070E6AC4B00221A706CE6A14BB9
:105310001B78022B10D0032B1BD0012B6DD1A04A80
:10532000117CAA4B1970137C59424B41DBB21374A8
:10533000127CA04B1A7060E0994A517DA44B197001
:10534000537D59424B41DBB25375527D994B5A7193
:1053500053E001F07DF950E08E4B1B78022B10D00A
:10536000032B1BD0012B48D18D4A517C994B1970CE
:10537000537C59424B41DBB25374527C8D4B5A7073
:105380003BE0874A117D944B1970137D59424B4184
:10539000DBB21375127D874B9A712EE08F4B1B7811
:1053A000002B0FD17E4A917D8D4B1970937D594210
:1053B0004B41DBB29375927D7E4BDA72894B0122B1
:1053C0001A701AE0764B9B7C082B03D0744B9A7CA6
:1053D000854B1A70724B08229A74844B073A1A70E4
:1053E0000BE06C4B1B78022B2DD0032B2FD0012B05
:1053F00025D06B4B9A7C7E4B1A70784B1B78002B18
:1054000004D17C4B84229A5C7B4B1A707B4B01222B
:105410001A70784B7E229A5A002A00D103E1674B1A
:105420001B78002B00D19FE0664B1978744B1B78DA
:10543000994200D2F7E0734B00211970F3E0584B0A
:1054400001229A74D5E7564B02229A74D1E7544B45
:1054500003229A74CDE74F4B1B78022B0CD0032B01
:105460000ED0012B04D04E4B9A7C614B1A70C4E7CE
:105470004B4B04229A74F6E7494B05229A74F2E7E3
:10548000474B06229A74EEE7424B1B78022B37D02B
:10549000032B52D0012B04D0414BDA7C414B1A70C4
:1054A000ABE7544B84229A5C574B1B789A420DD839
:1054B0003B4BD97C394A1170DB7CDBB24D4A6D2104
:1054C000525C934216D0364BDA74E5E7FFF718FAD0
:1054D0004E4B18801B88FA208000C01A4C4B1B884A
:1054E0005843642101F094FD4A4B18604A4B012255
:1054F0001A70D1E73F4B6F229A5C294BDA74CBE7E5
:10550000254B1B78092B08D03A4B70229A5C244B10
:10551000DA74DA7C214B1A70BEE7214A517B244BA6
:105520001970537B59424B41DBB25373527B214B71
:105530005A721E4B01221A70AEE71B4B1B780A2BC6
:1055400005D02C4B71229A5C154BDA74A4E7144AEF
:10555000937B59424B41DBB29373927B154B9A7309
:10556000124B01221A7097E7164B1878214B8421B1
:10557000595C234B1B78CB1A984251DD88424FD29D
:10558000044B1B78002B4BD01E4B24490978197013
:1055900049E0C046BA150020B0150020B215002021
:1055A000E8130020A3150020B11500208B15002062
:1055B0006615002094150020B4150020B8150020B1
:1055C000B5150020B7150020B915002000160020E1
:1055D000691500200B16002006160020A9150020D2
:1055E00012160020A6150020F4150020A715002093
:1055F000A5150020480500208A1500208D150020E3
:10560000BE13002090150020081600201A14002058
:10561000021400205C1500208C150020911500203C
:10562000CC4B00211970CC4B00211970CB4B9B7CCB
:10563000D9B2062B00D1D1E0082900D0DEE0C84B5A
:1056400078315B5C002B0AD1C54B01395B5C002BC8
:1056500005D1C34B46315B5C002B00D1A8E0C14BA8
:105660001B78012B00D886E0BF4B1A78BB4B9A748D
:10567000BE4B00221A70BE4B1A70BE4BBE4A127847
:105680001A70B64B9A7C013AB64B1C78BB4B910012
:105690008A189B18185DBA4B1870BA4B1B78002BF0
:1056A00008D0AF4BCF229B5C5843642101F0B0FC83
:1056B000B34B1870A94B5B7D002B00D1A7E1B24B17
:1056C0001B78002B00D197E1B04B1B78002B00D04A
:1056D00092E1AF4B1B78002B00D08DE1AD4B1B78D6
:1056E000002B00D088E1AC4B1B78002B00D083E16D
:1056F000AA4B1B78002B14D1A84A01331370A84A77
:1057000013709B4A13709B4B00221A70A54B1A70A2
:10571000A54B1C70A54B1B78002B00D10EE1964ABF
:105720001370A04B1B78A14AD25C002A02D1914A87
:10573000002111705A1C9E4909788A4200DB51E110
:105740008C4A11788C4A1278043A914204DA964ACB
:105750001278944200D15AE1864A00211170013337
:10576000DBB2904A1370914AD35C002B00D1EBE07E
:10577000814A13704BE17F4B19787F4B1B7899421C
:1057800000D371E7794B1B78002B05D1774B0121B2
:105790001970784B00211970864B1B78002B13D0A1
:1057A000854B1B78002B0FD0844B012119700EE024
:1057B0006C4B1B78012B00D056E76E4B19786E4B63
:1057C0001B789942DED34FE77C4B00211970002AE9
:1057D00000D156E75F4B00221A7052E7754B1B78D9
:1057E000002B07D0744B1B78002B03D0744B012285
:1057F0001A7046E7724B00221A7042E7584B882213
:105800009B5C002B16D06B4B1B78002B0FD06A4B88
:105810001B78002B0BD06B4B1B78002B07D15A4BFE
:105820001B78002B03D0684B873A1A7002E0664B56
:1058300000221A704A4B64229B5C002B00D120E7A7
:105840005C4B1B78002B1DD05B4B1B78002B19D0B9
:105850005D4B1B78002B15D1404B5B7CDBB25B4A68
:10586000D35C002B0ED0574B1B78002B00D008E7E1
:10587000544B01221A70394B997C3B4A1170072214
:105880009A74FEE6364BAF229B5C002B46D0344B1D
:105890004A3A9B5C002B41D04A4B1B78002B00D12D
:1058A000EFE64B4B1B78002B09D1494B643A1A7039
:1058B000484B00221A70484B2A4A12781A70284B1B
:1058C000B0229A5C434B1B789A421BD9254B1A781D
:1058D000414B1B789A420BD0234B1A781F4B9A747A
:1058E000384A002313703A4A13703C4A1370C8E6D2
:1058F0003B4B1B78002BEFD1184B5B7C002B00D16E
:10590000BFE6E9E7184B1A78144B9A742D4A002326
:1059100013702F4A1370314A1370B2E6294B1B786B
:10592000002B03D0104B1A780C4B9A74254A002395
:105930001370274A1370294A1370A2E6084B842279
:105940009A5C0D4B1A70ECE6054B84229A5C0A4B6C
:105950001A705CE090150020B9150020E8130020B3
:10596000480500202B060020F41500201416002006
:105970008D150020B71500208A150020CC150020B9
:10598000C915002065150020B4150020BA150020A7
:105990008C150020A9150020A81500206A150020EC
:1059A0006B1500207A1500202C060020841500209D
:1059B0006815002021160020A415002015160020CF
:1059C000751500202A160020041600202816002035
:1059D00023160020221600202B1600202C16002053
:1059E000A01600204A4B1A784A4B1B789A420ED3D5
:1059F000494B00221A700AE0484B1B78002B06D056
:105A0000464A00231370444A1370454A1370454BAD
:105A10001C70454B63229B5C002B0AD0434B1B78C8
:105A2000002B03D1424B1B78002B4BD0414B012262
:105A30001A70414BDB78DBB2404A13703A4AB92105
:105A4000525C002A42D03E4AE12189004B43138038
:105A5000354B83229B5C002B09D0374B5B79DBB243
:105A6000384A13705278934201D2364A5370364BFB
:105A70009B7C072B03D0354B1B78002B2BD02A4B5C
:105A8000AE22985C0A2101F0C3FAC0B22E4B987284
:105A90002D4C627C2E4B9200D0582E4B198801F071
:105AA000B7FAC1B22C4B19702C4B1878FCF777F968
:105AB0002B4B1870A37DDBB22A4AD25C2A4B1A709A
:105AC000FFF72DFA1B4B00221A70B2E71C4A274938
:105AD0004B431380BCE71C4B5B7CDBB2244AD35C9A
:105AE000022B06D0184A537CDBB21649CB5C93726A
:105AF000CEE7204B1B78002BF4D00B4BAE22985CEA
:105B00000A2101F085FAC0B20F4B9872C0E7C04677
:105B1000B71500208A1500206B1500206A1500209B
:105B20008D1500202C06002048050020B41500200B
:105B3000B5150020B6150020F8150020BE15002070
:105B40003014002030160020E81300200416002036
:105B50004415002026140020611500206015002047
:105B600028060020C4150020C11500209B05000058
:105B7000101600200E16002070B5B14B1B78002BBC
:105B800001D100F06BFCAF4B43221A70AE4B0022E8
:105B90001A70AE4A137801218B431370AC4B7E22EE
:105BA0009B5C002B04D1AA4B02329B5C002B42D0A1
:105BB000A84B1A78072A0CD89300A74AD3589F46B7
:105BC000A24A137801210B43DBB213709D4B0022D4
:105BD0005A709F4B7F229B5C002B69D09F4B19888A
:105BE0001A78984BDA709E4B1B8899425CD29B1AAC
:105BF000DBB2944A137164E0924B00225A70E8E7DA
:105C0000904B02225A70E4E78E4B06225A70E0E76E
:105C10008C4B09225A70DCE78A4B0C225A70D8E769
:105C2000884B0C225A70D4E7864B0C225A70864B54
:105C30000B3A1A70CDE7874B1A78092AC9D8930016
:105C4000884AD3589F46814A137801210B43DBB21F
:105C500013707C4B00225A70BBE77A4B00225A70BB
:105C6000B7E7784B02225A70B3E7764B04225A709A
:105C7000AFE7744B06225A70ABE7724B08225A709A
:105C8000A7E7704B0A225A70A3E76E4B0C225A709A
:105C90009FE76C4B0C225A709BE76A4B0C225A70A0
:105CA000694B0B3A1A7094E7664B00221A7108E0B0
:105CB000674BC5229B5C002B1ED1624B4622DA70DB
:105CC0001A7100F0AFFF1238FF38502802D95E4B2E
:105CD00006221A70644B1B78042B1FD0624B1B7872
:105CE000002B1ED0584B1B78002B1AD15E4B1B7813
:105CF000DBB2554A137014E05C4B1B78514CE370D7
:105D00005B4D29885B4B1888BD3AFCF74EF828801C
:105D1000642101F07DF9C0B22071D2E74A4B042220
:105D20001A70494B1B78002B5ED0534B1B78002B0D
:105D30005AD1474B80229B5C002B38D0424B1B78BA
:105D4000092B11D0404B1B78012B16D03E4B1B78F2
:105D5000052B1BD03C4B1B78072B20D03A4B1B78D4
:105D6000DBB2384A53719AE0444B1B78002B00D1C8
:105D700095E0344B783A5A7191E0404B1B78002BF8
:105D800000D18CE02F4B06225A7188E03B4B1B78E8
:105D9000002B00D183E02B4B03225A717FE0374B5D
:105DA0001B78002B7BD0274B04225A7177E0284BBD
:105DB0007E229B5A002B11D0314B1B78002B03D134
:105DC000304B9B7B002B03D01E4B00225A7166E0A8
:105DD0001D4B1B78DBB21B4A537160E01A4B1B78DA
:105DE000DBB2184A53715AE0234B1B78002B53D077
:105DF000254A1278002A14D1244A1278002A10D099
:105E0000204A127C002A0FD1214A1278002A0BD096
:105E10000F498420085C1F490978884201D9042A67
:105E200002D0084A53713AE0144A1278002A02D08C
:105E3000044A537133E0034B00225A712FE0C046ED
:105E4000A4150020181600208F15002032160020FF
:105E5000480500206E1500209896001014140020AC
:105E600008140020B89600100C1600206D150020B4
:105E70001E14002020140020901500208215002000
:105E80006B150020E8130020B8150020BA1500207B
:105E90002B06002008160020C34B00225A71C34B6A
:105EA0001B78002B00D191E2C14B1B78002B25D130
:105EB000C04B84229A5CC04B1B789A4203D9BF49DD
:105EC000097804291AD0BE490978002900D1A9E02F
:105ED0009A4200D8A6E0B94B1B78042B00D1A1E070
:105EE000B84B1B78002B00D19CE001296CD0022913
:105EF00000D184E0B44B00221A800DE0AD4BB922F2
:105F00009B5C012B53D0B14B198889B2AE4CB04B7E
:105F1000188801F07DF82080AB4B1B88002B00D146
:105F20004FE2D9B2A04A91711B0AD371A14B8222D0
:105F30009B5C002B05D0A74A137804210B43DBB2EE
:105F400013709C4B81229B5C002B23D0A24B1B889F
:105F5000002B00D15BE29F4A1378802149420B431A
:105F6000DBB213709D4B1B78DBB20A2B00D854E2D6
:105F7000984A137840210B43DBB21370954B1B7882
:105F80003F22934300D14EE2924A137804210B43FF
:105F9000DBB213708F4B1A781F210A4082498A7036
:105FA0001A783B210A401A700022002347E2874BEF
:105FB000198889B2844C864B188801F029F883002F
:105FC000C01840002080A7E77A4BB9229B5C012BC8
:105FD00009D07E4B198889B27B4C7D4B188801F023
:105FE00017F8208098E7794B198889B2764C784B5E
:105FF000188801F00DF80A23434323808CE76D4B8A
:106000002D22985C764B1B885843642101F010F8D0
:1060100081B2744B19806C4C6D4B188800F0F8FFFE
:10602000208079E7704B1B78002B0DD0664C684DB3
:106030006E4B18880A2100F0EBFF0100288889B216
:1060400000F0E6FF208067E7694B1B78002B0BD040
:10605000684B1B789900C91849005D4B188800F0FF
:10606000E7FF594B188057E7634B1B78002B09D08B
:10607000624B198889B2544C554B188800F0C8FF00
:10608000208049E75E4B1A785E4B1B789A4223D8F2
:106090004C49097800291FD048480078012803D9C5
:1060A000594C2478002C17D04A1E584B91008A185E
:1060B0009B181B5C002B0AD0012B00D02CE7424C14
:1060C000434B1888692100F0A3FF208024E73E4B52
:1060D0003F4A12881A801FE79A4207D8394909783F
:1060E000002903D035490978042911D09A421BD8D8
:1060F000344B1B78002B17D0454B1B786421594338
:106100000531334B188800F093FF2F4B188003E7BD
:10611000404B1B786031594305312D4B188800F0F6
:1061200087FF294B1880F7E63B4B3C4A12789B5C73
:106130000C2B00D9F0E69B00394AD3589F461D4BE3
:10614000B9229B5C012B08D01F4C214A354B10888B
:10615000198800F05DFF2080DEE61B4C1C4A314BA5
:106160001088198800F054FF0A2343432380D3E6A4
:10617000104BB9229B5C012B09D0144B198889B2B2
:10618000114C134B188800F043FF2080C4E60F4BDE
:10619000198889B20C4C0E4B188800F039FF0A237D
:1061A00043432380B8E6C046181600208D15002012
:1061B0008C15002048050020081600202B06002022
:1061C0008E150020BA1500202E1400201A1400206D
:1061D00030140020321600203C140020AA160020A3
:1061E0002414002022140020151600204214002040
:1061F000A8150020C1150020A91500208016002038
:10620000B71500208A1500208B150020941500205A
:10621000A5150020A31500207C1500207A1500206C
:10622000E09600103A140020934B2D22985C934B7B
:106230001B885843642100F0FBFE81B2904B19800B
:10624000904C914B188800F0E3FE208064E68E4B62
:1062500018888E4B197800F0EBFE8A4B18805BE6AD
:106260008B4C21888B4B18880822FBF79EFD2080E1
:10627000814BB9229B5C012B0BD0824C824D0A21B1
:1062800000F0C6FE0100288889B200F0C1FE20801F
:1062900042E67C4C7C4B1B880100180000F0B8FEE5
:1062A000208039E67C4B1988764C774B1888890812
:1062B00000F0AEFE20802FE6784B198889B2714C31
:1062C000714B188800F0A4FE208025E66A4BB922A5
:1062D0009B5C012B0AD0724B1978632911D96A4B48
:1062E000188800F0A5FE674B188015E66C4B1B78EC
:1062F0000A215943644B188800F09AFE614B1880BC
:106300000AE60A235943604B188800F091FE5D4B62
:10631000188001E6634C2188634B18880822FBF73C
:1063200044FD2080574C584D0A2100F071FE0100B9
:10633000288889B200F06CFE2080EDE5514C524A6D
:106340005A4B1088198800F063FE2080E4E54A4B20
:10635000B9229B5C012B0CD0554B18680A2100F028
:1063600057FE0100484B188800F052FE454B18803C
:10637000D2E5454B18884E4B196800F049FE414B59
:106380001880C9E53F4C404A4A4B1088198800F0F4
:106390003FFE2080C0E5484B187864235843474BA4
:1063A000197800F045FE83B2013B9BB2444A13804A
:1063B0000A215943344B188800F02AFE314B1880CB
:1063C000AAE5404B07229A71DA71AFE53E4B188877
:1063D000002817D0284BD0229B5C002B0CD000014A
:1063E0000A2100F025FE80B2384B1880C2B2354B2E
:1063F0009A71000AD87199E5C2B2324B9A71000ABB
:10640000D87193E52F4B07229A71DA718EE5304AE5
:1064100013787F210B401370A4E52D4A1378402197
:106420008B431370AAE52A4A137804218B43137017
:10643000B0E52449C95C8A18D2B20133DBB2072B1C
:10644000F7D9204B1A72234A8A235B00D3581B0EBC
:106450007F221A401E239B1A092B00D870BD0023EF
:10646000082BFBD8174AD25CD2B21A48C021490087
:1064700042500133DBB2F3E748050020241400202A
:10648000221400202E140020301400206D1500204E
:106490001E140020201400207E16002080160020EC
:1064A000BF15002034140020361400200A140020E8
:1064B0005815002038140020AA16002035060020A8
:1064C00032140020181600203C1400202C14002048
:1064D000321600200002004810B5244B1B889BB2E6
:1064E000234A934204D8214B1B889BB2092B24D802
:1064F000204B00221A80FCF7F3FCFDF787FBFCF72A
:106500000DFD1D4B187800010A2100F081FD1B4B89
:106510001870FDF7DBFB1A4B1A78511C1970032316
:106520001340022B1ED011D8002B16D0012B16D1F0
:10653000FDF7F8FCFCF724FE11E00C4B198889B23A
:10654000104800F065FD0B4B1880D4E7032B06D1F3
:10655000FCF7FCFCFEF782FA01E0FEF7BDFCFDF75C
:10656000E1FE10BDFFF708FBF9E7C0464806002032
:10657000FFEF0000381400209C1600206D1500204D
:106580007215002090D0030030B589B02022002180
:10659000684602F0A9FE2A4B1A682A4B9A4240D05C
:1065A000294B284A1A60294A2421515C19712C214F
:1065B000515C880009184800D8806021515A19811F
:1065C0006221515C9972918AD97200211973107EEF
:1065D00058739973D9736931515C19746821515C8E
:1065E00059746E21515C99746D21515CD9746B2181
:1065F000515C19758721515C5975C321515CD9755E
:106600006C21525C9A7569460A00180038C838C275
:1066100038C838C200230222094800F027FA09B01E
:1066200030BD6C4602222100054800F053FA0649AD
:106630000B00220031CA31C313CA13C3EFE7C046AF
:1066400000FF0010BBAA0000E8130020480500204E
:1066500030B589B06C4620220021200002F044FEB3
:10666000074B2200190029C929C229C929C20023C0
:1066700002222100034800F0F9F909B030BDC046FC
:10668000E813002000FF0010024A13680133136072
:106690007047C0463C160020F0B5DE4657464E46D1
:1066A0004546E0B589B0844B00E0013B002BFCD1AE
:1066B000FBF71EFB002800D001BE002309E07F4A43
:1066C000D25C7F49CA5412027E499800425001337D
:1066D000DBB2072BF3D9FAF71BFE0123009300234B
:1066E000002200210020FAF7D9FD77490020FAF7AF
:1066F000C9FDA021C9050B6874480340802292009F
:1067000013430B6072490B6803401A430A60714BD4
:106710001868FA21890000F07BFC013880235B04B3
:1067200098420DD26C4A50606C48036A1B021B0AE7
:10673000C02109060B4303620023936007331360F3
:1067400005AC0C220021200002F0CEFD23780C22A3
:106750001343237063790F22934691464A461343AD
:106760006371DBB260229046424613436371A379A2
:106770005A46934304263343A371237A3343237247
:10678000574882256D0043590C3A92469343435132
:10679000435901273B434351210000F009FF02AC5C
:1067A0000C220021200002F09FFD23780C2293434D
:1067B00008221343237063794A4613436371DBB2A3
:1067C000424613436371A3795A4693433343A371FB
:1067D000237A3343237243484359524693434351E8
:1067E00043593B434351210000F0E2FE00F010FA10
:1067F0003D4C3E4DA560FBF7ABFEFFF7C5FEFDF738
:1068000065FFA56000F09AF8394B00221A70394BE9
:106810009F60394BC52189005A58384D2A405A503B
:106820008021C9031960C62292009C583448044054
:106830008020C00120439850802080041860985820
:106840002840014399508022D2041A602D4B196BC5
:10685000802252000A431A631A6B2B490A401A63BA
:1068600009E0284B196B802252000A431A631A6B05
:1068700025490A401A63254B9B68DB07F1D5244B59
:106880001A68244B1A60184B184A9A60224B1B78DE
:10689000002B0DD01E4B1B68204A12689B1A192B27
:1068A000F1D91B4B1A681D4B1A60FFF715FEEAE77A
:1068B000FEF7CAFAEEE7C046C027090050060020DE
:1068C000401600204816002014970010FFFCFFFF20
:1068D00000000448FC3F002010E000E000ED00E074
:1068E000000403480008034800000240FECAADABA4
:1068F0003D0600200000015000E100E0FFFF00FF26
:10690000FF00FFFF00000140FFFEFFFF00010050FD
:106910003C16002038160020C61500203416002032
:106920000323034A1361034A1361034A1361704747
:1069300000010050000200500003005010B500F0AC
:1069400048F80B4A536A9B0801211940094B19600A
:10695000516A02240C40196821431960526A92005E
:10696000042111401A680A431A6000F036F810BD7D
:10697000000104406C16002010B5FFF7DFFF0D4B3F
:10698000196B802252000A431A631A6B0A490A40A3
:106990001A6309E0074B196B802252000A431A63FD
:1069A0001A6B05490A401A63044B9B68DB07F1D553
:1069B00010BDC04600000140FFFEFFFF0001005077
:1069C0000230800803D00138FDD1C046C046C04621
:1069D0007047EFF3108072B6704780F310887047ED
:1069E000064B1A89802149010A431A8148215A5AC3
:1069F0008020000102435A527047C0460000054003
:106A000010B50D4A13681B0AFF210B400B480360A9
:106A1000126811400A4A1160002B08D01B02C918E5
:106A2000084800F0F5FA4000074B186010BD064B0F
:106A3000064A1A60FAE7C04600030140B816002073
:106A4000B4160020000024F4FC3F00200048E801B8
:106A500010B5FFF7C5FFFBF73DF910BD704700000B
:106A6000014B188880B2704700000540F8B504005B
:106A70000D001700164A9188FF208143918091886C
:106A8000C020800101439180002B06D093886121B2
:106A90000B439BB2938000260BE00D4A9388A12103
:106AA0000B439BB29380F6E7FFF7DAFFC007FBD4F6
:106AB0000136BE4206D20023032BF5D802CD02C414
:106AC0000133F9E7024A9388FF218B439380F8BD95
:106AD0000000054030B5002505E010C810C10133A5
