:020000041000EA
:10100000480500201910001000000000A310001077
:1010100000040100000100001249134A134B00F0C4
:101020001AF8134880471349134A144B00F013F879
:101030001349144A144B00F00EF81449144A0020C6
:10104000521A02DD043A8850FCDC124880471248EC
:101050008047124880479B1A03DD043BC858D05094
:10106000FBDC704758A000100C0000204401002059
:10107000916F001090A10010480500205806002034
:10108000A0A2001058060020E80E0020E80E002064
:1010900038170020A11000109D980010416B00101F
:1010A0007047FEE70269C3689A4204D88068C01A94
:1010B000801801387047D01A0138FBE7F8B5CE46E2
:1010C000474680B504000E001700C568836899463E
:1010D0005B1B9846934209D94068401908F002FC0E
:1010E000ED19E560C0BCB946B046F8BD406840198E
:1010F0001A0008F0F7FB4B46ED1AED196068310055
:1011000041442A0008F0EEFBE560EBE7F8B5CE4677
:10111000474680B5060088461700C46800239946F4
:1011200014E0B2681B1BD218013A14E07068001971
:101130002A00414608F0D6FBA944A8447F1B641945
:10114000B368A34211D0F460002F10D033699C42E1
:10115000E7D21A1B013AB3681B1B934200D9130054
:101160003D009F42E2D91D00E0E70024EBE748463E
:10117000C0BCB946B046F8BD10B5134CA82200213A
:10118000200008F083FB0323236163610F4AA261FF
:101190000F4BE3618023DB0023620023A3626362C1
:1011A000E36222660B4A62661022A2662367E36648
:1011B000636706E00F22D21A0749895C024AD154BC
:1011C00001330F2BF6D910BDE80E00200499001052
:1011D000A00F0020900F002010990010F8B5030018
:1011E0000F001600421C5400A418E400174AA4186B
:1011F0004000C018C0001218D56A012D12D0022D6F
:101200001DD0002D02D000252800F8BD2000FFF7DA
:1012100049FF8642F8D8320039002000FFF74EFF20
:101220003500F1E72000FFF73DFF3500864200D989
:1012300005002A0039002000FFF740FFE4E73200F4
:101240002000FFF763FF0500DEE7C046E80E002040
:10125000F8B504000D001600094B1B78532B0CD178
:10126000EFF31087012181F310883200290020005C
:10127000FFF7B4FF87F31088F8BDFFF77DFFEFE7B6
:10128000E80E002070B505000C00080008F033FBE4
:10129000020021002800FFF7DBFF70BDF0B583B02E
:1012A00004000F0016000193184B1B78532B26D116
:1012B000022C27D8EFF31083012181F31088190045
:1012C000002C10D0114A601C43001D18ED00AF50D7
:1012D00053195E6063001B19DB00D318019A1A6270
:1012E00000229A625A62094B62001219D2009B18BE
:1012F000089ADA6281F31088002003B0F0BDFFF78E
:101300003BFFD5E701204042F7E7C046E80E00204A
:1013100010B5FFF731FF10BD10B504008268531CF3
:101320004068834205D820688154A360E368013394
:10133000E360A26863689A4200D010BD216820690A
:10134000FFF786FFA368984203D001235B42E36066
:10135000F3E70023A360F0E7F8B5DE4657464E46B4
:101360004546E0B581460D0014001E000A9B9A46D2
:101370000B9F08000123984605E0210006F0E8F8DD
:1013800001239C46E044A042F7D2B04500D2B046CB
:1013900001231A003A4093463B421AD15346002B90
:1013A00017D0BF0703D5002E19D0202700E0202733
:1013B0005346002B0DD0C2450BD901235B429C46FE
:1013C000E24439004846FFF7A7FF4B46DB68002B95
:1013D000EEDA4B46DB68002B2EDB012703E03027DB
:1013E000E6E7013E6743012EFBD83900280006F0EE
:1013F000AFF88442F6D900E007003900280006F073
:10140000A7F806003900280006F0C2F80D00164BB8
:10141000995D4846FFF780FF4B46DB68002B05DBF4
:101420002100380006F094F8A742E5D25B46002B75
:1014300002D05346002B05D1F0BCBB46B246A946AC
:10144000A046F8BD5346002BF6D0C245F4D901237F
:101450005B429C46E24420214846FFF75DFF4B4635
:10146000DB68002BEEDAE7E7B0990010F0B5D6465E
:101470004F4680B583B00600894615009A460A9FFC
:10148000CB17C8185840012403E0290006F070F873
:1014900001348542F9DD544500D25446002F06D070
:1014A0004B46002B02DB0B9B5B0700D5013F0B9BE0
:1014B0009B0702D55346002B04D00B9BDB0701D4BE
:1014C000002F18D1F368002B10DB4B46002B1FDBDD
:1014D0000B9B5B0723D4F368002B07DB03230B9ADA
:1014E0001340022B20D0F368002B2FDA03B0C0BCCE
:1014F000BA46B146F0BD002FE4D0A742E2D9013F81
:1015000020213000FFF708FFF368002BF3DAD9E75A
:101510005B4299462D213000FFF7FEFEDBE72B21D1
:101520003000FFF7F9FED6E75346002BDBD1002F42
:10153000D9D0002FD7D0A742D5D9013F30213000D4
:10154000FFF7EAFEF368002BF3DACCE70B9B01937D
:10155000009753462A0049463000FFF7FDFEC5E7D5
:10156000F0B599B006000C00150003AB13934023AF
:101570001493002315931790169366E00020012220
:101580000AE0002206E0302B03D102231843013485
:1015900000E00022002A13D023782D2B08D0F2D8A7
:1015A000232B09D02B2BECD1042318430134F1E772
:1015B000012318430134EDE7082318430134E9E718
:1015C000002722781300303BDBB2092B07D8013407
:1015D000BB00DB195B009B18303B1F00F1E72E2A94
:1015E00002D00023227812E00134002306E0013407
:1015F0009A00D218520052181300303B21780A008A
:10160000303AD2B2092AF2D9ECE7013422786C2AB6
:10161000FBD0682AF9D0252A62D012D3782A10D8B4
:10162000582A0ED3583AD1B220290AD88A0038490C
:101630008A5897462B681A1D2A60197813A8FFF755
:101640006BFE0134169B002B4FDB217801340029FF
:101650004BD0252992D013A8FFF75EFEF2E72A6847
:10166000111D29601168019000970A2213A8FFF745
:10167000FDFEE6E72A68111D2960116801900097B8
:101680000A2213A8FFF768FEDBE72A68111D29600C
:10169000116801900097102213A8FFF75DFED0E7B4
:1016A0002B681A1D2A601F68002F0AD0397801376D
:1016B0000029C6D013A8FFF72FFE169B002BF5DAE2
:1016C000BFE7144FF2E72B681A1D2A601968002340
:1016D000019308330093102213A8FFF73DFEB0E7F3
:1016E000252113A8FFF718FEABE7169B002B06DD9C
:1016F000159A002A06D1159A169B9B1816931698D0
:1017000019B0F0BD03A93000FFF7A2FDF3E7C04612
:101710002C990010249900100EB400B582B003ABD0
:1017200002CB019301AAFFF71BFF02B008BC03B074
:10173000184710B500F008F800F06CFB10BD10B5AC
:10174000FFF7F7FF10BD0000F0B5DE4657464E46E6
:101750004546E0B585B0FE4C0021200005F086FD31
:1017600080235B009846E360FA49FB4F380005F0A0
:1017700097FD02239B46FB6304267E638021C904F8
:10178000200005F085FD07232361F44A012138007C
:1017900005F0C7FDF24A0221380005F0C2FDF14A0A
:1017A0000321380005F0BDFD01220121380005F0BC
:1017B0009DFD01220221380005F0E6FDA4257B599C
:1017C00033437B5101218A46E16000263E67F96080
:1017D000E549E64F380005F07AFDE54B7B63802153
:1017E0000905200005F054FD70212161E14A6F399F
:1017F000380005F096FDE04A0221380005F091FD21
:10180000DE4A0321380005F08CFD0121380005F087
:1018100081FD5A46E2603E675246FA60D849D94F88
:10182000380005F03DFDA023FB63D74B7B6380218F
:101830008905200005F02CFDE022D2012261D34A67
:101840000121380005F06DFDD14A0221380005F074
:1018500068FDD04A0321380005F063FD0821E160EE
:101860003E675446FC60A024E4050021200005F0FA
:10187000B7FD4746E760C849C84F380005F0C2FDCC
:10188000D2239B009846FB637E64D223DB009946FB
:101890001900380005F021FE8021C904200005F060
:1018A000CCFD07222261BE4A0121380005F0E2FD8D
:1018B000BC4A0221380005F0DDFDBB4A0321380097
:1018C00005F0D8FD01220121380005F0BFFD534687
:1018D000E360B649380005F027FE3E67B449B54FCE
:1018E000380005F08FFD4346FB637E6449463800AF
:1018F00005F0F3FD80210905200005F09EFD702014
:101900002061AD4A0121380005F0B4FDAB4A022147
:10191000380005F0AFFDAA4A0321380005F0AAFD02
:1019200001220121380005F091FD5846E060A549EB
:10193000380005F0F9FD3E67A349A44F380005F0D3
:1019400061FD4046F8637E644946380005F0C5FDF8
:1019500080214905200005F070FDE023DB002361B4
:101960009B4A0121380005F085FD9A4A0221380082
:1019700005F080FD984A0321380005F07BFD012227
:101980000121380005F062FD0423E360934938002B
:1019900005F0CAFD3E679249924F380005F032FDCE
:1019A0004046F86378644946380005F096FD80218A
:1019B0008905200005F041FDE020C00120618A4A30
:1019C0000121380005F056FD884A0221380005F053
:1019D00051FD874A0321380005F04CFD0122012109
:1019E000380005F033FD03220021380005F078FDB2
:1019F00002220121380005F073FD00220421380085
:101A000005F06EFD01220321380005F069FD7B59C8
:101A1000504603437B517B59584603437B517B59C6
:101A2000102213437B517B5908210B437B51E1600A
:101A30003E67704C200005F0BBFD236803218946FA
:101A40008B4323606C49200005F0BEFD6B492000EC
:101A500005F0C4FD00220221200005F0CAFD636FDD
:101A60000422134363676649664C0022200005F098
:101A7000CBFDE36950229343E361E369493A934321
:101A80004A461343E361E26B5F4B1A4080231B011C
:101A90001343E3635D4B2361953D029501960096E8
:101AA0003A2300220021200005F0AEFE1F2305226C
:101AB0000021200005F0D8FE1F2305222021200050
:101AC00005F0BCFE236CAB435A4613432364504DD0
:101AD0006E602A791F231A432A714E4A9046566037
:101AE00012791A4341460A71AE602A7A1A432A7261
:101AF0008E600A7A13430B724749484F380005F04D
:101B000001FF474C2900200005F068FF454D414684
:101B1000280005F063FF0321200005F09FFF03214B
:101B2000280005F09BFF8023FA583F490A40FA50ED
:101B3000FA583E490A40FA50380005F0FFFE81236A
:101B40009B00FA5849468A43FA50FA5851466FE0CA
:101B5000000004482C9A001000010448349A001038
:101B6000389A00103C9A0010489A0010000204486D
:101B7000FFFF0000509A0010549A0010589A00106D
:101B8000F09A001000040448FF040000F89A0010C6
:101B9000FC9A0010009B00105C9A0010000100509D
:101BA000789A00107C9A0010809A00106C9A0010AD
:101BB000849A001000020050A09A0010A49A00100D
:101BC000A89A0010949A0010AC9A001000030050DC
:101BD000C89A0010CC9A0010D09A0010BC9A00103D
:101BE000D49A001000040050E49A0010E89A001003
:101BF000EC9A001000000150449A0010409A001026
:101C0000C099001000020048FFE0FFFF21810000A2
:101C1000A0130020B4130020209B001000000348F4
:101C20000004034800080348FFFFFEFFFFFFFDFF1D
:101C30000A43FA506749380005F024FF82277F00E5
:101C4000E3594A469343E351E35952461343E35160
:101C50000021200005F0AAFF0121200005F0A6FFC9
:101C60000221200005F0A2FF0321200005F09EFFC5
:101C70005949200005F062FF584B1B689846002325
:101C800000224146200005F07DFE0023012241464E
:101C9000200005F077FE524B1B6898460123002276
:101CA0004146200005F06EFE01230122414620003E
:101CB00005F068FEFA2292000021200005F0D6FE11
:101CC000AF239B009B46F0235B035A46A350A923F6
:101CD0009B00E6501C3BE650793BFF3B98461A00C0
:101CE000E93BA350053BA350013BA3503D4A0121D2
:101CF000200005F065FF3C4A0221200005F060FF4E
:101D00003A4A0721200005F05BFFEB594A4693430E
:101D1000EB51EB5952461343EB510021280005F0DB
:101D200045FF0121280005F041FF0221280005F0B0
:101D30003DFF0321280005F039FF2D49280005F05B
:101D4000FDFE2C4B1C68002300222100280005F01A
:101D500019FE002301222100280005F013FE264B66
:101D60001C68012300222100280005F00BFE01233E
:101D700001222100280005F005FE204B5A46AB50F9
:101D8000A4239B00EE500433EE5042462723AB5071
:101D9000013BAB50063BAB50194A0021280005F02F
:101DA0000FFF184A0621280005F00AFF164A0721EE
:101DB000280005F005FF154805F04EFF144A53684A
:101DC00051460B43536005B0F0BCBB46B246A94632
:101DD000A046F0BD149B0010389B0010049B00101F
:101DE000089B0010CC990010DC990010EC990010B1
:101DF000449B00100C9B0010109B001000001E80E4
:101E0000FC9900100C9A00101C9A0010509B0010B6
:101E10000000024010B57F4A7F4C0021200005F0F1
:101E200007F900220021200005F085FB7B4A0A21EA
:101E3000200005F0FDF800220A21200005F07BFBC0
:101E4000774A0D21200005F0F3F800220D21200033
:101E500005F071FB734A0121200005F0E9F800222A
:101E60000121200005F067FB6F4A0221200005F0E8
:101E7000DFF800220221200005F05DFB6B4A032100
:101E8000200005F0D5F800220321200005F053FBC7
:101E9000674A0421200005F0CBF80022042120002D
:101EA00005F049FB634A0521200005F0C1F8002236
:101EB0000521200005F03FFB5F4A0621200005F0C8
:101EC000B7F800220621200005F035FB5B4A072108
:101ED000200005F0ADF800220721200005F02BFBC3
:101EE000574A0821200005F0A3F80022082120000D
:101EF00005F021FB534A0921200005F099F8002242
:101F00000921200005F017FB4F4A504C002120000A
:101F100005F08EF800220021200005F00CFB4C4A51
:101F20000121200005F084F800220121200005F0A5
:101F300002FB484A0221200005F07AF80022022123
:101F4000200005F0F8FA444A0321200005F070F85B
:101F500000220321200005F0EEFA404A052120006E
:101F600005F066F800220521200005F0E4FA3C4A5D
:101F70003C4C0A21200005F05BF800220A212000D9
:101F800005F0D9FA384A0B21200005F051F800225B
:101F90000B21200005F0CFFA344A0221200005F081
:101FA00047F800220221200005F0C5FA304A04213A
:101FB000200005F03DF800220421200005F0BBFAC6
:101FC0002C4A0521200005F033F8002205212000CD
:101FD00005F0B1FA284A0621200005F029F8002270
:101FE0000621200005F0A7FA244A0821200005F068
:101FF0001FF800220821200005F09DFA204A09213F
:10200000200005F015F800220921200005F093FAC0
:1020100010BDC046D49B001000000440949B0010EB
:10202000BC9B0010DC9B0010E49B0010EC9B00109C
:10203000C49B0010B49B00108C9B0010849B00106C
:10204000F49B0010FC9B0010AC9B001000010440AE
:10205000A49B00109C9B0010049C0010CC9B0010C3
:10206000749B0010000204407C9B0010149C001024
:102070005C9B00100C9C00101C9C0010649B0010CA
:102080006C9B001030B585B001A8044B020032CB28
:1020900032C205F0C1F805B030BDC046249C001026
:1020A00010B5FFF74CFB002010BD70B505000E0009
:1020B0001C0004AB18888D421FD395421ED2521AC1
:1020C00091B2A0420CD2AE1BB6B2201A80B27043BD
:1020D0004B08C01805F03CFA80B2201A80B20DE01F
:1020E000AD1BADB2001B80B268434B08C01805F0B1
:1020F0002FFA80B2001980B200E0200070BD70B5E8
:102100001D0004AB1B7888421DD990421DD2AB4202
:102110000CD2441AE4B2E81AC0B26043511AC9B2F0
:1021200005F026FAC0B2281AC0B20DE0441AE4B293
:10213000581BC0B26043511AC9B205F019FAC0B2B7
:102140004019C0B200E0280070BD1800FCE7030091
:1021500008008B4200D21800704770B505000C00D3
:102160000A2A15D80A20801A68434A438018053085
:102170000A2105F0EDF980B284420AD1854202D9E4
:10218000013080B205E0854203D2013880B200E020
:10219000002070BD002803D0044B20225A607047F5
:1021A000024B802292035A60F9E7C04600010440C6
:1021B00010B509280FD8094B1B68094A8400A2589A
:1021C0009B1A8B4201D8002006E0044B1A68044B8E
:1021D000E250012000E0002010BDC046A4160020FF
:1021E000C813002010B5CF4B1B88CF4A12889342EA
:1021F00000D033E3CC4C2380CC4B1B886380CC4B8A
:102200001B78643B237100232371CA4B1B886371C5
:102210000E236371C84B1B88E380C84B1B88238146
:10222000C74B1B886381C74B1B88A381C64B1B8888
:10223000E381C64B1B882382C54B1B886382C54B39
:102240001B882375C44B1B886375C44B1B88A375FF
:10225000C34B1B88E375C34B1B882376C24B1B887B
:102260006383C24B1B88A383C14B1B88A377C14BDD
:102270001B88E377C04B1A882023E254BF4B1A888F
:102280002123E254BE4B1A882223E254BD4B1B8803
:10229000A384BD4B1B88E384BC4B1A882823E254DB
:1022A000BB4B1A882923E254BA4B1A882A23E254DA
:1022B000B94B1A882B23E254B84B1A882C23E254CA
:1022C000B74B188806F070FAB64905F043FD206355
:1022D000B54B188806F068FAB24905F03BFD60631B
:1022E000B24B188806F060FAAE4905F033FDA063E2
:1022F000AF4B188806F058FAAA4905F02BFDE063A9
:10230000AC4B188806F050FAA64905F023FD20646E
:10231000A94B188806F048FAA24905F01BFD606435
:10232000A64B188806F040FA9E4905F013FDA064FC
:10233000A34B188806F038FA9A4905F00BFDE064C3
:10234000A04B188806F030FA964905F003FD206589
:102350009D4B188806F028FA924905F0FBFC606551
:102360009A4B188806F020FA8E4905F0F3FCA06518
:10237000974B188806F018FA8A4905F0EBFCE065DF
:10238000944B1A886023E252934B1A886223E254DA
:10239000924B1A886323E254914B1A886423E254C7
:1023A000904B1A886523E2548F4B1A886623E254B7
:1023B0008E4B1A886723E2548D4B1A886823E254A7
:1023C0008C4B1A886923E2548B4B1A886A23E25497
:1023D0008A4B1A886B23E254894B1A886C23E25487
:1023E000884B1A886D23E254874B1A886E23E25477
:1023F000864B1A886F23E254854B1A887023E25467
:10240000844B1A887123E254834B1A887223E25456
:10241000824B1A887423E252814B1A887623E25445
:10242000804B1A887723E2547F4B1A887823E25432
:102430007E4B1A887923E2547D4B1A887A23E25422
:102440007C4B1A887B23E2547B4B1A887C23E25412
:102450007A4B1A887D23E254794B1A887E23E25402
:10246000784B1A887F23E254774B1A888023E254F2
:10247000764B1A888123E254754B1A888223E254E2
:10248000744B1A888323E254734B1A888423E254D2
:10249000724B1A888523E254714B1A888623E254C2
:1024A000704B1A888723E2546F4B1A888823E254B2
:1024B0006E4B1A888923E2546D4B1A888A23E254A2
:1024C0006C4B1A888B23E2546B4B1A888C23E25492
:1024D0006A4B1A888D23E254694B1A888E23E25482
:1024E000684B1A888F23E254674B1A889023E25472
:1024F000664B1A889123E254654B1A889223E25462
:10250000644B1A889323E254634B1A889423E25451
:10251000624B1A889623E252614B1A889823E25242
:10252000C0E0C04600F000104805002002F0001096
:1025300004F0001006F0001008F000100AF000107F
:102540000CF000100EF0001010F0001012F000104F
:1025500014F0001016F0001018F000101AF000101F
:102560001CF000101EF0001020F0001022F00010EF
:1025700024F0001026F0001028F000102AF00010BF
:102580002CF000102EF0001030F0001032F000108F
:1025900034F0001036F0001038F000103AF000105F
:1025A0003CF000100000C8423EF0001040F0001067
:1025B00042F0001044F0001046F0001048F0001007
:1025C0004AF000104CF000104EF0001050F00010D7
:1025D00052F0001054F0001056F0001058F00010A7
:1025E0005AF000105CF000105EF0001060F0001077
:1025F00062F0001064F0001066F0001068F0001047
:102600006AF000106CF000106EF0001070F0001016
:1026100072F0001074F0001076F0001078F00010E6
:102620007AF000107CF000107EF0001080F00010B6
:1026300082F0001084F0001086F0001088F0001086
:102640008AF000108CF000108EF0001090F0001056
:1026500092F0001094F0001096F0001098F0001026
:102660009AF000109CF000109EF00010A0F00010F6
:10267000A2F00010A4F00010A6F00010A8F00010C6
:10268000AAF00010ACF00010AEF00010B0F0001096
:10269000B2F00010B4F00010B6F00010B8F0001066
:1026A000BAF000106E4B1A889A23E2526D4B1A88CA
:1026B0009C23E2526C4B1A889E23E2546B4B1A887F
:1026C0009F23E2546A4B1A88A023E254694B1A886C
:1026D000A123E254684B1A88A223E254674B1A885C
:1026E000A323E254664B1A88A423E254654B1A884C
:1026F000A523E254644B1A88A623E254634B1A883C
:10270000A723E254624B1A88A823E254614B1A882B
:10271000A923E254604B1A88AA23E2545F4B1A881B
:10272000AB23E2545E4B1A88AC23E2545D4B1A880B
:10273000AD23E2545C4B1A88AE23E2545B4B1A88FB
:10274000AF23E2545A4B1A88B023E254594B1A88EB
:10275000B123E254584B1A88B223E254574B1A88DB
:10276000B323E254564B1A88B423E254554B1A88CB
:10277000B523E254544B1A88B623E254534B1A88BB
:10278000B723E254524B1A88B823E254514B1A88AB
:10279000B923E254504B1A88BA23E2544F4B1A889B
:1027A000BB23E2544E4B1A88BC23E2544D4B1A888B
:1027B000BD23E2544C4B1A88BE23E2544B4B1A887B
:1027C000BF23E2544A4B1A88C023E254494B1A886B
:1027D000C123E254484B1A88C223E254474B1A885B
:1027E000C323E254464B1A88C423E254454B1A884B
:1027F000C523E254444B1A88C623E254434B1A883B
:10280000C723E254424B1A88C823E254414B1A882A
:10281000C923E254404B1A88CA23E2543F4B1A881A
:10282000CB23E2543E4B1A88CC23E2543D4B1A880A
:10283000CD23E2543C4B1A88CE23E2543B4B1A88FA
:10284000CF23E2543A4B1A88D023E254394B1A88EA
:10285000D123E254384B1A88D223E25410BDC0462B
:10286000BCF00010BEF00010C0F00010C2F000106C
:10287000C4F00010C6F00010C8F00010CAF000103C
:10288000CCF00010CEF00010D0F00010D2F000100C
:10289000D4F00010D6F00010D8F00010DAF00010DC
:1028A000DCF00010DEF00010E0F00010E2F00010AC
:1028B000E4F00010E6F00010E8F00010EAF000107C
:1028C000ECF00010EEF00010F0F00010F2F000104C
:1028D000F4F00010F6F00010F8F00010FAF000101C
:1028E000FCF00010FEF0001000F1001002F10010EA
:1028F00004F1001006F1001008F100100AF10010B8
:102900000CF100100EF1001010F1001012F1001087
:1029100014F1001016F1001018F100101AF1001057
:102920001CF100101EF1001020F1001022F1001027
:1029300024F1001026F1001028F10010F0B5DE4659
:1029400057464E464546E0B589B0FFF74BFCF94C7B
:10295000E28C01922C23E05C5043642104F0F8FDEA
:10296000F54B1880227EF54B1A70658BB723E35C1C
:102970009A46ED1AADB2F24B1D80F24BA0221A809E
:10298000237D0293002B00D1CBE268004019400068
:10299000A02104F0EDFD0130EB4B1880A800401998
:1029A0008000A02104F0E4FD0130E84B1880BF2234
:1029B000A05C6843A02104F0DBFD0130E44B1880EB
:1029C000E14B1B889946E14B1C8864004B46E41A96
:1029D000A4B2E41AA4B2DF4B1C802900FA20400103
:1029E00004F0C6FDDC4B1880DC4B50221A80D14E1F
:1029F000C023F75C6437B800C0190001642104F0FB
:102A0000B7FD85B2D64B1D80D64B782290461A80F2
:102A10003801C01B8000642104F0AAFD0700434672
:102A20004A469B1ACA4A1088804698442001001BD7
:102A3000C000A02104F09CFD4346181A7843782179
:102A400004F096FD80B2C84B18802C004443281A2D
:102A5000830018184000C123F15C04F089FD291A95
:102A6000200004F085FD0100C04804F081FDC22370
:102A7000F35C5843222104F07BFDC3B2039318009A
:102A8000BB4B18808423F75CBA4B1F707A08BA4B93
:102A90001A707E23F35C002B04D18022B35C002BE0
:102AA00000D14FE2A34C236B9B46B449181C05F0A0
:102AB0001BFB05F019F9B24B1880636BAF49049307
:102AC000181C05F011FB05F00FF9AE4B1880A26B36
:102AD0009146AA49101C05F007FB05F005F9AA4B21
:102AE0001880E26B9046A549101C05F0FDFA05F030
:102AF000FBF8A64B1880226CA0490592101C05F02B
:102B0000F3FA05F0F1F8A24B1880666C9B49301C73
:102B100005F0EAFA05F0E8F89E4B1880E56D974954
:102B2000281C05F0E1FA05F0DFF89B4B18802823FC
:102B3000E05C05F0E7FD041C9849584605F0D4FA1E
:102B4000011C201C05F0D0FA05F0CEF8944B18803B
:102B50009249049805F0C8FA011C201C05F0C4FA3B
:102B600005F0C2F88F4B18808C49484605F0BCFA36
:102B7000011C201C05F0B8FA05F0B6F88A4B188045
:102B80008649404605F0B0FA011C201C05F0ACFA5D
:102B900005F0AAF8854B18808049059805F0A4FA3D
:102BA000011C201C05F0A0FA05F09EF8804B18804F
:102BB0007A49301C05F098FA011C201C05F094FAA3
:102BC00005F092F87B4B18807449281C05F08CFAAC
:102BD000011C201C05F088FA05F086F8764B188059
:102BE000544BB6229D5CAB00ED186D00734B1D80FD
:102BF000734B1D804F2D00D977E2724B663A1A80D5
:102C00004C4CB823E25C704B1A70704B1F70BD23A4
:102C1000E25C6F4B1A706923E25C6E4B1A7087237B
:102C2000E25C6D4B1A706823E25C6C4B1A706C238B
:102C3000E25C6B4B1A70A27D6A4B1A706423E25CF3
:102C4000694B1A70BC22A25C5A707023E25C674B1D
:102C50001A707123E25C664B1A706D23E25C654B5F
:102C60001A70E27D644B1A702B23E05C019B584381
:102C7000642104F06DFC304B18802923E25C5F4B2B
:102C80001A705F4B039A1A705E4B52461A805E4B65
:102C90001A805E4B1A801E3A5D4B1A8053461E33D3
:102CA0005C4A13805C4B029A1A706223E25C5B4BB5
:102CB0001A707622A25C5A70C823E25C584B1A70D4
:102CC000CD23E25C574B1A70CE22A25C5A70564B51
:102CD0001D703C4A12885A70C423E25C534B1A7030
:102CE0006B23E25C524B1A708F23E25C514B1A70DB
:102CF0009022A25C5A709122A25C9A709222A25CED
:102D0000DA709322A25C1A719422A25C5A71892310
:102D1000E25C494B1A708A22A25C5A708B22A25C38
:102D20009A708C22A25CDA708D22A25C1A718E22BB
:102D300084E0C046480500206214002025160020CB
:102D4000FA130020FE130020F0130020F6130020D9
:102D5000F8130020F2130020FC13002002140020BE
:102D60000014002004140020F4130020A80F000019
:102D7000321400201F1400201E1400200000C8423E
:102D80002C1400202A1400202814002026140020CF
:102D900024140020221400202014002000002041D0
:102DA00012140020101400200E1400200C14002017
:102DB0000A14002008140020061400201C1400200F
:102DC000181400201A140020CC150020EE15002045
:102DD000F215002064160020CD1500206F1600208B
:102DE0007A160020CA150020901600201416002024
:102DF0001516002016160020CB15002021160020E5
:102E00002416002070140020741400207214002076
:102E100078140020761400207B16002098160020DD
:102E20000F16002078160020DC15002069160020FF
:102E30006A160020E0150020E8150020A25C5A71F7
:102E4000AB4B00221A709621665A7608F6B25E7075
:102E50000231655A6D08EDB29D700231605A40082A
:102E6000C0B2D8700231615A4908C9B219715A7199
:102E70009E27E75D9F719F27E75DDF71A027E75DD4
:102E80001F72A127E75D5F729A72A227E75DDF726A
:102E9000A327E75D1F73A427E75D5F73A527E75DA1
:102EA0009F73DA73A627E75D1F74A727E75D5F743A
:102EB000A827E75D9F74A927E75DDF741A755E7523
:102EC0009D75D87519765A76B121615C9976B221D3
:102ED000615CD976B321615C1977B421615C597763
:102EE0009A77AA21615CD977AB21605C8B39585401
:102EF0008C31605C8B3958548C31605C8B39585400
:102F000001315A5401315A5401315A5401315A5441
:102F100001315A5409B0F0BCBB46B246A946A0469E
:102F2000F0BD744B06221A80734B0E321A80734B1D
:102F3000AB32985C6843A02104F01AFB0130704B5F
:102F400018803DE56D4C266B301C06F0EFFA002230
:102F50006C4B05F071FC04F0DFFE6B4B1880636B6B
:102F60000493181C06F0E2FA0022664B05F064FC9C
:102F700004F0D2FE654B1880A26B91466449101C88
:102F800005F0B2F804F0B0FE624B1880A26C9346D4
:102F90005F49101C05F0A8F804F0A6FE5E4B1880EF
:102FA000E26C5B490592101C05F09EF804F09CFE53
:102FB0005A4B1880216D0D1C55490695281C05F0AB
:102FC00093F804F091FE564B1880616D0D1C50492A
:102FD0000795281C05F088F804F086FE514B1880F0
:102FE000A16D88464A49404605F07EF804F07CFE13
:102FF0004D4B1880E56D4649281C05F075F804F026
:1030000073FE4A4B18802823E05C05F07BFB041C10
:103010004749301C05F068F8011C201C05F064F8D5
:1030200004F062FE434B18804149049805F05CF8B7
:10303000011C201C05F058F804F056FE3E4B188089
:103040003B49484605F050F8011C201C05F04CF89F
:1030500004F04AFE394B18803549584605F044F8CB
:10306000011C201C05F040F804F03EFE344B188093
:103070002F49059805F038F8011C201C05F034F89C
:1030800004F032FE2F4B18802949069805F02CF8E1
:10309000011C201C05F028F804F026FE2A4B18809D
:1030A0002349079805F020F8011C201C05F01CF8A6
:1030B00004F01AFE254B18801D49404605F014F80F
:1030C000011C201C05F010F804F00EFE204B1880A7
:1030D0001749281C05F008F8011C201C05F004F80D
:1030E00004F002FE1B4B18807AE51B4B1D8087E520
:1030F00030160020F0130020F613002048050020B1
:10310000F813002000005940301400202E14002035
:103110000000C8422C1400202A140020281400208B
:103120002614002024140020221400202014002043
:103130000000204116140020141400201214002056
:10314000101400200E1400200C1400200A1400207B
:1031500008140020061400201A14002070B5164B25
:103160001B78002B14D0012B16D0144B1B78002B8E
:103170000DD0134D2C88134B134A12785200D05A9D
:103180006043642104F0E4F980B224182C8070BDFF
:103190000A4B01221A70E8E70C4B1B88002B03D165
:1031A000064B01221A70E0E7074B1B782D2BDCD968
:1031B000024B00221A70D8E7691600206B16002017
:1031C0006A140020A4140020231600209E1500205D
:1031D00010B5194B1B78002B0BD1184B1B88002BFB
:1031E00007D1174B01221A70164B174A12781A7022
:1031F0001DE0134B1B78002B19D0124B1B78002BB2
:1032000016D0104A013B13700E4B1B7864205843B4
:103210000D4B197804F0ACF983B26420C01A80B267
:103220000A4C23885843642104F0A2F9208010BD81
:10323000034B00221A70E7E72316002098140020A1
:103240006616002065160020360600206A1400204D
:1032500010B5184B1B78002B27D0174A1378591C30
:103260001170DB0703D5154A138801331380134B04
:103270001A88C8239B009A4202D9104BA0221A80B8
:103280000E4B1B88DB08DBB20D4A13700D4A927D92
:10329000D2B20D498B540D4B1B8864205843A72193
:1032A00004F056F90A4B188010BD044BA0221A8076
:1032B000FAE7C0467D1600206E1600209E140020FE
:1032C000251600204814002028160020A0140020F5
:1032D000A214002010B50F4B1B889BB2002B15D0F9
:1032E0000C4B198889B20C4B1889AB239B005843AF
:1032F00004F02EF9094B1880094B1B78002B04D0E1
:10330000064A99005B185B00138010BD034B002236
:103310001A80F1E7F4160020481400209E150020C2
:103320009A16002008490A889308D21A92B20A8095
:10333000064B1B889B189BB20B80054A9B085721A4
:103340004B4313807047C04664140020E4160020ED
:1033500086140020714B9B7C012B5FD06F4B9B7CB4
:10336000022B5BD06D4B9B7C052B57D06B4B9B7C12
:10337000042B53D06A4B00221A706A4B1A880A2A0F
:1033800007D9674B1B78002B50D1644B9B7C032BD8
:103390004CD0654B00211970634B1B783C2B02D934
:1033A000624B09211970624B1988624B1B88994244
:1033B00002D05E4B09211970594B1978002914D09D
:1033C0005D4B1B880A3B9BB291204000834209D889
:1033D0005A4B1888FA235B00984203D8584B1B7845
:1033E000002B02D0514B02201870564B1B885B08F3
:1033F000143355480088834225D2544B1B78002B48
:1034000021D100291FD0524B1B78013BDBB2812B0D
:1034100019D950490B7801330B7017E04E4B1B78CC
:10342000002BA7D13E4B01221A70A6E74B4B1B780D
:10343000002B03D04A4B1B78002BAAD13A490B78BA
:1034400001330B70A8E7434B00211970414B1B78E7
:10345000FA2B02D9354B03211970424B1B78002BF4
:103460001FD15A2A0CD92D4B9B7C072B08D02B4BF4
:103470009B7C062B04D03C490B8801330B8002E077
:10348000394B00211980394B1B88002B02D0364B59
:1034900000211980344B1B887D2B02D9234B082136
:1034A0001970334B1B781E2B0FD9092A0DD8314ABE
:1034B00013780133DBB213700A2B09D91B4B04229A
:1034C0001A702C4B00221A7002E02A4B00221A704C
:1034D000294AC5239B00D3589B109B059B0D274A67
:1034E00013800E4B5B7CDBB2254AD35C002B13D0E0
:1034F000244B1B78132B0FD8224A013313701F4B18
:103500001A8892080B4B79215B5C0533DBB29A4237
:1035100002D9064B05221A707047C0464814002095
:103520005916002098140020201600207016002044
:1035300000F00010480500207014002068140020DE
:10354000C7150020FE1300206C1400206816002010
:1035500023160020D5150020C8150020C615002010
:103560000E160020721600208A1400209E150020DE
:10357000D11500201F16002000080348E016002087
:10358000781600207416002010B52A4B1B78002BEB
:1035900011D0294B1A78C8239B0053439BB2274A6A
:1035A00010885843264B19894B00C918C90103F0EC
:1035B000CFFF244B1880244B6A229B5C002B22D027
:1035C000204B1C88002C07D0204B1888210003F0CA
:1035D000BFFF84B26400A4B21D4B1988002906D035
:1035E0001A4B188803F0B4FF81B2490089B2194B15
:1035F0001B78002B0FD08C4206D2091B89B2164AC9
:1036000013685B18136010BD611A89B2124A1368FF
:103610005B1A1360F7E7002CF5D00F4B1B680F4ABD
:103620009342F0D90C4A1B1B1360064B00221A80F0
:10363000E9E7C0460816002022160020F4160020F4
:10364000481400209C1400204805002090140020FD
:103650008E140020F11500202406002000E1F5055D
:1036600070B582B0204B1888C72807D91F4B182285
:103670001A701F4B0F3A1A7002B070BD1D4E33788E
:103680008008C0B21825009532220A21FEF737FDC6
:10369000164C20703378184A107800954622142171
:1036A000FEF72DFD2378834201D9104B1870134E7D
:1036B00033780D4A10888008C0B20925009532225F
:1036C0000A21FEF71CFD0A4C207033780A4A107854
:1036D000009546221421FEF712FD23788342CBD9B0
:1036E000034B1870C8E7C0469E1500203006002026
:1036F0002E06002031060020231600202F06002071
:1037000010B5344B1C78344B5B7B002B0ED0334B05
:103710001B78002B0AD1324B1A88324B1978782348
:103720005B1A9A4202DD2D4B01221A702A4B1B7D37
:10373000002B40D1294B1A78002A03D12A4B1B7841
:10374000002B37D0264B1988284B1B784B4354430A
:1037500063435B0A5801C01A8000C018C000244BA4
:10376000198803F0F5FE84B22409FFF779FF214B95
:103770001A78A24222D2204B1A70204B88229B5CDE
:10378000002B0FD01E4B1B78002B1AD01A4B1B7826
:10379000154A1278934201D9134A1370164B124AF4
:1037A00012781A70144B1B78002B0ED0154B164A4A
:1037B00012781A7010BDFFF7D1FCBBE70E4B1C70DE
:1037C000DBE7094B00221A70ECE70E4B00221A705F
:1037D000F0E7C0462D1600204814002023160020D4
:1037E0006A140020CB150020671600202516002043
:1037F0008614002028060020C61500204805002059
:10380000681600200E1600203506002070B5334BD8
:10381000C9229B5C002B53D1314B5B7B002B0ED01C
:10382000304B1B78002B0AD12F4B1A882F4B19785D
:1038300078235B1A9A4202DD2A4B01221A70284B28
:103840009B7B002B02D0274B01221A70264B1B8832
:10385000002B03D0234A1278002A03D1244A12787D
:10386000002A2CD0234A10785843782103F080FE98
:10387000040085B2FFF7F4FE1F4B1A78AA4222D249
:103880001E4B1A70154B88229B5C002B0FD01C4BD3
:103890001B78002B1AD0194B1B78154A12789342CB
:1038A00001D9134A1370154B114A12781A70134B31
:1038B0001B78002B0ED0134B134A12781A7070BD70
:1038C000FFF786FCA8E70D4B1C70DBE7084B0022D6
:1038D0001A70ECE70B4B00221A70F0E74805002045
:1038E00048140020231600206A140020CB15002065
:1038F000671600202D16002028060020C61500207F
:10390000681600200E1600203506002010B51A4B50
:103910001A78002A27D0194B1B789B189B10184A3D
:103920001380184B1B78A42B02D8164BA5221A70B3
:10393000FFF74EFC134B144A12781A70104B1C8878
:10394000124A12881A80FFF78BFE114B1A78A24296
:103950000AD2104B1A700F4B1B78002B07D00E4B5E
:103960000E4A12781A7010BD0A4B1C70F3E70A4B0E
:1039700000221A70F7E7C046231600202D160020FB
:103980006A14002036060020370600206E1400203E
:1039900028060020C61500200E160020350600203F
:1039A00070B5394B5B7B002B0ED0384B1B78002B4E
:1039B0000AD1374B1A88374B197878235B1A9A4209
:1039C00002DD324B01221A702F4B9B7B002B02D061
:1039D0002E4B01221A702E4B1888002803D02B4B37
:1039E0001B78002B03D12C4B1B78002B3DD02B4B8D
:1039F0001B785B00FE214900C91A89B2284B1B784D
:103A0000002B05D0214B1B788B422FD8C91A89B2C5
:103A10000A3189B24043081803F09AFD040085B2C8
:103A2000FFF71EFE1F4B1A78AA4221D21E4B1A70B6
:103A30001E4B88229B5C002B0FD01D4B1B78002B4C
:103A400019D0194B1B78144A1278934201D9124AA3
:103A50001370154B104A12781A70134B1B78002BF9
:103A60000DD0144B144A12781A7070BD0021CFE7A4
:103A70000D4B1C70DCE7084B00221A70EDE70D4B74
:103A800000221A70F1E7C0464814002023160020D7
:103A90006A140020CB150020671600202D16002088
:103AA0000F16002028060020C6150020480500201B
:103AB000681600200E1600203506002070B53F4B1A
:103AC000C9229B5C002B00D06AE03D4B5B7B002B46
:103AD0000ED03C4B1B78002B0AD13B4B1A883B4B3A
:103AE000197878235B1A9A4202DD364B01221A704C
:103AF000334B9B7B002B02D0324B01221A70314B8F
:103B00001D78002D03D1324B1B78002B47D02E4B54
:103B10001C88002C09D02F4B1A782F4B9B185879F2
:103B20006043782103F024FD84B22C4B1B786B4357
:103B30002B4A128853435B0A5801C01A8000C018F0
:103B4000C000284B198803F003FD80B200098442AD
:103B500000D20400FFF784FD234B1A78A24222D240
:103B6000224B1A70154B88229B5C002B0FD0204BE8
:103B70001B78002B1AD01D4B1B78154A12789342E4
:103B800001D9134A1370194B114A12781A70174B46
:103B90001B78002B0ED0174B174A12781A7070BD85
:103BA000FFF716FB91E7114B1C70DBE7084B002277
:103BB0001A70ECE70F4B00221A70F0E7480500205E
:103BC00048140020231600206A140020CB15002082
:103BD000671600202B060020301600202D1600202E
:103BE000A01400208614002028060020C6150020FE
:103BF000681600200E1600203506002030B583B070
:103C0000914BCC229B5C002B00D1C8E08F4B5B7C9E
:103C1000DBB28F4AD35C8F4A13708F4A11788F4A78
:103C20001278914200D196E08B490A70864A782139
:103C3000525C002A00D1B4E0834A1339525C002A56
:103C400000D18CE09BB2864A1288934200D994E05E
:103C5000844B1B78002B00D18FE0834B1B78002B0B
:103C600004D1824B1B78002B00D186E07B4B0622CF
:103C70001A707F4B1B78002B18D07D4A00231370DD
:103C80007C4A13807C4A13807C4AFA2149001180C7
:103C90007B4A13807B4A13807B4B7C4A12789B18AB
:103CA0005B7E9A009B185B00794A1380784A6C4BC4
:103CB00012881B88D21A93B210B26E4A10806F49D4
:103CC0000A889A1812B20A80FA2189008A4200DC16
:103CD000AEE06A4A1180684C2188591A8AB2684D50
:103CE000298020809B009BB251005218520092B252
:103CF00062490020085E81000918C9109B185B18F2
:103D00001BB2604A1380002B00DA98E05D4B002262
:103D10009A5EFA239B009A4203DD5A4BFA229200E4
:103D20001A805C4BF4221A705B4BAB3A1A705B4BF7
:103D30005B4A12781A70534B0020185E8010C0B294
:103D4000584B1B7800930023FA220021FEF7D7F985
:103D5000554B187023E0434A0121117066E79BB26E
:103D60003F4A1288934208D83E4B1B78002B04D060
:103D70003D4B1B78002B00D078E73A4B00221A709D
:103D80003B4B01321A70354B02321A703E4B3F4AA0
:103D900012789B189A7A454B1A70FFF7B7FD03B05B
:103DA00030BD294AB521525C002A2FD0264A50390D
:103DB000525C002A17D09BB2294A12889342DCD861
:103DC000224B5B7C002BD8D1264B1B78002BD4D008
:103DD000254B1B78002B00D048E7244B1B78002B89
:103DE00000D043E7C9E79BB21D4A12889342C4D86A
:103DF000164B5B7C002BC0D11A4B1B78002BBCD020
:103E0000194B1B78002B00D030E7B6E79BB2144A61
:103E100012889342B1D80D4B5B7C002BADD1114B76
:103E20001B78002BA9D0104B1B78002BA5D01DE7C9
:103E3000002A00DB4FE7114A002111804BE71300F5
:103E400000221A8062E7C04648050020481400207E
:103E5000DC150020DA1500202C1600202B1600207F
:103E60009E150020D815002023160020D91500200B
:103E7000D7150020421400204614002044140020CE
:103E8000401400203E140020301600202B06002095
:103E90009C150020300600202E060020C6150020AC
:103EA00028060020350600200E1600202D160020C2
:103EB00030B583B03F4AC5239B00D3589B109B0568
:103EC0009B0D3D4A138010883C4B7922995C01324E
:103ED0009A5C8008C0B2FF2300930023FEF70FF91D
:103EE000374B1870002830D0364B1870364B5B7C3F
:103EF000DBB2364AD35C012B2BD0032B31D0314BB4
:103F00001878334B1B7800930023FF220021FEF723
:103F1000F6F8040005002F4B1B78834213D22E4B7A
:103F20001888FE282CD92D4B30221A702C4B273A9A
:103F30001A70274B1B78AB4238D2264A1370294B94
:103F4000294A12781A7003B030BD1E4B00221A7035
:103F5000CCE7264B1B78002BD1D11A4B00221A70CC
:103F6000CDE7164BAE229A5C1B4B1B889A42C6D2F9
:103F70001E4B1B78002BC2D1124B00221A70BEE7D9
:103F8000C0B230230093C433FF222821FEF7B7F8D4
:103F9000124B1870104B1878092300934033FF22FE
:103FA0002821FEF7ACF80E4B1870C2E7094B1C70C5
:103FB000C5E7C04600080348E01600204805002079
:103FC00073160020C8150020481400207816002021
:103FD00028060020C61500209E150020300600206F
:103FE0002E0600200E160020350600202316002085
:103FF00010B582B0114B1C88A4B2C822104B18888F
:104000005623FF3300930F4B52002821FEF74DF843
:104010000D4B1880002C0BD021000C4803F098FAAF
:10402000C0B20B4B1870782805D978221A7002E0BC
:10403000074B00221A7002B010BDC046E8160020DF
:104040009E150020AE1000001C06002035DF000089
:104050002316002070B582B0114B9B7A002B01D142
:1040600002B070BD0E4A937A023BDBB29900591838
:104070004900947A0234E4B2A300E4186400094EC3
:104080003378094D2888002200922200FEF70DF8AF
:1040900030702B88A342E3D9044B00221A70DFE76B
:1040A00048140020C61500209E1500200E16002082
:1040B00070B5784AC2239B00D3589B109B059B0D7B
:1040C000754A1380754B1B78772B00D87CE0744BB6
:1040D0001A88744B1A80744B1B78002B09D0734BD1
:1040E0001B88D31A9BB26F490B80714800881B183C
:1040F0000B80704B85215B5C002B0AD06D4B01312E
:104100005B5C684909888B4200D388E0D21A6A4B0D
:104110001A80614B1A88694B1A80684B1B88614A68
:104120001288934200D8A8E065490978002900D197
:1041300079E06449897D002975D063490888181A97
:1041400080B29B1A9CB2614B1B885843604B198804
:1041500003F00EFA201A80B25E4D28805E4B1B8859
:1041600058430A2103F004FA040080B20B2103F043
:10417000EFF980B26E300B2103F0FAF92404240C1D
:104180006043322103F0F4F94A4BC0229B5C643354
:104190005843C82103F0ECF980B228804F4B1C88AB
:1041A000A04243D225004543201A8300181840003E
:1041B000404BC122995C03F0DBF9211A280003F07F
:1041C000D7F9444B188031E0108880B23E4C2188EA
:1041D0000222FDF7C2FF2080304A13780133DBB2A0
:1041E0001370782B07D0354B18803D4B1B88C018B7
:1041F0002B4B188091E7324B1B78002BF3D0394BB7
:104200001B88984207D9384B1B88984203D2374BFA
:1042100000221A70E7E7354B01221A70E3E7264BBC
:1042200000221A8075E79B1A2A4A1380294A1388AC
:104230002F4909885B185B101380264B1B882C4A7A
:1042400013802C4A13802C4A1078584380B22B4A92
:1042500010801B4A1278002A13D01A4A927D002A35
:104260000FD0274A107858430F4B1B7858436021D2
:1042700003F06EF9234B18800BE0164B00221A80D6
:10428000DBE7094B1B785843602103F061F91D4BB4
:10429000188070BD00040348E2160020611400205D
:1042A000721400207014002023160020F613002042
:1042B000F813002048050020661400206814002030
:1042C0007B1600204814002074140020F2130020F4
:1042D000FE1300206A140020FC13002000140020AC
:1042E000F01300207814002076140020C715002059
:1042F0006E1400206C14002025160020A01400204D
:10430000241600209614002010B56E4A137801334D
:10431000DBB213706C490A780132D2B20A706B4971
:10432000097800291BD0032B19D9664B002119707D
:10433000664B1970664B1B78002B1AD0012A18D9CE
:10434000614B00221A70624B1A70624BDB7CDBB24D
:10435000082B00D9B0E09B005F4AD3589F46002944
:10436000E8D1022BE6D9574B1970584B013119701F
:10437000E0E7002BE9D1012AE7D9534B00221A705C
:10438000534B01321A70E0E7544B1878FDF702FFE7
:1043900010BD524B1878002804D04C4B1878FDF70C
:1043A000F9FEF5E7FDF7F6FEF2E74C4B187800282A
:1043B00003D04B4B1B78002B02D1FDF7EBFEE7E758
:1043C000434B1878FDF7E6FEE2E7444B18780028E7
:1043D00003D0434B1B78002B06D100280AD03B4B5F
:1043E0001878FDF7D7FED3E73D4B1878C0B2FDF73C
:1043F000D1FECDE7FDF7CEFECAE7384B187800288E
:1044000003D0374B1B78002B06D1002809D02F4B47
:104410001878FDF7BFFEBBE72D4B1878FDF7BAFE05
:10442000B6E7FDF7B7FEB3E72D4B1B78002B05D0A1
:104430002B4B1878C0B2FDF7ADFEA9E7274B1878D3
:10444000FDF7A8FEA4E7264B1B78002B04D0204BD9
:104450001878FDF79FFE9BE7204B1878FDF79AFE32
:1044600096E71F4B1B78002B08D11C4B18780028AF
:104470000AD0164B1878FDF78DFE89E7184B18788F
:10448000C0B2FDF787FE83E7FDF784FE80E7144B9B
:104490001B78002B08D1114B1878002809D00B4B42
:1044A0001878FDF777FE73E7094B1878FDF772FE71
:1044B0006EE7FDF76FFE6BE7084B1878FDF76AFEB5
:1044C00066E7C046E7150020D4150020E615002059
:1044D000D315002048140020309C00101A1600202C
:1044E0001C17002010B5754B9B7B002B1DD0744B07
:1044F0001B781433734A1370724B1B78822B02D9CA
:10450000704B82221A70704BF4221A706F4BAB3AC8
:104510001A706F4B19782820FDF719FE6D4B187033
:104520006D4B684A12781A7010BD654B18786B4B4A
:1045300018706B4B1B78002B0ED16A4A1288002A28
:104540000AD1604B32321A70674B1A70674B0022E7
:104550001A80674B1A80CFE7002B6FD0614B1B8806
:10456000644A1288934219D2634B04221A70634A38
:104570001378591C1170042BBED9524B1A785A4B20
:104580001B789A4206D24F4B01321A705B4B0022C5
:104590001A70B1E7544A01331370F7E75449098898
:1045A0008B4217D29B1A9B00DBB2534A13705349BC
:1045B0000A78501C087093429ED2424B1B784A4A9C
:1045C0001278934202D23F4A013313704B4B0022C0
:1045D0001A7091E74A4A1288934216D2D31A9B0066
:1045E000DBB2454A137045490A78501C0870934263
:1045F00000D381E7334B1B78282B02D9314A013B8A
:1046000013703E4B00221A7076E73B4B04221A705F
:104610003A4A1378591C1170042B00D86CE7294BC7
:104620001B78282B06D9274A013B13702E4A137892
:10463000013B1370314B00221A705DE72E4B0A22AA
:104640001A702E4A1378591C11700A2B00D853E7A0
:104650002C4B1988002925D02A2903D9194A137807
:10466000013B1370214A13885C1C1480092B15D957
:104670001D4A13780A3313701A4B1B88584302F0F3
:1046800077FF80B21A4B18800200143A194B1A8037
:1046900014301B4B1880124B01221A70174B00224A
:1046A0001A7029E7104B1B78772BF7D805490A7841
:1046B00001320A700C4A01331370EFE748140020EE
:1046C0002D1600203A060020300600202E0600207D
:1046D00028060020C61500200E1600209516002082
:1046E0009416002098140020390600209A15002006
:1046F0009815002096150020380600208C16002002
:10470000941500209E15002010B5B54BC2221A70DA
:10471000B44B793A1A70B44B00221A70B34B1A702A
:10472000B34BBE329B5C002B21D0B24B1B88F52BC8
:104730001DD9B14A1178C9B2B04A1278D2B29142A9
:1047400015D2AF4A1278002A11D10B33DBB2AD4A31
:1047500013705B09AC4A13701378DBB2052B02D9D6
:10476000130005221A70A94B01221A7002E0A74B10
:1047700000221A70A64B1B78002B20D1A54B9B7CE6
:10478000DBB2082B3CD89B00A34AD3589F46FEF7C8
:10479000B7FF35E0FFF73AF832E0FFF7B7F82FE060
:1047A000FFF7FEF82CE0FFF789F929E0FFF726FA7A
:1047B00026E0FFF797FE23E0FEF74AFD20E0974B47
:1047C0001A78642353431B11DBB2874A13708F2B73
:1047D00002D913008F221A70914B1B78002B02D044
:1047E000814B00221A708F4B1B78804A13708E4ABF
:1047F0001278934201D37D4B1A708C4B32221A707F
:104800007B4BCD229B5C002B07D0824B5B7CDBB2C9
:10481000874AD35C002B00D0A8E0FFF71BFCCF2217
:104820009200844B9B581B041B0C83498A5812042A
:10483000120C9B185B11DBB2804A12789A4202D2AA
:104840007F4B07221A706A4BD2229B5C002B0ED042
:104850007B4A1278002A00D18BE07A480178013136
:104860000170784909788B4201D86D4B1A70764BEC
:104870001B689A00D21853015B09744A1360744A8A
:1048800011685B18136073490A68013A0A60002ACC
:1048900007D19B09704A136040220A606C4B0022CA
:1048A0001A606E4B1B78002B27D16D4B1B78002BA9
:1048B00023D05B4B1B78042B1FD0594B1B78092B43
:1048C0001BD0574B1B78072B17D0554B1B78052B4C
:1048D00013D0644B1B78002B0FD0544B1B78002B4C
:1048E0000BD0614B1B78002B07D14D4B1B78002B55
:1048F00043D0484B9B7B002B3FD15C4BC2221A70AC
:104900005B4BB93A1A703D4B00221A70594B1A7022
:10491000534B1B78002B00D1B2E0414A1278042A95
:104920001ED03F4A1278092A1AD03D4A1278072A27
:1049300016D03B4A1278052A12D04B4A1278002A28
:104940000ED12C4A1288002A00D099E0264A12780B
:10495000002A00D094E0484A1278002A00D08FE064
:104960003F4B00221A7002F06DFA10BDFFF7A0FA5B
:1049700053E734490020087073E7404B1B788F2BB6
:1049800002D93E4B8F221A703C4B1B7819003231F2
:104990002A4A1170144A1278934201D2124A1370B3
:1049A0000F4B1B78172B02D80D4B18221A700D4B8A
:1049B0001B78082B02D80B4B09221A70084B1A7867
:1049C0002A4B1A70074B1A78294B1A70064B1A7823
:1049D0000A4B1A70054B1A78264B1A7098E7C04696
:1049E000300600202E060020C61500200E160020DE
:1049F0004805002098140020101700201D170020E3
:104A0000C8150020121600202517002021170020AD
:104A10007216002048140020549C00102D0600201F
:104A20007016002032060020350600202D160020CA
:104A300078160020000403480008034829060020D7
:104A4000101600201116002008170020B0150020B5
:104A5000A815002020060020AC1500201C170020FF
:104A6000330600202B060020121700204A060020E3
:104A7000490600201E1700202617002028060020C7
:104A8000002B00D071E70D4B1B889F2B00D96CE7E2
:104A90000B4B1B78002B00D167E70A4B1B78002BD0
:104AA00000D062E7084B01221A70084B1D321A70C1
:104AB000074B00221A7002F0FDF956E79814002007
:104AC000C61500201C1700203306002026170020E2
:104AD0002417002010B582B0654B7E229B5C002B12
:104AE00004D1634B47329B5C002B06D0614B1B7893
:104AF000452B02D85F4B46221A705F4BD88864233F
:104B00005843572102F024FD80B25C4B18805C4B67
:104B10001B78642B02D95A4B64221A70544C607D66
:104B200018230093AA3364220021FDF7E8FA554BBD
:104B300018702923E05C203B00934033642200215D
:104B4000FDF7DDFA504B1870CA23E05CAC3B0093D4
:104B5000E13364220021FDF7D2FA4C4B1870237E1A
:104B60004B4A13704B4A1278002A37D0404BC2226E
:104B70009A5C474B5A70404B197C474A1170597DDB
:104B80005171597C5170197D9171997DD172597B08
:104B90005172997B9173997C404A1170D97C404A3B
:104BA0001170DB7B9B003F4A138013889BB2002B64
:104BB0000ED01388FA208000C01A3B4B1B88584344
:104BC000642102F0C5FC394B1860394B01221A7080
:104BD000274B9A8B374B1A80012310E02C4A5370D5
:104BE000C9E75A1E33495200505A214A2124125D06
:104BF0004243120A801A5A0088520133DBB2772BE3
:104C0000EFD91B4BBD229B5C002B02D02A4BBC3A38
:104C10001A70194B18796423584380B20009C0B246
:104C2000264B1870124CA28C254B5A431209254969
:104C30000A607422A25A53431B094B60BB2358439A
:104C400080B28F2102F084FCC0B21F4B18701B7819
:104C5000DBB2BB2B02D91C4BBB221A70044B1B7955
:104C600042331A4A13701A4B00221A7002B010BD58
:104C700048050020EE150020481400203E060020C4
:104C8000CB150020310600202F060020360600201C
:104C9000281600207B160020F81500200916002099
:104CA000071600207A14002062140020C01500208E
:104CB000D0150020A4140020F1150020C4150020F8
:104CC000A0860100A01500202A060020D81600208A
:104CD0009A160020F8B504000F0015001E000B4BBB
:104CE00018888300C0184000094B2822995C02F004
:104CF0003FFC0004000C801B7843A91B083102F024
:104D000037FC80B2001980B2F8BDC046881400207C
:104D10004805002010B5484B7E229B5C002B04D137
:104D2000454B02329B5C002B37D0444B1A78072A44
:104D300003D89300424AD3589F46002079E0414B64
:104D40001B88414A1288FA210120FFF7C3FF70E057
:104D50003D4B1B883D4A1288FA21FA20FFF7BAFF23
:104D600067E03A4B1B883A4A1288FA20FA21400041
:104D7000FFF7B0FF5DE0364B1B88364A1288FA21F8
:104D80003548FFF7A7FF54E0FA20800051E0FA20F1
:104D900080004EE0FA2080004BE0284B1A78092A68
:104DA00003D893002D4AD3589F46002041E0254B5D
:104DB0001B88254A1288A7210120FFF78BFF38E0C6
:104DC000214B1B88214A1288A721A720FFF782FFC9
:104DD0002FE01E4B1B881E4A1288A720A7214000E7
:104DE000FFF778FF25E01A4B1B881A4A1288FA2031
:104DF000A7214000FFF76EFF1BE0164B1B88184AE7
:104E00001288A7211748FFF765FF12E0144B1B8893
:104E1000154A1288A7211548FFF75CFF09E0FA2020
:104E2000800006E0FA20800003E0FA20800000E025
:104E30000A2010BD0A20FCE748050020D2150020FA
:104E4000789C00102014002022140020241400203C
:104E50002614002028140020EE020000989C001068
:104E60002A1400209B0200002C14002042030000A2
:104E700070B5B34B1888642102F06AFB84B2B14D5F
:104E8000298802222000FDF768F92880AE4B1B78A4
:104E9000DBB2012B00D894E0AC4B00221A70AC4C72
:104EA000218889B2AB4B18880222FDF756F9208081
:104EB000A94B7E229B5C002B05D1A74B02329B5C49
:104EC000002B00D1CFE0A24B1B889BB2A34A1288D3
:104ED000934200D881E0A24B07221A70994B1888A0
:104EE000A04B1B7858430A2102F032FB80B29E4B44
:104EF00018809E4B1A68801818609D4902F028FBA4
:104F00009C4B18609C4B1B68C0189C4B18609C4BBA
:104F1000DB7D022B00D10DE164235843994B1988A6
:104F200002F016FB80B2FA239B00984200D91800C9
:104F3000FA239B001B1A9BB2934A1380924B1B8847
:104F40009B08DBB28E4AD373904B1B78002B37D073
:104F50008F4B1B78002B17D08E4B1B78002B1DD14D
:104F60007D4B5C6B28229B5C9800C018400003F0CE
:104F7000C9FB011C201C03F0B7F802F0B5FE80B29B
:104F8000704B1B88984209D27F4BFA2292001A80FC
:104F9000794B00221A607E4B01321A707C4B1B78D1
:104FA000002B0DD07B4B1B78002B09D17A4B1A7844
:104FB000511C1970684B84215B5C9A4200D9FDE05A
:104FC00070BD624A11784B1CDBB21370142B00D8F1
:104FD00065E7604B1C80117061E75D4B1B889BB2DD
:104FE0006E4A1288934203D95D4B06221A7075E708
:104FF000574B1B889BB26A4A1288934203D9584B7D
:1050000005221A706AE7524B1B889BB2654A1288C8
:10501000934203D9524B04221A705FE74C4B1B8812
:105020009BB2614A1288934203D94D4B03221A70F6
:1050300054E7474B1B889BB25C4A1288934203D9C2
:10504000474B02221A7049E7414B1B889BB2584AD2
:105050001288934203D9424B01221A703EE7404B1B
:1050600000221A703AE73A4B1B889BB2514A1288C9
:10507000934203D93A4B09221A702FE7344B1B880D
:105080009BB24D4A1288934203D9354B08221A70BD
:1050900024E72F4B1B889BB2304A1288934203D9D6
:1050A0002F4B07221A7019E7294B1B889BB23B4AEA
:1050B0001288934203D92A4B06221A700EE7244B1A
:1050C0001B889BB2364A1288934203D9244B05228F
:1050D0001A7003E71E4B1B889BB2324A1288934218
:1050E00003D91F4B04221A70F8E6194B1B889BB298
:1050F0002D4A1288934203D9194B03221A70EDE608
:10510000134B1B889BB2294A1288934203D9144B34
:1051100002221A70E2E60E4B1B889BB2244A1288C8
:10512000934203D90E4B01221A70D7E60C4B002292
:105130001A70D3E6FFF7EEFD134B1880FEE6C0466B
:10514000861400208414002010170020340600204C
:10515000881400207C140020480500201214002030
:10516000D2150020D115002080140020B815002091
:10517000907E0000B4150020C0150020BC15002052
:1051800048140020621400207A1400200816002021
:10519000D0150020111700206C16002010140020DC
:1051A0000E1400200C1400200A1400200814002003
:1051B000061400201614002014140020FFF7AAFD86
:1051C00002001C4BDB7D002B30D11B4B1B889BB29C
:1051D000952B29D8184B1988C9B2174B1B885B1A15
:1051E0009A4205DB144B1B889633984200DCE7E6B5
:1051F000114B18801B88FA208000C01A0F4B1B88A7
:105200005843642102F0A4F90D4B18600D4B0122A4
:105210001A700D4B1A700D4B83329B5C5B080C4A65
:1052200013700C4A1370CBE69621D6E70A4B012285
:105230001A70C5E6481400207A1400206214002079
:10524000C0150020F0150020F115002048050020B1
:105250006C1600201B160020111700201E4A8A23FE
:105260005B00D3581B070AD48E235B00D358DBB2F4
:105270001A4A1278D1B2002A02D0012915D07047FB
:10528000592B05D0164B00221A70144B1A70F6E7F2
:10529000134A1178C9B21348435413780133DBB26F
:1052A00013700E4B01221A70E9E70D4A1178C9B24A
:1052B0000C48435413780133DBB213701378DBB21C
:1052C000062BDCD9130000221A70044B1A70064B0F
:1052D00001321A70D3E7C046000200486D16002064
:1052E000631600205C1600202A16002010B5BF4A65
:1052F000137801331370BE4A137801331370BD4A1B
:10530000137801331370BC4A137801331370BB4B0D
:105310001B78002B17D110BDB949C95C8A18D2B2CD
:105320000133DBB2052BF7D9B54B9B79DBB2934246
:105330000CD0B24B00221A70AC4B1B78032BEAD96D
:10534000B04B1A70E7E700220023EBE7A74B0020E1
:105350001870AB4B5A7801210A40AB490A70597852
:1053600020242140A94C21705B7821218B43A8493E
:105370000870102B19D00ED8042B00D191E0082B07
:1053800003D1A04B0421197012E0022B10D19D4BC8
:10539000022119700CE0402B7FD0802B08D1994B53
:1053A000012119709A4B197002E0964B0021197077
:1053B000984B1B78002B03D1974B924909781970B1
:1053C000944B01211970002A00D192E1934B1B7874
:1053D000002B10D1924B1B7C002B66D1894B1B7884
:1053E000002B62D08F4A8331515C8F4A12789142F0
:1053F00001D9042B59D0894B01221A707E4B1B789E
:105400008A4A127893420DD27E4B1978824B1B78D0
:1054100099421ED0864B1B78002B1AD1854B1B78E6
:10542000002B16D1844900230B7084490B707249FC
:105430000A70834A1370834A1370834A1370834A35
:105440001370834A1370834A1370834A1370834A1C
:1054500013707B4B1B78002B00D1E4E1804B0022C2
:105460001A706F4B1B7C002B0ED1664B1B78002BE8
:105470000AD06C4A8421515C6B4A1278914200D860
:10548000D1E1042B00D0CEE15E4B1A78042A00D97A
:10549000BDE19300734AD3589F465A4B01211970BE
:1054A00086E7584B0321197082E76F4B01221A706F
:1054B000614B1B78002B27D15F4B1A705F4A137822
:1054C0000133DBB21370032B02D9130003221A70CD
:1054D000634B00221A704B4B1B78012B54D0042BCA
:1054E00000D1D3E0002B39D0544B1B780133DBB211
:1054F000554A13705D4A1370524B01221A703D4B8E
:1055000000221A703C4B1A703A4B1B78584A12789A
:10551000934210D23B4B19783F4B1B78994200D1F4
:105520006CE7434B1B78002B00D067E7414B1B789F
:10553000002B00D062E7394B012119704A49002342
:105540000B703D490B703D490B702B493748007873
:10555000087028490A703C4A13704FE7374B1B7894
:10556000022B09D0032BBFD1424B1A782C4B5A7512
:105570005A7D414B5A71B7E7404B1A78284B1A7441
:105580001A7C3D4B1A70AFE72C4B1B78022B13D0C3
:10559000032BA9D13A4B1A78214B1A751A7D364B39
:1055A0009A712B4B1B78002B0ED02B4B01221A70BB
:1055B0001E4BF9321A7097E7324B1A78184B5A740F
:1055C0005A7C2D4B5A708FE7204B1B78002B8BD0C9
:1055D0002D4B1A78124B9A759A7D274BDA721D4B18
:1055E00001221A70114BF9321A707DE76014002005
:1055F0008A160020171600201B1600202A160020ED
:105600005C1600202B0600201316002089160020AF
:10561000C9150020081600202C06002018160020AE
:1056200048140020480500206C160020EE150020CC
:105630007C160020CE1500201C1600201E1600200F
:105640001D160020F1150020F41500200A16002078
:105650000B1600200D1600200C160020F01500205F
:10566000EF150020C09C001019160020F515002031
:105670001F140020CD150020F8150020641600200E
:105680006A1600206F1600207A160020C64B1B7881
:10569000022B16D0032B00D026E7C44B1B78092B16
:1056A0001FD0C34B1A78C34BDA74DA7CC24B1A7022
:1056B000C24B1B780A2B00D016E7C14B01221A708F
:1056C00012E7BA4B1B78092B00D00DE7B84B1A78BC
:1056D000B84BDA74DA7CB84B1A70B94B01221A70E5
:1056E00002E7B84B1A78B34B5A735A7BB64B5A72CF
:1056F000DEE7B64B1B78002B0FD1B54B1B78002B88
:1057000000D17BE6B24A00231370B24A1370B24A4A
:105710001370B24B01221A7070E6AC4B00221A7063
:105720006CE6A14B1B78022B10D0032B1BD0012B56
:105730006DD1A04A117CAA4B1970137C59424B4180
:10574000DBB21374127CA04B1A7060E0994A517D51
:10575000A44B1970537D59424B41DBB25375527DB6
:10576000994B5A7153E001F0C7F950E08E4B1B780A
:10577000022B10D0032B1BD0012B48D18D4A517C1A
:10578000994B1970537C59424B41DBB25374527C94
:105790008D4B5A703BE0874A117D944B1970137DF5
:1057A00059424B41DBB21375127D874B9A712EE043
:1057B0008F4B1B78002B0FD17E4A917D8D4B19703A
:1057C000937D59424B41DBB29375927D7E4BDA72E9
:1057D000894B01221A701AE0764B9B7C082B03D070
:1057E000744B9A7C854B1A70724B08229A74844BC6
:1057F000073A1A700BE06C4B1B78022B2DD0032B51
:105800002FD0012B25D06B4B9A7C7E4B1A70784B96
:105810001B78002B04D17C4B84229A5C7B4B1A7042
:105820007B4B01221A70784B7E229A5A002A00D1B3
:1058300003E1674B1B78002B00D19FE0664B197882
:10584000744B1B78994200D2F7E0734B002119701A
:10585000F3E0584B01229A74D5E7564B02229A7412
:10586000D1E7544B03229A74CDE74F4B1B78022BA0
:105870000CD0032B0ED0012B04D04E4B9A7C614BE5
:105880001A70C4E74B4B04229A74F6E7494B052281
:105890009A74F2E7474B06229A74EEE7424B1B7864
:1058A000022B37D0032B52D0012B04D0414BDA7C92
:1058B000414B1A70ABE7544B84229A5C574B1B78D0
:1058C0009A420DD83B4BD97C394A1170DB7CDBB254
:1058D0004D4A6D21525C934216D0364BDA74E5E79F
:1058E000FFF718FA4E4B18801B88FA208000C01A68
:1058F0004C4B1B885843642101F02AFE4A4B186028
:105900004A4B01221A70D1E73F4B6F229A5C294B18
:10591000DA74CBE7254B1B78092B08D03A4B702261
:105920009A5C244BDA74DA7C214B1A70BEE7214A68
:10593000517B244B1970537B59424B41DBB253735B
:10594000527B214B5A721E4B01221A70AEE71B4B41
:105950001B780A2B05D02C4B71229A5C154BDA74FC
:10596000A4E7144A937B59424B41DBB29373927B79
:10597000154B9A73124B01221A7097E7164B187841
:10598000214B8421595C234B1B78CB1A984251DD63
:1059900088424FD2044B1B78002B4BD01E4B24491E
:1059A0000978197049E0C0461E1600201416002020
:1059B0001616002048140020071600201516002097
:1059C000EF150020CA150020F81500201816002039
:1059D0001C160020191600201B1600201D16002082
:1059E00064160020CD1500206F1600206A160020D6
:1059F0000D1600207A1600200A16002058160020E6
:105A00000B1600200916002048050020EE15002086
:105A1000F11500201E140020F41500206C16002043
:105A20007A14002062140020C0150020F015002018
:105A3000F5150020CC4B00211970CC4B00211970BA
:105A4000CB4B9B7CD9B2062B00D1D1E0082900D0EA
:105A5000DEE0C84B78315B5C002B0AD1C54B0139C5
:105A60005B5C002B05D1C34B46315B5C002B00D146
:105A7000A8E0C14B1B78012B00D886E0BF4B1A78F9
:105A8000BB4B9A74BE4B00221A70BE4B1A70BE4BB1
:105A9000BE4A12781A70B64B9A7C013AB64B1C7803
:105AA000BB4B91008A189B18185DBA4B1870BA4B03
:105AB0001B78002B08D0AF4BCF229B5C584364214E
:105AC00001F046FDB34B1870A94B5B7D002B00D154
:105AD000A7E1B24B1B78002B00D197E1B04B1B78AC
:105AE000002B00D092E1AF4B1B78002B00D08DE152
:105AF000AD4B1B78002B00D088E1AC4B1B78002B02
:105B000000D083E1AA4B1B78002B14D1A84A0133A3
:105B10001370A84A13709B4A13709B4B00221A7093
:105B2000A54B1A70A54B1C70A54B1B78002B00D100
:105B30000EE1964A1370A04B1B78A14AD25C002A52
:105B400002D1914A002111705A1C9E4909788A425B
:105B500000DB51E18C4A11788C4A1278043A914268
:105B600004DA964A1278944200D15AE1864A00211A
:105B700011700133DBB2904A1370914AD35C002B51
:105B800000D1EBE0814A13704BE17F4B19787F4BDA
:105B90001B78994200D371E7794B1B78002B05D114
:105BA000774B01211970784B00211970864B1B78B7
:105BB000002B13D0854B1B78002B0FD0844B012179
:105BC00019700EE06C4B1B78012B00D056E76E4B22
:105BD00019786E4B1B789942DED34FE77C4B00213E
:105BE0001970002A00D156E75F4B00221A7052E765
:105BF000754B1B78002B07D0744B1B78002B03D000
:105C0000744B01221A7046E7724B00221A7042E769
:105C1000584B88229B5C002B16D06B4B1B78002BBB
:105C20000FD06A4B1B78002B0BD06B4B1B78002BD3
:105C300007D15A4B1B78002B03D0684B873A1A7058
:105C400002E0664B00221A704A4B64229B5C002BD8
:105C500000D120E75C4B1B78002B1DD05B4B1B78E1
:105C6000002B19D05D4B1B78002B15D1404B5B7C72
:105C7000DBB25B4AD35C002B0ED0574B1B78002B5A
:105C800000D008E7544B01221A70394B997C3B4AEB
:105C9000117007229A74FEE6364BAF229B5C002BF4
:105CA00046D0344B4A3A9B5C002B41D04A4B1B7880
:105CB000002B00D1EFE64B4B1B78002B09D1494B51
:105CC000643A1A70484B00221A70484B2A4A1278DC
:105CD0001A70284BB0229A5C434B1B789A421BD90E
:105CE000254B1A78414B1B789A420BD0234B1A78DC
:105CF0001F4B9A74384A002313703A4A13703C4A77
:105D00001370C8E63B4B1B78002BEFD1184B5B7C24
:105D1000002B00D1BFE6E9E7184B1A78144B9A74B0
:105D20002D4A002313702F4A1370314A1370B2E6C4
:105D3000294B1B78002B03D0104B1A780C4B9A740C
:105D4000254A00231370274A1370294A1370A2E6CC
:105D5000084B84229A5C0D4B1A70ECE6054B8422AA
:105D60009A5C0A4B1A705CE0F41500201D160020A6
:105D700048140020480500202B060020581600205B
:105D80007C160020F11500201B160020EE150020C7
:105D9000301600202D160020C915002018160020EE
:105DA0001E160020F01500200D1600200C160020F5
:105DB000CE150020CF150020DE1500202C06002077
:105DC000E8150020CC1500208916002008160020B8
:105DD0007D160020D915002092160020681600209C
:105DE000901600208B1600208A16002093160020A3
:105DF000941600201C1700204A4B1A784A4B1B7837
:105E00009A420ED3494B00221A700AE0484B1B7885
:105E1000002B06D0464A00231370444A1370454AAB
:105E20001370454B1C70454B63229B5C002B0AD0C2
:105E3000434B1B78002B03D1424B1B78002B4BD0DC
:105E4000414B01221A70414BDB78DBB2404A1370A0
:105E50003A4AB921525C002A42D03E4AE1218900E7
:105E60004B431380354B83229B5C002B09D0374B6F
:105E70005B79DBB2384A13705278934201D2364ACA
:105E80005370364B9B7C072B03D0354B1B78002B74
:105E90002BD02A4BAE22985C0A2101F059FBC0B2EC
:105EA0002E4B98722D4C627C2E4B9200D0582E4B6C
:105EB000198801F04DFBC1B22C4B19702C4B18788E
:105EC000FCF745F92B4B1870A37DDBB22A4AD25C54
:105ED0002A4B1A70FFF72DFA1B4B00221A70B2E7FB
:105EE0001C4A27494B431380BCE71C4B5B7CDBB24D
:105EF000244AD35C022B06D0184A537CDBB21649E5
:105F0000CB5C9372CEE7204B1B78002BF4D00B4B6D
:105F1000AE22985C0A2101F01BFBC0B20F4B9872B5
:105F2000C0E7C0461B160020EE150020CF1500204C
:105F3000CE150020F11500202C0600204805002079
:105F400018160020191600201A1600205C160020D2
:105F500022160020901400209816002048140020DB
:105F600068160020A015002086140020C51500200A
:105F7000C415002028060020281600202516002021
:105F80009B050000781600207316002070B5B84BF2
:105F90001B78002B01D100F07BFCB64B43221A701A
:105FA000B54B00221A70B54A137801218B43137048
:105FB000B34B7E229B5C002B04D1B14B02329B5C25
:105FC000002B42D0AF4B1A78072A0CD89300AE4A68
:105FD000D3589F46A94A137801210B43DBB21370B3
:105FE000A44B00225A70A64B7F229B5C002B69D0E9
:105FF000A64B19881A789F4BDA70A54B1B889942DB
:106000005CD29B1ADBB29B4A137164E0994B00226D
:106010005A70E8E7974B02225A70E4E7954B062244
:106020005A70E0E7934B09225A70DCE7914B0C223F
:106030005A70D8E78F4B0C225A70D4E78D4B0C2244
:106040005A708D4B0B3A1A70CDE78E4B1A78092A8D
:10605000C9D893008F4AD3589F46884A13780121A4
:106060000B43DBB21370834B00225A70BBE7814BAA
:1060700000225A70B7E77F4B02225A70B3E77D4B7C
:1060800004225A70AFE77B4B06225A70ABE7794B7C
:1060900008225A70A7E7774B0A225A70A3E7754B7C
:1060A0000C225A709FE7734B0C225A709BE7714B7E
:1060B0000C225A70704B0B3A1A7094E76D4B002209
:1060C0001A7108E06E4BC5229B5C002B25D1694BF1
:1060D0004622DA701A7101F045F889235B00984274
:1060E0002DD26D4B00221A706B4B1B78502B02D9AE
:1060F000614B06221A70694B1B78042B25D0674B25
:106100001B78002B24D05C4B1B78002B20D1634BD9
:106110001B78DBB2584A13701AE0614B1B78554C60
:10612000E370604D2988604B1888BD3AFCF715F87C
:106130002880642101F00CFAC0B22071CBE701F095
:1061400011F81138544B1870CEE74B4B04221A70DB
:10615000494B1B78002B5FD0544B1B78002B5BD135
:10616000474B80229B5C002B39D0434B1B78092B7B
:1061700011D0414B1B78012B16D03F4B1B78052BC0
:106180001BD03D4B1B78072B20D03B4B1B78DBB241
:10619000384A53719DE0464B1B78002B00D198E0A4
:1061A000344B783A5A7194E0414B1B78002B00D164
:1061B0008FE0304B06225A718BE03D4B1B78002B51
:1061C00000D186E02B4B03225A7182E0384B1B78BA
:1061D000002B00D17DE0274B04225A7179E0284B37
:1061E0007E229B5A002B11D0324B1B78002B03D1FF
:1061F000314B9B7B002B03D01E4B00225A7168E071
:106200001D4B1B78DBB21B4A537162E01A4B1B78A3
:10621000DBB2184A53715CE0244B1B78002B55D03D
:10622000264A1278002A14D1254A1278002A10D062
:10623000214A127C002A0FD1224A1278002A0BD060
:106240000F498420085C20490978884201D9042A32
:1062500002D0084A53713CE0154A1278002A02D055
:10626000044A537135E0034B00225A7131E0C046B5
:106270000816002080160020F31500209B16002031
:1062800048050020D2150020D49C00107414002072
:1062900068140020F49C0010711600207016002075
:1062A000D11500207E14002080140020F415002059
:1062B000E6150020CF150020481400201C160020F1
:1062C0001E1600202B0600206C160020C34B002257
:1062D0005A71C34B1B78002B00D191E2C14B1B7844
:1062E000002B25D1C04B84229A5CC04B1B789A426C
:1062F00003D9BF49097804291AD0BE490978002971
:1063000000D1A9E09A4200D8A6E0B94B1B78042B33
:1063100000D1A1E0B84B1B78002B00D19CE00129F3
:106320006CD0022900D184E0B44B00221A800DE029
:10633000AD4BB9229B5C012B53D0B14B198889B26C
:10634000AE4CB04B188801F003F92080AB4B1B8892
:10635000002B00D14FE2D9B2A04A91711B0AD37130
:10636000A14B82229B5C002B05D0A74A1378042105
:106370000B43DBB213709C4B81229B5C002B23D020
:10638000A24B1B88002B00D15BE29F4A137880212F
:1063900049420B43DBB213709D4B1B78DBB20A2BD7
:1063A00000D854E2984A137840210B43DBB21370B3
:1063B000954B1B783F22934300D14EE2924A1378CB
:1063C00004210B43DBB213708F4B1A781F210A4054
:1063D00082498A701A783B210A401A7000220023F1
:1063E00047E2874B198889B2844C864B188801F0A4
:1063F000AFF88300C01840002080A7E77A4BB9228D
:106400009B5C012B09D07E4B198889B27B4C7D4B5C
:10641000188801F09DF8208098E7794B198889B297
:10642000764C784B188801F093F80A234343238075
:106430008CE76D4B2B22985C764B1B88584364216C
:1064400001F096F881B2744B19806C4C6D4B188832
:1064500001F07EF8208079E7704B1B78002B0DD07F
:10646000664C684D6E4B18880A2101F071F80100E6
:10647000288889B201F06CF8208067E7694B1B78A7
:10648000002B0BD0684B1B789900C91849005D4B55
:10649000188801F06DF8594B188057E7634B1B784B
:1064A000002B09D0624B198889B2544C554B18887F
:1064B00001F04EF8208049E75E4B1A785E4B1B785E
:1064C0009A4223D84C49097800291FD048480078BF
:1064D000012803D9594C2478002C17D04A1E584B58
:1064E00091008A189B181B5C002B0AD0012B00D04E
:1064F0002CE7424C434B1888692101F029F8208091
:1065000024E73E4B3F4A12881A801FE79A4207D879
:1065100039490978002903D035490978042911D06F
:106520009A421BD8344B1B78002B17D0454B1B7855
:10653000642159430531334B188801F019F82F4B6A
:10654000188003E7404B1B786031594305312D4BD0
:10655000188801F00DF8294B1880F7E63B4B3C4AB0
:1065600012789B5C0C2B00D9F0E69B00394AD3587B
:106570009F461D4BB9229B5C012B08D01F4C214A22
:10658000354B1088198800F0E3FF2080DEE61B4CB5
:106590001C4A314B1088198800F0DAFF0A23434364
:1065A0002380D3E6104BB9229B5C012B09D0144BFE
:1065B000198889B2114C134B188800F0C9FF20804C
:1065C000C4E60F4B198889B20C4C0E4B188800F0AA
:1065D000BFFF0A2343432380B8E6C046801600204D
:1065E000F1150020F0150020480500206C16002051
:1065F0002B060020F21500201E1600208E1400200D
:106600007A140020901400209B1600209C14002077
:106610002617002084140020821400207D160020FC
:10662000A21400200C160020251600200D160020B4
:10663000E21600201B160020EE150020EF150020AA
:10664000F81500200916002007160020E01500208C
:10665000DE1500201C9D00109A140020934B2B2265
:10666000985C934B1B885843642100F081FF81B2F2
:10667000904B1980904C914B188800F069FF208056
:1066800064E68E4B18888E4B197800F071FF8A4BA8
:1066900018805BE68B4C21888B4B18880822FBF70F
:1066A0005CFD2080814BB9229B5C012B0BD0824C7E
:1066B000824D0A2100F04CFF0100288889B200F0C9
:1066C00047FF208042E67C4C7C4B1B880100180071
:1066D00000F03EFF208039E67C4B1988764C774BE2
:1066E0001888890800F034FF20802FE6784B19883D
:1066F00089B2714C714B188800F02AFF208025E682
:106700006A4BB9229B5C012B0AD0724B1978632922
:1067100011D96A4B188800F02BFF674B188015E6DB
:106720006C4B1B780A215943644B188800F020FFFA
:10673000614B18800AE60A235943604B188800F021
:1067400017FF5D4B188001E6634C2188634B188866
:106750000822FBF702FD2080574C584D0A2100F01B
:10676000F7FE0100288889B200F0F2FE2080EDE5F6
:10677000514C524A5A4B1088198800F0E9FE20808B
:10678000E4E54A4BB9229B5C012B0CD0554B1868B1
:106790000A2100F0DDFE0100484B188800F0D8FE09
:1067A000454B1880D2E5454B18884E4B196800F0D0
:1067B000CFFE414B1880C9E53F4C404A4A4B1088F8
:1067C000198800F0C5FE2080C0E5484B1878642386
:1067D0005843474B197800F0CBFE83B2013B9BB284
:1067E000444A13800A215943344B188800F0B0FE04
:1067F000314B1880AAE5404B07229A71DA71AFE558
:106800003E4B1888002817D0284BD0229B5C002BC9
:106810000CD000010A2100F0ABFE80B2384B18808A
:10682000C2B2354B9A71000AD87199E5C2B2324BA7
:106830009A71000AD87193E52F4B07229A71DA7189
:106840008EE5304A13787F210B401370A4E52D4A62
:10685000137840218B431370AAE52A4A1378042148
:106860008B431370B0E52449C95C8A18D2B2013356
:10687000DBB2072BF7D9204B1A72234A8A235B001D
:10688000D3581B0E7F221A401E239B1A092B00D8B7
:1068900070BD0023082BFBD8174AD25CD2B21A482D
:1068A000C021490042500133DBB2F3E74805002024
:1068B00084140020821400208E14002090140020E4
:1068C000D11500207E14002080140020E016002046
:1068D000E2160020231600209414002096140020B5
:1068E0006A140020BC1500209814002026170020F0
:1068F0003506002092140020801600209C140020F1
:106900008C1400209B1600200002004810B5354B67
:106910001B889BB2344A934204D8324B1B889BB2EB
:10692000092B24D8314B00221A80FCF7D3FCFDF749
:106930005FFBFCF7F7FC2E4B187800010A2100F0F2
:1069400007FE2C4B1870FDF7B3FB2B4B1A78511C2C
:10695000197003231340022B41D011D8002B29D0EA
:10696000012B29D1FDF7D0FCFCF70EFE24E01D4BD6
:10697000198889B2214800F0EBFD1C4B1880D4E740
:10698000032B19D1FCF7E6FCFEF772FA1C4B1A78C0
:106990001C4B5A701C4A12789A701C4A1278DA7092
:1069A0001B4A12781A711B4A12785A711A4A1278C5
:1069B0009A7101E0FEF79AFCFDF7A6FE114B99785B
:1069C000164A1180D978164A11801979154A118012
:1069D0005979154A11809A79144B1A8010BDFFF726
:1069E000D5FAE9E746060020FFEF000098140020E2
:1069F00010170020D1150020D615002090D00300DC
:106A0000A816002014170020A9160020AA1600209E
:106A1000AB160020AC160020AD1600203414002068
:106A200036140020381400203A1400203C140020B2
:106A300030B589B020220021684602F027FF2A4B9A
:106A40001A682A4B9A4240D0294B284A1A60294A90
:106A50002221515C19712A21515C880009184800D3
:106A6000D8806021515A19816221515C9972518AF2
:106A7000D97200211973907D58739973D973693154
:106A8000515C19746821515C59746E21515C997480
:106A90006D21515CD9746B21515C19758721515C52
:106AA0005975C321515CD9756C21525C9A75694640
:106AB0000A00180038C838C238C838C20023022279
:106AC000094800F073FA09B030BD6C46022221007B
:106AD000054800F09FFA06490B00220031CA31C375
