:020000041000EA
:10100000480500201910001000000000A310001077
:1010100000040100000100001249134A134B00F0C4
:101020001AF8134880471349134A144B00F013F879
:101030001349144A144B00F00EF81449144A0020C6
:10104000521A02DD043A8850FCDC124880471248EC
:101050008047124880479B1A03DD043BC858D05094
:10106000FBDC70470C9900100C00002044010020AC
:10107000D1690010449A0010480500202C07002078
:10108000289C001030070020F0190020F0190020E3
:10109000483E0020A1100010999200100167001036
:1010A0007047FEE710B582B06B46354ADA80354BA3
:1010B000354A1A60354B0121C022520099508020D8
:1010C0001A58334C22401A508022120231480260D2
:1010D00031480260812292009950304A8423802155
:1010E000C904D1501DE029498122920088588023EB
:1010F0009B0003438B50294AFC235B00D358002BF1
:10110000F9D0C0239B00D358009380231B02214AAF
:101110001360214A13606B469A1DDB88013B9BB22A
:1011200013806B4606331B889BB2002BDBD1009BE0
:101130000023009305E080231B02164A1360164A21
:101140001360174B1B6C1B0FF5D1104B80215858A7
:10115000C022920202435A5000228531FF315A5078
:1011600084395A500D4B9532FF328039FF399950EE
:1011700083315A580B4802405A5002B010BDC04645
:1011800050460000BC4003480004103F00000348E4
:10119000FFFFFC7FE0400348E440034800040348AD
:1011A00000400348FFFFFFFB00B583B00023124A55
:1011B0001360124A13600321114806F041F91149E6
:1011C00080228858104B03438B501423019308E06E
:1011D000019B013B019380231B02074A1360074ACE
:1011E0001360019B002BF3D1FFF75CFF0021044843
:1011F00006F026F903B000BDE0400348E440034890
:10120000000403480000034800000180F8B552497B
:10121000524D280006F08CF85149524E300006F02D
:10122000CFF85149514C200006F0CAF80321300094
:1012300006F006F90321200006F002F9FFF7B4FFDB
:101240004B49280006F032F94A49200006F08AF995
:1012500082225200A1588023DB000B43A350434A53
:1012600084235B00D3589B06F9D5140082235B00CE
:10127000D25803208243E250E25801210A43E2504F
:10128000384DEA588243EA50EA580A43EA503A4B4A
:101290001A6888235B00E250384A1268E250384AE4
:1012A0000021200006F096F9364A0121200006F0C0
:1012B00091F9354A0021280006F08CF9334A0121C2
:1012C000280006F087F90021280006F0B9F800216F
:1012D000200006F0B5F800220121280006F0B8F839
:1012E0000021280006F0C6F8200006F0BCF8032113
:1012F000200006F0A5F80321280006F0A1F8B0238D
:10130000234AE2500422FF32EA50224A06212000FA
:1013100006F060F9114EC2277F00F35940221343B3
:10132000F3511D4A0721200006F054F9F359802497
:101330002343F351194A0721280006F04BF9C02234
:101340005200B3582343B3508432B15880239B00DA
:101350000B43B350F8BDC046780500200000034899
:10136000B005002000040348E405002000080348FD
:101370000C06002000060020F8050020FC050020D7
:10138000C4050020D405002090050020A005002001
:1013900003040000680500204805002058050020CF
:1013A00010B500F007F800F02BFA10BD10B5FFF7EC
:1013B000F7FF10BDF0B5DE4657464E464546E0B550
:1013C00085B0DE4E0021300005F070FC80235B000C
:1013D0009846F360DA49DB4F380005F081FC0223C0
:1013E0009A46FB6304247C638021C904300005F025
:1013F0006FFC07233361D44A0121380005F0B1FCAA
:10140000D24A0221380005F0ACFCD14A0321380051
:1014100005F0A7FC01220121380005F087FC01221C
:101420000221380005F0D6FCA4257B5923437B51CB
:1014300001218B46F16000243C67F960C549C64F25
:10144000380005F064FCC54B7B6380210905300042
:1014500005F03EFC70213161C14A6F39380005F05A
:1014600080FCC04A0221380005F07BFCBE4A032103
:10147000380005F076FC0121380005F06BFC504681
:10148000F0603C675846F860B849B94F380005F03D
:1014900027FCA023FB63B74B7B63802189053000C9
:1014A00005F016FCE020C0013061B34A012138008C
:1014B00005F057FCB14A0221380005F052FCB04A51
:1014C0000321380005F04DFC0822F2603C675E46BF
:1014D000FE60A026F6050021300005F0A7FC474677
:1014E000F760A849A84F380005F0B2FCD2239B0052
:1014F0009846FB637C64D223DB00994619003800D0
:1015000005F011FD8021C904300005F0BCFC072363
:1015100033619E4A0121380005F0D2FC9C4A022129
:10152000380005F0CDFC9B4A0321380005F0C8FCCB
:1015300001220121380005F0AFFC9749380005F081
:1015400019FD3C679549964F380005F081FC4346EC
:10155000FB637C644946380005F0E5FC8021090501
:10156000300005F090FC702131618E4A6F393800EF
:1015700005F0A6FC8C4A0221380005F0A1FC8B4A3C
:101580000321380005F09CFC01220121380005F000
:1015900083FC8749380005F0EDFC3C678549864FA0
:1015A000380005F055FC4146F9637C644946380033
:1015B00005F0B9FC80214905300005F064FCE0230A
:1015C000DB0033617D4A0121380005F079FC7C4A5B
:1015D0000221380005F074FC7A4A0321380005F036
:1015E0006FFC01220121380005F056FC76493800D5
:1015F00005F0C0FC3C677549754F380005F028FCC4
:101600004146F96379644946380005F08CFC802135
:101610008905300005F037FCE020C00130616D4ADB
:101620000121380005F04CFC6B4A0221380005F01E
:1016300047FC6A4A0321380005F042FC01220121DF
:10164000380005F029FC03220021380005F06EFC6B
:1016500002220121380005F069FC00220421380033
:1016600005F064FC01220321380005F05FFC7B5982
:10167000584603437B517B59504603437B517B596A
:10168000102213437B517B5908210B437B513C674C
:10169000534D280005F0A2FC2B680326B3432B60B2
:1016A0005049280005F0A6FC4F49280005F0ACFC85
:1016B00000220221280005F0B2FC6B6F04221343C4
:1016C0006B674A494A4D0022280005F0B3FCEB69DC
:1016D00050229343EB61EB69493A93433343EB6107
:1016E000EA6B444B1A4080231B011343EB63424BCC
:1016F0002B610C360296019400943A2300220021BB
:10170000280005F097FD1F2305220021280005F081
:10171000C1FD1F2305222021280005F0A5FD2B6C0B
:10172000B343524613432B64344805F093FF05B08E
:10173000F0BCBB46B246A946A046F0BD0000044836
:101740004093001000010448489300104C9300108F
:10175000509300105C93001000020448FFFF00004B
:1017600064930010689300106C93001004940010B0
:1017700000040448FF0400000C94001010940010B2
:101780001494001070930010000100508C9300100E
:101790009093001094930010809300109893001081
:1017A00000020050B4930010B8930010BC930010D6
:1017B000A8930010C093001000030050DC930010A9
:1017C000E0930010E4930010D0930010E893001011
:1017D00000040050F8930010FC93001000940010D7
:1017E00000000150589300105493001034930010DF
:1017F00000020048FFE0FFFF218100001894001064
:1018000010B57F4A7F4C0021200005F031F90022FD
:101810000021200005F0B5FB7B4A0A21200005F0DD
:1018200027F900220A21200005F0ABFB774A0D21A1
:10183000200005F01DF900220D21200005F0A1FB7C
:10184000734A0121200005F013F900220121200034
:1018500005F097FB6F4A0221200005F009F90022EC
:101860000221200005F08DFB6B4A0321200005F0CA
:10187000FFF800220321200005F083FB674A0421C2
:10188000200005F0F5F800220421200005F079FB86
:10189000634A0521200005F0EBF800220521200015
:1018A00005F06FFB5F4A0621200005F0E1F80022F9
:1018B0000621200005F065FB5B4A0721200005F0AA
:1018C000D7F800220721200005F05BFB574A0821CA
:1018D000200005F0CDF800220821200005F051FB82
:1018E000534A0921200005F0C3F8002209212000F5
:1018F00005F047FB4F4A504C0021200005F0B8F896
:1019000000220021200005F03CFB4C4A0121200070
:1019100005F0AEF800220121200005F032FB484A14
:101920000221200005F0A4F800220221200005F089
:1019300028FB444A0321200005F09AF800220321E5
:10194000200005F01EFB404A0521200005F090F81C
:1019500000220521200005F014FB3C4A3C4C0A21E2
:10196000200005F085F800220A21200005F009FB7F
:10197000384A0B21200005F07BF800220B212000C3
:1019800005F0FFFA344A0221200005F071F8002228
:101990000221200005F0F5FA304A0421200005F06C
:1019A00067F800220421200005F0EBFA2C4A0521FB
:1019B000200005F05DF800220521200005F0E1FA85
:1019C000284A0621200005F053F8002206212000B5
:1019D00005F0D7FA244A0821200005F049F8002232
:1019E0000821200005F0CDFA204A0921200005F049
:1019F0003FF800220921200005F0C3FA10BDC046BF
:101A00009C940010000004405C940010849400102A
:101A1000A4940010AC940010B49400108C940010A6
:101A20007C940010549400104C940010BC9400104E
:101A3000C494001074940010000104406C940010D1
:101A400064940010CC940010949400103C94001006
:101A50000002044044940010DC9400102494001010
:101A6000D4940010E49400102C94001034940010CE
:101A700030B585B001A8044B020032CB32C205F06C
:101A8000EBF805B030BDC046EC94001010B5FFF780
:101A90008DFC002010BD70B505000E001C0004ABCD
:101AA00018888D421FD395421ED2521A91B2A0427D
:101AB0000CD2AE1BB6B2201A80B270434B08C018CD
:101AC00005F06CFA80B2201A80B20DE0AD1BADB209
:101AD000001B80B268434B08C01805F05FFA80B263
:101AE000001980B200E0200070BD70B51D0004AB8D
:101AF0001B7888421DD990421DD2AB420CD2441AA9
:101B0000E4B2E81AC0B26043511AC9B205F056FAFD
:101B1000C0B2281AC0B20DE0441AE4B2581BC0B2D9
:101B20006043511AC9B205F049FAC0B24019C0B2B7
:101B300000E0280070BD1800FCE7030008008B429D
:101B400000D21800704710B504000F2A13D81023D4
:101B50009B1A43434A439B1808331B0998B281429E
:101B60000AD1844202D9013080B205E0844203D216
:101B7000013880B200E0002010BD0000002803D032
:101B8000044B20225A607047024B802292035A6015
:101B9000F9E7C04600010440F0B5DE4657464E4620
:101BA0004546E0B587B0F84CE28C01922C23E05C0E
:101BB0005043642105F0F2F9F44B1880227EF44B77
:101BC0001A70638BB722A65C9B1BF24A1380C0235A
:101BD000E25CF14B1A708423E75CF04B1F707A08CB
:101BE000EF4B1A707E23E35C002B04D18022A35CB0
:101BF000002B00D16DE2E44C236B9B46E949181C95
:101C000005F070FF05F06EFDE74B1880636B9A4698
:101C1000E449181C05F066FF05F064FDE34B1880ED
:101C2000A36B9946DF49181C05F05CFF05F05AFDCF
:101C3000DF4B1880E36B9846DA49181C05F052FF19
:101C400005F050FDDB4B1880236CD6490293181C1D
:101C500005F048FF05F046FDD74B1880626CD1496E
:101C60000392101C05F03EFF05F03CFDD34B18809D
:101C7000E56DCC49281C05F035FF05F033FDD04B50
:101C800018802823E05C06F03BFA041CCD49584636
:101C900005F028FF011C201C05F024FF05F022FDA3
:101CA000C94B1880C749504605F01CFF011C201C79
:101CB00005F018FF05F016FDC44B1880C1494846D1
:101CC00005F010FF011C201C05F00CFF05F00AFDBB
:101CD000BF4B1880BB49404605F004FF011C201C87
:101CE00005F000FF05F0FEFCBA4B1880B5490298DC
:101CF00005F0F8FE011C201C05F0F4FE05F0F2FCD6
:101D0000B54B1880AF49039805F0ECFE011C201C70
:101D100005F0E8FE05F0E6FCB04B1880A949281C48
:101D200005F0E0FE011C201C05F0DCFE05F0DAFCED
:101D3000AB4B1880944C2823E35C9800C0184000FB
:101D400006F0DEF9A74905F0CDFE05F0CBFCA64B69
:101D50001880B623E55CAB00ED186D00A34B1D8029
:101D6000A34B1D804F2D00D987E2A24B50221A8031
:101D7000854BD5229B5C002B00D181E29E4BD43A4F
:101D80001A709E4B01321A709D4B0B321A709D4B8C
:101D9000093A1A709C4B06321A709C4B043A1A701E
:101DA0009B4B01321A709B4B043A1A709A4B0632C5
:101DB0001A709A4B1A70744CB823E25C984B1A70E4
:101DC000984B1F70BD23E25C974B1A706923E25C4D
:101DD000964B1A708723E25C954B1A706823E25C7D
:101DE000944B1A706C23E25C934B1A70A27D934B58
:101DF0001A706423E25C924B1A70BC22A25C5A7087
:101E00007023E25C8F4B1A707123E25C8E4B1A7068
:101E10006D23E25C8D4B1A70E27D8D4B1A702B2383
:101E2000E05C019B5843642105F0B8F8574B1880DB
:101E30002923E25C874B1A70874B1E80874B1E80DC
:101E4000237D002B00D139E231003C39844A1180D6
:101E5000844A1680844A13704B4B6222995C834AF1
:101E600011707621595C5170C922995C804A1170B9
:101E7000CE22995C7F4A1170CF21595C51707E4A05
:101E800015705C4909885170C522995C7B4A1170B4
:101E90006B22995C7A4A11708F22995C794A117091
:101EA0009021595C51709121595C91709221595C3B
:101EB000D1709321595C11719421595C517189221F
:101EC000995C714A11708A21595C51708B21595C5F
:101ED00091708C21595CD1708D21595C11718E21CA
:101EE000595C5171694A0021117096201E5A76087A
:101EF000F6B2567002301D5A6D08EDB29570023080
:101F00001C5A6408E4B2D4700230185A4008C0B2B7
:101F1000107151719E27DF5D97719F27DF5DD7712B
:101F2000A027DF5D1772A127DF5D57729172A2278C
:101F3000DF5DD772A327DF5D1773A427DF5D5773BB
:101F4000A527DF5D9773D173A627DF5D1774A727D9
:101F5000DF5D5774A827DF5D9774A927DF5DD7740D
:101F6000117556759575D47510765176B120185C3B
:101F70009076B220185CD076B320185C1077B4202D
:101F8000185C507784E0C046180600207A3A00209A
:101F9000443C0020F4060020E43B0020E33900200C
:101FA000E23900200000C842FA390020F839002048
:101FB000F6390020F4390020F2390020F0390020F1
:101FC000EE39002000002041D4390020D239002011
:101FD000D0390020CE390020CC390020CA39002069
:101FE000C839002033338340DA390020E03900203B
:101FF000DC390020DE390020E9390020EC390020EE
:10200000E5390020E6390020EB390020E8390020CE
:10201000E4390020EA390020ED390020E7390020BA
:10202000E93B00200E3C0020113C0020843C0020B5
:10203000EA3B0020903C00209A3C0020E73B002037
:10204000B83C0020313C0020323C0020333C0020D2
:10205000E83B00203E3C00208A3A00208C3A0020D9
:10206000903A00208E3A00209B3C0020C03C00208B
:102070002D3C0020983C0020FC3B0020893C0020A7
:102080008A3C0020003C0020083C0020503C0020FE
:102090009177AA20185CD077AB201C5C8B38145445
:1020A0008C301C5C8B3814548C30185C2223D05438
:1020B0000133D1540133D1540133D1540133D154BC
:1020C0000133D15407B0F0BCBB46B246A946A04686
:1020D000F0BD7E4C236B9846181C06F025FF0022AD
:1020E0007B4B06F0A7F805F015FB7A4B1880636B65
:1020F0000293181C06F018FF0022754B06F09AF8A0
:1021000005F008FB744B1880A26B91467349101CB4
:1021100005F0E8FC05F0E6FA714B1880A26C9246D7
:102120006E49101C05F0DEFC05F0DCFA6D4B1880E2
:10213000E26C93466949101C05F0D4FC05F0D2FA14
:10214000694B1880226D65490392101C05F0CAFC8A
:1021500005F0C8FA654B1880616D0D1C5F49049548
:10216000281C05F0BFFC05F0BDFA614B1880A16D7D
:102170000D1C5A490595281C05F0B4FC05F0B2FA6F
:102180005C4B1880E56D5549281C05F0ABFC05F04B
:10219000A9FA594B18802823E05C05F0B1FF041C14
:1021A0005649404605F09EFC011C201C05F09AFC97
:1021B00005F098FA524B18805049029805F092FCAD
:1021C000011C201C05F08EFC05F08CFA4D4B18808C
:1021D0004A49484605F086FC011C201C05F082FC9B
:1021E00005F080FA484B18804449504605F07AFCC7
:1021F000011C201C05F076FC05F074FA434B188096
:102200003E49584605F06EFC011C201C05F06AFC96
:1022100005F068FA3E4B18803849039805F062FCD7
:10222000011C201C05F05EFC05F05CFA394B18809F
:102230003249049805F056FC011C201C05F052FCA4
:1022400005F050FA344B18802C49059805F04AFCEB
:10225000011C201C05F046FC05F044FA2F4B1880A9
:102260002649281C05F03EFC011C201C05F03AFC08
:1022700005F038FA2A4B18805CE52A4B1D8077E57B
:10228000294B01221A70294B01321A70284B013256
:102290001A70284B01321A70274B01321A70274BE3
:1022A00001321A70264B01321A70264B01321A7015
:1022B000254B01321A70254B1A707CE5244A8C217B
:1022C0001180244A82311180C4E5C04618060020DE
:1022D00000005940FE390020FC3900200000C842AF
:1022E000FA390020F8390020F6390020F4390020AE
:1022F000F2390020F0390020EE39002000002041A2
:10230000D8390020D6390020D4390020D239002015
:10231000D0390020CE390020CC390020CA39002025
:10232000C8390020DE390020E9390020EC390020CE
:10233000E5390020E6390020EB390020E83900209B
:10234000E4390020EA390020ED390020E739002087
:10235000903A00208E3A002070B5CF4B1B88CF4AB0
:102360001288934200D046E3CC4C2380CC4B1B8890
:102370006380CC4B1B78643B2371CB4B1B88637110
:10238000CA4B1B88E380CA4B1B882381C94B1B881F
:102390006381C94B1B88A381C84B1B88E381C84B51
:1023A0001B882382C74B1B886382C74B1D7825750A
:1023B000C64B1B886375C64B1B88A375C54B1B8812
:1023C000E375C54B1B882376C44B1B886383C44BC2
:1023D0001B88A383C34B1B88A377C34B1B88E3775E
:1023E000C24B1A882023E254C14B1A882123E2549D
:1023F000C04B1A882223E254BF4B1B88A384BF4BD7
:102400001B88E384BE4B1A882823E254BD4B1A88EC
:102410002923E254BC4B1A882A23E254BB4B1A8866
:102420002B23E254BA4B1A882C23E254B94B188858
:1024300005F0B8FEB84905F08BF92063B74B188852
:1024400005F0B0FEB44905F083F96063B44B188819
:1024500005F0A8FEB04905F07BF9A063B14B1888E0
:1024600005F0A0FEAC4905F073F9E063AE4B1888A7
:1024700005F098FEA84905F06BF92064AB4B18886D
:1024800005F090FEA44905F063F96064A84B188834
:1024900005F088FEA04905F05BF9A064A54B1888FB
:1024A00005F080FE9C4905F053F9E064A24B1888C2
:1024B00005F078FE984905F04BF920659F4B188888
:1024C00005F070FE944905F043F960659C4B18884F
:1024D00005F068FE904905F03BF9A065994B188816
:1024E00005F060FE8C4905F033F9E065964B1A88DB
:1024F0006023E252954B1A886223E254944B1A8867
:102500006323E254934B1A886423E254924B1A8853
:102510006523E254914B1A886623E254904B1A8843
:102520006723E2548F4B1A886823E2548E4B1A8833
:102530006923E2548D4B1A886A23E2548C4B1A8823
:102540006B23E2548B4B1A886C23E2548A4B1A8813
:102550006D23E254894B1A886E23E254884B1A8803
:102560006F23E254874B1A887023E254864B1A88F3
:102570007123E254854B1A887223E254844B1A88E3
:102580007423E252834B1A887623E254824B1A88D2
:102590007723E254814B1A887823E254804B1A88BF
:1025A0007923E2547F4B1A887A23E2547E4B1A88AF
:1025B0007B23E2547D4B1A887C23E2547C4B1A889F
:1025C0007D23E2547B4B1A887E23E2547A4B1A888F
:1025D0007F23E254794B1A888023E254784B1A887F
:1025E0008123E254774B1A888223E254764B1A886F
:1025F0008323E254754B1A888423E254744B1A885F
:102600008523E254734B1A888623E254724B1A884E
:102610008723E254714B1A888823E254704B1A883E
:102620008923E2546F4B1A888A23E2546E4B1A882E
:102630008B23E2546D4B1A888C23E2546C4B1A881E
:102640008D23E2546B4B1A888E23E2546A4B1A880E
:102650008F23E254694B1A889023E254684B1A88FE
:102660009123E254674B1A889223E254664B1A88EE
:102670009323E254654B1A889423E254644B1A88DE
:102680009623E252634B1A889823E252624B1A88CF
:102690009A23E252C2E0C04600F000101806002063
:1026A00002F0001004F0001006F0001008F0001016
:1026B0000AF000100CF000100EF0001010F00010E6
:1026C00012F0001014F0001016F0001018F00010B6
:1026D0001AF000101CF000101EF0001020F0001086
:1026E00022F0001024F0001026F0001028F0001056
:1026F0002AF000102CF000102EF0001030F0001026
:1027000032F0001034F0001036F0001038F00010F5
:102710003AF000103CF000100000C8423EF00010FB
:1027200040F0001042F0001044F0001046F000109D
:1027300048F000104AF000104CF000104EF000106D
:1027400050F0001052F0001054F0001056F000103D
:1027500058F000105AF000105CF000105EF000100D
:1027600060F0001062F0001064F0001066F00010DD
:1027700068F000106AF000106CF000106EF00010AD
:1027800070F0001072F0001074F0001076F000107D
:1027900078F000107AF000107CF000107EF000104D
:1027A00080F0001082F0001084F0001086F000101D
:1027B00088F000108AF000108CF000108EF00010ED
:1027C00090F0001092F0001094F0001096F00010BD
:1027D00098F000109AF000109CF000109EF000108D
:1027E000A0F00010A2F00010A4F00010A6F000105D
:1027F000A8F00010AAF00010ACF00010AEF000102D
:10280000B0F00010B2F00010B4F00010B6F00010FC
:10281000B8F00010BAF00010BCF00010764B1A8827
:102820009C23E252754B1A889E23E254744B1A88FB
:102830009F23E254734B1A88A023E254724B1A88E8
:10284000A123E254714B1A88A223E254704B1A88D8
:10285000A323E2546F4B1A88A423E2546E4B1A88C8
:10286000A523E2546D4B1A88A623E2546C4B1A88B8
:10287000A723E2546B4B1A88A823E2546A4B1A88A8
:10288000A923E254694B1A88AA23E254684B1A8898
:10289000AB23E254674B1A88AC23E254664B1A8888
:1028A000AD23E254654B1A88AE23E254644B1A8878
:1028B000AF23E254634B1A88B023E254624B1A8868
:1028C000B123E254614B1A88B223E254604B1A8858
:1028D000B323E2545F4B1A88B423E2545E4B1A8848
:1028E000B523E2545D4B1A88B623E2545C4B1A8838
:1028F000B723E2545B4B1A88B823E2545A4B1A8828
:10290000B923E254594B1A88BA23E254584B1A8817
:10291000BB23E254574B1A88BC23E254564B1A8807
:10292000BD23E254554B1A88BE23E254544B1A88F7
:10293000BF23E254534B1A88C023E254524B1A88E7
:10294000C123E254514B1A88C223E254504B1A88D7
:10295000C323E2544F4B1A88C423E2544E4B1A88C7
:10296000C523E2544D4B1A88C623E2544C4B1A88B7
:10297000C723E2544B4B1A88C823E2544A4B1A88A7
:10298000C923E254494B1A88CA23E254484B1A8897
:10299000CB23E254474B1A88CC23E254464B1A8887
:1029A000CD23E254454B1A88CE23E254444B1A8877
:1029B000CF23E254434B1A88D023E254424B1A8867
:1029C000D123E254414B1A88D223E254404B1A8857
:1029D000D323E2543F4B1A88D423E2543E4B1A8847
:1029E000D523E2543D4B1A88D623E254002D02D160
:1029F000E1225200628370BDBEF00010C0F00010F2
:102A0000C2F00010C4F00010C6F00010C8F00010B2
:102A1000CAF00010CCF00010CEF00010D0F0001082
:102A2000D2F00010D4F00010D6F00010D8F0001052
:102A3000DAF00010DCF00010DEF00010E0F0001022
:102A4000E2F00010E4F00010E6F00010E8F00010F2
:102A5000EAF00010ECF00010EEF00010F0F00010C2
:102A6000F2F00010F4F00010F6F00010F8F0001092
:102A7000FAF00010FCF00010FEF0001000F1001061
:102A800002F1001004F1001006F1001008F100102E
:102A90000AF100100CF100100EF1001010F10010FE
:102AA00012F1001014F1001016F1001018F10010CE
:102AB0001AF100101CF100101EF1001020F100109E
:102AC00022F1001024F1001026F1001028F100106E
:102AD0002AF100102CF100102EF1001030F100103E
:102AE00070B5164B1B78002B14D0012B16D0144B4D
:102AF0001B78002B0DD0134D2C88134B134A1278E2
:102B00005200D05A6043642104F048FA80B224187D
:102B10002C8070BD0A4B01221A70E8E70C4B1B8811
:102B2000002B03D1064B01221A70E0E7074B1B78FC
:102B30002D2BDCD9024B00221A70D8E7893C0020EB
:102B40008B3C0020803A0020BC3A0020403C002012
:102B5000B83B002010B5194B1B78002B0BD1184B3C
:102B60001B88002B07D1174B01221A70164B174AEE
:102B700012781A701DE0134B1B78002B19D0124BE2
:102B80001B78002B16D0104A013B13700E4B1B789C
:102B9000642058430D4B197804F010FA83B2642076
:102BA000C01A80B20A4C23885843642104F006FA04
:102BB000208010BD034B00221A70E7E7403C002044
:102BC000B23A0020863C0020853C00200C07002003
:102BD000803A002010B5164B1B78002B23D0154AE5
:102BE0001378591C1170DB0703D5134A138801337E
:102BF0001380114B1A88C8239B009A4202D90E4BAE
:102C0000A0221A800C4B1B88DB08DBB20B4A137026
:102C10000B4A1288534364205843A72104F0BEF99D
:102C2000084B188010BD044BA0221A80FAE7C0465A
:102C3000A03C00208F3C0020B63A0020433C0020FE
:102C4000803A0020B83A002010B50F4B1B889BB289
:102C5000002B15D00C4B198889B20C4B1889AB236B
:102C60009B00584304F09AF9094B1880094B1B78D4
:102C7000002B04D0064A99005B185B00138010BD3E
:102C8000034B00221A80F1E7FC3D0020603A00204F
:102C9000B83B0020C23C002008490A889308D21A99
:102CA00092B20A80064B1B889B189BB20B80054A88
:102CB0009B0857214B4313807047C0467C3A002045
:102CC000F03D0020A03A0020724B9B7C012B5ED08F
:102CD000704B9B7C022B5AD06E4B9B7C052B56D0A5
:102CE0006C4B9B7C042B52D06B4B00221A706B4BAD
:102CF0001A880A2A07D9684B1B78002B4FD1654BDD
:102D00009B7C032B4BD0664B00211970644B1B78C6
:102D10003C2B03D9634B1978634B1970634B1988AB
:102D2000634B1B88994203D05E4B19785E4B197038
:102D3000594B1978002915D05E4B1B880A3B9BB272
:102D400091204000834209D85B4B1888AF239B0039
:102D5000984203D8594B1B78002B03D0584B187856
:102D6000514B1870574B1B88642B25D9564B1B7839
:102D7000002B21D100291FD0544B1B78013BDBB223
:102D8000812B19D952490B7801330B7017E0514B45
:102D90001B78002BA8D1404B01221A70A7E74E4B9D
:102DA0001B78002B03D04D4B1B78002BABD13C493B
:102DB0000B7801330B70A9E7454B00211970444B88
:102DC0001B78FA2B03D9464B1978374B1970454BB2
:102DD0001B78002B20D15A2A0CD92E4B9B7C072B19
:102DE00008D02C4B9B7C062B04D03F490B88013329
:102DF0000B8002E03C4B002119803C4B1B88002BD0
:102E000002D0394B00211980374B1B887D2B03D909
:102E1000374B1978244B1970364B1B781E2B10D961
:102E2000092A0ED8344A13780133DBB213700A2B07
:102E30000AD9324B1A781C4B1A702F4B00221A7089
:102E400002E02D4B00221A702D4AC5239B00D35857
:102E50009B109B059B0D2B4A13800E4B5B7CDBB2BA
:102E6000294AD35C002B14D0284B1B78132B10D885
:102E7000264A01331370234B1A8892080C4B792190
:102E80005B5C0533DBB29A4203D9214B1A78064BBF
:102E90001A707047603A0020793C0020B23A002056
:102EA0003D3C0020E7390020913C002000F000105C
:102EB000180600208A3A00207E3A0020E33B0020DA
:102EC000EC390020823A0020883C0020403C002061
:102ED000F33B0020E53B0020E23B00202C3C00209F
:102EE000E5390020933C0020A43A0020B83B0020A4
:102EF000EA390020ED3B00203C3C0020E639002070
:102F000000080348E63D0020983C0020953C002046
:102F1000EB39002010B52A4B1B78002B11D0294B20
:102F20001A78C8239B0053439BB2274A1088584302
:102F3000264B19894B00C918C90104F02FF8244BFE
:102F40001880244B6A229B5C002B22D0204B1C88CB
:102F5000002C07D0204B1888210004F01FF884B201
:102F60006400A4B21D4B1988002906D01A4B18889A
:102F700004F014F881B2490089B2194B1B78002B78
:102F80000FD08C4206D2091B89B2164A13685B180F
:102F9000136010BD611A89B2124A13685B1A13607C
:102FA000F7E7002CF5D00F4B1B680F4A9342F0D97E
:102FB0000C4A1B1B1360064B00221A80E9E7C0462F
:102FC000283C00203F3C0020FC3D0020603A0020CF
:102FD000B43A002018060020AA3A0020A83A00209F
:102FE000103C0020FC06002000E1F50510B50D4B5B
:102FF00018880D4B1B7858430A2103F0CFFF80B28D
:103000000A4B18800A4B1A6880181860094903F0A7
:10301000C5FF094B1860094B1B68C018084B1860A6
:1030200010BDC0469E3A0020ED3B00209A3A002099
:10303000D83B0020907E0000D43B0020D03B0020F5
:10304000DC3B002070B582B0204B1888C72807D918
:103050001F4B18221A701F4B0F3A1A7002B070BD26
:103060001D4E33788008C0B21825009532220A21FF
:10307000FEF73BFD164C20703378184A1078009507
:1030800046221421FEF731FD2378834201D9104BEB
:103090001870134E33780D4A10888008C0B2092585
:1030A000009532220A21FEF720FD0A4C2070337869
:1030B0000A4A1078009546221421FEF716FD23785F
:1030C0008342CBD9034B1870C8E7C046B83B0020F9
:1030D000070700200507002008070020403C0020CB
:1030E0000607002010B5334B1C78334B5B7B002B5D
:1030F0000ED0324B1B78002B0AD1314B1A88314B42
:10310000197878235B1A9A4202DD2C4B01221A703F
:10311000294B1B7D002B3FD1284B1A78002A03D165
:10312000294B1B78002B36D0254B1988274B1B7851
:103130004B43544363431B0A5801C01A8000C01814
:10314000C000234B198803F029FF84B22409FFF73C
:1031500079FF204B1A78A24221D21F4B1A701F4BC5
:1031600088229B5C002B0FD01D4B1B78002B19D0A5
:10317000194B1B78144A1278934201D9124A1370E2
:10318000154B114A12781A70134B1B78002B0DD077
:10319000144BFE221A7010BDFFF7A2FCBCE70E4BC9
:1031A0001C70DCE7084B00221A70EDE70D4B002283
:1031B0001A70F0E74D3C0020603A0020403C0020AF
:1031C000803A0020E83B0020873C0020443C00205F
:1031D000A03A002000070020E23B00201806002053
:1031E000883C00202C3C002070B5334BCA229B5CED
:1031F000002B52D1314B5B7B002B0ED0304B1B7818
:10320000002B0AD12F4B1A882F4B197878235B1A81
:103210009A4202DD2A4B01221A70284B9B7B002B1D
:1032200002D0274B01221A70264B1B88002B03D09B
:10323000234A1278002A03D1244A1278002A2BD07C
:10324000234A107858433C2103F0B8FE040085B2AD
:10325000FFF7F8FE1F4B1A78AA4221D21E4B1A70B4
:10326000154B88229B5C002B0FD01C4B1B78002B2E
:1032700019D0194B1B78154A1278934201D9134A79
:103280001370154B114A12781A70134B1B78002BD0
:103290000DD0134BFE221A7070BDFFF75BFCA9E73F
:1032A0000D4B1C70DCE7094B00221A70EDE70C4B4C
:1032B00000221A70F0E7C04618060020603A00208D
:1032C000403C0020803A0020E83B0020873C002062
:1032D0004D3C002000070020E23B0020883C0020FD
:1032E0002C3C002010B5194B1A78002A25D0184B19
:1032F0001B789B189B10174A1380174B1B78A42B25
:1033000002D8154BA5221A70FFF724FC124BA522F8
:103310001A70104B1C88114A12881A80FFF792FE0F
:103320000F4B1A78A24209D20E4B1A700D4B1B7824
:10333000002B06D00C4BFE221A7010BD094B1C70DE
:10334000F4E7094B00221A70F7E7C046403C002022
:103350004D3C0020803A00200C070020843A0020D9
:1033600000070020E23B00202C3C002070B5384BC9
:103370005B7B002B0ED0374B1B78002B0AD1364BD2
:103380001A88364B197878235B1A9A4202DD314B42
:1033900001221A702E4B9B7B002B02D02D4B012259
:1033A0001A702D4B1888002803D02A4B1B78002B4D
:1033B00003D12B4B1B78002B3CD02A4B1B785B0096
:1033C000FE214900C91A89B2274B1B78002B05D072
:1033D000204B1B788B422ED8C91A89B20A3189B288
:1033E0004043081803F0DAFD040085B2FFF72AFE17
:1033F0001E4B1A78AA4220D21D4B1A701D4B8822F0
:103400009B5C002B0FD01C4B1B78002B18D0184B4B
:103410001B78134A1278934201D9114A1370144B46
:103420000F4A12781A70124B1B78002B0CD0134BDA
:10343000FE221A7070BD0021D0E70D4B1C70DDE735
:10344000074B00221A70EEE70C4B00221A70F1E7CE
:10345000603A0020403C0020803A0020E83B0020F9
:10346000873C00204D3C00202D3C00200007002020
:10347000E23B002018060020883C00202C3C002065
:1034800070B5404BCA229B5C002B30D13E4B5B7B1E
:10349000002B0ED03D4B1B78002B0AD13C4B1A88D9
:1034A0003C4B197878235B1A9A4202DD374B012294
:1034B0001A70354B9B7B002B02D0344B01221A70C3
:1034C000324B1E78002E03D1334B1B78002B4DD08E
:1034D0002F4B1D88002D0DD0304B1A78304B9B1888
:1034E000587968433C2103F069FD84B203E0FFF79B
:1034F00031FBCBE72C002B4B1B782B4A12786A430D
:1035000092B2734353431B0A5801C01A8000C0187B
:10351000C000264B198803F041FD80B200098442A7
:1035200000D20400FFF78EFD214B1A78A2421ED272
:10353000204B1A70134B88229B5C002B0FD01E4B24
:103540001B78002B16D01B4B1B78134A1278934222
:1035500001D9114A1370174B0F4A12781A70154B84
:103560001B78002B0AD0154BFE221A7070BD114B30
:103570001C70DFE7084B00221A70F0E70F4B0022A7
:103580001A70F3E718060020603A0020403C002043
:10359000803A0020E83B0020873C00200207002002
:1035A000503C00204D3C0020443C0020A03A00202C
:1035B00000070020E23B0020883C00202C3C00203B
:1035C00030B583B0904BCD229B5C002B00D1C7E07F
:1035D0008E4B5B7CDBB28E4AD35C8E4A13708E4A74
:1035E00011788E4A1278914200D195E08A490A708A
:1035F000854A7821525C002A00D1B3E0824A13390F
:10360000525C002A00D18BE09BB2854A128893421B
:1036100000D993E0834B1B78002B00D18EE0824BC6
:103620001B78002B04D1814B1B78002B00D185E047
:103630007A4B06221A707E4B1B78002B18D07C4ADE
:10364000002313707B4A13807B4A13807B4AFA2144
:10365000490011807A4A13807A4A13807A4B7B4A58
:1036600012789B185B7E9A009B185B00784A138047
:10367000774A6B4B12881B88D21A93B210B26D4AEC
:1036800010806E490A889A1812B20A80FA218900BD
:103690008A4200DCADE0694A1180674C2188591AE2
:1036A0008AB2674D298020809B009BB2510052183E
:1036B000520092B261490020085E81000918C910C9
:1036C0009B185B181BB25F4A1380002B00DA97E04F
:1036D0005C4B00229A5EFA239B009A4203DD594B11
:1036E000FA2292001A805B4BF4221A705A4BAB3AC2
:1036F0001A705A4B5A4A12781A70524B0020185EB0
:103700008010C0B2FE2300930023FA220021FEF7AE
:10371000ECF9544B187023E0424A0121117067E71D
:103720009BB23F4A1288934208D83E4B1B78002B2D
:1037300004D03D4B1B78002B00D079E7394B002299
:103740001A703B4B01321A70344B02321A703E4BE6
:103750003E4A12789B189A7A434B1A70FFF7C2FDC3
:1037600003B030BD284AB521525C002A2FD0264A2A
:103770005039525C002A17D09BB2294A12889342D2
:10378000DCD8224B5B7C002BD8D1264B1B78002B3E
:10379000D4D0254B1B78002B00D049E7234B1B7856
:1037A000002B00D044E7C9E79BB21D4A1288934220
:1037B000C4D8164B5B7C002BC0D11A4B1B78002B56
:1037C000BCD0194B1B78002B00D031E7B6E79BB279
:1037D000134A12889342B1D80C4B5B7C002BADD1BD
:1037E000104B1B78002BA9D00F4B1B78002BA5D0BA
:1037F0001EE7002A00DB50E7104A002111804CE749
:10380000130000221A8063E718060020603A0020A7
:10381000FC3B0020F83B00204C3C00204B3C0020AF
:10382000B83B0020F63B0020403C0020F73B002046
:10383000F53B00200E3A0020123A0020103A0020FA
:103840000C3A00200A3A0020503C002002070020D9
:10385000B63B00200707002005070020E23B0020C0
:10386000000700202C3C00204D3C002030B583B0E8
:103870003F4AC7239B00D3589B109B059B0D3D4A95
:10388000138010883C4C7923E15C0133E25C4033C7
:10389000E35CBB25645D8008C0B20094FEF725F9A7
:1038A000364B187000282FD0354B1870354B5B7C89
:1038B000DBB2354AD35C012B2AD0032B30D0304BFE
:1038C0001878324B1B7800930023FF220021FEF76B
:1038D0000CF9040005002E4B1B78834212D22D4BAD
:1038E0001888FE282BD92C4B30221A702B4B273AE4
:1038F0001A70264B1B78AB4237D2254A1370284BDF
:10390000FE221A7003B030BD1D4B00221A70CDE7A5
:10391000244B1B78002BD2D1194B00221A70CEE712
:10392000154BAE229A5C1B4B1B889A42C7D21D4B8B
:103930001B78002BC3D1124B00221A70BFE7C0B214
:1039400030230093C433FF222821FEF7CEF8124B18
:103950001870104B1878092300934033FF22282158
:10396000FEF7C3F80D4B1870C3E7094B1C70C6E790
:1039700000080348E63D002018060020943C002083
:10398000E53B0020603A0020983C00200007002022
:10399000E23B0020B83B002007070020050700207D
:1039A0002C3C0020403C002010B582B01B4B1C88F2
:1039B000A4B2C8221A4B18885623FF330093194B20
:1039C00052002821FEF767F8174B1880002C0BD007
:1039D0002100164803F0E2FAC0B2154B187078289F
:1039E00005D978221A7002E0114B00221A70114B8F
:1039F00000221A800E4B1C78002C0AD00E4B18782F
:103A0000001B002805DD0002210003F0D7FA094B56
:103A10001880094B1C7002B010BDC046F43D002058
:103A2000B83B0020AE100000F606002035DF000095
:103A3000403C0020143A0020413C002070B582B088
:103A4000114B9B7A002B01D102B070BD0E4A937AC4
:103A5000023BDBB2990059184900947A0234E4B26F
:103A6000A300E4186400094E3378094D2888002229
:103A700000922200FEF70FF830702B88A342E3D9A2
:103A8000044B00221A70DFE7603A0020E23B00207E
:103A9000B83B00202C3C002010B56E4A137801334F
:103AA000DBB213706C490A780132D2B20A706B49EA
:103AB000097800291BD0032B19D9664B00211970F6
:103AC000664B1970664B1B78002B1AD0012A18D947
:103AD000614B00221A70624B1A70624BDB7CDBB2C6
:103AE000082B00D9B0E09B005F4AD3589F460029BD
:103AF000E8D1022BE6D9574B1970584B0131197098
:103B0000E0E7002BE9D1012AE7D9534B00221A70D4
:103B1000534B01321A70E0E7544B1878FEF72EF839
:103B200010BD524B1878002804D04C4B1878FEF783
:103B300025F8F5E7FEF722F8F2E74C4B1878002855
:103B400003D04B4B1B78002B02D1FEF717F8E7E7A9
:103B5000434B1878FEF712F8E2E7444B1878002838
:103B600003D0434B1B78002B06D100280AD03B4BD7
:103B70001878FEF703F8D3E73D4B1878C0B2FDF78D
:103B8000FDFFCDE7FDF7FAFFCAE7384B18780028AC
:103B900003D0374B1B78002B06D1002809D02F4BC0
:103BA0001878FDF7EBFFBBE72D4B1878FDF7E6FF24
:103BB000B6E7FDF7E3FFB3E72D4B1B78002B05D0ED
:103BC0002B4B1878C0B2FDF7D9FFA9E7274B18781F
:103BD000FDF7D4FFA4E7264B1B78002B04D0204B25
:103BE0001878FDF7CBFF9BE7204B1878FDF7C6FF51
:103BF00096E71F4B1B78002B08D11C4B1878002828
:103C00000AD0164B1878FDF7B9FF89E7184B1878DA
:103C1000C0B2FDF7B3FF83E7FDF7B0FF80E7144BB9
:103C20001B78002B08D1114B1878002809D00B4BBA
:103C30001878FDF7A3FF73E7094B1878FDF79EFF8F
:103C40006EE7FDF79BFF6BE7084B1878FDF796FFD3
:103C500066E7C046073C0020F23B0020063C0020FF
:103C6000F13B0020603A0020F8940010373C00201F
:103C70002C3E002010B5754B9B7B002B1DD0744B48
:103C80001B781433734A1370724B1B78822B02D942
:103C9000704B82221A70704BF4221A706F4BAB3A41
:103CA0001A706F4B19782820FDF747FF6D4B18707D
:103CB0006D4B684A12781A7010BD654B18786B4BC3
:103CC00018706B4B1B78002B0ED16A4A1288002AA1
:103CD0000AD1604B32321A70674B1A70674B002260
:103CE0001A80674B1A80CFE7002B6FD0614B1B887F
:103CF000644A1288934219D2634B04221A70634AB1
:103D00001378591C1170042BBED9524B1A785A4B98
:103D10001B789A4206D24F4B01321A705B4B00223D
:103D20001A70B1E7544A01331370F7E75449098810
:103D30008B4217D29B1A9B00DBB2534A1370534934
:103D40000A78501C087093429ED2424B1B784A4A14
:103D50001278934202D23F4A013313704B4B002238
:103D60001A7091E74A4A1288934216D2D31A9B00DE
:103D7000DBB2454A137045490A78501C08709342DB
:103D800000D381E7334B1B78282B02D9314A013B02
:103D900013703E4B00221A7076E73B4B04221A70D8
:103DA0003A4A1378591C1170042B00D86CE7294B40
:103DB0001B78282B06D9274A013B13702E4A13780B
:103DC000013B1370314B00221A705DE72E4B0A2223
:103DD0001A702E4A1378591C11700A2B00D853E719
:103DE0002C4B1988002925D02A2903D9194A137880
:103DF000013B1370214A13885C1C1480092B15D9D0
:103E00001D4A13780A3313701A4B1B88584303F06A
:103E1000D5F880B21A4B18800200143A194B1A8058
:103E200014301B4B1880124B01221A70174B0022C2
:103E30001A7029E7104B1B78772BF7D805490A78B9
:103E400001320A700C4A01331370EFE7603A002028
:103E50004D3C00200E07002007070020050700202A
:103E600000070020E23B00202C3C0020BD3C00204D
:103E7000BC3C0020B23A00200D070020B43B0020DB
:103E8000B23B0020B03B0020B13C0020B63C0020FB
:103E9000AE3B0020B83B002010B5BC4BC2221A70CC
:103EA000BB4B793A1A70BB4B00221A70BA4B1A708E
:103EB000BA4BBE329B5C002B24D0B94B1B88F52B30
:103EC0001DD9B84A1178C9B2B74A1278D2B2914214
:103ED00015D2B64A1278002A11D10B33DBB2B44A9C
:103EE00013705B09B34A13701378DBB2052B02D948
:103EF000130005221A70B04B01221A7002E0AE4B7B
:103F000000221A70AD4B1B78002B20D1AC4B9B7C50
:103F1000DBB2082B3BD89B00AA4AD3589F46FFF739
:103F2000E1F834E0FFF760F931E0FFF7DBF92EE06C
:103F3000FFF71CFA2BE0FFF7A3FA28E0FFF740FB9E
:103F400025E0FFF797FE22E0FEF744FE1FE09E4BC0
:103F50001A78642353431B11DBB28E4A13708F2BE4
:103F600002D913008F221A70984B1B78002B02D0B5
:103F7000884B00221A70964B1B78874A1370FD2BD2
:103F800002D91300FE221A70924B32221A70834B10
:103F9000CE229B5C002B07D0894B5B7CDBB28E4A28
:103FA000D35C002B00D0B7E0FFF748FD8B4AC1235C
:103FB0009B00D3589BB29B08784AD321525C002ABD
:103FC00010D087490978994200D3A8E085490B7839
:103FD00001330B70834B1B789A4203D8824B1A78BB
:103FE0007A4B1A706F4B1A789300D21853017F4A9C
:103FF00013607F4A11685B1813607E490A68013AB2
:104000000A60002A07D19B097B4A136040220A609C
:10401000774B00221A60794B1B78002B33D1784BF9
:104020001B78002B2FD0694B1B78DBB2754A1278B6
:10403000934228D0654B1B78DBB2734A12789342C7
:1040400021D0624B1B78DBB2674A127893421AD0B8
:104050005E4B1B78DBB26D4A1278934213D06C4BE7
:104060001B78002B0FD05B4B1B78002B0BD0694BC0
:104070001B78002B07D1554B1B78002B53D0504B8E
:104080009B7B002B4FD1644BC2221A70634BB93A11
:104090001A70454B00221A70614B1A70584B1B78EE
:1040A000002B00D1C2E0554A1278002A2ED1474A8F
:1040B0001278D2B2534909788A4227D0434A1278FB
:1040C000D2B2514909788A4220D0404A1278D2B2FD
:1040D000454909788A4219D03C4A1278D2B24B49F4
:1040E00009788A4212D04B4A1278002A0ED12C4A03
:1040F0001288002A00D099E0264A1278002A00D0BF
:1041000094E0484A1278002A00D08FE03C4B00220D
:104110001A7002F0B5FB10BDFFF7A8FB44E7314B66
:104120000021197056E7404B1B788F2B02D93E4B6C
:104130008F221A703C4B1B7819003231284A1170BB
:10414000144A1278934201D2124A13700F4B1B7813
:10415000172B02D80D4B18221A700D4B1B78082B09
:1041600002D80B4B09221A70084B1A782A4B1A7086
:10417000074B1A78294B1A70064B1A780A4B1A709B
:10418000054B1A78264B1A7088E7C04607070020AF
:1041900005070020E23B00202C3C002018060020F0
:1041A000B23A0020203E00202D3E0020E53B0020BA
:1041B0002F3C0020353E0020313E0020933C002063
:1041C000603A00201C95001004070020913C00205C
:1041D000090700204D3C0020983C002000040348C3
:1041E000010700202E3C0020E4390020CC3B0020B9
:1041F000C43B0020F8060020C83B00202C3E0020D5
:104200000A070020E6390020E7390020EB390020BA
:1042100002070020233E00201E0700201D0700206B
:104220002E3E0020363E002000070020002B00D04C
:1042300071E70D4B1B78002B00D06CE70B4B1B88F4
:104240009F2B00D967E70A4B1B78002B00D162E750
:10425000084B01221A70084B00221A70074B1A7083
:1042600002F04AFB57E7C0462C3E0020B23A00203D
:10427000E23B00200A070020363E0020343E0020AA
:1042800030B583B06C4B7E229B5C002B09D16A4B0E
:1042900048329B5C002B04D1674B0F329B5C002B98
:1042A00006D0664B1B78452B02D8644B46221A7009
:1042B000634BD88864235843572102F06FFE80B2C5
:1042C000604B1880604B1B78642B02D95E4B6422D4
:1042D0001A70594C607D18230093AA336422002180
:1042E000FDF703FC594B18702923E05C203B009339
:1042F000403364220021FDF7F8FB554B1870CB23A7
:10430000E05CAD3B0093E13364220021FDF7EDFB5F
:10431000504B1870237E504A1370504A1278002A6E
:1043200039D0454BC2229A5C4B4B5A70424BC22249
:104330009A5C4B4B1A70424B197C4A4A1170597D5A
:104340005171597C5170197D9171997DD172597B50
:104350005172997B9173997C434A1170D97C434A7D
:104360001170DB7B9B00424A138013889BB2002BA9
:104370000BD01388FA208000C01A3E4B1B8858438C
:10438000642102F00BFE3C4B18602B4B9A8B3B4B8D
:104390001A80012311E0304A5370C7E75A1E37498B
:1043A0005200545A220224482125405D6043121ACB
:1043B000120A580042520133DBB2772BEED91E4B62
:1043C000BD229B5C002B02D02D4BBC3A1A701C4BBB
:1043D00018796423584380B20009C0B2294B187081
:1043E000154CA28C284B5A43120928490A607422A2
:1043F000A25A53431B094B60BB23584380B28F2101
:1044000002F0CCFD80B2224B18801B889BB2BB2BE4
:1044100002D91F4BBB221A80074BB7229A5C1D4959
:104420000A80C021585C1C4908705B8B9B1A1B4A90
:10443000138003B030BDC046180600200E3C00209B
:10444000603A002012070020E83B00200807002007
:10445000060700200C070020483C00209B3C002061
:10446000423C0020183C0020293C0020273C002032
:10447000943A00207A3A0020D03B0020BC3A002039
:10448000103C0020E03B0020A0860100BC3B002047
:10449000F2060020923A0020E43B0020F4060020BF
:1044A000030043434B4343431B0C80225200521AE8
:1044B0005043C0188030000A704770B504000029CE
:1044C0000CD000280BDB80235B00984200DD180035
:1044D000002906DBFFF7E4FF002C0ADB70BD404239
:1044E000F1E7494280256D00281AFFF7D9FF281A05
:1044F000F2E74042F2E70000F8B58B4B1B78772BD0
:1045000027D98A4B8A4A12881A808A4B00229B5EDE
:10451000192B07DD884B00221A80884B1A80884BA4
:1045200001321A70874B1A88874B1A80864B1B887A
:104530007E4A1288934248D99B1A9800C0184001BD
:10454000824B198802F03AFD84B2A02C3ED9A024F7
:104550003CE07C4B188880B27D4C21880422FDF71A
:10456000F2FA01002080704A13780133DBB2137035
:10457000784A1278002A0BD0774AB724125D312A84
:1045800003D812186A4C228006E0694C228003E0AE
:1045900002001432664C2280782B06D06A4B1880B9
:1045A000624B634A12881A80C0E76C4B1B889942A1
:1045B00007D96B4B1B88994203D26A4B00221A70B1
:1045C000ECE7684B01221A70E8E70024664B1D787F
:1045D000002D1CD1654B00221A80654B00211970FB
:1045E000644B1A70644B1A70644B28221A70644B27
:1045F0001B88A34239D2E31A9BB23B2B38D94F2BED
:1046000038D9632B38D9812B38D9102256E02900AC
:104610009620000102F0D2FC80B2584A13781A00AA
:10462000834205D2272B03D8544A01331370DEE7A7
:104630008242DCD9282BDAD9504A013B13704C4B0B
:104640001A78002AD3D04B490B784E48C75C474EA6
:104650003088C01B30804648013A02700133DBB21B
:104660000B703F2213400B70C1E71B1B9BB2C4E7CA
:10467000012223E0022221E004221FE008221DE0A3
:104680003C490B783F48C75C384E3088C01B3080AF
:104690000133DBB20B703F2003400B7033490B88B2
:1046A000E3180B8034490B783648C4540133DBB22D
:1046B0000B703F2003400B70013AD2B2002A09D0A0
:1046C0002B4B1B782D4909788B42D9D028490133CF
:1046D0000B70E3E7264B1978002904D0234B188888
:1046E00002F06CFC84B2A02C00D9A024244B1C80C6
:1046F000254B1B78143B5900C91889002000FFF78F
:10470000DCFE83B2214A1380214A1380214A1380A0
:10471000214A1078584380B26843602102F03EFC81
:104720001E4B1880F8BDC046793A00208A3A002016
:10473000923A0020143A0020EA3D0020EE3D00208D
:10474000213E0020EC3D00207E3A0020F4060020AF
:104750008C3A00209B3C002018060020903A002054
:104760008E3A0020E33B0020403C00205C3A0020D1
:10477000583A0020593A00205A3A0020F00600200A
:10478000883A0020183A0020E43B0020803A0020BC
:10479000843A0020823A0020443C0020B03A0020B5
:1047A0001E4A8A235B00D3581B070AD48E235B0062
:1047B000D358DBB21A4A1278D1B2002A02D00129AA
:1047C00015D07047592B05D0164B00221A70144B88
:1047D0001A70F6E7134A1178C9B213484354137894
:1047E0000133DBB213700E4B01221A70E9E70D4A58
:1047F0001178C9B20C48435413780133DBB21370FB
:104800001378DBB2062BDCD9130000221A70044B9C
:104810001A70064B01321A70D3E7C04600020048F6
:104820008E3C0020833C00207C3C00204A3C002041
:1048300070B5BC4B1B78002B01D100F09BFCBA4B30
:1048400043221A70B94B00221A70B94A1378012119
:104850008B431370B74B7E229B5C002B04D1B54B6E
:1048600002329B5C002B6ED0B34B1A78072A0CD80F
:104870009300B24AD3589F46AD4A137801210B43A7
:10488000DBB21370A84B00225A70AA4B7F229B5CAC
:10489000002B00D195E0AA4B19881A78A24BDA7048
:1048A000A84B1B88994200D387E09B1ADBB29E4A33
:1048B000137102F077F989235B00984200D3B2E0CC
:1048C000A14B00221A70A04B1B78502B03D99F4B91
:1048D0001A78964B1A709E4B1B78DBB29D4A127861
:1048E000934200D1A5E09A4B1B78002B00D1A2E0A7
:1048F0008E4B1B78002B00D09DE0954B1B78DBB2D4
:104900008A4A137097E0884B00225A70BDE7864BA5
:1049100002225A70B9E7844B06225A70B5E7824BDF
:1049200009225A70B1E7804B0C225A70ADE77E4BDA
:104930000C225A70A9E77C4B0C225A70864B1A78CD
:104940007A4B1A70A1E77C4B1A78092A9DD89300FC
:10495000824AD3589F46764A137801210B43DBB233
:104960001370714B00225A708FE76F4B00225A7000
:104970008BE76D4B02225A7087E76B4B04225A700B
:1049800083E7694B06225A707FE7674B08225A700B
:104990007BE7654B0A225A7077E7634B0C225A700B
:1049A00073E7614B0C225A706FE75F4B0C225A7011
:1049B000694B1A785D4B1A7067E75B4B00221A71DE
:1049C00077E75C4BC6229B5C002B09D1594BD52263
:1049D0009B5C002B16D1544B4622DA701A7168E7A3
:1049E0005F4B1B78504CE3705E4D29885E4B1888F6
:1049F000B93AFDF7A8F82880642102F0CFFAC0B2D6
:104A0000207156E7484C0023E370564D2988564BD9
:104A10001888CD3AFDF797F82880642102F0BEFA95
:104A2000C0B2207145E702F0BDF81138464B18704E
:104A300049E73E4B1A703D4B1B78002B00D1A3E099
:104A40004A4B1B78002B00D09EE03A4B80229B5CA7
:104A5000002B45D0354B1B78DBB2454A1278934288
:104A60001AD0324B1B78DBB23B4A127893421CD0EF
:104A70002E4B1B78DBB23F4A127893421ED02B4B51
:104A80001B78DBB23C4A1278934220D0274B1B782C
:104A9000DBB2254A5371B9E0384B1B78002B00D1AB
:104AA000B4E0214B08225A71B0E0344B1B78002B44
:104AB00000D1ABE01C4B06225A71A7E02F4B1B78AC
:104AC000002B00D1A2E0184B03225A719EE02B4B21
:104AD0001B78002B00D199E0134B04225A7195E00A
:104AE000144B7E229B5A002B04D1124B57329B5CF5
:104AF000002B11D0224B1B78002B03D1214B9B7B29
:104B0000002B03D0084B00225A717FE0074B1B7823
:104B1000DBB2054A537179E0044B1B78DBB2024AE1
:104B2000537173E0283C0020A83C0020123C002078
:104B3000C33C002018060020EE3B002040950010EA
:104B40008C3A00207E3A0020923C0020E839002078
:104B5000913C0020E6390020E939002060950010E2
:104B6000ED3B0020983A00209A3A0020133C0020A8
:104B7000ED390020EB390020E4390020063C00200C
:104B8000EC3B0020603A0020C34B1B78002B3AD04E
:104B9000C24BD5229B5C002B07D0C14B1B78022B4C
:104BA00020D0032B22D0012B18D0BE4B1B78002B1A
:104BB00024D1BB4B1B78002B20D0BB4B1B7C002B84
:104BC00003D1BA4B1B78002B18D1B94B1B78002BA3
:104BD00010D0B14B1A78B74B5A7117E0AE4BD43A9C
:104BE0001A70E2E7AC4B02221A70DEE7AA4B0422ED
:104BF0001A70DAE7AF4B00225A7107E0A64B1A7819
:104C0000AC4B5A7102E0AB4B00225A71AA4B1B7895
:104C1000002B00D166E2A94B1B78002B00D178E075
:104C2000A74B1B78002B57D0A64CA74DA74B188835
:104C30000A2102F0B3F90100288889B202F0AEF926
:104C40002080A04B1B88002B00D146E2D9B2994AA4
:104C500091711B0AD371914B82229B5C002B05D072
:104C60009B4A137804210B43DBB213708B4B8122D8
:104C70009B5C002B23D0974B1B88002B00D152E26A
:104C8000934A1378802149420B43DBB21370924B55
:104C90001B78DBB20A2B00D84BE28D4A13784021F7
:104CA0000B43DBB213708A4B1B783F22934300D136
:104CB00045E2874A137804210B43DBB21370844B1F
:104CC0001A781F210A407B498A701A783B210A40D2
:104CD0001A70002200233EE2804B1B78002B0BD081
:104CE0007F4B1978784B188802F068F9754B820071
:104CF000801840001880A4E77A4B1B78002BA0D0C6
:104D0000704C714A784B1088198802F047F920805E
:104D100097E7764B1B78002B3AD0754A1278002A19
:104D200036D1012B05D0022B1FD0664B00221A80F2
:104D300087E75A4BB9229B5C012B09D06D4B198830
:104D400089B2604C604B188802F028F9208078E71F
:104D5000684B198889B25C4B188802F01FF98300F0
:104D6000C0184000574B18806BE74C4B2B22985CC7
:104D7000614B1B885843642102F010F981B25F4BEC
:104D80001980504C504B188802F008F9208058E7E1
:104D90005B4B1A785B4B1B789A4223D840490978C1
:104DA00000291FD041480078012803D9564C2478A7
:104DB000002C17D00139554B8A0052189B181B5CE8
:104DC000002B0AD0012B00D03BE73E4C3E4B18880D
:104DD000692102F0E3F8208033E73A4B3A4A12881F
:104DE0001A802EE79A4207D82D490978002903D066
:104DF0002E490978042911D09A421BD8284B1B78D8
:104E0000002B17D0424B1B786421594305312E4BA0
:104E1000188802F0D3F82B4B188012E73D4B1B7813
:104E2000603159430531284B188802F0C7F8254BEB
:104E3000188006E7384B394A12789B5C0C2B00D956
:104E4000FFE69B00364AD3589F46144BB9229B5C21
:104E5000012B07D01B4C1C4B1888002102F09EF838
:104E60002080EEE6184B1888002102F097F88300A6
:104E7000C0184000134B1880E3E6084BB9229B5C36
:104E8000012B4FD01B4B198889B20E4C0E4B188842
:104E900002F084F82080D4E6133C0020180600209D
:104EA0003B3C0020393C0020603A002002070020F3
:104EB000063C0020A83C0020103C00209C3C002028
:104EC000A03C0020A83A0020AA3A0020B83A0020CE
:104ED000C33C0020B43A0020363E00202A3C00208B
:104EE000A33C00202B3C0020AC3B0020113C0020C8
:104EF0008D3C0020943A00209E3A00209C3A0020ED
:104F0000383C00200E3C00200F3C0020183C0020C4
:104F1000293C0020273C0020003C0020FE3B0020D4
:104F2000889500109A4B198889B29A4B188802F01C
:104F300035F88300C0184000974B188081E6974BE6
:104F40002B22985C964B1B885843642102F036F85C
:104F500081B2944B1980904C8E4B188802F01EF849
:104F600020806EE68B4B18888F4B197802F026F85C
:104F7000894B188065E68D4C21888D4B18880D2251
:104F8000FCF7E1FD2080854BB9229B5C012B0BD007
:104F9000814C804D0A2102F001F80100288889B275
:104FA00001F0FCFF20804CE67B4C7A4B1B88010013
:104FB000180001F0F3FF208043E67E4B1988764C01
:104FC000744B1888890801F0E9FF208039E6724C9B
:104FD000704A794B1088198801F0E0FF208030E694
:104FE0006E4BB9229B5C012B0AD0744B1978632954
:104FF00012D9684B188801F0E1FF674B188020E652
:10500000644B18886D4B197801F0D8FF624B820011
:1050100080184000188014E65E4B188801F0CEFF1F
:105020005D4B82008018400018800AE6644C21889D
:10503000644B18880D22FCF786FD2080564C554D98
:105040000A2101F0ABFF0100288889B201F0A6FF18
:105050002080F6E5504C4F4A5B4B1088198801F0D0
:105060009DFF2080EDE54D4BB9229B5C012B0CD0C0
:10507000564B18680A2101F091FF81B2464C454B0E
:10508000188801F08BFF2080DBE5504B1988424CDB
:10509000404B188801F082FF2080D2E53E4C3D4A0B
:1050A0004B4B1088198801F079FF2080C9E5494BE6
:1050B000187864235843FE2101F080FF81B2013942
:1050C00089B2454B1980334B188801F067FF830084
:1050D000C0184000304B1880B3E5404B07229A714E
:1050E000DA71B8E53E4B1888002817D02B4BD12237
:1050F0009B5C002B0CD000010A2101F05FFF80B205
:10510000384B1880C2B2354B9A71000AD871A2E5AB
:10511000C2B2324B9A71000AD8719CE52F4B07221C
:105120009A71DA7197E5304A13787F210B4013703A
:10513000ADE52D4A137840218B431370B3E52A4A1D
:10514000137804218B431370B9E52449C95C8A188C
:10515000D2B20133DBB2072BF7D9204B1A72234AA4
:105160008A235B00D3581B0E7F221A401E239B1AF2
:10517000092B00D870BD0023082BFBD8174AD25C3E
:10518000D2B21A48C021490042500133DBB2F3E7E2
:10519000943A0020AA3A0020A83A002018060020DD
:1051A0009E3A00209C3A0020ED3B0020983A0020D7
:1051B0009A3A0020E63D00207E3A0020403C002044
:1051C000AE3A0020B03A0020803A0020DC3B0020BC
:1051D000B23A0020363E0020AC3A0020A83C002025
:1051E000B43A0020A63A0020C33C00200002004848
:1051F000F8B504000F0015001E000B4B1888830043
:10520000C0184000094B2822995C01F0D7FE000429
:10521000000C801B7843A91B083101F0CFFE80B23F
:10522000001980B2F8BDC046A23A0020180600203E
:1052300010B5484B7E229B5C002B04D1454B0232BB
:105240009B5C002B37D0444B1A78072A03D8930075
:10525000424AD3589F46002079E0414B1B88414A7F
:105260001288FA210120FFF7C3FF70E03D4B1B8835
:105270003D4A1288FA21FA20FFF7BAFF67E03A4B5D
:105280001B883A4A1288FA20FA214000FFF7B0FF43
:105290005DE0364B1B88364A1288FA213548FFF705
:1052A000A7FF54E0FA20800051E0FA2080004EE091
:1052B000FA2080004BE0284B1A78092A03D8930083
:1052C0002D4AD3589F46002041E0254B1B88254A94
:1052D0001288A7210120FFF78BFF38E0214B1B88A4
:1052E000214A1288A721A720FFF782FF2FE01E4B3B
:1052F0001B881E4A1288A720A7214000FFF778FFCD
:1053000025E01A4B1B881A4A1288FA20A721400070
:10531000FFF76EFF1BE0164B1B88184A1288A72167
:105320001748FFF765FF12E0144B1B88154A1288D7
:10533000A7211548FFF75CFF09E0FA20800006E08E
:10534000FA20800003E0FA20800000E00A2010BD6F
:105350000A20FCE718060020EE3B0020BC95001058
:10536000EE390020F0390020F2390020F439002015
:10537000F6390020EE020000DC950010F83900201C
:105380009B020000FA3900204203000070B5B24BC6
:105390001888642101F002FE84B2B04D29880422ED
:1053A0002000FCF7D0FB2880AD4B1B78DBB2012B33
:1053B00038D9AC4B00221A70AB4C218889B2AB4B68
:1053C00018880322FCF7BFFB2080A94B7E229B5C40
:1053D000002B05D1A64B02329B5C002B00D172E062
:1053E000A14B1B889BB2A34A1288934225D9A24B9A
:1053F00007221A70A14B1B78002B00D1D1E0A04BE3
:105400001A789D4B19788A4200D1C3E09D480378F1
:10541000013303709B4B1B78632B00D8BEE0984B85
:105420001970C2E08F4A11784B1CDBB21370142B39
:10543000C2D98E4B1C801170BEE78B4B1B889BB270
:10544000914A1288934203D98B4B06221A70D1E7F6
:10545000854B1B889BB28D4A1288934203D9864B99
:1054600005221A70C6E7804B1B889BB2884A1288B7
:10547000934203D9804B04221A70BBE77A4B1B88F6
:105480009BB2844A1288934203D97B4B03221A7041
:10549000B0E7754B1B889BB27F4A1288934203D9B1
:1054A000754B02221A70A5E76F4B1B889BB27B4A93
:1054B0001288934203D9704B01221A709AE76E4BFF
:1054C00000221A7096E7684B1B889BB2744A1288B8
:1054D000934203D9684B09221A708BE7624B1B88F1
:1054E0009BB2704A1288934203D9634B08221A7008
:1054F00080E75D4B1B889BB25E4A1288934203D9BA
:105500005D4B07221A7075E7574B1B889BB25E4AAA
:105510001288934203D9584B06221A706AE7524BFD
:105520001B889BB2594A1288934203D9524B0522D9
:105530001A705FE74C4B1B889BB2554A1288934206
:1055400003D94D4B04221A7054E7474B1B889BB27A
:10555000504A1288934203D9474B03221A7049E7F5
:10556000414B1B889BB24C4A1288934203D9424B51
:1055700002221A703EE73C4B1B889BB2474A1288B6
:10558000934203D93C4B01221A7033E73A4B002275
:105590001A702FE73B4B002018703BE7364B1A7010
:1055A00003E0374B344A12781A703F4BDB7D022BF5
:1055B0004CD03E4B1B68642058433D4B198801F08A
:1055C000EDFC80B2FA239B00984200D91800FA2320
:1055D0009B001B1A9BB2374A1380284B1B78002B69
:1055E00000D195E0344B1B78002B00D090E0204B8D
:1055F00084229A5C314B1B789A4200D883E00133B5
:10560000DBB22E490B702E49097800290FD11349BE
:1056100008882C490988884209D92649FA2080003F
:105620000880294900200860254901300870244974
:10563000097800296CD15208934269D31A4BDB7D5B
:10564000002B43D01E4B01221A7061E0FFF7F0FDE2
:10565000184B1880C1E7C046A03A00209E3A0020AF
:10566000203E00200B070020A23A0020963A00209E
:1056700018060020D4390020EE3B0020283C0020F2
:10568000F03B0020EF3B0020D2390020D039002031
:10569000CE390020CC390020CA390020C83900207A
:1056A000D8390020D6390020603A0020DC3B0020A9
:1056B0007A3A0020943A00208D3C00208C3C002057
:1056C000223E0020DA390020D03B0020FFF7B0FD59
:1056D00002009632124B1B889BB29A4204DB104B9D
:1056E0001B889633984213DD0D4B18801B88FA20D7
:1056F0008000C01A0B4B1B885843642101F04EFCFC
:10570000094B186004E0094B01221A70084B1A700B
:10571000034B1B889B08DBB2064AD37370BDC0469F
:10572000943A00207A3A0020D03B00208D3C0020A3
:10573000223E0020603A002070B5AC4A1378013355
:105740001370AB4A137801331370AA4A13780133EC
:105750001370A94A137801331370A84B1B78002BE0
:1057600017D170BDA649C95C8A18D2B20133DBB229
:10577000052BF7D9A24B9B79DBB293420CD09F4B00
:1057800000221A709A4B1B78032BEAD99D4B1A7092
:10579000E7E700220023EBE7954B00201870984BB9
:1057A0005A7801210A4098490A70597820242140EA
:1057B000964C21705B7821218B4395490870102B02
:1057C00023D00ED8042B00D1A2E0082B03D18D4B9F
:1057D000042119701CE0022B1AD18A4B0221197086
:1057E00016E0402B00D18FE0802B11D1894BD621C0
:1057F0005B5C012B00D18FE0022B09D1814B04218E
:105800001970834B0339197002E07E4B0021197027
:10581000814B1B78002B03D1804B7A490978197092
:105820007D4B01211970002A00D16AE17C4B1B7865
:10583000002B00D024E17B4B1B7C002B04D1714B4F
:105840001B78002B00D01BE1774B1B78002B00D07E
:1058500016E1764B1B78002B02D1744B01221A7093
:10586000734B01221A70734B1B78002B26D1714B9E
:105870001A70714A13780133DBB21370032B02D90B
:10588000130001221A706D4B00221A705D4B1B78B9
:10589000012B5DD0042B76D0002B43D0664B1B78B8
:1058A0000133DBB2664A1370664A1370664B0122FD
:1058B0001A70504B00221A704F4B1A704D4B1B78C8
:1058C000624A11788B420BD24E4B1A78534B1B789D
:1058D0009A4200D1D7E05E4B1B78002B00D0D2E07B
:1058E0004F4B01221A70524A00231370514A137011
:1058F000514A1370404A1170464A8421515C3D4A16
:1059000011704F4A1370BEE03E4B012119707FE7C2
:105910003C4B032119707BE73A4BD53919703C4B4E
:10592000197075E7444B1B78022B09D0032BB5D1B6
:10593000484B1A783B4B5A755A7D474B5A71ADE725
:10594000464B1A78374B1A741A7C434B1A70A5E7EA
:10595000394B1B78022B0ED0032B9FD1404B1A786A
:10596000304B1A75197D3C4A91713E4909789975F9
:105970009B7DD37292E73C4B1A782A4B5A745A7C1F
:10598000354B5A708AE72C4B1B78022B15D0032B12
:1059900084D1364B1B78092B1FD0354B1A78214BFD
:1059A000DA74DA7C334B1A70334B1B780A2B00D035
:1059B00074E7224B01221A7070E72C4B1B78092BDD
:1059C00000D06BE72A4B1A78164BDA74DA7C294B35
:1059D0001A701A4B01221A7060E7284B1A78114B83
:1059E0005A735A7B1C4B5A72DEE7C046B43C002007
:1059F000783A0020343C0020383C00204A3C00200B
:105A00007C3C002002070020303C0020B23C0020FB
:105A1000E63B002018060020283C00200307002059
:105A2000353C0020603A00209C3C00208D3C00204A
:105A3000363C0020393C00203B3C00200F3C00203D
:105A4000133C0020143C0020103C00200E3C0020A1
:105A5000EB3B0020EA3B0020183C0020843C002067
:105A60008A3C00209A3C0020903C0020313C0020E1
:105A7000333C0020273C0020323C0020E73B002044
:105A8000B24B01221A70B24B1B78B24A1278934281
:105A90000DD2B14B1978B14B1B78994214D0B04B51
:105AA0001B78002B10D1AF4B1B78002B0CD1AE49CB
:105AB00000230B70AD490B70A5490A70AC4A1370F6
:105AC000AC4A1370AC4A1370A94B1B78002B00D161
:105AD00091E0AA4B00221A70A94B1B7C002B03D02B
:105AE000A84B1B78002B04D09B4B1B78002B00D0BD
:105AF00081E0994B1A78042A7AD89300A24AD358A5
:105B00009F46924B1B78002B0ED1974B1B78002B96
:105B1000B9D0954A002313709C4A13708C4A1370B5
:105B2000934B01221A70AEE7884B00221A70AAE745
:105B30008E4B1B78022B10D0032B1BD0012B57D17F
:105B40008F4A117C924B1970137C59424B41DBB246
:105B50001374127C8F4B1A704AE0894A517D8E4B28
:105B60001970537D59424B41DBB25375527D894BBD
:105B70005A713DE000F0A8FD3AE07C4B1B78022B07
:105B800010D0032B1BD0012B32D17D4A517C834B8B
:105B90001970537C59424B41DBB25374527C7D4B9C
:105BA0005A7025E0764A117D7D4B1970137D59425C
:105BB0004B41DBB21375127D764B9A7118E0704A37
:105BC000917D784B1970937D59424B41DBB29375AF
:105BD000927D704BDA720BE0644B1B78022B29D05C
:105BE000032B2BD0012B21D0654B9A7C6E4B1A7066
:105BF000604B01221A706D4B7E229B5A002B05D1FF
:105C00006A4B57329B5C002B00D1E2E0564B1B786D
:105C1000002B00D184E04E4B1A78654B1B789A42DA
:105C200000D2D6E0544B00221A70D2E0544B01222D
:105C30009A74D9E7524B02229A74D5E7504B03224B
:105C40009A74D1E7494B1B78022B0CD0032B0ED052
:105C5000012B04D04A4B9A7C534B1A70C8E7484B2F
:105C600004229A74F6E7464B05229A74F2E7444BF5
:105C700006229A74EEE73D4B1B78022B1CD0032BB7
:105C800037D0012B04D03E4BDA7C4A4B1A70AFE779
:105C90003B4BD97C484A1170DB7CDBB2434A6D2117
:105CA000525C934202D0364BDA74ECE73F4B6F22E2
:105CB0009A5C334BDA74E6E7404B1B78092B08D02B
:105CC0003A4B70229A5C2E4BDA74DA7C3A4B1A709B
:105CD000D9E72B4A517B3A4B1970537B59424B41C0
:105CE000DBB25373527B2B4B5A72244B01221A7036
:105CF000C9E7344B1B780A2B05D02C4B71229A5CD8
:105D00001F4BDA74BFE71E4A937B59424B41DBB20B
:105D10009373927B1F4B9A73184B01221A70B2E750
:105D20000B4B1978214B84229A5C214B1B78D31A98
:105D300099424BDB914249D20C4B1B78002B45D04A
:105D40000D4B214A12781A7043E0C046353C0020C2
:105D5000383C00200E3C00200207002003070020F2
:105D60009C3C0020EB3B0020393C00203B3C0020C9
:105D70003A3C0020103C0020133C00200F3C002047
:105D8000603A0020E63B002004960010363C0020DC
:105D9000843C0020183C0020EA3B0020903C00207E
:105DA0008A3C00209A3C0020293C00201806002054
:105DB000E2390020273C0020333C0020313C002009
:105DC000E73B0020323C0020143C0020C74B00225F
:105DD0001A70C74B00221A70C64B9B7C082B2BD025
:105DE000C54B1B78002B04D0C44A1278002A00D17E
:105DF0000EE1002B00D121E1C04A1278002A00D127
:105E00001CE1BC4A127C002A00D117E1BC4A12787E
:105E1000002A00D012E1BB4B01321A70BA4B1A7043
:105E2000B44B9B7C082B03D0B24B9A7CB74B1A70B7
:105E3000B04B08229A7404E2B14B1B78002B17D0A8
:105E4000B24B1A78AB4B9A74AE4A00231370AE4A29
:105E50001370AF4A1370AF4A1370AF4A1370AF4A52
:105E60001370AF4A1370AF4BAF4A12781A70E8E163
:105E7000AC4B00221A70AA4B01321A70A54B1B784A
:105E8000002B4AD0A54B1A709B4B1B78002B02D1DC
:105E9000A64A01211170002B07D0A44B1B78002BC0
:105EA00003D0A34B01221A7016E0A14B1B78002BE4
:105EB0000FD0A04B1C782001201840008D4D297B6D
:105EC000C9B201F07BF89C4B18702C73974B0022E1
:105ED0001A70974B00221A70984A13780133DBB27C
:105EE0001370974A8421525C5208934207D3934B14
:105EF00000221A70934A137859424B411370914B08
:105F00001B78002B04D0904B8B4A12781A7098E1C2
:105F1000784B1A7B8C4B1A7093E17D4B1B78002BCE
:105F20004ED08A4B1D888A4B1C882A1B93009B18D5
:105F30001801C01A642101F041F881B2611889B2D8
:105F4000091B844801F03AF8C0B26A4B1873824AC0
:105F5000222111700122DA7200229A757F4A137889
:105F60000133DBB21370764A6231525C52089342BD
:105F700007D37A4B00221A70794A137859424B4161
:105F80001370774B1B78002B17D0764B1C805A4B25
:105F90001B78002B02D1654A01211170002B00D122
:105FA0004FE1624B1B78002B00D14AE15F4B00228E
:105FB0001A70584B01321A7043E16A4B1D80E6E7B4
:105FC000514B1B78002B00D13BE1534B01221A703F
:105FD000654B1B88634A13805C4A1288934201D93F
:105FE0005A4A1380444B1A78002A02D14F4B0121A0
:105FF0001970002A00D124E14C4B1B78002B00D1F2
:106000001FE14A4B00221A70414B01321A7018E10D
:10601000FFF70EF9554B18801B88FA208000C01A34
:10602000534B1B885843642100F0B8FF514B186054
:10603000514B01221A703A4B1A7002E12D4A927CA0
:10604000062A1BD02E4A1278002A00D1F4E03C49DF
:106050008820095C002922D0002B1DD0274909780F
:10606000002919D045490978002915D144490978F2
:10607000002911D043498738087010E0002B07D061
:106080001E4B1B78002B03D03F4B053A1A70D8E00B
:106090003D4B00221A70D4E03A490020087028498C
:1060A0006420095C002900D1CBE0002B70D0134B99
:1060B0001B78002B6CD0334B1B78002B68D10D4B19
:1060C0005B7CDBB23149CB5C002B61D02B4B1B7866
:1060D000002B00D0B5E0294B01221A70054B997CAA
:1060E0000A4A117007229A74ABE0C046133C0020A4
:1060F0003A3C0020603A0020B23C00208D3C002059
:10610000020700209C3C00209D3C0020783C0020A1
:106110009E3C00209F3C00202B3C00202A3C00207D
:10612000103C0020383C00200E3C0020B33C0020F6
:10613000A03C0020433C0020423C0020A13C002029
:1061400018060020A23C0020A33C0020863A002034
:106150008C3A0020A80F0000483C0020A43C0020FE
:10616000A53C0020AC3B00207E3A0020943A002061
:106170007A3A0020D03B0020113C0020BA3C00209D
:10618000353C0020883C0020F73B0020B83C002034
:10619000B54BAF215B5C002B40D0B34B4A395B5C05
:1061A000002B3BD0B14B1B78002B4AD0B04B1B7857
:1061B000002B07D1AE4B64391970AE4B002119701A
:1061C000AD4B1A70A84BB021595CAA4B1B78994271
:1061D00018D9A94B1B789A420BD0A84B1A78A84B18
:1061E0009A74A24A00231370A14A1370A54A13702F
:1061F00027E0A54B1B78002BEFD1A14B5B7C002B3C
:106200001FD0EAE79D4B1A789D4B9A74974A00235A
:106210001370974A13709B4A137012E0934B1B78CC
:10622000002B03D0954B1A78954B9A748F4B002214
:106230001A70944B1A7004E0944B00221A708B4B26
:106240001A708F4B9A7C013A914B1C78914B9100BC
:106250008A189B18185D904B1870834BD6229B5C54
:10626000002B0CD08D4B1B78002B08D07E4B063AB0
:106270009B5C5843642100F091FE874B1870804B63
:106280005B7D002B6FD0864B1B78002B60D0854B3D
:106290001B78002B5CD1844B1B78002B58D0834B90
:1062A0001B78002B54D1824B1B78002B13D1804AD2
:1062B000013313707F4A13707F4A13707F4B0022A3
:1062C0001A707F4B1A707F4B1C707F4B1B78002B12
:1062D00028D07E4A13707A4B1B787B4AD25C002A06
:1062E00002D1764A002111705A1C794909788A42F4
:1062F00024DA724A1178754A1278043A914203DA24
:10630000704A127894422ED06C4A002111700133E9
:10631000DBB26B4A13706C4AD35C002B08D06B4A1B
:10632000137020E0504B84229A5C684B1A70D2E7BD
:106330004D4B84229A5C654B1A7014E05F4B1A78BF
:10634000624B1B789A420ED35A4B00221A700AE015
:10635000574B1B78002B06D0554A00231370554A23
:106360001370554A1370574B1C703F4B63229B5C54
:10637000002B0AD04A4B1B78002B03D1554B1B78BE
:10638000002B4BD0544B01221A70544BDB78DBB2FC
:10639000534A1370344AB921525C002A42D0514A00
:1063A000E12189004B4313802F4B83229B5C002B00
:1063B00009D04A4B5B79DBB24B4A13705278934257
:1063C00001D2494A53702E4B9B7C072B03D02F4B95
:1063D0001B78002B2BD0244BAE22985C0A2100F0B6
:1063E000DDFDC0B2264B9872254C627C3F4B92007B
:1063F000D0583F4B198800F0D1FDC1B23D4B197008
:106400003D4B1878FBF799FB3C4B1870A37DDBB232
:106410003B4AD25C3B4B1A70FFF7B1F92E4B00227E
:106420001A70B2E72F4A38494B431380BCE7144B2C
:106430005B7CDBB2354AD35C022B06D0104A537C1E
:10644000DBB22949CB5C9372CEE7314B1B78002B32
:10645000F4D0054BAE22985C0A2100F09FFDC0B23B
:10646000074B9872C0E7C04618060020BA3C0020CF
:10647000B53C0020B43C0020BB3C0020783C002010
:10648000603A0020BC3C00202C3E0020883C0020CC
:1064900002070020503C00204D3C0020E63B00203D
:1064A000353C00203B3C00208D3C00209C3C0020E3
:1064B000EB3B0020EC3B0020103C0020383C00204F
:1064C000FE3B002003070020083C00200E3C00207B
:1064D000E93B0020363C0020373C00207C3C00207B
:1064E0003F3C0020AA3A0020C03C0020BC3B0020DA
:1064F000A03A0020E13B0020E03B00200007002004
:10650000483C0020443C00209B050000983C0020B3
:10651000943C002010B52D4B1B889BB22C4A934213
:1065200004D82A4B1B889BB2092B26D8294B002262
:106530001A80FCF789FBFDF737FAFCF7ADFB264B19
:10654000187800010A2100F029FD244B1870FDF78E
:10655000D3FF234B1A78511C197003231340022BCD
:1065600030D013D8002B18D0012B18D1FDF794FA96
:10657000FCF7D0FCFCF73AFD11E0144B198889B206
:10658000184800F00BFD134B1880D2E7032B06D1FF
:10659000FCF79AFBFEF7FAFE01E0FFF7CDF8FDF7F6
:1065A0007BFC114B9978114A1180D978104A1180DF
:1065B0001979104A118059790F4A11809A790F4B35
:1065C0001A8010BDFEF734F9E9E7C0461A0700202B
:1065D000FFEF0000B23A0020203E0020ED3B0020FB
:1065E000F43B002090D00300243E0020003A00201D
:1065F000023A0020043A0020063A0020083A00201F
:1066000030B589B020220021684602F03DFE2A4BB9
:106610001A682A4B9A4240D0294B284A1A60294AC4
:106620002221515C19712A21515C88000918480007
:10663000D8806021515A19816221515C99720021E0
:10664000D972107E1873907D58739973D97369311C
:10665000515C19746821515C59746E21515C9974B4
:106660006D21515CD9746B21515C19758721515C86
:106670005975C321515CD9756C21525C9A75694674
:106680000A00180038C838C238C838C200230222AD
:10669000094800F0ABF909B030BD6C460222210078
:1066A000054800F0D7F906490B00220031CA31C372
:1066B00013CA13C3EFE7C04600FF0010DDAA0000B5
:1066C000603A00201806002030B589B06C462022C0
:1066D0000021200002F0D8FD074B2200190029C933
:1066E00029C229C929C2002302222100034800F03F
:1066F0007DF909B030BDC046603A002000FF0010AF
:1067000010B54A4B00E0013B002BFCD1FBF7BEF972
:10671000002800D001BEA021C9050B6844480340F1
:106720008022920013430B6042490B6803401A43D6
:106730000A60FAF76BFD00F02BFAFBF70DFEFBF792
:106740002BFAFFF75DFFFDF79BFD3B4B1B794233B7
:106750003A4A13703A4B00241C7000F0B1F8394BE0
:106760001C70394B01229A60384B00E0013B002B32
:10677000FCD1374BC62292009858364908408021F8
:10678000C901014399508021890419609858324900
:1067900008408021C903014399508022D2041A6025
:1067A000A023DB050F22DA602C4A116B80235B00EB
:1067B0000B431363254B00E0013B002BFCD1284B1E
:1067C0005A6801210A435A60264A9A60264B1B6F79
:1067D0009BB2264A1380264A13800FE0FDF7E0FFA4
:1067E00013E024490B6801330B60214B1A801F4BC7
:1067F0001B88D31A9BB220498B4211D8184B194AD7
:106800009A601E4B1B78002BE8D0154B154A9A60F6
:10681000154B1A6F92B2164B1B889342E7D9E0E7EB
:10682000124B1A80FFF776FEE8E7C046804F120051
:10683000FFFCFFFF0000044818060020E03D002098
:10684000C23C00200F07002000000150C0D401000E
:1068500000E100E0FF00FFFFFFFF00FF000001403C
:1068600000000240FECAADAB00020448C43C002058
:10687000C63C0020C83C00206A1800004A3C0020AA
:106880000323034A1361034A1361034A13617047E8
:1068900000010050000200500003005010B5054BED
:1068A0001A78054B1A70054B00221A70FFF7E8FFA3
:1068B00010BDC046E4390020913C00200A070020AA
:1068C00070B500F046F80A494A6A9208012313405D
:1068D000084A13704D6A02242C40234313704C6AFB
:1068E000A400042121400B43137000F036F870BD62
:1068F00000010440DC3D002010B5FFF7E1FF0D4B27
:10690000196B802252000A431A631A6B0A490A4023
:106910001A6309E0074B196B802252000A431A637D
:106920001A6B05490A401A63044B9B68DB07F1D5D3
:1069300010BDC04600000140FFFEFFFF00010050F7
:106940000230800803D00138FDD1C046C046C046A1
:106950007047EFF3108072B6704780F3108870476D
:10696000064B1A89802149010A431A8148215A5A43
:106970008020000102435A527047C0460000054083
:1069800010B50D4A13681B0AFF210B400B4803602A
:10699000126811400A4A1160002B08D01B02C91866
:1069A000084800F0FBFA4000074B186010BD064B8A
:1069B000064A1A60FAE7C04600030140443E002040
:1069C000403E0020000024F4FC3F00200048E80185
:1069D00010B5FFF7C5FFFBF74BF810BD704700007F
:1069E000014B188880B2704700000540F8B50400DC
:1069F0000D001700164A9188FF20814391809188ED
:106A0000C020800101439180002B06D09388612132
:106A10000B439BB2938000260BE00D4A9388A12183
:106A20000B439BB29380F6E7FFF7DAFFC007FBD476
:106A30000136BE4206D20023032BF5D802CD02C494
:106A40000133F9E7024A9388FF218B439380F8BD15
:106A50000000054030B5002505E010C810C1013325
:106A6000032BFAD90135954201D20023F8E730BD56
:106A7000F0B5C64600B58B08984604339B001E58F7
:106A800003250D40ED00F827AF40BE431E50436F75
:106A90004F000326BE40B3434367CB0810339B002F
:106AA0001F5807260E40B6000424B440A7431F50C9
:106AB0001F585478B44026003E431E500D4B984258
:106AC0000ED00023D356002B10DB434604339B002B
:106AD00019581278AA400A431A5080BCB846F0BD33
