:020000041000EA
:10100000480500201910001000000000A310001077
:1010100000040100000100001249134A134B00F0C4
:101020001AF8134880471349134A144B00F013F879
:101030001349144A144B00F00EF81449144A0020C6
:10104000521A02DD043A8850FCDC124880471248EC
:101050008047124880479B1A03DD043BC858D05094
:10106000FBDC7047E49700100C00002044010020D6
:10107000A96800101C990010480500202C070020CA
:10108000009B001030070020F0190020F01900200C
:10109000043E0020A110001071910010D5650010D1
:1010A0007047FEE710B582B06B46354ADA80354BA3
:1010B000354A1A60354B0121C022520099508020D8
:1010C0001A58334C22401A508022120231480260D2
:1010D00031480260812292009950304A8423802155
:1010E000C904D1501DE029498122920088588023EB
:1010F0009B0003438B50294AFC235B00D358002BF1
:10110000F9D0C0239B00D358009380231B02214AAF
:101110001360214A13606B469A1DDB88013B9BB22A
:1011200013806B4606331B889BB2002BDBD1009BE0
:101130000023009305E080231B02164A1360164A21
:101140001360174B1B6C1B0FF5D1104B80215858A7
:10115000C022920202435A5000228531FF315A5078
:1011600084395A500D4B9532FF328039FF399950EE
:1011700083315A580B4802405A5002B010BDC04645
:1011800050460000BC4003480004103F00000348E4
:10119000FFFFFC7FE0400348E440034800040348AD
:1011A00000400348FFFFFFFB00B583B00023124A55
:1011B0001360124A13600321114806F0ADF811497B
:1011C00080228858104B03438B501423019308E06E
:1011D000019B013B019380231B02074A1360074ACE
:1011E0001360019B002BF3D1FFF75CFF0021044843
:1011F00006F092F803B000BDE0400348E440034825
:10120000000403480000034800000180F8B552497B
:10121000524D280005F0F8FF5149524E300006F0BB
:101220003BF85149514C200006F036F803213000BC
:1012300006F072F80321200006F06EF8FFF7B4FF05
:101240004B49280006F09EF84A49200006F0F6F8BF
:1012500082225200A1588023DB000B43A350434A53
:1012600084235B00D3589B06F9D5140082235B00CE
:10127000D25803208243E250E25801210A43E2504F
:10128000384DEA588243EA50EA580A43EA503A4B4A
:101290001A6888235B00E250384A1268E250384AE4
:1012A0000021200006F002F9364A0121200006F054
:1012B000FDF8354A0021280006F0F8F8334A0121EC
:1012C000280006F0F3F80021280006F025F8002198
:1012D000200006F021F800220121280006F024F861
:1012E0000021280006F032F8200006F028F803213B
:1012F000200006F011F80321280006F00DF8B023B5
:10130000234AE2500422FF32EA50224A06212000FA
:1013100006F0CCF8114EC2277F00F3594022134348
:10132000F3511D4A0721200006F0C0F8F35980242C
:101330002343F351194A0721280006F0B7F8C022C9
:101340005200B3582343B3508432B15880239B00DA
:101350000B43B350F8BDC046780500200000034899
:10136000B005002000040348E405002000080348FD
:101370000C06002000060020F8050020FC050020D7
:10138000C4050020D405002090050020A005002001
:1013900003040000680500204805002058050020CF
:1013A00010B500F007F800F02BFA10BD10B5FFF7EC
:1013B000F7FF10BDF0B5DE4657464E464546E0B550
:1013C00085B0DE4E0021300005F0DCFB80235B00A1
:1013D0009846F360DA49DB4F380005F0EDFB022355
:1013E0009A46FB6304247C638021C904300005F025
:1013F000DBFB07233361D44A0121380005F01DFCD3
:10140000D24A0221380005F018FCD14A03213800E5
:1014100005F013FC01220121380005F0F3FB012245
:101420000221380005F042FCA4257B5923437B515F
:1014300001218B46F16000243C67F960C549C64F25
:10144000380005F0D0FBC54B7B63802109053000D7
:1014500005F0AAFB70213161C14A6F39380005F0EF
:10146000ECFBC04A0221380005F0E7FBBE4A03212D
:10147000380005F0E2FB0121380005F0D7FB5046AB
:10148000F0603C675846F860B849B94F380005F03D
:1014900093FBA023FB63B74B7B638021890530005E
:1014A00005F082FBE020C0013061B34A0121380021
:1014B00005F0C3FBB14A0221380005F0BEFBB04A7B
:1014C0000321380005F0B9FB0822F2603C675E4654
:1014D000FE60A026F6050021300005F013FC47460B
:1014E000F760A849A84F380005F01EFCD2239B00E6
:1014F0009846FB637C64D223DB00994619003800D0
:1015000005F07DFC8021C904300005F028FC07238C
:1015100033619E4A0121380005F03EFC9C4A0221BD
:10152000380005F039FC9B4A0321380005F034FCF3
:1015300001220121380005F01BFC9749380005F015
:1015400085FC3C679549964F380005F0EDFB434616
:10155000FB637C644946380005F051FC8021090595
:10156000300005F0FCFB702131618E4A6F39380084
:1015700005F012FC8C4A0221380005F00DFC8B4A64
:101580000321380005F008FC01220121380005F094
:10159000EFFB8749380005F059FC3C678549864FC9
:1015A000380005F0C1FB4146F9637C6449463800C8
:1015B00005F025FC80214905300005F0D0FBE02333
:1015C000DB0033617D4A0121380005F0E5FB7C4AF0
:1015D0000221380005F0E0FB7A4A0321380005F0CB
:1015E000DBFB01220121380005F0C2FB76493800FF
:1015F00005F02CFC3C677549754F380005F094FBED
:101600004146F96379644946380005F0F8FB8021CA
:101610008905300005F0A3FBE020C00130616D4A70
:101620000121380005F0B8FB6B4A0221380005F0B3
:10163000B3FB6A4A0321380005F0AEFB0122012109
:10164000380005F095FB03220021380005F0DAFB95
:1016500002220121380005F0D5FB002204213800C8
:1016600005F0D0FB01220321380005F0CBFB7B59AC
:10167000584603437B517B59504603437B517B596A
:10168000102213437B517B5908210B437B513C674C
:10169000534D280005F00EFC2B680326B3432B6046
:1016A0005049280005F012FC4F49280005F018FCAD
:1016B00000220221280005F01EFC6B6F0422134358
:1016C0006B674A494A4D0022280005F01FFCEB6970
:1016D00050229343EB61EB69493A93433343EB6107
:1016E000EA6B444B1A4080231B011343EB63424BCC
:1016F0002B610C360296019400943A2300220021BB
:10170000280005F003FD1F2305220021280005F015
:101710002DFD1F2305222021280005F011FD2B6C33
:10172000B343524613432B64344805F0FFFE05B023
:10173000F0BCBB46B246A946A046F0BD0000044836
:10174000189200100001044820920010249200100A
:10175000289200103492001000020448FFFF00009D
:101760003C9200104092001044920010DC92001055
:1017700000040448FF040000E4920010E892001006
:10178000EC9200104892001000010050649200108A
:10179000689200106C920010589200107092001025
:1017A000000200508C920010909200109492001051
:1017B000809200109892001000030050B492001024
:1017C000B8920010BC920010A8920010C0920010B5
:1017D00000040050D0920010D4920010D892001053
:1017E00000000150309200102C9200100C9200105A
:1017F00000020048FFE0FFFF21810000F09200108E
:1018000010B57F4A7F4C0021200005F09DF8002292
:101810000021200005F021FB7B4A0A21200005F071
:1018200093F800220A21200005F017FB774A0D21CA
:10183000200005F089F800220D21200005F00DFBA5
:10184000734A0121200005F07FF8002201212000C9
:1018500005F003FB6F4A0221200005F075F8002215
:101860000221200005F0F9FA6B4A0321200005F05F
:101870006BF800220321200005F0EFFA674A0421EB
:10188000200005F061F800220421200005F0E5FAAF
:10189000634A0521200005F057F8002205212000A9
:1018A00005F0DBFA5F4A0621200005F04DF8002222
:1018B0000621200005F0D1FA5B4A0721200005F03F
:1018C00043F800220721200005F0C7FA574A0821F3
:1018D000200005F039F800220821200005F0BDFAAB
:1018E000534A0921200005F02FF800220921200089
:1018F00005F0B3FA4F4A504C0021200005F024F8BF
:1019000000220021200005F0A8FA4C4A0121200005
:1019100005F01AF800220121200005F09EFA484A3D
:101920000221200005F010F800220221200005F01D
:1019300094FA444A0321200005F006F8002203210E
:10194000200005F08AFA404A0521200004F0FCFF3F
:1019500000220521200005F080FA3C4A3C4C0A2177
:10196000200004F0F1FF00220A21200005F075FAA2
:10197000384A0B21200004F0E7FF00220B21200051
:1019800005F06BFA344A0221200004F0DDFF00224A
:101990000221200005F061FA304A0421200004F001
:1019A000D3FF00220421200005F057FA2C4A05211C
:1019B000200004F0C9FF00220521200005F04DFAA7
:1019C000284A0621200004F0BFFF00220621200043
:1019D00005F043FA244A0821200004F0B5FF002254
:1019E0000821200005F039FA204A0921200004F0DE
:1019F000ABFF00220921200005F02FFA10BDC046E0
:101A00007493001000000440349300105C930010A5
:101A10007C930010849300108C930010649300104A
:101A2000549300102C9300102493001094930010F2
:101A30009C9300104C93001000010440449300104C
:101A40003C930010A49300106C93001014930010AA
:101A5000000204401C930010B4930010FC9200108C
:101A6000AC930010BC930010049300100C93001072
:101A700030B585B001A8044B020032CB32C205F06C
:101A800057F805B030BDC046C493001010B5FFF73D
:101A90008DFC002010BD70B505000E001C0004ABCD
:101AA00018888D421FD395421ED2521A91B2A0427D
:101AB0000CD2AE1BB6B2201A80B270434B08C018CD
:101AC00005F0D8F980B2201A80B20DE0AD1BADB29E
:101AD000001B80B268434B08C01805F0CBF980B2F8
:101AE000001980B200E0200070BD70B51D0004AB8D
:101AF0001B7888421DD990421DD2AB420CD2441AA9
:101B0000E4B2E81AC0B26043511AC9B205F0C2F992
:101B1000C0B2281AC0B20DE0441AE4B2581BC0B2D9
:101B20006043511AC9B205F0B5F9C0B24019C0B24C
:101B300000E0280070BD1800FCE7030008008B429D
:101B400000D21800704710B504000F2A13D81023D4
:101B50009B1A43434A439B1808331B0998B281429E
:101B60000AD1844202D9013080B205E0844203D216
:101B7000013880B200E0002010BD0000002803D032
:101B8000044B20225A607047024B802292035A6015
:101B9000F9E7C04600010440F0B5DE4657464E4620
:101BA0004546E0B587B0F84CE28C01922C23E05C0E
:101BB0005043642105F05EF9F44B1880227EF44B0B
:101BC0001A70638BB722A65C9B1BF24A1380C0235A
:101BD000E25CF14B1A708423E75CF04B1F707A08CB
:101BE000EF4B1A707E23E35C002B04D18022A35CB0
:101BF000002B00D16DE2E44C236B9B46E949181C95
:101C000005F0DCFE05F0DAFCE74B1880636B9A46C2
:101C1000E449181C05F0D2FE05F0D0FCE34B188017
:101C2000A36B9946DF49181C05F0C8FE05F0C6FCF9
:101C3000DF4B1880E36B9846DA49181C05F0BEFEAE
:101C400005F0BCFCDB4B1880236CD6490293181CB2
:101C500005F0B4FE05F0B2FCD74B1880626CD14998
:101C60000392101C05F0AAFE05F0A8FCD34B1880C7
:101C7000E56DCC49281C05F0A1FE05F09FFCD04B7A
:101C800018802823E05C06F0A7F9041CCD495846CB
:101C900005F094FE011C201C05F090FE05F08EFC62
:101CA000C94B1880C749504605F088FE011C201C0E
:101CB00005F084FE05F082FCC44B1880C1494846FB
:101CC00005F07CFE011C201C05F078FE05F076FC7A
:101CD000BF4B1880BB49404605F070FE011C201C1C
:101CE00005F06CFE05F06AFCBA4B1880B549029805
:101CF00005F064FE011C201C05F060FE05F05EFC92
:101D0000B54B1880AF49039805F058FE011C201C04
:101D100005F054FE05F052FCB04B1880A949281C70
:101D200005F04CFE011C201C05F048FE05F046FCA9
:101D3000AB4B1880944C2823E35C9800C0184000FB
:101D400006F04AF9A74905F039FE05F037FCA64B25
:101D50001880B623E55CAB00ED186D00A34B1D8029
:101D6000A34B1D804F2D00D987E2A24B50221A8031
:101D7000854BD5229B5C002B00D181E29E4BD43A4F
:101D80001A709E4B01321A709D4B0B321A709D4B8C
:101D9000093A1A709C4B06321A709C4B043A1A701E
:101DA0009B4B01321A709B4B043A1A709A4B0632C5
:101DB0001A709A4B1A70744CB823E25C984B1A70E4
:101DC000984B1F70BD23E25C974B1A706923E25C4D
:101DD000964B1A708723E25C954B1A706823E25C7D
:101DE000944B1A706C23E25C934B1A70A27D934B58
:101DF0001A706423E25C924B1A70BC22A25C5A7087
:101E00007023E25C8F4B1A707123E25C8E4B1A7068
:101E10006D23E25C8D4B1A70E27D8D4B1A702B2383
:101E2000E05C019B5843642105F024F8574B18806F
:101E30002923E25C874B1A70874B1E80874B1E80DC
:101E4000237D002B00D139E231003C39844A1180D6
:101E5000844A1680844A13704B4B6222995C834AF1
:101E600011707621595C5170C922995C804A1170B9
:101E7000CE22995C7F4A1170CF21595C51707E4A05
:101E800015705C4909885170C522995C7B4A1170B4
:101E90006B22995C7A4A11708F22995C794A117091
:101EA0009021595C51709121595C91709221595C3B
:101EB000D1709321595C11719421595C517189221F
:101EC000995C714A11708A21595C51708B21595C5F
:101ED00091708C21595CD1708D21595C11718E21CA
:101EE000595C5171694A0021117096201E5A76087A
:101EF000F6B2567002301D5A6D08EDB29570023080
:101F00001C5A6408E4B2D4700230185A4008C0B2B7
:101F1000107151719E27DF5D97719F27DF5DD7712B
:101F2000A027DF5D1772A127DF5D57729172A2278C
:101F3000DF5DD772A327DF5D1773A427DF5D5773BB
:101F4000A527DF5D9773D173A627DF5D1774A727D9
:101F5000DF5D5774A827DF5D9774A927DF5DD7740D
:101F6000117556759575D47510765176B120185C3B
:101F70009076B220185CD076B320185C1077B4202D
:101F8000185C507784E0C04618060020363A0020DE
:101F9000003C0020F2060020A13B0020E339002095
:101FA000E23900200000C842FA390020F839002048
:101FB000F6390020F4390020F2390020F0390020F1
:101FC000EE39002000002041D4390020D239002011
:101FD000D0390020CE390020CC390020CA39002069
:101FE000C839002033338340DA390020E03900203B
:101FF000DC390020DE390020E9390020EC390020EE
:10200000E5390020E6390020EB390020E8390020CE
:10201000E4390020EA390020ED390020E7390020BA
:10202000A63B0020CA3B0020CD3B0020403C0020C6
:10203000A73B00204C3C0020563C0020A43B002045
:10204000743C0020ED3B0020EE3B0020EF3B0020E5
:10205000A53B0020FA3B0020463A0020483A0020E9
:102060004C3A00204A3A0020573C00207C3C00209B
:10207000E93B0020543C0020B83B0020453C0020B8
:10208000463C0020BC3B0020C43B00200C3C002010
:102090009177AA20185CD077AB201C5C8B38145445
:1020A0008C301C5C8B3814548C30185C2223D05438
:1020B0000133D1540133D1540133D1540133D154BC
:1020C0000133D15407B0F0BCBB46B246A946A04686
:1020D000F0BD7E4C236B9846181C06F091FE002242
:1020E0007B4B06F013F805F081FA7A4B1880636B8E
:1020F0000293181C06F084FE0022754B06F006F8C9
:1021000005F074FA744B1880A26B91467349101C49
:1021100005F054FC05F052FA714B1880A26C9246FF
:102120006E49101C05F04AFC05F048FA6D4B18800A
:10213000E26C93466949101C05F040FC05F03EFA3C
:10214000694B1880226D65490392101C05F036FC1E
:1021500005F034FA654B1880616D0D1C5F490495DC
:10216000281C05F02BFC05F029FA614B1880A16DA5
:102170000D1C5A490595281C05F020FC05F01EFA97
:102180005C4B1880E56D5549281C05F017FC05F0DF
:1021900015FA594B18802823E05C05F01DFF041C3C
:1021A0005649404605F00AFC011C201C05F006FCBF
:1021B00005F004FA524B18805049029805F0FEFBD6
:1021C000011C201C05F0FAFB05F0F8F94D4B1880B6
:1021D0004A49484605F0F2FB011C201C05F0EEFBC5
:1021E00005F0ECF9484B18804449504605F0E6FBF1
:1021F000011C201C05F0E2FB05F0E0F9434B1880C0
:102200003E49584605F0DAFB011C201C05F0D6FBC0
:1022100005F0D4F93E4B18803849039805F0CEFB01
:10222000011C201C05F0CAFB05F0C8F9394B1880C9
:102230003249049805F0C2FB011C201C05F0BEFBCE
:1022400005F0BCF9344B18802C49059805F0B6FB15
:10225000011C201C05F0B2FB05F0B0F92F4B1880D3
:102260002649281C05F0AAFB011C201C05F0A6FB32
:1022700005F0A4F92A4B18805CE52A4B1D8077E510
:10228000294B01221A70294B01321A70284B013256
:102290001A70284B01321A70274B01321A70274BE3
:1022A00001321A70264B01321A70264B01321A7015
:1022B000254B01321A70254B1A707CE5244A8C217B
:1022C0001180244A82311180C4E5C04618060020DE
:1022D00000005940FE390020FC3900200000C842AF
:1022E000FA390020F8390020F6390020F4390020AE
:1022F000F2390020F0390020EE39002000002041A2
:10230000D8390020D6390020D4390020D239002015
:10231000D0390020CE390020CC390020CA39002025
:10232000C8390020DE390020E9390020EC390020CE
:10233000E5390020E6390020EB390020E83900209B
:10234000E4390020EA390020ED390020E739002087
:102350004C3A00204A3A002070B5CF4B1B88CF4A38
:102360001288934200D046E3CC4C2380CC4B1B8890
:102370006380CC4B1B78643B2371CB4B1B88637110
:10238000CA4B1B88E380CA4B1B882381C94B1B881F
:102390006381C94B1B88A381C84B1B88E381C84B51
:1023A0001B882382C74B1B886382C74B1D7825750A
:1023B000C64B1B886375C64B1B88A375C54B1B8812
:1023C000E375C54B1B882376C44B1B886383C44BC2
:1023D0001B88A383C34B1B88A377C34B1B88E3775E
:1023E000C24B1A882023E254C14B1A882123E2549D
:1023F000C04B1A882223E254BF4B1B88A384BF4BD7
:102400001B88E384BE4B1A882823E254BD4B1A88EC
:102410002923E254BC4B1A882A23E254BB4B1A8866
:102420002B23E254BA4B1A882C23E254B94B188858
:1024300005F024FEB84905F0F7F82063B74B18887B
:1024400005F01CFEB44905F0EFF86063B44B188842
:1024500005F014FEB04905F0E7F8A063B14B188809
:1024600005F00CFEAC4905F0DFF8E063AE4B1888D0
:1024700005F004FEA84905F0D7F82064AB4B188896
:1024800005F0FCFDA44905F0CFF86064A84B18885E
:1024900005F0F4FDA04905F0C7F8A064A54B188825
:1024A00005F0ECFD9C4905F0BFF8E064A24B1888EC
:1024B00005F0E4FD984905F0B7F820659F4B1888B2
:1024C00005F0DCFD944905F0AFF860659C4B188879
:1024D00005F0D4FD904905F0A7F8A065994B188840
:1024E00005F0CCFD8C4905F09FF8E065964B1A8805
:1024F0006023E252954B1A886223E254944B1A8867
:102500006323E254934B1A886423E254924B1A8853
:102510006523E254914B1A886623E254904B1A8843
:102520006723E2548F4B1A886823E2548E4B1A8833
:102530006923E2548D4B1A886A23E2548C4B1A8823
:102540006B23E2548B4B1A886C23E2548A4B1A8813
:102550006D23E254894B1A886E23E254884B1A8803
:102560006F23E254874B1A887023E254864B1A88F3
:102570007123E254854B1A887223E254844B1A88E3
:102580007423E252834B1A887623E254824B1A88D2
:102590007723E254814B1A887823E254804B1A88BF
:1025A0007923E2547F4B1A887A23E2547E4B1A88AF
:1025B0007B23E2547D4B1A887C23E2547C4B1A889F
:1025C0007D23E2547B4B1A887E23E2547A4B1A888F
:1025D0007F23E254794B1A888023E254784B1A887F
:1025E0008123E254774B1A888223E254764B1A886F
:1025F0008323E254754B1A888423E254744B1A885F
:102600008523E254734B1A888623E254724B1A884E
:102610008723E254714B1A888823E254704B1A883E
:102620008923E2546F4B1A888A23E2546E4B1A882E
:102630008B23E2546D4B1A888C23E2546C4B1A881E
:102640008D23E2546B4B1A888E23E2546A4B1A880E
:102650008F23E254694B1A889023E254684B1A88FE
:102660009123E254674B1A889223E254664B1A88EE
:102670009323E254654B1A889423E254644B1A88DE
:102680009623E252634B1A889823E252624B1A88CF
:102690009A23E252C2E0C04600F000101806002063
:1026A00002F0001004F0001006F0001008F0001016
:1026B0000AF000100CF000100EF0001010F00010E6
:1026C00012F0001014F0001016F0001018F00010B6
:1026D0001AF000101CF000101EF0001020F0001086
:1026E00022F0001024F0001026F0001028F0001056
:1026F0002AF000102CF000102EF0001030F0001026
:1027000032F0001034F0001036F0001038F00010F5
:102710003AF000103CF000100000C8423EF00010FB
:1027200040F0001042F0001044F0001046F000109D
:1027300048F000104AF000104CF000104EF000106D
:1027400050F0001052F0001054F0001056F000103D
:1027500058F000105AF000105CF000105EF000100D
:1027600060F0001062F0001064F0001066F00010DD
:1027700068F000106AF000106CF000106EF00010AD
:1027800070F0001072F0001074F0001076F000107D
:1027900078F000107AF000107CF000107EF000104D
:1027A00080F0001082F0001084F0001086F000101D
:1027B00088F000108AF000108CF000108EF00010ED
:1027C00090F0001092F0001094F0001096F00010BD
:1027D00098F000109AF000109CF000109EF000108D
:1027E000A0F00010A2F00010A4F00010A6F000105D
:1027F000A8F00010AAF00010ACF00010AEF000102D
:10280000B0F00010B2F00010B4F00010B6F00010FC
:10281000B8F00010BAF00010BCF00010764B1A8827
:102820009C23E252754B1A889E23E254744B1A88FB
:102830009F23E254734B1A88A023E254724B1A88E8
:10284000A123E254714B1A88A223E254704B1A88D8
:10285000A323E2546F4B1A88A423E2546E4B1A88C8
:10286000A523E2546D4B1A88A623E2546C4B1A88B8
:10287000A723E2546B4B1A88A823E2546A4B1A88A8
:10288000A923E254694B1A88AA23E254684B1A8898
:10289000AB23E254674B1A88AC23E254664B1A8888
:1028A000AD23E254654B1A88AE23E254644B1A8878
:1028B000AF23E254634B1A88B023E254624B1A8868
:1028C000B123E254614B1A88B223E254604B1A8858
:1028D000B323E2545F4B1A88B423E2545E4B1A8848
:1028E000B523E2545D4B1A88B623E2545C4B1A8838
:1028F000B723E2545B4B1A88B823E2545A4B1A8828
:10290000B923E254594B1A88BA23E254584B1A8817
:10291000BB23E254574B1A88BC23E254564B1A8807
:10292000BD23E254554B1A88BE23E254544B1A88F7
:10293000BF23E254534B1A88C023E254524B1A88E7
:10294000C123E254514B1A88C223E254504B1A88D7
:10295000C323E2544F4B1A88C423E2544E4B1A88C7
:10296000C523E2544D4B1A88C623E2544C4B1A88B7
:10297000C723E2544B4B1A88C823E2544A4B1A88A7
:10298000C923E254494B1A88CA23E254484B1A8897
:10299000CB23E254474B1A88CC23E254464B1A8887
:1029A000CD23E254454B1A88CE23E254444B1A8877
:1029B000CF23E254434B1A88D023E254424B1A8867
:1029C000D123E254414B1A88D223E254404B1A8857
:1029D000D323E2543F4B1A88D423E2543E4B1A8847
:1029E000D523E2543D4B1A88D623E254002D02D160
:1029F000E1225200628370BDBEF00010C0F00010F2
:102A0000C2F00010C4F00010C6F00010C8F00010B2
:102A1000CAF00010CCF00010CEF00010D0F0001082
:102A2000D2F00010D4F00010D6F00010D8F0001052
:102A3000DAF00010DCF00010DEF00010E0F0001022
:102A4000E2F00010E4F00010E6F00010E8F00010F2
:102A5000EAF00010ECF00010EEF00010F0F00010C2
:102A6000F2F00010F4F00010F6F00010F8F0001092
:102A7000FAF00010FCF00010FEF0001000F1001061
:102A800002F1001004F1001006F1001008F100102E
:102A90000AF100100CF100100EF1001010F10010FE
:102AA00012F1001014F1001016F1001018F10010CE
:102AB0001AF100101CF100101EF1001020F100109E
:102AC00022F1001024F1001026F1001028F100106E
:102AD0002AF100102CF100102EF1001030F100103E
:102AE00070B5164B1B78002B14D0012B16D0144B4D
:102AF0001B78002B0DD0134D2C88134B134A1278E2
:102B00005200D05A6043642104F0B4F980B2241812
:102B10002C8070BD0A4B01221A70E8E70C4B1B8811
:102B2000002B03D1064B01221A70E0E7074B1B78FC
:102B30002D2BDCD9024B00221A70D8E7453C00202F
:102B4000473C00203C3A0020783A0020FC3B002023
:102B5000743B002010B5194B1B78002B0BD1184B80
:102B60001B88002B07D1174B01221A70164B174AEE
:102B700012781A701DE0134B1B78002B19D0124BE2
:102B80001B78002B16D0104A013B13700E4B1B789C
:102B9000642058430D4B197804F07CF983B264200B
:102BA000C01A80B20A4C23885843642104F072F999
:102BB000208010BD034B00221A70E7E7FC3B002089
:102BC0006E3A0020423C0020413C00200C070020CF
:102BD0003C3A002010B5164B1B78002B23D0154A29
:102BE0001378591C1170DB0703D5134A138801337E
:102BF0001380114B1A88C8239B009A4202D90E4BAE
:102C0000A0221A800C4B1B88DB08DBB20B4A137026
:102C10000B4A1288534364205843A72104F02AF931
:102C2000084B188010BD044BA0221A80FAE7C0465A
:102C30005C3C00204B3C0020723A0020FF3B00200F
:102C40003C3A0020743A002010B50F4B1B889BB211
:102C5000002B15D00C4B198889B20C4B1889AB236B
:102C60009B00584304F006F9094B1880094B1B7868
:102C7000002B04D0064A99005B185B00138010BD3E
:102C8000034B00221A80F1E7B83D0020183A0020DB
:102C9000743B00207E3C002008490A889308D21A21
:102CA00092B20A80064B1B889B189BB20B80054A88
:102CB0009B0857214B4313807047C046383A002089
:102CC000AC3D00205C3A0020724B9B7C012B5ED017
:102CD000704B9B7C022B5AD06E4B9B7C052B56D0A5
:102CE0006C4B9B7C042B52D06B4B00221A706B4BAD
:102CF0001A880A2A07D9684B1B78002B4FD1654BDD
:102D00009B7C032B4BD0664B00211970644B1B78C6
:102D10003C2B03D9634B1978634B1970634B1988AB
:102D2000634B1B88994203D05E4B19785E4B197038
:102D3000594B1978002915D05E4B1B880A3B9BB272
:102D400091204000834209D85B4B1888AF239B0039
:102D5000984203D8594B1B78002B03D0584B187856
:102D6000514B1870574B1B88642B25D9564B1B7839
:102D7000002B21D100291FD0544B1B78013BDBB223
:102D8000812B19D952490B7801330B7017E0514B45
:102D90001B78002BA8D1404B01221A70A7E74E4B9D
:102DA0001B78002B03D04D4B1B78002BABD13C493B
:102DB0000B7801330B70A9E7454B00211970444B88
:102DC0001B78FA2B03D9464B1978374B1970454BB2
:102DD0001B78002B20D15A2A0CD92E4B9B7C072B19
:102DE00008D02C4B9B7C062B04D03F490B88013329
:102DF0000B8002E03C4B002119803C4B1B88002BD0
:102E000002D0394B00211980374B1B887D2B03D909
:102E1000374B1978244B1970364B1B781E2B10D961
:102E2000092A0ED8344A13780133DBB213700A2B07
:102E30000AD9324B1A781C4B1A702F4B00221A7089
:102E400002E02D4B00221A702D4AC5239B00D35857
:102E50009B109B059B0D2B4A13800E4B5B7CDBB2BA
:102E6000294AD35C002B14D0284B1B78132B10D885
:102E7000264A01331370234B1A8892080C4B792190
:102E80005B5C0533DBB29A4203D9214B1A78064BBF
:102E90001A707047183A0020353C00206E3A002026
:102EA000F93B0020E73900204D3C002000F00010E5
:102EB00018060020463A00203A3A0020A03B0020A5
:102EC000EC3900203E3A0020443C0020FC3B00202E
:102ED000B03B0020A23B00209F3B0020E83B0020AD
:102EE000E53900204F3C0020603A0020743B002070
:102EF000EA390020AA3B0020F83B0020E6390020F8
:102F000000080348A23D0020543C0020513C002012
:102F1000EB39002010B52A4B1B78002B11D0294B20
:102F20001A78C8239B0053439BB2274A1088584302
:102F3000264B19894B00C918C90103F09BFF244B8C
:102F40001880244B6A229B5C002B22D0204B1C88CB
:102F5000002C07D0204B1888210003F08BFF84B28F
:102F60006400A4B21D4B1988002906D01A4B18889A
:102F700003F080FF81B2490089B2194B1B78002B06
:102F80000FD08C4206D2091B89B2164A13685B180F
:102F9000136010BD611A89B2124A13685B1A13607C
:102FA000F7E7002CF5D00F4B1B680F4A9342F0D97E
:102FB0000C4A1B1B1360064B00221A80E9E7C0462F
:102FC000E43B0020FB3B0020B83D0020183A0020E5
:102FD000703A002018060020663A0020643A00206B
:102FE000CC3B0020FC06002000E1F50510B50D4BA0
:102FF00018880D4B1B7858430A2103F03BFF80B221
:103000000A4B18800A4B1A6880181860094903F0A7
:1030100031FF094B1860094B1B68C018084B18603A
:1030200010BDC0465A3A0020AA3B0020563A002064
:10303000943B0020907E0000903B00208C3B0020C1
:10304000983B002070B582B0204B1888C72807D95C
:103050001F4B18221A701F4B0F3A1A7002B070BD26
:103060001D4E33788008C0B21825009532220A21FF
:10307000FEF73BFD164C20703378184A1078009507
:1030800046221421FEF731FD2378834201D9104BEB
:103090001870134E33780D4A10888008C0B2092585
:1030A000009532220A21FEF720FD0A4C2070337869
:1030B0000A4A1078009546221421FEF716FD23785F
:1030C0008342CBD9034B1870C8E7C046743B00203D
:1030D000070700200507002008070020FC3B002010
:1030E0000607002010B5334B1C78334B5B7B002B5D
:1030F0000ED0324B1B78002B0AD1314B1A88314B42
:10310000197878235B1A9A4202DD2C4B01221A703F
:10311000294B1B7D002B3FD1284B1A78002A03D165
:10312000294B1B78002B36D0254B1988274B1B7851
:103130004B43544363431B0A5801C01A8000C01814
:10314000C000234B198803F095FE84B22409FFF7D1
:1031500079FF204B1A78A24221D21F4B1A701F4BC5
:1031600088229B5C002B0FD01D4B1B78002B19D0A5
:10317000194B1B78144A1278934201D9124A1370E2
:10318000154B114A12781A70134B1B78002B0DD077
:10319000144BFE221A7010BDFFF7A2FCBCE70E4BC9
:1031A0001C70DCE7084B00221A70EDE70D4B002283
:1031B0001A70F0E7093C0020183A0020FC3B002080
:1031C0003C3A0020A53B0020433C0020003C00206E
:1031D0005C3A0020000700209F3B002018060020DA
:1031E000443C0020E83B002070B5334BCA229B5C76
:1031F000002B52D1314B5B7B002B0ED0304B1B7818
:10320000002B0AD12F4B1A882F4B197878235B1A81
:103210009A4202DD2A4B01221A70284B9B7B002B1D
:1032200002D0274B01221A70264B1B88002B03D09B
:10323000234A1278002A03D1244A1278002A2BD07C
:10324000234A107858433C2103F024FE040085B241
:10325000FFF7F8FE1F4B1A78AA4221D21E4B1A70B4
:10326000154B88229B5C002B0FD01C4B1B78002B2E
:1032700019D0194B1B78154A1278934201D9134A79
:103280001370154B114A12781A70134B1B78002BD0
:103290000DD0134BFE221A7070BDFFF75BFCA9E73F
:1032A0000D4B1C70DCE7094B00221A70EDE70C4B4C
:1032B00000221A70F0E7C04618060020183A0020D5
:1032C000FC3B00203C3A0020A53B0020433C002072
:1032D000093C0020000700209F3B0020443C0020C8
:1032E000E83B002010B5194B1A78002A25D0184B5E
:1032F0001B789B189B10174A1380174B1B78A42B25
:1033000002D8154BA5221A70FFF724FC124BA522F8
:103310001A70104B1C88114A12881A80FFF792FE0F
:103320000F4B1A78A24209D20E4B1A700D4B1B7824
:10333000002B06D00C4BFE221A7010BD094B1C70DE
:10334000F4E7094B00221A70F7E7C046FC3B002067
:10335000093C00203C3A00200C070020403A0020A5
:10336000000700209F3B0020E83B002070B5384B51
:103370005B7B002B0ED0374B1B78002B0AD1364BD2
:103380001A88364B197878235B1A9A4202DD314B42
:1033900001221A702E4B9B7B002B02D02D4B012259
:1033A0001A702D4B1888002803D02A4B1B78002B4D
:1033B00003D12B4B1B78002B3CD02A4B1B785B0096
:1033C000FE214900C91A89B2274B1B78002B05D072
:1033D000204B1B788B422ED8C91A89B20A3189B288
:1033E0004043081803F046FD040085B2FFF72AFEAB
:1033F0001E4B1A78AA4220D21D4B1A701D4B8822F0
:103400009B5C002B0FD01C4B1B78002B18D0184B4B
:103410001B78134A1278934201D9114A1370144B46
:103420000F4A12781A70124B1B78002B0CD0134BDA
:10343000FE221A7070BD0021D0E70D4B1C70DDE735
:10344000074B00221A70EEE70C4B00221A70F1E7CE
:10345000183A0020FC3B00203C3A0020A53B00200D
:10346000433C0020093C0020E93B002000070020ED
:103470009F3B002018060020443C0020E83B002031
:1034800070B5404BCA229B5C002B30D13E4B5B7B1E
:10349000002B0ED03D4B1B78002B0AD13C4B1A88D9
:1034A0003C4B197878235B1A9A4202DD374B012294
:1034B0001A70354B9B7B002B02D0344B01221A70C3
:1034C000324B1E78002E03D1334B1B78002B4DD08E
:1034D0002F4B1D88002D0DD0304B1A78304B9B1888
:1034E000587968433C2103F0D5FC84B203E0FFF730
:1034F00031FBCBE72C002B4B1B782B4A12786A430D
:1035000092B2734353431B0A5801C01A8000C0187B
:10351000C000264B198803F0ADFC80B2000984423C
:1035200000D20400FFF78EFD214B1A78A2421ED272
:10353000204B1A70134B88229B5C002B0FD01E4B24
:103540001B78002B16D01B4B1B78134A1278934222
:1035500001D9114A1370174B0F4A12781A70154B84
:103560001B78002B0AD0154BFE221A7070BD114B30
:103570001C70DFE7084B00221A70F0E70F4B0022A7
:103580001A70F3E718060020183A0020FC3B0020D0
:103590003C3A0020A53B0020433C002002070020CD
:1035A0000C3C0020093C0020003C00205C3A00203C
:1035B000000700209F3B0020443C0020E83B002007
:1035C00030B583B0904BCD229B5C002B00D1C7E07F
:1035D0008E4B5B7CDBB28E4AD35C8E4A13708E4A74
:1035E00011788E4A1278914200D195E08A490A708A
:1035F000854A7821525C002A00D1B3E0824A13390F
:10360000525C002A00D18BE09BB2854A128893421B
:1036100000D993E0834B1B78002B00D18EE0824BC6
:103620001B78002B04D1814B1B78002B00D185E047
:103630007A4B06221A707E4B1B78002B18D07C4ADE
:10364000002313707B4A13807B4A13807B4AFA2144
:10365000490011807A4A13807A4A13807A4B7B4A58
:1036600012789B185B7E9A009B185B00784A138047
:10367000774A6B4B12881B88D21A93B210B26D4AEC
:1036800010806E490A889A1812B20A80FA218900BD
:103690008A4200DCADE0694A1180674C2188591AE2
:1036A0008AB2674D298020809B009BB2510052183E
:1036B000520092B261490020085E81000918C910C9
:1036C0009B185B181BB25F4A1380002B00DA97E04F
:1036D0005C4B00229A5EFA239B009A4203DD594B11
:1036E000FA2292001A805B4BF4221A705A4BAB3AC2
:1036F0001A705A4B5A4A12781A70524B0020185EB0
:103700008010C0B2FE2300930023FA220021FEF7AE
:10371000ECF9544B187023E0424A0121117067E71D
:103720009BB23F4A1288934208D83E4B1B78002B2D
:1037300004D03D4B1B78002B00D079E7394B002299
:103740001A703B4B01321A70344B02321A703E4BE6
:103750003E4A12789B189A7A434B1A70FFF7C2FDC3
:1037600003B030BD284AB521525C002A2FD0264A2A
:103770005039525C002A17D09BB2294A12889342D2
:10378000DCD8224B5B7C002BD8D1264B1B78002B3E
:10379000D4D0254B1B78002B00D049E7234B1B7856
:1037A000002B00D044E7C9E79BB21D4A1288934220
:1037B000C4D8164B5B7C002BC0D11A4B1B78002B56
:1037C000BCD0194B1B78002B00D031E7B6E79BB279
:1037D000134A12889342B1D80C4B5B7C002BADD1BD
:1037E000104B1B78002BA9D00F4B1B78002BA5D0BA
:1037F0001EE7002A00DB50E7104A002111804CE749
:10380000130000221A8063E718060020183A0020EF
:10381000B83B0020B53B0020083C0020073C0020BE
:10382000743B0020B33B0020FC3B0020B43B002055
:10383000B23B00200E3A0020123A0020103A00203D
:103840000C3A00200A3A00200C3C0020020700201D
:10385000723B002007070020050700209F3B002047
:1038600000070020E83B0020093C002030B583B071
:103870003F4AC7239B00D3589B109B059B0D3D4A95
:10388000138010883C4C7923E15C0133E25C4033C7
:10389000E35CBB25645D8008C0B20094FEF725F9A7
:1038A000364B187000282FD0354B1870354B5B7C89
:1038B000DBB2354AD35C012B2AD0032B30D0304BFE
:1038C0001878324B1B7800930023FF220021FEF76B
:1038D0000CF9040005002E4B1B78834212D22D4BAD
:1038E0001888FE282BD92C4B30221A702B4B273AE4
:1038F0001A70264B1B78AB4237D2254A1370284BDF
:10390000FE221A7003B030BD1D4B00221A70CDE7A5
:10391000244B1B78002BD2D1194B00221A70CEE712
:10392000154BAE229A5C1B4B1B889A42C7D21D4B8B
:103930001B78002BC3D1124B00221A70BFE7C0B214
:1039400030230093C433FF222821FEF7CEF8124B18
:103950001870104B1878092300934033FF22282158
:10396000FEF7C3F80D4B1870C3E7094B1C70C6E790
:1039700000080348A23D002018060020503C00200B
:10398000A23B0020183A0020543C002000070020F1
:103990009F3B0020743B0020070700200507002004
:1039A000E83B0020FC3B002010B582B01B4B1C887C
:1039B000A4B2C8221A4B18885623FF330093194B20
:1039C00052002821FEF767F8174B1880002C0BD007
:1039D0002100164803F04EFAC0B2154B1870782833
:1039E00005D978221A7002E0114B00221A70114B8F
:1039F00000221A800E4B1C78002C0AD00E4B18782F
:103A0000001B002805DD0002210003F043FA094BEA
:103A10001880094B1C7002B010BDC046B03D00209C
:103A2000743B0020AE100000F406002035DF0000DB
:103A3000FC3B0020143A0020FD3B002070B582B012
:103A4000114B9B7A002B01D102B070BD0E4A937AC4
:103A5000023BDBB2990059184900947A0234E4B26F
:103A6000A300E4186400094E3378094D2888002229
:103A700000922200FEF70FF830702B88A342E3D9A2
:103A8000044B00221A70DFE7183A00209F3B002009
:103A9000743B0020E83B002010B56E4A13780133D8
:103AA000DBB213706C490A780132D2B20A706B49EA
:103AB000097800291BD0032B19D9664B00211970F6
:103AC000664B1970664B1B78002B1AD0012A18D947
:103AD000614B00221A70624B1A70624BDB7CDBB2C6
:103AE000082B00D9B0E09B005F4AD3589F460029BD
:103AF000E8D1022BE6D9574B1970584B0131197098
:103B0000E0E7002BE9D1012AE7D9534B00221A70D4
:103B1000534B01321A70E0E7544B1878FEF72EF839
:103B200010BD524B1878002804D04C4B1878FEF783
:103B300025F8F5E7FEF722F8F2E74C4B1878002855
:103B400003D04B4B1B78002B02D1FEF717F8E7E7A9
:103B5000434B1878FEF712F8E2E7444B1878002838
:103B600003D0434B1B78002B06D100280AD03B4BD7
:103B70001878FEF703F8D3E73D4B1878C0B2FDF78D
:103B8000FDFFCDE7FDF7FAFFCAE7384B18780028AC
:103B900003D0374B1B78002B06D1002809D02F4BC0
:103BA0001878FDF7EBFFBBE72D4B1878FDF7E6FF24
:103BB000B6E7FDF7E3FFB3E72D4B1B78002B05D0ED
:103BC0002B4B1878C0B2FDF7D9FFA9E7274B18781F
:103BD000FDF7D4FFA4E7264B1B78002B04D0204B25
:103BE0001878FDF7CBFF9BE7204B1878FDF7C6FF51
:103BF00096E71F4B1B78002B08D11C4B1878002828
:103C00000AD0164B1878FDF7B9FF89E7184B1878DA
:103C1000C0B2FDF7B3FF83E7FDF7B0FF80E7144BB9
:103C20001B78002B08D1114B1878002809D00B4BBA
:103C30001878FDF7A3FF73E7094B1878FDF79EFF8F
:103C40006EE7FDF79BFF6BE7084B1878FDF796FFD3
:103C500066E7C046C33B0020AF3B0020C23B0020CC
:103C6000AE3B0020183A0020D0930010F33B002018
:103C7000E83D002010B5754B9B7B002B1DD0744B8D
:103C80001B781433734A1370724B1B78822B02D942
:103C9000704B82221A70704BF4221A706F4BAB3A41
:103CA0001A706F4B19782820FDF747FF6D4B18707D
:103CB0006D4B684A12781A7010BD654B18786B4BC3
:103CC00018706B4B1B78002B0ED16A4A1288002AA1
:103CD0000AD1604B32321A70674B1A70674B002260
:103CE0001A80674B1A80CFE7002B6FD0614B1B887F
:103CF000644A1288934219D2634B04221A70634AB1
:103D00001378591C1170042BBED9524B1A785A4B98
:103D10001B789A4206D24F4B01321A705B4B00223D
:103D20001A70B1E7544A01331370F7E75449098810
:103D30008B4217D29B1A9B00DBB2534A1370534934
:103D40000A78501C087093429ED2424B1B784A4A14
:103D50001278934202D23F4A013313704B4B002238
:103D60001A7091E74A4A1288934216D2D31A9B00DE
:103D7000DBB2454A137045490A78501C08709342DB
:103D800000D381E7334B1B78282B02D9314A013B02
:103D900013703E4B00221A7076E73B4B04221A70D8
:103DA0003A4A1378591C1170042B00D86CE7294B40
:103DB0001B78282B06D9274A013B13702E4A13780B
:103DC000013B1370314B00221A705DE72E4B0A2223
:103DD0001A702E4A1378591C11700A2B00D853E719
:103DE0002C4B1988002925D02A2903D9194A137880
:103DF000013B1370214A13885C1C1480092B15D9D0
:103E00001D4A13780A3313701A4B1B88584303F06A
:103E100041F880B21A4B18800200143A194B1A80EC
:103E200014301B4B1880124B01221A70174B0022C2
:103E30001A7029E7104B1B78772BF7D805490A78B9
:103E400001320A700C4A01331370EFE7183A002070
:103E5000093C00200E07002007070020050700206E
:103E6000000700209F3B0020E83B0020793C002019
:103E7000783C00206E3A00200D070020703B0020A7
:103E80006E3B00206C3B00206D3C0020723C00200B
:103E90006A3B0020743B002010B5BC4BC2221A7054
:103EA000BB4B793A1A70BB4B00221A70BA4B1A708E
:103EB000BA4BBE329B5C002B24D0B94B1B88F52B30
:103EC0001DD9B84A1178C9B2B74A1278D2B2914214
:103ED00015D2B64A1278002A11D10B33DBB2B44A9C
:103EE00013705B09B34A13701378DBB2052B02D948
:103EF000130005221A70B04B01221A7002E0AE4B7B
:103F000000221A70AD4B1B78002B20D1AC4B9B7C50
:103F1000DBB2082B3BD89B00AA4AD3589F46FFF739
:103F2000E1F834E0FFF760F931E0FFF7DBF92EE06C
:103F3000FFF71CFA2BE0FFF7A3FA28E0FFF740FB9E
:103F400025E0FFF797FE22E0FEF744FE1FE09E4BC0
:103F50001A78642353431B11DBB28E4A13708F2BE4
:103F600002D913008F221A70984B1B78002B02D0B5
:103F7000884B00221A70964B1B78874A1370FD2BD2
:103F800002D91300FE221A70924B32221A70834B10
:103F9000CE229B5C002B07D0894B5B7CDBB28E4A28
:103FA000D35C002B00D0B7E0FFF748FD8B4AC1235C
:103FB0009B00D3589BB29B08784AD321525C002ABD
:103FC00010D087490978994200D3A8E085490B7839
:103FD00001330B70834B1B789A4203D8824B1A78BB
:103FE0007A4B1A706F4B1A789300D21853017F4A9C
:103FF00013607F4A11685B1813607E490A68013AB2
:104000000A60002A07D19B097B4A136040220A609C
:10401000774B00221A60794B1B78002B33D1784BF9
:104020001B78002B2FD0694B1B78DBB2754A1278B6
:10403000934228D0654B1B78DBB2734A12789342C7
:1040400021D0624B1B78DBB2674A127893421AD0B8
:104050005E4B1B78DBB26D4A1278934213D06C4BE7
:104060001B78002B0FD05B4B1B78002B0BD0694BC0
:104070001B78002B07D1554B1B78002B53D0504B8E
:104080009B7B002B4FD1644BC2221A70634BB93A11
:104090001A70454B00221A70614B1A70584B1B78EE
:1040A000002B00D1C2E0554A1278002A2ED1474A8F
:1040B0001278D2B2534909788A4227D0434A1278FB
:1040C000D2B2514909788A4220D0404A1278D2B2FD
:1040D000454909788A4219D03C4A1278D2B24B49F4
:1040E00009788A4212D04B4A1278002A0ED12C4A03
:1040F0001288002A00D099E0264A1278002A00D0BF
:1041000094E0484A1278002A00D08FE03C4B00220D
:104110001A7002F01FFB10BDFFF7A8FB44E7314BFC
:104120000021197056E7404B1B788F2B02D93E4B6C
:104130008F221A703C4B1B7819003231284A1170BB
:10414000144A1278934201D2124A13700F4B1B7813
:10415000172B02D80D4B18221A700D4B1B78082B09
:1041600002D80B4B09221A70084B1A782A4B1A7086
:10417000074B1A78294B1A70064B1A780A4B1A709B
:10418000054B1A78264B1A7088E7C04607070020AF
:10419000050700209F3B0020E83B00201806002078
:1041A0006E3A0020DC3D0020E93D0020A23B0020CB
:1041B000EB3B0020F13D0020ED3D00204F3C002076
:1041C000183A0020F4930010040700204D3C002012
:1041D00009070020093C0020543C0020000403484B
:1041E00001070020EA3B0020E4390020883B002042
:1041F000803B0020F8060020843B0020E83D0020A2
:104200000A070020E6390020E7390020EB390020BA
:1042100002070020DF3D00201E0700201D070020B0
:10422000EA3D0020F23D002000070020002B00D0D6
:1042300071E70D4B1B78002B00D06CE70B4B1B88F4
:104240009F2B00D967E70A4B1B78002B00D162E750
:10425000084B01221A70084B00221A70074B1A7083
:1042600002F0B4FA57E7C046E83D00206E3A00205D
:104270009F3B00200A070020F23D0020F03D002077
:1042800030B583B06C4B7E229B5C002B09D16A4B0E
:1042900048329B5C002B04D1674B0F329B5C002B98
:1042A00006D0664B1B78452B02D8644B46221A7009
:1042B000634BD88864235843572102F0DBFD80B25A
:1042C000604B1880604B1B78642B02D95E4B6422D4
:1042D0001A70594C607D18230093AA336422002180
:1042E000FDF703FC594B18702923E05C203B009339
:1042F000403364220021FDF7F8FB554B1870CB23A7
:10430000E05CAD3B0093E13364220021FDF7EDFB5F
:10431000504B1870237E504A1370504A1278002A6E
:1043200039D0454BC2229A5C4B4B5A70424BC22249
:104330009A5C4B4B1A70424B197C4A4A1170597D5A
:104340005171597C5170197D9171997DD172597B50
:104350005172997B9173997C434A1170D97C434A7D
:104360001170DB7B9B00424A138013889BB2002BA9
:104370000BD01388FA208000C01A3E4B1B8858438C
:10438000642102F077FD3C4B18602B4B9A8B3B4B22
:104390001A80012311E0304A5370C7E75A1E37498B
:1043A0005200545A220224482125405D6043121ACB
:1043B000120A580042520133DBB2772BEED91E4B62
:1043C000BD229B5C002B02D02D4BBC3A1A701C4BBB
:1043D00018796423584380B20009C0B2294B187081
:1043E000154CA28C284B5A43120928490A607422A2
:1043F000A25A53431B094B60BB23584380B28F2101
:1044000002F038FD80B2224B18801B889BB2BB2B78
:1044100002D91F4BBB221A80074BB7229A5C1D4959
:104420000A80C021585C1C4908705B8B9B1A1B4A90
:10443000138003B030BDC04618060020CA3B0020E0
:10444000183A002012070020A53B00200807002092
:10445000060700200C070020043C0020573C0020E9
:10446000FE3B0020D43B0020E53B0020E33B002046
:10447000503A0020363A00208C3B0020783A002049
:10448000CC3B00209D3B0020A0860100783B002013
:10449000F00600204E3A0020A13B0020F20600204A
:1044A000030043434B4343431B0C80225200521AE8
:1044B0005043C0188030000A704770B504000029CE
:1044C0000CD000280BDB80235B00984200DD180035
:1044D000002906DBFFF7E4FF002C0ADB70BD404239
:1044E000F1E7494280256D00281AFFF7D9FF281A05
:1044F000F2E74042F2E7000010B5484B1B78772BFB
:104500001CD9474B1A88474B1A80474B1A88474B90
:104510001A80474B00211980414B1B889BB29A425D
:1045200033D29B1A9800C0184001424B198802F000
:10453000A1FC80B2A0282CD9A0202AE0384B1888F2
:1045400080B23D4C21880422FDF7FDFA2080334AD9
:1045500013780133DBB21370782B02D0314B188003
:10456000D3E7364B1B78002BF8D0354B1B8898428D
:1045700007D9344B1B88984203D2334B00221A7060
:10458000ECE7314B01221A70E8E7304B00221A8029
:1045900000202F4B1978142925D0002905D02D4B48
:1045A000188802F077FC294B18802B4B1B78143BA2
:1045B0005900C9188900254B1888FFF77EFF83B280
:1045C0001B4A1380254A1380254A1380254A1078F8
:1045D000584380B2244B1B785843602102F04AFCB8
:1045E000224B188010BD224B1B8883420BD2C31A6A
:1045F0009BB2632B0AD8154C164B1888142102F075
:1046000039FC2080D1E71B1A9BB2F2E70F4C2188BE
:104610000522FDF798FA2080C7E7C046313A00200E
:10462000A83D00203A3A00204E3A0020463A0020A9
:104630003C3A0020F2060020483A0020573C002077
:104640004C3A00204A3A0020A03B0020423A002089
:104650009C3B0020343A0020A13B0020403A00203F
:104660003E3A0020003C0020FC3B00206C3A002039
:10467000323A00201E4A8A235B00D3581B070AD413
:104680008E235B00D358DBB21A4A1278D1B2002ACB
:1046900002D0012915D07047592B05D0164B0022A6
:1046A0001A70144B1A70F6E7134A1178C9B21348FE
:1046B000435413780133DBB213700E4B01221A708E
:1046C000E9E70D4A1178C9B20C4843541378013315
:1046D000DBB213701378DBB2062BDCD91300002297
:1046E0001A70044B1A70064B01321A70D3E7C04699
:1046F000000200484A3C00203F3C0020383C00209B
:10470000063C002070B5BC4B1B78002B01D100F09B
:104710009BFCBA4B43221A70B94B00221A70B94A5B
:10472000137801218B431370B74B7E229B5C002BC7
:1047300004D1B54B02329B5C002B6ED0B34B1A7880
:10474000072A0CD89300B24AD3589F46AD4A137833
:1047500001210B43DBB21370A84B00225A70AA4B05
:104760007F229B5C002B00D195E0AA4B19881A7818
:10477000A24BDA70A84B1B88994200D387E09B1AA2
:10478000DBB29E4A137102F079F989235B009842EB
:1047900000D3B2E0A14B00221A70A04B1B78502B23
:1047A00003D99F4B1A78964B1A709E4B1B78DBB23D
:1047B0009D4A1278934200D1A5E09A4B1B78002BBA
:1047C00000D1A2E08E4B1B78002B00D09DE0954BD2
:1047D0001B78DBB28A4A137097E0884B00225A702C
:1047E000BDE7864B02225A70B9E7844B06225A7005
:1047F000B5E7824B09225A70B1E7804B0C225A7000
:10480000ADE77E4B0C225A70A9E77C4B0C225A7004
:10481000864B1A787A4B1A70A1E77C4B1A78092AD2
:104820009DD89300824AD3589F46764A1378012137
:104830000B43DBB21370714B00225A708FE76F4B42
:1048400000225A708BE76D4B02225A7087E76B4B40
:1048500004225A7083E7694B06225A707FE7674B40
:1048600008225A707BE7654B0A225A7077E7634B40
:104870000C225A7073E7614B0C225A706FE75F4B42
:104880000C225A70694B1A785D4B1A7067E75B4BC4
:1048900000221A7177E75C4BC6229B5C002B09D182
:1048A000594BD5229B5C002B16D1544B4622DA7013
:1048B0001A7168E75F4B1B78504CE3705E4D298896
:1048C0005E4B1888B93AFDF73EF92880642102F062
:1048D000D1FAC0B2207156E7484C0023E370564D20
:1048E0002988564B1888CD3AFDF72DF92880642188
:1048F00002F0C0FAC0B2207145E702F0BFF81138EB
:10490000464B187049E73E4B1A703D4B1B78002B05
:1049100000D1A3E04A4B1B78002B00D09EE03A4B1D
:1049200080229B5C002B45D0354B1B78DBB2454A7F
:10493000127893421AD0324B1B78DBB23B4A127882
:1049400093421CD02E4B1B78DBB23F4A1278934225
:104950001ED02B4B1B78DBB23C4A1278934220D0FE
:10496000274B1B78DBB2254A5371B9E0384B1B78D3
:10497000002B00D1B4E0214B08225A71B0E0344B37
:104980001B78002B00D1ABE01C4B06225A71A7E02C
:104990002F4B1B78002B00D1A2E0184B03225A7139
:1049A0009EE02B4B1B78002B00D199E0134B042287
:1049B0005A7195E0144B7E229B5A002B04D1124B66
:1049C00057329B5C002B11D0224B1B78002B03D15C
:1049D000214B9B7B002B03D0084B00225A717FE0B8
:1049E000074B1B78DBB2054A537179E0044B1B7807
:1049F000DBB2024A537173E0E43B0020643C0020C8
:104A0000CE3B00207F3C002018060020AB3B00205E
:104A100018940010483A00203A3A00204E3C0020FA
:104A2000E83900204D3C0020E6390020E93900201B
:104A300038940010AA3B0020543A0020563A002037
:104A4000CF3B0020ED390020EB390020E439002075
:104A5000C23B0020A93B0020183A0020C34B1B7822
:104A6000002B3AD0C24BD5229B5C002B07D0C14B08
:104A70001B78022B20D0032B22D0012B18D0BE4B49
:104A80001B78002B24D1BB4B1B78002B20D0BB4BB9
:104A90001B7C002B03D1BA4B1B78002B18D1B94BD0
:104AA0001B78002B10D0B14B1A78B74B5A7117E016
:104AB000AE4BD43A1A70E2E7AC4B02221A70DEE732
:104AC000AA4B04221A70DAE7AF4B00225A7107E0B2
:104AD000A64B1A78AC4B5A7102E0AB4B00225A71CC
:104AE000AA4B1B78002B00D166E2A94B1B78002B48
:104AF00000D178E0A74B1B78002B57D0A64CA74DD0
:104B0000A74B18880A2102F0B5F90100288889B25C
:104B100002F0B0F92080A04B1B88002B00D146E2A8
:104B2000D9B2994A91711B0AD371914B82229B5C35
:104B3000002B05D09B4A137804210B43DBB2137082
:104B40008B4B81229B5C002B23D0974B1B88002B27
:104B500000D152E2934A1378802149420B43DBB2E1
:104B60001370924B1B78DBB20A2B00D84BE28D4AB4
:104B7000137840210B43DBB213708A4B1B783F2222
:104B8000934300D145E2874A137804210B43DBB2FB
:104B90001370844B1A781F210A407B498A701A7857
:104BA0003B210A401A70002200233EE2804B1B7812
:104BB000002B0BD07F4B1978784B188802F06AF9DC
:104BC000754B8200801840001880A4E77A4B1B7850
:104BD000002BA0D0704C714A784B1088198802F0D5
:104BE00049F9208097E7764B1B78002B3AD0754A1D
:104BF0001278002A36D1012B05D0022B1FD0664B2C
:104C000000221A8087E75A4BB9229B5C012B09D0FE
:104C10006D4B198889B2604C604B188802F02AF9F4
:104C2000208078E7684B198889B25C4B188802F0BD
:104C300021F98300C0184000574B18806BE74C4B9C
:104C40002B22985C614B1B885843642102F012F9B7
:104C500081B25F4B1980504C504B188802F00AF912
:104C6000208058E75B4B1A785B4B1B789A4223D81D
:104C70004049097800291FD041480078012803D90C
:104C8000564C2478002C17D00139554B8A00521805
:104C90009B181B5C002B0AD0012B00D03BE73E4C3D
:104CA0003E4B1888692102F0E5F8208033E73A4B43
:104CB0003A4A12881A802EE79A4207D82D49097875
:104CC000002903D02E490978042911D09A421BD813
:104CD000284B1B78002B17D0424B1B78642159437B
:104CE00005312E4B188802F0D5F82B4B188012E7AF
:104CF0003D4B1B78603159430531284B188802F031
:104D0000C9F8254B188006E7384B394A12789B5C66
:104D10000C2B00D9FFE69B00364AD3589F46144B14
:104D2000B9229B5C012B07D01B4C1C4B188800211F
:104D300002F0A0F82080EEE6184B1888002102F05F
:104D400099F88300C0184000134B1880E3E6084B25
:104D5000B9229B5C012B4FD01B4B198889B20E4C9A
:104D60000E4B188802F086F82080D4E6CF3B002056
:104D700018060020F73B0020F53B0020183A0020E1
:104D800002070020C23B0020643C0020CC3B0020F6
:104D9000583C00205C3C0020643A0020663A002029
:104DA000743A00207F3C0020703A0020F23D002041
:104DB000E63B00205F3C0020E73B0020683B0020F2
:104DC000CD3B0020493C0020503A00205A3A0020B8
:104DD000583A0020F43B0020CA3B0020CB3B002087
:104DE000D43B0020E53B0020E33B0020BC3B0020FF
:104DF000BA3B0020609400109A4B198889B29A4BF4
:104E0000188802F037F88300C0184000974B1880CC
:104E100081E6974B2B22985C964B1B885843642164
:104E200002F038F881B2944B1980904C8E4B188860
:104E300002F020F820806EE68B4B18888F4B197893
:104E400002F028F8894B188065E68D4C21888D4B3F
:104E500018880D22FCF777FE2080854BB9229B5CD9
:104E6000012B0BD0814C804D0A2102F003F8010088
:104E7000288889B201F0FEFF20804CE67B4C7A4BFB
:104E80001B880100180001F0F5FF208043E67E4BEF
:104E90001988764C744B1888890801F0EBFF208044
:104EA00039E6724C704A794B1088198801F0E2FF9C
:104EB000208030E66E4BB9229B5C012B0AD0744BEC
:104EC0001978632912D9684B188801F0E3FF674B02
:104ED000188020E6644B18886D4B197801F0DAFFD2
:104EE000624B820080184000188014E65E4B1888E0
:104EF00001F0D0FF5D4B82008018400018800AE668
:104F0000644C2188644B18880D22FCF71CFE20801D
:104F1000564C554D0A2101F0ADFF0100288889B299
:104F200001F0A8FF2080F6E5504C4F4A5B4B1088FB
:104F3000198801F09FFF2080EDE54D4BB9229B5C65
:104F4000012B0CD0564B18680A2101F093FF81B257
:104F5000464C454B188801F08DFF2080DBE5504B17
:104F60001988424C404B188801F084FF2080D2E51C
:104F70003E4C3D4A4B4B1088198801F07BFF208046
:104F8000C9E5494B187864235843FE2101F082FF9C
:104F900081B2013989B2454B1980334B188801F031
:104FA00069FF8300C0184000304B1880B3E5404BC8
:104FB00007229A71DA71B8E53E4B1888002817D09D
:104FC0002B4BD1229B5C002B0CD000010A2101F05D
:104FD00061FF80B2384B1880C2B2354B9A71000A1B
:104FE000D871A2E5C2B2324B9A71000AD8719CE521
:104FF0002F4B07229A71DA7197E5304A13787F2197
:105000000B401370ADE52D4A137840218B4313708C
:10501000B3E52A4A137804218B431370B9E5244978
:10502000C95C8A18D2B20133DBB2072BF7D9204B07
:105030001A72234A8A235B00D3581B0E7F221A4020
:105040001E239B1A092B00D870BD0023082BFBD808
:10505000174AD25CD2B21A48C021490042500133EB
:10506000DBB2F3E7503A0020663A0020643A0020B1
:10507000180600205A3A0020583A0020AA3B002087
:10508000543A0020563A0020A23D00203A3A00202F
:10509000FC3B00206A3A00206C3A00203C3A002099
:1050A000983B00206E3A0020F23D0020683A002034
:1050B000643C0020703A0020623A00207F3C0020CF
:1050C00000020048F8B504000F0015001E000B4B4D
:1050D00018888300C0184000094B2822995C01F011
:1050E000D9FE0004000C801B7843A91B083101F095
:1050F000D1FE80B2001980B2F8BDC0465E3A0020F1
:105100001806002010B5484B7E229B5C002B04D172
:10511000454B02329B5C002B37D0444B1A78072A50
:1051200003D89300424AD3589F46002079E0414B70
:105130001B88414A1288FA210120FFF7C3FF70E063
:105140003D4B1B883D4A1288FA21FA20FFF7BAFF2F
:1051500067E03A4B1B883A4A1288FA20FA2140004D
:10516000FFF7B0FF5DE0364B1B88364A1288FA2104
:105170003548FFF7A7FF54E0FA20800051E0FA20FD
:1051800080004EE0FA2080004BE0284B1A78092A74
:1051900003D893002D4AD3589F46002041E0254B69
:1051A0001B88254A1288A7210120FFF78BFF38E0D2
:1051B000214B1B88214A1288A721A720FFF782FFD5
:1051C0002FE01E4B1B881E4A1288A720A7214000F3
:1051D000FFF778FF25E01A4B1B881A4A1288FA203D
:1051E000A7214000FFF76EFF1BE0164B1B88184AF3
:1051F0001288A7211748FFF765FF12E0144B1B88A0
:10520000154A1288A7211548FFF75CFF09E0FA202C
:10521000800006E0FA20800003E0FA20800000E031
:105220000A2010BD0A20FCE718060020AB3B002036
:1052300094940010EE390020F0390020F23900205B
:10524000F4390020F6390020EE020000B49400107A
:10525000F83900209B020000FA39002042030000C8
:1052600070B5B24B1888642101F004FE84B2B04DD1
:10527000298804222000FCF766FC2880AD4B1B78AF
:10528000DBB2012B38D9AC4B00221A70AB4C218811
:1052900089B2AB4B18880322FCF755FC2080A94B40
:1052A0007E229B5C002B05D1A64B02329B5C002B1F
:1052B00000D172E0A14B1B889BB2A34A1288934293
:1052C00025D9A24B07221A70A14B1B78002B00D1C5
:1052D000D1E0A04B1A789D4B19788A4200D1C3E0E7
:1052E0009D480378013303709B4B1B78632B00D8D8
:1052F000BEE0984B1970C2E08F4A11784B1CDBB2AC
:105300001370142BC2D98E4B1C801170BEE78B4BCF
:105310001B889BB2914A1288934203D98B4B062279
:105320001A70D1E7854B1B889BB28D4A1288934235
:1053300003D9864B05221A70C6E7804B1B889BB2A7
:10534000884A1288934203D9804B04221A70BBE723
:105350007A4B1B889BB2844A1288934203D97B4BB9
:1053600003221A70B0E7754B1B889BB27F4A1288E4
:10537000934203D9754B02221A70A5E76F4B1B8825
:105380009BB27B4A1288934203D9704B01221A7058
:105390009AE76E4B00221A7096E7684B1B889BB207
:1053A000744A1288934203D9684B09221A708BE71A
:1053B000624B1B889BB2704A1288934203D9634B9D
:1053C00008221A7080E75D4B1B889BB25E4A1288E8
:1053D000934203D95D4B07221A7075E7574B1B8820
:1053E0009BB25E4A1288934203D9584B06221A7028
:1053F0006AE7524B1B889BB2594A1288934203D9E1
:10540000524B05221A705FE74C4B1B889BB2554AE2
:105410001288934203D94D4B04221A7054E7474B2C
:105420001B889BB2504A1288934203D9474B0322F0
:105430001A7049E7414B1B889BB24C4A1288934231
:1054400003D9424B02221A703EE73C4B1B889BB2A9
:10545000474A1288934203D93C4B01221A7033E722
:105460003A4B00221A702FE73B4B002018703BE7A5
:10547000364B1A7003E0374B344A12781A703F4BA0
:10548000DB7D022B4CD03E4B1B68642058433D4BC8
:10549000198801F0EFFC80B2FA239B00984200D9F2
:1054A0001800FA239B001B1A9BB2374A1380284B23
:1054B0001B78002B00D195E0344B1B78002B00D0DB
:1054C00090E0204B84229A5C314B1B789A4200D8A2
:1054D00083E00133DBB22E490B702E490978002995
:1054E0000FD1134908882C490988884209D92649CF
:1054F000FA208000088029490020086025490130F1
:1055000008702449097800296CD15208934269D364
:105510001A4BDB7D002B43D01E4B01221A7061E039
:10552000FFF7F0FD184B1880C1E7C0465C3A002039
:105530005A3A0020DC3D00200B0700205E3A002094
:10554000523A002018060020D4390020AB3B00203E
:10555000E43B0020AD3B0020AC3B0020D2390020D2
:10556000D0390020CE390020CC390020CA390020A3
:10557000C8390020D8390020D6390020183A002038
:10558000983B0020363A0020503A0020493C002049
:10559000483C0020DE3D0020DA3900208C3B002012
:1055A000FFF7B0FD02009632124B1B889BB29A4265
:1055B00004DB104B1B889633984213DD0D4B18808B
:1055C0001B88FA208000C01A0B4B1B8858436421AB
:1055D00001F050FC094B186004E0094B01221A70DD
:1055E000084B1A70034B1B889B08DBB2064AD37327
:1055F00070BDC046503A0020363A00208C3B002057
:10560000493C0020DE3D0020183A002070B5AC4A2D
:10561000137801331370AB4A137801331370AA4A1D
:10562000137801331370A94A137801331370A84B10
:105630001B78002B17D170BDA649C95C8A18D2B25D
:105640000133DBB2052BF7D9A24B9B79DBB2934236
:105650000CD09F4B00221A709A4B1B78032BEAD96F
:105660009D4B1A70E7E700220023EBE7954B0020E3
:105670001870984B5A7801210A4098490A70597855
:1056800020242140964C21705B7821218B43954941
:105690000870102B23D00ED8042B00D1A2E0082BC9
:1056A00003D18D4B042119701CE0022B1AD18A4BB7
:1056B0000221197016E0402B00D18FE0802B11D110
:1056C000894BD6215B5C012B00D18FE0022B09D1E5
:1056D000814B04211970834B0339197002E07E4B12
:1056E00000211970814B1B78002B03D1804B7A4924
:1056F000097819707D4B01211970002A00D16AE1E7
:105700007C4B1B78002B00D024E17B4B1B7C002BB7
:1057100004D1714B1B78002B00D01BE1774B1B7819
:10572000002B00D016E1764B1B78002B02D1744B76
:1057300001221A70734B01221A70734B1B78002BD5
:1057400026D1714B1A70714A13780133DBB2137092
:10575000032B02D9130001221A706D4B00221A701C
:105760005D4B1B78012B5DD0042B76D0002B43D0F2
:10577000664B1B780133DBB2664A1370664A1370BE
:10578000664B01221A70504B00221A704F4B1A7050
:105790004D4B1B78624A11788B420BD24E4B1A78D4
:1057A000534B1B789A4200D1D7E05E4B1B78002BFD
:1057B00000D0D2E04F4B01221A70524A00231370DE
:1057C000514A1370514A1370404A1170464A84215D
:1057D000515C3D4A11704F4A1370BEE03E4B0121AF
:1057E00019707FE73C4B032119707BE73A4BD539A1
:1057F00019703C4B197075E7444B1B78022B09D08C
:10580000032BB5D1484B1A783B4B5A755A7D474B01
:105810005A71ADE7464B1A78374B1A741A7C434BD2
:105820001A70A5E7394B1B78022B0ED0032B9FD1A2
:10583000404B1A78304B1A75197D3C4A91713E499C
:10584000097899759B7DD37292E73C4B1A782A4B65
:105850005A745A7C354B5A708AE72C4B1B78022BB2
:1058600015D0032B84D1364B1B78092B1FD0354B19
:105870001A78214BDA74DA7C334B1A70334B1B786D
:105880000A2B00D074E7224B01221A7070E72C4BD0
:105890001B78092B00D06BE72A4B1A78164BDA7469
:1058A000DA7C294B1A701A4B01221A7060E7284BD8
:1058B0001A78114B5A735A7B1C4B5A72DEE7C0465A
:1058C000703C0020303A0020F03B0020F43B0020E8
:1058D000063C0020383C002002070020EC3B002062
:1058E0006E3C0020A33B002018060020E43B002073
:1058F00003070020F13B0020183A0020583C00200C
:10590000493C0020F23B0020F53B0020F73B002003
:10591000CB3B0020CF3B0020D03B0020CC3B0020E5
:10592000CA3B0020A83B0020A73B0020D43B00201E
:10593000403C0020463C0020563C00204C3C0020CF
:10594000ED3B0020EF3B0020E33B0020EE3B00203E
:10595000A43B0020B24B01221A70B24B1B78B24A12
:10596000127893420DD2B14B1978B14B1B78994202
:1059700014D0B04B1B78002B10D1AF4B1B78002BF1
:105980000CD1AE4900230B70AD490B70A5490A70CC
:10599000AC4A1370AC4A1370AC4A1370A94B1B7815
:1059A000002B00D191E0AA4B00221A70A94B1B7C5E
:1059B000002B03D0A84B1B78002B04D09B4B1B78EB
:1059C000002B00D081E0994B1A78042A7AD89300F2
:1059D000A24AD3589F46924B1B78002B0ED1974B6F
:1059E0001B78002BB9D0954A002313709C4A137082
:1059F0008C4A1370934B01221A70AEE7884B002239
:105A00001A70AAE78E4B1B78022B10D0032B1BD0E9
:105A1000012B57D18F4A117C924B1970137C59423C
:105A20004B41DBB21374127C8F4B1A704AE0894AE7
:105A3000517D8E4B1970537D59424B41DBB25375EA
:105A4000527D894B5A713DE000F0A8FD3AE07C4B55
:105A50001B78022B10D0032B1BD0012B32D17D4A97
:105A6000517C834B1970537C59424B41DBB25374C8
:105A7000527C7D4B5A7025E0764A117D7D4B197022
:105A8000137D59424B41DBB21375127D764B9A71EF
:105A900018E0704A917D784B1970937D59424B41C3
:105AA000DBB29375927D704BDA720BE0644B1B781E
:105AB000022B29D0032B2BD0012B21D0654B9A7CB4
:105AC0006E4B1A70604B01221A706D4B7E229B5AEE
:105AD000002B05D16A4B57329B5C002B00D1E2E0D2
:105AE000564B1B78002B00D184E04E4B1A78654B47
:105AF0001B789A4200D2D6E0544B00221A70D2E0B2
:105B0000544B01229A74D9E7524B02229A74D5E77A
:105B1000504B03229A74D1E7494B1B78022B0CD0CF
:105B2000032B0ED0012B04D04A4B9A7C534B1A7096
:105B3000C8E7484B04229A74F6E7464B05229A744C
:105B4000F2E7444B06229A74EEE73D4B1B78022B9A
:105B50001CD0032B37D0012B04D03E4BDA7C4A4BB0
:105B60001A70AFE73B4BD97C484A1170DB7CDBB243
:105B7000434A6D21525C934202D0364BDA74ECE713
:105B80003F4B6F229A5C334BDA74E6E7404B1B784D
:105B9000092B08D03A4B70229A5C2E4BDA74DA7CCF
:105BA0003A4B1A70D9E72B4A517B3A4B1970537B09
:105BB00059424B41DBB25373527B2B4B5A72244BED
:105BC00001221A70C9E7344B1B780A2B05D02C4BE5
:105BD00071229A5C1F4BDA74BFE71E4A937B5942CD
:105BE0004B41DBB29373927B1F4B9A73184B01228C
:105BF0001A70B2E70B4B1978214B84229A5C214B27
:105C00001B78D31A99424BDB914249D20C4B1B783B
:105C1000002B45D00D4B214A12781A7043E0C04644
:105C2000F13B0020F43B0020CA3B0020020700208B
:105C300003070020583C0020A83B0020F53B002033
:105C4000F73B0020F63B0020CC3B0020CF3B002060
:105C5000CB3B0020183A0020A33B0020DC9400102E
:105C6000F23B0020403C0020D43B0020A73B00201A
:105C70004C3C0020463C0020563C0020E53B0020E8
:105C800018060020E2390020E33B0020EF3B002013
:105C9000ED3B0020A43B0020EE3B0020D03B002049
:105CA000C74B00221A70C74B00221A70C64B9B7C50
:105CB000082B2BD0C54B1B78002B04D0C44A12787C
:105CC000002A00D10EE1002B00D121E1C04A127858
:105CD000002A00D11CE1BC4A127C002A00D117E145
:105CE000BC4A1278002A00D012E1BB4B01321A7074
:105CF000BA4B1A70B44B9B7C082B03D0B24B9A7CE6
:105D0000B74B1A70B04B08229A7404E2B14B1B785F
:105D1000002B17D0B24B1A78AB4B9A74AE4A0023C3
:105D20001370AE4A1370AF4A1370AF4A1370AF4A84
:105D30001370AF4A1370AF4A1370AF4BAF4A12786B
:105D40001A70E8E1AC4B00221A70AA4B01321A70AB
:105D5000A54B1B78002B4AD0A54B1A709B4B1B7888
:105D6000002B02D1A64A01211170002B07D0A44BB1
:105D70001B78002B03D0A34B01221A7016E0A14B15
:105D80001B78002B0FD0A04B1C782001201840005E
:105D90008D4D297BC9B201F07DF89C4B18702C7396
:105DA000974B00221A70974B00221A70984A13786A
:105DB0000133DBB21370974A8421525C520893423C
:105DC00007D3934B00221A70934A137859424B41E0
:105DD0001370914B1B78002B04D0904B8B4A127898
:105DE0001A7098E1784B1A7B8C4B1A7093E17D4BBB
:105DF0001B78002B4ED08A4B1D888A4B1C882A1B8F
:105E000093009B181801C01A642101F043F881B275
:105E1000611889B2091B844801F03CF8C0B26A4B92
:105E20001873824A222111700122DA7200229A75B7
:105E30007F4A13780133DBB21370764A6231525CC9
:105E40005208934207D37A4B00221A70794A13788A
:105E500059424B411370774B1B78002B17D0764B70
:105E60001C805A4B1B78002B02D1654A012111700E
:105E7000002B00D14FE1624B1B78002B00D14AE18F
:105E80005F4B00221A70584B01321A7043E16A4B83
:105E90001D80E6E7514B1B78002B00D13BE1534BB3
:105EA00001221A70654B1B88634A13805C4A128872
:105EB000934201D95A4A1380444B1A78002A02D1DE
:105EC0004F4B01211970002A00D124E14C4B1B7863
:105ED000002B00D11FE14A4B00221A70414B0132C6
:105EE0001A7018E1FFF70EF9554B18801B88FA203D
:105EF0008000C01A534B1B885843642100F0BAFF3E
:105F0000514B1860514B01221A703A4B1A7002E142
:105F10002D4A927C062A1BD02E4A1278002A00D1E4
:105F2000F4E03C498820095C002922D0002B1DD0D8
:105F300027490978002919D045490978002915D140
:105F400044490978002911D043498738087010E086
:105F5000002B07D01E4B1B78002B03D03F4B053A7C
:105F60001A70D8E03D4B00221A70D4E03A49002064
:105F7000087028496420095C002900D1CBE0002B7F
:105F800070D0134B1B78002B6CD0334B1B78002B3D
:105F900068D10D4B5B7CDBB23149CB5C002B61D00F
:105FA0002B4B1B78002B00D0B5E0294B01221A7037
:105FB000054B997C0A4A117007229A74ABE0C046DF
:105FC000CF3B0020F63B0020183A00206E3C00201A
:105FD000493C002002070020583C0020593C00208A
:105FE000343C00205A3C00205B3C0020E73B002072
:105FF000E63B0020CC3B0020F43B0020CA3B0020C5
:106000006F3C00205C3C0020FF3B0020FE3B00205A
:106010005D3C0020180600205E3C00205F3C002014
:10602000443A0020483A0020A80F0000043C002019
:10603000603C0020613C0020683B00203A3A002090
:10604000503A0020363A00208C3B0020CD3B002007
:10605000763C0020F13B0020443C0020B43B002073
:10606000743C0020B54BAF215B5C002B40D0B34BA0
:106070004A395B5C002B3BD0B14B1B78002B4AD0DC
:10608000B04B1B78002B07D1AE4B64391970AE4B67
:1060900000211970AD4B1A70A84BB021595CAA4B66
:1060A0001B78994218D9A94B1B789A420BD0A84B60
:1060B0001A78A84B9A74A24A00231370A14A13704D
:1060C000A54A137027E0A54B1B78002BEFD1A14BFD
:1060D0005B7C002B1FD0EAE79D4B1A789D4B9A748E
:1060E000974A00231370974A13709B4A137012E06B
:1060F000934B1B78002B03D0954B1A78954B9A74D1
:106100008F4B00221A70944B1A7004E0944B0022BB
:106110001A708B4B1A708F4B9A7C013A914B1C78FA
:10612000914B91008A189B18185D904B1870834B07
:10613000D6229B5C002B0CD08D4B1B78002B08D0FB
:106140007E4B063A9B5C5843642100F093FE874BDC
:106150001870804B5B7D002B6FD0864B1B78002B1B
:1061600060D0854B1B78002B5CD1844B1B78002BB7
:1061700058D0834B1B78002B54D1824B1B78002BBB
:1061800013D1804A013313707F4A13707F4A137012
:106190007F4B00221A707F4B1A707F4B1C707F4B15
:1061A0001B78002B28D07E4A13707A4B1B787B4AD1
:1061B000D25C002A02D1764A002111705A1C79491A
:1061C00009788A4224DA724A1178754A1278043AB8
:1061D000914203DA704A127894422ED06C4A002120
:1061E00011700133DBB26B4A13706C4AD35C002B25
:1061F00008D06B4A137020E0504B84229A5C684BA5
:106200001A70D2E74D4B84229A5C654B1A7014E0E9
:106210005F4B1A78624B1B789A420ED35A4B00227E
:106220001A700AE0574B1B78002B06D0554A002302
:106230001370554A1370554A1370574B1C703F4BDF
:1062400063229B5C002B0AD04A4B1B78002B03D1A6
:10625000554B1B78002B4BD0544B01221A70544BDA
:10626000DB78DBB2534A1370344AB921525C002AFE
:1062700042D0514AE12189004B4313802F4B8322A6
:106280009B5C002B09D04A4B5B79DBB24B4A137005
:106290005278934201D2494A53702E4B9B7C072B74
:1062A00003D02F4B1B78002B2BD0244BAE22985CB5
:1062B0000A2100F0DFFDC0B2264B9872254C627CAB
:1062C0003F4B9200D0583F4B198800F0D3FDC1B22C
:1062D0003D4B19703D4B1878FBF72FFC3C4B187069
:1062E000A37DDBB23B4AD25C3B4B1A70FFF7B1F99E
:1062F0002E4B00221A70B2E72F4A38494B431380C5
:10630000BCE7144B5B7CDBB2354AD35C022B06D076
:10631000104A537CDBB22949CB5C9372CEE7314BF8
:106320001B78002BF4D0054BAE22985C0A2100F0BC
:10633000A1FDC0B2074B9872C0E7C0461806002006
:10634000763C0020713C0020703C0020773C00200F
:10635000343C0020183A0020783C0020E83D002022
:10636000443C0020020700200C3C0020093C002097
:10637000A33B0020F13B0020F73B0020493C0020DC
:10638000583C0020A83B0020A93B0020CC3B00202B
:10639000F43B0020BA3B002003070020C43B002050
:1063A000CA3B0020A63B0020F23B0020F33B00202C
:1063B000383C0020FB3B0020663A00207C3C00205B
:1063C000783B00205C3A00209E3B00209D3B002053
:1063D00000070020043C0020003C00209B0500003A
:1063E000543C0020503C002010B52D4B1B889BB224
:1063F0002C4A934204D82A4B1B889BB2092B26D8DF
:10640000294B00221A80FCF71FFCFDF7CDFAFCF7A0
:1064100043FC264B187800010A2100F02BFD244B89
:106420001870FEF769F8234B1A78511C1970032372
:106430001340022B30D013D8002B18D0012B18D1C9
:10644000FDF72AFBFCF766FDFCF7D0FD11E0144BCD
:10645000198889B2184800F00DFD134B1880D2E757
:10646000032B06D1FCF730FCFEF7FAFE01E0FFF744
:10647000CDF8FDF711FD114B9978114A1180D978AB
:10648000104A11801979104A118059790F4A1180E8
:106490009A790F4B1A8010BDFEF734F9E9E7C04630
:1064A0001A070020FFEF00006E3A0020DC3D0020BC
:1064B000AA3B0020B13B002090D00300E03D00202B
:1064C000003A0020023A0020043A0020063A002058
:1064D000083A002030B589B020220021684602F039
:1064E0003FFE2A4B1A682A4B9A4240D0294B284A31
:1064F0001A60294A2221515C19712A21515C8800B5
:1065000009184800D8806021515A19816221515CD4
:1065100099720021D972107E1873907D5873997307
:10652000D9736931515C19746821515C59746E21B9
:10653000515C99746D21515CD9746B21515C197552
:106540008721515C5975C321515CD9756C21525C0E
:106550009A7569460A00180038C838C238C838C267
:1065600000230222094800F0ADF909B030BD6C46A5
:1065700002222100054800F0D9F906490B0022004B
:1065800031CA31C313CA13C3EFE7C04600FF00107E
:10659000DDAA0000183A00201806002030B589B0A6
:1065A0006C4620220021200002F0DAFD074B220079
:1065B000190029C929C229C929C2002302222100A0
:1065C000034800F07FF909B030BDC046183A0020FA
:1065D00000FF001010B54A4B00E0013B002BFCD13E
:1065E000FBF754FA002800D001BEA021C9050B68B2
:1065F000444803408022920013430B6042490B68D9
:1066000003401A430A60FAF701FE00F02DFAFBF787
:10661000A3FEFBF7C1FAFFF75DFFFDF731FE3B4B31
:106620001B7942333A4A13703A4B00241C7000F035
:10663000B1F8394B1C70394B01229A60384B00E09D
:10664000013B002BFCD1374BC622920098583649AB
:1066500008408021C90101439950802189041960B3
:106660009858324908408021C9030143995080223B
:10667000D2041A60A023DB050F22DA602C4A116BCA
:1066800080235B000B431363254B00E0013B002B91
:10669000FCD1284B5A6801210A435A60264A9A6065
:1066A000264B1B6F9BB2264A1380264A13800FE0AD
:1066B000FDF7E0FF13E024490B6801330B60214B29
:1066C0001A801F4B1B88D31A9BB220498B4211D8CA
:1066D000184B194A9A601E4B1B78002BE8D0154BBB
:1066E000154A9A60154B1A6F92B2164B1B8893424B
:1066F000E7D9E0E7124B1A80FFF776FEE8E7C046DD
:10670000804F1200FFFCFFFF000004481806002025
:106710009C3D00207E3C00200F070020000001501F
:10672000C0D4010000E100E0FF00FFFFFFFF00FF19
:106730000000014000000240FECAADAB0002044868
:10674000803C0020823C0020843C00206A1800002D
:10675000063C00200323034A1361034A1361034AE2
:106760001361704700010050000200500003005008
:1067700010B5054B1A78054B1A70054B00221A709C
:10678000FFF7E8FF10BDC046E43900204D3C002073
:106790000A07002070B500F048F80A494A6A9208D2
:1067A00001231340084A13704D6A02242C402343EE
:1067B00013704C6AA400042121400B43137000F0B5
:1067C00038F870BD00010440983D002010B5FFF777
:1067D000E1FF0D4B196B802252000A431A631A6BBA
:1067E0000A490A401A6309E0074B196B80225200DC
:1067F0000A431A631A6B05490A401A63044B9B68E3
:10680000DB07F1D510BDC04600000140FFFEFFFFD1
:1068100000010050000000000230800803D0013861
:10682000FDD1C046C046C0467047EFF3108072B637
:10683000704780F310887047064B1A898021490100
:106840000A431A8148215A5A8020000102435A52B1
:106850007047C0460000054010B50D4A13681B0A7A
:10686000FF210B400B480360126811400A4A116077
:10687000002B08D01B02C918084800F0FBFA4000A2
:10688000074B186010BD064B064A1A60FAE7C0466F
:1068900000030140003E0020FC3D0020000024F4E5
:1068A000FC3F00200048E80110B5FFF7C5FFFBF7EB
:1068B000DFF810BD70470000014B188880B27047A8
:1068C00000000540F8B504000D001700164A918835
:1068D000FF20814391809188C020800101439180F5
:1068E000002B06D0938861210B439BB29380002636
:1068F0000BE00D4A9388A1210B439BB29380F6E7EE
:10690000FFF7DAFFC007FBD40136BE4206D20023F0
:10691000032BF5D802CD02C40133F9E7024A93886C
:10692000FF218B439380F8BD0000054030B5002562
:1069300005E010C810C10133032BFAD90135954287
:1069400001D20023F8E730BDF0B5C64600B58B088C
:10695000984604339B001E5803250D40ED00F82790
:10696000AF40BE431E50436F4F000326BE40B343AB
:106970004367CB0810339B001F5807260E40B60014
:106980000424B440A7431F501F585478B440260035
:106990003E431E500D4B98420ED00023D356002B81
:1069A00010DB434604339B0019581278AA400A436F
:1069B0001A5080BCB846F0BD036E01268E40B3432A
:1069C0000366EAE753688B404360EAE7000204404D
:1069D00010B50C000DE0800808490B68084A134008
:1069E00002021343074A13430B60044B1B685B000E
:1069F000FBD4A3008342EED310BDC0460003014088
:106A0000FF000FC00000F03F30B50C000EE0012287
:106A100090000A490B680A4D2B4092021343094A21
:106A200013430B60054B1B685B00FBD48300A34240
:106A300003D20028EBD00200EAE730BD000301409A
:106A4000FF000FC00000F03F014BC3225A627047A5
:106A500000000140034BC0225A62024B5B6A5B0795
:106A6000FBD4704700000140034A938C01210B4383
:106A70009BB293847047C0460010014010B5862336
:106A80005B001B68984710BD10B50400FFF7E2FFDC
:106A9000054B186920431861034B1B685B00FBD44E
:106AA000FFF7D2FF10BDC04600030140034B9B68B7
:106AB00003405A1E9341D8B27047C04600030140BC
:106AC00070B504000D00FFF7C5FF154B1A68120AD8
:106AD000FF2010401968134A11402943124A0A4303
