:020000041000EA
:10100000480500201910001000000000A310001077
:1010100000040100000100001249134A134B00F0C4
:101020001AF8134880471349134A144B00F013F879
:101030001349144A144B00F00EF81449144A0020C6
:10104000521A02DD043A8850FCDC124880471248EC
:101050008047124880479B1A03DD043BC858D05094
:10106000FBDC7047B49800100C0000204401002005
:1010700079690010EC990010480500202C07002029
:10108000D09B001030070020B8190020B8190020AC
:10109000103E0020A110001041920010A96600101F
:1010A0007047FEE710B582B06B46354ADA80354BA3
:1010B000354A1A60354B0121C022520099508020D8
:1010C0001A58334C22401A508022120231480260D2
:1010D00031480260812292009950304A8423802155
:1010E000C904D1501DE029498122920088588023EB
:1010F0009B0003438B50294AFC235B00D358002BF1
:10110000F9D0C0239B00D358009380231B02214AAF
:101110001360214A13606B469A1DDB88013B9BB22A
:1011200013806B4606331B889BB2002BDBD1009BE0
:101130000023009305E080231B02164A1360164A21
:101140001360174B1B6C1B0FF5D1104B80215858A7
:10115000C022920202435A5000228531FF315A5078
:1011600084395A500D4B9532FF328039FF399950EE
:1011700083315A580B4802405A5002B010BDC04645
:1011800050460000BC4003480004103F00000348E4
:10119000FFFFFC7FE0400348E440034800040348AD
:1011A00000400348FFFFFFFB00B583B00023124A55
:1011B0001360124A13600321114806F015F9114912
:1011C00080228858104B03438B501423019308E06E
:1011D000019B013B019380231B02074A1360074ACE
:1011E0001360019B002BF3D1FFF75CFF0021044843
:1011F00006F0FAF803B000BDE0400348E4400348BD
:10120000000403480000034800000180F8B552497B
:10121000524D280006F060F85149524E300006F059
:10122000A3F85149514C200006F09EF803213000EC
:1012300006F0DAF80321200006F0D6F8FFF7B4FF35
:101240004B49280006F006F94A49200006F05EF9ED
:1012500082225200A1588023DB000B43A350434A53
:1012600084235B00D3589B06F9D5140082235B00CE
:10127000D25803208243E250E25801210A43E2504F
:10128000384DEA588243EA50EA580A43EA503A4B4A
:101290001A6888235B00E250384A1268E250384AE4
:1012A0000021200006F06AF9364A0121200006F0EC
:1012B00065F9354A0021280006F060F9334A01211A
:1012C000280006F05BF90021280006F08DF80021C7
:1012D000200006F089F800220121280006F08CF891
:1012E0000021280006F09AF8200006F090F803216B
:1012F000200006F079F80321280006F075F8B023E5
:10130000234AE2500422FF32EA50224A06212000FA
:1013100006F034F9114EC2277F00F35940221343DF
:10132000F3511D4A0721200006F028F9F3598024C3
:101330002343F351194A0721280006F01FF9C02260
:101340005200B3582343B3508432B15880239B00DA
:101350000B43B350F8BDC046780500200000034899
:10136000B005002000040348E405002000080348FD
:101370000C06002000060020F8050020FC050020D7
:10138000C4050020D405002090050020A005002001
:1013900003040000680500204805002058050020CF
:1013A00010B500F007F800F02BFA10BD10B5FFF7EC
:1013B000F7FF10BDF0B5DE4657464E464546E0B550
:1013C00085B0DE4E0021300005F044FC80235B0038
:1013D0009846F360DA49DB4F380005F055FC0223EC
:1013E0009A46FB6304247C638021C904300005F025
:1013F00043FC07233361D44A0121380005F085FC02
:10140000D24A0221380005F080FCD14A032138007D
:1014100005F07BFC01220121380005F05BFC012274
:101420000221380005F0AAFCA4257B5923437B51F7
:1014300001218B46F16000243C67F960C549C64F25
:10144000380005F038FCC54B7B638021090530006E
:1014500005F012FC70213161C14A6F39380005F086
:1014600054FCC04A0221380005F04FFCBE4A03215B
:10147000380005F04AFC0121380005F03FFC5046D9
:10148000F0603C675846F860B849B94F380005F03D
:10149000FBFBA023FB63B74B7B63802189053000F6
:1014A00005F0EAFBE020C0013061B34A01213800B9
:1014B00005F02BFCB14A0221380005F026FCB04AA9
:1014C0000321380005F021FC0822F2603C675E46EB
:1014D000FE60A026F6050021300005F07BFC4746A3
:1014E000F760A849A84F380005F086FCD2239B007E
:1014F0009846FB637C64D223DB00994619003800D0
:1015000005F0E5FC8021C904300005F090FC0723BC
:1015100033619E4A0121380005F0A6FC9C4A022155
:10152000380005F0A1FC9B4A0321380005F09CFC23
:1015300001220121380005F083FC9749380005F0AD
:10154000EDFC3C679549964F380005F055FC434645
:10155000FB637C644946380005F0B9FC802109052D
:10156000300005F064FC702131618E4A6F3938001B
:1015700005F07AFC8C4A0221380005F075FC8B4A94
:101580000321380005F070FC01220121380005F02C
:1015900057FC8749380005F0C1FC3C678549864FF8
:1015A000380005F029FC4146F9637C64494638005F
:1015B00005F08DFC80214905300005F038FCE02362
:1015C000DB0033617D4A0121380005F04DFC7C4A87
:1015D0000221380005F048FC7A4A0321380005F062
:1015E00043FC01220121380005F02AFC764938002D
:1015F00005F094FC3C677549754F380005F0FCFB1D
:101600004146F96379644946380005F060FC802161
:101610008905300005F00BFCE020C00130616D4A07
:101620000121380005F020FC6B4A0221380005F04A
:101630001BFC6A4A0321380005F016FC0122012137
:10164000380005F0FDFB03220021380005F042FCC4
:1016500002220121380005F03DFC0022042138005F
:1016600005F038FC01220321380005F033FC7B59DA
:10167000584603437B517B59504603437B517B596A
:10168000102213437B517B5908210B437B513C674C
:10169000534D280005F076FC2B680326B3432B60DE
:1016A0005049280005F07AFC4F49280005F080FCDD
:1016B00000220221280005F086FC6B6F04221343F0
:1016C0006B674A494A4D0022280005F087FCEB6908
:1016D00050229343EB61EB69493A93433343EB6107
:1016E000EA6B444B1A4080231B011343EB63424BCC
:1016F0002B610C360296019400943A2300220021BB
:10170000280005F06BFD1F2305220021280005F0AD
:1017100095FD1F2305222021280005F079FD2B6C63
:10172000B343524613432B64344805F067FF05B0BA
:10173000F0BCBB46B246A946A046F0BD0000044836
:10174000E892001000010448F0920010F49200109A
:10175000F89200100493001000020448FFFF0000FC
:101760000C9300101093001014930010AC93001011
:1017700000040448FF040000B4930010B893001064
:10178000BC93001018930010000100503493001017
:10179000389300103C9300102893001040930010E1
:1017A000000200505C9300106093001064930010DE
:1017B00050930010689300100003005084930010B1
:1017C000889300108C930010789300109093001071
:1017D00000040050A0930010A4930010A8930010E0
:1017E0000000015000930010FC920010DC920010E9
:1017F00000020048FFE0FFFF21810000C0930010BD
:1018000010B57F4A7F4C0021200005F005F9002229
:101810000021200005F089FB7B4A0A21200005F009
:10182000FBF800220A21200005F07FFB774A0D21FA
:10183000200005F0F1F800220D21200005F075FBD5
:10184000734A0121200005F0E7F800220121200061
:1018500005F06BFB6F4A0221200005F0DDF8002245
:101860000221200005F061FB6B4A0321200005F0F6
:10187000D3F800220321200005F057FB674A04211A
:10188000200005F0C9F800220421200005F04DFBDE
:10189000634A0521200005F0BFF800220521200041
:1018A00005F043FB5F4A0621200005F0B5F8002251
:1018B0000621200005F039FB5B4A0721200005F0D6
:1018C000ABF800220721200005F02FFB574A082122
:1018D000200005F0A1F800220821200005F025FBDA
:1018E000534A0921200005F097F800220921200021
:1018F00005F01BFB4F4A504C0021200005F08CF8EE
:1019000000220021200005F010FB4C4A012120009C
:1019100005F082F800220121200005F006FB484A6C
:101920000221200005F078F800220221200005F0B5
:10193000FCFA444A0321200005F06EF8002203213E
:10194000200005F0F2FA404A0521200005F064F875
:1019500000220521200005F0E8FA3C4A3C4C0A210F
:10196000200005F059F800220A21200005F0DDFAD8
:10197000384A0B21200005F04FF800220B212000EF
:1019800005F0D3FA344A0221200005F045F8002280
:101990000221200005F0C9FA304A0421200005F098
:1019A0003BF800220421200005F0BFFA2C4A052153
:1019B000200005F031F800220521200005F0B5FADD
:1019C000284A0621200005F027F8002206212000E1
:1019D00005F0ABFA244A0821200005F01DF800228A
:1019E0000821200005F0A1FA204A0921200005F075
:1019F00013F800220921200005F097FA10BDC04617
:101A00004494001000000440049400102C94001032
:101A10004C940010549400105C9400103494001006
:101A200024940010FC930010F493001064940010B0
:101A30006C9400101C9400100001044014940010D9
:101A40000C940010749400103C940010E493001067
:101A500000020440EC93001084940010CC9300101A
:101A60007C9400108C940010D4930010DC93001030
:101A700030B585B001A8044B020032CB32C205F06C
:101A8000BFF805B030BDC0469494001010B5FFF704
:101A90008DFC002010BD70B505000E001C0004ABCD
:101AA00018888D421FD395421ED2521A91B2A0427D
:101AB0000CD2AE1BB6B2201A80B270434B08C018CD
:101AC00005F040FA80B2201A80B20DE0AD1BADB235
:101AD000001B80B268434B08C01805F033FA80B28F
:101AE000001980B200E0200070BD70B51D0004AB8D
:101AF0001B7888421DD990421DD2AB420CD2441AA9
:101B0000E4B2E81AC0B26043511AC9B205F02AFA29
:101B1000C0B2281AC0B20DE0441AE4B2581BC0B2D9
:101B20006043511AC9B205F01DFAC0B24019C0B2E3
:101B300000E0280070BD1800FCE7030008008B429D
:101B400000D21800704710B504000F2A13D81023D4
:101B50009B1A43434A439B1808331B0998B281429E
:101B60000AD1844202D9013080B205E0844203D216
:101B7000013880B200E0002010BD0000002803D032
:101B8000044B20225A607047024B802292035A6015
:101B9000F9E7C04600010440F0B5DE4657464E4620
:101BA0004546E0B587B0F84CE28C01922C23E05C0E
:101BB0005043642105F0C6F9F44B1880227EF44BA3
:101BC0001A70638BB722A65C9B1BF24A1380C0235A
:101BD000E25CF14B1A708423E75CF04B1F707A08CB
:101BE000EF4B1A707E23E35C002B04D18022A35CB0
:101BF000002B00D168E2E44C236B9B46E949181C9A
:101C000005F044FF05F042FDE74B1880636B9A46F0
:101C1000E449181C05F03AFF05F038FDE34B188045
:101C2000A36B9946DF49181C05F030FF05F02EFD27
:101C3000DF4B1880E36B9846DA49181C05F026FF45
:101C400005F024FDDB4B1880236CD6490293181C49
:101C500005F01CFF05F01AFDD74B1880626CD149C6
:101C60000392101C05F012FF05F010FDD34B1880F5
:101C7000E56DCC49281C05F009FF05F007FDD04BA8
:101C800018802823E05C06F00FFA041CCD49584662
:101C900005F0FCFE011C201C05F0F8FE05F0F6FC2A
:101CA000C94B1880C749504605F0F0FE011C201CA6
:101CB00005F0ECFE05F0EAFCC44B1880C14948462B
:101CC00005F0E4FE011C201C05F0E0FE05F0DEFC42
:101CD000BF4B1880BB49404605F0D8FE011C201CB4
:101CE00005F0D4FE05F0D2FCBA4B1880B549029835
:101CF00005F0CCFE011C201C05F0C8FE05F0C6FC5A
:101D0000B54B1880AF49039805F0C0FE011C201C9C
:101D100005F0BCFE05F0BAFCB04B1880A949281CA0
:101D200005F0B4FE011C201C05F0B0FE05F0AEFC71
:101D3000AB4B1880944C2823E35C9800C0184000FB
:101D400006F0B2F9A74905F0A1FE05F09FFCA64BED
:101D50001880B623E55CAB00ED186D00A34B1D8029
:101D6000A34B1D804F2D00D982E2A24B50221A8036
:101D7000854BD5229B5C002B00D17CE29E4BD43A54
:101D80001A709E4B01321A709D4B0B321A709D4B8C
:101D9000093A1A709C4B06321A709C4B043A1A701E
:101DA0009B4B01321A709B4B043A1A709A4B0632C5
:101DB0001A709A4B1A70744CB823E25C984B1A70E4
:101DC000984B1F70BD23E25C974B1A706923E25C4D
:101DD000964B1A708723E25C954B1A706823E25C7D
:101DE000944B1A706C23E25C934B1A70A27D934B58
:101DF0001A706423E25C924B1A70BC22A25C5A7087
:101E00007023E25C8F4B1A707123E25C8E4B1A7068
:101E10006D23E25C8D4B1A70E27D8D4B1A702B2383
:101E2000E05C019B5843642105F08CF8574B188007
:101E30002923E25C874B1A70874B1E80874B1E80DC
:101E400032003C3A864B1A80864B1E80227D864BA0
:101E50001A706223E25C854B1A707622A25C5A707B
:101E6000C923E25C824B1A70CE23E25C814B1A706C
:101E7000CF22A25C5A70804B1D705E4A12885A7045
:101E8000C523E25C7D4B1A706B23E25C7C4B1A70BD
:101E90008F23E25C7B4B1A709022A25C5A709122D5
:101EA000A25C9A709222A25CDA709322A25C1A71F0
:101EB0009422A25C5A718923E25C734B1A708A22C5
:101EC000A25C5A708B22A25C9A708C22A25CDA709F
:101ED0008D22A25C1A718E22A25C5A716B4B002279
:101EE0001A709621665A7608F6B25E700231655A0B
:101EF0006D08EDB29D700231605A4008C0B2D870D2
:101F00000231615A4908C9B219715A719E27E75DB9
:101F10009F719F27E75DDF71A027E75D1F72A127F3
:101F2000E75D5F729A72A227E75DDF72A327E75D24
:101F30001F73A427E75D5F73A527E75D9F73DA73BF
:101F4000A627E75D1F74A727E75D5F74A827E75DF5
:101F50009F74A927E75DDF741A755E759D75D87546
:101F600019765A76B121615C9976B221615CD97695
:101F7000B321615C1977B421615C59779A77AA2102
:101F8000615CD977AB2183E018060020423A00203B
:101F90000D3C0020F4060020AC3B0020AB390020B3
:101FA000AA3900200000C842C2390020C0390020F0
:101FB000BE390020BC390020BA390020B8390020D1
:101FC000B6390020000020419C3900209A390020B9
:101FD0009839002096390020943900209239002049
:101FE0009039002033338340A2390020A8390020E3
:101FF000A4390020A6390020B1390020B4390020CE
:10200000AD390020AE390020B3390020B0390020AE
:10201000AC390020B2390020B5390020AF3900209A
:10202000B13B0020D63B0020D93B00204C3C002097
:10203000B23B0020583C0020623C0020AF3B002017
:10204000803C0020FA3B0020FB3B0020FC3B0020B2
:10205000B03B0020073C0020523A0020543A0020B8
:10206000583A0020563A0020633C0020883C00206B
:10207000F53B0020603C0020C43B0020513C002088
:10208000523C0020C83B0020D03B0020183C0020E0
:10209000605C8B3958548C31605C8B3958548C316E
:1020A000605C8B39585401315A5401315A54013112
:1020B0005A5401315A5401315A5407B0F0BCBB464E
:1020C000B246A946A046F0BD7A4C236B9846181C30
:1020D00006F0FEFE0022784B06F080F805F0EEFADE
:1020E000764B1880636B0293181C06F0F1FE0022F9
:1020F000714B06F073F805F0E1FA714B1880A26B92
:1021000091467049101C05F0C1FC05F0BFFA6E4BFA
:102110001880A26C92466B49101C05F0B7FC05F0C4
:10212000B5FA6A4B1880E26C93466649101C05F0BC
:10213000ADFC05F0ABFA664B1880226D6149039245
:10214000101C05F0A3FC05F0A1FA624B1880616D2C
:102150000D1C5C490495281C05F098FC05F096FAC6
:102160005D4B1880A16D0D1C56490595281C05F086
:102170008DFC05F08BFA594B1880E56D5149281CF0
:1021800005F084FC05F082FA554B18802823E05CAA
:1021900005F08AFF041C5349404605F077FC011CFA
:1021A000201C05F073FC05F071FA4F4B18804D4967
:1021B000029805F06BFC011C201C05F067FC05F083
:1021C00065FA4A4B18804749484605F05FFC011CF8
:1021D000201C05F05BFC05F059FA454B188041497D
:1021E000504605F053FC011C201C05F04FFC05F087
:1021F0004DFA404B18803B49584605F047FC011CFE
:10220000201C05F043FC05F041FA3B4B1880354992
:10221000039805F03BFC011C201C05F037FC05F081
:1022200035FA364B18802F49049805F02FFC011C15
:10223000201C05F02BFC05F029FA314B18802949A8
:10224000059805F023FC011C201C05F01FFC05F07F
:102250001DFA2C4B18802349281C05F017FC011C83
:10226000201C05F013FC05F011FA274B188061E5DE
:10227000264B1D807CE5264B01221A70254B01322E
:102280001A70254B01321A70244B01321A70244BFC
:1022900001321A70234B01321A70234B01321A702B
:1022A000224B01321A70224B01321A70214B1A70E4
:1022B00081E5C0461806002000005940C6390020BC
:1022C000C43900200000C842C2390020C0390020B3
:1022D000BE390020BC390020BA390020B8390020AE
:1022E000B639002000002041A03900209E3900208E
:1022F0009C3900209A390020983900209639002016
:10230000943900209239002090390020A63900200D
:10231000B1390020B4390020AD390020AE39002099
:10232000B3390020B0390020AC390020B239002088
:10233000B5390020AF39002010B5CE4B1B88CE4AEE
:102340001288934200D041E3CB4C2380CB4B1B88B7
:102350006380CB4B1B78643B2371CA4B1B88637132
:102360001E236371C84B1B88E380C84B1B882381E5
:10237000C74B1B886381C74B1B88A381C64B1B8837
:10238000E381C64B1B882382C54B1B886382C54BE8
:102390001B882375C44B1B886375C44B1B88A375AE
:1023A000C34B1B88E375C34B1B882376C24B1B882A
:1023B0006383C24B1B88A383C14B1B88A377C14B8C
:1023C0001B88E377C04B1A882023E254BF4B1A883E
:1023D0002123E254BE4B1A882223E254BD4B1B88B2
:1023E000A384BD4B1B88E384BC4B1A882823E2548A
:1023F000BB4B1A882923E254BA4B1A882A23E25489
:10240000B94B1A882B23E254B84B1A882C23E25478
:10241000B74B188805F09AFEB64905F06DF92063B0
:10242000B54B188805F092FEB24905F065F9606376
:10243000B24B188805F08AFEAE4905F05DF9A0633D
:10244000AF4B188805F082FEAA4905F055F9E06304
:10245000AC4B188805F07AFEA64905F04DF92064CA
:10246000A94B188805F072FEA24905F045F9606491
:10247000A64B188805F06AFE9E4905F03DF9A06458
:10248000A34B188805F062FE9A4905F035F9E0641F
:10249000A04B188805F05AFE964905F02DF92065E5
:1024A0009D4B188805F052FE924905F025F96065AC
:1024B0009A4B188805F04AFE8E4905F01DF9A06573
:1024C000974B188805F042FE8A4905F015F9E0653A
:1024D000944B1A886023E252934B1A886223E25489
:1024E000924B1A886323E254914B1A886423E25476
:1024F000904B1A886523E2548F4B1A886623E25466
:102500008E4B1A886723E2548D4B1A886823E25455
:102510008C4B1A886923E2548B4B1A886A23E25445
:102520008A4B1A886B23E254894B1A886C23E25435
:10253000884B1A886D23E254874B1A886E23E25425
:10254000864B1A886F23E254854B1A887023E25415
:10255000844B1A887123E254834B1A887223E25405
:10256000824B1A887423E252814B1A887623E254F4
:10257000804B1A887723E2547F4B1A887823E254E1
:102580007E4B1A887923E2547D4B1A887A23E254D1
:102590007C4B1A887B23E2547B4B1A887C23E254C1
:1025A0007A4B1A887D23E254794B1A887E23E254B1
:1025B000784B1A887F23E254774B1A888023E254A1
:1025C000764B1A888123E254754B1A888223E25491
:1025D000744B1A888323E254734B1A888423E25481
:1025E000724B1A888523E254714B1A888623E25471
:1025F000704B1A888723E2546F4B1A888823E25461
:102600006E4B1A888923E2546D4B1A888A23E25450
:102610006C4B1A888B23E2546B4B1A888C23E25440
:102620006A4B1A888D23E254694B1A888E23E25430
:10263000684B1A888F23E254674B1A889023E25420
:10264000664B1A889123E254654B1A889223E25410
:10265000644B1A889323E254634B1A889423E25400
:10266000624B1A889623E252614B1A889823E252F1
:10267000C0E0C04600F000101806002002F0001074
:1026800004F0001006F0001008F000100AF000102E
:102690000CF000100EF0001010F0001012F00010FE
:1026A00014F0001016F0001018F000101AF00010CE
:1026B0001CF000101EF0001020F0001022F000109E
:1026C00024F0001026F0001028F000102AF000106E
:1026D0002CF000102EF0001030F0001032F000103E
:1026E00034F0001036F0001038F000103AF000100E
:1026F0003CF000100000C8423EF0001040F0001016
:1027000042F0001044F0001046F0001048F00010B5
:102710004AF000104CF000104EF0001050F0001085
:1027200052F0001054F0001056F0001058F0001055
:102730005AF000105CF000105EF0001060F0001025
:1027400062F0001064F0001066F0001068F00010F5
:102750006AF000106CF000106EF0001070F00010C5
:1027600072F0001074F0001076F0001078F0001095
:102770007AF000107CF000107EF0001080F0001065
:1027800082F0001084F0001086F0001088F0001035
:102790008AF000108CF000108EF0001090F0001005
:1027A00092F0001094F0001096F0001098F00010D5
:1027B0009AF000109CF000109EF00010A0F00010A5
:1027C000A2F00010A4F00010A6F00010A8F0001075
:1027D000AAF00010ACF00010AEF00010B0F0001045
:1027E000B2F00010B4F00010B6F00010B8F0001015
:1027F000BAF00010764B1A889A23E252754B1A8869
:102800009C23E252744B1A889E23E254734B1A881D
:102810009F23E254724B1A88A023E254714B1A880A
:10282000A123E254704B1A88A223E2546F4B1A88FA
:10283000A323E2546E4B1A88A423E2546D4B1A88EA
:10284000A523E2546C4B1A88A623E2546B4B1A88DA
:10285000A723E2546A4B1A88A823E254694B1A88CA
:10286000A923E254684B1A88AA23E254674B1A88BA
:10287000AB23E254664B1A88AC23E254654B1A88AA
:10288000AD23E254644B1A88AE23E254634B1A889A
:10289000AF23E254624B1A88B023E254614B1A888A
:1028A000B123E254604B1A88B223E2545F4B1A887A
:1028B000B323E2545E4B1A88B423E2545D4B1A886A
:1028C000B523E2545C4B1A88B623E2545B4B1A885A
:1028D000B723E2545A4B1A88B823E254594B1A884A
:1028E000B923E254584B1A88BA23E254574B1A883A
:1028F000BB23E254564B1A88BC23E254554B1A882A
:10290000BD23E254544B1A88BE23E254534B1A8819
:10291000BF23E254524B1A88C023E254514B1A8809
:10292000C123E254504B1A88C223E2544F4B1A88F9
:10293000C323E2544E4B1A88C423E2544D4B1A88E9
:10294000C523E2544C4B1A88C623E2544B4B1A88D9
:10295000C723E2544A4B1A88C823E254494B1A88C9
:10296000C923E254484B1A88CA23E254474B1A88B9
:10297000CB23E254464B1A88CC23E254454B1A88A9
:10298000CD23E254444B1A88CE23E254434B1A8899
:10299000CF23E254424B1A88D023E254414B1A8889
:1029A000D123E254404B1A88D223E2543F4B1A8879
:1029B000D323E2543E4B1A88D423E2543D4B1A8869
:1029C000D523E2543C4B1A88D623E25410BDC046AE
:1029D000BCF00010BEF00010C0F00010C2F00010FB
:1029E000C4F00010C6F00010C8F00010CAF00010CB
:1029F000CCF00010CEF00010D0F00010D2F000109B
:102A0000D4F00010D6F00010D8F00010DAF000106A
:102A1000DCF00010DEF00010E0F00010E2F000103A
:102A2000E4F00010E6F00010E8F00010EAF000100A
:102A3000ECF00010EEF00010F0F00010F2F00010DA
:102A4000F4F00010F6F00010F8F00010FAF00010AA
:102A5000FCF00010FEF0001000F1001002F1001078
:102A600004F1001006F1001008F100100AF1001046
:102A70000CF100100EF1001010F1001012F1001016
:102A800014F1001016F1001018F100101AF10010E6
:102A90001CF100101EF1001020F1001022F10010B6
:102AA00024F1001026F1001028F100102AF1001086
:102AB0002CF100102EF1001030F1001070B5164B03
:102AC0001B78002B14D0012B16D0144B1B78002B35
:102AD0000DD0134D2C88134B134A12785200D05A44
:102AE0006043642104F02EFA80B224182C8070BD5B
:102AF0000A4B01221A70E8E70C4B1B88002B03D10C
:102B0000064B01221A70E0E7074B1B782D2BDCD90E
:102B1000024B00221A70D8E7513C0020533C0020A1
:102B2000483A0020843A0020093C0020803B0020E5
:102B300010B5194B1B78002B0BD1184B1B88002BA1
:102B400007D1174B01221A70164B174A12781A70C8
:102B50001DE0134B1B78002B19D0124B1B78002B58
:102B600016D0104A013B13700E4B1B78642058435B
:102B70000D4B197804F0F6F983B26420C01A80B2C4
:102B80000A4C23885843642104F0ECF9208010BDDE
:102B9000034B00221A70E7E7093C00207A3A002034
:102BA0004E3C00204D3C00200C070020483A0020FD
:102BB00010B5164B1B78002B23D0154A1378591CDF
:102BC0001170DB0703D5134A138801331380114BAF
:102BD0001A88C8239B009A4202D90E4BA0221A8061
:102BE0000C4B1B88DB08DBB20B4A13700B4A1288B4
:102BF000534364205843A72104F0A4F9084B1880DC
:102C000010BD044BA0221A80FAE7C046683C0020A1
:102C1000573C00207E3A00200C3C0020483A00201F
:102C2000803A002010B50F4B1B889BB2002B15D0AB
:102C30000C4B198889B20C4B1889AB239B00584365
:102C400004F080F9094B1880094B1B78002B04D045
:102C5000064A99005B185B00138010BD034B0022ED
:102C60001A80F1E7C63D0020283A0020803B002072
:102C70008A3C002008490A889308D21A92B20A8036
:102C8000064B1B889B189BB20B80054A9B0857215B
:102C90004B4313807047C046443A0020B83D0020A3
:102CA000683A0020724B9B7C012B5ED0704B9B7C62
:102CB000022B5AD06E4B9B7C052B56D06C4B9B7CC9
:102CC000042B52D06B4B00221A706B4B1A880A2AC5
:102CD00007D9684B1B78002B4FD1654B9B7C032B8E
:102CE0004BD0664B00211970644B1B783C2B03D9E9
:102CF000634B1978634B1970634B1988634B1B88BE
:102D0000994203D05E4B19785E4B1970594B197874
:102D1000002915D05E4B1B880A3B9BB291204000D6
:102D2000834209D85B4B1888AF239B00984203D895
:102D3000594B1B78002B03D0584B1878514B187007
:102D4000574B1B88642B25D9564B1B78002B21D160
:102D500000291FD0544B1B78013BDBB2812B19D9C2
:102D600052490B7801330B7017E0514B1B78002B45
:102D7000A8D1404B01221A70A7E74E4B1B78002BBD
:102D800003D04D4B1B78002BABD13C490B78013362
:102D90000B70A9E7454B00211970444B1B78FA2BA7
:102DA00003D9464B1978374B1970454B1B78002BCC
:102DB00020D15A2A0CD92E4B9B7C072B08D02C4BA8
:102DC0009B7C062B04D03F490B8801330B8002E02B
:102DD0003C4B002119803C4B1B88002B02D0394B07
:102DE00000211980374B1B887D2B03D9374B19786D
:102DF000244B1970364B1B781E2B10D9092A0ED87C
:102E0000344A13780133DBB213700A2B0AD9324BE0
:102E10001A781C4B1A702F4B00221A7002E02D4BAF
:102E200000221A702D4AC5239B00D3589B109B0586
:102E30009B0D2B4A13800E4B5B7CDBB2294AD35C83
:102E4000002B14D0284B1B78132B10D8264A0133A3
:102E50001370234B1A8892080C4B79215B5C053365
:102E6000DBB29A4203D9214B1A78064B1A7070478D
:102E7000283A0020413C00207A3A0020063C0020FD
:102E8000AF390020593C002000F000101806002047
:102E9000523A0020463A0020AB3B0020B4390020D3
:102EA0004A3A0020503C0020093C0020BB3B002057
:102EB000AD3B0020AA3B0020F43B0020AD390020B0
:102EC0005B3C00206C3A0020803B0020B23900209F
:102ED000B53B0020053C0020AE3900200008034827
:102EE000AE3D0020603C00205D3C0020B339002056
:102EF00010B52A4B1B78002B11D0294B1A78C82308
:102F00009B0053439BB2274A10885843264B19898C
:102F10004B00C918C90104F015F8244B1880244B44
:102F20006A229B5C002B22D0204B1C88002C07D0EF
:102F3000204B1888210004F005F884B26400A4B284
:102F40001D4B1988002906D01A4B188803F0FAFF88
:102F500081B2490089B2194B1B78002B0FD08C42EB
:102F600006D2091B89B2164A13685B18136010BD9C
:102F7000611A89B2124A13685B1A1360F7E7002CD2
:102F8000F5D00F4B1B680F4A9342F0D90C4A1B1B1C
:102F90001360064B00221A80E9E7C046F03B002090
:102FA000083C0020C63D0020283A00207C3A002042
:102FB00018060020723A0020703A0020D83B00200A
:102FC000FC06002000E1F50510B50D4B18880D4BEF
:102FD0001B7858430A2103F0B5FF80B20A4B1880D2
:102FE0000A4B1A6880181860094903F0ABFF094BB7
:102FF0001860094B1B68C018084B186010BDC0460C
:10300000663A0020B53B0020623A0020A03B002039
:10301000907E00009C3B0020983B0020A43B0020B9
:1030200070B582B0204B1888C72807D91F4B1822CB
:103030001A701F4B0F3A1A7002B070BD1D4E3378D4
:103040008008C0B21825009532220A21FEF74DFDF6
:10305000164C20703378184A1078009546221421B7
:10306000FEF743FD2378834201D9104B1870134EAD
:1030700033780D4A10888008C0B2092500953222A5
:103080000A21FEF732FD0A4C207033780A4A107884
:10309000009546221421FEF728FD23788342CBD9E0
:1030A000034B1870C8E7C046803B0020070700208C
:1030B0000507002008070020093C00200607002023
:1030C00010B5334B1C78334B5B7B002B0ED0324B4F
:1030D0001B78002B0AD1314B1A88314B1978782391
:1030E0005B1A9A4202DD2C4B01221A70294B1B7D80
:1030F000002B3FD1284B1A78002A03D1294B1B788B
:10310000002B36D0254B1988274B1B784B43544353
:1031100063431B0A5801C01A8000C018C000234B2B
:10312000198803F00FFF84B22409FFF779FF204BC1
:103130001A78A24221D21F4B1A701F4B88229B5C27
:10314000002B0FD01D4B1B78002B19D0194B1B786F
:10315000144A1278934201D9124A1370154B114A3E
:1031600012781A70134B1B78002B0DD0144BFE22D3
:103170001A7010BDFFF7A2FCBCE70E4B1C70DCE719
:10318000084B00221A70EDE70D4B00221A70F0E791
:10319000153C0020283A0020093C0020483A002035
:1031A000B03B00204F3C00200D3C0020683A00203E
:1031B00000070020AA3B002018060020503C0020F9
:1031C000F43B002070B5334BCA229B5C002B52D1DC
:1031D000314B5B7B002B0ED0304B1B78002B0AD180
:1031E0002F4B1A882F4B197878235B1A9A4202DDED
:1031F0002A4B01221A70284B9B7B002B02D0274BB5
:1032000001221A70264B1B88002B03D0234A127808
:10321000002A03D1244A1278002A2BD0234A10789E
:1032200058433C2103F09EFE040085B2FFF7F8FEF0
:103230001F4B1A78AA4221D21E4B1A70154B8822B6
:103240009B5C002B0FD01C4B1B78002B19D0194B0B
:103250001B78154A1278934201D9134A1370154B03
:10326000114A12781A70134B1B78002B0DD0134B98
:10327000FE221A7070BDFFF75BFCA9E70D4B1C70B6
:10328000DCE7094B00221A70EDE70C4B00221A70A4
:10329000F0E7C04618060020283A0020093C00202C
:1032A000483A0020B03B00204F3C0020153C002055
:1032B00000070020AA3B0020503C0020F43B0020E7
:1032C00010B5194B1A78002A25D0184B1B789B187B
:1032D0009B10174A1380174B1B78A42B02D8154B51
:1032E000A5221A70FFF724FC124BA5221A70104B6E
:1032F0001C88114A12881A80FFF792FE0F4B1A7829
:10330000A24209D20E4B1A700D4B1B78002B06D02F
:103310000C4BFE221A7010BD094B1C70F4E7094BD0
:1033200000221A70F7E7C046093C0020153C002037
:10333000483A00200C0700204C3A002000070020EB
:10334000AA3B0020F43B002070B5384B5B7B002B80
:103350000ED0374B1B78002B0AD1364B1A88364BD0
:10336000197878235B1A9A4202DD314B01221A70D8
:103370002E4B9B7B002B02D02D4B01221A702D4B24
:103380001888002803D02A4B1B78002B03D12B4B25
:103390001B78002B3CD02A4B1B785B00FE21490098
:1033A000C91A89B2274B1B78002B05D0204B1B78FC
:1033B0008B422ED8C91A89B20A3189B24043081803
:1033C00003F0C0FD040085B2FFF72AFE1E4B1A78F9
:1033D000AA4220D21D4B1A701D4B88229B5C002BE9
:1033E0000FD01C4B1B78002B18D0184B1B78134A9E
:1033F0001278934201D9114A1370144B0F4A127874
:103400001A70124B1B78002B0CD0134BFE221A7033
:1034100070BD0021D0E70D4B1C70DDE7074B00228B
:103420001A70EEE70C4B00221A70F1E7283A0020E0
:10343000093C0020483A0020B03B00204F3C0020CF
:10344000153C0020F53B002000070020AA3B00208F
:1034500018060020503C0020F43B002070B5404B83
:10346000CA229B5C002B30D13E4B5B7B002B0ED0E5
:103470003D4B1B78002B0AD13C4B1A883C4B1978EA
:1034800078235B1A9A4202DD374B01221A70354BC2
:103490009B7B002B02D0344B01221A70324B1E78DA
:1034A000002E03D1334B1B78002B4DD02F4B1D88A2
:1034B000002D0DD0304B1A78304B9B18587968434B
:1034C0003C2103F04FFD84B203E0FFF731FBCBE773
:1034D0002C002B4B1B782B4A12786A4392B2734311
:1034E00053431B0A5801C01A8000C018C000264B65
:1034F000198803F027FD80B20009844200D204003D
:10350000FFF78EFD214B1A78A2421ED2204B1A7073
:10351000134B88229B5C002B0FD01E4B1B78002B7B
:1035200016D01B4B1B78134A1278934201D9114ACB
:103530001370174B0F4A12781A70154B1B78002B1B
:103540000AD0154BFE221A7070BD114B1C70DFE7BC
:10355000084B00221A70F0E70F4B00221A70F3E7B5
:1035600018060020283A0020093C0020483A002094
:10357000B03B00204F3C002002070020183C0020F8
:10358000153C00200D3C0020683A00200007002078
:10359000AA3B0020503C0020F43B002030B583B013
:1035A000904BCD229B5C002B00D1C7E08E4B5B7C07
:1035B000DBB28E4AD35C8E4A13708E4A11788E4AE3
:1035C0001278914200D195E08A490A70854A7821A3
:1035D000525C002A00D1B3E0824A1339525C002ABF
:1035E00000D18BE09BB2854A1288934200D993E0C8
:1035F000834B1B78002B00D18EE0824B1B78002B75
:1036000004D1814B1B78002B00D185E07A4B062238
:103610001A707E4B1B78002B18D07C4A0023137045
:103620007B4A13807B4A13807B4AFA214900118030
:103630007A4A13807A4A13807A4B7B4A12789B1815
:103640005B7E9A009B185B00784A1380774A6B4B2D
:1036500012881B88D21A93B210B26D4A10806E493C
:103660000A889A1812B20A80FA2189008A4200DC7C
:10367000ADE0694A1180674C2188591A8AB2674DBA
:10368000298020809B009BB251005218520092B2B8
:1036900061490020085E81000918C9109B185B1859
:1036A0001BB25F4A1380002B00DA97E05C4B0022CC
:1036B0009A5EFA239B009A4203DD594BFA2292004C
:1036C0001A805B4BF4221A705A4BAB3A1A705A4B61
:1036D0005A4A12781A70524B0020185E8010C0B2FD
:1036E000FE2300930023FA220021FEF7FEF9544B3B
:1036F000187023E0424A0121117067E79BB23F4AEC
:103700001288934208D83E4B1B78002B04D03D4BC7
:103710001B78002B00D079E7394B00221A703B4B05
:1037200001321A70344B02321A703E4B3E4A127804
:103730009B189A7A434B1A70FFF7C2FD03B030BD55
:10374000284AB521525C002A2FD0264A5039525CB3
:10375000002A17D09BB2294A12889342DCD8224B08
:103760005B7C002BD8D1264B1B78002BD4D0254B6B
:103770001B78002B00D049E7234B1B78002B00D08F
:1037800044E7C9E79BB21D4A12889342C4D8164B3E
:103790005B7C002BC0D11A4B1B78002BBCD0194B83
:1037A0001B78002B00D031E7B6E79BB2134A128892
:1037B0009342B1D80C4B5B7C002BADD1104B1B78E6
:1037C000002BA9D00F4B1B78002BA5D01EE7002A99
:1037D00000DB50E7104A002111804CE71300002263
:1037E0001A8063E718060020283A0020C43B002016
:1037F000C03B0020143C0020133C0020803B0020F4
:10380000BE3B0020093C0020BF3B0020BD3B002008
:10381000D6390020DA390020D8390020D4390020E8
:10382000D2390020183C0020020700207E3B0020F7
:103830000707002005070020AA3B00200007002002
:10384000F43B0020153C002030B583B03F4AC7232D
:103850009B00D3589B109B059B0D3D4A13801088FD
:103860003C4C7923E15C0133E25C4033E35CBB25F3
:10387000645D8008C0B20094FEF737F9364B1870CB
:1038800000282FD0354B1870354B5B7CDBB2354AA6
:10389000D35C012B2AD0032B30D0304B1878324B1D
:1038A0001B7800930023FF220021FEF71EF904007D
:1038B00005002E4B1B78834212D22D4B1888FE2810
:1038C0002BD92C4B30221A702B4B273A1A70264BCF
:1038D0001B78AB4237D2254A1370284BFE221A7050
:1038E00003B030BD1D4B00221A70CDE7244B1B786E
:1038F000002BD2D1194B00221A70CEE7154BAE2205
:103900009A5C1B4B1B889A42C7D21D4B1B78002B1D
:10391000C3D1124B00221A70BFE7C0B2302300930C
:10392000C433FF222821FEF7E0F8124B1870104B29
:103930001878092300934033FF222821FEF7D5F899
:103940000D4B1870C3E7094B1C70C6E7000803480D
:10395000AE3D0020180600205C3C0020AD3B00205E
:10396000283A0020603C002000070020AA3B0020ED
:10397000803B00200707002005070020F43B0020C3
:10398000093C002010B582B01B4B1C88A4B2C82291
:103990001A4B18885623FF330093194B52002821E5
:1039A000FEF779F8174B1880002C0BD02100164831
:1039B00003F0C8FAC0B2154B1870782805D97822E0
:1039C0001A7002E0114B00221A70114B00221A806B
:1039D0000E4B1C78002C0AD00E4B1878001B0028C8
:1039E00005DD0002210003F0BDFA094B1880094BE8
:1039F0001C7002B010BDC046BC3D0020803B0020C2
:103A0000AE100000F606002035DF0000093C002063
:103A1000DC3900200A3C002070B582B0114B9B7A43
:103A2000002B01D102B070BD0E4A937A023BDBB28B
:103A3000990059184900947A0234E4B2A300E418BA
:103A40006400094E3378094D288800220092220034
:103A5000FEF721F830702B88A342E3D9044B0022F3
:103A60001A70DFE7283A0020AA3B0020803B0020A4
:103A7000F43B002010B56E4A13780133DBB21370AB
:103A80006C490A780132D2B20A706B490978002970
:103A90001BD0032B19D9664B00211970664B197086
:103AA000664B1B78002B1AD0012A18D9614B0022D3
:103AB0001A70624B1A70624BDB7CDBB2082B00D9A8
:103AC000B0E09B005F4AD3589F460029E8D1022B03
:103AD000E6D9574B1970584B01311970E0E7002BAC
:103AE000E9D1012AE7D9534B00221A70534B013216
:103AF0001A70E0E7544B1878FEF740F810BD524BAF
:103B00001878002804D04C4B1878FEF737F8F5E702
:103B1000FEF734F8F2E74C4B1878002803D04B4BF3
:103B20001B78002B02D1FEF729F8E7E7434B187802
:103B3000FEF724F8E2E7444B1878002803D0434B03
:103B40001B78002B06D100280AD03B4B1878FEF7D3
:103B500015F8D3E73D4B1878C0B2FEF70FF8CDE764
:103B6000FEF70CF8CAE7384B1878002803D0374B1B
:103B70001B78002B06D1002809D02F4B1878FDF7B1
:103B8000FDFFBBE72D4B1878FDF7F8FFB6E7FDF713
:103B9000F5FFB3E72D4B1B78002B05D02B4B187886
:103BA000C0B2FDF7EBFFA9E7274B1878FDF7E6FF5A
:103BB000A4E7264B1B78002B04D0204B1878FDF788
:103BC000DDFF9BE7204B1878FDF7D8FF96E71F4BEA
:103BD0001B78002B08D11C4B187800280AD0164BF4
:103BE0001878FDF7CBFF89E7184B1878C0B2FDF7BE
:103BF000C5FF83E7FDF7C2FF80E7144B1B78002B5E
:103C000008D1114B1878002809D00B4B1878FDF714
:103C1000B5FF73E7094B1878FDF7B0FF6EE7FDF7C6
:103C2000ADFF6BE7084B1878FDF7A8FF66E7C046C5
:103C3000CF3B0020BA3B0020CE3B0020B93B002008
:103C4000283A0020A0940010003C0020F43D002001
:103C500010B5754B9B7B002B1DD0744B1B78143318
:103C6000734A1370724B1B78822B02D9704B8222DD
:103C70001A70704BF4221A706F4BAB3A1A706F4B7C
:103C800019782820FDF759FF6D4B18706D4B684A65
:103C900012781A7010BD654B18786B4B18706B4B0F
:103CA0001B78002B0ED16A4A1288002A0AD1604B79
:103CB00032321A70674B1A70674B00221A80674BBA
:103CC0001A80CFE7002B6FD0614B1B88644A1288A3
:103CD000934219D2634B04221A70634A1378591C19
:103CE0001170042BBED9524B1A785A4B1B789A424A
:103CF00006D24F4B01321A705B4B00221A70B1E7AB
:103D0000544A01331370F7E7544909888B4217D29C
:103D10009B1A9B00DBB2534A137053490A78501C1C
:103D2000087093429ED2424B1B784A4A12789342C3
:103D300002D23F4A013313704B4B00221A7091E7B5
:103D40004A4A1288934216D2D31A9B00DBB2454AE4
:103D5000137045490A78501C0870934200D381E7DC
:103D6000334B1B78282B02D9314A013B13703E4B51
:103D700000221A7076E73B4B04221A703A4A1378F5
:103D8000591C1170042B00D86CE7294B1B78282B89
:103D900006D9274A013B13702E4A1378013B137052
:103DA000314B00221A705DE72E4B0A221A702E4A00
:103DB0001378591C11700A2B00D853E72C4B198823
:103DC000002925D02A2903D9194A1378013B1370F9
:103DD000214A13885C1C1480092B15D91D4A1378BD
:103DE0000A3313701A4B1B88584303F0BBF880B298
:103DF0001A4B18800200143A194B1A8014301B4BCE
:103E00001880124B01221A70174B00221A7029E7F2
:103E1000104B1B78772BF7D805490A7801320A70C6
:103E20000C4A01331370EFE7283A0020153C0020BC
:103E30000E070020070700200507002000070020CC
:103E4000AA3B0020F43B0020853C0020843C00205D
:103E50007A3A00200D0700207C3B00207A3B0020AE
:103E6000783B0020793C00207E3C0020763B0020FF
:103E7000803B002010B5BD4BC2221A70BC4B793A72
:103E80001A70BC4B00221A70BB4B1A70BB4BBE326F
:103E90009B5C002B24D0BA4B1B88F52B1DD9B94A4B
:103EA0001178C9B2B84A1278D2B2914215D2B74A43
:103EB0001278002A11D10B33DBB2B54A13705B09BB
:103EC000B44A13701378DBB2052B02D91300052214
:103ED0001A70B14B01221A7002E0AF4B00221A7027
:103EE000AE4B1B78002B20D1AD4B9B7CDBB2082B5B
:103EF0003BD89B00AB4AD3589F46FFF7E1F834E02C
:103F0000FFF760F931E0FFF7DBF92EE0FFF71CFA6D
:103F10002BE0FFF7A3FA28E0FFF740FB25E0FFF7CF
:103F200097FE22E0FEF744FE1FE09F4B1A786423C1
:103F300053431B11DBB28F4A13708F2B02D913002E
:103F40008F221A70994B1B78002B02D0894B0022CC
:103F50001A70974B1B78884A1370FD2B02D91300F7
:103F6000FE221A70934B32221A70844BCE229B5C35
:103F7000002B07D08A4B5B7CDBB28F4AD35C002BD3
:103F800000D0BAE0FFF748FD8C4AC1239B00D3580C
:103F90009BB29B08DBB28A4A12789A4203D2894BC1
:103FA000894A12781A70754BD3229B5C002B0ED075
:103FB000844A1278002A00D1A2E0844801780131B5
:103FC0000170824909788B4201D8784B1A706D4B89
:103FD0001A789300D21853017D4A13607D4A116804
:103FE0005B1813607C490A68013A0A60002A07D10D
:103FF0009B097A4A136040220A60764B00221A60BD
:10400000774B1B78002B33D1764B1B78002B2FD0AE
:10401000664B1B78DBB2744A1278934228D0634B0C
:104020001B78DBB2714A1278934221D05F4B1B7828
:10403000DBB2654A127893421AD05C4B1B78DBB234
:104040006B4A1278934213D06A4B1B78002B0FD027
:10405000584B1B78002B0BD0674B1B78002B07D1DC
:10406000524B1B78002B4FD04D4B9B7B002B4BD1E1
:10407000624BC2221A70624BB93A1A70424B00224C
:104080001A70604B1A70574B1B78002B00D1BFE0A1
:10409000464A1278D2B2544909788A4227D0434A14
:1040A0001278D2B2514909788A4220D03F4A127818
:1040B000D2B2454909788A4219D03C4A1278D2B224
:1040C0004B4909788A4212D04B4A1278002A0ED105
:1040D0002B4A1288002A00D09AE0264A1278002A39
:1040E00000D095E0484A1278002A00D090E03D4B7D
:1040F00000221A7002F098FB10BDFFF7A5FB41E704
:104100003249002008705CE7404B1B788F2B02D9A6
:104110003E4B8F221A703D4B1B7819003231284AD2
:104120001170144A1278934201D2124A13700F4B45
:104130001B78172B02D80D4B18221A700C4B1B78CA
:10414000082B02D80A4B09221A70084B1A782B4BFD
:104150001A70074B1A782A4B1A70064B1A780A4BBA
:104160001A70054B1A78274B1A708CE70707002046
:1041700005070020AA3B0020F43B00201806002081
:104180007A3A0020E83D0020F53D0020AD3B0020BC
:10419000F83B0020FD3D0020F93D00205B3C002065
:1041A000283A0020C494001004070020593C002045
:1041B00009070020153C0020603C00200004034853
:1041C00001070020F63B0020AC390020F73B00201F
:1041D000943B00208C3B0020F8060020903B002000
:1041E000F43D00200A070020AE390020AF3900203E
:1041F000B339002002070020EB3D00201E070020FD
:104200001D070020F63D0020FE3D00200007002095
:10421000002B00D070E70D4B1B889F2B00D96BE75C
:104220000B4B1B78002B00D166E70A4B1B78002B49
:1042300000D061E7084B01221A70084B1D321A703A
:10424000074B00221A7002F02BFB55E77A3A002048
:10425000AA3B0020F43D00200A070020FE3D00207C
:10426000FC3D002030B583B06C4B7E229B5C002B64
:1042700009D16A4B48329B5C002B04D1674B0F324B
:104280009B5C002B06D0664B1B78452B02D8644BF9
:1042900046221A70634BD88864235843572102F092
:1042A00051FE80B2604B1880604B1B78642B02D9A2
:1042B0005E4B64221A70594C607D18230093AA3318
:1042C00064220021FDF711FC594B18702923E05C92
:1042D000203B0093403364220021FDF706FC554B40
:1042E0001870CB23E05CAD3B0093E13364220021E6
:1042F000FDF7FBFB504B1870237E504A1370504A59
:104300001278002A39D0454BC2229A5C4B4B5A7026
:10431000424BC2229A5C4B4B1A70424B197C4A4A60
:104320001170597D5171597C5170197D9171997D30
:10433000D172597B5172997B9173997C434A117068
:10434000D97C434A1170DB7B9B00424A138013885F
:104350009BB2002B0BD01388FA208000C01A3E4B72
:104360001B885843642102F0EDFD3C4B18602B4B39
:104370009A8B3B4B1A80012311E0304A5370C7E7F8
:104380005A1E37495200545A220224482125405DC2
:104390006043121A120A580042520133DBB2772BE3
:1043A000EED91E4BBD229B5C002B02D02D4BBC3A9C
:1043B0001A701C4B18796423584380B20009C0B2AC
:1043C000294B1870154CA28C284B5A4312092849C6
:1043D0000A607422A25A53431B094B60BB23584303
:1043E00080B28F2102F0AEFD80B2224B18801B8874
:1043F0009BB2BB2B02D91F4BBB221A80074BB722A3
:104400009A5C1D490A80C021585C1C4908705B8B6E
:104410009B1A1B4A138003B030BDC046180600200B
:10442000D63B0020283A002012070020B03B002095
:1044300008070020060700200C070020103C002081
:10444000633C00200B3C0020E03B0020F13B0020BF
:10445000EF3B00205C3A0020423A0020983B0020CD
:10446000843A0020D83B0020A83B0020A086010011
:10447000843B0020F20600205A3A0020AC3B00208A
:10448000F4060020030043434B4343431B0C8022AC
:104490005200521A5043C0188030000A704770B55D
:1044A000040000290CD000280BDB80235B0098421D
:1044B00000DD1800002906DBFFF7E4FF002C0ADB13
:1044C00070BD4042F1E7494280256D00281AFFF790
:1044D000D9FF281AF2E74042F2E70000F8B57F4B17
:1044E0001B78772B27D97E4B7E4A12881A807E4B09
:1044F00000229B5E192B07DD7C4B00221A807C4B2F
:104500001A807C4B01321A707B4B1A887B4B1A80C5
:104510007A4B1B88724A1288934237D99B1A9800AB
:10452000C0184001764B198802F01CFD84B2A02C03
:104530002DD9A0242BE0704B188880B2714C2188B3
:104540000422FDF700FB2080644A13780133DBB2BC
:104550001370782B06D0694B1880614B614A128822
:104560001A80D5E7684B1B78002BF4D0674B1B886B
:10457000984207D9664B1B88984203D2654B0022AC
:104580001A70E8E7634B01221A70E4E70024624BDB
:104590001D78002D1CD1614B00221A80604B002138
:1045A0001970604B1A70604B1A70604B28221A7099
:1045B0005F4B1B88A34236D2E31A9BB23B2B35D903
:1045C0004F2B35D9632B35D9812B35D9102253E0A8
:1045D00029009620000102F0C5FC80B2534B1A78E6
:1045E0001300824205D2272A03D8504B01321A7099
:1045F000DEE78342DCD9282ADAD9494B1A78002A27
:10460000D6D048490B784B48C75C444E3088C01B15
:1046100030804348013A02700133DBB20B703F2215
:1046200013400B70C4E71B1B9BB2C7E7012223E0BA
:10463000022221E004221FE008221DE039490B7804
:104640003C48C75C354E3088C01B30800133DBB23C
:104650000B703F2003400B7030490B88E3180B8030
:1046600031490B783348C4540133DBB20B703F201F
:1046700003400B70013AD2B2002A09D0284B1B78B4
:104680002A4909788B42D9D0254901330B70E3E7D9
:10469000224B1888224B197802F064FC80B2A028C3
:1046A00000D9A020224B1880234B1B78143B5900C3
:1046B000C9188900FFF7F3FE83B2204A1380204A0D
:1046C0001380204A1380204A1078584380B26843F0
:1046D000602102F037FC1D4B1880F8BD413A0020E4
:1046E000523A00205A3A0020DC390020B23D002026
:1046F000B63D0020E93D0020B43D0020463A0020B0
:10470000F4060020543A0020633C0020583A002070
:10471000563A0020AB3B0020093C0020243A002000
:10472000203A0020213A0020223A0020F006002002
:10473000503A0020E0390020AC3B0020483A0020ED
:104740004C3A00204A3A00200D3C0020783A0020E4
:104750001E4A8A235B00D3581B070AD48E235B00B2
:10476000D358DBB21A4A1278D1B2002A02D00129FA
:1047700015D07047592B05D0164B00221A70144BD8
:104780001A70F6E7134A1178C9B2134843541378E4
:104790000133DBB213700E4B01221A70E9E70D4AA8
:1047A0001178C9B20C48435413780133DBB213704B
:1047B0001378DBB2062BDCD9130000221A70044BED
:1047C0001A70064B01321A70D3E7C0460002004847
:1047D000563C00204B3C0020443C0020123C002072
:1047E00070B5BC4B1B78002B01D100F096FCBA4B86
:1047F00043221A70B94B00221A70B94A137801216A
:104800008B431370B74B7E229B5C002B04D1B54BBE
:1048100002329B5C002B6ED0B34B1A78072A0CD85F
:104820009300B24AD3589F46AD4A137801210B43F7
:10483000DBB21370A84B00225A70AA4B7F229B5CFC
:10484000002B00D195E0AA4B19881A78A24BDA7098
:10485000A84B1B88994200D387E09B1ADBB29E4A83
:10486000137102F073F989235B00984200D3B2E020
:10487000A14B00221A70A04B1B78502B03D99F4BE1
:104880001A78964B1A709E4B1B78DBB29D4A1278B1
:10489000934200D1A5E09A4B1B78002B00D1A2E0F7
:1048A0008E4B1B78002B00D09DE0954B1B78DBB224
:1048B0008A4A137097E0884B00225A70BDE7864BF6
:1048C00002225A70B9E7844B06225A70B5E7824B30
:1048D00009225A70B1E7804B0C225A70ADE77E4B2B
:1048E0000C225A70A9E77C4B0C225A70864B1A781E
:1048F0007A4B1A70A1E77C4B1A78092A9DD893004D
:10490000824AD3589F46764A137801210B43DBB283
:104910001370714B00225A708FE76F4B00225A7050
:104920008BE76D4B02225A7087E76B4B04225A705B
:1049300083E7694B06225A707FE7674B08225A705B
:104940007BE7654B0A225A7077E7634B0C225A705B
:1049500073E7614B0C225A706FE75F4B0C225A7061
:10496000694B1A785D4B1A7067E75B4B00221A712E
:1049700077E75C4BC6229B5C002B09D1594BD522B3
:104980009B5C002B16D1544B4622DA701A7168E7F3
:104990005F4B1B78504CE3705E4D29885E4B188846
:1049A000B93AFDF7D0F82880642102F0CBFAC0B202
:1049B000207156E7484C0023E370564D2988564B2A
:1049C0001888CD3AFDF7BFF82880642102F0BAFAC2
:1049D000C0B2207145E702F0B9F81138464B1870A3
:1049E00049E73E4B1A703D4B1B78002B00D1A3E0EA
:1049F0004A4B1B78002B00D09EE03A4B80229B5CF8
:104A0000002B45D0354B1B78DBB2454A12789342D8
:104A10001AD0324B1B78DBB23B4A127893421CD03F
:104A20002E4B1B78DBB23F4A127893421ED02B4BA1
:104A30001B78DBB23C4A1278934220D0274B1B787C
:104A4000DBB2254A5371B9E0384B1B78002B00D1FB
:104A5000B4E0214B08225A71B0E0344B1B78002B94
:104A600000D1ABE01C4B06225A71A7E02F4B1B78FC
:104A7000002B00D1A2E0184B03225A719EE02B4B71
:104A80001B78002B00D199E0134B04225A7195E05A
:104A9000144B7E229B5A002B04D1124B57329B5C45
:104AA000002B11D0224B1B78002B03D1214B9B7B79
:104AB000002B03D0084B00225A717FE0074B1B7874
:104AC000DBB2054A537179E0044B1B78DBB2024A32
:104AD000537173E0F03B0020703C0020DA3B002073
:104AE0008B3C002018060020B63B0020E894001004
:104AF000543A0020463A00205A3C0020B0390020A9
:104B0000593C0020AE390020B13900200895001032
:104B1000B53B0020603A0020623A0020DB3B0020D9
:104B2000B5390020B3390020AC390020CE3B00203D
:104B3000B43B0020283A0020C14B1B78002B3AD010
:104B4000C04BD5229B5C002B07D0BF4B1B78022BA0
:104B500020D0032B22D0012B18D0BC4B1B78002B6C
:104B600024D1B94B1B78002B20D0B94B1B7C002BD8
:104B700003D1B84B1B78002B18D1B74B1B78002BF7
:104B800010D0AF4B1A78B54B5A7117E0AC4BD43AF2
:104B90001A70E2E7AA4B02221A70DEE7A84B042241
:104BA0001A70DAE7AD4B00225A7107E0A44B1A786D
:104BB000AA4B5A7102E0A94B00225A71A84B1B78EC
:104BC000002B00D161E2A74B1B78002B00D178E0CD
:104BD000A54B1B78002B57D0A44CA54DA54B18888E
:104BE0000A2102F0AFF90100288889B202F0AAF97F
:104BF00020809E4B1B88002B00D141E2D9B2974AFE
:104C000091711B0AD3718F4B82229B5C002B05D0C4
:104C1000994A137804210B43DBB21370894B81222C
:104C20009B5C002B23D0954B1B88002B00D14DE2C1
:104C3000914A1378802149420B43DBB21370904BA9
:104C40001B78DBB20A2B00D846E28B4A137840214E
:104C50000B43DBB21370884B1B783F22934300D188
:104C600040E2854A137804210B43DBB21370824B78
:104C70001A781F210A4079498A701A783B210A4024
:104C80001A700022002339E27E4B1B78002B0BD0D8
:104C90007D4B19788B00C9184900744C744B1888E7
:104CA00002F050F92080A4E7784B1B78002BA0D0AD
:104CB0006E4C6F4A764B1088198802F043F92080B9
:104CC00097E7744B1B78002B39D0734A1278002A6F
:104CD00035D1012B05D0022B1ED0644B00221A8047
:104CE00087E7584BB9229B5C012B09D06B4B198885
:104CF00089B25E4C5E4B188802F024F9208078E778
:104D0000664B1B889A009B185900594B188802F073
:104D100019F9564B18806CE74A4B2B22985C604B74
:104D20001B885843642102F00DF981B25D4B198054
:104D30004E4C4F4B188802F005F9208059E75A4B2A
:104D40001A785A4B1B789A4223D83F490978002990
:104D50001FD040480078012803D9554C2478002CF6
:104D600017D00139534B8A0052189B181B5C002B3B
:104D70000AD0012B00D03CE73C4C3D4B1888692100
:104D800002F0E0F8208034E7384B394A12881A8064
:104D90002FE79A4207D82C490978002903D02D49DA
:104DA0000978042911D09A421BD8274B1B78002B75
:104DB00017D0414B1B786421594305312C4B18887F
:104DC00002F0D0F8294B188013E73C4B1B78603178
:104DD00059430531264B188802F0C4F8234B18803C
:104DE00007E7374B374A12789B5C0C2B00D900E75A
:104DF0009B00354AD3589F46124BB9229B5C012B2E
:104E000007D01A4C1A4B1888002102F09BF820801A
:104E1000EFE6174B1888002102F094F8134B188026
:104E2000E7E6084BB9229B5C012B4FD01B4B19883E
:104E300089B20E4C0E4B188802F084F82080D8E618
:104E4000DB3B002018060020043C0020023C002030
:104E5000283A002002070020CE3B0020703C0020B2
:104E6000D83B0020643C0020683C0020703A0020C1
:104E7000723A0020803A00208B3C00207C3A0020CF
:104E8000FE3D0020F23B00206B3C0020F33B002065
:104E9000743B0020D93B0020553C00205C3A0020A8
:104EA000663A0020643A0020013C0020D63B0020F6
:104EB000D73B0020E03B0020F13B0020EF3B0020EF
:104EC000C83B0020C63B0020309500109A4B1B8841
:104ED0009A009B185900994B188802F033F8984BA8
:104EE000188086E6974B2B22985C974B1B8858437B
:104EF000642102F037F881B2944B1980904C8F4BAB
:104F0000188802F01FF8208073E68C4B1888904BAD
:104F1000197802F027F88A4B18806AE68D4C2188B0
:104F20008D4B18880D22FCF70EFE2080854BB92290
:104F30009B5C012B0BD0824C804D0A2102F002F8C1
:104F40000100288889B201F0FDFF208051E67C4CE9
:104F50007A4B1B880100180001F0F4FF208048E61E
:104F60007E4B1988764C754B1888890801F0EAFF4A
:104F700020803EE6724C714A794B1088198801F006
:104F8000E1FF208035E66F4BB9229B5C012B0AD0F4
:104F9000744B1978632912D9684B188801F0E2FF25
:104FA000674B188025E66F4B1B789900C91849009C
:104FB000624B188801F0C6FF614B188019E68B0020
:104FC000591849005D4B188801F0BCFF5C4B1880F4
:104FD0000FE6654C2188654B18880D22FCF7B3FD60
:104FE0002080574C554D0A2101F0ACFF0100288864
:104FF00089B201F0A7FF2080FBE5514C4F4A5C4B82
:105000001088198801F09EFF2080F2E54D4BB922EF
:105010009B5C012B0CD0574B18680A2101F092FFC2
:1050200081B2474C454B188801F08CFF2080E0E5A9
:10503000504B1988424C414B188801F083FF208067
:10504000D7E53F4C3D4A4C4B1088198801F07AFF58
:105050002080CEE5494B187864235843FE2101F0A7
:1050600081FF83B2013B9BB2454A13809900C91866
:105070004900324B188801F065FF314B1880B8E5C4
:10508000404B07229A71DA71BDE53F4B1888002822
:1050900017D02C4BD1229B5C002B0CD000010A2195
:1050A00001F060FF80B2394B1880C2B2354B9A7163
:1050B000000AD871A7E5C2B2324B9A71000AD871C2
:1050C000A1E5304B07229A71DA719CE5304A1378DA
:1050D0007F210B401370B2E52D4A137840218B439A
:1050E0001370B8E52A4A137804218B431370BEE588
:1050F0002449C95C8A18D2B20133DBB2072BF7D935
:10510000204B1A72234A8A235B00D3581B0E7F223E
:105110001A401E239B1A092B00D870BD0023082BB0
:10512000FBD8184AD25CD2B21A48C021490042507A
:105130000133DBB2F3E7C0465C3A0020723A00204C
:10514000703A002018060020663A0020643A0020D9
:10515000B53B0020603A0020623A0020AE3D0020BE
:10516000463A0020093C0020763A0020783A002098
:10517000483A0020A43B00207A3A0020FE3D00205F
:10518000743A0020703C00207C3A00206E3A0020E7
:105190008B3C002000020048F8B504000F00150009
:1051A0001E000B4B18888300C0184000094B2822B2
:1051B000995C01F0D7FE0004000C801B7843A91B0A
:1051C000083101F0CFFE80B2001980B2F8BDC046B0
:1051D0006A3A00201806002010B5484B7E229B5CDE
:1051E000002B04D1454B02329B5C002B37D0444B43
:1051F0001A78072A03D89300424AD3589F460020C2
:1052000079E0414B1B88414A1288FA210120FFF7BF
:10521000C3FF70E03D4B1B883D4A1288FA21FA20FB
:10522000FFF7BAFF67E03A4B1B883A4A1288FA2028
:10523000FA214000FFF7B0FF5DE0364B1B88364A8D
:105240001288FA213548FFF7A7FF54E0FA208000C2
:1052500051E0FA2080004EE0FA2080004BE0284B1D
:105260001A78092A03D893002D4AD3589F46002064
:1052700041E0254B1B88254A1288A7210120FFF712
:105280008BFF38E0214B1B88214A1288A721A720D9
:10529000FFF782FF2FE01E4B1B881E4A1288A720B3
:1052A000A7214000FFF778FF25E01A4B1B881A4A18
:1052B0001288FA20A7214000FFF76EFF1BE0164B73
:1052C0001B88184A1288A7211748FFF765FF12E0CC
:1052D000144B1B88154A1288A7211548FFF75CFF5D
:1052E00009E0FA20800006E0FA20800003E0FA20BE
:1052F000800000E00A2010BD0A20FCE7180600200C
:10530000B63B002064950010B6390020B839002063
:10531000BA390020BC390020BE390020EE0200005E
:1053200084950010C03900209B020000C239002083
:105330004203000070B5B24B1888642101F002FEF0
:1053400084B2B04D298804222000FCF7FCFB2880A1
:10535000AD4B1B78DBB2012B38D9AC4B00221A7055
:10536000AB4C218889B2AB4B18880322FCF7EBFBCE
:105370002080A94B7E229B5C002B05D1A64B0232DC
:105380009B5C002B00D172E0A14B1B889BB2A34A0F
:105390001288934225D9A24B07221A70A14B1B7881
:1053A000002B00D1D1E0A04B1A789D4B19788A428E
:1053B00000D1C3E09D480378013303709B4B1B78F9
:1053C000632B00D8BEE0984B1970C2E08F4A117869
:1053D0004B1CDBB21370142BC2D98E4B1C80117086
:1053E000BEE78B4B1B889BB2914A1288934203D92C
:1053F0008B4B06221A70D1E7854B1B889BB28D4AD6
:105400001288934203D9864B05221A70C6E7804B57
:105410001B889BB2884A1288934203D9804B04228E
:105420001A70BBE77A4B1B889BB2844A128893425E
:1054300003D97B4B03221A70B0E7754B1B889BB2D4
:105440007F4A1288934203D9754B02221A70A5E74E
:105450006F4B1B889BB27B4A1288934203D9704BD7
:1054600001221A709AE76E4B00221A7096E7684B79
:105470001B889BB2744A1288934203D9684B092255
:105480001A708BE7624B1B889BB2704A128893425A
:1054900003D9634B08221A7080E75D4B1B889BB2CF
:1054A0005E4A1288934203D95D4B07221A7075E752
:1054B000574B1B889BB25E4A1288934203D9584BC4
:1054C00006221A706AE7524B1B889BB2594A12880F
:1054D000934203D9524B05221A705FE74C4B1B884D
:1054E0009BB2554A1288934203D94D4B04221A703D
:1054F00054E7474B1B889BB2504A1288934203D90A
:10550000474B03221A7049E7414B1B889BB24C4A18
:105510001288934203D9424B02221A703EE73C4B59
:105520001B889BB2474A1288934203D93C4B012205
:105530001A7033E73A4B00221A702FE73B4B0020DA
:1055400018703BE7364B1A7003E0374B344A127839
:105550001A703F4BDB7D022B4CD03E4B1B68642006
:1055600058433D4B198801F0EDFC80B2FA239B00B3
:10557000984200D91800FA239B001B1A9BB2374AA5
:105580001380284B1B78002B00D195E0344B1B78FF
:10559000002B00D090E0204B84229A5C314B1B788A
:1055A0009A4200D883E00133DBB22E490B702E49BA
:1055B000097800290FD1134908882C4909888842A5
:1055C00009D92649FA20800008802949002008606E
:1055D0002549013008702449097800296CD1520806
:1055E000934269D31A4BDB7D002B43D01E4B012223
:1055F0001A7061E0FFF7F0FD184B1880C1E7C04654
:10560000683A0020663A0020E83D00200B070020A1
:105610006A3A00205E3A0020180600209C390020DB
:10562000B63B0020F03B0020B83B0020B73B0020F9
:105630009A390020983900209639002094390020AA
:105640009239002090390020A03900209E39002096
:10565000283A0020A43B0020423A00205C3A002077
:10566000553C0020543C0020EA3D0020A239002097
:10567000983B0020FFF7B0FD02009632124B1B88CA
:105680009BB29A4204DB104B1B889633984213DD81
:105690000D4B18801B88FA208000C01A0B4B1B880A
:1056A0005843642101F04EFC094B186004E0094B9B
:1056B00001221A70084B1A70034B1B889B08DBB23F
:1056C000064AD37370BDC0465C3A0020423A0020BF
:1056D000983B0020553C0020EA3D0020283A00205D
:1056E00070B5AC4A137801331370AB4A13780133A9
:1056F0001370AA4A137801331370A94A137801333F
:105700001370A84B1B78002B17D170BDA649C95C3C
:105710008A18D2B20133DBB2052BF7D9A24B9B79A1
:10572000DBB293420CD09F4B00221A709A4B1B782D
:10573000032BEAD99D4B1A70E7E700220023EBE721
:10574000954B00201870984B5A7801210A409849CF
:105750000A70597820242140964C21705B782121D1
:105760008B4395490870102B23D00ED8042B00D101
:10577000A2E0082B03D18D4B042119701CE0022BF1
:105780001AD18A4B0221197016E0402B00D18FE00C
:10579000802B11D1894BD6215B5C012B00D18FE08E
:1057A000022B09D1814B04211970834B03391970E5
:1057B00002E07E4B00211970814B1B78002B03D136
:1057C000804B7A49097819707D4B01211970002AA4
:1057D00000D16AE17C4B1B78002B00D024E17B4B8D
:1057E0001B7C002B04D1714B1B78002B00D01BE1DC
:1057F000774B1B78002B00D016E1764B1B78002BE3
:1058000002D1744B01221A70734B01221A70734B30
:105810001B78002B26D1714B1A70714A1378013313
:10582000DBB21370032B02D9130001221A706D4BE7
:1058300000221A705D4B1B78012B5DD0042B76D0B3
:10584000002B43D0664B1B780133DBB2664A1370E2
:10585000664A1370664B01221A70504B00221A7070
:105860004F4B1A704D4B1B78624A11788B420BD20A
:105870004E4B1A78534B1B789A4200D1D7E05E4BBF
:105880001B78002B00D0D2E04F4B01221A70524AF5
:1058900000231370514A1370514A1370404A11701B
:1058A000464A8421515C3D4A11704F4A1370BEE054
:1058B0003E4B012119707FE73C4B032119707BE7B8
:1058C0003A4BD53919703C4B197075E7444B1B782E
:1058D000022B09D0032BB5D1484B1A783B4B5A7594
:1058E0005A7D474B5A71ADE7464B1A78374B1A74BD
:1058F0001A7C434B1A70A5E7394B1B78022B0ED04C
:10590000032B9FD1404B1A78304B1A75197D3C4AB6
:1059100091713E49097899759B7DD37292E73C4B12
:105920001A782A4B5A745A7C354B5A708AE72C4B9A
:105930001B78022B15D0032B84D1364B1B78092BF7
:105940001FD0354B1A78214BDA74DA7C334B1A703E
:10595000334B1B780A2B00D074E7224B01221A70BC
:1059600070E72C4B1B78092B00D06BE72A4B1A7879
:10597000164BDA74DA7C294B1A701A4B01221A7012
:1059800060E7284B1A78114B5A735A7B1C4B5A729A
:10599000DEE7C0467C3C0020403A0020FD3B002072
:1059A000013C0020123C0020443C00200207002063
:1059B000F93B00207A3C0020AE3B00201806002076
:1059C000F03B002003070020FE3B0020283A002087
:1059D000643C0020553C0020FF3B0020023C00209E
:1059E000043C0020D73B0020DB3B0020DC3B0020B8
:1059F000D83B0020D63B0020B33B0020B23B002028
:105A0000E03B00204C3C0020523C0020623C002047
:105A1000583C0020FA3B0020FC3B0020EF3B0020DC
:105A2000FB3B0020AF3B0020B24B01221A70B24B6F
:105A30001B78B24A127893420DD2B14B1978B14B10
:105A40001B78994214D0B04B1B78002B10D1AF4B70
:105A50001B78002B0CD1AE4900230B70AD490B70A5
:105A6000A5490A70AC4A1370AC4A1370AC4A137063
:105A7000A94B1B78002B00D191E0AA4B00221A7091
:105A8000A94B1B7C002B03D0A84B1B78002B04D008
:105A90009B4B1B78002B00D081E0994B1A78042A8D
:105AA0007AD89300A24AD3589F46924B1B78002B7A
:105AB0000ED1974B1B78002BB9D0954A0023137059
:105AC0009C4A13708C4A1370934B01221A70AEE7F4
:105AD000884B00221A70AAE78E4B1B78022B10D03D
:105AE000032B1BD0012B57D18F4A117C924B19707D
:105AF000137C59424B41DBB21374127C8F4B1A70EA
:105B00004AE0894A517D8E4B1970537D59424B4171
:105B1000DBB25375527D894B5A713DE000F0A8FD10
:105B20003AE07C4B1B78022B10D0032B1BD0012BAF
:105B300032D17D4A517C834B1970537C59424B4181
:105B4000DBB25374527C7D4B5A7025E0764A117D4E
:105B50007D4B1970137D59424B41DBB21375127D99
:105B6000764B9A7118E0704A917D784B1970937D4D
:105B700059424B41DBB29375927D704BDA720BE068
:105B8000644B1B78022B29D0032B2BD0012B21D067
:105B9000654B9A7C6E4B1A70604B01221A706D4BEC
:105BA0007E229B5A002B05D16A4B57329B5C002BFF
:105BB00000D1E2E0564B1B78002B00D184E04E4B25
:105BC0001A78654B1B789A4200D2D6E0544B0022DB
:105BD0001A70D2E0544B01229A74D9E7524B022238
:105BE0009A74D5E7504B03229A74D1E7494B1B783E
:105BF000022B0CD0032B0ED0012B04D04A4B9A7CE5
:105C0000534B1A70C8E7484B04229A74F6E7464B88
:105C100005229A74F2E7444B06229A74EEE73D4B54
:105C20001B78022B1CD0032B37D0012B04D03E4B0A
:105C3000DA7C4A4B1A70AFE73B4BD97C484A11706B
:105C4000DB7CDBB2434A6D21525C934202D0364B7F
:105C5000DA74ECE73F4B6F229A5C334BDA74E6E779
:105C6000404B1B78092B08D03A4B70229A5C2E4B84
:105C7000DA74DA7C3A4B1A70D9E72B4A517B3A4BEB
:105C80001970537B59424B41DBB25373527B2B4B00
:105C90005A72244B01221A70C9E7344B1B780A2B25
:105CA00005D02C4B71229A5C1F4BDA74BFE71E4A59
:105CB000937B59424B41DBB29373927B1F4B9A7398
:105CC000184B01221A70B2E70B4B1978214B842232
:105CD0009A5C214B1B78D31A99424BDB914249D2F3
:105CE0000C4B1B78002B45D00D4B214A12781A70B3
:105CF00043E0C046FE3B0020013C0020D63B002094
:105D00000207002003070020643C0020B33B002072
:105D1000023C0020043C0020033C0020D83B002033
:105D2000DB3B0020D73B0020283A0020AE3B002080
:105D3000AC950010FF3B00204C3C0020E03B0020D5
:105D4000B23B0020583C0020523C0020623C002026
:105D5000F13B002018060020AA390020EF3B00206C
:105D6000FC3B0020FA3B0020AF3B0020FB3B002027
:105D7000DC3B0020C74B00221A70C74B00221A7070
:105D8000C64B9B7C082B2BD0C54B1B78002B04D01B
:105D9000C44A1278002A00D10EE1002B00D121E183
:105DA000C04A1278002A00D11CE1BC4A127C002AA9
:105DB00000D117E1BC4A1278002A00D012E1BB4B97
:105DC00001321A70BA4B1A70B44B9B7C082B03D06B
:105DD000B24B9A7CB74B1A70B04B08229A7404E20B
:105DE000B14B1B78002B17D0B24B1A78AB4B9A747F
:105DF000AE4A00231370AE4A1370AF4A1370AF4A15
:105E00001370AF4A1370AF4A1370AF4A1370AF4BA1
:105E1000AF4A12781A70E8E1AC4B00221A70AA4B14
:105E200001321A70A54B1B78002B4AD0A54B1A7073
:105E30009B4B1B78002B02D1A64A01211170002B2D
:105E400007D0A44B1B78002B03D0A34B01221A7060
:105E500016E0A14B1B78002B0FD0A04B1C78200123
:105E6000201840008D4D297BC9B201F07BF89C4B76
:105E700018702C73974B00221A70974B00221A70DF
:105E8000984A13780133DBB21370974A8421525C2D
:105E90005208934207D3934B00221A70934A137807
:105EA00059424B411370914B1B78002B04D0904BFF
:105EB0008B4A12781A7098E1784B1A7B8C4B1A70C7
:105EC00093E17D4B1B78002B4ED08A4B1D888A4B6B
:105ED0001C882A1B93009B181801C01A642101F02A
:105EE00041F881B2611889B2091B844801F03AF87F
:105EF000C0B26A4B1873824A222111700122DA72F1
:105F000000229A757F4A13780133DBB21370764A08
:105F10006231525C5208934207D37A4B00221A70C6
:105F2000794A137859424B411370774B1B78002BF9
:105F300017D0764B1C805A4B1B78002B02D1654A38
:105F400001211170002B00D14FE1624B1B78002B17
:105F500000D14AE15F4B00221A70584B01321A708F
:105F600043E16A4B1D80E6E7514B1B78002B00D1C3
:105F70003BE1534B01221A70654B1B88634A138027
:105F80005C4A1288934201D95A4A1380444B1A78CA
:105F9000002A02D14F4B01211970002A00D124E1BF
:105FA0004C4B1B78002B00D11FE14A4B00221A708A
:105FB000414B01321A7018E1FFF70EF9554B18806A
:105FC0001B88FA208000C01A534B1B885843642159
:105FD00000F0B8FF514B1860514B01221A703A4B38
:105FE0001A7002E12D4A927C062A1BD02E4A1278A2
:105FF000002A00D1F4E03C498820095C002922D025
:10600000002B1DD027490978002919D04549097866
:10601000002915D144490978002911D0434987380E
:10602000087010E0002B07D01E4B1B78002B03D00C
:106030003F4B053A1A70D8E03D4B00221A70D4E06D
:106040003A490020087028496420095C002900D1E1
:10605000CBE0002B70D0134B1B78002B6CD0334B54
:106060001B78002B68D10D4B5B7CDBB23149CB5CDC
:10607000002B61D02B4B1B78002B00D0B5E0294BB7
:1060800001221A70054B997C0A4A117007229A74F2
:10609000ABE0C046DB3B0020033C0020283A002058
:1060A0007A3C0020553C002002070020643C002080
:1060B000653C0020403C0020663C0020673C0020FE
:1060C000F33B0020F23B0020D83B0020013C0020A5
:1060D000D63B00207B3C0020683C00200C3C00208C
:1060E0000B3C0020693C0020180600206A3C002080
:1060F0006B3C00204E3A0020543A0020A80F0000CC
:10610000103C00206C3C00206D3C0020743B0020C3
:10611000463A00205C3A0020423A0020983B00209A
:10612000D93B0020823C0020FE3B0020503C002058
:10613000BF3B0020803C0020B54BAF215B5C002BB7
:1061400040D0B34B4A395B5C002B3BD0B14B1B7842
:10615000002B4AD0B04B1B78002B07D1AE4B6439D3
:106160001970AE4B00211970AD4B1A70A84BB021BD
:10617000595CAA4B1B78994218D9A94B1B789A42B3
:106180000BD0A84B1A78A84B9A74A24A002313701C
:10619000A14A1370A54A137027E0A54B1B78002B6A
:1061A000EFD1A14B5B7C002B1FD0EAE79D4B1A7807
:1061B0009D4B9A74974A00231370974A13709B4A19
:1061C000137012E0934B1B78002B03D0954B1A7879
:1061D000954B9A748F4B00221A70944B1A7004E0FE
:1061E000944B00221A708B4B1A708F4B9A7C013A99
:1061F000914B1C78914B91008A189B18185D904B1D
:106200001870834BD6229B5C002B0CD08D4B1B78D7
:10621000002B08D07E4B063A9B5C5843642100F06B
:1062200091FE874B1870804B5B7D002B6FD0864BA7
:106230001B78002B60D0854B1B78002B5CD1844BE6
:106240001B78002B58D0834B1B78002B54D1824BEA
:106250001B78002B13D1804A013313707F4A1370CF
:106260007F4A13707F4B00221A707F4B1A707F4B4E
:106270001C707F4B1B78002B28D07E4A13707A4B02
:106280001B787B4AD25C002A02D1764A0021117029
:106290005A1C794909788A4224DA724A1178754A77
:1062A0001278043A914203DA704A127894422ED05E
:1062B0006C4A002111700133DBB26B4A13706C4AD7
:1062C000D35C002B08D06B4A137020E0504B842223
:1062D0009A5C684B1A70D2E74D4B84229A5C654BEE
:1062E0001A7014E05F4B1A78624B1B789A420ED3F7
:1062F0005A4B00221A700AE0574B1B78002B06D02D
:10630000554A00231370554A1370554A1370574B62
:106310001C703F4B63229B5C002B0AD04A4B1B78BE
:10632000002B03D1554B1B78002B4BD0544B012233
:106330001A70544BDB78DBB2534A1370344AB921DC
:10634000525C002A42D0514AE12189004B4313801C
:106350002F4B83229B5C002B09D04A4B5B79DBB22D
:106360004B4A13705278934201D2494A53702E4BD4
:106370009B7C072B03D02F4B1B78002B2BD0244B5F
:10638000AE22985C0A2100F0DDFDC0B2264B987267
:10639000254C627C3F4B9200D0583F4B198800F04F
:1063A000D1FDC1B23D4B19703D4B1878FBF7C5FBD1
:1063B0003C4B1870A37DDBB23B4AD25C3B4B1A705E
:1063C000FFF7B1F92E4B00221A70B2E72F4A384975
:1063D0004B431380BCE7144B5B7CDBB2354AD35C88
:1063E000022B06D0104A537CDBB22949CB5C937256
:1063F000CEE7314B1B78002BF4D0054BAE22985CD6
:106400000A2100F09FFDC0B2074B9872C0E7C0465A
:1064100018060020823C00207D3C00207C3C0020AF
:10642000833C0020403C0020283A0020843C00208F
:10643000F43D0020503C002002070020183C0020C2
:10644000153C0020AE3B0020FE3B0020043C002019
:10645000553C0020643C0020B33B0020B43B0020AE
:10646000D83B0020013C0020C63B00200307002051
:10647000D03B0020D63B0020B13B0020FF3B00205A
:10648000003C0020443C0020083C0020723A0020E0
:10649000883C0020843B0020683A0020A93B002073
:1064A000A83B002000070020103C00200D3C0020ED
:1064B0009B050000603C00205C3C002010B52D4B8B
:1064C0001B889BB22C4A934204D82A4B1B889BB250
:1064D000092B26D8294B00221A80FCF7A3FBFDF7D5
:1064E00051FAFCF7C7FB264B187800010A2100F08F
:1064F00029FD244B1870FDF7F1FF234B1A78511C2E
:10650000197003231340022B30D013D8002B18D05E
:10651000012B18D1FDF7AEFAFCF7EAFCFCF754FDAD
:1065200011E0144B198889B2184800F00BFD134B89
:106530001880D2E7032B06D1FCF7B4FBFEF7FAFE76
:1065400001E0FFF7CDF8FDF795FC114B9978114A62
:106550001180D978104A11801979104A118059791F
:106560000F4A11809A790F4B1A8010BDFEF738F947
:10657000E9E7C0461A070020FFEF00007A3A002042
:10658000E83D0020B53B0020BC3B002090D003003C
:10659000EC3D0020C8390020CA390020CC39002049
:1065A000CE390020D039002030B589B0202200211A
:1065B000684602F03DFE2A4B1A682A4B9A4240D0A8
:1065C000294B284A1A60294A2221515C19712A2133
:1065D000515C880009184800D8806021515A1981FF
:1065E0006221515C99720021D972107E1873907DDE
:1065F00058739973D9736931515C19746821515C6E
:1066000059746E21515C99746D21515CD9746B2160
:10661000515C19758721515C5975C321515CD9753D
:106620006C21525C9A7569460A00180038C838C255
:1066300038C838C200230222094800F0ABF909B07B
:1066400030BD6C4602222100054800F0D7F906490A
:106650000B00220031CA31C313CA13C3EFE7C0468F
:1066600000FF0010DDAA0000283A002018060020D4
:1066700030B589B06C4620220021200002F0D8FD00
:10668000074B2200190029C929C229C929C20023A0
:1066900002222100034800F07DF909B030BDC04658
:1066A000283A002000FF001010B54A4B00E0013BE3
:1066B000002BFCD1FBF7EAF9002800D001BEA02195
:1066C000C9050B68444803408022920013430B60C5
:1066D00042490B6803401A430A60FAF797FD00F03D
:1066E0002BFAFBF729FEFBF757FAFFF75DFFFDF7E3
:1066F000B9FD3B4B1B7942333A4A13703A4B0024A5
:106700001C7000F0B1F8394B1C70394B01229A60B3
:10671000384B00E0013B002BFCD1374BC6229200E6
:106720009858364908408021C90101439950802179
:10673000890419609858324908408021C9030143EF
:1067400099508022D2041A60A023DB050F22DA6060
:106750002C4A116B80235B000B431363254B00E035
:10676000013B002BFCD1284B5A6801210A435A6097
:10677000264A9A60264B1B6F9BB2264A1380264AF4
:1067800013800FE0FDF7E4FF13E024490B680133A9
:106790000B60214B1A801F4B1B88D31A9BB22049D8
:1067A0008B4211D8184B194A9A601E4B1B78002B4C
:1067B000E8D0154B154A9A60154B1A6F92B2164BDA
:1067C0001B889342E7D9E0E7124B1A80FFF776FE69
:1067D000E8E7C046804F1200FFFCFFFF00000448BE
:1067E00018060020A83D00208A3C00200F0700204A
:1067F00000000150C0D4010000E100E0FF00FFFFF5
:10680000FFFF00FF0000014000000240FECAADABE8
:10681000000204488C3C00208E3C0020903C00206C
:106820006A180000123C00200323034A1361034A44
:106830001361034A136170470001005000020050C9
:106840000003005010B5054B1A78054B1A70054B24
:1068500000221A70FFF7E8FF10BDC046AC390020D7
:10686000593C00200A07002070B500F046F80A499C
:106870004A6A920801231340084A13704D6A0224A1
:106880002C40234313704C6AA400042121400B4385
:10689000137000F036F870BD00010440A43D0020E4
:1068A00010B5FFF7E1FF0D4B196B802252000A4330
:1068B0001A631A6B0A490A401A6309E0074B196BFD
:1068C000802252000A431A631A6B05490A401A6370
:1068D000044B9B68DB07F1D510BDC04600000140AA
:1068E000FFFEFFFF000100500230800803D0013896
:1068F000FDD1C046C046C0467047EFF3108072B667
:10690000704780F310887047064B1A89802149012F
:106910000A431A8148215A5A8020000102435A52E0
:106920007047C0460000054010B50D4A13681B0AA9
:10693000FF210B400B480360126811400A4A1160A6
:10694000002B08D01B02C918084800F0FBFA4000D1
:10695000074B186010BD064B064A1A60FAE7C0469E
:10696000000301400C3E0020083E0020000024F4FB
:10697000FC3F00200048E80110B5FFF7C5FFFBF71A
:1069800077F810BD70470000014B188880B270473F
:1069900000000540F8B504000D001700164A918864
:1069A000FF20814391809188C02080010143918024
:1069B000002B06D0938861210B439BB29380002665
:1069C0000BE00D4A9388A1210B439BB29380F6E71D
:1069D000FFF7DAFFC007FBD40136BE4206D2002320
:1069E000032BF5D802CD02C40133F9E7024A93889C
:1069F000FF218B439380F8BD0000054030B5002592
:106A000005E010C810C10133032BFAD901359542B6
:106A100001D20023F8E730BDF0B5C64600B58B08BB
:106A2000984604339B001E5803250D40ED00F827BF
:106A3000AF40BE431E50436F4F000326BE40B343DA
:106A40004367CB0810339B001F5807260E40B60043
:106A50000424B440A7431F501F585478B440260064
:106A60003E431E500D4B98420ED00023D356002BB0
:106A700010DB434604339B0019581278AA400A439E
:106A80001A5080BCB846F0BD036E01268E40B34359
:106A90000366EAE753688B404360EAE7000204407C
:106AA00010B50C000DE0800808490B68084A134037
:106AB00002021343074A13430B60044B1B685B003D
:106AC000FBD4A3008342EED310BDC04600030140B7
:106AD000FF000FC00000F03F30B50C000EE00122B7
