:020000041000EA
:10100000480500201910001000000000A310001077
:1010100000040100000100001249134A134B00F0C4
:101020001AF8134880471349134A144B00F013F879
:101030001349144A144B00F00EF81449144A0020C6
:10104000521A02DD043A8850FCDC124880471248EC
:101050008047124880479B1A03DD043BC858D05094
:10106000FBDC704758A100100C0000204401002058
:101070009170001090A20010480500205806002032
:10108000A0A3001058060020680F0020680F002061
:1010900014180020A11000109D990010896C0010F8
:1010A0007047FEE70269C3689A4204D88068C01A94
:1010B000801801387047D01A0138FBE7F8B5CE46E2
:1010C000474680B504000E001700C568836899463E
:1010D0005B1B9846934209D94068401908F082FC8E
:1010E000ED19E560C0BCB946B046F8BD406840198E
:1010F0001A0008F077FC4B46ED1AED1960683100D4
:1011000041442A0008F06EFCE560EBE7F8B5CE46F6
:10111000474680B5060088461700C46800239946F4
:1011200014E0B2681B1BD218013A14E07068001971
:101130002A00414608F056FCA944A8447F1B6419C4
:10114000B368A34211D0F460002F10D033699C42E1
:10115000E7D21A1B013AB3681B1B934200D9130054
:101160003D009F42E2D91D00E0E70024EBE748463E
:10117000C0BCB946B046F8BD10B5134CA82200213A
:10118000200008F003FC0323236163610F4AA2617E
:101190000F4BE3618023DB0023620023A3626362C1
:1011A000E36222660B4A62661022A2662367E36648
:1011B000636706E00F22D21A0749895C024AD154BC
:1011C00001330F2BF6D910BD680F0020049A0010D0
:1011D0002010002010100020109A0010F8B5030015
:1011E0000F001600421C5400A418E400174AA4186B
:1011F0004000C018C0001218D56A012D12D0022D6F
:101200001DD0002D02D000252800F8BD2000FFF7DA
:1012100049FF8642F8D8320039002000FFF74EFF20
:101220003500F1E72000FFF73DFF3500864200D989
:1012300005002A0039002000FFF740FFE4E73200F4
:101240002000FFF763FF0500DEE7C046680F0020BF
:10125000F8B504000D001600094B1B78532B0CD178
:10126000EFF31087012181F310883200290020005C
:10127000FFF7B4FF87F31088F8BDFFF77DFFEFE7B6
:10128000680F002070B505000C00080008F0B3FBE3
:10129000020021002800FFF7DBFF70BDF0B583B02E
:1012A00004000F0016000193184B1B78532B26D116
:1012B000022C27D8EFF31083012181F31088190045
:1012C000002C10D0114A601C43001D18ED00AF50D7
:1012D00053195E6063001B19DB00D318019A1A6270
:1012E00000229A625A62094B62001219D2009B18BE
:1012F000089ADA6281F31088002003B0F0BDFFF78E
:101300003BFFD5E701204042F7E7C046680F0020C9
:1013100010B5FFF731FF10BD10B504008268531CF3
:101320004068834205D820688154A360E368013394
:10133000E360A26863689A4200D010BD216820690A
:10134000FFF786FFA368984203D001235B42E36066
:10135000F3E70023A360F0E7F8B5DE4657464E46B4
:101360004546E0B581460D0014001E000A9B9A46D2
:101370000B9F08000123984605E0210006F068F95C
:1013800001239C46E044A042F7D2B04500D2B046CB
:1013900001231A003A4093463B421AD15346002B90
:1013A00017D0BF0703D5002E19D0202700E0202733
:1013B0005346002B0DD0C2450BD901235B429C46FE
:1013C000E24439004846FFF7A7FF4B46DB68002B95
:1013D000EEDA4B46DB68002B2EDB012703E03027DB
:1013E000E6E7013E6743012EFBD83900280006F0EE
:1013F0002FF98442F6D900E007003900280006F0F2
:1014000027F906003900280006F042F90D00164BB6
:10141000995D4846FFF780FF4B46DB68002B05DBF4
:101420002100380006F014F9A742E5D25B46002BF4
:1014300002D05346002B05D1F0BCBB46B246A946AC
:10144000A046F8BD5346002BF6D0C245F4D901237F
:101450005B429C46E24420214846FFF75DFF4B4635
:10146000DB68002BEEDAE7E7B09A0010F0B5D6465D
:101470004F4680B583B00600894615009A460A9FFC
:10148000CB17C8185840012403E0290006F0F0F8F3
:1014900001348542F9DD544500D25446002F06D070
:1014A0004B46002B02DB0B9B5B0700D5013F0B9BE0
:1014B0009B0702D55346002B04D00B9BDB0701D4BE
:1014C000002F18D1F368002B10DB4B46002B1FDBDD
:1014D0000B9B5B0723D4F368002B07DB03230B9ADA
:1014E0001340022B20D0F368002B2FDA03B0C0BCCE
:1014F000BA46B146F0BD002FE4D0A742E2D9013F81
:1015000020213000FFF708FFF368002BF3DAD9E75A
:101510005B4299462D213000FFF7FEFEDBE72B21D1
:101520003000FFF7F9FED6E75346002BDBD1002F42
:10153000D9D0002FD7D0A742D5D9013F30213000D4
:10154000FFF7EAFEF368002BF3DACCE70B9B01937D
:10155000009753462A0049463000FFF7FDFEC5E7D5
:10156000F0B599B006000C00150003AB13934023AF
:101570001493002315931790169366E00020012220
:101580000AE0002206E0302B03D102231843013485
:1015900000E00022002A13D023782D2B08D0F2D8A7
:1015A000232B09D02B2BECD1042318430134F1E772
:1015B000012318430134EDE7082318430134E9E718
:1015C000002722781300303BDBB2092B07D8013407
:1015D000BB00DB195B009B18303B1F00F1E72E2A94
:1015E00002D00023227812E00134002306E0013407
:1015F0009A00D218520052181300303B21780A008A
:10160000303AD2B2092AF2D9ECE7013422786C2AB6
:10161000FBD0682AF9D0252A62D012D3782A10D8B4
:10162000582A0ED3583AD1B220290AD88A0038490C
:101630008A5897462B681A1D2A60197813A8FFF755
:101640006BFE0134169B002B4FDB217801340029FF
:101650004BD0252992D013A8FFF75EFEF2E72A6847
:10166000111D29601168019000970A2213A8FFF745
:10167000FDFEE6E72A68111D2960116801900097B8
:101680000A2213A8FFF768FEDBE72A68111D29600C
:10169000116801900097102213A8FFF75DFED0E7B4
:1016A0002B681A1D2A601F68002F0AD0397801376D
:1016B0000029C6D013A8FFF72FFE169B002BF5DAE2
:1016C000BFE7144FF2E72B681A1D2A601968002340
:1016D000019308330093102213A8FFF73DFEB0E7F3
:1016E000252113A8FFF718FEABE7169B002B06DD9C
:1016F000159A002A06D1159A169B9B1816931698D0
:1017000019B0F0BD03A93000FFF7A2FDF3E7C04612
:101710002C9A0010249A00100EB400B582B003ABCE
:1017200002CB019301AAFFF71BFF02B008BC03B074
:10173000184710B500F008F800F06CFB10BD10B5AC
:10174000FFF7F7FF10BD0000F0B5DE4657464E46E6
:101750004546E0B585B0FE4C0021200005F006FEB0
:1017600080235B009846E360FA49FB4F380005F0A0
:1017700017FE02239B46FB6304267E638021C90477
:10178000200005F005FE07232361F44A01213800FB
:1017900005F047FEF24A0221380005F042FEF14A08
:1017A0000321380005F03DFE01220121380005F03B
:1017B0001DFE01220221380005F066FEA4257B599A
:1017C00033437B5101218A46E16000263E67F96080
:1017D000E549E64F380005F0FAFDE54B7B638021D3
:1017E0000905200005F0D4FD70212161E14A6F391F
:1017F000380005F016FEE04A0221380005F011FE1F
:10180000DE4A0321380005F00CFE0121380005F006
:1018100001FE5A46E2603E675246FA60D849D94F07
:10182000380005F0BDFDA023FB63D74B7B6380210F
:101830008905200005F0ACFDE022D2012261D34AE7
:101840000121380005F0EDFDD14A0221380005F0F4
:10185000E8FDD04A0321380005F0E3FD0821E160EE
:101860003E675446FC60A024E4050021200005F0FA
:1018700037FE4746E760C849C84F380005F042FECA
:10188000D2239B009846FB637E64D223DB009946FB
:101890001900380005F0A1FE8021C904200005F0E0
:1018A0004CFE07222261BE4A0121380005F062FE8B
:1018B000BC4A0221380005F05DFEBB4A0321380016
:1018C00005F058FE01220121380005F03FFE534685
:1018D000E360B649380005F0A7FE3E67B449B54F4E
:1018E000380005F00FFE4346FB637E64494638002E
:1018F00005F073FE80210905200005F01EFE702012
:101900002061AD4A0121380005F034FEAB4A0221C6
:10191000380005F02FFEAA4A0321380005F02AFE00
:1019200001220121380005F011FE5846E060A5496A
:10193000380005F079FE3E67A349A44F380005F052
:10194000E1FD4046F8637E644946380005F045FEF7
:1019500080214905200005F0F0FDE023DB00236134
:101960009B4A0121380005F005FE9A4A0221380001
:1019700005F000FE984A0321380005F0FBFD012226
:101980000121380005F0E2FD0423E36093493800AB
:1019900005F04AFE3E679249924F380005F0B2FDCD
:1019A0004046F86378644946380005F016FE802109
:1019B0008905200005F0C1FDE020C00120618A4AB0
:1019C0000121380005F0D6FD884A0221380005F0D3
:1019D000D1FD874A0321380005F0CCFD0122012109
:1019E000380005F0B3FD03220021380005F0F8FDB2
:1019F00002220121380005F0F3FD00220421380005
:101A000005F0EEFD01220321380005F0E9FD7B59C8
:101A1000504603437B517B59584603437B517B59C6
:101A2000102213437B517B5908210B437B51E1600A
:101A30003E67704C200005F03BFE23680321894679
:101A40008B4323606C49200005F03EFE6B4920006B
:101A500005F044FE00220221200005F04AFE636FDB
:101A60000422134363676649664C0022200005F098
:101A70004BFEE36950229343E361E369493A9343A0
:101A80004A461343E361E26B5F4B1A4080231B011C
:101A90001343E3635D4B2361953D029501960096E8
:101AA0003A2300220021200005F02EFF1F230522EB
:101AB0000021200005F058FF1F23052220212000CF
:101AC00005F03CFF236CAB435A4613432364504D4F
:101AD0006E602A791F231A432A714E4A9046566037
:101AE00012791A4341460A71AE602A7A1A432A7261
:101AF0008E600A7A13430B724749484F380005F04D
:101B000081FF474C2900200005F0E8FF454D414684
:101B1000280005F0E3FF0321200006F01FF8032151
:101B2000280006F01BF88023FA583F490A40FA5073
:101B3000FA583E490A40FA50380005F07FFF8123E9
:101B40009B00FA5849468A43FA50FA5851466FE0CA
:101B5000000004482C9B001000010448349B001036
:101B6000389B00103C9B0010489B0010000204486A
:101B7000FFFF0000509B0010549B0010589B00106A
:101B8000F09B001000040448FF040000F89B0010C4
:101B9000FC9B0010009C00105C9B0010000100509A
:101BA000789B00107C9B0010809B00106C9B0010A9
:101BB000849B001000020050A09B0010A49B00100A
:101BC000A89B0010949B0010AC9B001000030050D9
:101BD000C89B0010CC9B0010D09B0010BC9B001039
:101BE000D49B001000040050E49B0010E89B001000
:101BF000EC9B001000000150449B0010409B001023
:101C0000C09A001000020048FFE0FFFF21810000A1
:101C10002014002034140020209C001000000348F1
:101C20000004034800080348FFFFFEFFFFFFFDFF1D
:101C30000A43FA506749380005F0A4FF82277F0065
:101C4000E3594A469343E351E35952461343E35160
:101C50000021200006F02AF80121200006F026F8D5
:101C60000221200006F022F80321200006F01EF8D1
:101C70005949200005F0E2FF584B1B6898460023A5
:101C800000224146200005F0FDFE002301224146CE
:101C9000200005F0F7FE524B1B68984601230022F6
:101CA0004146200005F0EEFE0123012241462000BE
:101CB00005F0E8FE02220021200005F057FFAF23C7
:101CC0009B009B46F0235B035A46A350A9239B002D
:101CD000E6501C3BE650793BFF3B98461A00E93B37
:101CE000A350053BA350013BA3503E4A01212000D5
:101CF00005F0E6FF3C4A0221200005F0E1FF3B4AE7
:101D00000721200005F0DCFFEB594A469343EB51D5
:101D1000EB5952461343EB510021280005F0C6FF52
:101D20000121280005F0C2FF0221280005F0BEFFB6
:101D30000321280005F0BAFF2D49280005F07EFF99
:101D40002C4B1C68002300222100280005F09AFE7D
:101D5000002301222100280005F094FE264B1C6878
:101D6000012300222100280005F08CFE012301221E
:101D70002100280005F086FE204B5A46AB50A423D4
:101D80009B00EE500433EE5042462723AB50013BFC
:101D9000AB50063BAB501A4A0021280005F090FFDB
:101DA000184A0621280005F08BFF174A0721280052
:101DB00005F086FF154805F0CFFF154A53685146D8
:101DC0000B43536005B0F0BCBB46B246A946A046E3
:101DD000F0BDC046149C0010389C0010049C0010FC
:101DE000089C0010CC9A0010DC9A0010EC9A0010AD
:101DF000449C00100C9C0010109C001000001E80E1
:101E0000FC9A00100C9B00101C9B0010509C0010B2
:101E10000000024010B57F4A7F4C0021200005F0F1
:101E200087F900220021200005F005FC7B4A0A21E9
:101E3000200005F07DF900220A21200005F0FBFBBF
:101E4000774A0D21200005F073F900220D212000B2
:101E500005F0F1FB734A0121200005F069F9002229
:101E60000121200005F0E7FB6F4A0221200005F068
:101E70005FF900220221200005F0DDFB6B4A0321FF
:101E8000200005F055F900220321200005F0D3FBC6
:101E9000674A0421200005F04BF9002204212000AC
:101EA00005F0C9FB634A0521200005F041F9002235
:101EB0000521200005F0BFFB5F4A0621200005F048
:101EC00037F900220621200005F0B5FB5B4A072107
:101ED000200005F02DF900220721200005F0ABFBC2
:101EE000574A0821200005F023F90022082120008C
:101EF00005F0A1FB534A0921200005F019F9002241
:101F00000921200005F097FB4F4A504C002120008A
:101F100005F00EF900220021200005F08CFB4C4A50
:101F20000121200005F004F900220121200005F024
:101F300082FB484A0221200005F0FAF80022022123
:101F4000200005F078FB444A0321200005F0F0F85A
:101F500000220321200005F06EFB404A05212000ED
:101F600005F0E6F800220521200005F064FB3C4A5C
:101F70003C4C0A21200005F0DBF800220A21200059
:101F800005F059FB384A0B21200005F0D1F800225A
:101F90000B21200005F04FFB344A0221200005F000
:101FA000C7F800220221200005F045FB304A042139
:101FB000200005F0BDF800220421200005F03BFBC5
:101FC0002C4A0521200005F0B3F80022052120004D
:101FD00005F031FB284A0621200005F0A9F800226F
:101FE0000621200005F027FB244A0821200005F0E7
:101FF0009FF800220821200005F01DFB204A09213E
:10200000200005F095F800220921200005F013FBBF
:1020100010BDC046D49C001000000440949C0010E9
:10202000BC9C0010DC9C0010E49C0010EC9C001098
:10203000C49C0010B49C00108C9C0010849C001068
:10204000F49C0010FC9C0010AC9C001000010440AB
:10205000A49C00109C9C0010049D0010CC9C0010BF
:10206000749C0010000204407C9C0010149D001021
:102070005C9C00100C9D00101C9D0010649C0010C6
:102080006C9C001030B585B001A8044B020032CB27
:1020900032C205F041F905B030BDC046249D0010A4
:1020A00010B5FFF74CFB002010BD70B505000E0009
:1020B0001C0004AB18888D421FD395421ED2521AC1
:1020C00091B2A0420CD2AE1BB6B2201A80B27043BD
:1020D0004B08C01805F0BCFA80B2201A80B20DE09F
:1020E000AD1BADB2001B80B268434B08C01805F0B1
:1020F000AFFA80B2001980B200E0200070BD70B568
:102100001D0004AB1B7888421DD990421DD2AB4202
:102110000CD2441AE4B2E81AC0B26043511AC9B2F0
:1021200005F0A6FAC0B2281AC0B20DE0441AE4B213
:10213000581BC0B26043511AC9B205F099FAC0B237
:102140004019C0B200E0280070BD1800FCE7030091
:1021500008008B4200D21800704770B505000C00D3
:102160000A2A15D80A20801A68434A438018053085
:102170000A2105F06DFA80B284420AD1854202D963
:10218000013080B205E0854203D2013880B200E020
:10219000002070BD002803D0044B20225A607047F5
:1021A000024B802292035A60F9E7C04600010440C6
:1021B00010B509280FD8094B1B68094A8400A2589A
:1021C0009B1A8B4201D8002006E0044B1A68044B8E
:1021D000E250012000E0002010BDC046381700206A
:1021E0004814002010B5CE4B1B88CE4A128893426B
:1021F00000D030E3CB4C2380CB4B1B886380CB4B90
:102200001B78643B2371CA4B1B886371C94B1B88C5
:10221000E380C94B1B882381C84B1B886381C84B53
:102220001B88A381C74B1B88E381C74B1B88238274
:10223000C64B1B886382C64B1B882375C54B1B8806
:102240006375C54B1B88A375C44B1B88E375C44BD2
:102250001B882376C34B1B886383C34B1B88A383D4
:10226000C24B1B88A377C24B1B88E377C14B1A88EC
:102270002023E254C04B1A882123E254BF4B1A8812
:102280002223E254BE4B1B88A384BE4B1B88E384ED
:10229000BD4B1A882823E254BC4B1A882923E254E8
:1022A000BB4B1A882A23E254BA4B1A882B23E254D8
:1022B000B94B1A882C23E254B84B188806F0F4FA6C
:1022C000B74905F0C7FD2063B64B188806F0ECFA55
:1022D000B34905F0BFFD6063B34B188806F0E4FA1C
:1022E000AF4905F0B7FDA063B04B188806F0DCFAE3
:1022F000AB4905F0AFFDE063AD4B188806F0D4FAAA
:10230000A74905F0A7FD2064AA4B188806F0CCFA6F
:10231000A34905F09FFD6064A74B188806F0C4FA36
:102320009F4905F097FDA064A44B188806F0BCFAFD
:102330009B4905F08FFDE064A14B188806F0B4FAC4
:10234000974905F087FD20659E4B188806F0ACFA8A
:10235000934905F07FFD60659B4B188806F0A4FA51
:102360008F4905F077FDA065984B188806F09CFA18
:102370008B4905F06FFDE065954B1A886023E252AA
:10238000944B1A886223E254934B1A886323E254D5
:10239000924B1A886423E254914B1A886523E254C5
:1023A000904B1A886623E2548F4B1A886723E254B5
:1023B0008E4B1A886823E2548D4B1A886923E254A5
:1023C0008C4B1A886A23E2548B4B1A886B23E25495
:1023D0008A4B1A886C23E254894B1A886D23E25485
:1023E000884B1A886E23E254874B1A886F23E25475
:1023F000864B1A887023E254854B1A887123E25465
:10240000844B1A887223E254834B1A887423E25255
:10241000824B1A887623E254814B1A887723E25440
:10242000804B1A887823E2547F4B1A887923E25430
:102430007E4B1A887A23E2547D4B1A887B23E25420
:102440007C4B1A887C23E2547B4B1A887D23E25410
:102450007A4B1A887E23E254794B1A887F23E25400
:10246000784B1A888023E254774B1A888123E254F0
:10247000764B1A888223E254754B1A888323E254E0
:10248000744B1A888423E254734B1A888523E254D0
:10249000724B1A888623E254714B1A888723E254C0
:1024A000704B1A888823E2546F4B1A888923E254B0
:1024B0006E4B1A888A23E2546D4B1A888B23E254A0
:1024C0006C4B1A888C23E2546B4B1A888D23E25490
:1024D0006A4B1A888E23E254694B1A888F23E25480
:1024E000684B1A889023E254674B1A889123E25470
:1024F000664B1A889223E254654B1A889323E25460
:10250000644B1A889423E254634B1A889623E25250
:10251000624B1A889823E252614B1A889A23C1E0D1
:1025200000F000104805002002F0001004F0001038
:1025300006F0001008F000100AF000100CF0001077
:102540000EF0001010F0001012F0001014F0001047
:1025500016F0001018F000101AF000101CF0001017
:102560001EF0001020F0001022F0001024F00010E7
:1025700026F0001028F000102AF000102CF00010B7
:102580002EF0001030F0001032F0001034F0001087
:1025900036F0001038F000103AF000103CF0001057
:1025A0000000C8423EF0001040F0001042F0001061
:1025B00044F0001046F0001048F000104AF00010FF
:1025C0004CF000104EF0001050F0001052F00010CF
:1025D00054F0001056F0001058F000105AF000109F
:1025E0005CF000105EF0001060F0001062F000106F
:1025F00064F0001066F0001068F000106AF000103F
:102600006CF000106EF0001070F0001072F000100E
:1026100074F0001076F0001078F000107AF00010DE
:102620007CF000107EF0001080F0001082F00010AE
:1026300084F0001086F0001088F000108AF000107E
:102640008CF000108EF0001090F0001092F000104E
:1026500094F0001096F0001098F000109AF000101E
:102660009CF000109EF00010A0F00010A2F00010EE
:10267000A4F00010A6F00010A8F00010AAF00010BE
:10268000ACF00010AEF00010B0F00010B2F000108E
:10269000B4F00010B6F00010B8F00010BAF000105E
:1026A000BCF00010E2526C4B1A889C23E2526B4B38
:1026B0001A889E23E2546A4B1A889F23E254694B7E
:1026C0001A88A023E254684B1A88A123E254674B6E
:1026D0001A88A223E254664B1A88A323E254654B5E
:1026E0001A88A423E254644B1A88A523E254634B4E
:1026F0001A88A623E254624B1A88A723E254614B3E
:102700001A88A823E254604B1A88A923E2545F4B2D
:102710001A88AA23E2545E4B1A88AB23E2545D4B1D
:102720001A88AC23E2545C4B1A88AD23E2545B4B0D
:102730001A88AE23E2545A4B1A88AF23E254594BFD
:102740001A88B023E254584B1A88B123E254574BED
:102750001A88B223E254564B1A88B323E254554BDD
:102760001A88B423E254544B1A88B523E254534BCD
:102770001A88B623E254524B1A88B723E254514BBD
:102780001A88B823E254504B1A88B923E2544F4BAD
:102790001A88BA23E2544E4B1A88BB23E2544D4B9D
:1027A0001A88BC23E2544C4B1A88BD23E2544B4B8D
:1027B0001A88BE23E2544A4B1A88BF23E254494B7D
:1027C0001A88C023E254484B1A88C123E254474B6D
:1027D0001A88C223E254464B1A88C323E254454B5D
:1027E0001A88C423E254444B1A88C523E254434B4D
:1027F0001A88C623E254424B1A88C723E254414B3D
:102800001A88C823E254404B1A88C923E2543F4B2C
:102810001A88CA23E2543E4B1A88CB23E2543D4B1C
:102820001A88CC23E2543C4B1A88CD23E2543B4B0C
:102830001A88CE23E2543A4B1A88CF23E254394BFC
:102840001A88D023E254384B1A88D123E254374BEC
:102850001A88D223E25410BDBEF00010C0F0001060
:10286000C2F00010C4F00010C6F00010C8F0001054
:10287000CAF00010CCF00010CEF00010D0F0001024
:10288000D2F00010D4F00010D6F00010D8F00010F4
:10289000DAF00010DCF00010DEF00010E0F00010C4
:1028A000E2F00010E4F00010E6F00010E8F0001094
:1028B000EAF00010ECF00010EEF00010F0F0001064
:1028C000F2F00010F4F00010F6F00010F8F0001034
:1028D000FAF00010FCF00010FEF0001000F1001003
:1028E00002F1001004F1001006F1001008F10010D0
:1028F0000AF100100CF100100EF1001010F10010A0
:1029000012F1001014F1001016F1001018F100106F
:102910001AF100101CF100101EF1001020F100103F
:1029200022F1001024F1001026F1001028F100100F
:10293000F0B5DE4657464E464546E0B589B0FFF74E
:1029400051FCF94CE28C01922C23E05C5043642151
:1029500004F07EFEF54B1880227EF54B1A70658BD5
:10296000B723E35C9A46ED1AADB2F24B1D80F24BF1
:10297000A0221A80237D0293002B00D1CBE26800B5
:1029800040194000A02104F073FE0130EB4B188089
:10299000A80040198000A02104F06AFE0130E84B35
:1029A0001880BF22A05C6843A02104F061FE0130C2
:1029B000E44B1880E14B1B889946E14B1C8864006E
:1029C0004B46E41AA4B2E41AA4B2DF4B1C802900DF
:1029D000FA20400104F04CFEDC4B1880DC4B502206
:1029E0001A80D14EC023F75C6437B800C0190001CB
:1029F000642104F03DFE85B2D64B1D80D64B782273
:102A000090461A803801C01B8000642104F030FE1B
:102A1000070043464A469B1ACA4A10888046984493
:102A20002001001BC000A02104F022FE4346181A1A
:102A30007843782104F01CFE80B2C84B18802C002B
:102A40004443281A830018184000C123F15C04F0A5
:102A50000FFE291A200004F00BFE0100C04804F00C
:102A600007FEC223F35C5843222104F001FEC3B2E7
:102A700003931800BB4B18808423F75CBA4B1F707C
:102A80007A08BA4B1A707E23F35C002B04D18022A3
:102A9000B35C002B00D14FE2A34C236B9B46B4499F
:102AA000181C05F0A1FB05F09FF9B24B1880636B71
:102AB000AF490493181C05F097FB05F095F9AE4B50
:102AC0001880A26B9146AA49101C05F08DFB05F0F9
:102AD0008BF9AA4B1880E26B9046A549101C05F0B3
:102AE00083FB05F081F9A64B1880226CA049059262
:102AF000101C05F079FB05F077F9A24B1880666C85
:102B00009B49301C05F070FB05F06EF99E4B188058
:102B1000E56D9749281C05F067FB05F065F99B4BAF
:102B200018802823E05C05F06DFE041C9849584687
:102B300005F05AFB011C201C05F056FB05F054F96A
:102B4000944B18809249049805F04EFB011C201C00
:102B500005F04AFB05F048F98F4B18808C49484630
:102B600005F042FB011C201C05F03EFB05F03CF982
:102B70008A4B18808649404605F036FB011C201C14
:102B800005F032FB05F030F9854B18808049059837
:102B900005F02AFB011C201C05F026FB05F024F99A
:102BA000804B18807A49301C05F01EFB011C201C4C
:102BB00005F01AFB05F018F97B4B18807449281CA6
:102BC00005F012FB011C201C05F00EFB05F00CF9B2
:102BD000764B1880544BB6229D5CAB00ED186D000F
:102BE000734B1D80734B1D804F2D00D977E2724BC4
:102BF000663A1A804C4CB823E25C704B1A70704BEA
:102C00001F70BD23E25C6F4B1A706923E25C6E4B50
:102C10001A708723E25C6D4B1A706823E25C6C4B80
:102C20001A706C23E25C6B4B1A70A27D6A4B1A70AF
:102C30006423E25C694B1A70BC22A25C5A70702358
:102C4000E25C674B1A707123E25C664B1A706D236D
:102C5000E25C654B1A70E27D644B1A702B23E05CDA
:102C6000019B5843642104F0F3FC304B1880292366
:102C7000E25C5F4B1A705F4B039A1A705E4B5246D0
:102C80001A805E4B1A805E4B1A801E3A5D4B1A808A
:102C900053461E335C4A13805C4B029A1A706223BF
:102CA000E25C5B4B1A707622A25C5A70C823E25C2D
:102CB000584B1A70CD23E25C574B1A70CE22A25C9F
:102CC0005A70564B1D703C4A12885A70C423E25CFD
:102CD000534B1A706B23E25C524B1A708F23E25CE9
:102CE000514B1A709022A25C5A709122A25C9A7089
:102CF0009222A25CDA709322A25C1A719422A25CE6
:102D00005A718923E25C494B1A708A22A25C5A707C
:102D10008B22A25C9A708C22A25CDA708D22A25C5B
:102D20001A718E2284E0C04648050020E21400207B
:102D3000B91600207A1400207E14002070140020A0
:102D40007614002078140020721400207C140020D7
:102D500082140020801400208414002074140020A9
:102D6000A80F0000B21400209F1400209E14002021
:102D70000000C842AC140020AA140020A8140020AF
:102D8000A6140020A4140020A2140020A0140020E7
:102D90000000204192140020901400208E14002086
:102DA0008C1400208A14002088140020861400202F
:102DB0009C140020981400209A1400206016002013
:102DC0008216002086160020F816002061160020CA
:102DD000031700200E1700205E1600202417002085
:102DE000A8160020A9160020AA1600205F160020B1
:102DF000B5160020B8160020F0140020F4140020AE
:102E0000F2140020F8140020F61400200F17002000
:102E10002C170020A31600200C170020701600208D
:102E2000FD160020FE160020741600207C160020DF
:102E3000A25C5A71AB4B00221A709621665A760832
:102E4000F6B25E700231655A6D08EDB29D700231C6
:102E5000605A4008C0B2D8700231615A4908C9B2FC
:102E600019715A719E27E75D9F719F27E75DDF719A
:102E7000A027E75D1F72A127E75D5F729A72A22704
:102E8000E75DDF72A327E75D1F73A427E75D5F732C
:102E9000A527E75D9F73DA73A627E75D1F74A72751
:102EA000E75D5F74A827E75D9F74A927E75DDF747E
:102EB0001A755E759D75D87519765A76B121615C63
:102EC0009976B221615CD976B321615C1977B4211E
:102ED000615C59779A77AA21615CD977AB21605CF4
:102EE0008B3958548C31605C8B3958548C31605C10
:102EF0008B39585401315A5401315A5401315A54C2
:102F000001315A5401315A5409B0F0BCBB46B246A3
:102F1000A946A046F0BD744B06221A80734B0E32B0
:102F20001A80734BAB32985C6843A02104F0A0FB7D
:102F30000130704B18803DE56D4C266B301C06F05F
:102F400075FB00226C4B05F0F7FC04F065FF6B4B42
:102F50001880636B0493181C06F068FB0022664B14
:102F600005F0EAFC04F058FF654B1880A26B91460F
:102F70006449101C05F038F904F036FF624B1880E4
:102F8000A26C93465F49101C05F02EF904F02CFF4B
:102F90005E4B1880E26C5B490592101C05F024F929
:102FA00004F022FF5A4B1880216D0D1C55490695DF
:102FB000281C05F019F904F017FF564B1880616DB5
:102FC0000D1C50490795281C05F00EF904F00CFF64
:102FD000514B1880A16D88464A49404605F004F9D6
:102FE00004F002FF4D4B1880E56D4649281C05F0A2
:102FF000FBF804F0F9FE4A4B18802823E05C05F04A
:1030000001FC041C4749301C05F0EEF8011C201C93
:1030100005F0EAF804F0E8FE434B188041490498B3
:1030200005F0E2F8011C201C05F0DEF804F0DCFEDF
:103030003E4B18803B49484605F0D6F8011C201C41
:1030400005F0D2F804F0D0FE394B188035495846C7
:1030500005F0CAF8011C201C05F0C6F804F0C4FEF7
:10306000344B18802F49059805F0BEF8011C201C30
:1030700005F0BAF804F0B8FE2F4B188029490698DD
:1030800005F0B2F8011C201C05F0AEF804F0ACFE0F
:103090002A4B18802349079805F0A6F8011C201C2C
:1030A00005F0A2F804F0A0FE254B18801D4940460B
:1030B00005F09AF8011C201C05F096F804F094FE27
:1030C000204B18801749281C05F08EF8011C201C85
:1030D00005F08AF804F088FE1B4B18807AE51B4B3C
:1030E0001D8087E5C416002070140020761400208F
:1030F000480500207814002000005940B01400203A
:10310000AE1400200000C842AC140020AA14002015
:10311000A8140020A6140020A4140020A21400204B
:10312000A0140020000020419614002094140020D8
:1031300092140020901400208E1400208C14002083
:103140008A14002088140020861400209A1400207D
:1031500070B5164B1B78002B14D0012B16D0144BD6
:103160001B78002B0DD0134D2C88134B134A12786B
:103170005200D05A6043642104F06AFA80B22418E5
:103180002C8070BD0A4B01221A70E8E70C4B1B889B
:10319000002B03D1064B01221A70E0E7074B1B7886
:1031A0002D2BDCD9024B00221A70D8E7FD16002027
:1031B000FF160020EA14002024150020B716002076
:1031C0001E16002010B5194B1B78002B0BD1184B85
:1031D0001B88002B07D1174B01221A70164B174A78
:1031E00012781A701DE0134B1B78002B19D0124B6C
:1031F0001B78002B16D0104A013B13700E4B1B7826
:10320000642058430D4B197804F032FA83B26420DD
:10321000C01A80B20A4C23885843642104F028FA6B
:10322000208010BD034B00221A70E7E7B71600207C
:1032300018150020FA160020F91600203606002086
:10324000EA14002010B5184B1B78002B27D0174A22
:103250001378591C1170DB0703D5154A1388013305
:103260001380134B1A88C8239B009A4202D9104B33
:10327000A0221A800E4B1B88DB08DBB20D4A1370AC
:103280000D4A927DD2B20D498B540D4B1B886420A0
:103290005843A72104F0DCF90A4B188010BD044BF9
:1032A000A0221A80FAE7C04611170020021700205A
:1032B0001E150020B9160020C8140020BC160020DE
:1032C000201500202215002010B50F4B1B889BB243
:1032D000002B15D00C4B198889B20C4B1889AB23E5
:1032E0009B00584304F0B4F9094B1880094B1B7834
:1032F000002B04D0064A99005B185B00138010BDB8
:10330000034B00221A80F1E7C4170020C8140020E4
:103310001E1600202E17002008490A889308D21A8A
:1033200092B20A80064B1B889B189BB20B80054A01
:103330009B0857214B4313807047C046E41400207C
:10334000AC17002006150020714B9B7C012B5FD031
:103350006F4B9B7C022B5BD06D4B9B7C052B57D01E
:103360006B4B9B7C042B53D06A4B00221A706A4B28
:103370001A880A2A07D9674B1B78002B50D1644B57
:103380009B7C032B4CD0654B00211970634B1B7841
:103390003C2B02D9624B09211970624B1988624B90
:1033A0001B88994202D05E4B09211970594B19783C
:1033B000002914D05D4B1B880A3B9BB29120400032
:1033C000834209D85A4B1888FA235B00984203D8E5
:1033D000584B1B78002B02D0514B02201870564BD3
:1033E0001B885B08143355480088834225D2544B10
:1033F0001B78002B21D100291FD0524B1B78013B99
:10340000DBB2812B19D950490B7801330B7017E0CF
:103410004E4B1B78002BA7D13E4B01221A70A6E71A
:103420004B4B1B78002B03D04A4B1B78002BAAD1A7
:103430003A490B7801330B70A8E7434B0021197010
:10344000414B1B78FA2B02D9354B03211970424BA3
:103450001B78002B1FD15A2A0CD92D4B9B7C072B94
:1034600008D02B4B9B7C062B04D03C490B880133A6
:103470000B8002E0394B00211980394B1B88002B4F
:1034800002D0364B00211980344B1B887D2B02D98A
:10349000234B08211970334B1B781E2B0FD9092A97
:1034A0000DD8314A13780133DBB213700A2B09D9D6
:1034B0001B4B04221A702C4B00221A7002E02A4B7C
:1034C00000221A70294AC5239B00D3589B109B05E4
:1034D0009B0D274A13800E4B5B7CDBB2254AD35CE5
:1034E000002B13D0244B1B78132B0FD8224A013307
:1034F00013701F4B1A8892080B4B79215B5C0533C4
:10350000DBB29A4202D9064B05221A707047C046B8
:10351000C8140020ED16002018150020B416002055
:103520000417002000F0001048050020F0140020CF
:10353000E81400205B1600207E140020EC1400200C
:10354000FC160020B7160020691600205C1600202B
:103550005A160020A2160020061700200A15002087
:103560001E16002065160020B31600200008034830
:10357000A81700200C1700200817002010B52A4BB0
:103580001B78002B11D0294B1A78C8239B0053437A
:103590009BB2274A10885843264B19894B00C918FB
:1035A000C90104F055F8244B1880244B6A229B5C17
:1035B000002B22D0204B1C88002C07D0204B1888D1
:1035C000210004F045F884B26400A4B21D4B1988B0
:1035D000002906D01A4B188804F03AF881B2490045
:1035E00089B2194B1B78002B0FD08C4206D2091BD5
:1035F00089B2164A13685B18136010BD611A89B24C
:10360000124A13685B1A1360F7E7002CF5D00F4BD2
:103610001B680F4A9342F0D90C4A1B1B1360064BE0
:1036200000221A80E9E7C0469C160020B61600204A
:10363000C4170020C81400201C15002048050020D5
:10364000101500200E1500208516002024060020ED
:1036500000E1F50570B582B0204B1888C72807D95E
:103660001F4B18221A701F4B0F3A1A7002B070BD10
:103670001D4E33788008C0B21825009532220A21E9
:10368000FEF73DFD164C20703378184A10780095EF
:1036900046221421FEF733FD2378834201D9104BD3
:1036A0001870134E33780D4A10888008C0B209256F
:1036B000009532220A21FEF722FD0A4C2070337851
:1036C0000A4A1078009546221421FEF718FD237847
:1036D0008342CBD9034B1870C8E7C0461E160020A2
:1036E000300600202E06002031060020B7160020EC
:1036F0002F06002010B5344B1C78344B5B7B002B1D
:103700000ED0334B1B78002B0AD1324B1A88324B28
:10371000197878235B1A9A4202DD2D4B01221A7028
:103720002A4B1B7D002B40D1294B1A78002A03D14C
:103730002A4B1B78002B37D0264B1988284B1B7837
:103740004B43544363435B0A5801C01A8000C018BE
:10375000C000244B198803F07BFF84B22409FFF7D3
:1037600079FF214B1A78A24222D2204B1A70204BAB
:1037700088229B5C002B0FD01E4B1B78002B1AD08D
:103780001A4B1B78154A1278934201D9134A1370C9
:10379000164B124A12781A70144B1B78002B0ED05D
:1037A000154B164A12781A7010BDFFF7D1FCBBE713
:1037B0000E4B1C70DBE7094B00221A70ECE70E4B36
:1037C00000221A70F0E7C046C1160020C81400207D
:1037D000B7160020EA1400205F160020FB16002018
:1037E000B916002006150020280600205A160020D1
:1037F00048050020FC160020A216002035060020F7
:1038000070B5334BC9229B5C002B53D1314B5B7B92
:10381000002B0ED0304B1B78002B0AD12F4B1A886F
:103820002F4B197878235B1A9A4202DD2A4B01222A
:103830001A70284B9B7B002B02D0274B01221A7059
:10384000264B1B88002B03D0234A1278002A03D171
:10385000244A1278002A2CD0234A10785843782121
:1038600003F006FF040085B2FFF7F4FE1F4B1A7841
:10387000AA4222D21E4B1A70154B88229B5C002B49
:103880000FD01C4B1B78002B1AD0194B1B78154AF4
:103890001278934201D9134A1370154B114A1278CA
:1038A0001A70134B1B78002B0ED0134B134A12784F
:1038B0001A7070BDFFF786FCA8E70D4B1C70DBE7A4
:1038C000084B00221A70ECE70B4B00221A70F0E74D
:1038D00048050020C8140020B7160020EA14002074
:1038E0005F160020FB160020C116002028060020CD
:1038F0005A160020FC160020A216002035060020D3
:1039000010B51A4B1A78002A27D0194B1B789B1830
:103910009B10184A1380184B1B78A42B02D8164B07
:10392000A5221A70FFF74EFC134B144A12781A7036
:10393000104B1C88124A12881A80FFF78BFE114B1D
:103940001A78A2420AD2104B1A700F4B1B78002B28
:1039500007D00E4B0E4A12781A7010BD0A4B1C701D
:10396000F3E70A4B00221A70F7E7C046B7160020AB
:10397000C1160020EA140020360600203706002079
:10398000EE140020280600205A160020A21600205F
:103990003506002070B5394B5B7B002B0ED0384BC1
:1039A0001B78002B0AD1374B1A88374B19787823AC
:1039B0005B1A9A4202DD324B01221A702F4B9B7B1D
:1039C000002B02D02E4B01221A702E4B1888002893
:1039D00003D02B4B1B78002B03D12C4B1B78002BD7
:1039E0003DD02B4B1B785B00FE214900C91A89B2E0
:1039F000284B1B78002B05D0214B1B788B422FD8EE
:103A0000C91A89B20A3189B24043081803F020FE6E
:103A1000040085B2FFF71EFE1F4B1A78AA4221D27E
:103A20001E4B1A701E4B88229B5C002B0FD01D4B27
:103A30001B78002B19D0194B1B78144A127893422B
:103A400001D9124A1370154B104A12781A70134B91
:103A50001B78002B0DD0144B144A12781A7070BDCD
:103A60000021CFE70D4B1C70DCE7084B00221A70D9
:103A7000EDE70D4B00221A70F1E7C046C814002094
:103A8000B7160020EA1400205F160020FB16002065
:103A9000C1160020A3160020280600205A16002078
:103AA00048050020FC160020A21600203506002044
:103AB00070B53F4BC9229B5C002B00D06AE03D4BA8
:103AC0005B7B002B0ED03C4B1B78002B0AD13B4B71
:103AD0001A883B4B197878235B1A9A4202DD364BE1
:103AE00001221A70334B9B7B002B02D0324B0122F8
:103AF0001A70314B1D78002D03D1324B1B78002BEF
:103B000047D02E4B1C88002C09D02F4B1A782F4BF6
:103B10009B1858796043782103F0AAFD84B22C4B9E
:103B20001B786B432B4A128853435B0A5801C01A17
:103B30008000C018C000284B198803F089FD80B2AE
:103B40000009844200D20400FFF784FD234B1A7859
:103B5000A24222D2224B1A70154B88229B5C002B6A
:103B60000FD0204B1B78002B1AD01D4B1B78154A09
:103B70001278934201D9134A1370194B114A1278E3
:103B80001A70174B1B78002B0ED0174B174A127860
:103B90001A7070BDFFF716FB91E7114B1C70DBE745
:103BA000084B00221A70ECE70F4B00221A70F0E766
:103BB00048050020C8140020B7160020EA14002091
:103BC0005F160020FB1600202B060020C4160020E4
:103BD000C116002020150020061500202806002010
:103BE0005A160020FC160020A216002035060020E0
:103BF00030B583B0914BCC229B5C002B00D1C8E048
:103C00008F4B5B7CDBB28F4AD35C8F4A13708F4A39
:103C100011788F4A1278914200D196E08B490A7050
:103C2000864A7821525C002A00D1B4E0834A1339D5
:103C3000525C002A00D18CE09BB2864A12889342E3
:103C400000D994E0844B1B78002B00D18FE0834B8C
:103C50001B78002B04D1824B1B78002B00D186E00F
:103C60007B4B06221A707F4B1B78002B18D07D4AA5
:103C7000002313707C4A13807C4A13807C4AFA210B
:103C8000490011807B4A13807B4A13807B4B7C4A1E
:103C900012789B185B7E9A009B185B00794A138010
:103CA000784A6C4B12881B88D21A93B210B26E4AB3
:103CB00010806F490A889A1812B20A80FA21890086
:103CC0008A4200DCAEE06A4A1180684C2188591AA9
:103CD0008AB2684D298020809B009BB25100521807
:103CE000520092B262490020085E81000918C91092
:103CF0009B185B181BB2604A1380002B00DA98E017
:103D00005D4B00229A5EFA239B009A4203DD5A4BD8
:103D1000FA2292001A805C4BF4221A705B4BAB3A89
:103D20001A705B4B5B4A12781A70534B0020185E76
:103D30008010C0B2584B1B7800930023FA22002158
:103D4000FEF7DDF9554B187023E0434A012111704D
:103D500066E79BB23F4A1288934208D83E4B1B78D5
:103D6000002B04D03D4B1B78002B00D078E73A4B5A
:103D700000221A703B4B01321A70354B02321A7016
:103D80003E4B3F4A12789B189A7A454B1A70FFF7C0
:103D9000B7FD03B030BD294AB521525C002A2FD0AF
:103DA000264A5039525C002A17D09BB2294A128801
:103DB0009342DCD8224B5B7C002BD8D1264B1B785E
:103DC000002BD4D0254B1B78002B00D048E7244B88
:103DD0001B78002B00D043E7C9E79BB21D4A12882D
:103DE0009342C4D8164B5B7C002BC0D11A4B1B7876
:103DF000002BBCD0194B1B78002B00D030E7B6E766
:103E00009BB2144A12889342B1D80D4B5B7C002BB5
:103E1000ADD1114B1B78002BA9D0104B1B78002B78
:103E2000A5D01DE7002A00DB4FE7114A00211180D1
:103E30004BE7130000221A8062E7C04648050020C5
:103E4000C8140020701600206E160020C016002036
:103E5000BF1600201E1600206C160020B71600208A
:103E60006D1600206B160020C2140020C61400201E
:103E7000C4140020C0140020BE140020C41600206A
:103E80002B0600201C160020300600202E060020E5
:103E90005A1600202806002035060020A216002011
:103EA000C116002030B583B03F4AC5239B00D358CC
:103EB0009B109B059B0D3D4A138010883C4B79223B
:103EC000995C01329A5C8008C0B2FF230093002302
:103ED000FEF715F9374B1870002830D0364B1870A4
:103EE000364B5B7CDBB2364AD35C012B2BD0032BE9
:103EF00031D0314B1878334B1B7800930023FF22CD
:103F00000021FEF7FCF8040005002F4B1B788342CC
:103F100013D22E4B1888FE282CD92D4B30221A7024
:103F20002C4B273A1A70274B1B78AB4238D2264AC3
:103F30001370294B294A12781A7003B030BD1E4BFA
:103F400000221A70CCE7264B1B78002BD1D11A4BDC
:103F500000221A70CDE7164BAE229A5C1B4B1B88D1
:103F60009A42C6D21E4B1B78002BC2D1124B0022A4
:103F70001A70BEE7C0B230230093C433FF22282159
:103F8000FEF7BDF8124B1870104B187809230093F8
:103F90004033FF222821FEF7B2F80E4B1870C2E71B
:103FA000094B1C70C5E7C04600080348A81700204D
:103FB00048050020071700205C160020C8140020C8
:103FC0000C170020280600205A1600201E1600207C
:103FD000300600202E060020A21600203506002004
:103FE000B716002010B582B0114B1C88A4B2C822AD
:103FF000104B18885623FF3300930F4B5200282193
:10400000FEF753F80D4B1880002C0BD021000C4804
:1040100003F01EFBC0B20B4B1870782805D978222C
:104020001A7002E0074B00221A7002B010BDC046A1
:10403000B41700201E160020AE1000001C06002041
:1040400035DF0000B716002070B582B0114B9B7AA7
:10405000002B01D102B070BD0E4A937A023BDBB255
:10406000990059184900947A0234E4B2A300E41884
:104070006400094E3378094D2888002200922200FE
:10408000FEF713F830702B88A342E3D9044B0022CB
:104090001A70DFE7C81400205A1600201E160020F0
:1040A000A216002070B5784AC2239B00D3589B10FB
:1040B0009B059B0D754A1380754B1B78772B00D899
:1040C0007CE0744B1A88744B1A80744B1B78002B5D
:1040D00009D0734B1B88D31A9BB26F490B80714870
:1040E00000881B180B80704B85215B5C002B0AD06D
:1040F0006D4B01315B5C684909888B4200D388E0D5
:10410000D21A6A4B1A80614B1A88694B1A80684B25
:104110001B88614A1288934200D8A8E06549097853
:10412000002900D179E06449897D002975D063496F
:104130000888181A80B29B1A9CB2614B1B8858439E
:10414000604B198803F094FA201A80B25E4D2880E3
:104150005E4B1B8858430A2103F08AFA040080B2A0
:104160000B2103F075FA80B26E300B2103F080FA58
:104170002404240C6043322103F07AFA4A4BC02213
:104180009B5C64335843C82103F072FA80B22880E4
:104190004F4B1C88A04243D225004543201A830080
:1041A00018184000404BC122995C03F061FA211AB3
:1041B000280003F05DFA444B188031E0108880B28B
:1041C0003E4C21880222FDF7C8FF2080304A137838
:1041D0000133DBB21370782B07D0354B18803D4B81
:1041E0001B88C0182B4B188091E7324B1B78002B93
:1041F000F3D0394B1B88984207D9384B1B8898421B
:1042000003D2374B00221A70E7E7354B01221A70B0
:10421000E3E7264B00221A8075E79B1A2A4A13808F
:10422000294A13882F4909885B185B101380264B95
:104230001B882C4A13802C4A13802C4A1078584330
:1042400080B22B4A10801B4A1278002A13D01A4AD7
:10425000927D002A0FD0274A107858430F4B1B78C5
:104260005843602103F0F4F9234B18800BE0164B00
:1042700000221A80DBE7094B1B785843602103F0CA
:10428000E7F91D4B188070BD00040348AA170020F1
:10429000E1140020F2140020F0140020B7160020D2
:1042A000761400207814002048050020E614002031
:1042B000E81400200F170020C8140020F414002078
:1042C000721400207E140020EA1400207C140020C8
:1042D0008014002070140020F8140020F614002030
:1042E0005B160020EE140020EC140020B91600200C
:1042F00020150020B81600201615002010B56E4AB3
:1043000013780133DBB213706C490A780132D2B2F0
:104310000A706B49097800291BD0032B19D9664B09
:1043200000211970664B1970664B1B78002B1AD050
:10433000012A18D9614B00221A70624B1A70624B25
:10434000DB7CDBB2082B00D9B0E09B005F4AD3587E
:104350009F460029E8D1022BE6D9574B1970584BDC
:1043600001311970E0E7002BE9D1012AE7D9534B5D
:1043700000221A70534B01321A70E0E7544B187840
:10438000FDF708FF10BD524B1878002804D04C4BA5
:104390001878FDF7FFFEF5E7FDF7FCFEF2E74C4B62
:1043A0001878002803D04B4B1B78002B02D1FDF767
:1043B000F1FEE7E7434B1878FDF7ECFEE2E7444BEC
:1043C0001878002803D0434B1B78002B06D1002817
:1043D0000AD03B4B1878FDF7DDFED3E73D4B18784C
:1043E000C0B2FDF7D7FECDE7FDF7D4FECAE7384BE4
:1043F0001878002803D0374B1B78002B06D10028F3
:1044000009D02F4B1878FDF7C5FEBBE72D4B187868
:10441000FDF7C0FEB6E7FDF7BDFEB3E72D4B1B78F9
:10442000002B05D02B4B1878C0B2FDF7B3FEA9E7DF
:10443000274B1878FDF7AEFEA4E7264B1B78002B20
:1044400004D0204B1878FDF7A5FE9BE7204B187889
:10445000FDF7A0FE96E71F4B1B78002B08D11C4BE5
:10446000187800280AD0164B1878FDF793FE89E7D4
:10447000184B1878C0B2FDF78DFE83E7FDF78AFE72
:1044800080E7144B1B78002B08D1114B18780028BB
:1044900009D00B4B1878FDF77DFE73E7094B1878B0
:1044A000FDF778FE6EE7FDF775FE6BE7084B1878B1
:1044B000FDF770FE66E7C0467B16002068160020F8
:1044C0007A16002067160020C8140020309D0010C6
:1044D000AE160020F817002010B5754B9B7B002B03
:1044E0001DD0744B1B781433734A1370724B1B78B6
:1044F000822B02D9704B82221A70704BF4221A70F0
:104500006F4BAB3A1A706F4B19782820FDF71FFEDE
:104510006D4B18706D4B684A12781A7010BD654B60
:1045200018786B4B18706B4B1B78002B0ED16A4AB6
:104530001288002A0AD1604B32321A70674B1A7007
:10454000674B00221A80674B1A80CFE7002B6FD091
:10455000614B1B88644A1288934219D2634B042230
:104560001A70634A1378591C1170042BBED9524B30
:104570001A785A4B1B789A4206D24F4B01321A7066
:104580005B4B00221A70B1E7544A01331370F7E70E
:10459000544909888B4217D29B1A9B00DBB2534ABD
:1045A000137053490A78501C087093429ED2424BB4
:1045B0001B784A4A1278934202D23F4A0133137061
:1045C0004B4B00221A7091E74A4A1288934216D246
:1045D000D31A9B00DBB2454A137045490A78501C38
:1045E0000870934200D381E7334B1B78282B02D904
:1045F000314A013B13703E4B00221A7076E73B4B69
:1046000004221A703A4A1378591C1170042B00D8EE
:104610006CE7294B1B78282B06D9274A013B1370DE
:104620002E4A1378013B1370314B00221A705DE75C
:104630002E4B0A221A702E4A1378591C11700A2B1D
:1046400000D853E72C4B1988002925D02A2903D9F3
:10465000194A1378013B1370214A13885C1C14809B
:10466000092B15D91D4A13780A3313701A4B1B886E
:10467000584302F0FDFF80B21A4B18800200143A32
:10468000194B1A8014301B4B1880124B01221A70E0
:10469000174B00221A7029E7104B1B78772BF7D89D
:1046A00005490A7801320A700C4A01331370EFE7AA
:1046B000C8140020C11600203A0600203006002051
:1046C0002E060020280600205A160020A2160020E0
:1046D000291700202817002018150020390600206F
:1046E0001A16002018160020161600203806002082
:1046F00020170020141600201E16002070B5A64BAF
:10470000C2221A70A54B793A1A70A54B00221A7072
:10471000A44B1A70A44BBE329B5C002B21D0A34B40
:104720001B88F52B1DD9A24A1178C9B2A14A12786B
:10473000D2B2914215D2A04A1278002A11D10B337D
:10474000DBB29E4A13705B099D4A13701378DBB28B
:10475000052B02D9130005221A709A4B01221A70F8
:1047600002E0984B00221A70974B1B78002B20D147
:10477000964B9B7CDBB2082B35D89B00944AD358D0
:104780009F46FEF7B7FF2EE0FFF73AF82BE0FFF762
:10479000B7F828E0FFF7FEF825E0FFF789F922E0F7
:1047A000FFF726FA1FE0FFF797FE1CE0FEF74AFD31
:1047B00019E0884B1A78642353431B11DBB2784A03
:1047C00013708F2B02D913008F221A70824B1B7823
:1047D000744A1370814A1278934201D3714B1A7054
:1047E0007F4B32221A70704BCD229B5C002B07D07E
:1047F000764B5B7CDBB27B4AD35C002B00D0C3E002
:10480000FFF722FCCF229200774B9B581B041B0C16
:1048100076498A581204120C9B185B11DBB2744A59
:1048200012789A4202D2734B07221A705E4BD22240
:104830009B5C002B0ED06F4A1278002A00D1A6E0B4
:104840006D480178013101706B4909788B4201D8BC
:104850006A4B1A706A4B1C886A4B1A68A4181C6051
:10486000694B1988694B1A6889181960684B1A686E
:1048700053019B1A9B009B18DB005B0A654A10687A
:10488000181810605B43644A15685B191360634D28
:104890002A68013A2A60002A00D001E1A409604A8E
:1048A000146089095F4A1160564A00241460574A0F
:1048B000146081095C4A1160404380091B1A64201E
:1048C00058433F2102F0C4FE584B186040222A6032
:1048D000504B1C60504B1C60554B0222995E554A50
:1048E00011800422995E544A11800622995E534A2F
:1048F00011800822995E524A11800A22995E514A1B
:1049000011800C229A5E504B1A80504B0222995E05
:104910004F4A11800422995E4E4A11800622995E08
:104920004D4A11800822995E4C4A11800A22995EF4
:104930004B4A11800C229A5E4A4B1A804A4A1168EF
:104940004B015B1A9B005B18DB005B0A47490B803D
:10495000474801684B015B1A9B005B18DB005B0A50
:1049600044490B80FF235B0113600460424B4349C1
:104970000A681A60424B434A1068186001235B4280
:104980000B601460023389E0FFF78CFA38E71A49AC
:104990000020087058E7C046300600202E06002090
:1049A0005A160020A21600204805002018150020E5
:1049B000EC170020F91700205C160020A616002036
:1049C00001180020FD17002006170020C814002041
:1049D000549D00102D0600203206002035060020D0
:1049E000C11600200C1700200004034800080348EB
:1049F00029060020A4160020A51600200417002078
:104A0000C017002040160020BE17002038160020D6
:104A1000CC17002028160020301600202006002089
:104A2000441600203C1600202C16002034160020CE
:104A30008417002094170020961700209817002054
:104A40009A1700209C1700209E170020681700204E
:104A5000781700207A1700207C1700207E1700208E
:104A60008017002082170020D4170020B0170020E4
:104A7000D0170020AE170020E8170020E417002010
:104A8000E0170020DC1700205C4A5900FA20800063
:104A900088525B4A5B4888520133DBB2062BF3D95C
:104AA000594B1B78002B27D1584B1B78002B23D058
:104AB000574B1B78042B1FD0554B1B78092B1BD051
:104AC000534B1B78072B17D0514B1B78052B13D05A
:104AD000504B1B78002B0FD04F4B1B78002B0BD06B
:104AE0004E4B1B78002B07D1494B1B78002B38D03D
:104AF0004B4B9B7B002B34D14A4BC2221A704A4B42
:104B0000B93A1A70494B00221A70494B1A703F4B40
:104B10001B78002B57D03E4A1278042A1BD03C4AFF
:104B20001278092A17D03A4A1278072A13D0384A3D
:104B30001278052A0FD0394A1278002A0BD13D4A43
:104B40001288002A3FD13C4A1278002A3BD13B4AC6
:104B50001278002A37D12D4B00221A7002F0F4F996
:104B600070BD374B1B788F2B02D9354B8F221A70B3
:104B7000334B1B7819003231324A11702E4A1278A9
:104B8000934201D22C4A13702F4B1B78172B02D85B
:104B90002D4B18221A702D4B1B78082B02D82B4B4B
:104BA00009221A70284B1A781E4B1A70274B1A7854
:104BB0001D4B1A70204B1A781C4B1A70244B1A7814
:104BC0001B4B1A70A3E7002BCAD11A4B1B889F2BD3
:104BD000C6D8194B1B78002BC2D00B4B1B78002B6F
:104BE000BED10A4B01221A70144B1D321A70194B98
:104BF00000221A7002F0E0F9B2E7C04684170020E4
:104C00006817002018FCFFFFF8170020330600206B
:104C1000041700202B060020C1160020EE170020EC
:104C2000C81400204A06002049060020F917002079
:104C3000FA170020181500205A160020021800202C
:104C40002806002029060020300600202E0600201D
:104C5000A21600200018002010B582B0654B7E22FD
:104C60009B5C002B04D1634B47329B5C002B06D02E
:104C7000614B1B78452B02D85F4B46221A705F4B65
:104C8000D88864235843572102F0E2FC80B25C4B81
:104C900018805C4B1B78642B02D95A4B64221A7023
:104CA000544C607D18230093AA3364220021FDF741
:104CB00026FA554B18702923E05C203B00934033C3
:104CC00064220021FDF71BFA504B1870CA23E05CE8
:104CD000AC3B0093E13364220021FDF710FA4C4B0A
:104CE0001870237E4B4A13704B4A1278002A37D033
:104CF000404BC2229A5C474B5A70404B197C474A42
:104D00001170597D5171597C5170197D9171997D46
:104D1000D172597B5172997B9173997C404A117081
:104D2000D97C404A1170DB7B9B003F4A138013887B
:104D30009BB2002B0ED01388FA208000C01A3B4B88
:104D40001B885843642102F083FC394B1860394BAF
:104D500001221A70274B9A8B374B1A80012310E0DF
:104D60002C4A5370C9E75A1E33495200505A214AFF
:104D70002124125D4243120A801A5A0088520133DC
:104D8000DBB2772BEFD91B4BBD229B5C002B02D0F3
:104D90002A4BBC3A1A70194B18796423584380B2D5
:104DA0000009C0B2264B1870124CA28C254B5A43F6
:104DB000120925490A607422A25A53431B094B6009
:104DC000BB23584380B28F2102F042FCC0B21F4B7C
:104DD00018701B78DBB2BB2B02D91C4BBB221A709C
:104DE000044B1B7942331A4A13701A4B00221A7073
:104DF00002B010BD4805002082160020C814002013
:104E00003E0600205F160020310600202F060020FD
:104E100036060020BC1600200F1700208C1600203C
:104E20009D1600209B160020FA140020E21400209A
:104E3000541600206416002024150020851600203A
:104E400058160020A0860100201600202A06002007
:104E5000641700202E170020F8B504000F0015007D
:104E60001E000B4B18888300C0184000094B2822F5
:104E7000995C02F0FDFB0004000C801B7843A91B29
:104E8000083102F0F5FB80B2001980B2F8BDC046CF
:104E9000081500204805002010B5484B7E229B5C79
:104EA000002B04D1454B02329B5C002B37D0444B86
:104EB0001A78072A03D89300424AD3589F46002005
:104EC00079E0414B1B88414A1288FA210120FFF703
:104ED000C3FF70E03D4B1B883D4A1288FA21FA203F
:104EE000FFF7BAFF67E03A4B1B883A4A1288FA206C
:104EF000FA214000FFF7B0FF5DE0364B1B88364AD1
:104F00001288FA213548FFF7A7FF54E0FA20800005
:104F100051E0FA2080004EE0FA2080004BE0284B60
:104F20001A78092A03D893002D4AD3589F460020A7
:104F300041E0254B1B88254A1288A7210120FFF755
:104F40008BFF38E0214B1B88214A1288A721A7201C
:104F5000FFF782FF2FE01E4B1B881E4A1288A720F6
:104F6000A7214000FFF778FF25E01A4B1B881A4A5B
:104F70001288FA20A7214000FFF76EFF1BE0164BB6
:104F80001B88184A1288A7211748FFF765FF12E00F
:104F9000144B1B88154A1288A7211548FFF75CFFA0
:104FA00009E0FA20800006E0FA20800003E0FA2001
:104FB000800000E00A2010BD0A20FCE74805002020
:104FC00066160020789D0010A0140020A214002076
:104FD000A4140020A6140020A8140020EE02000053
:104FE000989D0010AA1400209B020000AC14002021
:104FF0004203000070B5B34B1888642102F028FB0F
:1050000084B2B14D298802222000FDF7A6F828803D
:10501000AE4B1B78DBB2012B00D894E0AC4B0022E6
:105020001A70AC4C218889B2AB4B18880222FDF76C
:1050300094F82080A94B7E229B5C002B05D1A74BC6
:1050400002329B5C002B00D1CFE0A24B1B889BB2AD
:10505000A34A1288934200D881E0A24B07221A701B
:10506000994B1888A04B1B7858430A2102F0F0FA9C
:1050700080B29E4B18809E4B1A68801818609D491C
:1050800002F0E6FA9C4B18609C4B1B68C0189C4BC6
:1050900018609C4BDB7D022B00D10DE1642358434B
:1050A000994B198802F0D4FA80B2FA239B009842F7
:1050B00000D91800FA239B001B1A9BB2934A138055
:1050C000924B1B889B08DBB28E4AD373904B1B78A4
:1050D000002B37D08F4B1B78002B17D08E4B1B78B3
:1050E000002B1DD17D4B5C6B28229B5C9800C01867
:1050F000400003F087FB011C201C03F075F802F050
:1051000073FE80B2704B1B88984209D27F4BFA2203
:1051100092001A80794B00221A607E4B01321A707D
:105120007C4B1B78002B0DD07B4B1B78002B09D1BF
:105130007A4B1A78511C1970684B84215B5C9A4237
:1051400000D9FDE070BD624A11784B1CDBB21370D0
:10515000142B00D865E7604B1C80117061E75D4B34
:105160001B889BB26E4A1288934203D95D4B06227C
:105170001A7075E7574B1B889BB26A4A1288934294
:1051800003D9584B05221A706AE7524B1B889BB211
:10519000654A1288934203D9524B04221A705FE782
:1051A0004C4B1B889BB2614A1288934203D94D4BEA
:1051B00003221A7054E7474B1B889BB25C4A128843
:1051C000934203D9474B02221A7049E7414B1B888F
:1051D0009BB2584A1288934203D9424B01221A705B
:1051E0003EE7404B00221A703AE73A4B1B889BB2CD
:1051F000514A1288934203D93A4B09221A702FE779
:10520000344B1B889BB24D4A1288934203D9354BCD
:1052100008221A7024E72F4B1B889BB2304A128851
:10522000934203D92F4B07221A7019E7294B1B8889
:105230009BB23B4A1288934203D92A4B06221A702A
:105240000EE7244B1B889BB2364A1288934203D93F
:10525000244B05221A7003E71E4B1B889BB2324A6F
:105260001288934203D91F4B04221A70F8E6194B97
:105270001B889BB22D4A1288934203D9194B0322F3
:105280001A70EDE6134B1B889BB2294A1288934291
:1052900003D9144B02221A70E2E60E4B1B889BB214
:1052A000244A1288934203D90E4B01221A70D7E682
:1052B0000C4B00221A70D3E6FFF7EEFD134B18805B
:1052C000FEE6C0460615002004150020EC1700205D
:1052D0003406002008150020FC140020480500209A
:1052E000921400206616002065160020001500208C
:1052F0004C160020907E0000481600205416002016
:1053000050160020C8140020E2140020FA140020D7
:105310009C16002064160020ED17002000170020C6
:10532000901400208E1400208C1400208A14002079
:105330008814002086140020961400209414002065
:10534000FFF7AAFD02001C4BDB7D002B30D11B4B6D
:105350001B889BB2952B29D8184B1988C9B2174BBB
:105360001B885B1A9A4205DB144B1B8896339842C4
:1053700000DCE7E6114B18801B88FA208000C01A79
:105380000F4B1B885843642102F062F90D4B1860E3
:105390000D4B01221A700D4B1A700D4B83329B5C22
:1053A0005B080C4A13700C4A1370CBE69621D6E7C3
:1053B0000A4B01221A70C5E6C8140020FA14002016
:1053C000E2140020541600208416002085160020C8
:1053D0004805002000170020AF160020ED17002020
:1053E0001E4A8A235B00D3581B070AD48E235B0016
:1053F000D358DBB21A4A1278D1B2002A02D001295E
:1054000015D07047592B05D0164B00221A70144B3B
:105410001A70F6E7134A1178C9B213484354137847
:105420000133DBB213700E4B01221A70E9E70D4A0B
:105430001178C9B20C48435413780133DBB21370AE
:105440001378DBB2062BDCD9130000221A70044B50
:105450001A70064B01321A70D3E7C04600020048AA
:1054600001170020F7160020F0160020BE160020BD
:1054700010B5BF4A137801331370BE4A1378013355
:105480001370BD4A137801331370BC4A137801338B
:105490001370BB4B1B78002B17D110BDB949C95CE9
:1054A0008A18D2B20133DBB2052BF7D9B54B9B7901
:1054B000DBB293420CD0B24B00221A70AC4B1B787B
:1054C000032BEAD9B04B1A70E7E700220023EBE781
:1054D000A74B00201870AB4B5A7801210A40AB490A
:1054E0000A70597820242140A94C21705B78212131
:1054F0008B43A8490870102B19D00ED8042B00D16B
:1055000091E0082B03D1A04B0421197012E0022B6B
:1055100010D19D4B022119700CE0402B7FD0802BC5
:1055200008D1994B012119709A4B197002E0964BE2
:1055300000211970984B1B78002B03D1974B92498F
:1055400009781970944B01211970002A00D192E159
:10555000934B1B78002B10D1924B1B7C002B66D1F8
:10556000894B1B78002B62D08F4A8331515C8F4A64
:105570001278914201D9042B59D0894B01221A701B
:105580007E4B1B788A4A127893420DD27E4B197853
:10559000824B1B7899421ED0864B1B78002B1AD168
:1055A000854B1B78002B16D1844900230B7084494E
:1055B0000B7072490A70834A1370834A1370834ACE
:1055C0001370834A1370834A1370834A1370834A9B
:1055D0001370834A13707B4B1B78002B00D1E4E1DE
:1055E000804B00221A706F4B1B7C002B0ED1664B38
:1055F0001B78002B0AD06C4A8421515C6B4A1278CC
:10560000914200D8D1E1042B00D0CEE15E4B1A7854
:10561000042A00D9BDE19300734AD3589F465A4BE0
:105620000121197086E7584B0321197082E76F4BEF
:1056300001221A70614B1B78002B27D15F4B1A7027
:105640005F4A13780133DBB21370032B02D91300C6
:1056500003221A70634B00221A704B4B1B78012BEC
:1056600054D0042B00D1D3E0002B39D0544B1B78FD
:105670000133DBB2554A13705D4A1370524B01225D
:105680001A703D4B00221A703C4B1A703A4B1B7833
:10569000584A1278934210D23B4B19783F4B1B78F3
:1056A000994200D16CE7434B1B78002B00D067E791
:1056B000414B1B78002B00D062E7394B0121197058
:1056C0004A4900230B703D490B703D490B702B4933
:1056D00037480078087028490A703C4A13704FE731
:1056E000374B1B78022B09D0032BBFD1424B1A78C2
:1056F0002C4B5A755A7D414B5A71B7E7404B1A787B
:10570000284B1A741A7C3D4B1A70AFE72C4B1B7850
:10571000022B13D0032BA9D13A4B1A78214B1A75BF
:105720001A7D364B9A712B4B1B78002B0ED02B4BCE
:1057300001221A701E4BF9321A7097E7324B1A7811
:10574000184B5A745A7C2D4B5A708FE7204B1B789C
:10575000002B8BD02D4B1A78124B9A759A7D274BC4
:10576000DA721D4B01221A70114BF9321A707DE763
:10577000E01400201E170020AB160020AF160020FA
:10578000BE160020F01600202B060020A7160020D1
:105790001D1700205D1600209C1600202C060020FE
:1057A000AC160020C8140020480500200017002077
:1057B000821600201017002062160020B01600206C
:1057C000B2160020B1160020851600208816002091
:1057D0009E1600209F160020A1160020A016002073
:1057E0008416002083160020C09D0010AD160020F6
:1057F000891600209F140020611600208C160020BE
:10580000F8160020FE160020031700200E170020B7
:10581000C64B1B78022B16D0032B00D026E7C44BB7
:105820001B78092B1FD0C34B1A78C34BDA74DA7C70
:10583000C24B1A70C24B1B780A2B00D016E7C14B23
:1058400001221A7012E7BA4B1B78092B00D00DE722
:10585000B84B1A78B84BDA74DA7CB84B1A70B94B7B
:1058600001221A7002E7B84B1A78B34B5A735A7B6D
:10587000B64B5A72DEE7B64B1B78002B0FD1B54BF7
:105880001B78002B00D17BE6B24A00231370B24A8A
:105890001370B24A1370B24B01221A7070E6AC4B0F
:1058A00000221A706CE6A14B1B78022B10D0032B40
:1058B0001BD0012B6DD1A04A117CAA4B1970137C0F
:1058C00059424B41DBB21374127CA04B1A7060E05A
:1058D000994A517DA44B1970537D59424B41DBB21B
:1058E0005375527D994B5A7153E001F0A9F950E07C
:1058F0008E4B1B78022B10D0032B1BD0012B48D1D1
:105900008D4A517C994B1970537C59424B41DBB203
:105910005374527C8D4B5A703BE0874A117D944BF7
:105920001970137D59424B41DBB21375127D874BC1
:105930009A712EE08F4B1B78002B0FD17E4A917D00
:105940008D4B1970937D59424B41DBB29375927D1B
:105950007E4BDA72894B01221A701AE0764B9B7CDF
:10596000082B03D0744B9A7C854B1A70724B08221B
:105970009A74844B073A1A700BE06C4B1B78022B1D
:105980002DD0032B2FD0012B25D06B4B9A7C7E4B37
:105990001A70784B1B78002B04D17C4B84229A5CC4
:1059A0007B4B1A707B4B01221A70784B7E229A5ADD
:1059B000002A00D103E1674B1B78002B00D19FE048
:1059C000664B1978744B1B78994200D2F7E0734B01
:1059D00000211970F3E0584B01229A74D5E7564B19
:1059E00002229A74D1E7544B03229A74CDE74F4BAD
:1059F0001B78022B0CD0032B0ED0012B04D04E4B66
:105A00009A7C614B1A70C4E74B4B04229A74F6E7F8
:105A1000494B05229A74F2E7474B06229A74EEE747
:105A2000424B1B78022B37D0032B52D0012B04D0D2
:105A3000414BDA7C414B1A70ABE7544B84229A5CA1
:105A4000574B1B789A420DD83B4BD97C394A117081
:105A5000DB7CDBB24D4A6D21525C934216D0364B53
:105A6000DA74E5E7FFF718FA4E4B18801B88FA2026
:105A70008000C01A4C4B1B885843642101F0E8FD9C
:105A80004A4B18604A4B01221A70D1E73F4B6F22F4
:105A90009A5C294BDA74CBE7254B1B78092B08D08D
:105AA0003A4B70229A5C244BDA74DA7C214B1A70E0
:105AB000BEE7214A517B244B1970537B59424B411D
:105AC000DBB25373527B214B5A721E4B01221A7068
:105AD000AEE71B4B1B780A2B05D02C4B71229A5C2E
:105AE000154BDA74A4E7144A937B59424B41DBB25D
:105AF0009373927B154B9A73124B01221A7097E79E
:105B0000164B1878214B8421595C234B1B78CB1AF8
:105B1000984251DD88424FD2044B1B78002B4BD06A
:105B20001E4B24490978197049E0C046B21600207E
:105B3000A8160020AA160020C81400209B160020DA
:105B4000A9160020831600205E1600208C16002067
:105B5000AC160020B0160020AD160020AF160020B5
:105B6000B1160020F816002061160020031700204F
:105B7000FE160020A11600200E1700209E16002001
:105B8000EC1600209F1600209D16002048050020DE
:105B900082160020851600209E1400208816002002
:105BA00000170020FA140020E214002054160020F0
:105BB0008416002089160020CC4B00211970CC4B94
:105BC00000211970CB4B9B7CD9B2062B00D1D1E0C0
:105BD000082900D0DEE0C84B78315B5C002B0AD18D
:105BE000C54B01395B5C002B05D1C34B46315B5C77
:105BF000002B00D1A8E0C14B1B78012B00D886E018
:105C0000BF4B1A78BB4B9A74BE4B00221A70BE4B26
:105C10001A70BE4BBE4A12781A70B64B9A7C013A83
:105C2000B64B1C78BB4B91008A189B18185DBA4B79
:105C30001870BA4B1B78002B08D0AF4BCF229B5C5F
:105C40005843642101F004FDB34B1870A94B5B7DF0
:105C5000002B00D1A7E1B24B1B78002B00D197E1BC
:105C6000B04B1B78002B00D092E1AF4B1B78002B80
:105C700000D08DE1AD4B1B78002B00D088E1AC4B00
:105C80001B78002B00D083E1AA4B1B78002B14D18A
:105C9000A84A01331370A84A13709B4A13709B4B98
:105CA00000221A70A54B1A70A54B1C70A54B1B78CF
:105CB000002B00D10EE1964A1370A04B1B78A14A2D
:105CC000D25C002A02D1914A002111705A1C9E49CF
:105CD00009788A4200DB51E18C4A11788C4A1278AB
:105CE000043A914204DA964A1278944200D15AE179
:105CF000864A002111700133DBB2904A1370914A39
:105D0000D35C002B00D1EBE0814A13704BE17F4B59
:105D100019787F4B1B78994200D371E7794B1B7838
:105D2000002B05D1774B01211970784B0021197098
:105D3000864B1B78002B13D0854B1B78002B0FD084
:105D4000844B012119700EE06C4B1B78012B00D0A5
:105D500056E76E4B19786E4B1B789942DED34FE7AE
:105D60007C4B00211970002A00D156E75F4B0022BE
:105D70001A7052E7754B1B78002B07D0744B1B78B9
:105D8000002B03D0744B01221A7046E7724B00229D
:105D90001A7042E7584B88229B5C002B16D06B4B45
:105DA0001B78002B0FD06A4B1B78002B0BD06B4B52
:105DB0001B78002B07D15A4B1B78002B03D0684B64
:105DC000873A1A7002E0664B00221A704A4B64222E
:105DD0009B5C002B00D120E75C4B1B78002B1DD077
:105DE0005B4B1B78002B19D05D4B1B78002B15D11A
:105DF000404B5B7CDBB25B4AD35C002B0ED0574B35
:105E00001B78002B00D008E7544B01221A70394B45
:105E1000997C3B4A117007229A74FEE6364BAF22FA
:105E20009B5C002B46D0344B4A3A9B5C002B41D004
:105E30004A4B1B78002B00D1EFE64B4B1B78002B15
:105E400009D1494B643A1A70484B00221A70484BEA
:105E50002A4A12781A70284BB0229A5C434B1B785E
:105E60009A421BD9254B1A78414B1B789A420BD08A
:105E7000234B1A781F4B9A74384A002313703A4AFE
:105E800013703C4A1370C8E63B4B1B78002BEFD1D4
:105E9000184B5B7C002B00D1BFE6E9E7184B1A7862
:105EA000144B9A742D4A002313702F4A1370314AF1
:105EB0001370B2E6294B1B78002B03D0104B1A78D5
:105EC0000C4B9A74254A00231370274A1370294AF1
:105ED0001370A2E6084B84229A5C0D4B1A70ECE614
:105EE000054B84229A5C0A4B1A705CE088160020ED
:105EF000B1160020C8140020480500202B06002001
:105F0000EC1600201017002085160020AF16002088
:105F100082160020C4160020C11600205D16002045
:105F2000AC160020B216002084160020A116002016
:105F3000A0160020621600206316002072160020B2
:105F40002C0600207C160020601600201D17002063
:105F50009C160020111700206D1600202617002027
:105F6000FC160020241700201F1700201E170020F9
:105F70002717002028170020F81700204A4B1A780E
:105F80004A4B1B789A420ED3494B00221A700AE002
:105F9000484B1B78002B06D0464A00231370444A16
:105FA0001370454A1370454B1C70454B63229B5C34
:105FB000002B0AD0434B1B78002B03D1424B1B789C
:105FC000002B4BD0414B01221A70414BDB78DBB2E6
:105FD000404A13703A4AB921525C002A42D03E4AE4
:105FE000E12189004B431380354B83229B5C002BBE
:105FF00009D0374B5B79DBB2384A13705278934241
:1060000001D2364A5370364B9B7C072B03D0354B5D
:106010001B78002B2BD02A4BAE22985C0A2101F072
:1060200017FBC0B22E4B98722D4C627C2E4B920007
:10603000D0582E4B198801F00BFBC1B22C4B1970B4
:106040002C4B1878FCF783F82B4B1870A37DDBB230
:106050002A4AD25C2A4B1A70FFF72DFA1B4B0022FA
:106060001A70B2E71C4A27494B431380BCE71C4B0C
:106070005B7CDBB2244AD35C022B06D0184A537CEB
:10608000DBB21649CB5C9372CEE7204B1B78002B1A
:10609000F4D00B4BAE22985C0A2101F0D9FAC0B2C1
:1060A0000F4B9872C0E7C046AF1600208216002042
:1060B0006316002062160020851600202C060020A2
:1060C00048050020AC160020AD160020AE160020BA
:1060D000F0160020B6160020101500202C17002006
:1060E000C8140020FC1600202016002006150020F1
:1060F000591600205816002028060020BC16002043
:10610000B91600209B0500000C170020071700207F
:1061100070B5B84B1B78002B01D100F07BFCB64B5F
:1061200043221A70B54B00221A70B54A1378012128
:106130008B431370B34B7E229B5C002B04D1B14B7D
:1061400002329B5C002B42D0AF4B1A78072A0CD846
:106150009300AE4AD3589F46A94A137801210B43B6
:10616000DBB21370A44B00225A70A64B7F229B5CBB
:10617000002B69D0A64B19881A789F4BDA70A54B73
:106180001B8899425CD29B1ADBB29B4A137164E074
:10619000994B00225A70E8E7974B02225A70E4E7C5
:1061A000954B06225A70E0E7934B09225A70DCE7C0
:1061B000914B0C225A70D8E78F4B0C225A70D4E7BF
:1061C0008D4B0C225A708D4B0B3A1A70CDE78E4BCB
:1061D0001A78092AC9D893008F4AD3589F46884A0B
:1061E000137801210B43DBB21370834B00225A70EA
:1061F000BBE7814B00225A70B7E77F4B02225A70EF
:10620000B3E77D4B04225A70AFE77B4B06225A70EE
:10621000ABE7794B08225A70A7E7774B0A225A70EE
:10622000A3E7754B0C225A709FE7734B0C225A70F0
:106230009BE7714B0C225A70704B0B3A1A7094E723
:106240006D4B00221A7108E06E4BC5229B5C002B3F
:1062500025D1694B4622DA701A7101F003F88923BF
:106260005B0098422DD26D4B00221A706B4B1B784D
:10627000502B02D9614B06221A70694B1B78042BF4
:1062800025D0674B1B78002B24D05C4B1B78002B50
:1062900020D1634B1B78DBB2584A13701AE0614B74
:1062A0001B78554CE370604D2988604B1888BD3AC7
:1062B000FBF753FF2880642101F0CAF9C0B22071B6
:1062C000CBE700F0CFFF1138544B1870CEE74B4BA3
:1062D00004221A70494B1B78002B5FD0544B1B785B
:1062E000002B5BD1474B80229B5C002B39D0434B6A
:1062F0001B78092B11D0414B1B78012B16D03F4B3B
:106300001B78052B1BD03D4B1B78072B20D03B4B1C
:106310001B78DBB2384A53719DE0464B1B78002B4B
:1063200000D198E0344B783A5A7194E0414B1B7895
:10633000002B00D18FE0304B06225A718BE03D4B91
:106340001B78002B00D186E02B4B03225A7182E090
:10635000384B1B78002B00D17DE0274B04225A716B
:1063600079E0284B7E229B5A002B11D0324B1B78B0
:10637000002B03D1314B9B7B002B03D01E4B002203
:106380005A7168E01D4B1B78DBB21B4A537162E007
:106390001A4B1B78DBB2184A53715CE0244B1B7814
:1063A000002B55D0264A1278002A14D1254A12789B
:1063B000002A10D0214A127C002A0FD1224A1278DA
:1063C000002A0BD00F498420085C204909788842B4
:1063D00001D9042A02D0084A53713CE0154A1278C8
:1063E000002A02D0044A537135E0034B00225A714F
:1063F00031E0C0469C1600201417002087160020AC
:106400002F1700204805002066160020D49D00109C
:10641000F4140020E8140020F49D0010051700205B
:106420000417002065160020FE140020001500202F
:10643000881600207A16002063160020C814002059
:10644000B0160020B21600202B06002000170020F6
:10645000C34B00225A71C34B1B78002B00D191E231
:10646000C14B1B78002B25D1C04B84229A5CC04BBA
:106470001B789A4203D9BF49097804291AD0BE492A
:106480000978002900D1A9E09A4200D8A6E0B94BCA
:106490001B78042B00D1A1E0B84B1B78002B00D156
:1064A0009CE001296CD0022900D184E0B44B002289
:1064B0001A800DE0AD4BB9229B5C012B53D0B14B40
:1064C000198889B2AE4CB04B188801F0C1F8208011
:1064D000AB4B1B88002B00D14FE2D9B2A04A91717F
:1064E0001B0AD371A14B82229B5C002B05D0A74ACB
:1064F000137804210B43DBB213709C4B81229B5C0D
:10650000002B23D0A24B1B88002B00D15BE29F4ABB
:106510001378802149420B43DBB213709D4B1B78EB
:10652000DBB20A2B00D854E2984A137840210B437F
:10653000DBB21370954B1B783F22934300D14EE2A0
:10654000924A137804210B43DBB213708F4B1A78F5
:106550001F210A4082498A701A783B210A401A702A
:106560000022002347E2874B198889B2844C864B6E
:10657000188801F06DF88300C01840002080A7E75C
:106580007A4BB9229B5C012B09D07E4B198889B2CA
:106590007B4C7D4B188801F05BF8208098E7794BA5
:1065A000198889B2764C784B188801F051F80A2383
:1065B000434323808CE76D4B2B22985C764B1B88E2
:1065C0005843642101F054F881B2744B19806C4C2B
:1065D0006D4B188801F03CF8208079E7704B1B78F0
:1065E000002B0DD0664C684D6E4B18880A2101F0C7
:1065F0002FF80100288889B201F02AF8208067E787
:10660000694B1B78002B0BD0684B1B789900C9187D
:1066100049005D4B188801F02BF8594B188057E75B
:10662000634B1B78002B09D0624B198889B2544CFC
:10663000554B188801F00CF8208049E75E4B1A781A
:106640005E4B1B789A4223D84C49097800291FD009
:1066500048480078012803D9594C2478002C17D0D9
:106660004A1E584B91008A189B181B5C002B0AD0BD
:10667000012B00D02CE7424C434B1888692100F0D5
:10668000E7FF208024E73E4B3F4A12881A801FE72D
:106690009A4207D839490978002903D03549097841
:1066A000042911D09A421BD8344B1B78002B17D0E9
:1066B000454B1B78642159430531334B188800F052
:1066C000D7FF2F4B188003E7404B1B7860315943AD
:1066D00005312D4B188800F0CBFF294B1880F7E6C9
:1066E0003B4B3C4A12789B5C0C2B00D9F0E69B009C
:1066F000394AD3589F461D4BB9229B5C012B08D0C9
:106700001F4C214A354B1088198800F0A1FF2080CA
:10671000DEE61B4C1C4A314B1088198800F098FFAC
:106720000A2343432380D3E6104BB9229B5C012B01
:1067300009D0144B198889B2114C134B188800F0FA
:1067400087FF2080C4E60F4B198889B20C4C0E4B92
:10675000188800F07DFF0A2343432380B8E6C04633
:1067600014170020851600208416002048050020FC
:10677000001700202B06002086160020B2160020ED
:106780000E150020FA140020101500202F170020ED
:106790001C150020021800200415002002150020FE
:1067A0001117002022150020A0160020B916002085
:1067B000A1160020AA170020AF1600208216002084
:1067C000831600208C1600209D1600209B160020AA
:1067D00074160020721600201C9E00101A1500204E
:1067E000934B2B22985C934B1B885843642100F0F9
:1067F0003FFF81B2904B1980904C914B188800F06C
:1068000027FF208064E68E4B18888E4B197800F0A5
:106810002FFF8A4B18805BE68B4C21888B4B1888A6
:106820000822FBF79AFC2080814BB9229B5C012B4C
:106830000BD0824C824D0A2100F00AFF010028880B
:1068400089B200F005FF208042E67C4C7C4B1B881F
:106850000100180000F0FCFE208039E67C4B19880E
:10686000764C774B1888890800F0F2FE20802FE6DE
:10687000784B198889B2714C714B188800F0E8FE8A
:10688000208025E66A4BB9229B5C012B0AD0724B13
:106890001978632911D96A4B188800F0E9FE674B13
:1068A000188015E66C4B1B780A215943644B1888F5
:1068B00000F0DEFE614B18800AE60A235943604B64
:1068C000188800F0D5FE5D4B188001E6634C2188E6
:1068D000634B18880822FBF740FC2080574C584D2A
:1068E0000A2100F0B5FE0100288889B200F0B0FE50
:1068F0002080EDE5514C524A5A4B1088198800F01F
:10690000A7FE2080E4E54A4BB9229B5C012B0CD00A
:10691000554B18680A2100F09BFE0100484B18886F
:1069200000F096FE454B1880D2E5454B18884E4B3B
:10693000196800F08DFE414B1880C9E53F4C404A74
:106940004A4B1088198800F083FE2080C0E5484B30
:10695000187864235843474B197800F089FE83B2B6
:10696000013B9BB2444A13800A215943344B188897
:1069700000F06EFE314B1880AAE5404B07229A7159
:10698000DA71AFE53E4B1888002817D0284BD0228B
:106990009B5C002B0CD000010A2100F069FE80B244
:1069A000384B1880C2B2354B9A71000AD87199E5FC
:1069B000C2B2324B9A71000AD87193E52F4B07226D
:1069C0009A71DA718EE5304A13787F210B4013708B
:1069D000A4E52D4A137840218B431370AAE52A4A77
:1069E000137804218B431370B0E52449C95C8A18DD
:1069F000D2B20133DBB2072BF7D9204B1A72234AEC
:106A00008A235B00D3581B0E7F221A401E239B1A39
:106A1000092B00D870BD0023082BFBD8174AD25C85
:106A2000D2B21A48C021490042500133DBB2F3E729
:106A30004805002004150020021500200E15002036
:106A40001015002065160020FE14002000150020FF
:106A5000A8170020AA170020B71600201415002040
:106A600016150020EA1400205016002018150020EA
:106A700002180020350600201215002014170020EF
:106A80001C1500200C1500202F17002000020048C4
:106A900010B52C4B1B889BB22B4A934204D8294B30
:106AA0001B889BB2092B24D8284B00221A80FCF7A4
:106AB0000BFCFDF797FAFCF72FFC254B187800012B
:106AC0000A2100F0C5FD234B1870FDF7EBFA224BAD
:106AD0001A78511C197003231340022B2ED011D8A1
