:020000041000EA
:10100000480500201910001000000000A310001077
:1010100000040100000100001249134A134B00F0C4
:101020001AF8134880471349134A144B00F013F879
:101030001349144A144B00F00EF81449144A0020C6
:10104000521A02DD043A8850FCDC124880471248EC
:101050008047124880479B1A03DD043BC858D05094
:10106000FBDC7047189A00100C000020440100209F
:10107000596A0010509B0010480500205C060020B3
:10108000649C001060060020980E0020980E00203E
:10109000A0160020A110001001930010A1660010FE
:1010A0007047FEE70269C3689A4204D88068C01A94
:1010B000801801387047D01A0138FBE7F8B5CE46E2
:1010C000474680B504000E001700C568836899463E
:1010D0005B1B9846934209D94068401908F034F9DF
:1010E000ED19E560C0BCB946B046F8BD406840198E
:1010F0001A0008F029F94B46ED1AED196068310025
:1011000041442A0008F020F9E560EBE7F8B5CE4647
:10111000474680B5060088461700C46800239946F4
:1011200014E0B2681B1BD218013A14E07068001971
:101130002A00414608F008F9A944A8447F1B641915
:10114000B368A34211D0F460002F10D033699C42E1
:10115000E7D21A1B013AB3681B1B934200D9130054
:101160003D009F42E2D91D00E0E70024EBE748463E
:10117000C0BCB946B046F8BD10B5134CA82200213A
:10118000200008F0B5F80323236163610F4AA261D0
:101190000F4BE3618023DB0023620023A3626362C1
:1011A000E36222660B4A62661022A2662367E36648
:1011B000636706E00F22D21A0749895C024AD154BC
:1011C00001330F2BF6D910BD980E00206893001044
:1011D000500F0020400F002074930010F8B503005A
:1011E0000F001600421C5400A418E400174AA4186B
:1011F0004000C018C0001218D56A012D12D0022D6F
:101200001DD0002D02D000252800F8BD2000FFF7DA
:1012100049FF8642F8D8320039002000FFF74EFF20
:101220003500F1E72000FFF73DFF3500864200D989
:1012300005002A0039002000FFF740FFE4E73200F4
:101240002000FFF763FF0500DEE7C046980E002090
:10125000F8B504000D001600094B1B78532B0CD178
:10126000EFF31087012181F310883200290020005C
:10127000FFF7B4FF87F31088F8BDFFF77DFFEFE7B6
:10128000980E002070B505000C00080008F065F805
:10129000020021002800FFF7DBFF70BDF0B583B02E
:1012A00004000F0016000193184B1B78532B26D116
:1012B000022C27D8EFF31083012181F31088190045
:1012C000002C10D0114A601C43001D18ED00AF50D7
:1012D00053195E6063001B19DB00D318019A1A6270
:1012E00000229A625A62094B62001219D2009B18BE
:1012F000089ADA6281F31088002003B0F0BDFFF78E
:101300003BFFD5E701204042F7E7C046980E00209A
:1013100010B5FFF731FF10BD10B500F007F800F071
:10132000A1FB10BD10B5FFF7F7FF10BDF0B5DE460D
:1013300057464E464546E0B585B0FE4C002120009C
:1013400005F0F8FC80235B009946E360FA49FB4F07
:10135000380005F009FD02239B46FB6304267E63EB
:101360008021C904200005F0F7FC07232361F44A1B
:101370000121380005F039FDF24A0221380005F05C
:1013800034FDF14A0321380005F02FFD012201212F
:10139000380005F00FFD01220221380005F058FD4C
:1013A000A4257B5933437B5101218A46E160002605
:1013B0003E67F960E549E64F380005F0ECFCE54B87
:1013C0007B6380210905200005F0C6FC70212161A6
:1013D000E14A6F39380005F008FDE04A0221380083
:1013E00005F003FDDE4A0321380005F0FEFC012272
:1013F0000121380005F0DEFC0121380005F0EEFC8B
:1014000000220821380005F023FD7B594A4613438A
:101410007B515A46E2603E675246FA60D149D24F4C
:10142000B846380005F0A0FCFE63D04B7B638021FA
:101430004905200005F090FCE027FF002761CC4A19
:101440000121404605F0D1FCCA4A0221404605F080
:10145000CCFCC94A0321404605F0C7FC0423E360E5
:10146000424616675146D160C449C54A90461000AD
:1014700005F07AFCA0234246D363C24B536380211C
:101480008905200005F068FCE022D2012261BE4AF5
:101490000121404605F0A9FCBC4A0221404605F066
:1014A000A4FCBB4A0321404605F09FFC0821E160F3
:1014B000444626675746E760A024E4050021200043
:1014C00005F0F2FC4F46E760B249B34F380005F033
:1014D000FDFCD22292009046FA637E64D222D200B2
:1014E00091461100380005F05CFD8021C904200000
:1014F00005F007FD07222261A84A0121380005F006
:101500001DFDA74A0221380005F018FDA54A032158
:10151000380005F013FD01220121380005F0FAFC26
:101520005346E360A049380005F062FD3E679F49DD
:101530009F4F380005F0CAFC4346FB637E64494672
:10154000380005F02EFD80210905200005F0D9FCAA
:1015500070202061974A0121380005F0EFFC964A7F
:101560000221380005F0EAFC944A0321380005F016
:10157000E5FC01220121380005F0CCFC5846E06072
:101580008F49380005F034FD3E678E498E4F380094
:1015900005F09CFC4046F8637E644946380005F03F
:1015A00000FD80214905200005F0ABFCE020C000D3
:1015B0002061864A0121380005F0C0FC844A0221DE
:1015C000380005F0BBFC834A0321380005F0B6FC67
:1015D00001220121380005F09DFC0423E3607E49CF
:1015E000380005F005FD3E677C497D4F380005F069
:1015F0006DFC4346FB637B644946380005F0D1FC33
:1016000080218905200005F07CFCE020C0012061DC
:10161000744A0121380005F091FC734A0221380018
:1016200005F08CFC714A0321380005F087FC01228B
:101630000121380005F06EFC03220021380005F07E
:10164000B3FC02220121380005F0AEFC0022042187
:10165000380005F0A9FC01220321380005F0A4FCA4
:101660007B59504603437B517B59584603437B517A
:101670007B59102213437B517B5908210B437B512B
:10168000E1603E675A4C200005F0E6FC2368032128
:1016900089468B4323605749200005F0E9FC5649F1
:1016A000200005F0EFFC5549554C0022200005F0C4
:1016B000F5FCE36950229343E361E369493A9343BC
:1016C0004A461343E361E26B4E4B1A4080231B01F1
:1016D0001343E3634C4B2361953D029501960096BD
:1016E0003A2300220021200005F0D8FD1F23052207
:1016F0000021200005F002FE1F23052220212000EA
:1017000005F0E6FD236CAB435A46134323643F4C7C
:10171000666022791F231A4322713D4A9046566023
:1017200012791A4341460A71A660227A1A4322723C
:101730008E606FE000000448E4930010000104484C
:10174000EC930010F0930010F4930010009400103C
:1017500000020448FEFF0000089400100C940010E2
:1017600010940010BC94001000030448FFFF000018
:10177000C4940010C8940010CC940010A8940010D9
:1017800000040448FF040000B0940010B49400105A
:10179000B894001014940010000100503094001010
:1017A0003494001038940010249400103C940010DD
:1017B00000020050589400105C94001060940010D7
:1017C0004C940010649400100003005080940010AA
:1017D0008494001088940010749400108C9400106D
:1017E000000400509C940010A0940010A4940010D9
:1017F00000000150FC930010F89300108893001033
:1018000000020048FFE0FFFF21810000501300208C
:10181000641300200A7A13430B727D497D4F380010
:1018200005F0BAFD7C4D2100280005F021FE7B4C1F
:101830004146200005F01CFE0321280005F058FE5B
:101840000321200005F054FE8023FA5874490A4011
:10185000FA50FA5873490A40FA50380005F0B8FDBA
:1018600081239B00FA5849468A43FA50FA58514658
:101870000A43FA506C49380005F042FE82235B00AF
:101880009846EB584A4693434246AB50AB585246B3
:1018900013434246AB500021280005F0C5FE01214C
:1018A000280005F0C1FE0221280005F0BDFE03213D
:1018B000280005F0B9FE5D49280005F07DFE5C4B6F
:1018C0001F68002300223900280005F0A5FD002331
:1018D00001223900280005F09FFD564B1F680123A7
:1018E00000223900280005F097FD0123012239006C
:1018F000280005F091FDAF239B009B46F0235B037E
:101900005A46AB50A2239B00EE5088277F0021232C
:10191000EB51EB51EB51EB51EB51EB512722EA51DB
:10192000EB51454A0121280005F088FE434A072172
:10193000280005F083FE4346E35849468B43414661
:101940006350635851460B434146635000212000C9
:1019500005F06AFE0121200005F066FE022120004C
:1019600005F062FE0321200005F05EFE34492000F0
:1019700005F022FE334B1D680023002229002000C1
:1019800005F04AFD002301222900200005F044FD56
:101990002D4B1D68012300222900200005F03CFD8D
:1019A000012301222900200005F036FD274B59466E
:1019B0006350A4239B00E6500433E6502023E351F8
:1019C000E3512722E251E351E351013AE251E3515D
:1019D000E3511F4A0021200005F030FE1D4A062178
:1019E000200005F02BFE1C4A0721200005F026FEF2
:1019F0001A4805F063FE1A4A536851460B43536078
:101A000005B0F0BCBB46B246A946A046F0BDC046F4
:101A1000EC94001000000348000403480008034849
:101A2000FFFFFEFFFFFFFDFFE09400100495001094
:101A3000D0940010D494001094930010A49300103C
:101A400010950010D8940010DC94001000001E8047
:101A5000B4930010C4930010D49300101C95001090
:101A60000000024010B57F4A7F4C0021200005F0A5
:101A700043F800220021200005F0C1FA7B4A0A2128
:101A8000200005F039F800220A21200005F0B7FAFD
:101A9000774A0D21200005F02FF800220D212000AB
:101AA00005F0ADFA734A0121200005F025F8002267
:101AB0000121200005F0A3FA6F4A0221200005F061
:101AC0001BF800220221200005F099FA6B4A03213D
:101AD000200005F011F800220321200005F08FFA04
:101AE000674A0421200005F007F8002204212000A5
:101AF00005F085FA634A0521200004F0FDFF00226D
:101B00000521200005F07BFA5F4A0621200004F041
:101B1000F3FF00220621200005F071FA5B4A07213D
:101B2000200004F0E9FF00220721200005F067FAF9
:101B3000574A0821200004F0DFFF0022082120007E
:101B400005F05DFA534A0921200004F0D5FF002278
:101B50000921200005F053FA4F4A504C0021200083
:101B600004F0CAFF00220021200005F048FA4C4A88
:101B70000121200004F0C0FF00220121200005F017
:101B80003EFA484A0221200004F0B6FF002202215A
:101B9000200005F034FA444A0321200004F0ACFF91
:101BA00000220321200005F02AFA404A05212000E6
:101BB00004F0A2FF00220521200005F020FA3C4A93
:101BC0003C4C0A21200004F097FF00220A2120004B
:101BD00005F015FA384A0B21200004F08DFF002291
:101BE0000B21200005F00BFA344A0221200004F0FA
:101BF00083FF00220221200005F001FA304A04216F
:101C0000200004F079FF00220421200005F0F7F9FC
:101C10002C4A0521200004F06FFF0022052120003E
:101C200005F0EDF9284A0621200004F065FF0022A6
:101C30000621200005F0E3F9244A0821200004F0E1
:101C40005BFF00220821200005F0D9F9204A092174
:101C5000200004F051FF00220921200005F0CFF9F7
:101C600010BDC046A0950010000004406095001013
:101C700088950010A8950010B0950010B895001038
:101C80009095001080950010589500105095001008
:101C9000C0950010C8950010789500100001044010
:101CA0007095001068950010D09500109895001060
:101CB000409500100002044048950010E095001087
:101CC00028950010D8950010E89500103095001068
:101CD0003895001030B585B001A8044B020032CB16
:101CE00032C204F0FDFF05B030BDC046F0950010D3
:101CF00010B5FFF717FB002010BD70B505000E00F2
:101D00001C0004AB18888D421FD395421ED2521A74
:101D100091B2A0420CD2AE1BB6B2201A80B2704370
:101D20004B08C01805F078F980B2201A80B20DE097
:101D3000AD1BADB2001B80B268434B08C01805F064
:101D40006BF980B2001980B200E0200070BD70B560
:101D50001D0004AB1B7888421DD990421DD2AB42B6
:101D60000CD2441AE4B2E81AC0B26043511AC9B2A4
:101D700005F062F9C0B2281AC0B20DE0441AE4B20C
:101D8000581BC0B26043511AC9B205F055F9C0B230
:101D90004019C0B200E0280070BD1800FCE7030045
:101DA00008008B4200D21800704770B505000C0087
:101DB0000A2A15D80A20801A68434A438018053039
:101DC0000A2105F029F980B284420AD1854202D95C
:101DD000013080B205E0854203D2013880B200E0D4
:101DE000002070BD002803D0044B20225A607047A9
:101DF000024B802292035A60F9E7C046000104407A
:101E000010B5CE4B1B88CE4A1288934200D030E3E7
:101E1000CB4C2380CB4B1B886380CB4B1B78643B24
:101E20002371CA4B1B886371C94B1B88E380C94B64
:101E30001B882381C84B1B886381C84B1B88A381E7
:101E4000C74B1B88E381C74B1B882382C64B1B886B
:101E50006382C64B1B882375C54B1B886375C54BB6
:101E60001B88A375C44B1B88E375C44B1B88237662
:101E7000C34B1B886383C34B1B88A383C24B1B8844
:101E8000A377C24B1B88E377C14B1A882023E25407
:101E9000C04B1A882123E254BF4B1A882223E254F4
:101EA000BE4B1B88A384BE4B1B88E384BD4B1A88A2
:101EB0002823E254BC4B1A882923E254BB4B1A88CE
:101EC0002A23E254BA4B1A882B23E254B94B1A88BE
:101ED0002C23E254B84B188806F098F9B74905F05E
:101EE0006BFC2063B64B188806F090F9B34905F0F7
:101EF00063FC6063B34B188806F088F9AF4905F0BE
:101F00005BFCA063B04B188806F080F9AB4905F084
:101F100053FCE063AD4B188806F078F9A74905F04B
:101F20004BFC2064AA4B188806F070F9A34905F011
:101F300043FC6064A74B188806F068F99F4905F0D8
:101F40003BFCA064A44B188806F060F99B4905F09F
:101F500033FCE064A14B188806F058F9974905F066
:101F60002BFC20659E4B188806F050F9934905F02C
:101F700023FC60659B4B188806F048F98F4905F0F3
:101F80001BFCA065984B188806F040F98B4905F0BA
:101F900013FCE065954B1A886023E252944B1A8833
:101FA0006223E254934B1A886323E254924B1A88BB
:101FB0006423E254914B1A886523E254904B1A88AB
:101FC0006623E2548F4B1A886723E2548E4B1A889B
:101FD0006823E2548D4B1A886923E2548C4B1A888B
:101FE0006A23E2548B4B1A886B23E2548A4B1A887B
:101FF0006C23E254894B1A886D23E254884B1A886B
:102000006E23E254874B1A886F23E254864B1A885A
:102010007023E254854B1A887123E254844B1A884A
:102020007223E254834B1A887423E252824B1A883B
:102030007623E254814B1A887723E254804B1A8826
:102040007823E2547F4B1A887923E2547E4B1A8816
:102050007A23E2547D4B1A887B23E2547C4B1A8806
:102060007C23E2547B4B1A887D23E2547A4B1A88F6
:102070007E23E254794B1A887F23E254784B1A88E6
:102080008023E254774B1A888123E254764B1A88D6
:102090008223E254754B1A888323E254744B1A88C6
:1020A0008423E254734B1A888523E254724B1A88B6
:1020B0008623E254714B1A888723E254704B1A88A6
:1020C0008823E2546F4B1A888923E2546E4B1A8896
:1020D0008A23E2546D4B1A888B23E2546C4B1A8886
:1020E0008C23E2546B4B1A888D23E2546A4B1A8876
:1020F0008E23E254694B1A888F23E254684B1A8866
:102100009023E254674B1A889123E254664B1A8855
:102110009223E254654B1A889323E254644B1A8845
:102120009423E254634B1A889623E252624B1A8836
:102130009823E252614B1A889A23C1E000F0001004
:102140004805002002F0001004F0001006F0001016
:1021500008F000100AF000100CF000100EF0001053
:1021600010F0001012F0001014F0001016F0001023
:1021700018F000101AF000101CF000101EF00010F3
:1021800020F0001022F0001024F0001026F00010C3
:1021900028F000102AF000102CF000102EF0001093
:1021A00030F0001032F0001034F0001036F0001063
:1021B00038F000103AF000103CF000100000C84267
:1021C0003EF0001040F0001042F0001044F000100B
:1021D00046F0001048F000104AF000104CF00010DB
:1021E0004EF0001050F0001052F0001054F00010AB
:1021F00056F0001058F000105AF000105CF000107B
:102200005EF0001060F0001062F0001064F000104A
:1022100066F0001068F000106AF000106CF000101A
:102220006EF0001070F0001072F0001074F00010EA
:1022300076F0001078F000107AF000107CF00010BA
:102240007EF0001080F0001082F0001084F000108A
:1022500086F0001088F000108AF000108CF000105A
:102260008EF0001090F0001092F0001094F000102A
:1022700096F0001098F000109AF000109CF00010FA
:102280009EF00010A0F00010A2F00010A4F00010CA
:10229000A6F00010A8F00010AAF00010ACF000109A
:1022A000AEF00010B0F00010B2F00010B4F000106A
:1022B000B6F00010B8F00010BAF00010BCF000103A
:1022C000E2526C4B1A889C23E2526B4B1A889E2375
:1022D000E2546A4B1A889F23E254694B1A88A02360
:1022E000E254684B1A88A123E254674B1A88A22350
:1022F000E254664B1A88A323E254654B1A88A42340
:10230000E254644B1A88A523E254634B1A88A6232F
:10231000E254624B1A88A723E254614B1A88A8231F
:10232000E254604B1A88A923E2545F4B1A88AA230F
:10233000E2545E4B1A88AB23E2545D4B1A88AC23FF
:10234000E2545C4B1A88AD23E2545B4B1A88AE23EF
:10235000E2545A4B1A88AF23E254594B1A88B023DF
:10236000E254584B1A88B123E254574B1A88B223CF
:10237000E254564B1A88B323E254554B1A88B423BF
:10238000E254544B1A88B523E254534B1A88B623AF
:10239000E254524B1A88B723E254514B1A88B8239F
:1023A000E254504B1A88B923E2544F4B1A88BA238F
:1023B000E2544E4B1A88BB23E2544D4B1A88BC237F
:1023C000E2544C4B1A88BD23E2544B4B1A88BE236F
:1023D000E2544A4B1A88BF23E254494B1A88C0235F
:1023E000E254484B1A88C123E254474B1A88C2234F
:1023F000E254464B1A88C323E254454B1A88C4233F
:10240000E254444B1A88C523E254434B1A88C6232E
:10241000E254424B1A88C723E254414B1A88C8231E
:10242000E254404B1A88C923E2543F4B1A88CA230E
:10243000E2543E4B1A88CB23E2543D4B1A88CC23FE
:10244000E2543C4B1A88CD23E2543B4B1A88CE23EE
:10245000E2543A4B1A88CF23E254394B1A88D023DE
:10246000E254384B1A88D123E254374B1A88D223CE
:10247000E25410BDBEF00010C0F00010C2F0001019
:10248000C4F00010C6F00010C8F00010CAF0001030
:10249000CCF00010CEF00010D0F00010D2F0001000
:1024A000D4F00010D6F00010D8F00010DAF00010D0
:1024B000DCF00010DEF00010E0F00010E2F00010A0
:1024C000E4F00010E6F00010E8F00010EAF0001070
:1024D000ECF00010EEF00010F0F00010F2F0001040
:1024E000F4F00010F6F00010F8F00010FAF0001010
:1024F000FCF00010FEF0001000F1001002F10010DE
:1025000004F1001006F1001008F100100AF10010AB
:102510000CF100100EF1001010F1001012F100107B
:1025200014F1001016F1001018F100101AF100104B
:102530001CF100101EF1001020F1001022F100101B
:1025400024F1001026F1001028F10010F0B5DE464D
:1025500057464E464546E0B589B0FFF751FCF94C69
:10256000E28C01922C23E05C5043642104F054FD82
:10257000F54B1880227EF54B1A70658BB723E35C10
:102580009A46ED1AADB2F24B1D80F24BA0221A8092
:10259000237D0293002B00D1C7E268004019400060
:1025A000A02104F049FD0130EB4B1880A800401930
:1025B0008000A02104F040FD0130E84B1880BF22CC
:1025C000A05C6843A02104F037FD0130E44B188083
:1025D000E14B1B889946E14B1C8864004B46E41A8A
:1025E000A4B2E41AA4B2DF4B1C802900FA204001F7
:1025F00004F022FDDC4B1880DC4B50221A80D14EB7
:10260000C023F75C6437B800C0190001642104F0EE
:1026100013FD85B2D64B1D80D64B782290461A808A
:102620003801C01B8000642104F006FD070043460A
:102630004A469B1ACA4A1088804698442001001BCB
:10264000C000A02104F0F8FC4346181A7843782112
:1026500004F0F2FC80B2C84B18802C004443281AC6
:10266000830018184000C123F15C04F0E5FC291A2E
:10267000200004F0E1FC0100C04804F0DDFCC223AE
:10268000F35C5843222104F0D7FCC3B20393180033
:10269000BB4B18808423F75C7A08BA4B1A707E23F0
:1026A000F35C002B04D18022B35C002B00D14DE2FF
:1026B000A44C236B9B46B449181C05F047FA05F05F
:1026C00045F8B24B1880636BAF490493181C05F0B2
:1026D0003DFA05F03BF8AE4B1880A26B9146AA4933
:1026E000101C05F033FA05F031F8AA4B1880E26BA4
:1026F0009046A549101C05F029FA05F027F8A64BCD
:102700001880226CA0490592101C05F01FFA05F0F4
:102710001DF8A24B1880666C9B49301C05F016FA18
:1027200005F014F89E4B1880E56D9749281C05F0BC
:102730000DFA05F00BF89B4B18802823E05C05F0A0
:1027400013FD041C9849584605F000FA011C201C92
:1027500005F0FCF904F0FAFF944B188092490498B4
:1027600005F0F4F9011C201C05F0F0F904F0EEFF6F
:102770008F4B18808C49484605F0E8F9011C201C55
:1027800005F0E4F904F0E2FF8A4B188086494046E0
:1027900005F0DCF9011C201C05F0D8F904F0D6FF87
:1027A000854B18808049059805F0D0F9011C201C44
:1027B00005F0CCF904F0CAFF804B18807A49301C30
:1027C00005F0C4F9011C201C05F0C0F904F0BEFF9F
:1027D0007B4B18807449281C05F0B8F9011C201C9B
:1027E00005F0B4F904F0B2FF764B1880554BB622D1
:1027F0009D5CAB00ED186D00734B1D80734B1D800D
:102800004F2D00D975E2724B663A1A804D4CB823B1
:10281000E25C704B1A70704B1F70BD23E25C6F4B13
:102820001A706923E25C6E4B1A708723E25C6D4B71
:102830001A706823E25C6C4B1A706C23E25C6B4B81
:102840001A70A27D6A4B1A706423E25C694B1A709D
:10285000BC22A25C5A707023E25C674B1A70712331
:10286000E25C664B1A706D23E25C654B1A70E27D88
:10287000644B1A702B23E05C019B5843642104F0E5
:10288000CBFB314B18802923E25C5F4B1A705F4B06
:10289000039A1A705E4B52461A805E4B1A805E4B4A
:1028A0001A801E3A5D4B1A8053461E335C4A1380D1
:1028B0005C4B029A1A706223E25C5B4B1A707622C0
:1028C000A25C5A70C823E25C584B1A70CD23E25CBC
:1028D000574B1A70CE22A25C5A70564B1D703C4A60
:1028E00012885A70C423E25C534B1A706B23E25C6B
:1028F000524B1A708F23E25C514B1A709022A25CEB
:102900005A709122A25C9A709222A25CDA70932291
:10291000A25C1A719422A25C5A718923E25C494B31
:102920001A708A22A25C5A708B22A25C9A708C2246
:10293000A25CDA708D22A25C1A718E22A25C5A719E
:1029400082E0C04648050020EA130020A9150020B7
:102950008213002086130020781300207E130020AD
:10296000801300207A130020841300208A13002093
:10297000881300208C1300207C130020A80F000077
:10298000BA130020A61300200000C842B413002090
:10299000B2130020B0130020AE130020AC130020AF
:1029A000AA130020A8130020000020419A13002041
:1029B00098130020961300209413002092130020F7
:1029C000901300208E130020A4130020A0130020D9
:1029D000A21300205015002072150020761500204B
:1029E000E815002051150020F3150020FA150020ED
:1029F0004E15002010160020981500209915002073
:102A00009A1500204F150020A5150020A8150020BC
:102A1000F8130020FC130020FA13002000140020FB
:102A2000FE130020FB15002018160020931500202F
:102A3000F815002060150020ED150020EE1500208F
:102A4000641500206C150020AB4B00221A709621F3
:102A5000665A7608F6B25E700231655A6D08EDB2BC
:102A60009D700231605A4008C0B2D8700231615A7C
:102A70004908C9B219715A719E27E75D9F719F2756
:102A8000E75DDF71A027E75D1F72A127E75D5F7239
:102A90009A72A227E75DDF72A327E75D1F73A42761
:102AA000E75D5F73A527E75D9F73DA73A627E75D90
:102AB0001F74A727E75D5F74A827E75D9F74A927A8
:102AC000E75DDF741A755E759D75D87519765A764F
:102AD000B121615C9976B221615CD976B321615CE8
:102AE0001977B421615C59779A77AA21615CD9770B
:102AF000AB21605C8B3958548C31605C8B395854F5
:102B00008C31605C8B39585401315A5401315A541C
:102B100001315A5401315A5401315A5409B0F0BCB0
:102B2000BB46B246A946A046F0BD744B06221A80A9
:102B3000734B0E321A80734BAB32985C6843A02102
:102B400004F07AFA0130704B188041E56D4C266B29
:102B5000301C06F01DFA00226C4B05F09FFB04F0C0
:102B60000DFE6B4B1880636B0493181C06F010FA73
:102B70000022664B05F092FB04F000FE654B1880C6
:102B8000A26B91466449101C04F0E0FF04F0DEFDE6
:102B9000624B1880A26C93465F49101C04F0D6FF6C
:102BA00004F0D4FD5E4B1880E26C5B490592101C6A
:102BB00004F0CCFF04F0CAFD5A4B1880216D0D1CA7
:102BC00055490695281C04F0C1FF04F0BFFD564B83
:102BD0001880616D0D1C50490795281C04F0B6FF44
:102BE00004F0B4FD514B1880A16D88464A49404617
:102BF00004F0ACFF04F0AAFD4D4B1880E56D46498A
:102C0000281C04F0A3FF04F0A1FD4A4B18802823E0
:102C1000E05C05F0A9FA041C4749301C04F096FF5B
:102C2000011C201C04F092FF04F090FD434B18801F
:102C30004149049804F08AFF011C201C04F086FF1F
:102C400004F084FD3E4B18803B49484604F07EFF6B
:102C5000011C201C04F07AFF04F078FD394B188029
:102C60003549584604F072FF011C201C04F06EFF29
:102C700004F06CFD344B18802F49059804F066FF72
:102C8000011C201C04F062FF04F060FD2F4B188033
:102C90002949069804F05AFF011C201C04F056FF35
:102CA00004F054FD2A4B18802349079804F04EFF86
:102CB000011C201C04F04AFF04F048FD254B18803D
:102CC0001D49404604F042FF011C201C04F03EFF59
:102CD00004F03CFD204B18801749281C04F036FFF7
:102CE000011C201C04F032FF04F030FD1B4B188047
:102CF0007CE51B4B1D8089E5B4150020781300206E
:102D00007E13002048050020801300200000594059
:102D1000B8130020B61300200000C842B4130020EE
:102D2000B2130020B0130020AE130020AC1300201B
:102D3000AA130020A8130020000020419E130020A9
:102D40009C1300209A130020981300209613002053
:102D50009413002092130020901300208E13002063
:102D6000A213002070B5164B1B78002B14D0012B3A
:102D700016D0144B1B78002B0DD0134D2C88134B01
:102D8000134A12785200D05A6043642104F044F987
:102D900080B224182C8070BD0A4B01221A70E8E71B
:102DA0000C4B1B88002B03D1064B01221A70E0E765
:102DB000074B1B782D2BDCD9024B00221A70D8E769
:102DC000ED150020EF150020F21300202C14002038
:102DD000A71500202615002010B5194B1B78002BD5
:102DE0000BD1184B1B88002B07D1174B01221A70EF
:102DF000164B174A12781A701DE0134B1B78002BE4
:102E000019D0124B1B78002B16D0104A013B1370BF
:102E10000E4B1B78642058430D4B197804F00CF9C5
:102E200083B26420C01A80B20A4C238858436421BC
:102E300004F002F9208010BD034B00221A70E7E76E
:102E4000A715002020140020EA150020E915002015
:102E500036060020F213002010B5184B1B78002B0B
:102E600027D0174A1378591C1170DB0703D5154A70
:102E7000138801331380134B1A88C8239B009A428E
:102E800002D9104BA0221A800E4B1B88DB08DBB244
:102E90000D4A13700D4A927DD2B20D498B540D4BE1
:102EA0001B8864205843A72104F0B6F80A4B188009
:102EB00010BD044BA0221A80FAE7C046FD15002081
:102EC000F215002026140020A9150020D0130020A0
:102ED000AC150020281400202A14002010B50B4B3C
:102EE0001B889BB2002B0CD0084B198889B2084B69
:102EF0001889AB239B00584304F08EF8054B1880CB
:102F000010BD044B00221A80FAE7C0466A16002062
:102F1000D01300202615002008490A889308D21AE9
:102F200092B20A80064B1B889B189BB20B80054A05
:102F30009B0857214B4313807047C046EC13002079
:102F40005E1600200E140020714B9B7C012B5FD07D
:102F50006F4B9B7C022B5BD06D4B9B7C052B57D022
:102F60006B4B9B7C042B53D06A4B00221A706A4B2C
:102F70001A880A2A07D9674B1B78002B50D1644B5B
:102F80009B7C032B4CD0654B00211970634B1B7845
:102F90003C2B02D9624B09211970624B1988624B94
:102FA0001B88994202D05E4B09211970594B197840
:102FB000002914D05D4B1B880A3B9BB29120400036
:102FC000834209D85A4B1888FA235B00984203D8E9
:102FD000584B1B78002B02D0514B02201870564BD7
:102FE0001B885B08143355480088834225D2544B14
:102FF0001B78002B21D100291FD0524B1B78013B9D
:10300000DBB2812B19D950490B7801330B7017E0D3
:103010004E4B1B78002BA7D13E4B01221A70A6E71E
:103020004B4B1B78002B03D04A4B1B78002BAAD1AB
:103030003A490B7801330B70A8E7434B0021197014
:10304000414B1B78FA2B02D9354B03211970424BA7
:103050001B78002B1FD15A2A0CD92D4B9B7C072B98
:1030600008D02B4B9B7C062B04D03C490B880133AA
:103070000B8002E0394B00211980394B1B88002B53
:1030800002D0364B00211980344B1B887D2B02D98E
:10309000234B08211970334B1B781E2B0FD9132A91
:1030A0000DD8314A13780133DBB213700A2B09D9DA
:1030B0001B4B04221A702C4B00221A7002E02A4B80
:1030C00000221A70294AC5239B00D3589B109B05E8
:1030D0009B0D274A13800E4B5B7CDBB2254AD35CE9
:1030E000002B13D0244B1B78132B0FD8224A01330B
:1030F00013701F4B1A8892080B4B79215B5C0533C8
:10310000DBB29A4202D9064B05221A707047C046BC
:10311000D0130020DD15002020140020A41500206D
:10312000F415002000F0001048050020F8130020DE
:10313000F01300204B15002086130020F41300200C
:10314000EC150020A7150020591500204C15002073
:103150004A15002092150020F515002012140020B9
:103160002615002055150020A3150020000803484F
:103170005A160020F8150020F715002010B52A4B2C
:103180001B78002B11D0294B1A78C8239B0053437E
:103190009BB2274A10885843264B19894B00C918FF
:1031A000C90103F039FF244B1880244B6A229B5C31
:1031B000002B22D0204B1C88002C07D0204B1888D5
:1031C000210003F029FF84B26400A4B21D4B1988CA
:1031D000002906D01A4B188803F01EFF81B249005F
:1031E00089B2194B1B78002B0FD08C4206D2091BD9
:1031F00089B2164A13685B18136010BD611A89B250
:10320000124A13685B1A1360F7E7002CF5D00F4BD6
:103210001B680F4A9342F0D90C4A1B1B1360064BE4
:1032200000221A80E9E7C0468C150020A615002070
:103230006A160020D0130020241400204805002026
:1032400018140020161400207515002024060020F4
:1032500000E1F50570B582B0204B1888C72807D962
:103260001F4B18221A701F4B0F3A1A7002B070BD14
:103270001D4E33788008C0B21825009532220A21ED
:10328000FEF765FD164C20703378184A10780095CB
:1032900046221421FEF75BFD2378834201D9104BAF
:1032A0001870134E33780D4A10888008C0B2092573
:1032B000009532220A21FEF74AFD0A4C207033782D
:1032C0000A4A1078009546221421FEF740FD237823
:1032D0008342CBD9034B1870C8E7C046261500209F
:1032E000300600202E06002031060020A715002001
:1032F0002F06002010B5344B1C78344B5B7B002B21
:103300000ED0334B1B78002B0AD1324B1A88324B2C
:10331000197878235B1A9A4202DD2D4B01221A702C
:103320002A4B1B7D002B40D1294B1A78002A03D150
:103330002A4B1B78002B37D0264B1988284B1B783B
:103340004B43544363435B0A5801C01A8000C018C2
:10335000C000244B198803F05FFE84B22409FFF7F4
:1033600079FF214B1A78A24222D2204B1A70204BAF
:1033700088229B5C002B0FD01E4B1B78002B1AD091
:103380001A4B1B78154A1278934201D9134A1370CD
:10339000164B124A12781A70144B1B78002B0ED061
:1033A000154B164A12781A7010BDFFF7DBFCBBE70D
:1033B0000E4B1C70DBE7094B00221A70ECE70E4B3A
:1033C00000221A70F0E7C046B1150020D01300208B
:1033D000A7150020F21300204F150020EB15002048
:1033E000A91500200E140020280600204A150020F0
:1033F00048050020EC15002092150020350600201D
:1034000070B5334BC9229B5C002B53D1314B5B7B96
:10341000002B0ED0304B1B78002B0AD12F4B1A8873
:103420002F4B197878235B1A9A4202DD2A4B01222E
:103430001A70284B9B7B002B02D0274B01221A705D
:10344000264B1B88002B03D0234A1278002A03D175
:10345000244A1278002A2CD0234A10785843782125
:1034600003F0EAFD040085B2FFF7F4FE1F4B1A7863
:10347000AA4222D21E4B1A70154B88229B5C002B4D
:103480000FD01C4B1B78002B1AD0194B1B78154AF8
:103490001278934201D9134A1370154B114A1278CE
:1034A0001A70134B1B78002B0ED0134B134A127853
:1034B0001A7070BDFFF790FCA8E70D4B1C70DBE79E
:1034C000084B00221A70ECE70B4B00221A70F0E751
:1034D00048050020D0130020A7150020F21300207B
:1034E0004F150020EB150020B11500202806002004
:1034F0004A150020EC15002092150020350600200A
:1035000010B51A4B1A78002A27D0194B1B789B1834
:103510009B10184A1380184B1B78A42B02D8164B0B
:10352000A5221A70FFF758FC134B144A12781A7030
:10353000104B1C88124A12881A80FFF78BFE114B21
:103540001A78A2420AD2104B1A700F4B1B78002B2C
:1035500007D00E4B0E4A12781A7010BD0A4B1C7021
:10356000F3E70A4B00221A70F7E7C046A7150020C0
:10357000B1150020F2130020360600203706002087
:10358000F6130020280600204A150020921500207E
:103590003506002070B5394B5B7B002B0ED0384BC5
:1035A0001B78002B0AD1374B1A88374B19787823B0
:1035B0005B1A9A4202DD324B01221A702F4B9B7B21
:1035C000002B02D02E4B01221A702E4B1888002897
:1035D00003D02B4B1B78002B03D12C4B1B78002BDB
:1035E0003DD02B4B1B785B00FE214900C91A89B2E4
:1035F000284B1B78002B05D0214B1B788B422FD8F2
:10360000C91A89B20A3189B24043081803F004FD8F
:10361000040085B2FFF71EFE1F4B1A78AA4221D282
:103620001E4B1A701E4B88229B5C002B0FD01D4B2B
:103630001B78002B19D0194B1B78144A127893422F
:1036400001D9124A1370154B104A12781A70134B95
:103650001B78002B0DD0144B144A12781A7070BDD1
:103660000021CFE70D4B1C70DCE7084B00221A70DD
:10367000EDE70D4B00221A70F1E7C046D013002091
:10368000A7150020F21300204F150020EB15002095
:10369000B115002093150020280600204A150020AF
:1036A00048050020EC15002092150020350600206A
:1036B00070B53F4BC9229B5C002B00D06AE03D4BAC
:1036C0005B7B002B0ED03C4B1B78002B0AD13B4B75
:1036D0001A883B4B197878235B1A9A4202DD364BE5
:1036E00001221A70334B9B7B002B02D0324B0122FC
:1036F0001A70314B1D78002D03D1324B1B78002BF3
:1037000047D02E4B1C88002C09D02F4B1A782F4BFA
:103710009B1858796043782103F08EFC84B22C4BBF
:103720001B786B432B4A128853435B0A5801C01A1B
:103730008000C018C000284B198803F06DFC80B2CF
:103740000009844200D20400FFF784FD234B1A785D
:10375000A24222D2224B1A70154B88229B5C002B6E
:103760000FD0204B1B78002B1AD01D4B1B78154A0D
:103770001278934201D9134A1370194B114A1278E7
:103780001A70174B1B78002B0ED0174B174A127864
:103790001A7070BDFFF720FB91E7114B1C70DBE73F
:1037A000084B00221A70ECE70F4B00221A70F0E76A
:1037B00048050020D0130020A7150020F213002098
:1037C0004F150020EB1500202B060020B41500201B
:1037D000B1150020281400200E1400202806002017
:1037E0004A150020EC150020921500203506002017
:1037F00030B583B0914BCC229B5C002B00D1C8E04C
:103800008F4B5B7CDBB28F4AD35C8F4A13708F4A3D
:1038100011788F4A1278914200D196E08B490A7054
:10382000864A7821525C002A00D1B4E0834A1339D9
:10383000525C002A00D18CE09BB2864A12889342E7
:1038400000D994E0844B1B78002B00D18FE0834B90
:103850001B78002B04D1824B1B78002B00D186E013
:103860007B4B06221A707F4B1B78002B18D07D4AA9
:10387000002313707C4A13807C4A13807C4AFA210F
:10388000490011807B4A13807B4A13807B4B7C4A22
:1038900012789B185B7E9A009B185B00794A138014
:1038A000784A6C4B12881B88D21A93B210B26E4AB7
:1038B00010806F490A889A1812B20A80FA2189008A
:1038C0008A4200DCAEE06A4A1180684C2188591AAD
:1038D0008AB2684D298020809B009BB2510052180B
:1038E000520092B262490020085E81000918C91096
:1038F0009B185B181BB2604A1380002B00DA98E01B
:103900005D4B00229A5EFA239B009A4203DD5A4BDC
:10391000FA2292001A805C4BF4221A705B4BAB3A8D
:103920001A705B4B5B4A12781A70534B0020185E7A
:103930008010C0B2584B1B7800930023FA2200215C
:10394000FEF705FA554B187023E0434A0121117028
:1039500066E79BB23F4A1288934208D83E4B1B78D9
:10396000002B04D03D4B1B78002B00D078E73A4B5E
:1039700000221A703B4B01321A70354B02321A701A
:103980003E4B3F4A12789B189A7A454B1A70FFF7C4
:10399000B7FD03B030BD294AB521525C002A2FD0B3
:1039A000264A5039525C002A17D09BB2294A128805
:1039B0009342DCD8224B5B7C002BD8D1264B1B7862
:1039C000002BD4D0254B1B78002B00D048E7244B8C
:1039D0001B78002B00D043E7C9E79BB21D4A128831
:1039E0009342C4D8164B5B7C002BC0D11A4B1B787A
:1039F000002BBCD0194B1B78002B00D030E7B6E76A
:103A00009BB2144A12889342B1D80D4B5B7C002BB9
:103A1000ADD1114B1B78002BA9D0104B1B78002B7C
:103A2000A5D01DE7002A00DB4FE7114A00211180D5
:103A30004BE7130000221A8062E7C04648050020C9
:103A4000D0130020601500205E150020B015002066
:103A5000AF150020261500205C150020A7150020BA
:103A60005D1500205B150020CA130020CE13002036
:103A7000CC130020C8130020C6130020B41500206A
:103A80002B06002024150020300600202E060020E2
:103A90004A15002028060020350600209215002037
:103AA000B115002030B583B03F4AC5239B00D358E1
:103AB0009B109B059B0D3D4A138010883C4B79223F
:103AC000995C01329A5C8008C0B2FF230093002306
:103AD000FEF73DF9374B1870002830D0364B187080
:103AE000364B5B7CDBB2364AD35C012B2BD0032BED
:103AF00031D0314B1878334B1B7800930023FF22D1
:103B00000021FEF724F9040005002F4B1B788342A7
:103B100013D22E4B1888FE282CD92D4B30221A7028
:103B20002C4B273A1A70274B1B78AB4238D2264AC7
:103B30001370294B294A12781A7003B030BD1E4BFE
:103B400000221A70CCE7264B1B78002BD1D11A4BE0
:103B500000221A70CDE7164BAE229A5C1B4B1B88D5
:103B60009A42C6D21E4B1B78002BC2D1124B0022A8
:103B70001A70BEE7C0B230230093C433FF2228215D
:103B8000FEF7E5F8124B1870104B187809230093D4
:103B90004033FF222821FEF7DAF80E4B1870C2E7F7
:103BA000094B1C70C5E7C046000803485A160020A0
:103BB00048050020F61500204C150020D0130020E9
:103BC000F8150020280600204A15002026150020A0
:103BD000300600202E060020921500203506002019
:103BE000A715002010B582B0114B1C88A4B2C822C2
:103BF000104B18885623FF3300930F4B5200282197
:103C0000FEF77BF80D4B1880002C0BD021000C48E0
:103C100003F002FAC0B20B4B1870782805D978224D
:103C20001A7002E0074B00221A7002B010BDC046A5
:103C30006216002026150020AE1000001C06002091
:103C400035DF0000A715002070B582B0114B9B7ABC
:103C5000002B01D102B070BD0E4A937A023BDBB259
:103C6000990059184900947A0234E4B2A300E41888
:103C70006400094E3378094D288800220092220002
:103C8000FEF73BF830702B88A342E3D9044B0022A7
:103C90001A70DFE7D01300204A15002026150020F7
:103CA0009215002070B5784AC2239B00D3589B1010
:103CB0009B059B0D754A1380754B1B78772B00D89D
:103CC0007CE0744B1A88744B1A80744B1B78002B61
:103CD00009D0734B1B88D31A9BB26F490B80714874
:103CE00000881B180B80704B85215B5C002B0AD071
:103CF0006D4B01315B5C684909888B4200D388E0D9
:103D0000D21A6A4B1A80614B1A88694B1A80684B29
:103D10001B88614A1288934200D8A8E06549097857
:103D2000002900D179E06449897D002975D0634973
:103D30000888181A80B29B1A9CB2614B1B885843A2
:103D4000604B198803F078F9201A80B25E4D288004
:103D50005E4B1B8858430A2103F06EF9040080B2C1
:103D60000B2103F059F980B26E300B2103F064F996
:103D70002404240C6043322103F05EF94A4BC02234
:103D80009B5C64335843C82103F056F980B2288005
:103D90004F4B1C88A04243D225004543201A830084
:103DA00018184000404BC122995C03F045F9211AD4
:103DB000280003F041F9444B188031E0108880B2AC
:103DC0003E4C21880222FDF7F0FF2080304A137814
:103DD0000133DBB21370782B07D0354B18803D4B85
:103DE0001B88C0182B4B188091E7324B1B78002B97
:103DF000F3D0394B1B88984207D9384B1B8898421F
:103E000003D2374B00221A70E7E7354B01221A70B4
:103E1000E3E7264B00221A8075E79B1A2A4A138093
:103E2000294A13882F4909885B185B101380264B99
:103E30001B882C4A13802C4A13802C4A1078584334
:103E400080B22B4A10801B4A1278002A13D01A4ADB
:103E5000927D002A0FD0274A107858430F4B1B78C9
:103E60005843602103F0D8F8234B18800BE0164B21
:103E700000221A80DBE7094B1B785843602103F0CE
:103E8000CBF81D4B188070BD000403485C16002061
:103E9000E9130020FA130020F8130020A7150020D2
:103EA0007E1300208013002048050020EE13002020
:103EB000F0130020FB150020D0130020FC1300207D
:103EC0007A13002086130020F213002084130020B0
:103ED000881300207813002000140020FE13002017
:103EE0004B150020F6130020F4130020A915002024
:103EF00028140020A81500201E14002010B56E4ABA
:103F000013780133DBB213706C490A780132D2B2F4
:103F10000A706B49097800291BD0032B19D9664B0D
:103F200000211970664B1970664B1B78002B1AD054
:103F3000012A18D9614B00221A70624B1A70624B29
:103F4000DB7CDBB2082B00D9B0E09B005F4AD35882
:103F50009F460029E8D1022BE6D9574B1970584BE0
:103F600001311970E0E7002BE9D1012AE7D9534B61
:103F700000221A70534B01321A70E0E7544B187844
:103F8000FDF730FF10BD524B1878002804D04C4B81
:103F90001878FDF727FFF5E7FDF724FFF2E74C4B14
:103FA0001878002803D04B4B1B78002B02D1FDF76B
:103FB00019FFE7E7434B1878FDF714FFE2E7444B9E
:103FC0001878002803D0434B1B78002B06D100281B
:103FD0000AD03B4B1878FDF705FFD3E73D4B187827
:103FE000C0B2FDF7FFFECDE7FDF7FCFECAE7384B98
:103FF0001878002803D0374B1B78002B06D10028F7
:1040000009D02F4B1878FDF7EDFEBBE72D4B187844
:10401000FDF7E8FEB6E7FDF7E5FEB3E72D4B1B78AD
:10402000002B05D02B4B1878C0B2FDF7DBFEA9E7BB
:10403000274B1878FDF7D6FEA4E7264B1B78002BFC
:1040400004D0204B1878FDF7CDFE9BE7204B187865
:10405000FDF7C8FE96E71F4B1B78002B08D11C4BC1
:10406000187800280AD0164B1878FDF7BBFE89E7B0
:10407000184B1878C0B2FDF7B5FE83E7FDF7B2FE26
:1040800080E7144B1B78002B08D1114B18780028BF
:1040900009D00B4B1878FDF7A5FE73E7094B18788C
:1040A000FDF7A0FE6EE7FDF79DFE6BE7084B187865
:1040B000FDF798FE66E7C0466B15002058150020F6
:1040C0006A15002057150020D0130020FC95001021
:1040D0009E1500208416002010B5754B9B7B002B8D
:1040E0001DD0744B1B781433734A1370724B1B78BA
:1040F000822B02D9704B82221A70704BF4221A70F4
:104100006F4BAB3A1A706F4B19782820FDF747FEBA
:104110006D4B18706D4B684A12781A7010BD654B64
:1041200018786B4B18706B4B1B78002B0ED16A4ABA
:104130001288002A0AD1604B32321A70674B1A700B
:10414000674B00221A80674B1A80CFE7002B6FD095
:10415000614B1B88644A1288934219D2634B042234
:104160001A70634A1378591C1170042BBED9524B34
:104170001A785A4B1B789A4206D24F4B01321A706A
:104180005B4B00221A70B1E7544A01331370F7E712
:10419000544909888B4217D29B1A9B00DBB2534AC1
:1041A000137053490A78501C087093429ED2424BB8
:1041B0001B784A4A1278934202D23F4A0133137065
:1041C0004B4B00221A7091E74A4A1288934216D24A
:1041D000D31A9B00DBB2454A137045490A78501C3C
:1041E0000870934200D381E7334B1B78282B02D908
:1041F000314A013B13703E4B00221A7076E73B4B6D
:1042000004221A703A4A1378591C1170042B00D8F2
:104210006CE7294B1B78282B06D9274A013B1370E2
:104220002E4A1378013B1370314B00221A705DE760
:104230002E4B0A221A702E4A1378591C11700A2B21
:1042400000D853E72C4B1988002925D02A2903D9F7
:10425000194A1378013B1370214A13885C1C14809F
:10426000092B15D91D4A13780A3313701A4B1B8872
:10427000584302F0E1FE80B21A4B18800200143A53
:10428000194B1A8014301B4B1880124B01221A70E4
:10429000174B00221A7029E7104B1B78772BF7D8A1
:1042A00005490A7801320A700C4A01331370EFE7AE
:1042B000D0130020B11500203A060020300600205F
:1042C0002E060020280600204A1500209215002006
:1042D0001516002014160020201400203906002096
:1042E00022150020201500201E1500203806002071
:1042F0000C1600201C1500202615002010B5BE4B02
:10430000C2221A70BD4B793A1A70BD4B00221A7046
:10431000BC4B1A70BC4BBE329B5C002B21D0BB4BFC
:104320001B88F52B1DD9BA4A1178C9B2B94A12783F
:10433000D2B2914215D2B84A1278002A11D10B3369
:10434000DBB2B64A13705B09B54A13701378DBB25F
:10435000052B02D9130005221A70B24B01221A70E4
:1043600002E0B04B00221A70AF4B1B78002B20D11B
:10437000AE4B9B7CDBB2082B35D89B00AC4AD358A4
:104380009F46FEF7B7FF2EE0FFF73AF82BE0FFF766
:10439000B7F828E0FFF7FEF825E0FFF789F922E0FB
:1043A000FFF726FA1FE0FFF797FE1CE0FEF754FD2B
:1043B00019E0A04B1A78642353431B11DBB2904AD7
:1043C0001370702B02D9130070221A709A4B1B784D
:1043D0008C4A1370994A1278934201D3894B1A7010
:1043E000974B32221A70884BCD229B5C002B07D052
:1043F0008E4B5B7CDBB2934AD35C002B00D0A8E0F1
:10440000FFF722FCCF2292008F4B9B581B041B0C02
:104410008E498A581204120C9B185B11DBB28C4A2D
:1044200012789A4202D28B4B07221A70764BD22214
:104430009B5C002B0ED0874A1278002A00D18BE0BB
:104440008548017801310170834909788B4201D890
:10445000824B1A70824B1B68824A11685B1813608A
:1044600081490A68013A0A60002A11D15801C01A2C
:104470008000C018C000A021890002F0CDFD4009D5
:104480007A4B1860784B28221A60764B00221A600B
:10449000774B1B78002B27D1764B1B78002B23D032
:1044A0006E4B1B78042B1FD06C4B1B78092B1BD039
:1044B0006A4B1B78072B17D0684B1B78052B13D042
:1044C0006D4B1B78002B0FD05D4B1B78002B0BD056
:1044D0006A4B1B78002B07D1604B1B78002B3FD019
:1044E000524B9B7B002B3BD1654BC2221A70654B14
:1044F000B93A1A70474B00221A70634B1A705D4B21
:104500001B78002B5ED0554A1278042A1BD0534AE0
:104510001278092A17D0514A1278072A13D04F4A25
:104520001278052A0FD0554A1278002A0BD1374A43
:104530001288002A46D1324A1278002A42D1534AC0
:104540001278002A3ED14B4B00221A7002F0ECF98F
:1045500010BDFFF7A7FA53E73F490020087073E743
:104560004B4B1B78702B02D9494B70221A70484B69
:104570001B7819003231364A1170214A1278934261
:1045800001D21F4A13701C4B1B78172B02D81A4BF1
:1045900018221A70194B1B78082B02D8174B0922C6
:1045A0001A70154B1A78364B1A70144B1A78354B13
:1045B0001A70134B1A78174B1A70124B1A78324B29
:1045C0001A709CE7002BC3D1104B1B889F2BBFD8C0
:1045D0000B4B1B78002BBBD0254B1B78002BB7D186
:1045E000244B01221A70294B1D321A70294B0022CC
:1045F0001A7002F0C5F9ABE7300600202E06002045
:104600004A150020921500204805002020140020A3
:1046100078160020851600204C15002096150020E5
:104620008D16002089160020F5150020D0130020DB
:10463000209600102D0600203206002035060020AE
:10464000B1150020F81500200004034800080348B5
:10465000290600209415002095150020F41500204F
:104660007016002028150020200600203415002098
:1046700084160020330600202B0600207B16002025
:104680004C0600204B060020861600208E160020C7
:10469000280600208C16002010B582B0644B7E22C4
:1046A0009B5C002B04D1624B47329B5C002B06D0F5
:1046B000604B1B78452B02D85E4B46221A705E4B2E
:1046C000D88864235843572102F0A6FC80B25B4B84
:1046D00018805B4B1B78642B02D9594B64221A70EB
:1046E000534C607D18230093AA3364220021FDF708
:1046F0002EFB544B18702923E05C203B0093403381
:1047000064220021FDF723FB4F4B1870CA23E05CA5
:10471000AC3B0093E13364220021FDF718FB4B4BC7
:104720001870237E4A4A13704A4A1278002A37D0FA
:104730003F4BC2229A5C464B5A703F4B197C464A0B
:104740001170597D5171597C5170197D9171997D0C
:10475000D172597B5172997B9173997C3F4A117048
:10476000D97C3F4A1170DB7B9B003E4A1380138843
:104770009BB2002B0ED01388FA208000C01A3A4B4F
:104780001B885843642102F047FC384B1860384BB3
:1047900001221A70264B9A8B364B1A80012310E0A7
:1047A0002B4A5370C9E75A1E32495200505A204AC8
:1047B0002124125D4243120A801A5A0088520133A2
:1047C000DBB2772BEFD91A4BBD229B5C002B02D0BA
:1047D000294BBC3A1A70184B18796423584380B29D
:1047E0000009C0B2254B1870114CA28C244B5A43BF
:1047F000120924490A607422A25A53431B094B60D0
:10480000BB23584380B2702102F006FCC0B21E4B9D
:1048100018701B78DBB2BB2B02D91B4BBB221A7062
:10482000034B1B794233194A137002B010BDC046C6
:104830004805002072150020D013002040060020FB
:104840004F150020310600202F06002036060020DC
:10485000AC150020FB1500207C1500208D150020D4
:104860008B15002002140020EA13002044150020BC
:10487000541500202C140020751500204815002028
:10488000A08601002C1500202A06002052160020C8
:10489000F8B504000F0015001E000B4B18888300AC
:1048A000C0184000094B2822995C02F0C5FB0004A7
:1048B000000C801B7843A91B083102F0BDFB80B2BD
:1048C000001980B2F8BDC046101400204805002031
:1048D00010B5484B7E229B5C002B04D1454B023225
:1048E0009B5C002B37D0444B1A78072A03D89300DF
:1048F000424AD3589F46002079E0414B1B88414AE9
:104900001288FA210120FFF7C3FF70E03D4B1B889E
:104910003D4A1288FA21FA20FFF7BAFF67E03A4BC6
:104920001B883A4A1288FA20FA214000FFF7B0FFAC
:104930005DE0364B1B88364A1288FA213548FFF76E
:10494000A7FF54E0FA20800051E0FA2080004EE0FA
:10495000FA2080004BE0284B1A78092A03D89300EC
:104960002D4AD3589F46002041E0254B1B88254AFD
:104970001288A7210120FFF78BFF38E0214B1B880D
:10498000214A1288A721A720FFF782FF2FE01E4BA4
:104990001B881E4A1288A720A7214000FFF778FF36
:1049A00025E01A4B1B881A4A1288FA20A7214000DA
:1049B000FFF76EFF1BE0164B1B88184A1288A721D1
:1049C0001748FFF765FF12E0144B1B88154A128841
:1049D000A7211548FFF75CFF09E0FA20800006E0F8
:1049E000FA20800003E0FA20800000E00A2010BDD9
:1049F0000A20FCE7480500205615002044960010C8
:104A0000A8130020AA130020AC130020AE1300202E
:104A1000B0130020EE02000064960010B2130020D4
:104A20009B020000B41300204203000070B5B34B9A
:104A30001888642102F0F0FA84B2B14D298802226C
:104A40002000FDF7B2F92880AE4B1B78DBB2012BBA
:104A500000D894E0AC4B00221A70AC4C218889B28B
:104A6000AB4B18880222FDF7A0F92080A94B7E22CB
:104A70009B5C002B05D1A74B02329B5C002B00D125
:104A8000CFE0A24B1B889BB2A34A1288934200D866
:104A900081E0A24B07221A70994B1888A04B1B7813
:104AA00058430A2102F0B8FA80B29E4B18809E4B00
:104AB0001A68801818609D4902F0AEFA9C4B186085
:104AC0009C4B1B68C0189C4B18609C4BDB7D022BD9
:104AD00000D10DE164235843994B198802F09CFAE8
:104AE00080B2FA239B00984200D91800FA239B0059
:104AF0001B1A9BB2934A1380924B1B889B08DBB214
:104B00008E4AD373904B1B78002B37D08F4B1B787A
:104B1000002B17D08E4B1B78002B1DD17D4B5C6B6F
:104B200028229B5C9800C018400003F01DFB011C6C
:104B3000201C03F00BF802F009FE80B2704B1B88BA
:104B4000984209D27F4BFA2292001A80794B0022B8
:104B50001A607E4B01321A707C4B1B78002B0DD0F3
:104B60007B4B1B78002B09D17A4B1A78511C19709A
:104B7000684B84215B5C9A4200D9FDE070BD624ABB
:104B800011784B1CDBB21370142B00D865E7604B17
:104B90001C80117061E75D4B1B889BB26E4A1288C6
:104BA000934203D95D4B06221A7075E7574B1B8859
:104BB0009BB26A4A1288934203D9584B05221A7055
:104BC0006AE7524B1B889BB2654A1288934203D90D
:104BD000524B04221A705FE74C4B1B889BB2614A10
:104BE0001288934203D94D4B03221A7054E7474B66
:104BF0001B889BB25C4A1288934203D9474B02221E
:104C00001A7049E7414B1B889BB2584A128893425D
:104C100003D9424B01221A703EE7404B00221A7022
:104C20003AE73A4B1B889BB2514A1288934203D908
:104C30003A4B09221A702FE7344B1B889BB24D4A1E
:104C40001288934203D9354B08221A7024E72F4B60
:104C50001B889BB2304A1288934203D92F4B0722FC
:104C60001A7019E7294B1B889BB23B4A1288934262
:104C700003D92A4B06221A700EE7244B1B889BB2DD
:104C8000364A1288934203D9244B05221A7003E74F
:104C90001E4B1B889BB2324A1288934203D91F4B8A
:104CA00004221A70F8E6194B1B889BB22D4A128811
:104CB000934203D9194B03221A70EDE6134B1B885C
:104CC0009BB2294A1288934203D9144B02221A70CC
:104CD000E2E60E4B1B889BB2244A1288934203D90A
:104CE0000E4B01221A70D7E60C4B00221A70D3E645
:104CF000FFF7EEFD134B1880FEE6C0460E140020B1
:104D00000C14002078160020340600201014002017
:104D100004140020480500209A1300205615002096
:104D200055150020081400203C150020907E00003E
:104D3000381500204415002040150020D013002015
:104D4000EA130020021400208C15002054150020C6
:104D50007A160020F01500209813002096130020EA
:104D60009413002092130020901300208E13002033
:104D70009E1300209C130020FFF7AAFD02001C4B8D
:104D8000DB7D002B30D11B4B1B889BB2952B29D888
:104D9000184B1988C9B2174B1B885B1A9A4205DB5E
:104DA000144B1B889633984200DCE7E6114B1880C1
:104DB0001B88FA208000C01A0F4B1B8858436421BF
:104DC00002F02AF90D4B18600D4B01221A700D4BA1
:104DD0001A700D4B83329B5C5B080C4A13700C4AB3
:104DE0001370CBE69621D6E70A4B01221A70C5E66E
:104DF000D013002002140020EA13002044150020E4
:104E0000741500207515002048050020F0150020BD
:104E10009F1500207A1600201E4A8A235B00D35873
:104E20001B070AD48E235B00D358DBB21A4A1278D0
:104E3000D1B2002A02D0012915D07047592B05D0D4
:104E4000164B00221A70144B1A70F6E7134A1178A9
:104E5000C9B21348435413780133DBB213700E4BBD
:104E600001221A70E9E70D4A1178C9B20C4843547F
:104E700013780133DBB213701378DBB2062BDCD965
:104E8000130000221A70044B1A70064B01321A707C
:104E9000D3E7C04600020048F1150020E7150020C6
:104EA000E0150020AE15002010B5BF4A137801337D
:104EB0001370BE4A137801331370BD4A137801335F
:104EC0001370BC4A137801331370BB4B1B78002B53
:104ED00017D110BDB949C95C8A18D2B20133DBB20F
:104EE000052BF7D9B54B9B79DBB293420CD0B24B73
:104EF00000221A70AC4B1B78032BEAD9B04B1A7006
:104F0000E7E700220023EBE7A74B00201870AB4B2C
:104F10005A7801210A40AB490A705978202421406F
:104F2000A94C21705B7821218B43A8490870102B74
:104F300019D00ED8042B00D191E0082B03D1A04B3F
:104F40000421197012E0022B10D19D4B022119701F
:104F50000CE0402B7FD0802B08D1994B0121197098
:104F60009A4B197002E0964B00211970984B1B78F0
:104F7000002B03D1974B924909781970944B01216A
:104F80001970002A00D192E1934B1B78002B10D1AD
:104F9000924B1B7C002B66D1894B1B78002B62D077
:104FA0008F4A8331515C8F4A1278914201D9042B88
:104FB00059D0894B01221A707E4B1B788A4A12788D
:104FC00093420DD27E4B1978824B1B7899421ED0AA
:104FD000864B1B78002B1AD1854B1B78002B16D1E2
:104FE000844900230B7084490B7072490A70834A0C
:104FF0001370834A1370834A1370834A1370834A71
:105000001370834A1370834A1370834A13707B4B67
:105010001B78002B00D1E4E1804B00221A706F4B0B
:105020001B7C002B0ED1664B1B78002B0AD06C4AE0
:105030008421515C6B4A1278914200D8D1E1042B53
:1050400000D0CEE15E4B1A78042A00D9BDE193006E
:10505000734AD3589F465A4B0121197086E7584B23
:105060000321197082E76F4B01221A70614B1B7884
:10507000002B27D15F4B1A705F4A13780133DBB2E4
:105080001370032B02D9130003221A70634B002202
:105090001A704B4B1B78012B54D0042B00D1D3E05A
:1050A000002B39D0544B1B780133DBB2554A1370B7
:1050B0005D4A1370524B01221A703D4B00221A7048
:1050C0003C4B1A703A4B1B78584A1278934210D2D4
:1050D0003B4B19783F4B1B78994200D16CE7434B0F
:1050E0001B78002B00D067E7414B1B78002B00D0CA
:1050F00062E7394B012119704A4900230B703D4981
:105100000B703D490B702B493748007808702849CF
:105110000A703C4A13704FE7374B1B78022B09D0BB
:10512000032BBFD1424B1A782C4B5A755A7D414BF9
:105130005A71B7E7404B1A78284B1A741A7C3D4BCA
:105140001A70AFE72C4B1B78022B13D0032BA9D17D
:105150003A4B1A78214B1A751A7D364B9A712B4BA4
:105160001B78002B0ED02B4B01221A701E4BF932EC
:105170001A7097E7324B1A78184B5A745A7C2D4B99
:105180005A708FE7204B1B78002B8BD02D4B1A7851
:10519000124B9A759A7D274BDA721D4B01221A70B9
:1051A000114BF9321A707DE7E81300200A1600202F
:1051B0009B1500209F150020AE150020E015002053
:1051C0002B06002097150020091600204D15002001
:1051D0008C1500202C0600209C150020D0130020E8
:1051E00048050020F015002072150020FC15002055
:1051F00052150020A0150020A2150020A1150020A6
:1052000075150020781500208E1500208F150020C0
:1052100091150020901500207415002073150020B2
:105220008C9600109D15002079150020A7130020F2
:10523000511500207C150020E8150020EE150020F7
:10524000F3150020FA150020C64B1B78022B16D050
:10525000032B00D026E7C44B1B78092B1FD0C34B70
:105260001A78C34BDA74DA7CC24B1A70C24B1B78C3
:105270000A2B00D016E7C14B01221A7012E7BA4B75
:105280001B78092B00D00DE7B84B1A78B84BDA74AD
:10529000DA7CB84B1A70B94B01221A7002E7B84B8E
:1052A0001A78B34B5A735A7BB64B5A72DEE7B64B39
:1052B0001B78002B0FD1B54B1B78002B00D17BE660
:1052C000B24A00231370B24A1370B24A1370B24B41
:1052D00001221A7070E6AC4B00221A706CE6A14BEA
:1052E0001B78022B10D0032B1BD0012B6DD1A04AB1
:1052F000117CAA4B1970137C59424B41DBB21374D9
:10530000127CA04B1A7060E0994A517DA44B197031
:10531000537D59424B41DBB25375527D994B5A71C3
:1053200053E001F099F950E08E4B1B78022B10D01E
:10533000032B1BD0012B48D18D4A517C994B1970FE
:10534000537C59424B41DBB25374527C8D4B5A70A3
:105350003BE0874A117D944B1970137D59424B41B4
:10536000DBB21375127D874B9A712EE08F4B1B7841
:10537000002B0FD17E4A917D8D4B1970937D594240
:105380004B41DBB29375927D7E4BDA72894B0122E1
:105390001A701AE0764B9B7C082B03D0744B9A7CD6
:1053A000854B1A70724B08229A74844B073A1A7014
:1053B0000BE06C4B1B78022B2DD0032B2FD0012B35
:1053C00025D06B4B9A7C7E4B1A70784B1B78002B48
:1053D00004D17C4B84229A5C7B4B1A707B4B01225C
:1053E0001A70784B7E229A5A002A00D103E1674B4B
:1053F0001B78002B00D19FE0664B1978744B1B780B
:10540000994200D2F7E0734B00211970F3E0584B3A
:1054100001229A74D5E7564B02229A74D1E7544B75
:1054200003229A74CDE74F4B1B78022B0CD0032B31
:105430000ED0012B04D04E4B9A7C614B1A70C4E7FE
:105440004B4B04229A74F6E7494B05229A74F2E713
:10545000474B06229A74EEE7424B1B78022B37D05B
:10546000032B52D0012B04D0414BDA7C414B1A70F4
:10547000ABE7544B84229A5C574B1B789A420DD869
:105480003B4BD97C394A1170DB7CDBB24D4A6D2134
:10549000525C934216D0364BDA74E5E7FFF718FA00
:1054A0004E4B18801B88FA208000C01A4C4B1B887A
:1054B0005843642101F0B0FD4A4B18604A4B012269
:1054C0001A70D1E73F4B6F229A5C294BDA74CBE715
:1054D000254B1B78092B08D03A4B70229A5C244B41
:1054E000DA74DA7C214B1A70BEE7214A517B244BD7
:1054F0001970537B59424B41DBB25373527B214BA2
:105500005A721E4B01221A70AEE71B4B1B780A2BF6
:1055100005D02C4B71229A5C154BDA74A4E7144A1F
:10552000937B59424B41DBB29373927B154B9A7339
:10553000124B01221A7097E7164B1878214B8421E1
:10554000595C234B1B78CB1A984251DD88424FD2CD
:10555000044B1B78002B4BD01E4B24490978197043
:1055600049E0C046A2150020981500209A15002099
:10557000D01300208B1500209915002073150020F2
:105580004E1500207C1500209C150020A015002041
:105590009D1500209F150020A1150020E815002072
:1055A00051150020F3150020EE1500209115002064
:1055B000FA1500208E150020DC1500208F15002024
:1055C0008D1500204805002072150020751500205B
:1055D000A613002078150020F015002002140020EA
:1055E000EA130020441500207415002079150020CE
:1055F000CC4B00211970CC4B00211970CB4B9B7CFC
:10560000D9B2062B00D1D1E0082900D0DEE0C84B8A
:1056100078315B5C002B0AD1C54B01395B5C002BF8
:1056200005D1C34B46315B5C002B00D1A8E0C14BD8
:105630001B78012B00D886E0BF4B1A78BB4B9A74BD
:10564000BE4B00221A70BE4B1A70BE4BBE4A127877
:105650001A70B64B9A7C013AB64B1C78BB4B910042
:105660008A189B18185DBA4B1870BA4B1B78002B20
:1056700008D0AF4BCF229B5C5843642101F0CCFC97
:10568000B34B1870A94B5B7D002B00D1A7E1B24B47
:105690001B78002B00D197E1B04B1B78002B00D07A
:1056A00092E1AF4B1B78002B00D08DE1AD4B1B7806
:1056B000002B00D088E1AC4B1B78002B00D083E19D
:1056C000AA4B1B78002B14D1A84A01331370A84AA7
:1056D00013709B4A13709B4B00221A70A54B1A70D3
:1056E000A54B1C70A54B1B78002B00D10EE1964AF0
:1056F0001370A04B1B78A14AD25C002A02D1914AB8
:10570000002111705A1C9E4909788A4200DB51E140
:105710008C4A11788C4A1278043A914204DA964AFB
:105720001278944200D15AE1864A00211170013367
:10573000DBB2904A1370914AD35C002B00D1EBE0AE
:10574000814A13704BE17F4B19787F4B1B7899424C
:1057500000D371E7794B1B78002B05D1774B0121E2
:105760001970784B00211970864B1B78002B13D0D1
:10577000854B1B78002B0FD0844B012119700EE054
:105780006C4B1B78012B00D056E76E4B19786E4B93
:105790001B789942DED34FE77C4B00211970002A19
:1057A00000D156E75F4B00221A7052E7754B1B7809
:1057B000002B07D0744B1B78002B03D0744B0122B5
:1057C0001A7046E7724B00221A7042E7584B882243
:1057D0009B5C002B16D06B4B1B78002B0FD06A4BB9
:1057E0001B78002B0BD06B4B1B78002B07D15A4B2F
:1057F0001B78002B03D0684B873A1A7002E0664B87
:1058000000221A704A4B64229B5C002B00D120E7D7
:105810005C4B1B78002B1DD05B4B1B78002B19D0E9
:105820005D4B1B78002B15D1404B5B7CDBB25B4A98
:10583000D35C002B0ED0574B1B78002B00D008E711
:10584000544B01221A70394B997C3B4A1170072244
:105850009A74FEE6364BAF229B5C002B46D0344B4D
:105860004A3A9B5C002B41D04A4B1B78002B00D15D
:10587000EFE64B4B1B78002B09D1494B643A1A7069
:10588000484B00221A70484B2A4A12781A70284B4B
:10589000B0229A5C434B1B789A421BD9254B1A784D
:1058A000414B1B789A420BD0234B1A781F4B9A74AA
:1058B000384A002313703A4A13703C4A1370C8E602
:1058C0003B4B1B78002BEFD1184B5B7C002B00D19E
:1058D000BFE6E9E7184B1A78144B9A742D4A002357
:1058E00013702F4A1370314A1370B2E6294B1B789C
:1058F000002B03D0104B1A780C4B9A74254A0023C6
:105900001370274A1370294A1370A2E6084B8422A9
:105910009A5C0D4B1A70ECE6054B84229A5C0A4B9C
:105920001A705CE078150020A1150020D01300202B
:10593000480500202B060020DC150020FC15002067
:10594000751500209F15002072150020B415002049
:10595000B11500204D1500209C150020A215002037
:10596000741500209115002090150020521500207C
:1059700053150020621500202C0600206C15002015
:1059800050150020091600208C150020FD15002060
:105990005D15002012160020EC15002010160020C6
:1059A0000B1600200A1600201316002014160020E3
:1059B000841600204A4B1A784A4B1B789A420ED321
:1059C000494B00221A700AE0484B1B78002B06D086
:1059D000464A00231370444A1370454A1370454BDE
:1059E0001C70454B63229B5C002B0AD0434B1B78F9
:1059F000002B03D1424B1B78002B4BD0414B012293
:105A00001A70414BDB78DBB2404A13703A4AB92135
:105A1000525C002A42D03E4AE12189004B43138068
:105A2000354B83229B5C002B09D0374B5B79DBB273
:105A3000384A13705278934201D2364A5370364B2B
:105A40009B7C072B03D0354B1B78002B2BD02A4B8C
:105A5000AE22985C0A2101F0DFFAC0B22E4B987298
:105A60002D4C627C2E4B9200D0582E4B198801F0A1
:105A7000D3FAC1B22C4B19702C4B1878FCF78FF964
:105A80002B4B1870A37DDBB22A4AD25C2A4B1A70CA
:105A9000FFF72DFA1B4B00221A70B2E71C4A274968
:105AA0004B431380BCE71C4B5B7CDBB2244AD35CCA
:105AB000022B06D0184A537CDBB21649CB5C93729A
:105AC000CEE7204B1B78002BF4D00B4BAE22985C1A
:105AD0000A2101F0A1FAC0B20F4B9872C0E7C0468C
:105AE0009F1500207215002053150020521500202C
:105AF000751500202C060020480500209C1500206C
:105B00009D1500209E150020E0150020A615002000
:105B10001814002018160020D0130020EC150020C7
:105B20002C1500200E1400204915002048150020D7
:105B300028060020AC150020A91500209B050000B8
:105B4000F8150020F615002070B5B14B1B78002B1E
:105B500001D100F06BFCAF4B43221A70AE4B002218
:105B60001A70AE4A137801218B431370AC4B7E221E
:105B70009B5C002B04D1AA4B02329B5C002B42D0D1
:105B8000A84B1A78072A0CD89300A74AD3589F46E7
:105B9000A24A137801210B43DBB213709D4B002204
:105BA0005A709F4B7F229B5C002B69D09F4B1988BA
:105BB0001A78984BDA709E4B1B8899425CD29B1ADC
:105BC000DBB2944A137164E0924B00225A70E8E70A
:105BD000904B02225A70E4E78E4B06225A70E0E79F
:105BE0008C4B09225A70DCE78A4B0C225A70D8E79A
:105BF000884B0C225A70D4E7864B0C225A70864B85
:105C00000B3A1A70CDE7874B1A78092AC9D8930046
:105C1000884AD3589F46814A137801210B43DBB24F
:105C200013707C4B00225A70BBE77A4B00225A70EB
:105C3000B7E7784B02225A70B3E7764B04225A70CA
:105C4000AFE7744B06225A70ABE7724B08225A70CA
:105C5000A7E7704B0A225A70A3E76E4B0C225A70CA
:105C60009FE76C4B0C225A709BE76A4B0C225A70D0
:105C7000694B0B3A1A7094E7664B00221A7108E0E0
:105C8000674BC5229B5C002B1ED1624B4622DA700B
:105C90001A7100F0CBFF1238FF38502802D95E4B42
:105CA00006221A70644B1B78042B1FD0624B1B78A2
:105CB000002B1ED0584B1B78002B1AD15E4B1B7843
:105CC000DBB2554A137014E05C4B1B78514CE37007
:105CD0005B4D29885B4B1888BD3AFCF766F8288035
:105CE000642101F099F9C0B22071D2E74A4B042235
:105CF0001A70494B1B78002B5ED0534B1B78002B3E
:105D00005AD1474B80229B5C002B38D0424B1B78EA
:105D1000092B11D0404B1B78012B16D03E4B1B7822
:105D2000052B1BD03C4B1B78072B20D03A4B1B7804
:105D3000DBB2384A53719AE0444B1B78002B00D1F8
:105D400095E0344B783A5A7191E0404B1B78002B28
:105D500000D18CE02F4B06225A7188E03B4B1B7818
:105D6000002B00D183E02B4B03225A717FE0374B8D
:105D70001B78002B7BD0274B04225A7177E0284BED
:105D80007E229B5A002B11D0314B1B78002B03D164
:105D9000304B9B7B002B03D01E4B00225A7166E0D8
:105DA0001D4B1B78DBB21B4A537160E01A4B1B780A
:105DB000DBB2184A53715AE0234B1B78002B53D0A7
:105DC000254A1278002A14D1244A1278002A10D0C9
:105DD000204A127C002A0FD1214A1278002A0BD0C7
:105DE0000F498420085C1F490978884201D9042A98
:105DF00002D0084A53713AE0144A1278002A02D0BD
:105E0000044A537133E0034B00225A712FE0C0461D
:105E10008C15002000160020771500201A1600208F
:105E20004805002056150020A0960010FC13002005
:105E3000F0130020C0960010F41500205515002026
:105E40000614002008140020781500206A15002090
:105E500053150020D0130020A0150020A21500200B
:105E60002B060020F0150020C34B00225A71C34BB3
:105E70001B78002B00D191E2C14B1B78002B25D160
:105E8000C04B84229A5CC04B1B789A4203D9BF490D
:105E9000097804291AD0BE490978002900D1A9E05F
:105EA0009A4200D8A6E0B94B1B78042B00D1A1E0A0
:105EB000B84B1B78002B00D19CE001296CD0022943
:105EC00000D184E0B44B00221A800DE0AD4BB92222
:105ED0009B5C012B53D0B14B198889B2AE4CB04BAF
:105EE000188801F099F82080AB4B1B88002B00D15B
:105EF0004FE2D9B2A04A91711B0AD371A14B822201
:105F00009B5C002B05D0A74A137804210B43DBB21E
:105F100013709C4B81229B5C002B23D0A24B1B88CF
:105F2000002B00D15BE29F4A1378802149420B434A
:105F3000DBB213709D4B1B78DBB20A2B00D854E206
:105F4000984A137840210B43DBB21370954B1B78B2
:105F50003F22934300D14EE2924A137804210B432F
:105F6000DBB213708F4B1A781F210A4082498A7066
:105F70001A783B210A401A700022002347E2874B1F
:105F8000198889B2844C864B188801F045F8830043
:105F9000C01840002080A7E77A4BB9229B5C012BF8
:105FA00009D07E4B198889B27B4C7D4B188801F053
:105FB00033F8208098E7794B198889B2764C784B72
:105FC000188801F029F80A23434323808CE76D4B9E
:105FD0002B22985C764B1B885843642101F02CF8E7
:105FE00081B2744B19806C4C6D4B188801F014F819
:105FF000208079E7704B1B78002B0DD0664C684DE4
:106000006E4B18880A2101F007F80100288889B230
:1060100001F002F8208067E7694B1B78002B0BD05A
:10602000684B1B789900C91849005D4B188801F02E
:1060300003F8594B188057E7634B1B78002B09D0A6
:10604000624B198889B2544C554B188800F0E4FF14
:10605000208049E75E4B1A785E4B1B789A4223D822
:106060004C49097800291FD048480078012803D9F5
:10607000594C2478002C17D04A1E584B91008A188E
:106080009B181B5C002B0AD0012B00D02CE7424C44
:10609000434B1888692100F0BFFF208024E73E4B66
:1060A0003F4A12881A801FE79A4207D8394909786F
:1060B000002903D035490978042911D09A421BD808
:1060C000344B1B78002B17D0454B1B786421594368
:1060D0000531334B188800F0AFFF2F4B188003E7D2
:1060E000404B1B786031594305312D4B188800F027
:1060F000A3FF294B1880F7E63B4B3C4A12789B5C88
:106100000C2B00D9F0E69B00394AD3589F461D4B13
:10611000B9229B5C012B08D01F4C214A354B1088BB
:10612000198800F079FF2080DEE61B4C1C4A314BB9
:106130001088198800F070FF0A2343432380D3E6B8
:10614000104BB9229B5C012B09D0144B198889B2E2
:10615000114C134B188800F05FFF2080C4E60F4BF2
:10616000198889B20C4C0E4B188800F055FF0A2391
:1061700043432380B8E6C046001600207515002072
:106180007415002048050020F01500202B06002083
:1061900076150020A21500201614002002140020FD
:1061A000181400201A160020241400208E16002037
:1061B0000C1400200A140020FD1500202A140020D1
:1061C00090150020A9150020911500205C160020D4
:1061D0009F15002072150020731500207C150020EB
:1061E0008D1500208B1500206415002062150020FD
:1061F000E896001022140020934B2B22985C934BBE
:106200001B885843642100F017FF81B2904B19801E
:10621000904C914B188800F0FFFE208064E68E4B76
:1062200018888E4B197800F007FF8A4B18805BE6C0
:106230008B4C21888B4B18880822FBF7B6FD2080F9
:10624000814BB9229B5C012B0BD0824C824D0A21E1
:1062500000F0E2FE0100288889B200F0DDFE208017
:1062600042E67C4C7C4B1B880100180000F0D4FEF9
:10627000208039E67C4B1988764C774B1888890842
:1062800000F0CAFE20802FE6784B198889B2714C45
:10629000714B188800F0C0FE208025E66A4BB922B9
:1062A0009B5C012B0AD0724B1978632911D96A4B78
:1062B000188800F0C1FE674B188015E66C4B1B7800
:1062C0000A215943644B188800F0B6FE614B1880D0
:1062D0000AE60A235943604B188800F0ADFE5D4B77
:1062E000188001E6634C2188634B18880822FBF76D
:1062F0005CFD2080574C584D0A2100F08DFE0100B6
:10630000288889B200F088FE2080EDE5514C524A81
:106310005A4B1088198800F07FFE2080E4E54A4B34
:10632000B9229B5C012B0CD0554B18680A2100F058
:1063300073FE0100484B188800F06EFE454B188034
:10634000D2E5454B18884E4B196800F065FE414B6D
:106350001880C9E53F4C404A4A4B1088198800F024
:106360005BFE2080C0E5484B187864235843474BB8
:10637000197800F061FE83B2013B9BB2444A13805E
:106380000A215943344B188800F046FE314B1880DF
:10639000AAE5404B07229A71DA71AFE53E4B1888A7
:1063A000002817D0284BD0229B5C002B0CD000017A
:1063B0000A2100F041FE80B2384B1880C2B2354B42
:1063C0009A71000AD87199E5C2B2324B9A71000AEB
:1063D000D87193E52F4B07229A71DA718EE5304A16
:1063E00013787F210B401370A4E52D4A13784021C8
:1063F0008B431370AAE52A4A137804218B43137048
:10640000B0E52449C95C8A18D2B20133DBB2072B4C
:10641000F7D9204B1A72234A8A235B00D3581B0EEC
:106420007F221A401E239B1A092B00D870BD00231F
:10643000082BFBD8174AD25CD2B21A48C0214900B7
:1064400042500133DBB2F3E7480500200C14002072
:106450000A140020161400201814002055150020DE
:1064600006140020081400205A1600205C16002094
:10647000A71500201C1400201E140020F213002079
:1064800040150020201400208E1600203506002024
:106490001A140020001600202414002014140020D8
:1064A0001A1600200002004810B52C4B1B889BB226
:1064B0002B4A934204D8294B1B889BB2092B24D822
:1064C000284B00221A80FCF709FDFDF78BFBFCF737
:1064D00023FD254B187800010A2100F09DFD234B78
:1064E0001870FDF7DFFB224B1A78511C197003233B
:1064F0001340022B2ED011D8002B16D0012B16D111
:10650000FDF7FCFCFCF73AFE11E0144B198889B248
:10651000184800F081FD134B1880D4E7032B06D1F7
:10652000FCF712FDFEF782FA01E0FEF7BDFCFDF775
:10653000E5FE114B9978114A1180D978104A1180E3
:106540001979104A118059790F4A11809A790F4BA5
:106550001A8010BDFFF7F8FAE9E7C04648060020A8
:10656000FFEF0000201400207816002055150020B1
:106570005A15002090D003007C160020BC13002088
:10658000BE130020C0130020C2130020C41300203B
:1065900030B589B020220021684602F0A9FE2A4BBE
:1065A0001A682A4B9A4240D0294B284A1A60294A35
:1065B0002221515C19712A21515C88000918480078
:1065C000D8806021515A19816221515C9972518A97
:1065D000D97200211973907D58739973D9736931F9
:1065E000515C19746821515C59746E21515C997425
:1065F0006D21515CD9746B21515C19758721515CF7
:106600005975C321515CD9756C21525C9A756946E4
:106610000A00180038C838C238C838C2002302221D
:10662000094800F027FA09B030BD6C46022221006B
:10663000054800F053FA06490B00220031CA31C365
:1066400013CA13C3EFE7C04600FF0010BBAA000047
:10665000D01300204805002030B589B06C462022B8
:106660000021200002F044FE074B2200190029C936
:1066700029C229C929C2002302222100034800F0AF
:10668000F9F909B030BDC046D013002000FF00105A
:10669000024A1368013313607047C0462416002075
:1066A000F0B5DE4657464E464546E0B589B0844BC8
:1066B00000E0013B002BFCD1FBF71AFB002800D0C7
:1066C00001BE002309E07F4AD25C7F49CA5412020E
:1066D0007E49980042500133DBB2072BF3D9FAF719
:1066E00017FE012300930023002200210020FAF767
:1066F000D5FD77490020FAF7C5FDA021C9050B6833
:10670000744803408022920013430B6072490B6867
:1067100003401A430A60714B1868FA21890000F09F
:106720007BFC013880235B0498420DD26C4A506098
:106730006C48036A1B021B0AC02109060B43036253
:10674000002393600733136005AC0C220021200066
:1067500002F0CEFD23780C221343237063790F22BD
:10676000934691464A4613436371DBB260229046DA
:10677000424613436371A3795A4693430426334335
:10678000A371237A33432372574882256D004359FE
:106790000C3A924693434351435901273B4343519B
:1067A000210000F009FF02AC0C220021200002F0C1
:1067B0009FFD23780C2293430822134323706379AF
:1067C0004A4613436371DBB2424613436371A379B4
:1067D0005A4693433343A371237A33432372434886
:1067E000435952469343435143593B43435121003C
:1067F00000F0E2FE00F010FA3D4C3E4DA560FBF7C4
:10680000A5FEFFF7C5FEFDF747FFA56000F09AF86B
:10681000394B00221A70394B9F60394BC5218900D2
:106820005A58384D2A405A508021C9031960C6224F
:1068300092009C58344804408020C0012043985066
:106840008020800418609858284001439950802285
:10685000D2041A602D4B196B802252000A431A632E
:106860001A6B2B490A401A6309E0284B196B8022E6
:1068700052000A431A631A6B25490A401A63254BD2
:106880009B68DB07F1D5244B1A68244B1A60184B20
:10689000184A9A60224B1B78002B0DD01E4B1B68A8
:1068A000204A12689B1A192BF1D91B4B1A681D4BF1
:1068B0001A60FFF7F9FDEAE7FEF7AEFAEEE7C04629
:1068C000C0270900500600207C1600202816002052
:1068D0001C970010FFFCFFFF00000448FC3F002055
:1068E00010E000E000ED00E0000403480008034869
:1068F00000000240FECAADAB3C0600200000015083
:1069000000E100E0FFFF00FFFF00FFFF000001408B
:10691000FFFEFFFF0001005024160020201600207B
:10692000AE1500201C1600200323034A1361034AFE
:106930001361034A136170470001005000020050C8
:106940000003005010B500F048F80B4A536A9B084A
:1069500001211940094B1960516A02240C40196841
:1069600021431960526A9200042111401A680A43B7
:106970001A6000F036F810BD000104404C160020EB
:1069800010B5FFF7DFFF0D4B196B802252000A4351
:106990001A631A6B0A490A401A6309E0074B196B1C
:1069A000802252000A431A631A6B05490A401A638F
:1069B000044B9B68DB07F1D510BDC04600000140C9
:1069C000FFFEFFFF000100500230800803D00138B5
:1069D000FDD1C046C046C0467047EFF3108072B686
:1069E000704780F310887047064B1A89802149014F
:1069F0000A431A8148215A5A8020000102435A5200
:106A00007047C0460000054010B50D4A13681B0AC8
:106A1000FF210B400B480360126811400A4A1160C5
:106A2000002B08D01B02C918084800F0F5FA4000F6
:106A3000074B186010BD064B064A1A60FAE7C046BD
:106A4000000301409C16002098160020000024F44A
:106A5000FC3F00200048E80110B5FFF7C5FFFBF739
:106A600039F910BD70470000014B188880B270479B
:106A700000000540F8B504000D001700164A918883
:106A8000FF20814391809188C02080010143918043
:106A9000002B06D0938861210B439BB29380002684
:106AA0000BE00D4A9388A1210B439BB29380F6E73C
:106AB000FFF7DAFFC007FBD40136BE4206D200233F
:106AC000032BF5D802CD02C40133F9E7024A9388BB
:106AD000FF218B439380F8BD0000054030B50025B1
