:020000041000EA
:10100000480500201910001000000000A310001077
:1010100000040100000100001249134A134B00F0C4
:101020001AF8134880471349134A144B00F013F879
:101030001349144A144B00F00EF81449144A0020C6
:10104000521A02DD043A8850FCDC124880471248EC
:101050008047124880479B1A03DD043BC858D05094
:10106000FBDC7047D49400100C00002044010020E9
:10107000996500100C9600104805002028070020F4
:10108000EC97001028070020A0190020A0190020CC
:101090009C3D0020A1100010618E0010D162001054
:1010A0007047FEE710B582B06B46354ADA80354BA3
:1010B000354A1A60354B0121C022520099508020D8
:1010C0001A58334C22401A508022120231480260D2
:1010D00031480260812292009950304A8423802155
:1010E000C904D1501DE029498122920088588023EB
:1010F0009B0003438B50294AFC235B00D358002BF1
:10110000F9D0C0239B00D358009380231B02214AAF
:101110001360214A13606B469A1DDB88013B9BB22A
:1011200013806B4606331B889BB2002BDBD1009BE0
:101130000023009305E080231B02164A1360164A21
:101140001360174B1B6C1B0FF5D1104B80215858A7
:10115000C022920202435A5000228531FF315A5078
:1011600084395A500D4B9532FF328039FF399950EE
:1011700083315A580B4802405A5002B010BDC04645
:1011800050460000BC4003480004103F00000348E4
:10119000FFFFFC7FE0400348E440034800040348AD
:1011A00000400348FFFFFFFB00B583B00023124A55
:1011B0001360124A13600321114805F025FF1149FD
:1011C00080228858104B03438B501423019308E06E
:1011D000019B013B019380231B02074A1360074ACE
:1011E0001360019B002BF3D1FFF75CFF0021044843
:1011F00005F00AFF03B000BDE0400348E4400348A7
:10120000000403480000034800000180F8B552497B
:10121000524D280005F070FE5149524E300005F045
:10122000B3FE5149514C200005F0AEFE03213000C1
:1012300005F0EAFE0321200005F0E6FEFFF7B4FF0B
:101240004B49280005F016FF4A49200005F06EFFC3
:1012500082225200A1588023DB000B43A350434A53
:1012600084235B00D3589B06F9D5140082235B00CE
:10127000D25803208243E250E25801210A43E2504F
:10128000384DEA588243EA50EA580A43EA503A4B4A
:101290001A6888235B00E250384A1268E250384AE4
:1012A0000021200005F07AFF364A0121200005F0D8
:1012B00075FF354A0021280005F070FF334A0121EF
:1012C000280005F06BFF0021280005F09DFE00219D
:1012D000200005F099FE00220121280005F09CFE67
:1012E0000021280005F0AAFE200005F0A0FE032141
:1012F000200005F089FE0321280005F085FEB023BB
:10130000234AE2500422FF32EA50224A06212000FA
:1013100005F044FF114EC2277F00F35940221343CA
:10132000F3511D4A0721200005F038FFF3598024AE
:101330002343F351194A0721280005F02FFFC0224B
:101340005200B3582343B3508432B15880239B00DA
:101350000B43B350F8BDC046780500200000034899
:10136000B005002000040348E405002000080348FD
:101370000C06002000060020F8050020FC050020D7
:10138000C4050020D405002090050020A005002001
:1013900003040000680500204805002058050020CF
:1013A00010B500F007F800F02BFA10BD10B5FFF7EC
:1013B000F7FF10BDF0B5DE4657464E464546E0B550
:1013C00085B0DE4E0021300005F054FA80235B002A
:1013D0009846F360DA49DB4F380005F065FA0223DE
:1013E0009A46FB6304247C638021C904300005F025
:1013F00053FA07233361D44A0121380005F095FAE6
:10140000D24A0221380005F090FAD14A032138006F
:1014100005F08BFA01220121380005F06BFA012258
:101420000221380005F0BAFAA4257B5923437B51E9
:1014300001218B46F16000243C67F960C549C64F25
:10144000380005F048FAC54B7B6380210905300060
:1014500005F022FA70213161C14A6F39380005F078
:1014600064FAC04A0221380005F05FFABE4A03213F
:10147000380005F05AFA0121380005F04FFA5046BD
:10148000F0603C675846F860B849B94F380005F03D
:101490000BFAA023FB63B74B7B63802189053000E7
:1014A00005F0FAF9E020C0013061B34A01213800AB
:1014B00005F03BFAB14A0221380005F036FAB04A8D
:1014C0000321380005F031FA0822F2603C675E46DD
:1014D000FE60A026F6050021300005F08BFA474695
:1014E000F760A849A84F380005F096FAD2239B0070
:1014F0009846FB637C64D223DB00994619003800D0
:1015000005F0F5FA8021C904300005F0A0FA0723A0
:1015100033619E4A0121380005F0B6FA9C4A022147
:10152000380005F0B1FA9B4A0321380005F0ACFA07
:1015300001220121380005F093FA9749380005F09F
:10154000FDFA3C679549964F380005F065FA434629
:10155000FB637C644946380005F0C9FA802109051F
:10156000300005F074FA702131618E4A6F3938000D
:1015700005F08AFA8C4A0221380005F085FA8B4A78
:101580000321380005F080FA01220121380005F01E
:1015900067FA8749380005F0D1FA3C678549864FDC
:1015A000380005F039FA4146F9637C644946380051
:1015B00005F09DFA80214905300005F048FAE02346
:1015C000DB0033617D4A0121380005F05DFA7C4A79
:1015D0000221380005F058FA7A4A0321380005F054
:1015E00053FA01220121380005F03AFA7649380011
:1015F00005F0A4FA3C677549754F380005F00CFA00
:101600004146F96379644946380005F070FA802153
:101610008905300005F01BFAE020C00130616D4AF9
:101620000121380005F030FA6B4A0221380005F03C
:101630002BFA6A4A0321380005F026FA012201211B
:10164000380005F00DFA03220021380005F052FAA7
:1016500002220121380005F04DFA00220421380051
:1016600005F048FA01220321380005F043FA7B59BE
:10167000584603437B517B59504603437B517B596A
:10168000102213437B517B5908210B437B513C674C
:10169000534D280005F086FA2B680326B3432B60D0
:1016A0005049280005F08AFA4F49280005F090FAC1
:1016B00000220221280005F096FA6B6F04221343E2
:1016C0006B674A494A4D0022280005F097FAEB69FA
:1016D00050229343EB61EB69493A93433343EB6107
:1016E000EA6B444B1A4080231B011343EB63424BCC
:1016F0002B610C360296019400943A2300220021BB
:10170000280005F07BFB1F2305220021280005F09F
:10171000A5FB1F2305222021280005F089FB2B6C47
:10172000B343524613432B64344805F077FD05B0AC
:10173000F0BCBB46B246A946A046F0BD0000044836
:10174000088F001000010448108F0010148F001043
:10175000188F0010248F001000020448FFFF0000C3
:101760002C8F0010308F0010348F0010CC8F0010A1
:1017700000040448FF040000D48F0010D88F00102C
:10178000DC8F0010388F001000010050548F0010C3
:10179000588F00105C8F0010488F0010608F001071
:1017A000000200507C8F0010808F0010848F00108A
:1017B000708F0010888F001000030050A48F00105D
:1017C000A88F0010AC8F0010988F0010B08F001001
:1017D00000040050C08F0010C48F0010C88F00108C
:1017E00000000150208F00101C8F0010FC8E001094
:1017F00000020048FFE0FFFF21810000E08F0010A1
:1018000010B57F4A7F4C0021200004F015FF002214
:101810000021200005F099F97B4A0A21200004F0FC
:101820000BFF00220A21200005F08FF9774A0D21D5
:10183000200004F001FF00220D21200005F085F9B1
:10184000734A0121200004F0F7FE0022012120004C
:1018500005F07BF96F4A0221200004F0EDFE002222
:101860000221200005F071F96B4A0321200004F0E9
:10187000E3FE00220321200005F067F9674A0421F6
:10188000200004F0D9FE00220421200005F05DF9BB
:10189000634A0521200004F0CFFE0022052120002C
:1018A00005F053F95F4A0621200004F0C5FE00222E
:1018B0000621200005F049F95B4A0721200004F0C9
:1018C000BBFE00220721200005F03FF9574A0821FE
:1018D000200004F0B1FE00220821200005F035F9B7
:1018E000534A0921200004F0A7FE0022092120000C
:1018F00005F02BF94F4A504C0021200004F09CFECB
:1019000000220021200005F020F94C4A012120008E
:1019100004F092FE00220121200005F016F9484A49
:101920000221200004F088FE00220221200005F0A0
:101930000CF9444A0321200004F07EFE002203211A
:10194000200005F002F9404A0521200004F074FE51
:1019500000220521200005F0F8F83C4A3C4C0A2101
:10196000200004F069FE00220A21200005F0EDF8B5
:10197000384A0B21200004F05FFE00220B212000DA
:1019800005F0E3F8344A0221200004F055FE00225D
:101990000221200005F0D9F8304A0421200004F08B
:1019A0004BFE00220421200005F0CFF82C4A05212F
:1019B000200004F041FE00220521200005F0C5F8BA
:1019C000284A0621200004F037FE002206212000CC
:1019D00005F0BBF8244A0821200004F02DFE002267
:1019E0000821200005F0B1F8204A0921200004F068
:1019F00023FE00220921200005F0A7F810BDC046F3
:101A00006490001000000440249000104C900010DE
:101A10006C900010749000107C9000105490001096
:101A2000449000101C90001014900010849000103E
:101A30008C9000103C900010000104403490001085
:101A40002C900010949000105C90001004900010F6
:101A5000000204400C900010A4900010EC8F0010C5
:101A60009C900010AC900010F48F0010FC8F0010C0
:101A700030B585B001A8044B020032CB32C204F06D
:101A8000CFFE05B030BDC046B490001010B5FFF7D2
:101A90008DFC002010BD70B505000E001C0004ABCD
:101AA00018888D421FD395421ED2521A91B2A0427D
:101AB0000CD2AE1BB6B2201A80B270434B08C018CD
:101AC00005F050F880B2201A80B20DE0AD1BADB227
:101AD000001B80B268434B08C01805F043F880B281
:101AE000001980B200E0200070BD70B51D0004AB8D
:101AF0001B7888421DD990421DD2AB420CD2441AA9
:101B0000E4B2E81AC0B26043511AC9B205F03AF81B
:101B1000C0B2281AC0B20DE0441AE4B2581BC0B2D9
:101B20006043511AC9B205F02DF8C0B24019C0B2D5
:101B300000E0280070BD1800FCE7030008008B429D
:101B400000D21800704770B505000C000A2A15D89D
:101B50000A20801A68434A43801805300A2105F09C
:101B600001F880B284420AD1854202D9013080B2A4
:101B700005E0854203D2013880B200E0002070BD4C
:101B8000002803D0044B20225A607047024B802269
:101B900092035A60F9E7C04600010440F0B5DE4602
:101BA00057464E464546E0B587B0ED4CE28C019273
:101BB0002C23E05C5043642104F0D4FFE94B1880EF
:101BC000227EE94B1A70638BB722A65C9B1BE74A07
:101BD0001380C023E25CE64B1A708423E75CE54B7C
:101BE0001F707A08E44B1A707E23E35C002B04D14B
:101BF0008022A35C002B00D11EE2D94C236B9B46B4
:101C0000DE49181C05F052FD05F050FBDC4B188036
:101C1000636B9A46D949181C05F048FD05F046FB50
:101C2000D84B1880A36B9946D449181C05F03EFD8B
:101C300005F03CFBD44B1880E36B9846CF49181C49
:101C400005F034FD05F032FBD04B1880236CCB49F6
:101C50000293181C05F02AFD05F028FBCC4B1880D8
:101C6000626CC6490392101C05F020FD05F01EFBB6
:101C7000C84B1880E56DC149281C05F017FD05F01B
:101C800015FBC54B18802823E05C06F01DF8041CEA
:101C9000C249584605F00AFD011C201C05F006FD4E
:101CA00005F004FBBE4B1880BC49504605F0FEFC15
:101CB000011C201C05F0FAFC05F0F8FAB94B18805D
:101CC000B649484605F0F2FC011C201C05F0EEFC6C
:101CD00005F0ECFAB44B1880B049404605F0E6FC3C
:101CE000011C201C05F0E2FC05F0E0FAAF4B188067
:101CF000AA49029805F0DAFC011C201C05F0D6FC6C
:101D000005F0D4FAAA4B1880A449039805F0CEFC3C
:101D1000011C201C05F0CAFC05F0C8FAA54B188070
:101D20009E49281C05F0C2FC011C201C05F0BEFCCD
:101D300005F0BCFAA04B1880894BB6229D5CAB0025
:101D4000ED186D009D4B1D809D4B1D804F2D00D9C2
:101D500046E29C4B663A1A80814CB823E25C9A4B6F
:101D60001A709A4B1F70BD23E25C994B1A7069235D
:101D7000E25C984B1A708723E25C974B1A706823D9
:101D8000E25C964B1A706C23E25C954B1A70A27D54
:101D9000944B1A706423E25C934B1A70BC22A25CD1
:101DA0005A707023E25C914B1A707123E25C904B85
:101DB0001A706D23E25C8F4B1A70E27D8E4B1A70A5
:101DC0002B23E05C019B5843642104F0CBFE654B60
:101DD00018802923E25C894B1A70894B1E80894B3D
:101DE0001E8032003C3A884B1A80884B1E80227D30
:101DF000874B1A706223E25C864B1A707622A25CD3
:101E00005A70C823E25C844B1A70CD23E25C834B8A
:101E10001A70CE22A25C5A70814B1D70694A1288DA
:101E20005A70C423E25C7F4B1A706B23E25C7E4BDA
:101E30001A708F23E25C7D4B1A709022A25C5A705C
:101E40009122A25C9A709222A25CDA709322A25C28
:101E50001A719422A25C5A718923E25C744B1A7045
:101E60008A22A25C5A708B22A25C9A708C22A25C9D
:101E7000DA708D22A25C1A718E22A25C5A716D4BAF
:101E800000221A709621665A7608F6B25E70023108
:101E9000655A6D08EDB29D700231605A4008C0B2BB
:101EA000D8700231615A4908C9B219715A719E2716
:101EB000E75D9F719F27E75DDF71A027E75D1F72D8
:101EC000A127E75D5F729A72A227E75DDF72A32701
:101ED000E75D1F73A427E75D5F73A527E75D9F7329
:101EE000DA73A627E75D1F74A727E75D5F74A8274D
:101EF000E75D9F74A927E75DDF741A755E759D75B0
:101F0000D87519765A76B121615C9976B221615CF7
:101F1000D976B321615C1977B421615C59779A77DE
:101F2000AA21615CD977AB21605C8B3958548C3124
:101F3000605C8B3958548C31605C8B39585401315A
:101F40005A5401315A5401315A5401315A54013111
:101F50005A5407B0F0BCBB46B246A946A046F0BDF5
:101F600018060020DA390020A13B0020F4390020B7
:101F7000443B002091390020903900200000C842E5
:101F80009E3900209C3900209A3900209839002081
:101F90009639002094390020923900200000204119
:101FA0008439002082390020803900207E390020C9
:101FB0007C3900207A390020783900208E390020C1
:101FC0008A3900208C390020493B00206A3B0020E0
:101FD0006E3B0020E03B00204A3B0020EB3B002012
:101FE000F63B0020473B00200C3C0020903B0020AB
:101FF000913B0020923B0020483B00209D3B00206D
:10200000EA390020EC390020F0390020EE390020B8
:10201000F73B0020143C00208B3B0020F43B0020C9
:10202000583B0020E53B0020E63B00205C3B0020C5
:10203000643B0020AC3B00206B4C236B9846181C83
:1020400006F056FD0022694B05F0D8FE05F046F972
:10205000674B1880636B0293181C06F049FD002241
:10206000624B05F0CBFE05F039F9624B1880A26B8C
:1020700091466149101C05F019FB05F017F95F4BFB
:102080001880A26C92465C49101C05F00FFB05F00D
:102090000DF95B4B1880E26C93465749101C05F014
:1020A00005FB05F003F9574B1880226D5249039246
:1020B000101C05F0FBFA05F0F9F8534B1880616D20
:1020C0000D1C4D490495281C05F0F0FA05F0EEF8BA
:1020D0004E4B1880A16D0D1C47490595281C05F035
:1020E000E5FA05F0E3F84A4B1880E56D4249281CF3
:1020F00005F0DCFA05F0DAF8464B18802823E05C9E
:1021000005F0E2FD041C4449404605F0CFFA011CED
:10211000201C05F0CBFA05F0C9F8404B18803E4969
:10212000029805F0C3FA011C201C05F0BFFA05F067
:10213000BDF83B4B18803849484605F0B7FA011CFA
:10214000201C05F0B3FA05F0B1F8364B188032497F
:10215000504605F0ABFA011C201C05F0A7FA05F06B
:10216000A5F8314B18802C49584605F09FFA011C00
:10217000201C05F09BFA05F099F82C4B1880264995
:10218000039805F093FA011C201C05F08FFA05F066
:102190008DF8274B18802049049805F087FA011C18
:1021A000201C05F083FA05F081F8224B18801A49AB
:1021B000059805F07BFA011C201C05F077FA05F064
:1021C00075F81D4B18801449281C05F06FFA011C86
:1021D000201C05F06BFA05F069F8184B1880ABE588
:1021E000174B1D80B8E5C046180600200000594076
:1021F000A2390020A03900200000C8429E390020EA
:102200009C3900209A390020983900209639002006
:1022100094390020923900200000204188390020A4
:10222000863900208439002082390020803900203E
:102230007E3900207C3900207A390020783900204E
:102240008C39002010B5CF4B1B88CF4A128893429F
:1022500000D033E3CC4C2380CC4B1B886380CC4B29
:102260001B78643B237100232371CA4B1B88637165
:102270001E236371C84B1B88E380C84B1B882381D6
:10228000C74B1B886381C74B1B88A381C64B1B8828
:10229000E381C64B1B882382C54B1B886382C54BD9
:1022A0001B882375C44B1B886375C44B1B88A3759F
:1022B000C34B1B88E375C34B1B882376C24B1B881B
:1022C0006383C24B1B88A383C14B1B88A377C14B7D
:1022D0001B88E377C04B1A882023E254BF4B1A882F
:1022E0002123E254BE4B1A882223E254BD4B1B88A3
:1022F000A384BD4B1B88E384BC4B1A882823E2547B
:10230000BB4B1A882923E254BA4B1A882A23E25479
:10231000B94B1A882B23E254B84B1A882C23E25469
:10232000B74B188805F022FDB64904F0F5FF20638D
:10233000B54B188805F01AFDB24904F0EDFF606353
:10234000B24B188805F012FDAE4904F0E5FFA0631A
:10235000AF4B188805F00AFDAA4904F0DDFFE063E1
:10236000AC4B188805F002FDA64904F0D5FF2064A7
:10237000A94B188805F0FAFCA24904F0CDFF60646F
:10238000A64B188805F0F2FC9E4904F0C5FFA06436
:10239000A34B188805F0EAFC9A4904F0BDFFE064FD
:1023A000A04B188805F0E2FC964904F0B5FF2065C3
:1023B0009D4B188805F0DAFC924904F0ADFF60658A
:1023C0009A4B188805F0D2FC8E4904F0A5FFA06551
:1023D000974B188805F0CAFC8A4904F09DFFE06518
:1023E000944B1A886023E252934B1A886223E2547A
:1023F000924B1A886323E254914B1A886423E25467
:10240000904B1A886523E2548F4B1A886623E25456
:102410008E4B1A886723E2548D4B1A886823E25446
:102420008C4B1A886923E2548B4B1A886A23E25436
:102430008A4B1A886B23E254894B1A886C23E25426
:10244000884B1A886D23E254874B1A886E23E25416
:10245000864B1A886F23E254854B1A887023E25406
:10246000844B1A887123E254834B1A887223E254F6
:10247000824B1A887423E252814B1A887623E254E5
:10248000804B1A887723E2547F4B1A887823E254D2
:102490007E4B1A887923E2547D4B1A887A23E254C2
:1024A0007C4B1A887B23E2547B4B1A887C23E254B2
:1024B0007A4B1A887D23E254794B1A887E23E254A2
:1024C000784B1A887F23E254774B1A888023E25492
:1024D000764B1A888123E254754B1A888223E25482
:1024E000744B1A888323E254734B1A888423E25472
:1024F000724B1A888523E254714B1A888623E25462
:10250000704B1A888723E2546F4B1A888823E25451
:102510006E4B1A888923E2546D4B1A888A23E25441
:102520006C4B1A888B23E2546B4B1A888C23E25431
:102530006A4B1A888D23E254694B1A888E23E25421
:10254000684B1A888F23E254674B1A889023E25411
:10255000664B1A889123E254654B1A889223E25401
:10256000644B1A889323E254634B1A889423E254F1
:10257000624B1A889623E252614B1A889823E252E2
:10258000C0E0C04600F000101806002002F0001065
:1025900004F0001006F0001008F000100AF000101F
:1025A0000CF000100EF0001010F0001012F00010EF
:1025B00014F0001016F0001018F000101AF00010BF
:1025C0001CF000101EF0001020F0001022F000108F
:1025D00024F0001026F0001028F000102AF000105F
:1025E0002CF000102EF0001030F0001032F000102F
:1025F00034F0001036F0001038F000103AF00010FF
:102600003CF000100000C8423EF0001040F0001006
:1026100042F0001044F0001046F0001048F00010A6
:102620004AF000104CF000104EF0001050F0001076
:1026300052F0001054F0001056F0001058F0001046
:102640005AF000105CF000105EF0001060F0001016
:1026500062F0001064F0001066F0001068F00010E6
:102660006AF000106CF000106EF0001070F00010B6
:1026700072F0001074F0001076F0001078F0001086
:102680007AF000107CF000107EF0001080F0001056
:1026900082F0001084F0001086F0001088F0001026
:1026A0008AF000108CF000108EF0001090F00010F6
:1026B00092F0001094F0001096F0001098F00010C6
:1026C0009AF000109CF000109EF00010A0F0001096
:1026D000A2F00010A4F00010A6F00010A8F0001066
:1026E000AAF00010ACF00010AEF00010B0F0001036
:1026F000B2F00010B4F00010B6F00010B8F0001006
:10270000BAF000106E4B1A889A23E2526D4B1A8869
:102710009C23E2526C4B1A889E23E2546B4B1A881E
:102720009F23E2546A4B1A88A023E254694B1A880B
:10273000A123E254684B1A88A223E254674B1A88FB
:10274000A323E254664B1A88A423E254654B1A88EB
:10275000A523E254644B1A88A623E254634B1A88DB
:10276000A723E254624B1A88A823E254614B1A88CB
:10277000A923E254604B1A88AA23E2545F4B1A88BB
:10278000AB23E2545E4B1A88AC23E2545D4B1A88AB
:10279000AD23E2545C4B1A88AE23E2545B4B1A889B
:1027A000AF23E2545A4B1A88B023E254594B1A888B
:1027B000B123E254584B1A88B223E254574B1A887B
:1027C000B323E254564B1A88B423E254554B1A886B
:1027D000B523E254544B1A88B623E254534B1A885B
:1027E000B723E254524B1A88B823E254514B1A884B
:1027F000B923E254504B1A88BA23E2544F4B1A883B
:10280000BB23E2544E4B1A88BC23E2544D4B1A882A
:10281000BD23E2544C4B1A88BE23E2544B4B1A881A
:10282000BF23E2544A4B1A88C023E254494B1A880A
:10283000C123E254484B1A88C223E254474B1A88FA
:10284000C323E254464B1A88C423E254454B1A88EA
:10285000C523E254444B1A88C623E254434B1A88DA
:10286000C723E254424B1A88C823E254414B1A88CA
:10287000C923E254404B1A88CA23E2543F4B1A88BA
:10288000CB23E2543E4B1A88CC23E2543D4B1A88AA
:10289000CD23E2543C4B1A88CE23E2543B4B1A889A
:1028A000CF23E2543A4B1A88D023E254394B1A888A
:1028B000D123E254384B1A88D223E25410BDC046CB
:1028C000BCF00010BEF00010C0F00010C2F000100C
:1028D000C4F00010C6F00010C8F00010CAF00010DC
:1028E000CCF00010CEF00010D0F00010D2F00010AC
:1028F000D4F00010D6F00010D8F00010DAF000107C
:10290000DCF00010DEF00010E0F00010E2F000104B
:10291000E4F00010E6F00010E8F00010EAF000101B
:10292000ECF00010EEF00010F0F00010F2F00010EB
:10293000F4F00010F6F00010F8F00010FAF00010BB
:10294000FCF00010FEF0001000F1001002F1001089
:1029500004F1001006F1001008F100100AF1001057
:102960000CF100100EF1001010F1001012F1001027
:1029700014F1001016F1001018F100101AF10010F7
:102980001CF100101EF1001020F1001022F10010C7
:1029900024F1001026F1001028F1001070B5164B3C
:1029A0001B78002B14D0012B16D0144B1B78002B56
:1029B0000DD0134D2C88134B134A12785200D05A65
:1029C0006043642104F0CEF880B224182C8070BDDE
:1029D0000A4B01221A70E8E70C4B1B88002B03D12D
:1029E000064B01221A70E0E7074B1B782D2BDCD930
:1029F000024B00221A70D8E7E53B0020E73B00209D
:102A0000E2390020203A00209F3B00201A3B0020A2
:102A100010B5194B1B78002B0BD1184B1B88002BC2
:102A200007D1174B01221A70164B174A12781A70E9
:102A30001DE0134B1B78002B19D0124B1B78002B79
:102A400016D0104A013B13700E4B1B78642058437C
:102A50000D4B197804F096F883B26420C01A80B246
:102A60000A4C23885843642104F08CF8208010BD60
:102A7000034B00221A70E7E79F3B0020143A002026
:102A8000E23B0020E13B002005070020E239002066
:102A900010B5184B1B78002B27D0174A1378591CF8
:102AA0001170DB0703D5154A138801331380134BCC
:102AB0001A88C8239B009A4202D9104BA0221A8080
:102AC0000E4B1B88DB08DBB20D4A13700D4A927D5A
:102AD000D2B20D498B540D4B1B8864205843A7215B
:102AE00004F040F80A4B188010BD044BA0221A8055
:102AF000FAE7C046F93B0020EA3B00201A3A0020E2
:102B0000A13B0020C0390020A43B00201C3A00203B
:102B10001E3A002010B50F4B1B889BB2002B15D01E
:102B20000C4B198889B20C4B1889AB239B00584376
:102B300004F018F8094B1880094B1B78002B04D0BF
:102B4000064A99005B185B00138010BD034B0022FE
:102B50001A80F1E7523D0020C03900201A3B0020C6
:102B6000163C002009490A889308D21A92B20A80BA
:102B7000074B1B889B189BB20B809B08054A138050
:102B8000054A57214B4313807047C046DC3900206B
:102B9000443D0020DE390020023A00206F4B9B7C30
:102BA000012B5BD06D4B9B7C022B57D06B4B9B7CDE
:102BB000052B53D0694B9B7C042B4FD0684B0022D4
:102BC0001A70684B1A880A2A07D9654B1B78002BA4
:102BD0004CD1624B9B7C032B48D0634B0021197076
:102BE000614B1B783C2B02D9604B09211970604B5B
:102BF0001988604B1B88994202D05C4B09211970DF
:102C0000574B1978002914D05B4B1B880A3B9BB2A9
:102C100091204000834209D8584B1888FA235B0062
:102C2000984203D8564B1B78002B02D04F4B022002
:102C30001870544B1B88642B25D9534B1B78002BE1
:102C400021D100291FD0514B1B78013BDBB2812BD6
:102C500019D94F490B7801330B7017E04D4B1B7896
:102C6000002BABD13E4B01221A70AAE74A4B1B78CE
:102C7000002B03D0494B1B78002BAED13A490B787F
:102C800001330B70ACE7424B00211970404B1B78AD
:102C9000FA2B02D9354B03211970414B1B78002BBD
:102CA0001FD15A2A0CD92D4B9B7C072B08D02B4BBC
:102CB0009B7C062B04D03B490B8801330B8002E040
:102CC000384B00211980384B1B88002B02D0354B24
:102CD00000211980334B1B887D2B02D9234B0821FF
:102CE0001970324B1B781E2B0FD9092A0DD8304A88
:102CF00013780133DBB213700A2B09D91B4B042262
:102D00001A702B4B00221A7002E0294B00221A7015
:102D1000284AC5239B00D3589B109B059B0D264A30
:102D200013800E4B5B7CDBB2244AD35C002B13D0A8
:102D3000234B1B78132B0FD8214A013313701E4BE2
:102D40001A8892080B4B79215B5C0533DBB29A42FF
:102D500002D9064B05221A707047C046C0390020C0
:102D6000D53B0020143A00209C3B0020EC3B002087
:102D700000F0001018060020EA390020E039002099
:102D8000433B0020E4390020E43B00209F3B00202F
:102D9000523B0020453B0020423B00208A3B002064
:102DA000EE3B0020063A00201A3B00204E3B00205C
:102DB0009B3B0020000803483A3D0020F43B0020E4
:102DC000F03B002010B52A4B1B78002B11D0294B6B
:102DD0001A78C8239B0053439BB2274A1088584354
:102DE000264B19894B00C918C90103F0BBFE244BBF
:102DF0001880244B6A229B5C002B22D0204B1C881D
:102E0000002C07D0204B1888210003F0ABFE84B2C1
:102E10006400A4B21D4B1988002906D01A4B1888EB
:102E200003F0A0FE81B2490089B2194B1B78002B38
:102E30000FD08C4206D2091B89B2164A13685B1860
:102E4000136010BD611A89B2124A13685B1A1360CD
:102E5000F7E7002CF5D00F4B1B680F4A9342F0D9CF
:102E60000C4A1B1B1360064B00221A80E9E7C04680
:102E7000843B00209E3B0020523D0020C0390020B2
:102E8000183A0020180600200C3A00200A3A0020C8
:102E90006D3B0020F406002000E1F50570B582B01E
:102EA000204B1888C72807D91F4B18221A701F4BB0
:102EB0000F3A1A7002B070BD1D4E33788008C0B250
:102EC0001825009532220A21FEF70FFE164C2070BD
:102ED0003378184A1078009546221421FEF705FE33
:102EE0002378834201D9104B1870134E33780D4A62
:102EF00010888008C0B20925009532220A21FEF709
:102F0000F4FD0A4C207033780A4A10780095462266
:102F10001421FEF7EAFD23788342CBD9034B1870C6
:102F2000C8E7C0461A3B0020FF060020FD0600202F
:102F3000000700209F3B0020FE06002010B5344B08
:102F40001C78344B5B7B002B0ED0334B1B78002B53
:102F50000AD1324B1A88324B197878235B1A9A427D
:102F600002DD2D4B01221A702A4B1B7D002B40D114
:102F7000294B1A78002A03D12A4B1B78002B37D013
:102F8000264B1988284B1B784B43544363435B0AF9
:102F90005801C01A8000C018C000244B198803F0E3
:102FA000E1FD84B22409FFF779FF214B1A78A24290
:102FB00022D2204B1A70204B88229B5C002B0FD012
:102FC0001E4B1B78002B1AD01A4B1B78154A12780F
:102FD000934201D9134A1370164B124A12781A7091
:102FE000144B1B78002B0ED0154B164A12781A7012
:102FF00010BDFFF7D3FCBBE70E4B1C70DBE7094BA2
:1030000000221A70ECE70E4B00221A70F0E7C0465F
:10301000A93B0020C03900209F3B0020E23900205E
:10302000483B0020E33B0020A13B0020023A002067
:10303000F8060020423B002018060020E43B002058
:103040008A3B00200407002070B5334BC9229B5CEB
:10305000002B53D1314B5B7B002B0ED0304B1B78B8
:10306000002B0AD12F4B1A882F4B197878235B1A23
:103070009A4202DD2A4B01221A70284B9B7B002BBF
:1030800002D0274B01221A70264B1B88002B03D03D
:10309000234A1278002A03D1244A1278002A2CD01D
:1030A000234A10785843782103F06CFD040085B260
:1030B000FFF7F4FE1F4B1A78AA4222D21E4B1A7059
:1030C000154B88229B5C002B0FD01C4B1B78002BD0
:1030D0001AD0194B1B78154A1278934201D9134A1A
:1030E0001370154B114A12781A70134B1B78002B72
:1030F0000ED0134B134A12781A7070BDFFF788FC7C
:10310000A8E70D4B1C70DBE7084B00221A70ECE7B8
:103110000B4B00221A70F0E718060020C03900207F
:103120009F3B0020E2390020483B0020E33B002089
:10313000A93B0020F8060020423B0020E43B002091
:103140008A3B00200407002010B51A4B1A78002A89
:1031500027D0194B1B789B189B10184A1380184BCB
:103160001B78A42B02D8164BA5221A70FFF750FC2F
:10317000134B144A12781A70104B1C88124A12888A
:103180001A80FFF78BFE114B1A78A2420AD2104B1D
:103190001A700F4B1B78002B07D00E4B0E4A12787B
:1031A0001A7010BD0A4B1C70F3E70A4B00221A700C
:1031B000F7E7C0469F3B0020A93B0020E2390020F2
:1031C0000507002006070020E6390020F806002049
:1031D000423B00208A3B00200407002070B5394B99
:1031E0005B7B002B0ED0384B1B78002B0AD1374B62
:1031F0001A88374B197878235B1A9A4202DD324BD2
:1032000001221A702F4B9B7B002B02D02E4B0122E8
:103210001A702E4B1888002803D02B4B1B78002BDC
:1032200003D12C4B1B78002B3DD02B4B1B785B0024
:10323000FE214900C91A89B2284B1B78002B05D002
:10324000214B1B788B422FD8C91A89B20A3189B217
:103250004043081803F086FC040085B2FFF71EFE09
:103260001F4B1A78AA4221D21E4B1A701E4B88227D
:103270009B5C002B0FD01D4B1B78002B19D0194BDA
:103280001B78144A1278934201D9124A1370154BD5
:10329000104A12781A70134B1B78002B0DD0144B68
:1032A000144A12781A7070BD0021CFE70D4B1C70C4
:1032B000DCE7084B00221A70EDE70D4B00221A7074
:1032C000F1E7C046C03900209F3B0020E2390020D2
:1032D000483B0020E33B0020A93B00208B3B002023
:1032E000F8060020423B002018060020E43B0020A6
:1032F0008A3B00200407002070B53F4BC9229B5C2D
:10330000002B00D06AE03D4B5B7B002B0ED03C4B8A
:103310001B78002B0AD13B4B1A883B4B197878233A
:103320005B1A9A4202DD364B01221A70334B9B7BAB
:10333000002B02D0324B01221A70314B1D78002D28
:1033400003D1324B1B78002B47D02E4B1C88002C0E
:1033500009D02F4B1A782F4B9B185879604378214E
:1033600003F010FC84B22C4B1B786B432B4A128861
:1033700053435B0A5801C01A8000C018C000284B94
:10338000198803F0EFFB80B20009844200D20400E8
:10339000FFF784FD234B1A78A24222D2224B1A70E7
:1033A000154B88229B5C002B0FD0204B1B78002BE9
:1033B0001AD01D4B1B78154A1278934201D9134A33
:1033C0001370194B114A12781A70174B1B78002B87
:1033D0000ED0174B174A12781A7070BDFFF718FB02
:1033E00091E7114B1C70DBE7084B00221A70ECE7E9
:1033F0000F4B00221A70F0E718060020C039002099
:103400009F3B0020E2390020483B0020E33B0020A6
:10341000FA060020AC3B0020A93B00201C3A00200B
:10342000023A0020F8060020423B0020E43B002046
:103430008A3B00200407002030B583B0914BCC229A
:103440009B5C002B00D1C8E08F4B5B7CDBB28F4ACA
:10345000D35C8F4A13708F4A11788F4A1278914249
:1034600000D196E08B490A70864A7821525C002A86
:1034700000D1B4E0834A1339525C002A00D18CE0B9
:103480009BB2864A1288934200D994E0844B1B7801
:10349000002B00D18FE0834B1B78002B04D1824B93
:1034A0001B78002B00D186E07B4B06221A707F4BE5
:1034B0001B78002B18D07D4A002313707C4A1380A0
:1034C0007C4A13807C4AFA21490011807B4A138090
:1034D0007B4A13807B4B7C4A12789B185B7E9A0058
:1034E0009B185B00794A1380784A6C4B12881B88C2
:1034F000D21A93B210B26E4A10806F490A889A1895
:1035000012B20A80FA2189008A4200DCAEE06A4ADF
:103510001180684C2188591A8AB2684D2980208010
:103520009B009BB251005218520092B26249002097
:10353000085E81000918C9109B185B181BB2604A0D
:103540001380002B00DA98E05D4B00229A5EFA238C
:103550009B009A4203DD5A4BFA2292001A805C4B80
:10356000F4221A705B4BAB3A1A705B4B5B4A1278D1
:103570001A70534B0020185E8010C0B2584B1B7855
:1035800000930023FA220021FEF7AFFA554B187082
:1035900023E0434A0121117066E79BB23F4A12883B
:1035A000934208D83E4B1B78002B04D03D4B1B7830
:1035B000002B00D078E73A4B00221A703B4B0132C7
:1035C0001A70354B02321A703E4B3F4A12789B18E4
:1035D0009A7A454B1A70FFF7B7FD03B030BD294A00
:1035E000B521525C002A2FD0264A5039525C002A5D
:1035F00017D09BB2294A12889342DCD8224B5B7CBD
:10360000002BD8D1264B1B78002BD4D0254B1B7810
:10361000002B00D048E7244B1B78002B00D043E759
:10362000C9E79BB21D4A12889342C4D8164B5B7CF3
:10363000002BC0D11A4B1B78002BBCD0194B1B7828
:10364000002B00D030E7B6E79BB2144A12889342B1
:10365000B1D80D4B5B7C002BADD1114B1B78002BEF
:10366000A9D0104B1B78002BA5D01DE7002A00DB4A
:103670004FE7114A002111804BE7130000221A8006
:1036800062E7C04618060020C0390020583B0020E1
:10369000573B0020A83B0020A73B00201A3B0020FE
:1036A000553B00209F3B0020563B0020543B002010
:1036B000B2390020B6390020B4390020B0390020DA
:1036C000AE390020AC3B0020FA060020183B002059
:1036D000FF060020FD060020423B0020F8060020E7
:1036E000040700208A3B0020A93B002030B583B0AE
:1036F0003F4AC7239B00D3589B109B059B0D3D4A17
:10370000138010883C4B7922995C01329A5C8008C6
:10371000C0B2FF2300930023FEF7E7F9374B187080
:10372000002830D0364B1870364B5B7CDBB2364A03
:10373000D35C012B2BD0032B31D0314B1878334B7A
:103740001B7800930023FF220021FEF7CEF904002E
:1037500005002F4B1B78834213D22E4B1888FE286E
:103760002CD92D4B30221A702C4B273A1A70274B2C
:103770001B78AB4238D2264A1370294B294A12785B
:103780001A7003B030BD1E4B00221A70CCE7264BD6
:103790001B78002BD1D11A4B00221A70CDE7164BA3
:1037A000AE229A5C1B4B1B889A42C6D21E4B1B78DA
:1037B000002BC2D1124B00221A70BEE7C0B23023D8
:1037C0000093C433FF222821FEF78FF9124B1870A3
:1037D000104B1878092300934033FF222821FEF76D
:1037E00084F90E4B1870C2E7094B1C70C5E7C04640
:1037F000000803483A3D002018060020EF3B002057
:10380000453B0020C0390020F43B0020F806002092
:10381000423B00201A3B0020FF060020FD0600204E
:103820008A3B0020040700209F3B002010B582B097
:103830001B4B1C88A4B2C8221A4B18885623FF338E
:103840000093194B52002821FEF725F9174B1880D9
:10385000002C0BD02100164803F084F9C0B2154BA0
:103860001870782805D978221A7002E0114B0022CE
:103870001A70114B00221A800E4B1C78002C0AD0B3
:103880000E4B1878001B002805DD0002210003F014
:1038900079F9094B1880094B1C7002B010BDC04665
:1038A000483D00201A3B0020AE100000EE0600202C
:1038B00035DF00009F3B0020B8390020A03B0020EE
:1038C00070B582B0114B9B7A002B01D102B070BD54
:1038D0000E4A937A023BDBB2990059184900947A58
:1038E0000234E4B2A300E4186400094E3378094DB1
:1038F0002888002200922200FEF7CDF830702B8835
:10390000A342E3D9044B00221A70DFE7C03900203C
:10391000423B00201A3B00208A3B002010B56E4A33
:1039200013780133DBB213706C490A780132D2B2DA
:103930000A706B49097800291BD0032B19D9664BF3
:1039400000211970664B1970664B1B78002B1AD03A
:10395000012A18D9614B00221A70624B1A70624B0F
:10396000DB7CDBB2082B00D9B0E09B005F4AD35868
:103970009F460029E8D1022BE6D9574B1970584BC6
:1039800001311970E0E7002BE9D1012AE7D9534B47
:1039900000221A70534B01321A70E0E7544B18782A
:1039A000FEF7EEF810BD524B1878002804D04C4BAF
:1039B0001878FEF7E5F8F5E7FEF7E2F8F2E74C4B8A
:1039C0001878002803D04B4B1B78002B02D1FEF750
:1039D000D7F8E7E7434B1878FEF7D2F8E2E7444B15
:1039E0001878002803D0434B1B78002B06D1002801
:1039F0000AD03B4B1878FEF7C3F8D3E73D4B187855
:103A0000C0B2FEF7BDF8CDE7FEF7BAF8CAE7384B0B
:103A10001878002803D0374B1B78002B06D10028DC
:103A200009D02F4B1878FEF7ABF8BBE72D4B187871
:103A3000FEF7A6F8B6E7FEF7A3F8B3E72D4B1B7821
:103A4000002B05D02B4B1878C0B2FEF799F8A9E7E8
:103A5000274B1878FEF794F8A4E7264B1B78002B29
:103A600004D0204B1878FEF78BF89BE7204B187892
:103A7000FEF786F896E71F4B1B78002B08D11C4BEE
:103A8000187800280AD0164B1878FEF779F889E7DD
:103A9000184B1878C0B2FEF773F883E7FEF770F89A
:103AA00080E7144B1B78002B08D1114B18780028A5
:103AB00009D00B4B1878FEF763F873E7094B1878B9
:103AC000FEF75EF86EE7FEF75BF86BE7084B1878D9
:103AD000FEF756F866E7C046633B0020513B0020E6
:103AE000623B0020503B0020C0390020C0900010F5
:103AF000963B0020803D002010B5754B9B7B002B32
:103B00001DD0744B1B781433734A1370724B1B789F
:103B1000822B02D9704B82221A70704BF4221A70D9
:103B20006F4BAB3A1A706F4B19782820FEF705F8E7
:103B30006D4B18706D4B684A12781A7010BD654B4A
:103B400018786B4B18706B4B1B78002B0ED16A4AA0
:103B50001288002A0AD1604B32321A70674B1A70F1
:103B6000674B00221A80674B1A80CFE7002B6FD07B
:103B7000614B1B88644A1288934219D2634B04221A
:103B80001A70634A1378591C1170042BBED9524B1A
:103B90001A785A4B1B789A4206D24F4B01321A7050
:103BA0005B4B00221A70B1E7544A01331370F7E7F8
:103BB000544909888B4217D29B1A9B00DBB2534AA7
:103BC000137053490A78501C087093429ED2424B9E
:103BD0001B784A4A1278934202D23F4A013313704B
:103BE0004B4B00221A7091E74A4A1288934216D230
:103BF000D31A9B00DBB2454A137045490A78501C22
:103C00000870934200D381E7334B1B78282B02D9ED
:103C1000314A013B13703E4B00221A7076E73B4B52
:103C200004221A703A4A1378591C1170042B00D8D8
:103C30006CE7294B1B78282B06D9274A013B1370C8
:103C40002E4A1378013B1370314B00221A705DE746
:103C50002E4B0A221A702E4A1378591C11700A2B07
:103C600000D853E72C4B1988002925D02A2903D9DD
:103C7000194A1378013B1370214A13885C1C148085
:103C8000092B15D91D4A13780A3313701A4B1B8858
:103C9000584302F077FF80B21A4B18800200143AA2
:103CA000194B1A8014301B4B1880124B01221A70CA
:103CB000174B00221A7029E7104B1B78772BF7D887
:103CC00005490A7801320A700C4A01331370EFE794
:103CD000C0390020A93B002009070020FF06002072
:103CE000FD060020F8060020423B00208A3B002011
:103CF000113C0020103C0020143A0020080700204E
:103D0000163B0020143B0020123B00200707002038
:103D1000083C0020103B00201A3B002010B5BC4B93
:103D2000C2221A70BB4B793A1A70BB4B00221A7030
:103D3000BA4B1A70BA4BBE329B5C002B21D0B94BE8
:103D40001B88F52B1DD9B84A1178C9B2B74A127829
:103D5000D2B2914215D2B64A1278002A11D10B3351
:103D6000DBB2B44A13705B09B34A13701378DBB249
:103D7000052B02D9130005221A70B04B01221A70CC
:103D800002E0AE4B00221A70AD4B1B78002B20D105
:103D9000AC4B9B7CDBB2082B3CD89B00AA4AD35887
:103DA0009F46FFF7CBF835E0FFF74EF932E0FFF71B
:103DB000CBF92FE0FFF712FA2CE0FFF79DFA29E08C
:103DC000FFF73AFB26E0FFF797FE23E0FEF760FEE1
:103DD00020E09E4B1A78642353431B11DBB28E4ABA
:103DE00013708F2B02D913008F221A70984B1B78F7
:103DF000002B02D0884B00221A70964B1B78874A02
:103E00001370954A1278934201D3844B1A70934BE6
:103E100032221A70824BCD229B5C002B07D0894B3B
:103E20005B7CDBB28E4AD35C002B00D09DE0FFF7B9
:103E300047FD8C4AC1239B00D3589BB29B08DBB241
:103E4000894A12789A4202D2884B07221A70744B20
:103E5000D2229B5C002B0ED0844A1278002A00D11B
:103E600086E08348017801310170814909788B42ED
:103E700001D8774B1A706C4B1A789300D218530103
:103E80007C4A13607C4A11685B1813607B490A689E
:103E9000013A0A60002A07D19B09794A136040223F
:103EA0000A60754B00221A60764B1B78002B27D1D5
:103EB000754B1B78002B23D0654B1B78042B1FD030
:103EC000634B1B78092B1BD0614B1B78072B17D03A
:103ED0005F4B1B78052B13D06C4B1B78002B0FD03E
:103EE0005E4B1B78002B0BD0694B1B78002B07D146
:103EF000574B1B78002B3FD0524B9B7B002B3BD169
:103F0000644BC2221A70644BB93A1A70474B0022B4
:103F10001A70624B1A705C4B1B78002B5ED04C4AB7
:103F20001278042A1BD04A4A1278092A17D0484A24
:103F30001278072A13D0464A1278052A0FD0544A1D
:103F40001278002A0BD1374A1288002A46D1324A09
:103F50001278002A42D1524A1278002A3ED14A4BA6
:103F600000221A7002F074FA10BDFFF7BFFB5EE783
:103F70003F490020087078E74A4B1B788F2B02D905
:103F8000484B8F221A70474B1B7819003231364A42
:103F90001170214A1278934201D21F4A13701C4BB0
:103FA0001B78172B02D81A4B18221A70194B1B7842
:103FB000082B02D8174B09221A70154B1A78354B6B
:103FC0001A70144B1A78344B1A70134B1A78174B1B
:103FD0001A70124B1A78314B1A709CE7002BC3D120
:103FE000104B1B889F2BBFD80B4B1B78002BBBD0D3
:103FF000244B1B78002BB7D1234B01221A70284B7E
:104000001D321A70284B00221A7002F059FAABE7E1
:10401000FF060020FD060020423B00208A3B0020D6
:1040200018060020143A0020743D0020813D002035
:10403000453B00208E3B0020893D0020853D00202F
:10404000EE3B0020C0390020E4900010FC06002068
:10405000EC3B00200107002004070020A93B0020C2
:10406000F43B002000040348F90600208C3B0020AC
:104070008D3B00202C3B0020243B0020F00600203C
:10408000283B0020803D002002070020FA06002087
:10409000773D00201A07002019070020823D0020EC
:1040A0008A3D0020F8060020883D002010B582B02F
:1040B000684B7E229B5C002B04D1664B47329B5C95
:1040C000002B06D0644B1B78452B02D8624B46224E
:1040D0001A70624BD88864235843572102F042FD7E
:1040E00080B25F4B18805F4B1B78642B02D95D4B0D
:1040F00064221A70574C607D18230093AA336422FF
:104100000021FDF7F2FC584B18702923E05C203B9E
:104110000093403364220021FDF7E7FC534B1870F5
:10412000CA23E05CAC3B0093E13364220021FDF73D
:10413000DCFC4F4B1870237E4E4A13704E4A1278A7
:10414000002A37D0434BC2229A5C4A4B5A70434BE9
:10415000197C4A4A1170597D5171597C5170197DF1
:104160009171997DD172597B5172997B9173997C30
:10417000434A1170D97C434A1170DB7B9B00424A51
:10418000138013889BB2002B0ED01388FA20800076
:10419000C01A3E4B1B885843642102F0E3FC3C4BA1
:1041A00018603C4B01221A702A4B9A8B3A4B1A80AA
:1041B000012310E02F4A5370C9E75A1E36495200B6
:1041C000505A244A2124125D4243120A801A5A008E
:1041D00088520133DBB2772BEFD91E4BBD229B5C9B
:1041E000002B02D02D4BBC3A1A701C4B187964235B
:1041F000584380B20009C0B2294B1870154CA28CEC
:10420000284B5A43120928490A607422A25A534380
:104210001B094B60BB23584380B28F2102F0A2FCE4
:1042200080B2224B18801B889BB2BB2B02D91F4B3C
:10423000BB221A80074BB7229A5C1D490A80C02115
:10424000585C1C4908705B8B9B1A1B4A138002B098
:1042500010BDC046180600206A3B0020C03900206F
:104260000E070020483B002000070020FE0600202B
:1042700005070020A43B0020F73B0020743B0020F2
:10428000853B0020833B0020F6390020DA390020EE
:104290003C3B00204D3B0020203A00206D3B00209D
:1042A000403B0020A08601001C3B0020EC060020C3
:1042B000F2390020443B0020F4390020030043433E
:1042C0004B431B0A43431B0B80225200521A50439C
:1042D000C0188030000A704770B5040000290CD067
:1042E00000280BDB8023DB00984200DD180000294A
:1042F00006DBFFF7E3FF002C0ADB70BD4042F1E76D
:1043000049428025ED00281AFFF7D8FF281AF2E766
:104310004042F2E710B54D4B1B78772B2ED94C4B12
:104320004C4A12881A804C4B00229B5E192B07DDE9
:104330004A4B00221A804A4B1A804A4B01321A70AB
:10434000494B1B889BB2494A1380494A12781E2A5E
:104350003FD9424A128892B2934203D23F4B1A8805
:10436000424B1A80414B1A883D4B1B889BB29A42A4
:1043700032D23B4B1A883D4B1A802DE03A4B1888BD
:1043800080B23C4C21880422FDF7DDFB20802F4ABF
:1043900013780133DBB21370782B06D0334B1880BF
:1043A0002B4B2C4A12881A8016E0334B1B78002BBB
:1043B000F4D0324B1B88984207D9314B1B88984266
:1043C00003D2304B00221A70E8E72E4B01221A70FC
:1043D000E4E7244B01221A70244B18881C4B1B88DD
:1043E00098422FD9C01A80B2274B18808002274BE1
:1043F0001B78143B5C00E418A400254B198802F0DC
:10440000C1FB2100FFF768FF0300224A1060800013
:10441000C01840018012204B18801F4B1B881F4A78
:1044200013801F4A13801F4A1078584380B21E4BD6
:1044300018800F4B1B785843602102F093FB1B4BF5
:10444000188010BD144B00221A80E6E7D9390020ED
:10445000EA390020F2390020B83900203E3D002022
:10446000423D0020753D0020403D0020E039002005
:104470009F3B0020EC390020F73B0020F039002062
:10448000EE390020433B0020E8390020443B002067
:10449000F4390020BC390020E2390020E639002040
:1044A000E4390020A13B00201C3A0020123A0020F1
:1044B000F8B504000F0015001E000B4B1888830090
:1044C000C0184000094B2822995C02F05BFB0004F5
:1044D000000C801B7843A91B083102F053FB80B20B
:1044E000001980B2F8BDC046043A0020180600202A
:1044F00010B5484B7E229B5C002B04D1454B023209
:104500009B5C002B37D0444B1A78072A03D89300C2
:10451000424AD3589F46002079E0414B1B88414ACC
:104520001288FA210120FFF7C3FF70E03D4B1B8882
:104530003D4A1288FA21FA20FFF7BAFF67E03A4BAA
:104540001B883A4A1288FA20FA214000FFF7B0FF90
:104550005DE0364B1B88364A1288FA213548FFF752
:10456000A7FF54E0FA20800051E0FA2080004EE0DE
:10457000FA2080004BE0284B1A78092A03D89300D0
:104580002D4AD3589F46002041E0254B1B88254AE1
:104590001288A7210120FFF78BFF38E0214B1B88F1
:1045A000214A1288A721A720FFF782FF2FE01E4B88
:1045B0001B881E4A1288A720A7214000FFF778FF1A
:1045C00025E01A4B1B881A4A1288FA20A7214000BE
:1045D000FFF76EFF1BE0164B1B88184A1288A721B5
:1045E0001748FFF765FF12E0144B1B88154A128825
:1045F000A7211548FFF75CFF09E0FA20800006E0DC
:10460000FA20800003E0FA20800000E00A2010BDBC
:104610000A20FCE7180600204F3B002008910010FC
:1046200092390020943900209639002098390020D2
:104630009A390020EE020000289100109C390020D9
:104640009B0200009E3900204203000070B5B34B6E
:104650001888642102F086FA84B2B14D29880222BA
:104660002000FDF770FA2880AE4B1B78DBB2012BDF
:1046700000D894E0AC4B00221A70AC4C218889B26F
:10468000AB4B18880222FDF75EFA2080A94B7E22F0
:104690009B5C002B05D1A74B02329B5C002B00D109
:1046A000CFE0A24B1B889BB2A34A1288934200D84A
:1046B00081E0A24B07221A70994B1888A04B1B78F7
:1046C00058430A2102F04EFA80B29E4B18809E4B4E
:1046D0001A68801818609D4902F044FA9C4B1860D3
:1046E0009C4B1B68C0189C4B18609C4BDB7D022BBD
:1046F00000D10DE164235843994B198802F032FA36
:1047000080B2FA239B00984200D91800FA239B003C
:104710001B1A9BB2934A1380924B1B889B08DBB2F7
:104720008E4AD373904B1B78002B37D08F4B1B785E
:10473000002B17D08E4B1B78002B1DD17D4B5C6B53
:1047400028229B5C9800C018400003F0BDFA011CB1
:10475000201C02F0ABFF02F0A9FD80B2704B1B8859
:10476000984209D27F4BFA2292001A80794B00229C
:104770001A607E4B01321A707C4B1B78002B0DD0D7
:104780007B4B1B78002B09D17A4B1A78511C19707E
:10479000684B84215B5C9A4200D9FDE070BD624A9F
:1047A00011784B1CDBB21370142B00D865E7604BFB
:1047B0001C80117061E75D4B1B889BB26E4A1288AA
:1047C000934203D95D4B06221A7075E7574B1B883D
:1047D0009BB26A4A1288934203D9584B05221A7039
:1047E0006AE7524B1B889BB2654A1288934203D9F1
:1047F000524B04221A705FE74C4B1B889BB2614AF4
:104800001288934203D94D4B03221A7054E7474B49
:104810001B889BB25C4A1288934203D9474B022201
:104820001A7049E7414B1B889BB2584A1288934241
:1048300003D9424B01221A703EE7404B00221A7006
:104840003AE73A4B1B889BB2514A1288934203D9EC
:104850003A4B09221A702FE7344B1B889BB24D4A02
:104860001288934203D9354B08221A7024E72F4B44
:104870001B889BB2304A1288934203D92F4B0722E0
:104880001A7019E7294B1B889BB23B4A1288934246
:1048900003D92A4B06221A700EE7244B1B889BB2C1
:1048A000364A1288934203D9244B05221A7003E733
:1048B0001E4B1B889BB2324A1288934203D91F4B6E
:1048C00004221A70F8E6194B1B889BB22D4A1288F5
:1048D000934203D9194B03221A70EDE6134B1B8840
:1048E0009BB2294A1288934203D9144B02221A70B0
:1048F000E2E60E4B1B889BB2244A1288934203D9EE
:104900000E4B01221A70D7E60C4B00221A70D3E628
:10491000FFF7EEFD134B1880FEE6C046023A00207A
:10492000003A0020743D002003070020043A0020D4
:10493000F839002018060020843900204F3B002061
:104940004E3B0020FC390020343B0020907E0000CC
:10495000303B00203C3B0020383B0020C039002089
:10496000DA390020F6390020843B00204D3B00203E
:10497000763D0020E83B002082390020803900206D
:104980007E3900207C3900207A39002078390020D7
:104990008839002086390020FFF7AAFD02001C4B51
:1049A000DB7D002B30D11B4B1B889BB2952B29D86C
:1049B000184B1988C9B2174B1B885B1A9A4205DB42
:1049C000144B1B889633984200DCE7E6114B1880A5
:1049D0001B88FA208000C01A0F4B1B8858436421A3
:1049E00002F0C0F80D4B18600D4B01221A700D4BF0
:1049F0001A700D4B83329B5C5B080C4A13700C4A97
:104A00001370CBE69621D6E70A4B01221A70C5E651
:104A1000C0390020F6390020DA3900203C3B002064
:104A20006C3B00206D3B002018060020E83B002076
:104A3000973B0020763D00201E4A8A235B00D35816
:104A40001B070AD48E235B00D358DBB21A4A1278B4
:104A5000D1B2002A02D0012915D07047592B05D0B8
:104A6000164B00221A70144B1A70F6E7134A11788D
:104A7000C9B21348435413780133DBB213700E4BA1
:104A800001221A70E9E70D4A1178C9B20C48435463
:104A900013780133DBB213701378DBB2062BDCD949
:104AA000130000221A70044B1A70064B01321A7060
:104AB000D3E7C04600020048E93B0020DF3B00206E
:104AC000D83B0020A63B002010B5BF4A1378013325
:104AD0001370BE4A137801331370BD4A1378013343
:104AE0001370BC4A137801331370BB4B1B78002B37
:104AF00017D110BDB949C95C8A18D2B20133DBB2F3
:104B0000052BF7D9B54B9B79DBB293420CD0B24B56
:104B100000221A70AC4B1B78032BEAD9B04B1A70E9
:104B2000E7E700220023EBE7A74B00201870AB4B10
:104B30005A7801210A40AB490A7059782024214053
:104B4000A94C21705B7821218B43A8490870102B58
:104B500019D00ED8042B00D191E0082B03D1A04B23
:104B60000421197012E0022B10D19D4B0221197003
:104B70000CE0402B7FD0802B08D1994B012119707C
:104B80009A4B197002E0964B00211970984B1B78D4
:104B9000002B03D1974B924909781970944B01214E
:104BA0001970002A00D192E1934B1B78002B10D191
:104BB000924B1B7C002B66D1894B1B78002B62D05B
:104BC0008F4A8331515C8F4A1278914201D9042B6C
:104BD00059D0894B01221A707E4B1B788A4A127871
:104BE00093420DD27E4B1978824B1B7899421ED08E
:104BF000864B1B78002B1AD1854B1B78002B16D1C6
:104C0000844900230B7084490B7072490A70834AEF
:104C10001370834A1370834A1370834A1370834A54
:104C20001370834A1370834A1370834A13707B4B4B
:104C30001B78002B00D1E4E1804B00221A706F4BEF
:104C40001B7C002B0ED1664B1B78002B0AD06C4AC4
:104C50008421515C6B4A1278914200D8D1E1042B37
:104C600000D0CEE15E4B1A78042A00D9BDE1930052
:104C7000734AD3589F465A4B0121197086E7584B07
:104C80000321197082E76F4B01221A70614B1B7868
:104C9000002B27D15F4B1A705F4A13780133DBB2C8
:104CA0001370032B02D9130003221A70634B0022E6
:104CB0001A704B4B1B78012B54D0042B00D1D3E03E
:104CC000002B39D0544B1B780133DBB2554A13709B
:104CD0005D4A1370524B01221A703D4B00221A702C
:104CE0003C4B1A703A4B1B78584A1278934210D2B8
:104CF0003B4B19783F4B1B78994200D16CE7434BF3
:104D00001B78002B00D067E7414B1B78002B00D0AD
:104D100062E7394B012119704A4900230B703D4964
:104D20000B703D490B702B493748007808702849B3
:104D30000A703C4A13704FE7374B1B78022B09D09F
:104D4000032BBFD1424B1A782C4B5A755A7D414BDD
:104D50005A71B7E7404B1A78284B1A741A7C3D4BAE
:104D60001A70AFE72C4B1B78022B13D0032BA9D161
:104D70003A4B1A78214B1A751A7D364B9A712B4B88
:104D80001B78002B0ED02B4B01221A701E4BF932D0
:104D90001A7097E7324B1A78184B5A745A7C2D4B7D
:104DA0005A708FE7204B1B78002B8BD02D4B1A7835
:104DB000124B9A759A7D274BDA721D4B01221A709D
:104DC000114BF9321A707DE7D8390020063C0020DB
:104DD000933B0020973B0020A63B0020D83B0020BF
:104DE000FA0600208F3B0020053C0020463B0020B7
:104DF000843B0020FB060020943B0020C0390020AB
:104E000018060020E83B00206A3B0020F83B002009
:104E10004B3B0020983B00209A3B0020993B002010
:104E20006D3B0020703B0020863B0020873B00202C
:104E3000893B0020883B00206C3B00206B3B00201E
:104E400050910010953B0020713B002091390020CB
:104E50004A3B0020743B0020E03B0020E63B002062
:104E6000EB3B0020F63B0020C64B1B78022B16D0F4
:104E7000032B00D026E7C44B1B78092B1FD0C34B54
:104E80001A78C34BDA74DA7CC24B1A70C24B1B78A7
:104E90000A2B00D016E7C14B01221A7012E7BA4B59
:104EA0001B78092B00D00DE7B84B1A78B84BDA7491
:104EB000DA7CB84B1A70B94B01221A7002E7B84B72
:104EC0001A78B34B5A735A7BB64B5A72DEE7B64B1D
:104ED0001B78002B0FD1B54B1B78002B00D17BE644
:104EE000B24A00231370B24A1370B24A1370B24B25
:104EF00001221A7070E6AC4B00221A706CE6A14BCE
:104F00001B78022B10D0032B1BD0012B6DD1A04A94
:104F1000117CAA4B1970137C59424B41DBB21374BC
:104F2000127CA04B1A7060E0994A517DA44B197015
:104F3000537D59424B41DBB25375527D994B5A71A7
:104F400053E001F0A9F950E08E4B1B78022B10D0F2
:104F5000032B1BD0012B48D18D4A517C994B1970E2
:104F6000537C59424B41DBB25374527C8D4B5A7087
:104F70003BE0874A117D944B1970137D59424B4198
:104F8000DBB21375127D874B9A712EE08F4B1B7825
:104F9000002B0FD17E4A917D8D4B1970937D594224
:104FA0004B41DBB29375927D7E4BDA72894B0122C5
:104FB0001A701AE0764B9B7C082B03D0744B9A7CBA
:104FC000854B1A70724B08229A74844B073A1A70F8
:104FD0000BE06C4B1B78022B2DD0032B2FD0012B19
:104FE00025D06B4B9A7C7E4B1A70784B1B78002B2C
:104FF00004D17C4B84229A5C7B4B1A707B4B012240
:105000001A70784B7E229A5A002A00D103E1674B2E
:105010001B78002B00D19FE0664B1978744B1B78EE
:10502000994200D2F7E0734B00211970F3E0584B1E
:1050300001229A74D5E7564B02229A74D1E7544B59
:1050400003229A74CDE74F4B1B78022B0CD0032B15
:105050000ED0012B04D04E4B9A7C614B1A70C4E7E2
:105060004B4B04229A74F6E7494B05229A74F2E7F7
:10507000474B06229A74EEE7424B1B78022B37D03F
:10508000032B52D0012B04D0414BDA7C414B1A70D8
:10509000ABE7544B84229A5C574B1B789A420DD84D
:1050A0003B4BD97C394A1170DB7CDBB24D4A6D2118
:1050B000525C934216D0364BDA74E5E7FFF718FAE4
:1050C0004E4B18801B88FA208000C01A4C4B1B885E
:1050D0005843642101F046FD4A4B18604A4B0122B7
:1050E0001A70D1E73F4B6F229A5C294BDA74CBE7F9
:1050F000254B1B78092B08D03A4B70229A5C244B25
:10510000DA74DA7C214B1A70BEE7214A517B244BBA
:105110001970537B59424B41DBB25373527B214B85
:105120005A721E4B01221A70AEE71B4B1B780A2BDA
:1051300005D02C4B71229A5C154BDA74A4E7144A03
:10514000937B59424B41DBB29373927B154B9A731D
:10515000124B01221A7097E7164B1878214B8421C5
:10516000595C234B1B78CB1A984251DD88424FD2B1
:10517000044B1B78002B4BD01E4B24490978197027
:1051800049E0C0469A3B0020903B0020923B002023
:10519000C0390020833B0020913B00206B3B002066
:1051A000473B0020743B0020943B0020983B0020AC
:1051B000953B0020973B0020993B0020E03B0020DE
:1051C0004A3B0020EB3B0020E63B0020893B0020CF
:1051D000F63B0020863B0020D43B0020873B00208C
:1051E000853B0020180600206A3B00206D3B002014
:1051F00090390020703B0020E83B0020F639002069
:10520000DA3900203C3B00206C3B0020713B002041
:10521000CC4B00211970CC4B00211970CB4B9B7CDF
:10522000D9B2062B00D1D1E0082900D0DEE0C84B6E
:1052300078315B5C002B0AD1C54B01395B5C002BDC
:1052400005D1C34B46315B5C002B00D1A8E0C14BBC
:105250001B78012B00D886E0BF4B1A78BB4B9A74A1
:10526000BE4B00221A70BE4B1A70BE4BBE4A12785B
:105270001A70B64B9A7C013AB64B1C78BB4B910026
:105280008A189B18185DBA4B1870BA4B1B78002B04
:1052900008D0AF4BCF229B5C5843642101F062FCE5
:1052A000B34B1870A94B5B7D002B00D1A7E1B24B2B
:1052B0001B78002B00D197E1B04B1B78002B00D05E
:1052C00092E1AF4B1B78002B00D08DE1AD4B1B78EA
:1052D000002B00D088E1AC4B1B78002B00D083E181
:1052E000AA4B1B78002B14D1A84A01331370A84A8B
:1052F00013709B4A13709B4B00221A70A54B1A70B7
:10530000A54B1C70A54B1B78002B00D10EE1964AD3
:105310001370A04B1B78A14AD25C002A02D1914A9B
:10532000002111705A1C9E4909788A4200DB51E124
:105330008C4A11788C4A1278043A914204DA964ADF
:105340001278944200D15AE1864A0021117001334B
:10535000DBB2904A1370914AD35C002B00D1EBE092
:10536000814A13704BE17F4B19787F4B1B78994230
:1053700000D371E7794B1B78002B05D1774B0121C6
:105380001970784B00211970864B1B78002B13D0B5
:10539000854B1B78002B0FD0844B012119700EE038
:1053A0006C4B1B78012B00D056E76E4B19786E4B77
:1053B0001B789942DED34FE77C4B00211970002AFD
:1053C00000D156E75F4B00221A7052E7754B1B78ED
:1053D000002B07D0744B1B78002B03D0744B012299
:1053E0001A7046E7724B00221A7042E7584B882227
:1053F0009B5C002B16D06B4B1B78002B0FD06A4B9D
:105400001B78002B0BD06B4B1B78002B07D15A4B12
:105410001B78002B03D0684B873A1A7002E0664B6A
:1054200000221A704A4B64229B5C002B00D120E7BB
:105430005C4B1B78002B1DD05B4B1B78002B19D0CD
:105440005D4B1B78002B15D1404B5B7CDBB25B4A7C
:10545000D35C002B0ED0574B1B78002B00D008E7F5
:10546000544B01221A70394B997C3B4A1170072228
:105470009A74FEE6364BAF229B5C002B46D0344B31
:105480004A3A9B5C002B41D04A4B1B78002B00D141
:10549000EFE64B4B1B78002B09D1494B643A1A704D
:1054A000484B00221A70484B2A4A12781A70284B2F
:1054B000B0229A5C434B1B789A421BD9254B1A7831
:1054C000414B1B789A420BD0234B1A781F4B9A748E
:1054D000384A002313703A4A13703C4A1370C8E6E6
:1054E0003B4B1B78002BEFD1184B5B7C002B00D182
:1054F000BFE6E9E7184B1A78144B9A742D4A00233B
:1055000013702F4A1370314A1370B2E6294B1B787F
:10551000002B03D0104B1A780C4B9A74254A0023A9
:105520001370274A1370294A1370A2E6084B84228D
:105530009A5C0D4B1A70ECE6054B84229A5C0A4B80
:105540001A705CE0703B0020993B0020C0390020BD
:1055500018060020FA060020D43B0020F83B00206B
:105560006D3B0020973B00206A3B0020AC3B0020B5
:10557000A93B0020463B0020943B00209A3B0020A2
:105580006C3B0020893B0020883B00204B3B0020E7
:105590004C3B00205A3B0020FB060020643B0020CF
:1055A000493B0020053C0020843B0020F93B0020C3
:1055B000563B00200E3C0020E43B00200C3C002029
:1055C000073C0020063C00200F3C0020103C00203F
:1055D000803D00204A4B1A784A4B1B789A420ED3E2
:1055E000494B00221A700AE0484B1B78002B06D06A
:1055F000464A00231370444A1370454A1370454BC2
:105600001C70454B63229B5C002B0AD0434B1B78DC
:10561000002B03D1424B1B78002B4BD0414B012276
:105620001A70414BDB78DBB2404A13703A4AB92119
:10563000525C002A42D03E4AE12189004B4313804C
:10564000354B83229B5C002B09D0374B5B79DBB257
:10565000384A13705278934201D2364A5370364B0F
:105660009B7C072B03D0354B1B78002B2BD02A4B70
:10567000AE22985C0A2101F075FAC0B22E4B9872E6
:105680002D4C627C2E4B9200D0582E4B198801F085
:1056900069FAC1B22C4B19702C4B1878FCF74DFAF3
:1056A0002B4B1870A37DDBB22A4AD25C2A4B1A70AE
:1056B000FFF72DFA1B4B00221A70B2E71C4A27494C
:1056C0004B431380BCE71C4B5B7CDBB2244AD35CAE
:1056D000022B06D0184A537CDBB21649CB5C93727E
:1056E000CEE7204B1B78002BF4D00B4BAE22985CFE
:1056F0000A2101F037FAC0B20F4B9872C0E7C046DA
:10570000973B00206A3B00204C3B00204B3B002095
:105710006D3B0020FB06002018060020943B002073
:10572000953B0020963B0020D83B00209E3B00206C
:105730000C3A0020143C0020C0390020E43B00203B
:105740001C3B0020023A0020413B0020403B00204F
:10575000F8060020A43B0020A13B00209B05000090
:10576000F43B0020EF3B002070B5B84B1B78002BBA
:1057700001D100F07BFCB64B43221A70B54B0022DE
:105780001A70B54A137801218B431370B34B7E22F4
:105790009B5C002B04D1B14B02329B5C002B42D0AE
:1057A000AF4B1A78072A0CD89300AE4AD3589F46BD
:1057B000A94A137801210B43DBB21370A44B0022DA
:1057C0005A70A64B7F229B5C002B69D0A64B198890
:1057D0001A789F4BDA70A54B1B8899425CD29B1AB2
:1057E000DBB29B4A137164E0994B00225A70E8E7E0
:1057F000974B02225A70E4E7954B06225A70E0E775
:10580000934B09225A70DCE7914B0C225A70D8E76F
:105810008F4B0C225A70D4E78D4B0C225A708D4B53
:105820000B3A1A70CDE78E4B1A78092AC9D8930023
:105830008F4AD3589F46884A137801210B43DBB225
:105840001370834B00225A70BBE7814B00225A70C1
:10585000B7E77F4B02225A70B3E77D4B04225A70A0
:10586000AFE77B4B06225A70ABE7794B08225A70A0
:10587000A7E7774B0A225A70A3E7754B0C225A70A0
:105880009FE7734B0C225A709BE7714B0C225A70A6
:10589000704B0B3A1A7094E76D4B00221A7108E0B6
:1058A0006E4BC5229B5C002B25D1694B4622DA70DA
:1058B0001A7100F05BFF89235B0098422DD26D4B7B
:1058C00000221A706B4B1B78502B02D9614B0622B9
:1058D0001A70694B1B78042B25D0674B1B78002B63
:1058E00024D05C4B1B78002B20D1634B1B78DBB2A0
:1058F000584A13701AE0614B1B78554CE370604DA9
:105900002988604B1888BD3AFCF71DF9288064216E
:1059100001F028F9C0B22071CBE700F027FF113861
:10592000544B1870CEE74B4B04221A70494B1B782E
:10593000002B5FD0544B1B78002B5BD1474B802250
:105940009B5C002B39D0434B1B78092B11D0414B6A
:105950001B78012B16D03F4B1B78052B1BD03D4BE2
:105960001B78072B20D03B4B1B78DBB2384A537196
:105970009DE0464B1B78002B00D198E0344B783AE1
:105980005A7194E0414B1B78002B00D18FE0304BD3
:1059900006225A718BE03D4B1B78002B00D186E02C
:1059A0002B4B03225A7182E0384B1B78002B00D11D
:1059B0007DE0274B04225A7179E0284B7E229B5AC6
:1059C000002B11D0324B1B78002B03D1314B9B7B2A
:1059D000002B03D01E4B00225A7168E01D4B1B7830
:1059E000DBB21B4A537162E01A4B1B78DBB2184AD8
:1059F00053715CE0244B1B78002B55D0264A12785B
:105A0000002A14D1254A1278002A10D0214A127C8B
:105A1000002A0FD1224A1278002A0BD00F49842085
:105A2000085C20490978884201D9042A02D0084A32
:105A300053713CE0154A1278002A02D0044A53718F
:105A400035E0034B00225A7131E0C046843B002010
:105A5000FC3B00206F3B0020173C00201806002074
:105A60004F3B002064910010EC390020E039002009
:105A700084910010ED3B0020EC3B00204E3B0020C9
:105A8000FA390020FC390020703B0020623B0020E6
:105A90004C3B0020C0390020983B00209A3B00205E
:105AA000FA060020E83B0020C34B00225A71C34B8A
:105AB0001B78002B00D191E2C14B1B78002B25D124
:105AC000C04B84229A5CC04B1B789A4203D9BF49D1
:105AD000097804291AD0BE490978002900D1A9E023
:105AE0009A4200D8A6E0B94B1B78042B00D1A1E064
:105AF000B84B1B78002B00D19CE001296CD0022907
:105B000000D184E0B44B00221A800DE0AD4BB922E5
:105B10009B5C012B53D0B14B198889B2AE4CB04B72
:105B2000188801F01FF82080AB4B1B88002B00D198
:105B30004FE2D9B2A04A91711B0AD371A14B8222C4
:105B40009B5C002B05D0A74A137804210B43DBB2E2
:105B500013709C4B81229B5C002B23D0A24B1B8893
:105B6000002B00D15BE29F4A1378802149420B430E
:105B7000DBB213709D4B1B78DBB20A2B00D854E2CA
:105B8000984A137840210B43DBB21370954B1B7876
:105B90003F22934300D14EE2924A137804210B43F3
:105BA000DBB213708F4B1A781F210A4082498A702A
:105BB0001A783B210A401A700022002347E2874BE3
:105BC000198889B2844C864B188800F0CBFF83007B
:105BD000C01840002080A7E77A4BB9229B5C012BBC
:105BE00009D07E4B198889B27B4C7D4B188800F018
:105BF000B9FF208098E7794B198889B2764C784BA9
:105C0000188800F0AFFF0A23434323808CE76D4BD5
:105C10002B22985C764B1B885843642100F0B2FF1E
:105C200081B2744B19806C4C6D4B188800F09AFF50
:105C3000208079E7704B1B78002B0DD0664C684DA7
:105C40006E4B18880A2100F08DFF0100288889B268
:105C500000F088FF208067E7694B1B78002B0BD092
:105C6000684B1B789900C91849005D4B188800F0F3
:105C700089FF594B188057E7634B1B78002B09D0DD
:105C8000624B198889B2544C554B188800F06AFF52
:105C9000208049E75E4B1A785E4B1B789A4223D8E6
:105CA0004C49097800291FD048480078012803D9B9
:105CB000594C2478002C17D04A1E584B91008A1852
:105CC0009B181B5C002B0AD0012B00D02CE7424C08
:105CD000434B1888692100F045FF208024E73E4BA4
:105CE0003F4A12881A801FE79A4207D83949097833
:105CF000002903D035490978042911D09A421BD8CC
:105D0000344B1B78002B17D0454B1B78642159432B
:105D10000531334B188800F035FF2F4B188003E70F
:105D2000404B1B786031594305312D4B188800F0EA
:105D300029FF294B1880F7E63B4B3C4A12789B5CC5
:105D40000C2B00D9F0E69B00394AD3589F461D4BD7
:105D5000B9229B5C012B08D01F4C214A354B10887F
:105D6000198800F0FFFE2080DEE61B4C1C4A314BF8
:105D70001088198800F0F6FE0A2343432380D3E6F7
:105D8000104BB9229B5C012B09D0144B198889B2A6
:105D9000114C134B188800F0E5FE2080C4E60F4B31
:105DA000198889B20C4C0E4B188800F0DBFE0A23D0
:105DB00043432380B8E6C046FC3B00206D3B0020F7
:105DC0006C3B002018060020E83B0020FA0600206B
:105DD0006E3B00209A3B00200A3A0020F639002052
:105DE0000C3A0020173C0020183A00208A3D002081
:105DF000003A0020FE390020F93B00201E3A002026
:105E0000883B0020A13B0020893B00203C3D002036
:105E1000973B00206A3B00206B3B0020743B002036
:105E2000853B0020833B00205C3B00205A3B002048
:105E3000AC910010163A0020934B2B22985C934BA8
:105E40001B885843642100F09DFE81B2904B19805D
:105E5000904C914B188800F085FE208064E68E4BB4
:105E600018888E4B197800F08DFE8A4B18805BE6FF
:105E70008B4C21888B4B18880822FBF764FE20800E
:105E8000814BB9229B5C012B0BD0824C824D0A21A5
:105E900000F068FE0100288889B200F063FE2080CF
:105EA00042E67C4C7C4B1B880100180000F05AFE37
:105EB000208039E67C4B1988764C774B1888890806
:105EC00000F050FE20802FE6784B198889B2714C83
:105ED000714B188800F046FE208025E66A4BB922F7
:105EE0009B5C012B0AD0724B1978632911D96A4B3C
:105EF000188800F047FE674B188015E66C4B1B783E
:105F00000A215943644B188800F03CFE614B18800D
:105F10000AE60A235943604B188800F033FE5D4BB4
:105F2000188001E6634C2188634B18880822FBF730
:105F30000AFE2080574C584D0A2100F013FE010044
:105F4000288889B200F00EFE2080EDE5514C524ABF
:105F50005A4B1088198800F005FE2080E4E54A4B72
:105F6000B9229B5C012B0CD0554B18680A2100F01C
:105F7000F9FD0100484B188800F0F4FD454B1880EE
:105F8000D2E5454B18884E4B196800F0EBFD414BAC
:105F90001880C9E53F4C404A4A4B1088198800F0E8
:105FA000E1FD2080C0E5484B187864235843474BF7
:105FB000197800F0E7FD83B2013B9BB2444A13809D
:105FC0000A215943344B188800F0CCFD314B18801E
:105FD000AAE5404B07229A71DA71AFE53E4B18886B
:105FE000002817D0284BD0229B5C002B0CD000013E
:105FF0000A2100F0C7FD80B2384B1880C2B2354B81
:106000009A71000AD87199E5C2B2324B9A71000AAE
:10601000D87193E52F4B07229A71DA718EE5304AD9
:1060200013787F210B401370A4E52D4A137840218B
:106030008B431370AAE52A4A137804218B4313700B
:10604000B0E52449C95C8A18D2B20133DBB2072B10
:10605000F7D9204B1A72234A8A235B00D3581B0EB0
:106060007F221A401E239B1A092B00D870BD0023E3
:10607000082BFBD8174AD25CD2B21A48C02149007B
:1060800042500133DBB2F3E718060020003A00204B
:10609000FE3900200A3A00200C3A00204E3B002036
:1060A000FA390020FC3900203A3D00203C3D002018
:1060B0009F3B0020103A0020123A0020E2390020D5
:1060C000383B0020143A00208A3D002004070020BD
:1060D0000E3A0020FC3B0020183A0020083A00202D
:1060E000173C00200002004810B52C4B1B889BB2C7
:1060F0002B4A934204D8294B1B889BB2092B24D8E6
:10610000284B00221A80FCF705FDFDF78FFBFCF7FA
:1061100029FD254B187800010A2100F023FD234BAF
:106120001870FEF7F7F8224B1A78511C19700323E8
:106130001340022B2ED011D8002B16D0012B16D1D4
:10614000FDF7ECFBFCF73EFE11E0144B198889B219
:10615000184800F007FD134B1880D4E7032B06D135
:10616000FCF71CFDFEF772FA01E0FEF7ADFCFDF74F
:10617000D5FD114B9978114A1180D978104A1180B8
:106180001979104A118059790F4A11809A790F4B69
:106190001A8010BDFFF7E8FAE9E7C04616070020AD
:1061A000FFEF0000143A0020743D00204E3B002019
:1061B000533B002090D00300783D0020A4390020FC
:1061C000A6390020A8390020AA390020AC390020C7
:1061D00030B589B020220021684602F039FE2A4BF2
:1061E0001A682A4B9A4240D0294B284A1A60294AF9
:1061F0002221515C19712A21515C8800091848003C
:10620000D8806021515A19816221515C9972518A5A
:10621000D97200211973907D58739973D9736931BC
:10622000515C19746821515C59746E21515C9974E8
:106230006D21515CD9746B21515C19758721515CBA
:106240005975C321515CD9756C21525C9A756946A8
:106250000A00180038C838C238C838C200230222E1
:10626000094800F0A7F909B030BD6C4602222100B0
:10627000054800F0D3F906490B00220031CA31C3AA
:1062800013CA13C3EFE7C04600FF0010BBAA00000B
:10629000C03900201806002030B589B06C46202295
:1062A0000021200002F0D4FD074B2200190029C96B
:1062B00029C229C929C2002302222100034800F073
:1062C00079F909B030BDC046C039002000FF001088
:1062D00010B54A4B00E0013B002BFCD1FBF7D6FB8D
:1062E000002800D001BEA021C9050B684448034026
:1062F0008022920013430B6042490B6803401A430B
:106300000A60FAF783FF00F027FAFBF79BFFFBF721
:1063100045FCFFF75DFFFDF7C9FE3B4B1B794233A0
:106320003A4A13703A4B00241C7000F0ADF8394B18
:106330001C70394B01229A60384B00E0013B002B66
:10634000FCD1374BC622920098583649084080212C
:10635000C901014399508021890419609858324934
:1063600008408021C903014399508022D2041A6059
:10637000A023DB050F22DA602C4A116B80235B001F
:106380000B431363254B00E0013B002BFCD1284B52
:106390005A6801210A435A60264A9A60264B1B6FAD
:1063A0009BB2264A1380264A13800FE0FEF744FB77
:1063B00013E024490B6801330B60214B1A801F4BFB
:1063C0001B88D31A9BB220498B4211D8184B194A0B
:1063D0009A601E4B1B78002BE8D0154B154A9A602B
:1063E000154B1A6F92B2164B1B889342E7D9E0E720
:1063F000124B1A80FFF778FEE8E7C046804F120084
:10640000FFFCFFFF0000044818060020343D002078
:10641000163C00200A07002000000150C0D40100F3
:1064200000E100E0FF00FFFFFFFF00FF0000014070
:1064300000000240FECAADAB00020448183C002038
:106440001A3C00201C3C00206A180000A63B0020DB
:106450000323034A1361034A1361034A136170471C
:1064600000010050000200500003005010B5044B22
:1064700007221A70034B00221A70FFF7E9FF10BDC4
:10648000EC3B00200207002070B500F046F80A49F6
:106490004A6A920801231340084A13704D6A022485
:1064A0002C40234313704C6AA400042121400B4369
:1064B000137000F036F870BD00010440303D00203C
:1064C00010B5FFF7E1FF0D4B196B802252000A4314
:1064D0001A631A6B0A490A401A6309E0074B196BE1
:1064E000802252000A431A631A6B05490A401A6354
:1064F000044B9B68DB07F1D510BDC046000001408E
:10650000FFFEFFFF000100500230800803D0013879
:10651000FDD1C046C046C0467047EFF3108072B64A
:10652000704780F310887047064B1A898021490113
:106530000A431A8148215A5A8020000102435A52C4
:106540007047C0460000054010B50D4A13681B0A8D
:10655000FF210B400B480360126811400A4A11608A
:10656000002B08D01B02C918084800F0FBFA4000B5
:10657000074B186010BD064B064A1A60FAE7C04682
:1065800000030140983D0020943D0020000024F4C9
:10659000FC3F00200048E80110B5FFF7C5FFFBF7FE
:1065A00067FA10BD70470000014B188880B2704731
:1065B00000000540F8B504000D001700164A918848
:1065C000FF20814391809188C02080010143918008
:1065D000002B06D0938861210B439BB29380002649
:1065E0000BE00D4A9388A1210B439BB29380F6E701
:1065F000FFF7DAFFC007FBD40136BE4206D2002304
:10660000032BF5D802CD02C40133F9E7024A93887F
:10661000FF218B439380F8BD0000054030B5002575
:1066200005E010C810C10133032BFAD9013595429A
:1066300001D20023F8E730BDF0B5C64600B58B089F
:10664000984604339B001E5803250D40ED00F827A3
:10665000AF40BE431E50436F4F000326BE40B343BE
:106660004367CB0810339B001F5807260E40B60027
:106670000424B440A7431F501F585478B440260048
:106680003E431E500D4B98420ED00023D356002B94
:1066900010DB434604339B0019581278AA400A4382
:1066A0001A5080BCB846F0BD036E01268E40B3433D
:1066B0000366EAE753688B404360EAE70002044060
:1066C00010B50C000DE0800808490B68084A13401B
:1066D00002021343074A13430B60044B1B685B0021
:1066E000FBD4A3008342EED310BDC046000301409B
:1066F000FF000FC00000F03F30B50C000EE001229B
:1067000090000A490B680A4D2B4092021343094A34
:1067100013430B60054B1B685B00FBD48300A34253
:1067200003D20028EBD00200EAE730BD00030140AD
:10673000FF000FC00000F03F014BC3225A627047B8
:1067400000000140034BC0225A62024B5B6A5B07A8
:10675000FBD4704700000140034A938C01210B4396
:106760009BB293847047C0460010014010B5862349
:106770005B001B68984710BD10B50400FFF7E2FFEF
:10678000054B186920431861034B1B685B00FBD461
:10679000FFF7D2FF10BDC04600030140034B9B68CA
:1067A00003405A1E9341D8B27047C04600030140CF
:1067B00070B504000D00FFF7C5FF154B1A68120AEB
:1067C000FF2010401968134A11402943124A0A4316
:1067D0001A600F4B1B685B00FBD4A04214D8210049
:1067E000FFF78AFF0A4A13680C490B4024021C4336
:1067F000094B23431360064B1B685B00FBD4FFF778
:106800009BFFFFF7A1FE70BD2100FFF759FFE9E7ED
:106810000003014000FF0FC00000F03FFF000FC069
:1068200010B50400FFF78EFF074A136807490B40B5
:10683000A1680B4361680B431360FFF77DFF60782D
:106840002178FFF7B5FF10BD00030140FFFFF0FF07
:10685000014B18687047C046FC3F002010B5044B40
:10686000984200D010BD0420FFF786FFFAE7C0462B
:106870000000044870B505000C00FFF7EFFF80230F
:106880005B00EB602B68034A1340A4031C432C609D
:1068900070BDC046FF3FFFFF03680A0C9343090425
:1068A000090C1943016070470B6843614B799B06E3
:1068B000DB0F1B0543600B791B071B0F43624B79F2
:1068C0001B071B0F03624B79DB06DB0F83610B7920
:1068D0001B09C36270470B6843614B79DB07DB0A16
:1068E00043600B791B071B0F43620B791B09C362C3
:1068F0007047000010B543680324A3431943416067
:106900004369012A03D0044A1340436110BD802229
:10691000D2001343F9E7C046FFFBFFFF4368302274
:1069200093430901194341607047F0B5C64600B56D
:106930004C1EE4B206686500EDB22F001037FFB2BE
:1069400003239846BB409C4633006646B3439C46AF
:106950005378BB40664633431531CFB20121B9406D
:106960008B439178B94019431935EDB24646AE4094
:10697000B143D378AB400B43A100C9B20F248C4084
:10698000A34312788A401343036080BCB846F0BD2D
:106990001C318900401840687047000030B50B2951
:1069A0001AD889000D4B5B589F46032500240DE043
:1069B000C0252D010A2409E0C025AD00082405E00A
:1069C0000C25022402E0C025AD010C24A821435867
:1069D000AB43A2401A43425030BDC046EC93001076
:1069E00010B5A023DB05984200D010BD0220FFF7B0
:1069F000C3FEFAE770B505000C00FFF7F1FF802336
:106A00005B00EB602B68034A1340A4031C432C601B
:106A100070BDC046FF3FFFFF012303610B68436168
:106A20004B7BDB06DB0F1B0543600B7B1B071B0F40
:106A300043620B7B1B09C3624B7B1B071B0F03626B
:106A40004B6883618B6814225340836470470368EA
:106A50000A0C93430904090C1943016070470000B4
:106A600010B543680324A343194341604369012AD5
:106A700003D0044A1340436110BD8022D200134367
:106A8000F9E7C046FFFBFFFFF0B5C64600B54C1E58
:106A9000E4B206686500EDB22F001037FFB20323A1
:106AA0009846BB409C4633006646B3439C465378A9
:106AB000BB40664633431531CFB20121B9408B4309
:106AC0009178B94019431935EDB24646AE40B1430D
:106AD000D378AB400B43A100C9B20F248C40A34331
