:020000041000EA
:10100000480500201910001000000000A310001077
:1010100000040100000100001249134A134B00F0C4
:101020001AF8134880471349134A144B00F013F879
:101030001349144A144B00F00EF81449144A0020C6
:10104000521A02DD043A8850FCDC124880471248EC
:101050008047124880479B1A03DD043BC858D05094
:10106000FBDC7047789900100C0000204401002040
:10107000C1690010B09A00104805002058060020F1
:10108000C09B001058060020300E0020300E0020BB
:1010900030160020A1100010759200101966001083
:1010A0007047FEE70269C3689A4204D88068C01A94
:1010B000801801387047D01A0138FBE7F8B5CE46E2
:1010C000474680B504000E001700C568836899463E
:1010D0005B1B9846934209D94068401908F0EEF826
:1010E000ED19E560C0BCB946B046F8BD406840198E
:1010F0001A0008F0E3F84B46ED1AED19606831006C
:1011000041442A0008F0DAF8E560EBE7F8B5CE468E
:10111000474680B5060088461700C46800239946F4
:1011200014E0B2681B1BD218013A14E07068001971
:101130002A00414608F0C2F8A944A8447F1B64195C
:10114000B368A34211D0F460002F10D033699C42E1
:10115000E7D21A1B013AB3681B1B934200D9130054
:101160003D009F42E2D91D00E0E70024EBE748463E
:10117000C0BCB946B046F8BD10B5134CA82200213A
:10118000200008F06FF80323236163610F4AA26116
:101190000F4BE3618023DB0023620023A3626362C1
:1011A000E36222660B4A62661022A2662367E36648
:1011B000636706E00F22D21A0749895C024AD154BC
:1011C00001330F2BF6D910BD300E0020DC92001039
:1011D000E80E0020D80E0020E8920010F8B50300B9
:1011E0000F001600421C5400A418E400174AA4186B
:1011F0004000C018C0001218D56A012D12D0022D6F
:101200001DD0002D02D000252800F8BD2000FFF7DA
:1012100049FF8642F8D8320039002000FFF74EFF20
:101220003500F1E72000FFF73DFF3500864200D989
:1012300005002A0039002000FFF740FFE4E73200F4
:101240002000FFF763FF0500DEE7C046300E0020F8
:10125000F8B504000D001600094B1B78532B0CD178
:10126000EFF31087012181F310883200290020005C
:10127000FFF7B4FF87F31088F8BDFFF77DFFEFE7B6
:10128000300E002070B505000C00080008F01FF8B3
:10129000020021002800FFF7DBFF70BDF0B583B02E
:1012A00004000F0016000193184B1B78532B26D116
:1012B000022C27D8EFF31083012181F31088190045
:1012C000002C10D0114A601C43001D18ED00AF50D7
:1012D00053195E6063001B19DB00D318019A1A6270
:1012E00000229A625A62094B62001219D2009B18BE
:1012F000089ADA6281F31088002003B0F0BDFFF78E
:101300003BFFD5E701204042F7E7C046300E002002
:1013100010B5FFF731FF10BD10B500F007F800F071
:101320005DFB10BD10B5FFF7F7FF10BDF0B5DE4651
:1013300057464E464546E0B585B0FE4C002120009C
:1013400005F0ACFC80235B009846E360FA49FB4F54
:10135000380005F0BDFC02239B46FB6304267E6338
:101360008021C904200005F0ABFC07232361F44A67
:101370000121380005F0EDFCF24A0221380005F0A9
:10138000E8FCF14A0321380005F0E3FC01220121C9
:10139000380005F0C3FC01220221380005F012FDDF
:1013A000A4257B5933437B5101218A46E160002605
:1013B0003E67F960E549E64F380005F0A0FCE54BD3
:1013C0007B6380210905200005F07AFC70212161F2
:1013D000E14A6F39380005F0BCFCE04A02213800D0
:1013E00005F0B7FCDE4A0321380005F0B2FC01210C
:1013F000380005F0A7FC5A46E2603E675246FA60A4
:10140000D849D94F380005F063FCA023FB63D74BC4
:101410007B6380218905200005F052FCE022D20187
:101420002261D34A0121380005F093FCD14A022100
:10143000380005F08EFCD04A0321380005F089FC05
:101440000821E1603E675446FC60A024E4050021C9
:10145000200005F0E3FC4746E760C849C84F380064
:1014600005F0EEFCD2239B009846FB637E64D223FA
:10147000DB0099461900380005F04DFD8021C904B4
:10148000200005F0F8FC07222261BE4A0121380045
:1014900005F00EFDBC4A0221380005F009FDBB4AEB
:1014A0000321380005F004FD01220121380005F078
:1014B000EBFC5346E360B649380005F053FD3E6748
:1014C000B449B54F380005F0BBFC4346FB637E646E
:1014D0004946380005F01FFD80210905200005F070
:1014E000CAFC70202061AD4A0121380005F0E0FC03
:1014F000AB4A0221380005F0DBFCAA4A0321380080
:1015000005F0D6FC01220121380005F0BDFC58464B
:10151000E060A549380005F025FD3E67A349A44FCA
:10152000380005F08DFC4046F8637E64494638007B
:1015300005F0F1FC80214905200005F09CFCE0232A
:10154000DB0023619B4A0121380005F0B1FC9A4A77
:101550000221380005F0ACFC984A0321380005F060
:10156000A7FC01220121380005F08EFC0423E36072
:101570009349380005F0F6FC3E679249924F3800D7
:1015800005F05EFC4346FB637B644946380005F08A
:10159000C2FC80218905200005F06DFCE020C0011F
:1015A00020618A4A0121380005F082FC884A022124
:1015B000380005F07DFC874A0321380005F078FCEF
:1015C00001220121380005F05FFC032200213800D0
:1015D00005F0A4FC02220121380005F09FFC002246
:1015E0000421380005F09AFC01220321380005F09F
:1015F00095FC7B59504603437B517B595846034326
:101600007B517B59102213437B517B5908210B439B
:101610007B51E1603E67704C200005F0D7FC2368E9
:10162000032189468B4323606C49200005F0DAFCD6
:101630006B49200005F0E0FC6A496B4C0022200059
:1016400005F0E6FCE36950229343E361E369493A1C
:1016500093434A461343E361E26B644B1A40802391
:101660001B011343E363624B2361953D0295019691
:1016700000963A2300220021200005F0C9FD1F2317
:1016800005220021200005F0F3FD1F230522202163
:10169000200005F0D7FD236CAB435A461343236467
:1016A000544C666022791F231A432271524A904695
:1016B000566012791A4341460A71A660227A1A438B
:1016C00022728E600A7A13430B724C494C4F3800D9
:1016D00005F01CFE4B4D2100280005F083FE4A4C0E
:1016E0004146200005F07EFE0321280005F0BAFEE9
:1016F0000321200005F0B6FE8023FA5843490A4032
:10170000FA50FA5842490A40FA50380005F01AFED9
:1017100081239B00FA5849468A43FA50FA585146A9
:101720000A43FA503B49380005F0A4FE82235B00CF
:10173000984671E0000004485893001000010448E6
:10174000609300106493001068930010749300106D
:1017500000020448FFFF00007C93001080930010FB
:10176000849300101C94001000040448FF0400003F
:1017700024940010289400102C94001088930010DA
:1017800000010050A4930010A8930010AC93001027
:1017900098930010B093001000020050CC930010FA
:1017A000D0930010D4930010C0930010D893001071
:1017B00000030050F4930010F8930010FC93001005
:1017C000E8930010009400100004005010940010E2
:1017D0001494001018940010000001507093001031
:1017E0006C930010FC92001000020048FFE0FFFF25
:1017F00021810000E8120020FC1200204C9400100F
:10180000000003480004034800080348FFFFFEFFF0
:10181000FFFFFDFF40940010EB584A4693434246B9
:10182000AB50AB58524613434246AB500021280000
:1018300005F0B4FE0121280005F0B0FE02212800C9
:1018400005F0ACFE0321280005F0A8FE554928004C
:1018500005F06CFE544B1F6800230022390028005D
:1018600005F094FD002301223900280005F08EFDCB
:101870004E4B1F68012300223900280005F086FD29
:10188000012301223900280005F080FDAF239B00D1
:101890009B46F0235B035A46AB50A2239B00EE50BD
:1018A00088277F002123EB51EB51EB51EB51EB519A
:1018B000EB512722EA51EB513D4A0121280005F066
:1018C00077FE3C4A0721280005F072FE4346E358A4
:1018D00049468B4341466350635851460B4341464A
:1018E00063500021200005F059FE0121200005F081
:1018F00055FE0221200005F051FE0321200005F0D5
:101900004DFE2D49200005F011FE2C4B1D680023D3
:1019100000222900200005F039FD002301222900C2
:10192000200005F033FD264B1D680123002229000D
:10193000200005F02BFD012301222900200005F0E5
:1019400025FD204B59466350A4239B00E6500433E9
:10195000E6502023E351E3512722E251E351E351C2
:10196000013AE251E351E351174A0021200005F00A
:101970001FFE164A0621200005F01AFE144A072110
:10198000200005F015FE134805F052FE124A536878
:1019900051460B43536005B0F0BCBB46B246A94666
:1019A000A046F0BD649400103094001034940010F0
:1019B00008930010189300107094001038940010D1
:1019C0003C94001000001E802893001038930010F3
:1019D000489300107C9400100000024010B57F4A2C
:1019E0007F4C0021200005F03BF800220021200060
:1019F00005F0BFFA7B4A0A21200005F031F80022E9
:101A00000A21200005F0B5FA774A0D21200005F0E3
:101A100027F800220D21200005F0ABFA734A0121BE
:101A2000200005F01DF800220121200005F0A1FA98
:101A30006F4A0221200005F013F800220221200045
:101A400005F097FA6B4A0321200005F009F80022FF
:101A50000321200005F08DFA674A0421200004F0DC
:101A6000FFFF00220421200005F083FA634A0521CC
:101A7000200004F0F5FF00220521200005F079FA8E
:101A80005F4A0621200004F0EBFF0022062120001F
:101A900005F06FFA5B4A0721200004F0E1FF002205
:101AA0000721200005F065FA574A0821200004F0BC
:101AB000D7FF00220821200005F05BFA534A0921D4
:101AC000200004F0CDFF00220921200005F051FA8A
:101AD0004F4A504C0021200004F0C2FF0022002198
:101AE000200005F046FA4C4A0121200004F0B8FF1E
:101AF00000220121200005F03CFA484A0221200082
:101B000004F0AEFF00220221200005F032FA444A20
:101B10000321200004F0A4FF00220321200005F08F
:101B200028FA404A0521200004F09AFF00220521EE
:101B3000200005F01EFA3C4A3C4C0A21200004F02B
:101B40008FFF00220A21200005F013FA384A0B21EA
:101B5000200004F085FF00220B21200005F009FA87
:101B6000344A0221200004F07BFF002202212000E1
:101B700005F0FFF9304A0421200004F071FF002233
:101B80000421200005F0F5F92C4A0521200004F07D
:101B900067FF00220521200005F0EBF9284A062105
:101BA000200004F05DFF00220621200005F0E1F98D
:101BB000244A0821200004F053FF002208212000BD
:101BC00005F0D7F9204A0921200004F049FF00223E
:101BD0000921200005F0CDF910BDC0460095001088
:101BE00000000440C0940010E89400100895001014
:101BF0001095001018950010F0940010E09400105B
:101C0000B8940010B0940010209500102895001092
:101C1000D894001000010440D0940010C894001023
:101C200030950010F8940010A094001000020440B9
:101C3000A89400104095001088940010389500106A
:101C400048950010909400109894001030B585B01D
:101C500001A8044B020032CB32C204F0F5FF05B0FC
:101C600030BDC0465095001010B5FFF75BFB00205B
:101C700010BD70B505000E001C0004AB18888D4225
:101C80001FD395421ED2521A91B2A0420CD2AE1B63
:101C9000B6B2201A80B270434B08C01805F076F92E
:101CA00080B2201A80B20DE0AD1BADB2001B80B235
:101CB00068434B08C01805F069F980B2001980B27A
:101CC00000E0200070BD70B51D0004AB1B78884299
:101CD0001DD990421DD2AB420CD2441AE4B2E81A8C
:101CE000C0B26043511AC9B205F060F9C0B2281AF7
:101CF000C0B20DE0441AE4B2581BC0B26043511A9E
:101D0000C9B205F053F9C0B24019C0B200E02800D2
:101D100070BD1800FCE7030008008B4200D21800D9
:101D2000704770B505000C000A2A15D80A20801AE1
:101D300068434A43801805300A2105F027F980B22C
:101D400084420AD1854202D9013080B205E0854241
:101D500003D2013880B200E0002070BD002803D01B
:101D6000044B20225A607047024B802292035A6033
:101D7000F9E7C0460001044010B5CE4B1B88CE4A9F
:101D80001288934200D030E3CB4C2380CB4B1B888E
:101D90006380CB4B1B78643B2371CA4B1B886371F8
:101DA000C94B1B88E380C94B1B882381C84B1B8808
:101DB0006381C84B1B88A381C74B1B88E381C74B3A
:101DC0001B882382C64B1B886382C64B1B882375E6
:101DD000C54B1B886375C54B1B88A375C44B1B88FB
:101DE000E375C44B1B882376C34B1B886383C34BAB
:101DF0001B88A383C24B1B88A377C24B1B88E37746
:101E0000C14B1A882023E254C04B1A882123E25484
:101E1000BF4B1A882223E254BE4B1B88A384BE4BBF
:101E20001B88E384BD4B1A882823E254BC4B1A88D4
:101E30002923E254BB4B1A882A23E254BA4B1A884E
:101E40002B23E254B94B1A882C23E254B84B188840
:101E500006F096F9B74905F069FC2063B64B18887F
:101E600006F08EF9B34905F061FC6063B34B188846
:101E700006F086F9AF4905F059FCA063B04B18880D
:101E800006F07EF9AB4905F051FCE063AD4B1888D4
:101E900006F076F9A74905F049FC2064AA4B18889A
:101EA00006F06EF9A34905F041FC6064A74B188861
:101EB00006F066F99F4905F039FCA064A44B188828
:101EC00006F05EF99B4905F031FCE064A14B1888EF
:101ED00006F056F9974905F029FC20659E4B1888B5
:101EE00006F04EF9934905F021FC60659B4B18887C
:101EF00006F046F98F4905F019FCA065984B188843
:101F000006F03EF98B4905F011FCE065954B1A8807
:101F10006023E252944B1A886223E254934B1A884E
:101F20006323E254924B1A886423E254914B1A883B
:101F30006523E254904B1A886623E2548F4B1A882B
:101F40006723E2548E4B1A886823E2548D4B1A881B
:101F50006923E2548C4B1A886A23E2548B4B1A880B
:101F60006B23E2548A4B1A886C23E254894B1A88FB
:101F70006D23E254884B1A886E23E254874B1A88EB
:101F80006F23E254864B1A887023E254854B1A88DB
:101F90007123E254844B1A887223E254834B1A88CB
:101FA0007423E252824B1A887623E254814B1A88BA
:101FB0007723E254804B1A887823E2547F4B1A88A7
:101FC0007923E2547E4B1A887A23E2547D4B1A8897
:101FD0007B23E2547C4B1A887C23E2547B4B1A8887
:101FE0007D23E2547A4B1A887E23E254794B1A8877
:101FF0007F23E254784B1A888023E254774B1A8867
:102000008123E254764B1A888223E254754B1A8856
:102010008323E254744B1A888423E254734B1A8846
:102020008523E254724B1A888623E254714B1A8836
:102030008723E254704B1A888823E2546F4B1A8826
:102040008923E2546E4B1A888A23E2546D4B1A8816
:102050008B23E2546C4B1A888C23E2546B4B1A8806
:102060008D23E2546A4B1A888E23E254694B1A88F6
:102070008F23E254684B1A889023E254674B1A88E6
:102080009123E254664B1A889223E254654B1A88D6
:102090009323E254644B1A889423E254634B1A88C6
:1020A0009623E252624B1A889823E252614B1A88B7
:1020B0009A23C1E000F000104805002002F0001053
:1020C00004F0001006F0001008F000100AF00010F4
:1020D0000CF000100EF0001010F0001012F00010C4
:1020E00014F0001016F0001018F000101AF0001094
:1020F0001CF000101EF0001020F0001022F0001064
:1021000024F0001026F0001028F000102AF0001033
:102110002CF000102EF0001030F0001032F0001003
:1021200034F0001036F0001038F000103AF00010D3
:102130003CF000100000C8423EF0001040F00010DB
:1021400042F0001044F0001046F0001048F000107B
:102150004AF000104CF000104EF0001050F000104B
:1021600052F0001054F0001056F0001058F000101B
:102170005AF000105CF000105EF0001060F00010EB
:1021800062F0001064F0001066F0001068F00010BB
:102190006AF000106CF000106EF0001070F000108B
:1021A00072F0001074F0001076F0001078F000105B
:1021B0007AF000107CF000107EF0001080F000102B
:1021C00082F0001084F0001086F0001088F00010FB
:1021D0008AF000108CF000108EF0001090F00010CB
:1021E00092F0001094F0001096F0001098F000109B
:1021F0009AF000109CF000109EF00010A0F000106B
:10220000A2F00010A4F00010A6F00010A8F000103A
:10221000AAF00010ACF00010AEF00010B0F000100A
:10222000B2F00010B4F00010B6F00010B8F00010DA
:10223000BAF00010BCF00010E2526C4B1A889C23DC
:10224000E2526B4B1A889E23E2546A4B1A889F23F2
:10225000E254694B1A88A023E254684B1A88A123E0
:10226000E254674B1A88A223E254664B1A88A323D0
:10227000E254654B1A88A423E254644B1A88A523C0
:10228000E254634B1A88A623E254624B1A88A723B0
:10229000E254614B1A88A823E254604B1A88A923A0
:1022A000E2545F4B1A88AA23E2545E4B1A88AB2390
:1022B000E2545D4B1A88AC23E2545C4B1A88AD2380
:1022C000E2545B4B1A88AE23E2545A4B1A88AF2370
:1022D000E254594B1A88B023E254584B1A88B12360
:1022E000E254574B1A88B223E254564B1A88B32350
:1022F000E254554B1A88B423E254544B1A88B52340
:10230000E254534B1A88B623E254524B1A88B7232F
:10231000E254514B1A88B823E254504B1A88B9231F
:10232000E2544F4B1A88BA23E2544E4B1A88BB230F
:10233000E2544D4B1A88BC23E2544C4B1A88BD23FF
:10234000E2544B4B1A88BE23E2544A4B1A88BF23EF
:10235000E254494B1A88C023E254484B1A88C123DF
:10236000E254474B1A88C223E254464B1A88C323CF
:10237000E254454B1A88C423E254444B1A88C523BF
:10238000E254434B1A88C623E254424B1A88C723AF
:10239000E254414B1A88C823E254404B1A88C9239F
:1023A000E2543F4B1A88CA23E2543E4B1A88CB238F
:1023B000E2543D4B1A88CC23E2543C4B1A88CD237F
:1023C000E2543B4B1A88CE23E2543A4B1A88CF236F
:1023D000E254394B1A88D023E254384B1A88D1235F
:1023E000E254374B1A88D223E25410BDBEF00010DD
:1023F000C0F00010C2F00010C4F00010C6F00010D1
:10240000C8F00010CAF00010CCF00010CEF00010A0
:10241000D0F00010D2F00010D4F00010D6F0001070
:10242000D8F00010DAF00010DCF00010DEF0001040
:10243000E0F00010E2F00010E4F00010E6F0001010
:10244000E8F00010EAF00010ECF00010EEF00010E0
:10245000F0F00010F2F00010F4F00010F6F00010B0
:10246000F8F00010FAF00010FCF00010FEF0001080
:1024700000F1001002F1001004F1001006F100104C
:1024800008F100100AF100100CF100100EF100101C
:1024900010F1001012F1001014F1001016F10010EC
:1024A00018F100101AF100101CF100101EF10010BC
:1024B00020F1001022F1001024F1001026F100108C
:1024C00028F10010F0B5DE4657464E464546E0B5C9
:1024D00089B0FFF751FCF94CE28C01922C23E05CAF
:1024E0005043642104F052FDF54B1880227EF54BD9
:1024F0001A70658BB723E35C9A46ED1AADB2F24BC6
:102500001D80F24BA0221A80237D0293002B00D164
:10251000C7E2680040194000A02104F047FD0130E7
:10252000EB4B1880A80040198000A02104F03EFD6C
:102530000130E84B1880BF22A05C6843A02104F062
:1025400035FD0130E44B1880E14B1B889946E14B87
:102550001C8864004B46E41AA4B2E41AA4B2DF4B10
:102560001C802900FA20400104F020FDDC4B18807B
:10257000DC4B50221A80D14EC023F75C6437B80080
:10258000C0190001642104F011FD85B2D64B1D80F5
:10259000D64B782290461A803801C01B80006421F7
:1025A00004F004FD070043464A469B1ACA4A1088B5
:1025B000804698442001001BC000A02104F0F6FCD6
:1025C0004346181A7843782104F0F0FC80B2C84BD7
:1025D00018802C004443281A830018184000C12397
:1025E000F15C04F0E3FC291A200004F0DFFC010098
:1025F000C04804F0DBFCC223F35C5843222104F002
:10260000D5FCC3B203931800BB4B18808423F75C3E
:102610007A08BA4B1A707E23F35C002B04D1802217
:10262000B35C002B00D14DE2A44C236B9B46B44914
:10263000181C05F045FA05F043F8B24B1880636B9F
:10264000AF490493181C05F03BFA05F039F8AE4B7E
:102650001880A26B9146AA49101C05F031FA05F0CA
:102660002FF8AA4B1880E26B9046A549101C05F084
:1026700027FA05F025F8A64B1880226CA049059290
:10268000101C05F01DFA05F01BF8A24B1880666CB3
:102690009B49301C05F014FA05F012F89E4B188087
:1026A000E56D9749281C05F00BFA05F009F89B4BDE
:1026B00018802823E05C05F011FD041C9849584659
:1026C00005F0FEF9011C201C05F0FAF904F0F8FFF2
:1026D000944B18809249049805F0F2F9011C201CD3
:1026E00005F0EEF904F0ECFF8F4B18808C4948465A
:1026F00005F0E6F9011C201C05F0E2F904F0E0FF0A
:102700008A4B18808649404605F0DAF9011C201CE6
:1027100005F0D6F904F0D4FF854B18808049059860
:1027200005F0CEF9011C201C05F0CAF904F0C8FF21
:10273000804B18807A49301C05F0C2F9011C201C1E
:1027400005F0BEF904F0BCFF7B4B18807449281CCF
:1027500005F0B6F9011C201C05F0B2F904F0B0FF39
:10276000764B1880554BB6229D5CAB00ED186D0082
:10277000734B1D80734B1D804F2D00D975E2724B3A
:10278000663A1A804D4CB823E25C704B1A70704B5D
:102790001F70BD23E25C6F4B1A706923E25C6E4BC5
:1027A0001A708723E25C6D4B1A706823E25C6C4BF5
:1027B0001A706C23E25C6B4B1A70A27D6A4B1A7024
:1027C0006423E25C694B1A70BC22A25C5A707023CD
:1027D000E25C674B1A707123E25C664B1A706D23E2
:1027E000E25C654B1A70E27D644B1A702B23E05C4F
:1027F000019B5843642104F0C9FB314B1880292305
:10280000E25C5F4B1A705F4B039A1A705E4B524644
:102810001A805E4B1A805E4B1A801E3A5D4B1A80FE
:1028200053461E335C4A13805C4B029A1A70622333
:10283000E25C5B4B1A707622A25C5A70C823E25CA1
:10284000584B1A70CD23E25C574B1A70CE22A25C13
:102850005A70564B1D703C4A12885A70C423E25C71
:10286000534B1A706B23E25C524B1A708F23E25C5D
:10287000514B1A709022A25C5A709122A25C9A70FD
:102880009222A25CDA709322A25C1A719422A25C5A
:102890005A718923E25C494B1A708A22A25C5A70F1
:1028A0008B22A25C9A708C22A25CDA708D22A25CD0
:1028B0001A718E22A25C5A7182E0C046480500203F
:1028C00082130020411500201A1300201E1300203F
:1028D00010130020161300201813002012130020DC
:1028E0001C1300202213002020130020241300209A
:1028F00014130020A80F0000521300203E130020E4
:102900000000C8424C1300204A1300204813002046
:1029100046130020441300204213002040130020DF
:102920000000204132130020301300202E1300201D
:102930002C1300202A130020281300202613002027
:102940003C130020381300203A130020E814002024
:102950000A1500200E15002080150020E914002023
:102960008B15002092150020E6140020A8150020E9
:10297000301500203115002032150020E71400200A
:102980003D150020401500209013002094130020D6
:102990009213002098130020961300209315002016
:1029A000B01500202B15002090150020F8140020F1
:1029B0008515002086150020FC1400200415002039
:1029C000AB4B00221A709621665A7608F6B25E70FA
:1029D0000231655A6D08EDB29D700231605A4008AF
:1029E000C0B2D8700231615A4908C9B219715A711E
:1029F0009E27E75D9F719F27E75DDF71A027E75D59
:102A00001F72A127E75D5F729A72A227E75DDF72EE
:102A1000A327E75D1F73A427E75D5F73A527E75D25
:102A20009F73DA73A627E75D1F74A727E75D5F74BE
:102A3000A827E75D9F74A927E75DDF741A755E75A7
:102A40009D75D87519765A76B121615C9976B22157
:102A5000615CD976B321615C1977B421615C5977E7
:102A60009A77AA21615CD977AB21605C8B39585485
:102A70008C31605C8B3958548C31605C8B39585484
:102A800001315A5401315A5401315A5401315A54C6
:102A900001315A5409B0F0BCBB46B246A946A04623
:102AA000F0BD744B06221A80734B0E321A80734BA2
:102AB000AB32985C6843A02104F078FA0130704B87
:102AC000188041E56D4C266B301C06F01BFA002285
:102AD0006C4B05F09DFB04F00BFE6B4B1880636B99
:102AE0000493181C06F00EFA0022664B05F090FBCA
:102AF00004F0FEFD654B1880A26B91466449101CE2
:102B000004F0DEFF04F0DCFD624B1880A26C9346FB
:102B10005F49101C04F0D4FF04F0D2FD5E4B188016
:102B2000E26C5B490592101C04F0CAFF04F0C8FD7A
:102B30005A4B1880216D0D1C55490695281C04F030
:102B4000BFFF04F0BDFD564B1880616D0D1C504950
:102B50000795281C04F0B4FF04F0B2FD514B188017
:102B6000A16D88464A49404604F0AAFF04F0A8FD3A
:102B70004D4B1880E56D4649281C04F0A1FF04F078
:102B80009FFD4A4B18802823E05C05F0A7FA041C3F
:102B90004749301C04F094FF011C201C04F090FFF6
:102BA00004F08EFD434B18804149049804F088FFDF
:102BB000011C201C04F084FF04F082FD3E4B1880B1
:102BC0003B49484604F07CFF011C201C04F078FFC0
:102BD00004F076FD394B18803549584604F070FFF3
:102BE000011C201C04F06CFF04F06AFD344B1880BB
:102BF0002F49059804F064FF011C201C04F060FFBD
:102C000004F05EFD2F4B18802949069804F058FF08
:102C1000011C201C04F054FF04F052FD2A4B1880C4
:102C20002349079804F04CFF011C201C04F048FFC6
:102C300004F046FD254B18801D49404604F040FF36
:102C4000011C201C04F03CFF04F03AFD204B1880CE
:102C50001749281C04F034FF011C201C04F030FF2D
:102C600004F02EFD1B4B18807CE51B4B1D8089E575
:102C70004C150020101300201613002048050020DA
:102C80001813002000005940501300204E1300205C
:102C90000000C8424C1300204A13002048130020B3
:102CA000461300204413002042130020401300204C
:102CB000000020413613002034130020321300207E
:102CC000301300202E1300202C1300202A13002084
:102CD00028130020261300203A13002070B5164B4D
:102CE0001B78002B14D0012B16D0144B1B78002B13
:102CF0000DD0134D2C88134B134A12785200D05A22
:102D00006043642104F042F980B224182C8070BD25
:102D10000A4B01221A70E8E70C4B1B88002B03D1E9
:102D2000064B01221A70E0E7074B1B782D2BDCD9EC
:102D3000024B00221A70D8E7851500208715002065
:102D40008A130020C41300203F150020BE14002069
:102D500010B5194B1B78002B0BD1184B1B88002B7F
:102D600007D1174B01221A70164B174A12781A70A6
:102D70001DE0134B1B78002B19D0124B1B78002B36
:102D800016D0104A013B13700E4B1B786420584339
:102D90000D4B197804F00AF983B26420C01A80B28E
:102DA0000A4C23885843642104F000F9208010BDA8
:102DB000034B00221A70E7E73F150020B8130020EC
:102DC0008215002081150020360600208A1300207D
:102DD00010B5184B1B78002B27D0174A1378591CB5
:102DE0001170DB0703D5154A138801331380134B89
:102DF0001A88C8239B009A4202D9104BA0221A803D
:102E00000E4B1B88DB08DBB20D4A13700D4A927D16
:102E1000D2B20D498B540D4B1B8864205843A72117
:102E200004F0B4F80A4B188010BD044BA0221A809D
:102E3000FAE7C046951500208A150020BE13002031
:102E4000411500206813002044150020C013002005
:102E5000C213002010B50B4B1B889BB2002B0CD06B
:102E6000084B198889B2084B1889AB239B0058433B
:102E700004F08CF8054B188010BD044B00221A801A
:102E8000FAE7C046FA15002068130020BE1400209F
:102E900008490A889308D21A92B20A80064B1B8806
:102EA0009B189BB20B80054A9B0857214B4313800C
:102EB0007047C04684130020EE150020A6130020A2
:102EC000714B9B7C012B5FD06F4B9B7C022B5BD0AB
:102ED0006D4B9B7C052B57D06B4B9B7C042B53D0AD
:102EE0006A4B00221A706A4B1A880A2A07D9674B64
:102EF0001B78002B50D1644B9B7C032B4CD0654B33
:102F000000211970634B1B783C2B02D9624B0921BD
:102F10001970624B1988624B1B88994202D05E4B34
:102F200009211970594B1978002914D05D4B1B8861
:102F30000A3B9BB291204000834209D85A4B188823
:102F4000FA235B00984203D8584B1B78002B02D021
:102F5000514B02201870564B1B885B0814335548A0
:102F60000088834225D2544B1B78002B21D10029A5
:102F70001FD0524B1B78013BDBB2812B19D9504932
:102F80000B7801330B7017E04E4B1B78002BA7D149
:102F90003E4B01221A70A6E74B4B1B78002B03D047
:102FA0004A4B1B78002BAAD13A490B7801330B709E
:102FB000A8E7434B00211970414B1B78FA2B02D92B
:102FC000354B03211970424B1B78002B1FD15A2A15
:102FD0000CD92D4B9B7C072B08D02B4B9B7C062BB5
:102FE00004D03C490B8801330B8002E0394B0021AF
:102FF0001980394B1B88002B02D0364B00211980D9
:10300000344B1B887D2B02D9234B08211970334B7D
:103010001B781E2B0FD9132A0DD8314A1378013390
:10302000DBB213700A2B09D91B4B04221A702C4BEC
:1030300000221A7002E02A4B00221A70294AC52386
:103040009B00D3589B109B059B0D274A13800E4B6A
:103050005B7CDBB2254AD35C002B13D0244B1B785E
:10306000132B0FD8224A013313701F4B1A88920872
:103070000B4B79215B5C0533DBB29A4202D9064BDC
:1030800005221A707047C04668130020751500208D
:10309000B81300203C1500208C15002000F0001013
:1030A000480500209013002088130020E31400201E
:1030B0001E1300208C130020841500203F150020D3
:1030C000F1140020E4140020E21400202A1500204E
:1030D0008D150020AA130020BE140020ED1400203E
:1030E0003B15002000080348EA1500209015002039
:1030F0008F15002010B52A4B1B78002B11D0294BBF
:103100001A78C8239B0053439BB2274A1088584320
:10311000264B19894B00C918C90103F037FF244B0E
:103120001880244B6A229B5C002B22D0204B1C88E9
:10313000002C07D0204B1888210003F027FF84B211
:103140006400A4B21D4B1988002906D01A4B1888B8
:1031500003F01CFF81B2490089B2194B1B78002B88
:103160000FD08C4206D2091B89B2164A13685B182D
:10317000136010BD611A89B2124A13685B1A13609A
:10318000F7E7002CF5D00F4B1B680F4A9342F0D99C
:103190000C4A1B1B1360064B00221A80E9E7C0464D
:1031A000241500203E150020FA1500206813002089
:1031B000BC13002048050020B0130020AE130020EF
:1031C0000D1500202406002000E1F50570B582B041
:1031D000204B1888C72807D91F4B18221A701F4B7D
:1031E0000F3A1A7002B070BD1D4E33788008C0B21D
:1031F0001825009532220A21FEF765FD164C207035
:103200003378184A1078009546221421FEF75BFDAA
:103210002378834201D9104B1870134E33780D4A2E
:1032200010888008C0B20925009532220A21FEF7D5
:103230004AFD0A4C207033780A4A107800954622DD
:103240001421FEF740FD23788342CBD9034B18703D
:10325000C8E7C046BE140020300600202E0600201D
:10326000310600203F1500202F06002010B5344BFA
:103270001C78344B5B7B002B0ED0334B1B78002B20
:103280000AD1324B1A88324B197878235B1A9A424A
:1032900002DD2D4B01221A702A4B1B7D002B40D1E1
:1032A000294B1A78002A03D12A4B1B78002B37D0E0
:1032B000264B1988284B1B784B43544363435B0AC6
:1032C0005801C01A8000C018C000244B198803F0B0
:1032D0005DFE84B22409FFF779FF214B1A78A242E0
:1032E00022D2204B1A70204B88229B5C002B0FD0DF
:1032F0001E4B1B78002B1AD01A4B1B78154A1278DC
:10330000934201D9134A1370164B124A12781A705D
:10331000144B1B78002B0ED0154B164A12781A70DE
:1033200010BDFFF7DBFCBBE70E4B1C70DBE7094B66
:1033300000221A70ECE70E4B00221A70F0E7C0462C
:1033400049150020681300203F1500208A13002033
:10335000E71400208315002041150020A61300204B
:1033600028060020E21400204805002084150020D3
:103370002A1500203506002070B5334BC9229B5C0E
:10338000002B53D1314B5B7B002B0ED0304B1B7885
:10339000002B0AD12F4B1A882F4B197878235B1AF0
:1033A0009A4202DD2A4B01221A70284B9B7B002B8C
:1033B00002D0274B01221A70264B1B88002B03D00A
:1033C000234A1278002A03D1244A1278002A2CD0EA
:1033D000234A10785843782103F0E8FD040085B2B1
:1033E000FFF7F4FE1F4B1A78AA4222D21E4B1A7026
:1033F000154B88229B5C002B0FD01C4B1B78002B9D
:103400001AD0194B1B78154A1278934201D9134AE6
:103410001370154B114A12781A70134B1B78002B3E
:103420000ED0134B134A12781A7070BDFFF790FC40
:10343000A8E70D4B1C70DBE7084B00221A70ECE785
:103440000B4B00221A70F0E748050020681300209B
:103450003F1500208A130020E71400208315002068
:103460004915002028060020E214002084150020C1
:103470002A1500203506002010B51A4B1A78002AAC
:1034800027D0194B1B789B189B10184A1380184B98
:103490001B78A42B02D8164BA5221A70FFF758FCF4
:1034A000134B144A12781A70104B1C88124A128857
:1034B0001A80FFF78BFE114B1A78A2420AD2104BEA
:1034C0001A700F4B1B78002B07D00E4B0E4A127848
:1034D0001A7010BD0A4B1C70F3E70A4B00221A70D9
:1034E000F7E7C0463F150020491500208A13002049
:1034F00036060020370600208E1300202806002004
:10350000E21400202A1500203506002070B5394B42
:103510005B7B002B0ED0384B1B78002B0AD1374B2E
:103520001A88374B197878235B1A9A4202DD324B9E
:1035300001221A702F4B9B7B002B02D02E4B0122B5
:103540001A702E4B1888002803D02B4B1B78002BA9
:1035500003D12C4B1B78002B3DD02B4B1B785B00F1
:10356000FE214900C91A89B2284B1B78002B05D0CF
:10357000214B1B788B422FD8C91A89B20A3189B2E4
:103580004043081803F002FD040085B2FFF71EFE59
:103590001F4B1A78AA4221D21E4B1A701E4B88224A
:1035A0009B5C002B0FD01D4B1B78002B19D0194BA7
:1035B0001B78144A1278934201D9124A1370154BA2
:1035C000104A12781A70134B1B78002B0DD0144B35
:1035D000144A12781A7070BD0021CFE70D4B1C7091
:1035E000DCE7084B00221A70EDE70D4B00221A7041
:1035F000F1E7C046681300203F1500208A13002021
:10360000E714002083150020491500202B15002009
:1036100028060020E2140020480500208415002020
:103620002A1500203506002070B53F4BC9229B5C4F
:10363000002B00D06AE03D4B5B7B002B0ED03C4B57
:103640001B78002B0AD13B4B1A883B4B1978782307
:103650005B1A9A4202DD364B01221A70334B9B7B78
:10366000002B02D0324B01221A70314B1D78002DF5
:1036700003D1324B1B78002B47D02E4B1C88002CDB
:1036800009D02F4B1A782F4B9B185879604378211B
:1036900003F08CFC84B22C4B1B786B432B4A1288B2
:1036A00053435B0A5801C01A8000C018C000284B61
:1036B000198803F06BFC80B20009844200D2040038
:1036C000FFF784FD234B1A78A24222D2224B1A70B4
:1036D000154B88229B5C002B0FD0204B1B78002BB6
:1036E0001AD01D4B1B78154A1278934201D9134A00
:1036F0001370194B114A12781A70174B1B78002B54
:103700000ED0174B174A12781A7070BDFFF720FBC6
:1037100091E7114B1C70DBE7084B00221A70ECE7B5
:103720000F4B00221A70F0E74805002068130020B4
:103730003F1500208A130020E71400208315002085
:103740002B0600204C15002049150020C013002036
:10375000A613002028060020E21400208415002073
:103760002A1500203506002030B583B0914BCC22BD
:103770009B5C002B00D1C8E08F4B5B7CDBB28F4A97
:10378000D35C8F4A13708F4A11788F4A1278914216
:1037900000D196E08B490A70864A7821525C002A53
:1037A00000D1B4E0834A1339525C002A00D18CE086
:1037B0009BB2864A1288934200D994E0844B1B78CE
:1037C000002B00D18FE0834B1B78002B04D1824B60
:1037D0001B78002B00D186E07B4B06221A707F4BB2
:1037E0001B78002B18D07D4A002313707C4A13806D
:1037F0007C4A13807C4AFA21490011807B4A13805D
:103800007B4A13807B4B7C4A12789B185B7E9A0024
:103810009B185B00794A1380784A6C4B12881B888E
:10382000D21A93B210B26E4A10806F490A889A1861
:1038300012B20A80FA2189008A4200DCAEE06A4AAC
:103840001180684C2188591A8AB2684D29802080DD
:103850009B009BB251005218520092B26249002064
:10386000085E81000918C9109B185B181BB2604ADA
:103870001380002B00DA98E05D4B00229A5EFA2359
:103880009B009A4203DD5A4BFA2292001A805C4B4D
:10389000F4221A705B4BAB3A1A705B4B5B4A12789E
:1038A0001A70534B0020185E8010C0B2584B1B7822
:1038B00000930023FA220021FEF705FA554B1870F9
:1038C00023E0434A0121117066E79BB23F4A128808
:1038D000934208D83E4B1B78002B04D03D4B1B78FD
:1038E000002B00D078E73A4B00221A703B4B013294
:1038F0001A70354B02321A703E4B3F4A12789B18B1
:103900009A7A454B1A70FFF7B7FD03B030BD294ACC
:10391000B521525C002A2FD0264A5039525C002A29
:1039200017D09BB2294A12889342DCD8224B5B7C89
:10393000002BD8D1264B1B78002BD4D0254B1B78DD
:10394000002B00D048E7244B1B78002B00D043E726
:10395000C9E79BB21D4A12889342C4D8164B5B7CC0
:10396000002BC0D11A4B1B78002BBCD0194B1B78F5
:10397000002B00D030E7B6E79BB2144A128893427E
:10398000B1D80D4B5B7C002BADD1114B1B78002BBC
:10399000A9D0104B1B78002BA5D01DE7002A00DB17
:1039A0004FE7114A002111804BE7130000221A80D3
:1039B00062E7C0464805002068130020F814002084
:1039C000F61400204815002047150020BE140020E2
:1039D000F41400203F150020F5140020F3140020FB
:1039E000621300206613002064130020601300207F
:1039F0005E1300204C1500202B060020BC14002074
:103A0000300600202E060020E214002028060020A8
:103A1000350600202A1500204915002030B583B056
:103A20003F4AC5239B00D3589B109B059B0D3D4AE5
:103A3000138010883C4B7922995C01329A5C800893
:103A4000C0B2FF2300930023FEF73DF9374B1870F7
:103A5000002830D0364B1870364B5B7CDBB2364AD0
:103A6000D35C012B2BD0032B31D0314B1878334B47
:103A70001B7800930023FF220021FEF724F90400A5
:103A800005002F4B1B78834213D22E4B1888FE283B
:103A90002CD92D4B30221A702C4B273A1A70274BF9
:103AA0001B78AB4238D2264A1370294B294A127828
:103AB0001A7003B030BD1E4B00221A70CCE7264BA3
:103AC0001B78002BD1D11A4B00221A70CDE7164B70
:103AD000AE229A5C1B4B1B889A42C6D21E4B1B78A7
:103AE000002BC2D1124B00221A70BEE7C0B23023A5
:103AF0000093C433FF222821FEF7E5F8124B18701B
:103B0000104B1878092300934033FF222821FEF739
:103B1000DAF80E4B1870C2E7094B1C70C5E7C046B7
:103B200000080348EA150020480500208E150020F3
:103B3000E4140020681300209015002028060020BF
:103B4000E2140020BE140020300600202E060020C3
:103B50002A150020350600203F15002010B582B040
:103B6000114B1C88A4B2C822104B18885623FF336F
:103B700000930F4B52002821FEF77BF80D4B188065
:103B8000002C0BD021000C4803F000FAC0B20B4B04
:103B90001870782805D978221A7002E0074B0022A5
:103BA0001A7002B010BDC046F2150020BE140020ED
:103BB000AE1000001C06002035DF00003F1500207D
:103BC00070B582B0114B9B7A002B01D102B070BD51
:103BD0000E4A937A023BDBB2990059184900947A55
:103BE0000234E4B2A300E4186400094E3378094DAE
:103BF0002888002200922200FEF73BF830702B88C4
:103C0000A342E3D9044B00221A70DFE768130020B7
:103C1000E2140020BE1400202A15002070B5784A56
:103C2000C2239B00D3589B109B059B0D754A1380A4
:103C3000754B1B78772B00D87CE0744B1A88744B3B
:103C40001A80744B1B78002B09D0734B1B88D31A36
:103C50009BB26F490B80714800881B180B80704B1A
:103C600085215B5C002B0AD06D4B01315B5C6849A0
:103C700009888B4200D388E0D21A6A4B1A80614BC4
:103C80001A88694B1A80684B1B88614A12889342D4
:103C900000D8A8E065490978002900D179E0644995
:103CA000897D002975D063490888181A80B29B1A4B
:103CB0009CB2614B1B885843604B198803F076F91E
:103CC000201A80B25E4D28805E4B1B8858430A2123
:103CD00003F06CF9040080B20B2103F057F980B2B5
:103CE0006E300B2103F062F92404240C604332216E
:103CF00003F05CF94A4BC0229B5C64335843C821F3
:103D000003F054F980B228804F4B1C88A04243D264
:103D100025004543201A830018184000404BC1225B
:103D2000995C03F043F9211A280003F03FF9444B52
:103D3000188031E0108880B23E4C21880222FDF7C5
:103D4000F0FF2080304A13780133DBB21370782BF8
:103D500007D0354B18803D4B1B88C0182B4B188063
:103D600091E7324B1B78002BF3D0394B1B889842DC
:103D700007D9384B1B88984203D2374B00221A7060
:103D8000E7E7354B01221A70E3E7264B00221A8041
:103D900075E79B1A2A4A1380294A13882F490988F4
:103DA0005B185B101380264B1B882C4A13802C4A0F
:103DB00013802C4A1078584380B22B4A10801B4A3B
:103DC0001278002A13D01A4A927D002A0FD0274A6F
:103DD000107858430F4B1B785843602103F0D6F8F6
:103DE000234B18800BE0164B00221A80DBE7094BAF
:103DF0001B785843602103F0C9F81D4B188070BD33
:103E000000040348EC1500208113002092130020C9
:103E1000901300203F1500201613002018130020D7
:103E200048050020861300208813002093150020E9
:103E30006813002094130020121300201E1300208A
:103E40008A1300201C1300202013002010130020D0
:103E50009813002096130020E31400208E130020F6
:103E60008C13002041150020C013002040150020B5
:103E7000B613002010B56E4A13780133DBB213700D
:103E80006C490A780132D2B20A706B49097800296C
:103E90001BD0032B19D9664B00211970664B197082
:103EA000664B1B78002B1AD0012A18D9614B0022CF
:103EB0001A70624B1A70624BDB7CDBB2082B00D9A4
:103EC000B0E09B005F4AD3589F460029E8D1022BFF
:103ED000E6D9574B1970584B01311970E0E7002BA8
:103EE000E9D1012AE7D9534B00221A70534B013212
:103EF0001A70E0E7544B1878FDF730FF10BD524BB5
:103F00001878002804D04C4B1878FDF727FFF5E708
:103F1000FDF724FFF2E74C4B1878002803D04B4BF9
:103F20001B78002B02D1FDF719FFE7E7434B187808
:103F3000FDF714FFE2E7444B1878002803D0434B09
:103F40001B78002B06D100280AD03B4B1878FDF7D0
:103F500005FFD3E73D4B1878C0B2FDF7FFFECDE774
:103F6000FDF7FCFECAE7384B1878002803D0374B22
:103F70001B78002B06D1002809D02F4B1878FDF7AD
:103F8000EDFEBBE72D4B1878FDF7E8FEB6E7FDF731
:103F9000E5FEB3E72D4B1B78002B05D02B4B187893
:103FA000C0B2FDF7DBFEA9E7274B1878FDF7D6FE78
:103FB000A4E7264B1B78002B04D0204B1878FDF784
:103FC000CDFE9BE7204B1878FDF7C8FE96E71F4B08
:103FD0001B78002B08D11C4B187800280AD0164BF0
:103FE0001878FDF7BBFE89E7184B1878C0B2FDF7CB
:103FF000B5FE83E7FDF7B2FE80E7144B1B78002B7C
:1040000008D1114B1878002809D00B4B1878FDF710
:10401000A5FE73E7094B1878FDF7A0FE6EE7FDF7E4
:104020009DFE6BE7084B1878FDF798FE66E7C046E3
:1040300003150020F014002002150020EF140020CA
:10404000681300205C95001036150020141600201F
:1040500010B5754B9B7B002B1DD0744B1B78143314
:10406000734A1370724B1B78822B02D9704B8222D9
:104070001A70704BF4221A706F4BAB3A1A706F4B78
:1040800019782820FDF747FE6D4B18706D4B684A74
:1040900012781A7010BD654B18786B4B18706B4B0B
:1040A0001B78002B0ED16A4A1288002A0AD1604B75
:1040B00032321A70674B1A70674B00221A80674BB6
:1040C0001A80CFE7002B6FD0614B1B88644A12889F
:1040D000934219D2634B04221A70634A1378591C15
:1040E0001170042BBED9524B1A785A4B1B789A4246
:1040F00006D24F4B01321A705B4B00221A70B1E7A7
:10410000544A01331370F7E7544909888B4217D298
:104110009B1A9B00DBB2534A137053490A78501C18
:10412000087093429ED2424B1B784A4A12789342BF
:1041300002D23F4A013313704B4B00221A7091E7B1
:104140004A4A1288934216D2D31A9B00DBB2454AE0
:10415000137045490A78501C0870934200D381E7D8
:10416000334B1B78282B02D9314A013B13703E4B4D
:1041700000221A7076E73B4B04221A703A4A1378F1
:10418000591C1170042B00D86CE7294B1B78282B85
:1041900006D9274A013B13702E4A1378013B13704E
:1041A000314B00221A705DE72E4B0A221A702E4AFC
:1041B0001378591C11700A2B00D853E72C4B19881F
:1041C000002925D02A2903D9194A1378013B1370F5
:1041D000214A13885C1C1480092B15D91D4A1378B9
:1041E0000A3313701A4B1B88584302F0DFFE80B26B
:1041F0001A4B18800200143A194B1A8014301B4BCA
:104200001880124B01221A70174B00221A7029E7EE
:10421000104B1B78772BF7D805490A7801320A70C2
:104220000C4A01331370EFE7681300204915002092
:104230003A060020300600202E0600202806002026
:10424000E21400202A150020AD150020AC15002036
:10425000B813002039060020BA140020B81400203A
:10426000B614002038060020A4150020B414002045
:10427000BE14002010B5BE4BC2221A70BD4B793A55
:104280001A70BD4B00221A70BC4B1A70BC4BBE3268
:104290009B5C002B21D0BB4B1B88F52B1DD9BA4A48
:1042A0001178C9B2B94A1278D2B2914215D2B84A3D
:1042B0001278002A11D10B33DBB2B64A13705B09B6
:1042C000B54A13701378DBB2052B02D9130005220F
:1042D0001A70B24B01221A7002E0B04B00221A7021
:1042E000AF4B1B78002B20D1AE4B9B7CDBB2082B55
:1042F00035D89B00AC4AD3589F46FEF7B7FF2EE057
:10430000FFF73AF82BE0FFF7B7F828E0FFF7FEF8E1
:1043100025E0FFF789F922E0FFF726FA1FE0FFF713
:1043200097FE1CE0FEF754FD19E0A04B1A786423B9
:1043300053431B11DBB2904A1370702B02D9130048
:1043400070221A709A4B1B788C4A1370994A127813
:10435000934201D3894B1A70974B32221A70884BC3
:10436000CD229B5C002B07D08E4B5B7CDBB2934A4B
:10437000D35C002B00D0A8E0FFF722FCCF229200F4
:104380008F4B9B581B041B0C8E498A581204120C2D
:104390009B185B11DBB28C4A12789A4202D28B4B8B
:1043A00007221A70764BD2229B5C002B0ED0874AD4
:1043B0001278002A00D18BE0854801780131017024
:1043C000834909788B4201D8824B1A70824B1B6853
:1043D000824A11685B18136081490A68013A0A60D1
:1043E000002A11D15801C01A8000C018C000A021B5
:1043F000890002F0CBFD40097A4B1860784B2822E7
:104400001A60764B00221A60774B1B78002B27D15D
:10441000764B1B78002B23D06E4B1B78042B1FD0C0
:104420006C4B1B78092B1BD06A4B1B78072B17D0C2
:10443000684B1B78052B13D06D4B1B78002B0FD0CE
:104440005D4B1B78002B0BD06A4B1B78002B07D1E0
:10445000604B1B78002B3FD0524B9B7B002B3BD1FA
:10446000654BC2221A70654BB93A1A70474B00224D
:104470001A70634B1A705D4B1B78002B5ED0554A47
:104480001278042A1BD0534A1278092A17D0514AAD
:104490001278072A13D04F4A1278052A0FD0554AAE
:1044A0001278002A0BD1374A1288002A46D1324AA4
:1044B0001278002A42D1534A1278002A3ED14B4B3F
:1044C00000221A7002F0E6F910BDFFF7A7FA53E7D1
:1044D0003F490020087073E74B4B1B78702B02D9C3
:1044E000494B70221A70484B1B7819003231364AFA
:1044F0001170214A1278934201D21F4A13701C4B4B
:104500001B78172B02D81A4B18221A70194B1B78DC
:10451000082B02D8174B09221A70154B1A78364B04
:104520001A70144B1A78354B1A70134B1A78174BB4
:104530001A70124B1A78324B1A709CE7002BC3D1B9
:10454000104B1B889F2BBFD80B4B1B78002BBBD06D
:10455000254B1B78002BB7D1244B01221A70294B15
:104560001D321A70294B00221A7002F0BDF9ABE718
:10457000300600202E060020E21400202A1500201C
:1045800048050020B813002008160020151600204A
:10459000E41400202E1500201D16002019160020FE
:1045A0008D15002068130020809500102D06002036
:1045B0003206002035060020491500209015002005
:1045C0000004034800080348290600202C15002099
:1045D0002D1500208C15002000160020C01400208E
:1045E00020060020CC1400201416002033060020E2
:1045F0002B0600200B1600204A060020490600204A
:10460000161600201E160020280600201C1600206A
:1046100010B582B0644B7E229B5C002B04D1624BB0
:1046200047329B5C002B06D0604B1B78452B02D891
:104630005E4B46221A705E4BD8886423584357213C
:1046400002F0A4FC80B25B4B18805B4B1B78642BA0
:1046500002D9594B64221A70534C607D1823009381
:10466000AA3364220021FDF72EFB544B1870292336
:10467000E05C203B0093403364220021FDF723FBE4
:104680004F4B1870CA23E05CAC3B0093E1336422CB
:104690000021FDF718FB4B4B1870237E4A4A13701C
:1046A0004A4A1278002A37D03F4BC2229A5C464BC6
:1046B0005A703F4B197C464A1170597D5171597C93
:1046C0005170197D9171997DD172597B5172997B8D
:1046D0009173997C3F4A1170D97C3F4A1170DB7B02
:1046E0009B003E4A138013889BB2002B0ED0138888
:1046F000FA208000C01A3A4B1B885843642102F00C
:1047000045FC384B1860384B01221A70264B9A8BA7
:10471000364B1A80012310E02B4A5370C9E75A1E0A
:1047200032495200505A204A2124125D4243120A53
:10473000801A5A0088520133DBB2772BEFD91A4B1B
:10474000BD229B5C002B02D0294BBC3A1A70184B3F
:1047500018796423584380B20009C0B2254B187001
:10476000114CA28C244B5A43120924490A6074222A
:10477000A25A53431B094B60BB23584380B270219C
:1047800002F004FCC0B21E4B18701B78DBB2BB2BCE
:1047900002D91B4BBB221A70034B1B794233194AB7
:1047A000137002B010BDC046480500200A15002055
:1047B000681300203E060020E71400203106002088
:1047C0002F060020360600204415002093150020F7
:1047D0001415002025150020231500209A13002011
:1047E00082130020DC140020EC140020C4130020ED
:1047F0000D150020E0140020A0860100C414002044
:104800002A060020E4150020F8B504000F0015006A
:104810001E000B4B18888300C0184000094B28224B
:10482000995C02F0C3FB0004000C801B7843A91BB9
:10483000083102F0BBFB80B2001980B2F8BDC0465F
:10484000A81300204805002010B5484B7E229B5C31
:10485000002B04D1454B02329B5C002B37D0444BDC
:104860001A78072A03D89300424AD3589F4600205B
:1048700079E0414B1B88414A1288FA210120FFF759
:10488000C3FF70E03D4B1B883D4A1288FA21FA2095
:10489000FFF7BAFF67E03A4B1B883A4A1288FA20C2
:1048A000FA214000FFF7B0FF5DE0364B1B88364A27
:1048B0001288FA213548FFF7A7FF54E0FA2080005C
:1048C00051E0FA2080004EE0FA2080004BE0284BB7
:1048D0001A78092A03D893002D4AD3589F460020FE
:1048E00041E0254B1B88254A1288A7210120FFF7AC
:1048F0008BFF38E0214B1B88214A1288A721A72073
:10490000FFF782FF2FE01E4B1B881E4A1288A7204C
:10491000A7214000FFF778FF25E01A4B1B881A4AB1
:104920001288FA20A7214000FFF76EFF1BE0164B0C
:104930001B88184A1288A7211748FFF765FF12E065
:10494000144B1B88154A1288A7211548FFF75CFFF6
:1049500009E0FA20800006E0FA20800003E0FA2057
:10496000800000E00A2010BD0A20FCE74805002076
:10497000EE140020A49500104013002042130020E4
:10498000441300204613002048130020EE020000CC
:10499000C49500104A1300209B0200004C13002015
:1049A0004203000070B5B34B1888642102F0EEFAA0
:1049B00084B2B14D298802222000FDF7B2F9288087
:1049C000AE4B1B78DBB2012B00D894E0AC4B00223D
:1049D0001A70AC4C218889B2AB4B18880222FDF7C3
:1049E000A0F92080A94B7E229B5C002B05D1A74B10
:1049F00002329B5C002B00D1CFE0A24B1B889BB204
:104A0000A34A1288934200D881E0A24B07221A7071
:104A1000994B1888A04B1B7858430A2102F0B6FA2C
:104A200080B29E4B18809E4B1A68801818609D4972
:104A300002F0ACFA9C4B18609C4B1B68C0189C4B56
:104A400018609C4BDB7D022B00D10DE164235843A1
:104A5000994B198802F09AFA80B2FA239B00984287
:104A600000D91800FA239B001B1A9BB2934A1380AB
:104A7000924B1B889B08DBB28E4AD373904B1B78FA
:104A8000002B37D08F4B1B78002B17D08E4B1B7809
:104A9000002B1DD17D4B5C6B28229B5C9800C018BD
:104AA000400003F01BFB011C201C03F009F802F07E
:104AB00007FE80B2704B1B88984209D27F4BFA22C6
:104AC00092001A80794B00221A607E4B01321A70D4
:104AD0007C4B1B78002B0DD07B4B1B78002B09D116
:104AE0007A4B1A78511C1970684B84215B5C9A428E
:104AF00000D9FDE070BD624A11784B1CDBB2137027
:104B0000142B00D865E7604B1C80117061E75D4B8A
:104B10001B889BB26E4A1288934203D95D4B0622D2
:104B20001A7075E7574B1B889BB26A4A12889342EA
:104B300003D9584B05221A706AE7524B1B889BB267
:104B4000654A1288934203D9524B04221A705FE7D8
:104B50004C4B1B889BB2614A1288934203D94D4B40
:104B600003221A7054E7474B1B889BB25C4A128899
:104B7000934203D9474B02221A7049E7414B1B88E5
:104B80009BB2584A1288934203D9424B01221A70B1
:104B90003EE7404B00221A703AE73A4B1B889BB223
:104BA000514A1288934203D93A4B09221A702FE7CF
:104BB000344B1B889BB24D4A1288934203D9354B24
:104BC00008221A7024E72F4B1B889BB2304A1288A8
:104BD000934203D92F4B07221A7019E7294B1B88E0
:104BE0009BB23B4A1288934203D92A4B06221A7081
:104BF0000EE7244B1B889BB2364A1288934203D996
:104C0000244B05221A7003E71E4B1B889BB2324AC5
:104C10001288934203D91F4B04221A70F8E6194BED
:104C20001B889BB22D4A1288934203D9194B032249
:104C30001A70EDE6134B1B889BB2294A12889342E7
:104C400003D9144B02221A70E2E60E4B1B889BB26A
:104C5000244A1288934203D90E4B01221A70D7E6D8
:104C60000C4B00221A70D3E6FFF7EEFD134B1880B1
:104C7000FEE6C046A6130020A4130020081600205C
:104C800034060020A81300209C13002048050020B3
:104C900032130020EE140020ED140020A013002099
:104CA000D4140020907E0000D0140020DC140020DA
:104CB000D814002068130020821300209A130020CB
:104CC00024150020EC1400200A160020881500206E
:104CD000301300202E1300202C1300202A13002054
:104CE0002813002026130020361300203413002040
:104CF000FFF7AAFD02001C4BDB7D002B30D11B4BC4
:104D00001B889BB2952B29D8184B1988C9B2174B11
:104D10001B885B1A9A4205DB144B1B88963398421A
:104D200000DCE7E6114B18801B88FA208000C01ACF
:104D30000F4B1B885843642102F028F90D4B186073
:104D40000D4B01221A700D4B1A700D4B83329B5C78
:104D50005B080C4A13700C4A1370CBE69621D6E719
:104D60000A4B01221A70C5E6681300209A1300202E
:104D700082130020DC1400200C1500200D150020EB
:104D80004805002088150020371500200A1600204D
:104D90001E4A8A235B00D3581B070AD48E235B006C
:104DA000D358DBB21A4A1278D1B2002A02D00129B4
:104DB00015D07047592B05D0164B00221A70144B92
:104DC0001A70F6E7134A1178C9B21348435413789E
:104DD0000133DBB213700E4B01221A70E9E70D4A62
:104DE0001178C9B20C48435413780133DBB2137005
:104DF0001378DBB2062BDCD9130000221A70044BA7
:104E00001A70064B01321A70D3E7C0460002004800
:104E1000891500207F1500207815002046150020F8
:104E200010B5BF4A137801331370BE4A13780133AB
:104E30001370BD4A137801331370BC4A13780133E1
:104E40001370BB4B1B78002B17D110BDB949C95C3F
:104E50008A18D2B20133DBB2052BF7D9B54B9B7957
:104E6000DBB293420CD0B24B00221A70AC4B1B78D1
:104E7000032BEAD9B04B1A70E7E700220023EBE7D7
:104E8000A74B00201870AB4B5A7801210A40AB4960
:104E90000A70597820242140A94C21705B78212187
:104EA0008B43A8490870102B19D00ED8042B00D1C1
:104EB00091E0082B03D1A04B0421197012E0022BC2
:104EC00010D19D4B022119700CE0402B7FD0802B1C
:104ED00008D1994B012119709A4B197002E0964B39
:104EE00000211970984B1B78002B03D1974B9249E6
:104EF00009781970944B01211970002A00D192E1B0
:104F0000934B1B78002B10D1924B1B7C002B66D14E
:104F1000894B1B78002B62D08F4A8331515C8F4ABA
:104F20001278914201D9042B59D0894B01221A7071
:104F30007E4B1B788A4A127893420DD27E4B1978A9
:104F4000824B1B7899421ED0864B1B78002B1AD1BE
:104F5000854B1B78002B16D1844900230B708449A4
:104F60000B7072490A70834A1370834A1370834A24
:104F70001370834A1370834A1370834A1370834AF1
:104F80001370834A13707B4B1B78002B00D1E4E134
:104F9000804B00221A706F4B1B7C002B0ED1664B8E
:104FA0001B78002B0AD06C4A8421515C6B4A127822
:104FB000914200D8D1E1042B00D0CEE15E4B1A78AB
:104FC000042A00D9BDE19300734AD3589F465A4B37
:104FD0000121197086E7584B0321197082E76F4B46
:104FE00001221A70614B1B78002B27D15F4B1A707E
:104FF0005F4A13780133DBB21370032B02D913001D
:1050000003221A70634B00221A704B4B1B78012B42
:1050100054D0042B00D1D3E0002B39D0544B1B7853
:105020000133DBB2554A13705D4A1370524B0122B3
:105030001A703D4B00221A703C4B1A703A4B1B7889
:10504000584A1278934210D23B4B19783F4B1B7849
:10505000994200D16CE7434B1B78002B00D067E7E7
:10506000414B1B78002B00D062E7394B01211970AE
:105070004A4900230B703D490B703D490B702B4989
:1050800037480078087028490A703C4A13704FE787
:10509000374B1B78022B09D0032BBFD1424B1A7818
:1050A0002C4B5A755A7D414B5A71B7E7404B1A78D1
:1050B000284B1A741A7C3D4B1A70AFE72C4B1B78A7
:1050C000022B13D0032BA9D13A4B1A78214B1A7516
:1050D0001A7D364B9A712B4B1B78002B0ED02B4B25
:1050E00001221A701E4BF9321A7097E7324B1A7868
:1050F000184B5A745A7C2D4B5A708FE7204B1B78F3
:10510000002B8BD02D4B1A78124B9A759A7D274B1A
:10511000DA721D4B01221A70114BF9321A707DE7B9
:1051200080130020A2150020331500203715002021
:1051300046150020781500202B0600202F15002092
:10514000A1150020E5140020241500202C060020C5
:105150003415002068130020480500208815002021
:105160000A15002094150020EA14002038150020AC
:105170003A150020391500200D15002010150020CB
:1051800026150020271500202915002028150020AD
:105190000C1500200B150020EC9500103515002093
:1051A000111500203F130020E914002014150020E1
:1051B00080150020861500208B15002092150020F8
:1051C000C64B1B78022B16D0032B00D026E7C44B0E
:1051D0001B78092B1FD0C34B1A78C34BDA74DA7CC7
:1051E000C24B1A70C24B1B780A2B00D016E7C14B7A
:1051F00001221A7012E7BA4B1B78092B00D00DE779
:10520000B84B1A78B84BDA74DA7CB84B1A70B94BD1
:1052100001221A7002E7B84B1A78B34B5A735A7BC3
:10522000B64B5A72DEE7B64B1B78002B0FD1B54B4D
:105230001B78002B00D17BE6B24A00231370B24AE0
:105240001370B24A1370B24B01221A7070E6AC4B65
:1052500000221A706CE6A14B1B78022B10D0032B96
:105260001BD0012B6DD1A04A117CAA4B1970137C65
:1052700059424B41DBB21374127CA04B1A7060E0B0
:10528000994A517DA44B1970537D59424B41DBB271
:105290005375527D994B5A7153E001F099F950E0E2
:1052A0008E4B1B78022B10D0032B1BD0012B48D127
:1052B0008D4A517C994B1970537C59424B41DBB25A
:1052C0005374527C8D4B5A703BE0874A117D944B4E
:1052D0001970137D59424B41DBB21375127D874B18
:1052E0009A712EE08F4B1B78002B0FD17E4A917D57
:1052F0008D4B1970937D59424B41DBB29375927D72
:105300007E4BDA72894B01221A701AE0764B9B7C35
:10531000082B03D0744B9A7C854B1A70724B082271
:105320009A74844B073A1A700BE06C4B1B78022B73
:105330002DD0032B2FD0012B25D06B4B9A7C7E4B8D
:105340001A70784B1B78002B04D17C4B84229A5C1A
:105350007B4B1A707B4B01221A70784B7E229A5A33
:10536000002A00D103E1674B1B78002B00D19FE09E
:10537000664B1978744B1B78994200D2F7E0734B57
:1053800000211970F3E0584B01229A74D5E7564B6F
:1053900002229A74D1E7544B03229A74CDE74F4B03
:1053A0001B78022B0CD0032B0ED0012B04D04E4BBC
:1053B0009A7C614B1A70C4E74B4B04229A74F6E74F
:1053C000494B05229A74F2E7474B06229A74EEE79E
:1053D000424B1B78022B37D0032B52D0012B04D029
:1053E000414BDA7C414B1A70ABE7544B84229A5CF8
:1053F000574B1B789A420DD83B4BD97C394A1170D8
:10540000DB7CDBB24D4A6D21525C934216D0364BA9
:10541000DA74E5E7FFF718FA4E4B18801B88FA207C
:105420008000C01A4C4B1B885843642101F0AEFD2C
:105430004A4B18604A4B01221A70D1E73F4B6F224A
:105440009A5C294BDA74CBE7254B1B78092B08D0E3
:105450003A4B70229A5C244BDA74DA7C214B1A7036
:10546000BEE7214A517B244B1970537B59424B4173
:10547000DBB25373527B214B5A721E4B01221A70BE
:10548000AEE71B4B1B780A2B05D02C4B71229A5C84
:10549000154BDA74A4E7144A937B59424B41DBB2B3
:1054A0009373927B154B9A73124B01221A7097E7F4
:1054B000164B1878214B8421595C234B1B78CB1A4F
:1054C000984251DD88424FD2044B1B78002B4BD0C1
:1054D0001E4B24490978197049E0C0463A1500204E
:1054E00030150020321500206813002023150020FD
:1054F000311500200B150020E614002014150020A3
:1055000034150020381500203515002037150020EF
:105510003915002080150020E91400208B1500208B
:105520008615002029150020921500202615002040
:10553000741500202715002025150020480500209F
:105540000A1500200D1500203E1300201015002024
:10555000881500209A13002082130020DC140020FC
:105560000C15002011150020CC4B00211970CC4BDC
:1055700000211970CB4B9B7CD9B2062B00D1D1E016
:10558000082900D0DEE0C84B78315B5C002B0AD1E3
:10559000C54B01395B5C002B05D1C34B46315B5CCD
:1055A000002B00D1A8E0C14B1B78012B00D886E06E
:1055B000BF4B1A78BB4B9A74BE4B00221A70BE4B7D
:1055C0001A70BE4BBE4A12781A70B64B9A7C013ADA
:1055D000B64B1C78BB4B91008A189B18185DBA4BD0
:1055E0001870BA4B1B78002B08D0AF4BCF229B5CB6
:1055F0005843642101F0CAFCB34B1870A94B5B7D82
:10560000002B00D1A7E1B24B1B78002B00D197E112
:10561000B04B1B78002B00D092E1AF4B1B78002BD6
:1056200000D08DE1AD4B1B78002B00D088E1AC4B56
:105630001B78002B00D083E1AA4B1B78002B14D1E0
:10564000A84A01331370A84A13709B4A13709B4BEE
:1056500000221A70A54B1A70A54B1C70A54B1B7825
:10566000002B00D10EE1964A1370A04B1B78A14A83
:10567000D25C002A02D1914A002111705A1C9E4925
:1056800009788A4200DB51E18C4A11788C4A127801
:10569000043A914204DA964A1278944200D15AE1CF
:1056A000864A002111700133DBB2904A1370914A8F
:1056B000D35C002B00D1EBE0814A13704BE17F4BB0
:1056C00019787F4B1B78994200D371E7794B1B788F
:1056D000002B05D1774B01211970784B00211970EF
:1056E000864B1B78002B13D0854B1B78002B0FD0DB
:1056F000844B012119700EE06C4B1B78012B00D0FC
:1057000056E76E4B19786E4B1B789942DED34FE704
:105710007C4B00211970002A00D156E75F4B002214
:105720001A7052E7754B1B78002B07D0744B1B780F
:10573000002B03D0744B01221A7046E7724B0022F3
:105740001A7042E7584B88229B5C002B16D06B4B9B
:105750001B78002B0FD06A4B1B78002B0BD06B4BA8
:105760001B78002B07D15A4B1B78002B03D0684BBA
:10577000873A1A7002E0664B00221A704A4B642284
:105780009B5C002B00D120E75C4B1B78002B1DD0CD
:105790005B4B1B78002B19D05D4B1B78002B15D170
:1057A000404B5B7CDBB25B4AD35C002B0ED0574B8B
:1057B0001B78002B00D008E7544B01221A70394B9C
:1057C000997C3B4A117007229A74FEE6364BAF2251
:1057D0009B5C002B46D0344B4A3A9B5C002B41D05B
:1057E0004A4B1B78002B00D1EFE64B4B1B78002B6C
:1057F00009D1494B643A1A70484B00221A70484B41
:105800002A4A12781A70284BB0229A5C434B1B78B4
:105810009A421BD9254B1A78414B1B789A420BD0E0
:10582000234B1A781F4B9A74384A002313703A4A54
:1058300013703C4A1370C8E63B4B1B78002BEFD12A
:10584000184B5B7C002B00D1BFE6E9E7184B1A78B8
:10585000144B9A742D4A002313702F4A1370314A47
:105860001370B2E6294B1B78002B03D0104B1A782B
:105870000C4B9A74254A00231370274A1370294A47
:105880001370A2E6084B84229A5C0D4B1A70ECE66A
:10589000054B84229A5C0A4B1A705CE010150020BC
:1058A0003915002068130020480500202B06002031
:1058B00074150020941500200D15002037150020C8
:1058C0000A1500204C15002049150020E514002081
:1058D000341500203A1500200C1500202915002051
:1058E00028150020EA140020EB140020FA140020F0
:1058F0002C06002004150020E8140020A11500202B
:105900002415002095150020F5140020AA1500206C
:1059100084150020A8150020A3150020A215002042
:10592000AB150020AC150020141600204A4B1A7845
:105930004A4B1B789A420ED3494B00221A700AE058
:10594000484B1B78002B06D0464A00231370444A6C
:105950001370454A1370454B1C70454B63229B5C8A
:10596000002B0AD0434B1B78002B03D1424B1B78F2
:10597000002B4BD0414B01221A70414BDB78DBB23C
:10598000404A13703A4AB921525C002A42D03E4A3A
:10599000E12189004B431380354B83229B5C002B14
:1059A00009D0374B5B79DBB2384A13705278934297
:1059B00001D2364A5370364B9B7C072B03D0354BB4
:1059C0001B78002B2BD02A4BAE22985C0A2101F0C9
:1059D000DDFAC0B22E4B98722D4C627C2E4B920099
:1059E000D0582E4B198801F0D1FAC1B22C4B197046
:1059F0002C4B1878FCF78FF92B4B1870A37DDBB27A
:105A00002A4AD25C2A4B1A70FFF72DFA1B4B002250
:105A10001A70B2E71C4A27494B431380BCE71C4B62
:105A20005B7CDBB2244AD35C022B06D0184A537C41
:105A3000DBB21649CB5C9372CEE7204B1B78002B70
:105A4000F4D00B4BAE22985C0A2101F09FFAC0B251
:105A50000F4B9872C0E7C046371500200A1500208A
:105A6000EB140020EA1400200D1500202C06002065
:105A7000480500203415002035150020361500207B
:105A8000781500203E150020B0130020B01500202E
:105A90006813002084150020C4140020A6130020E1
:105AA000E1140020E0140020280600204415002006
:105AB000411500209B050000901500208E15002048
:105AC00070B5B14B1B78002B01D100F06BFCAF4BD4
:105AD00043221A70AE4B00221A70AE4A137801218D
:105AE0008B431370AC4B7E229B5C002B04D1AA4BE2
:105AF00002329B5C002B42D0A84B1A78072A0CD8A4
:105B00009300A74AD3589F46A24A137801210B431A
:105B1000DBB213709D4B00225A709F4B7F229B5C1F
:105B2000002B69D09F4B19881A78984BDA709E4BDE
:105B30001B8899425CD29B1ADBB2944A137164E0D1
:105B4000924B00225A70E8E7904B02225A70E4E729
:105B50008E4B06225A70E0E78C4B09225A70DCE724
:105B60008A4B0C225A70D8E7884B0C225A70D4E723
:105B7000864B0C225A70864B0B3A1A70CDE7874B36
:105B80001A78092AC9D89300884AD3589F46814A6F
:105B9000137801210B43DBB213707C4B00225A7047
:105BA000BBE77A4B00225A70B7E7784B02225A7053
:105BB000B3E7764B04225A70AFE7744B06225A7053
:105BC000ABE7724B08225A70A7E7704B0A225A7053
:105BD000A3E76E4B0C225A709FE76C4B0C225A7055
:105BE0009BE76A4B0C225A70694B0B3A1A7094E788
:105BF000664B00221A7108E0674BC5229B5C002BA4
:105C00001ED1624B4622DA701A7100F0C3FF1238BF
:105C1000FF38502802D95E4B06221A70644B1B785D
:105C2000042B1FD0624B1B78002B1ED0584B1B78C7
:105C3000002B1AD15E4B1B78DBB2554A137014E06F
:105C40005C4B1B78514CE3705B4D29885B4B18888B
:105C5000BD3AFCF766F82880642101F097F9C0B2DC
:105C60002071D2E74A4B04221A70494B1B78002B53
:105C70005ED0534B1B78002B5AD1474B80229B5C44
:105C8000002B38D0424B1B78092B11D0404B1B788E
:105C9000012B16D03E4B1B78052B1BD03C4B1B78A1
:105CA000072B20D03A4B1B78DBB2384A53719AE06D
:105CB000444B1B78002B00D195E0344B783A5A7155
:105CC00091E0404B1B78002B00D18CE02F4B06223B
:105CD0005A7188E03B4B1B78002B00D183E02B4BA3
:105CE00003225A717FE0374B1B78002B7BD0274B68
:105CF00004225A7177E0284B7E229B5A002B11D048
:105D0000314B1B78002B03D1304B9B7B002B03D0F6
:105D10001E4B00225A7166E01D4B1B78DBB21B4AFA
:105D2000537160E01A4B1B78DBB2184A53715AE08A
:105D3000234B1B78002B53D0254A1278002A14D10C
:105D4000244A1278002A10D0204A127C002A0FD14F
:105D5000214A1278002A0BD00F498420085C1F4981
:105D60000978884201D9042A02D0084A53713AE0DE
:105D7000144A1278002A02D0044A537133E0034BCC
:105D800000225A712FE0C0462415002098150020EB
:105D90000F150020B215002048050020EE14002049
:105DA0000096001094130020881300202096001005
:105DB0008C150020ED1400209E130020A01300205D
:105DC0001015002002150020EB140020681300209D
:105DD000381500203A1500202B06002088150020D9
:105DE000C34B00225A71C34B1B78002B00D191E2A8
:105DF000C14B1B78002B25D1C04B84229A5CC04B31
:105E00001B789A4203D9BF49097804291AD0BE49A0
:105E10000978002900D1A9E09A4200D8A6E0B94B40
:105E20001B78042B00D1A1E0B84B1B78002B00D1CC
:105E30009CE001296CD0022900D184E0B44B0022FF
:105E40001A800DE0AD4BB9229B5C012B53D0B14BB6
:105E5000198889B2AE4CB04B188801F097F82080B1
:105E6000AB4B1B88002B00D14FE2D9B2A04A9171F5
:105E70001B0AD371A14B82229B5C002B05D0A74A41
:105E8000137804210B43DBB213709C4B81229B5C83
:105E9000002B23D0A24B1B88002B00D15BE29F4A32
:105EA0001378802149420B43DBB213709D4B1B7862
:105EB000DBB20A2B00D854E2984A137840210B43F6
:105EC000DBB21370954B1B783F22934300D14EE217
:105ED000924A137804210B43DBB213708F4B1A786C
:105EE0001F210A4082498A701A783B210A401A70A1
:105EF0000022002347E2874B198889B2844C864BE5
:105F0000188801F043F88300C01840002080A7E7FC
:105F10007A4BB9229B5C012B09D07E4B198889B240
:105F20007B4C7D4B188801F031F8208098E7794B45
:105F3000198889B2764C784B188801F027F80A2323
:105F4000434323808CE76D4B2B22985C764B1B8858
:105F50005843642101F02AF881B2744B19806C4CCB
:105F60006D4B188801F012F8208079E7704B1B7890
:105F7000002B0DD0664C684D6E4B18880A2101F03D
:105F800005F80100288889B201F000F8208067E751
:105F9000694B1B78002B0BD0684B1B789900C918F4
:105FA00049005D4B188801F001F8594B188057E7FC
:105FB000634B1B78002B09D0624B198889B2544C73
:105FC000554B188800F0E2FF208049E75E4B1A78B5
:105FD0005E4B1B789A4223D84C49097800291FD080
:105FE00048480078012803D9594C2478002C17D050
:105FF0004A1E584B91008A189B181B5C002B0AD034
:10600000012B00D02CE7424C434B1888692100F04B
:10601000BDFF208024E73E4B3F4A12881A801FE7CD
:106020009A4207D839490978002903D035490978B7
:10603000042911D09A421BD8344B1B78002B17D05F
:10604000454B1B78642159430531334B188800F0C8
:10605000ADFF2F4B188003E7404B1B78603159434D
:1060600005312D4B188800F0A1FF294B1880F7E669
:106070003B4B3C4A12789B5C0C2B00D9F0E69B0012
:10608000394AD3589F461D4BB9229B5C012B08D03F
:106090001F4C214A354B1088198800F077FF20806B
:1060A000DEE61B4C1C4A314B1088198800F06EFF4D
:1060B0000A2343432380D3E6104BB9229B5C012B78
:1060C00009D0144B198889B2114C134B188800F071
:1060D0005DFF2080C4E60F4B198889B20C4C0E4B33
:1060E000188800F053FF0A2343432380B8E6C046D4
:1060F000981500200D1500200C15002048050020E3
:10610000881500202B0600200E1500203A150020CF
:10611000AE1300209A130020B0130020B215002007
:10612000BC1300201E160020A4130020A213002080
:1061300095150020C21300202815002041150020CD
:1061400029150020EC150020371500200A15002025
:106150000B15002014150020251500202315002004
:10616000FC140020FA14002048960010BA130020F6
:10617000934B2B22985C934B1B885843642100F06F
:1061800015FF81B2904B1980904C914B188800F00C
:10619000FDFE208064E68E4B18888E4B197800F047
:1061A00005FF8A4B18805BE68B4C21888B4B188847
:1061B0000822FBF7B6FD2080814BB9229B5C012BA6
:1061C0000BD0824C824D0A2100F0E0FE01002888AD
:1061D00089B200F0DBFE208042E67C4C7C4B1B88C1
:1061E0000100180000F0D2FE208039E67C4B1988AF
:1061F000764C774B1888890800F0C8FE20802FE67F
:10620000784B198889B2714C714B188800F0BEFE2A
:10621000208025E66A4BB9229B5C012B0AD0724B89
:106220001978632911D96A4B188800F0BFFE674BB3
:10623000188015E66C4B1B780A215943644B18886B
:1062400000F0B4FE614B18800AE60A235943604B04
:10625000188800F0ABFE5D4B188001E6634C218886
:10626000634B18880822FBF75CFD2080574C584D83
:106270000A2100F08BFE0100288889B200F086FE1A
:106280002080EDE5514C524A5A4B1088198800F095
:106290007DFE2080E4E54A4BB9229B5C012B0CD0AB
:1062A000554B18680A2100F071FE0100484B188810
:1062B00000F06CFE454B1880D2E5454B18884E4BDC
:1062C000196800F063FE414B1880C9E53F4C404A15
:1062D0004A4B1088198800F059FE2080C0E5484BD1
:1062E000187864235843474B197800F05FFE83B257
:1062F000013B9BB2444A13800A215943344B18880E
:1063000000F044FE314B1880AAE5404B07229A71F9
:10631000DA71AFE53E4B1888002817D0284BD02201
:106320009B5C002B0CD000010A2100F03FFE80B2E4
:10633000384B1880C2B2354B9A71000AD87199E572
:10634000C2B2324B9A71000AD87193E52F4B0722E3
:106350009A71DA718EE5304A13787F210B40137001
:10636000A4E52D4A137840218B431370AAE52A4AED
:10637000137804218B431370B0E52449C95C8A1853
:10638000D2B20133DBB2072BF7D9204B1A72234A62
:106390008A235B00D3581B0E7F221A401E239B1AB0
:1063A000092B00D870BD0023082BFBD8174AD25CFC
:1063B000D2B21A48C021490042500133DBB2F3E7A0
:1063C00048050020A4130020A2130020AE130020D3
:1063D000B0130020ED1400209E130020A013002015
:1063E000EA150020EC1500203F150020B413002012
:1063F000B61300208A130020D8140020B813002000
:106400001E16002035060020B2130020981500202B
:10641000BC130020AC130020B2150020000200487D
:1064200010B52C4B1B889BB22B4A934204D8294BA6
:106430001B889BB2092B24D8284B00221A80FCF71A
:1064400009FDFDF78BFBFCF723FD254B18780001B8
:106450000A2100F09BFD234B1870FDF7DFFB224B58
:106460001A78511C197003231340022B2ED011D817
:10647000002B16D0012B16D1FDF7FCFCFCF73AFEE1
:1064800011E0144B198889B2184800F07FFD134BB6
:106490001880D4E7032B06D1FCF712FDFEF782FA31
:1064A00001E0FEF7BDFCFDF7E5FE114B9978114ABE
:1064B0001180D978104A11801979104A11805979C0
:1064C0000F4A11809A790F4B1A8010BDFFF7F8FA26
:1064D000E9E7C04646060020FFEF0000B8130020A1
:1064E00008160020ED140020F214002090D00300C4
:1064F0000C160020541300205613002058130020BF
:106500005A1300205C13002030B589B020220021EE
:10651000684602F0A7FE2A4B1A682A4B9A4240D0DE
:10652000294B284A1A60294A2221515C19712A21D3
:10653000515C880009184800D8806021515A19819F
:106540006221515C9972518AD97200211973907D30
:1065500058739973D9736931515C19746821515C0E
:1065600059746E21515C99746D21515CD9746B2101
:10657000515C19758721515C5975C321515CD975DE
:106580006C21525C9A7569460A00180038C838C2F6
:1065900038C838C200230222094800F01FFA09B0A7
:1065A00030BD6C4602222100054800F04BFA064936
:1065B0000B00220031CA31C313CA13C3EFE7C04630
:1065C00000FF0010BBAA000068130020480500204F
:1065D00030B589B06C4620220021200002F042FE36
:1065E000074B2200190029C929C229C929C2002341
:1065F00002222100034800F0F1F909B030BDC04685
:106600006813002000FF0010024A13680133136072
:106610007047C046BC150020F0B5DE4657464E46D2
:106620004546E0B589B0814B00E0013B002BFCD131
:10663000FBF71AFB002800D001BE002309E07C4ACA
:10664000D25C7C49CA5412027B4998004250013303
:10665000DBB2072BF3D9FAF75BFE0123009300238B
:10666000002200210020FAF719FE74490020FAF7F1
:1066700009FEA021C9050B687148034080229200E1
:1066800013430B606F490B6803401A430A606E4B5B
:106690001868FA21890000F079FC013880235B0436
:1066A00098420DD2694A50606948036A1B021B0A6E
:1066B000C02109060B430362002393600733136074
:1066C00005AC0C220021200002F0CCFD23780C2226
:1066D0001343237063790F22934691464A4613432E
:1066E0006371DBB260229046424613436371A37923
:1066F0005A46934304263343A371237A33432372C8
:10670000544882256D0043590C3A924693434351B5
:10671000435901273B434351210000F007FF02ACDE
:106720000C220021200002F09DFD23780C229343CF
:1067300008221343237063794A4613436371DBB223
:10674000424613436371A3795A4693433343A3717B
:10675000237A33432372404843595246934343516B
:1067600043593B434351210000F0E0FE00F008FA9A
:106770003A4C3B4DA560FBF7A5FEFFF7C5FEFDF7C4
:1067800047FFA56000F094F8364B00221A70364B94
:106790009F60364BC62292009858354908408021A8
:1067A000C9010143995080218904196098583149E1
:1067B00008408021C903014399508022D2041A6005
:1067C0002D4B196B802252000A431A631A6B2B4916
:1067D0000A401A6309E0284B196B802252000A43D1
:1067E0001A631A6B25490A401A63254B9B68DB071D
:1067F000F1D5244B1A68244B1A60184B184A9A603A
:10680000224B1B78002B0DD01E4B1B68204A1268B0
:106810009B1A192BF1D91B4B1A681D4B1A60FFF7F5
:10682000FFFDEAE7FEF7B4FAEEE7C046C02709002D
:106830004C0600200C160020C01500207C9600108D
:10684000FFFCFFFF00000448FC3F002010E000E0D8
:1068500000ED00E000040348000803480000024087
:10686000FECAADAB3B0600200000015000E100E095
:10687000FF00FFFFFFFF00FF00000140FFFEFFFFE2
:1068800000010050BC150020B8150020461500205E
:10689000B41500200323034A1361034A1361034A1A
:1068A00013617047000100500002005000030050C7
:1068B00070B500F046F80A494A6A9208012313406D
:1068C000084A13704D6A02242C40234313704C6A0B
:1068D000A400042121400B43137000F036F870BD72
:1068E00000010440E015002010B5FFF7E1FF0D4B5B
:1068F000196B802252000A431A631A6B0A490A4034
:106900001A6309E0074B196B802252000A431A638D
:106910001A6B05490A401A63044B9B68DB07F1D5E3
:1069200010BDC04600000140FFFEFFFF0001005007
:106930000230800803D00138FDD1C046C046C046B1
:106940007047EFF3108072B6704780F3108870477D
:10695000064B1A89802149010A431A8148215A5A53
:106960008020000102435A527047C0460000054093
:1069700010B50D4A13681B0AFF210B400B4803603A
:10698000126811400A4A1160002B08D01B02C91876
:10699000084800F0FBFA4000074B186010BD064B9A
:1069A000064A1A60FAE7C046000301402C16002090
:1069B00028160020000024F4FC3F00200048E801D5
:1069C00010B5FFF7C5FFFBF741F910BD7047000098
:1069D000014B188880B2704700000540F8B50400EC
:1069E0000D001700164A9188FF20814391809188FD
:1069F000C020800101439180002B06D09388612143
:106A00000B439BB2938000260BE00D4A9388A12193
:106A10000B439BB29380F6E7FFF7DAFFC007FBD486
:106A20000136BE4206D20023032BF5D802CD02C4A4
:106A30000133F9E7024A9388FF218B439380F8BD25
:106A40000000054030B5002505E010C810C1013335
:106A5000032BFAD90135954201D20023F8E730BD66
:106A6000F0B5C64600B58B08984604339B001E5807
:106A700003250D40ED00F827AF40BE431E50436F85
:106A80004F000326BE40B3434367CB0810339B003F
:106A90001F5807260E40B6000424B440A7431F50D9
:106AA0001F585478B44026003E431E500D4B984268
:106AB0000ED00023D356002B10DB434604339B003B
:106AC00019581278AA400A431A5080BCB846F0BD43
:106AD000036E01268E40B3430366EAE753688B409A
